:08000000F07F002099260000AA
:100400000000000000000000FFFFFFFFBE03FFFF31
:1004100037B5BDF818401D19B5F5007F0568C4BF94
:10042000C3F50074A4B28D4207D141691046194446
:10043000224601F0CFFC002006E090F848500094DE
:10044000024C54F82540A04703B030BD1082FF1F76
:100450007FB54B68826801334B600D4690F82B10D6
:100460009A1AB2FBF1F601FB16220446002A3ED18D
:10047000018B4A0418D5C16802318B4231D036D382
:100480002A68016AD3B2022601EB122100960DF10F
:100490000A025B00FFF7BCFF10B16FF0030027E01A
:1004A000BDF80A3003930DE02A68016A02F07F0369
:1004B000042601EBD211009603AA9B00FFF7A8FFC8
:1004C0000028EAD1039B626893420DD9626A934285
:1004D0000AD82B6094F82B10E26803FB01236B60B1
:1004E00005E06FF0080003E06FF0060000E0002078
:1004F00004B070BD10B504688C42034608D0054AAC
:1005000090F84840196052F824404269A04710BD55
:10051000002010BD0C82FF1F38B50D4B0D4D102271
:100520001A600D4B01221A60044608214D20022258
:1005300001F0ECFE1CB14FF400732B8338BD07486B
:1005400001F042FD4FF480732B83054B1C6038BDD6
:1005500084F00F406082FF1FC082FF1FEA2B000063
:100560005C82FF1F08B5084B08481A8B42F008024E
:100570001A83074B32221A6001F026FD0548BDE8B8
:10058000084001F021BD00BF6082FF1F032C000066
:10059000C082FF1F122C000010B50D4C0D4B94F8BB
:1005A0004820216853F8223062692046984770B984
:1005B000636993F8FE21552A07D193F8FF31AA2BDE
:1005C00014BF6FF00200002010BD6FF0020010BDDC
:1005D0006082FF1F0C82FF1F2DE9F047494D4A4CF6
:1005E0002E6844F620639E4280468946924605DD89
:1005F000464801F0E9FC6FF001066BE0236813B197
:10060000062B2AD065E01523013B71D0404F4FF4F3
:1006100000323A603F4AFF21116011463A68920366
:10062000FCD53D4A1068C0B2FF28EDD12368052BE8
:100630000BDC4FF40030386018F8030008603868AD
:100640008003FCD510680133F1E723602EB14D2003
:10065000002101F029FE00232B60236801335A1E7C
:100660001A2A1F4605DD2B6801332B600623236001
:1006700040E0274E4FF400323260264AFF211160DD
:10068000104632689203FCD5234A116889F800109D
:10069000090603F10103E2D42760BAF1000F18D074
:1006A00098F80030492B4FF0000314BF04211221A9
:1006B00023608B420CDA4FF400373760FF27076066
:1006C0003768BF03FCD517680AF803700133F0E7F9
:1006D000236000262B6833B14D20002101F0E4FD9A
:1006E000084B00221A60002323603046BDE8F087E3
:1006F00001362E604D20012101F0D6FD4FF0FF3074
:10070000BDE8F0871482FF1FC482FF1F1C2C00006D
:100710002CC0024034C0024038C00240F7B53E4C05
:100720003E4D2368164613F0020201D06AB96FE00D
:10073000028B52063A4A43F002034FF01000106059
:100740002360384B58BF49021960364B36481B6846
:100750000371512202701A0E42701A0C82701A0A2A
:10076000C2700DF1070100224271FFF735FF471CEF
:100770002860EAD0002807DA2C4B10221A60236880
:1007800023F00203236044E09DF80730002B38D1AA
:10079000274B4FF400321A60264AFF211160196876
:1007A0008903FCD524480168C9B2FF29F0D0FE298D
:1007B00024D100214FF400371F60FF2717601F6806
:1007C000BF03FCD5076877540131B1F5007FF1D143
:1007D00017494FF400360E60FF2111601968890334
:1007E000FCD5016812494FF400360E60FF211160FC
:1007F0001A689203FCD50368002301E06FF003033D
:100800002B600A4B10221A60236823F00203236036
:10081000286803B0F0BD00BF5C82FF1FB482FF1FD9
:1008200088F00F401882FF1FB882FF1F84F00F402E
:100830002CC0024034C0024038C002402DE9F743CA
:100840004E4CBDF828901F462368904613F00202D4
:1008500001D06AB98EE0028B5606494A43F0020382
:100860004FF0100010602360464B58BF49021960DA
:10087000444B45481B680371512202701A0E4270A6
:100880001A0C82701A0AC2700DF10701002242711F
:10089000FFF7A2FE3D4B451C1860E9D0002807DA9F
:1008A0003B4B10221A60236823F00203236062E0AE
:1008B0009DF80730002B56D13649374E4FF40033A0
:1008C0000B60FF2333600B689803FCD5334D2B6816
:1008D000DBB2FF2BF0D0FE2B01D1002308E0304823
:1008E00001F072FB3FE00A689203FCD52A680133ED
:1008F0009AB2BA4205D24FF400320A60FF22326047
:10090000F1E7384607EB09039BB2984211D24FF446
:1009100000330B600130FF23336080B20B689B0310
:10092000FCD52B6808F8013BECE70B689F03FCD56E
:100930002B684FF400330B60B0F5007F4FF0FF03DE
:10094000336002D2013080B2EFE70B689A03FCD526
:100950002B68104B4FF400321A60FF2333600B6892
:100960009B03FCD52B680A4B10221A60236823F0E6
:1009700002032360002003B0BDE8F0835C82FF1F08
:1009800088F00F400882FF1FB882FF1F5882FF1FA8
:1009900084F00F402CC0024034C0024038C00240F6
:1009A000292C00002DE9F04F8DB090E8C00002F432
:1009B0000042954B069291F83A204FF0540909FBFA
:1009C00002390446884609A839460C2201F002FA89
:1009D00096F900305C2B01D02F2B00D1013600237B
:1009E000049304F11E031846E66220210B220593AE
:1009F00001F0E8F91823002084F82930B4460546B0
:100A0000034616F8011B4AB20D2A12D003DCC2B10C
:100A10000A2A0ED018E02F2A13D05C2A11D02E2AD1
:100A200012D1002B71D0082B58DC01200823B446CA
:100A3000E7E7002B6ED0D2F1010238BF00226646F4
:100A40006CE0002BF3D0F6E7CAB2202AEFD97E2A59
:100A500030D8DFF8B8C14CFA81FC1CF821CC1CF06E
:100A6000210F05D0002DE2D01CF0200FDFD035E0A3
:100A7000A5BB1CF0040F08D094F8292010B922F06F
:100A800008020DE022F010020FE01CF0080F25D044
:100A9000A2F12001C9B294F8292020B942F008023D
:100AA00084F829201AE042F01002072B84F829204C
:100AB00017DC2AE002F17F0C5FFA8CFCBCF11E0F00
:100AC00003D92032D2B21C2AB1D83BB94AB21B3268
:100AD0001BD10523A37701231D46A8E7072B14DDAF
:100AE00008B10A2B11DD324612F9013B0D2B14D04F
:100AF00003DC93B10A2B04D10FE02F2B03D05C2B26
:100B000001D01646EFE7022208E0059A0025D154ED
:100B100001338CE74FF0FF3200E00422A261013282
:100B200000F07C816663266396F900305C2B01D06F
:100B30002F2B00D101364FF0000A48467968FFF7A5
:100B4000D9FC8346002840F06081D9F81430029324
:100B50003B7A029D5B0103931D44BAF1000F40F004
:100B60008A80049B002B74D139460C2204F1380092
:100B700001F030F902990398069A0B5C12B9E52B43
:100B800009D17AE13BB12A7B2AB9AA7E1AB9EA7E59
:100B90000AB9012205E0E97A01F03F020F2A7FD16C
:100BA000002203F0400303F0FF0123B1636B2363D2
:100BB0000123079300E007910D2111F1FF31C0F0EF
:100BC00036814B1E0B2B23D8DFE803F01C1A1816B6
:100BD0001412100E0C0A0806AB7F1AE02B7F18E0E7
:100BE0002B7E16E0AB7D14E02B7D12E0AB7C10E099
:100BF0002B7C0EE0AB7B0CE06B7A0AE0EB7908E033
:100C00006B7906E0EB7804E06082FF1FD22C0000D5
:100C10006B78581EC0B2FD28CFD8206B00F1FF3C86
:100C2000C4F830C010F8010C8342C6D0A3F1410CC7
:100C3000BCF1190F02D82033DBB207E0A3F1610C3D
:100C4000BCF1190F00F21F812030C0B28342B4D032
:100C500019E1049B013B049340F02681636C002B57
:100C600040F022810123636404F1480029460B22ED
:100C700001F0B0F818E102460346A95C013201EB2D
:100C8000530101EBC3130B2A03F0FF03F5D194F8D2
:100C900055209A4240F004810123A3619A4628E03E
:100CA000002B40F0C180082A14BF6FF001036FF0E1
:100CB0000403082900F0E380D4F844C0BCF1000F1D
:100CC00040F0DD800122626404F148000B222946D5
:100CD0000193CDF800C001F07DF8DDF800C0019B64
:100CE0006246616B2163002A00F0D080DA1C40F07C
:100CF0008F80A26922F00202012A40F0D580029979
:100D000003980B5C1BB1E52B00F0CE801CE0626900
:100D100015070BD5B8F83820A8F8363002F00102D4
:100D2000A8F83820D8F8002002B11370A369002B6E
:100D300074D0A38B1C0704D5384609A90C2201F0F6
:100D400049F86FF0050BC3E0BAF1000F1DD09246D1
:100D50002B7D6A7D1B0403EB0263EA7E03EB022317
:100D6000AA7E1344E360C8F80450EA7AD00618D487
:100D7000C8F82C3099F82B10D9F80C2001FB03236C
:100D8000C8F830304FF0020BA2E0EB7A190700F1FF
:100D90008B80284605990B2201F031F90028D7D025
:100DA00082E0A2691AB1A28BD20600F191803B6069
:100DB00099F82B10D9F80C2001FB03237B60022348
:100DC0003B7296F900309BB96369022B29D01B074F
:100DD0007ED508F11404214608F108000C2200F029
:100DE000F9FF08F1200021460C2200F0F3FF6FE02C
:100DF00009A839460C2200F0EDFF2660BAF1000F79
:100E00003FF4EFAD0423A361EBE56FF0030B5FE06C
:100E1000023349D196F90030002B92D06FF0020BCB
:100E200056E04FF0030B53E06FF0020341E70798E1
:100E30006B7B10B184F8553003E094F8550098426C
:100E40001FD102980399435C216BE06A03F03F03D2
:100E5000012B0FD1814216D1616B21631AB3029825
:100E6000039B10F803A0BAF1E500D0F1000A5AEB99
:100E7000000A19E0814206D316E06FF00303002256
:100E80002FE70B462DE74FF0FF332AE7591C7FF47D
:100E90002DAF029A0399535C03F03F03049303E0E0
:100EA0004FF0000A25E79A463B7A0133DBB23B72EA
:100EB000B9F82820B3EB521FFFF43FAE00233B727A
:100EC00048463946FFF7C4FA00283FF436AE2DE70E
:100ED00058460DB0BDE8F08F2DE9F04F9E4DADF5B1
:100EE000077D0021019028688DF80F1010F0020096
:100EF00007D09A489A4B42691B689847461C00F0F5
:100F00009C832A68D40700F1E582964C2368122B53
:100F100000F23183DFE813F01500150013007E00A6
:100F20009300B000BF00CE002F032F03EA002F0371
:100F30002F032F032F035E016801950152020B233B
:100F400059E0894B894A1A60854B894A1A60894B56
:100F500089491A6842F480521A6053F8042C42F40A
:100F6000805243F8042C4FF410720A6053F8041CAA
:100F700041F4805143F8041C80490A6053F8042C62
:100F800042F4006243F8042C7D4A40F203211160D0
:100F900053F8042C42F4006243F8042C0220102180
:100FA0004FF4A07201F020FB764B77491A6842F0AB
:100FB00010021A605A6942F010025A61734B1A68A3
:100FC00042F001021A60724A1160724A1A60013AD4
:100FD0001A6003F553238433102201211A604D2037
:100FE00002230A46236001F091F9C4E211688903E3
:100FF000FCD5694A1268013B07D0684A4FF40031BA
:1010000011606749FF200860F0E7664B10221A6004
:101010000323236064480DF10F010022FFF7DCFA7F
:1010200028B1013000F0098300238DF80F309DF8BE
:101030000F30012B01D000201BE0042323605B480C
:101040000DF10F0106AAFFF7C7FA002856D19DF847
:101050000F30012B09D19DF81B30AA2BEBD19DF845
:101060001A30012B21D0524800E0524800F0ACFF6A
:101070000120FFF751FA7EE24F480DF10F010022E7
:10108000FFF7AAFA002839D19DF80F30012B00F2A2
:101090005E820623236049480DF10F010022FFF70D
:1010A0009BFA58BB9DF80F3013B1052323604EE225
:1010B0000723236042480DF10F0106AAFFF78CFABF
:1010C000E0B9404800F080FF9DF81820234B02F063
:1010D000400202F0FF011AB140221A833A4801E0AF
:1010E0003A48198300F070FF0A23236006AD3848A0
:1010F0000DF10F012A46FFF76FFA10B101309AD1B6
:101100009BE22B78FE2B14BF022201220346A91872
:10111000CE5C08214000C0B286EA00073F0648BF07
:1011200080F0090076000139F6B2F3D101330F2BBC
:10113000EDD10F3200F07F00AB5CB0EB530F40F00D
:101140002382102A40F025820DF11A000DF11901B9
:1011500000F02AFE1DE200BF5C82FF1F6082FF1FBD
:101160000C82FF1FC082FF1F1082FF1F3D0800007E
:101170001D0700003C80044004C0044008C0044037
:101180001CB0044080F00F400606003E00C0024044
:101190000CC00240013C3F8038C002402CC00240DD
:1011A00034C0024088F00F40302D0000D82B0000E2
:1011B000342C00004C2C0000E42B0000DE2B00003F
:1011C000CC2C0000712C00007F2C00008F2C000024
:1011D000C62C0000B64B00221A60FFF7DDF9421C56
:1011E00000F02B8210232360C31C00F0A380112386
:1011F000236000287FF41FAFAD4A536993F8C20102
:101200001146D8B193F95200462817D093F9360009
:10121000462813D093F8C80193F8C911000400EBD5
:10122000016093F8C71100EB012093F8C611431831
:101230001360FFF7B1F9471C03D1FEE100230B60F7
:1012400001E0033076D09A4A5369DE7D987D197BA0
:1012500010EB06264FEA012110D193F8266093F88F
:101260002700360406EB006693F8250006EB0026FF
:1012700093F824004FF0010A064401E04FF0000A01
:1012800093F814E0D87C10EB0E2E0ED193F822E0E8
:1012900093F8230093F821704FEA0E4E0EEB006E88
:1012A00093F820000EEB072E8644D66193F8109039
:1012B00082F82A90587B82F82B0093F80FC09F7B0E
:1012C000D2F800807A4C07EB0C27BFB207EB080C72
:1012D000B1F5007FC2F820C005D320B101FB00FBAF
:1012E000BBF5004F01DD734822E009FB06F6B4F8B8
:1012F0001890218529F008091FFA89F949F0200B77
:10130000A4F818B007EB060BCBEB0E0BBBFBF0FB06
:101310004FF6F4718B4517D8BAF1000F14D10121A3
:10132000616003F1240193F93A30322B05D1624810
:1013300000F04AFEFFF716F91DE149F4804949F033
:101340002009A4F818901AE093F8314093F830106F
:1013500093F82F9001EB042193F82E40240404EB22
:10136000096493F82D9004EB092493F82C9018FA53
:1013700081F14C44D1621160546003F14001536823
:10138000C7EB0E07BF1B6644B7FBF0F703FB10600B
:10139000138B96605E045762D06002D5444B1F30B9
:1013A000D86007310B22454800F014FD444B12224F
:1013B0001A60FFF7F1F8441C00F03F813C4C002814
:1013C0004BD1228B510448D4636993F8FF11AA29A9
:1013D00043D193F8FE1155293FD1D97841293CD109
:1013E0009978612939D15978522936D119785229F9
:1013F00033D193F8E71161292FD193F8E6114129F0
:101400002BD193F8E511722927D193F8E4117229B1
:1014100023D193F8EA1193F8EB0193F8EE610904F4
:1014200001EB006193F8E90101EB002193F8E80179
:10143000014493F8EF012163360406EB006693F84C
:10144000ED0106EB002693F8EC01023933188B42CC
:10145000636302D842F0040222831A4800F0B4FD0C
:10146000238B194843F080032383184C00F0ACFD14
:10147000238FDA0714D594F83A708FB9266820467E
:1014800039463C2200F09EFC0123238784F83A7001
:1014900036B1266030460E4900F0C0FD0323E386D6
:1014A0002B6843F001032B60054B13221A6062E0A6
:1014B0006082FF1F9A2C0000A72C0000A982FF1F4A
:1014C000C082FF1FB32C0000312C00001C82FF1FC4
:1014D000C22C0000D3064ED55A4B5B4EDC69186A0D
:1014E00031680444A14237D2641A0A2C28BF0A2466
:1014F000002C2CD03168554B524F1B684A1C06AD4E
:10150000326038462A469847F8B93B8B504903F475
:1015100080439BB20BB90A680FE00B682A580AB9DE
:10152000023304E097B20FB1120C00D10133043042
:10153000B0F5007FF2D10B6007E0E85800B9013246
:101540000433B3F5007FF8D10A60013CD0E74D20A9
:10155000042100F0A9FE0EE03E493F4C22F01002AB
:101560000A603B4A94F9000012681A63BF2100F038
:1015700031FD00232370019B04A9987B052200F014
:101580007BFB0028F7D158E04D20042100F08CFEB1
:1015900053E02C4E0DF11A01102206F1380000F034
:1015A00019FCAB78AA7AE97A13F0400F6B7A07D06E
:1015B000120202EB0343194401318902316118E040
:1015C000287A9B0000F0030003EB8023287B03EBC9
:1015D000921201F00301C009EB7900EB41010132E5
:1015E000023103F00F038A400A2B326104BF52001C
:1015F00032611A4800F0E8FC73692BB94FF40070AF
:1016000000F036FD0F4B58610F2304214D2023605D
:1016100000F04AFE002386F84830114B10221A6071
:10162000104B1A6842F001021A600F4A4FF03E4117
:1016300011601A6822F0010238E70DF5077DBDE858
:10164000F08F00BF6082FF1F0082FF1F0C82FF1F10
:10165000C882FF1F5C82FF1F0482FF1F312C000025
:1016600084F00F4000C002400CC0024038B50A4C64
:10167000238F0D4673B90123238784F83A0029B1DB
:10168000C81880B200F0F4FC206000E02160A5865C
:10169000014838BD002038BD1C82FF1F30B597B00F
:1016A00005460C4658220021684600F08BFB684630
:1016B0002946224600F00AF8049B23B168462146D9
:1016C0000022FFF76FF917B030BD00002DE9F84395
:1016D000144692F83A308D4A0E46542101FB0323FA
:1016E0000546188B010640F1068100226A61002E32
:1016F0007BD0E78E96F900102E2922D196F90110A1
:101700002E291ED1216829B9268F46F0400626874A
:101710000E4616E0032F40F2F2800AB1013FBFB23D
:1017200011F907C0BCF15C0F05D196F90210013226
:1017300029B9023607E0BCF12F0FEFD1F5E70336E8
:10174000D8E7002A51D0228F032F42F04001218791
:10175000A9833BD92368002213F80790DA55238F19
:10176000206823F01003238703302146FFF796FFFC
:10177000804618B1236803F80790C0E096F900305E
:10178000BBB1AB8B23F0C00343F08003238730460B
:101790002146FFF783FF18B1A5F81C80804608E0BA
:1017A000AB8BDA0505D52068711E384400F036FC95
:1017B00003E0AB8BDB0503D5E7860520BDE8F883A6
:1017C000236803F807904046BDE8F883D7050CD599
:1017D00023680022DA700323E38604F1200004F179
:1017E00008010C2200F0F6FAE7E7218F2E6021F4C1
:1017F000FC72A983228736B1327822B152B20A2A0A
:1018000001D00D2A01D1012210E05C2A01D02F2A3B
:101810000DD141F02001A983727822B152B25C2A25
:1018200001D02F2A01D1042200E002226A61AA8B92
:1018300012F0020F04F120062CD15A68EA60012A46
:101840006261D96893F82B3005D8400403D51F395D
:101850000B44A36102E002FB0312A261002304F126
:101860001407237739460C2204F1080000F0B2FA7D
:10187000304639460C2200F0ADFA072323876B6906
:10188000206843F008036B6120B1214900F0C6FBDA
:101890000323E386AB8B13F0E40F1DD05A0603D568
:1018A000304604F1080112E01B0613D46B6913F0F3
:1018B000060F304609D004F108010C2200F08AFA24
:1018C0006869042806D1BDE8F88304F114010C22EC
:1018D00000F080FA6E6006E004F1140169603046A1
:1018E0000C2200F077FA6B6913F005000BD101228E
:1018F0002A61BDE8F8836FF00100BDE8F8836FF05E
:101900000200BDE8F8830020BDE8F8836082FF1F75
:10191000C22C00002DE9F341002303864368DB0756
:1019200088460446154690F8361048D58268C36844
:10193000D31A01D1002044E09D4288BF9DB2224BC2
:10194000542707FB0137002DF4D0E368C3F30803E5
:10195000C3F50076B6B2B54238BF2E4613B9B6F518
:10196000007F1AD000963846E16A4246FEF750FDE5
:1019700080B9228EE368324422863A8D3344B3FB29
:10198000F2F1AD1BE36002FB1133ADB2B044002BAA
:10199000D9D10CE06FF0030013E094F836200B4B24
:1019A000E16A53F82230384642469847E0E7384625
:1019B00004F12801FEF74CFD0028C4D001E06FF0CF
:1019C000080002B0BDE8F0816082FF1F0C82FF1F9B
:1019D000F0B5064697B00C461D460A60002A79D03D
:1019E00092F83A303F4A542101FB03231B8BD8065F
:1019F00002D515F0260F70D100215822684600F05C
:101A0000E1F923681A8F15F0200F14BF42F01C0271
:101A100042F00C021A87684631462268FFF756FEEC
:101A2000049B002B5BD0684621682A46FEF7BAFF6C
:101A3000022806463CD12746264657F8201B0C2292
:101A4000203104F1140000F0C5F956F8281B0822D3
:101A50002C31384600F0BEF9216808222C3130467E
:101A600000F0B8F922685368D97AC90748BF25F051
:101A700006056560987FD97F000400EB0160597FFF
:101A800000EB0120197F4318A3600023E36092F864
:101A90003A3084F836305368597C1A7C42EA012285
:101AA0006286DA7B9B7B43EA0223A386022016E050
:101AB00070B9216804F1140020310C2200F08AF979
:101AC00045F080052368656093F83A3084F8363035
:101AD000304604E06FF00B0001E06FF0120017B029
:101AE000F0BD00BF6082FF1F2DE9FF474C4B0D4644
:101AF00090F836105426012A06FB01360446C368C6
:101B000005D0022A10D0002A18BF002512E0002DAF
:101B100003DA6A429A420CD804E08268D21A9542EB
:101B200028BF15461D4405E08268954201D2551B29
:101B300000E000259D426BD009D204F1280004F199
:101B40002001082200F046F90023E36003E0A368C7
:101B50009D4228BF1D46B6F82880E768C8F1000AF4
:101B60000AEA070705EA0A0A574550D2E26AB3684B
:101B70000132E262D21A96F82B30B2FBF3F103FB8A
:101B80001123002B46D1338BA26A13F4804F336AA2
:101B900017D003EB122930464946FEF7ABFC00286C
:101BA0002FD194F8283002220092304649460DF198
:101BB0000A025B00FEF72CFC18BBBDF80A30039349
:101BC00012E003EBD21930464946FEF793FCC0B948
:101BD000A36A042203F07F0300923046494603AA19
:101BE0009B00FEF715FC60B9A26A736A9A420BD893
:101BF000039BA36296F82B10F26803FB0123E362B8
:101C000008E06FF0030007E06FF0060004E0E56015
:101C1000002001E04744A7E704B0BDE8F08700BF1B
:101C20006082FF1F024B542202FB0030704700BF4E
:101C30006082FF1F13B50138C3B20648006803EB8A
:101C4000830400EB8404207C009364680323A04792
:101C500002B010BDD082FF1F08B5054B187000EB15
:101C60008000800000F004FA024B186008BD00BF3D
:101C7000CC82FF1FD082FF1F13B50138C3B20648C4
:101C8000006803EB830400EB8404207C0093646809
:101C90000423A04702B010BDD082FF1F70B50C4BCB
:101CA0001E780C4B1B6800221433D4B2B4420DD200
:101CB00053F8105C854206D113F8045C8D4202D1C2
:101CC000601CC0B270BD01321433EEE7002070BD5D
:101CD000CC82FF1FD082FF1F2DE9F74F82461046AE
:101CE000894690469B46FFF7D9FF014608B1002080
:101CF0003FE0FFF7D3FF07460028F8D06FF013034B
:101D0000142616FB00361C4B1B681E44BAF8003024
:101D1000A3B1584600F0ACF90446B06070B1BAF80F
:101D200000300193184600F0A3F9019B0028DED093
:101D3000C51820606060A060E560E382BAF80230F8
:101D400093B1584600F094F90446F06060B1BAF8D7
:101D50000250284600F08CF90028C8D043192060B2
:101D60006060A060E360E582C6F8048086F81090A9
:101D7000384603B0BDE8F08FD082FF1F032807B5B7
:101D80004FF000000BD11389ADF804301368ADF8A3
:101D900006001978034A01A81823FFF79DFF03B036
:101DA0005DF804FB551E000070B5114485181346FC
:101DB00013F1FF3305D354420E192C44F65CE6545C
:101DC000F6E770BD02440346934202D003F8011BBC
:101DD000FAE7704710B50023934203D0CC5CC4549B
:101DE0000133F9E710BD2DE9F843058A4768AA4297
:101DF00038BF154604460E463DB3C3687A199A4269
:101E0000426015D3C7EB03081FFA88F80368C8EBD4
:101E100005094B44436000F0EBFA8EB13946424667
:101E20003046FFF7D7FF06EB080021684A4605E079
:101E300000F0DEFA26B1304639462A46FFF7CAFFDF
:101E400000F0CEFA238A5B1B238200F0D1FA2846E9
:101E5000BDE8F883F8B51F460C4B9DF818001B68C9
:101E600000EB800003EB80000D461446866800F00E
:101E7000B7FA042F06D1304629462246BDE8F8407D
:101E8000FFF7B1BF00F0B4FA0020F8BDD082FF1F09
:101E90002DE9F041044615460F4600F0A1FA218ACB
:101EA000628AE38A88182844984202DD5D1AAD1AD6
:101EB000ADB22A44D4F808806282E26808EB0506D5
:101EC0009642A66006D3F31A2668A3609E1BAE1B3B
:101ED000B6B200E02E4600F08BFA40463946324654
:101EE000FFF778FFB54204D02068B919AA1BFFF7A5
:101EF00071FF00F075FA638AA28AAB4206D1238A89
:101F00002B441A4400232282A38202E02A44A282A4
:101F10005B1B638200F06CFA2846BDE8F08100008C
:101F200070B5027843789A4204460E4621D18578EE
:101F300011482946FFF7B2FEE0B16FF013031422F7
:101F400012FB00300D4B1B681844E3788068032BAC
:101F500004D1C28A038AD01A80B270BD21463246AB
:101F6000FFF796FF0421044668B200F09DF9204671
:101F700070BD002070BD00BF551E0000D082FF1F45
:101F800030B528B90846BDE830401146FFF7C8BF54
:101F9000FF2803D0BDE83040FFF74CBE002030BD25
:101FA00010B5002304469AB20133E01810F8010C72
:101FB0000028F8D12AB108462146BDE81040FFF7B5
:101FC000DFBF104610BD0000014B1978FFF7E8BFD6
:101FD000F081FF1F07B5002370B18DF800308DF838
:101FE00001308DF8020001238DF8041068460521A8
:101FF0008DF80330FFF794FF03B05DF804FB30B5B4
:102000000023934208D0C45C0133CD1815F8015C5D
:10201000A542F6D0012030BD002030BD03460A782D
:1020200003F8012B11F9012B0AB11846F6E77047A6
:1020300000F05ABA0A4B10B500221A80094B0A4A1E
:1020400019600A4B147819601A460378A34202D02B
:1020500023B10430F9E743881944116010BD00BF73
:10206000D882FF1FD482FF1FF181FF1FDC82FF1F78
:10207000F8B5104A104B11681C880C4414F0030F7B
:1020800017460E4A1CBF24F00304043412681E468F
:1020900023189A4205460AD92A4620460021FFF70E
:1020A00091FE3B68E31A1D4435802046F8BD0020B0
:1020B000F8BD00BFD482FF1FD882FF1FDC82FF1F44
:1020C0002DE9F047534B544F914600221A603A6075
:1020D000524A1278824698460C78002C49D0944295
:1020E0003ED10B4693F901405E1AF6B25D1C0CB16D
:1020F0002B46F7E706EB860080000430FFF7B8FFB9
:1021000003463860F04328442546427832B35146AE
:10211000D1F800E0BEF1000F1ED09EF800C062456D
:1021200018D14A685A600A89C3F800E01A810AB1D6
:102130000134E4B2B1F80AE08A89A3F80AE09A818E
:10214000897BD973BEF1000F00D10AB10135EDB220
:10215000143301E01031DBE70130D6E71A600AE002
:102160004B1C1946013391F900000028F9D119469A
:10217000B2E7254626463B68002B42D055B305EB17
:1021800045008000043080B2FFF772FF224BC8F890
:1021900000001B681A68BAB15A8942B14FF6FF7144
:1021A0008A4204BF00225A815A89426002E099891A
:1021B00009B14160012142680AB10122427209B1AC
:1021C00040F80C3B1433E5E705EB4505A0EB850033
:1021D000C8F8000004EB0900C0B2FFF73DFD84B170
:1021E0003C6823686BB123894BB10320012122464F
:1021F000FFF7C4FD08B1A07301E0FF23A3731434FB
:10220000EFE7074B00221A6000F052F93046BDE8B4
:10221000F08700BFE882FF1FE082FF1FF181FF1FF0
:10222000E482FF1F1F4B73B51C68143454F8143C30
:10223000A4F114069BB314F8053C13F00D0FF4D071
:1022400000F0CEF834F8083C1BB914F8053CDB0765
:102250001ED414F8043CA3B100258DF800508DF86D
:10226000015054F8142C12788DF802202846694643
:1022700005228DF803508DF80430FFF781FE04F835
:10228000045C14F8053C13F00A0308BF04F8053C8D
:1022900000F0AEF854F8103C30469847C5E702B05D
:1022A00070BD00BFE082FF1F38B5154B1C68236866
:1022B00023B393F9003083421ED1B1B9114B1D688D
:1022C0009DB12B688BB19C420DD100F089F8A38998
:1022D0001BB10D4A126813446B600023E373BDE821
:1022E000384000F085B80C35EBE74A0702D5E37BB0
:1022F0001B0703D4E17338BD1434D8E738BD00BFE1
:10230000E082FF1FE882FF1FE482FF1FF8B5184B31
:102310001C680D4617464CB3164B1E6833682BB32A
:1023200093F9003083421FD12368E3B19E4218D154
:1023300000F056F8F37B23F00203F37327721FB902
:10234000B58125B9657208E0002D08BF01250A4B4B
:102350001B681D44012365606372BDE8F84000F00E
:1023600047B80C34E0E7F8BD1436D7E7F8BD00BF36
:10237000E882FF1FE082FF1FE482FF1F154A164B11
:1023800011681B68013110B5104611600BB30C3396
:1023900053F80C2CEAB113F8031C0029F7D0046899
:1023A00053F8081C8C42F2D1D17B8C0706D4090764
:1023B0005CBF0421D17313F8041C117492892AB1F3
:1023C00053F8081C0A4443F8082CE0E703F8032CF0
:1023D000DDE710BDE482FF1FE882FF1F70470000A9
:1023E00072B6024B1A6801321A607047F482FF1FFE
:1023F000034A1368013B136003B962B6704700BF1C
:10240000F482FF1F08B5064B4FF000721A60FFF709
:10241000E7FFFFF7B3FFBDE80840FFF7E9BF00BFE4
:1024200004ED00E0F8B51C4D2B6853B91B4F27F0A5
:1024300001071B4CDE5B1E5302333C2BF9D10134E8
:102440002C60184B1C782406FBD51C7814F0300F38
:102450001CBF30241C70144B0628187001D00928AA
:102460000DD1124B0C0C1C700C0A03F8014C03F834
:10247000021C0628A3F1020304BF12685A60094C2B
:10248000FFF7AEFF20462B689847FFF7B1FF207893
:1024900000F03100F8BD00BFF082FF1FF281FF1F86
:1024A000FC82FF1F000002400700024006000240BD
:1024B000084B094ADA63094A094B13605360094B18
:1024C0001A6842F070421A60A3F5516307221A603D
:1024D000704700BF0080FF1F0524000014E000E0EB
:1024E0007FEE360020ED00E008B5094B1B88DB07C6
:1024F0000AD5FFF775FF074B4AF202621A804BF2CA
:1025000080421A80FFF774FF034B20221A6008BD37
:10251000002005400C2005408CF00F4038B520F419
:10252000FF64451824F00704092021460022FFF724
:1025300079FF30B92B1BB3F5006F03D904F50064A4
:10254000F2E7012038BD00002DE9F04716460F469E
:10255000234C59B923689A0702D10020BDE8F087BF
:1025600023F0030323604FF0040804E020F003038A
:10257000236000F00308DFF86C90C8F10405B54251
:1025800028BF354609EB080A504639462A46FFF768
:1025900021FCAA4409F104039A452F44C5EB060621
:1025A00014D306202168DFF838804A46FFF73AFF47
:1025B000054688B9D8F8003048460433FF21042284
:1025C000C8F80030FFF7FEFBA84602E023681D4470
:1025D0002560002ECFD1C0E70120BDE8F08700BF05
:1025E000EC82FF1FF882FF1F00F580204930002A8F
:1025F00030B54FEA003007DA22F0004222F4EE62F2
:1026000022F00402032401E040F27774012359B15F
:102610000B4206D0056825EA04051543056021EA4A
:10262000030104305B00F2E730BD000010B5124A30
:1026300012490023891A8B4204D01148185CD054E7
:102640000133F8E70F4B104A9342184604D10F4A62
:102650000F490023891A08E00E490023891A8B428A
:10266000F5D0C45CD4540133F9E78B4203D0002089
:10267000D0540133F9E710BDF081FF1FFE81FF1F29
:10268000A82D000010040000100400000082FF1FAD
:10269000A083FF1FD82B000008B54C4B1A6842F4EA
:1026A00080521A604A4A116821F060011160A2F557
:1026B0003322543A4749116002F5332250324CF22A
:1026C0002050126812F0400F1A4603F51F4303F121
:1026D000D6034DF62811188019800BD04FF4C8711D
:1026E00023F8081C002123F80A1C40F2D11123F81A
:1026F0000E1C03E0384B4FF4E9711980136843F462
:102700000063136002204FF4A2722021FFF76CFFD8
:10271000324B1A6842F020021A605A6942F02002D5
:102720005A61A3F51B237F3B24221A70A02203F8D1
:10273000012C2B4B1A789407FBD51A78D006FCD4C1
:102740001A7802F00C02082AFAD1264B27221A70B6
:102750004C225A70224B1A789106FBD51A785206F1
:10276000FCD5214B214A1A60214B28221A701C4BA0
:102770001B7803F00C030C2BF9D11E4A1E4B13607F
:102780001E4ADA601A615A619A611A639A609A6302
:10279000DA62FFF74BFF1A4B1A4A00241C606FF0F5
:1027A0007F4313605360184B1A6805221A6000F0CB
:1027B00001FA16481649FFF73DFC1648164922460D
:1027C000FFF77EFCFFF72EFDFCE700BF38800440DA
:1027D000D4F00F40030160000020054080F00F405E
:1027E00006400640044006404480044000001301B7
:1027F0000040064008ED00E00080FF1FDD230000E0
:102800000080004014E000E010E000E0362D000001
:10281000A083FF1F542D00004D2D0000D0F800D0E4
:10282000D0F804F070470000F0B5831EC1B0044634
:10283000052B00F2C280DFE803F0030C32536493EF
:102840005F4A002313605F4A13805F4B4FF40042DE
:102850001A605E4C5B4D5A4E69464FF480722046BA
:10286000FFF758F82888228E694600F04DF9336842
:1028700028806BB9544D228E28686946FFF7BFFB4C
:1028800010B10123336003E02B68228E13442B60C8
:10289000238EB3F5807F14BF0424032476E0494CD3
:1028A0004B492088062200F02FF94A4B2080DB8814
:1028B000834211D1424B1B685BB14FF4C8314FF4D6
:1028C0000040FFF72BFE53200121FFF783FB052477
:1028D00073E053201E2101E053201421012269E0FE
:1028E000394C3A484FF40043082100222360FFF797
:1028F000FBF8364838490422FFF70CF82368043304
:102900002360324D304C69464FF480722846FFF701
:1029100001F820682A8E6946FFF716FE2B8E206884
:10292000B3F5807F1844206018D000210A46FFF7D5
:102930000BFE4FF40040284920600422FFF704FEFC
:10294000002120680A46FFF7FFFD1E4B00221A8077
:10295000AA68224B083A1A60072417E0062415E0FB
:102960001E4F184D3A68184E28883168B2F5806FAE
:1029700011D34FF4806200F0C7F83B682880A3F5BC
:1029800080633B60336803F580633360012153202B
:10299000FFF720FB11E000F0B7F80D492880062270
:1029A00000F0B2F80B4B2880DB88834291D0532093
:1029B00050210222FFF7AAFC0124204641B0F0BDBD
:1029C0004883FF1F5C83FF1F5883FF1F6083FF1F27
:1029D000942D00003883FF1F4C83FF1F9C83FF1F33
:1029E00010B1012000F0A4B8054A13680133022B8E
:1029F0001360F6DC532014210222FFF787BC00BFCE
:102A00009883FF1FF8B5384B877B1C681E46FCB9BE
:102A100001221A60FF2104223448FFF7D3F9532022
:102A200014210222FFF772FC20462146FEF71EFE0B
:102A30002F4B1860F8BDE07800284ED12379022B87
:102A400045D1FFF7EFF8038B5BB90020FFF7C8FF14
:102A5000284C384621460522FFF70EF90028EAD116
:102A600040E0DA05F1D41B07EFD4234D234853236C
:102A700085F837301E4B29461A680123FEF7A8FF58
:102A800002281ED1AB681E4A93421AD81D4C082258
:102A900021462846FEF73EFFE388A9685BBAE3803B
:102AA000A3885BBA9AB2A38023681BBA2360083359
:102AB000994206D141F234239A4202D10220306079
:102AC0000CE0532014210122FFF720FCC0E7012B6A
:102AD000BED1184600F02CF8BAE73068FFF7A4FE24
:102AE0003060F8BDF8BD00BF4083FF1F4C83FF1F5F
:102AF0004483FF1F5083FF1F6083FF1F9A2D000038
:102B0000089001003883FF1F0A4491420ED011F84B
:102B1000013B40BA80B25840C0F30313584080EAEA
:102B2000003080B2C3B280EA4310EEE77047000085
:102B300008B54FF400431B68013333D048F2040357
:102B40001B6801332ED038B3FFF74AFC164B002226
:102B50001A60164B1A6822F470521A6053F80C2C43
:102B600022F4406243F80C2C53F8082C22F00102A6
:102B700043F8082C53F8042C22F4003243F8042CB8
:102B80000B4A4FF0FF331360C2F800315360C2F8B4
:102B900004319360C2F808314FF40040BDE80840AA
:102BA000FFF73CBE08BD00BF10E000E034800440E9
:102BB00080E100E0064B1B6813F0200F10B5054CB8
:102BC00003D000202080FFF7B3FF0023238010BD37
:082BD000D0F00F40FE7F002051
:102BD80048000001AA876940000000007700000053
:102BE800000053442D63617264206E6F7420726517
:102BF80073706F6E64696E670D0A004E6F6E2D6696
:102C08006F726D6174746564200053442D63617242
:102C1800640D0A0054494D454F55542121210D0A90
:102C2800004552522D312121210D0A0053442D63B4
:102C380061726420766F6C74616765206572726F6B
:102C4800720D0A0053442D63617264205631206F5F
:102C580072204D4D43202D206E6F74207375707057
:102C68006F72746564210D0A0053442D63617264A8
:102C7800205632202D200048696768204361706122
:102C8800636974790D0A007374616E646172640D0E
:102C98000A004D616C666F726D6564202D20004ED0
:102CA8004F542046415431362D20004469736B201F
:102CB80044206D6F756E74656400443A5C00490089
:102CC800000000007A000000000000010000000081
:102CD8000000000101000000021010101010101078
:102CE800101010010101010100000404040404048F
:102CF800040404040404040404040404040404048C
:102D08000404040420022000000008080808080839
:102D1800080808080808080808080808080808082B
:102D28000808080800200000400000000095010085
:102D380000300000000057646F67004D61737353E3
:102D4800740053440001574D530000003E2D00000D
:102D5800312000000000000002000100432D0000A7
:102D6800D90E00004500FFFF000004004A2D0000B6
:102D7800052A00002500FFFF0000040000000000F5
:102D8800000000000000000000000000A748B65343
:0F2D98001124736F6674776172652E62696E0025
:0E2DA800FF018021017001780906FCD57047FB
:0400000300000410E5
:00000001FF
