:1000000000800020BD010000993D0000993D0000E6
:10001000993D0000993D0000993D0000653D0000BC
:10002000653D0000653D0000653D0000993D000014
:10003000993D0000653D0000993D0000553D0000E0
:10004000993D0000993D0000993D0000993D000058
:10005000993D0000993D0000993D0000993D000048
:10006000993D0000993D0000993D0000993D000038
:10007000993D0000993D0000993D0000993D000028
:10008000993D0000993D0000993D0000993D000018
:10009000993D0000993D0000993D0000993D000008
:1000A000C1380000993D0000993D0000993D0000D5
:1000B000993D0000993D0000993D0000993D0000E8
:1000C000993D0000993D0000993D0000993D0000D8
:1000D000993D0000993D0000993D0000993D0000C8
:1000E000993D0000993D0000993D0000993D0000B8
:1000F000993D0000CD580000993D0000495D000089
:10010000993D0000F9600000993D0000993D000014
:10011000993D0000993D0000993D0000993D000087
:10012000993D0000993D0000993D0000993D000077
:10013000993D0000993D0000993D0000993D000067
:10014000993D0000993D0000993D0000993D000057
:10015000993D0000993D0000993D0000993D000047
:10016000993D000095440000993D0000993D000034
:10017000993D0000993D0000993D0000993D000027
:10018000993D0000993D0000993D0000993D000017
:10019000993D0000993D0000993D0000193F000085
:1001A000693F0000F13F0000AD4000003141000018
:1001B000993D0000993D00001D500000544B4CF249
:1001C000205210B51A804DF628121A8000BF00BFC9
:1001D00003F0E6FD4F4B4FF010621A604E4A9A60F2
:1001E0004E4ADA604E4B1A6812F4807204D14D49BF
:1001F0000A604FF4A8521A604B4B1A7802F00802BA
:10020000D2B21AB11A7842F008021A70474B484825
:10021000484C2A221A700023474A02E01959995083
:10022000043399188142F9D3444B454A002101E037
:1002300043F8041B9342FBD34249434800231A5816
:100240005A500433B3F5DE7FF9D1404B404A802148
:1002500003F8011B9342FBD13A4A3E4B1A603E4BD6
:100260000A221A703D4B24221A70A02203F8012C96
:100270003B4A137803F00203DBB2002BF9D0384A73
:10028000137803F01003DBB2002BF9D1344A137852
:1002900003F00C03082BFAD1324B03221A704022D0
:1002A0005A702F4A137803F02003DBB2002BF9D0E9
:1002B0002B4A137803F04003DBB2002BF9D02A4B12
:1002C0002A4A1A6002225A60294B20221A70244AB4
:1002D000137803F00C030C2BFAD1264A264B1A6034
:1002E000264B274A1A60072243F8042C62B603F013
:1002F000C3FF0C4B1B68DC0702D5224803F030FF1C
:1003000008F02CFA03F052FD04F034FFFEE700BFC2
:100310000E20054030800440823F04000100002B85
:1003200010D0034014D0034002D0074000E0074043
:100330005895FF1FFCA70000608FFF1F5895FF1FF7
:10034000DCA9FF1F008AFF1F0000000000E400E09E
:100350005FE400E008ED00E0005006400140064088
:10036000064006400440064044800440000003016B
:1003700000400640C01005000480044014E000E086
:10038000FF7601008E0AFB54FFFFFFFFFFFFFFFF18
:10039000FFFFFFFFFFFFFFFFFFFFFFFFFFFFFFFF6D
:1003A000FFFFFFFFFFFFFFFFFFFFFFFFFFFFFFFF5D
:1003B000FFFFFFFFFFFFFFFFFFFFFFFFFFFFFFFF4D
:1003C000FFFFFFFFFFFFFFFFFFFFFFFFFFFFFFFF3D
:1003D000FFFFFFFFFFFFFFFFFFFFFFFFFFFFFFFF2D
:1003E000FFFFFFFFFFFFFFFFFFFFFFFFFFFFFFFF1D
:1003F000FFFFFFFFFFFFFFFFFFFFFFFFFFFFFFFF0D
:10040000FFFFFFFFFFFFFFFFFFFFFFFFFEFFFFFFFD
:1004100008B549F25850074BC1F6FF701B1A062B5E
:1004200000D808BD40F20003C0F20003002BF8D052
:100430009847F6E75B95FF1F08B549F2585049F217
:100440005853C1F6FF70C1F6FF731B1A9B1003EBE4
:10045000D373591000D108BD40F20002C0F200026F
:10046000002AF8D09047F6E710B549F25854C1F683
:10047000FF74237873B9FFF7CBFF40F20003C0F29B
:1004800000032BB14AF2FC70C0F20000AFF3008011
:100490000123237010BD00BF08B540F20003C0F275
:1004A00000034BB14AF2FC7049F25C51C0F200000B
:1004B000C1F6FF71AFF3008049F25850C1F6FF70EA
:1004C00003682BB140F20003C0F2000303B1984768
:1004D000BDE80840FFF7B0BF044A10B5044640F835
:1004E0001C2B01F02FFD204610BD00BF58A20000BC
:1004F00038B5054CA4F517652046103C04F0CCFE39
:10050000AC42F9D138BD00BFE0A2FF1F38B50446A8
:1005100008460D4603F074FC236802465B682046DB
:100520002946984738BD08B5FFF7F0FF08BD38B534
:100530000446FFF7EBFF0546204604F035FE281879
:1005400038BD38B50A220023044604F03BFE0546B8
:10055000204604F029FE281838BD38B5044604F0BA
:1005600069FE0546204604F01FFE281838BDFFFF2F
:10057000034B82B01B680193019B036002B070477C
:10058000B4A6FF1F044B00681B6882B00193019B57
:10059000181A02B0704700BFB4A6FF1F044B82B008
:1005A0001B680193019B591A016002B0704700BF9C
:1005B000B4A6FF1F0F4B4172036000230261037258
:1005C000C360194603E0026942F823100133427AFE
:1005D0009342F8DB084A136813B9106004E013462D
:1005E0005A69002AFBD15861002343618380C3808C
:1005F000704700BF189E0000ACA7FF1F0B79037166
:100600008B6883600B7B30B5037300F10D0201F141
:100610000D0301F1190453F8045BA34242F8045B93
:10062000F9D11B781370CB69C36130BD30B5254B50
:1006300025498DB004AC4FF080421A602046234A11
:10064000012301F0F9FD21462148FFF7D7FF20469D
:1006500001F078FC1E4801F093FE002520461C495D
:10066000012201F04FFE204601F0B1FCF8B1204616
:1006700001F06EFC0146684604F04FFE204601F092
:1006800069FC40B1684604F02BFF70B96846114917
:1006900004F0C4FE48B9204601F08DFC684604F021
:1006A000FBFD204601F04EFCD8E70135F3E720467C
:1006B00001F048FC084B4FF080421A6028460DB00C
:1006C00030BD00BF88E100E04CA3FF1F549E000036
:1006D0007895FF1F569E000008E100E070B5444B7E
:1006E000444996B04FF080421A60044602A804F0D4
:1006F00014FE214602A804F079FE3E4902A804F047
:100700005AFE02A869460422002304F0D1FE3A48AA
:10071000694601F0E3FD054620B938493848FFF73E
:1007200006FF5EE00EAC6A4601232046324901F026
:1007300083FD21463348FFF761FF204601F002FCAC
:10074000304801F01DFE002520462E49012201F00F
:10075000D9FD204601F03BFC002833D0204601F0B3
:10076000F7FB014606A804F0D8FD06A8264904F0C8
:1007700089FEE8B125490AA804F0CFFD06A80AA918
:1007800004F077FE30BB952DCCBF0026012622E079
:10079000204601F0DDFB01461D4800EB051004F08A
:1007A000E2FD204601F0F0FB1A4B43F8250001352D
:1007B000204601F000FC06A804F06EFD204601F082
:1007C000C1FBC1E7204601F0BDFB134B4FF0804257
:1007D0001A6006E000260AA804F05EFD002ED7D1BC
:1007E000E6E702A804F058FD284616B070BD00BF29
:1007F00088E100E0549E00004CA3FF1F589E0000BB
:10080000DCA7FF1F7895FF1F2499FF1F6C9E000037
:100810008099FF1FE495FF1F08E100E070B5114CBF
:100820008AB006460D4601A8214604F076FD314601
:1008300001A804F0DBFD214601A804F0BCFD0A4933
:1008400001A801EB051104F0B1FD01A805A91222D0
:10085000002304F02DFE01A804F01EFD05A80AB037
:1008600070BD00BF549E00008099FF1F08B54FF473
:10087000FA7003F0EBFC024A024B1A6008BD00BF9D
:100880000400FA050CED00E010B50446C4F3C00105
:10089000062003F075FC0520C4F3800103F070FC12
:1008A0000420C4F3400103F06BFC032004F00101B9
:1008B00003F066FC0B20C4F30011BDE8104003F008
:1008C0005FBCFFFFFFFFFFFF38B572B6384A137FEA
:1008D0000BB10021117762B6002B62D000213548A0
:1008E000FFF75CFE72B6324BB3F91E20B3F920005D
:1008F000801A47F6FF72DA834FF400421A8462B618
:1009000007F092F828A3D3E9002307F01DFA07F0B7
:10091000B3FB4FF0814107F0FFFB0021044607F0D5
:10092000ADFD38B1204607F091F80022224B06F0C9
:100930002FFF06E0204607F089F800221E4B06F044
:1009400025FF07F071FB07F06FF804460D462246BD
:100950002B4600204FF0804105F0B2FD002200231D
:1009600007F04EFB58B122462B4600204FF0804145
:1009700005F0A6FD0022104B06F00AFF0AE0224611
:100980002B4600204FF0804105F09AFD00220A4BD3
:1009900006F0FCFE07F048FB0138BDE83840FFF7E1
:1009A00073BF38BDAFF3008000000000E0FFEF40F0
:1009B0004498FF1F7C99FF1F0000E03FAFF30080C9
:1009C00008B504F08DFD431E5842584108BDFFFF95
:1009D00030B50C4685B04B49054604F01FFD58B1B3
:1009E0002146684604F0B4FC6846FFF7E9FF464B31
:1009F0001870684604F050FC2846444904F00EFD87
:100A000020B1204604F06CFD414B18602846414956
:100A100004F004FD58B12146684604F099FC68468C
:100A2000FFF7CEFF3C4B1870684604F035FC2846B3
:100A30003A4904F0F3FC20B1204604F051FD384B54
:100A400018602846374904F0E9FC58B12146684649
:100A500004F07EFC6846FFF7B3FF334B187068461E
:100A600004F01AFC2846314904F0D8FC58B121465C
:100A7000684604F06DFC6846FFF7A2FF2C4B187027
:100A8000684604F009FC28462A4904F0C7FC58B11E
:100A90002146684604F05CFC6846FFF791FF264B50
:100AA0001870684604F0F8FB2846244904F0B6FCA8
:100AB00058B12146684604F04BFC6846FFF780FFBA
:100AC0001F4B1870684604F0E7FB28461D4904F0E8
:100AD000A5FC20B1204604F003FD1B4B18602846FE
:100AE0001A4904F09BFC58B12146684604F030FCDA
:100AF0006846FFF765FF164B1870684604F0CCFB9C
:100B000005B030BDF49E00001499FF1FF99E00004F
:100B1000708FFF1F019F0000788FFF1F0B9F000049
:100B20006C8FFF1F159F0000848FFF1F269F000002
:100B3000948FFF1F369F00000899FF1F489F0000F9
:100B4000C898FF1F599F0000888FFF1F689F0000F3
:100B50008C8FFF1F30B59DB00021684604F0DDFB8F
:100B6000002104A804F0D9FB3B4A3C49012314A806
:100B700001F062FB14A93A48FFF740FD14A801F008
:100B8000E1F937486C4601F022FA002857D06C464C
:100B9000334801F0FDF900284DD00EE0694608A861
:100BA00004F0D6FB294608A804F032FC014668464A
:100BB00004F0C6FB08A804F06FFB294801F06DF9AA
:100BC000C5B23D2DEAD1264801F067F9C5B22FE044
:100BD00004A908A804F0BCFB294608A804F018FCE6
:100BE000014604A804F0ACFB08A804F055FB1C481F
:100BF00001F053F9C5B20A2D1AD169460CA804F0C8
:100C0000A7FB04A910A804F0A3FB10A90CA8FFF7E8
:100C1000DFFE10A804F040FB0CA804F03DFB684682
:100C2000104904F0A0FB04A80E4904F09CFBAFE7B8
:100C30000A2DADD0CCE70A4801F0BDF903E00A481F
:100C40000A49FFF774FC04A804F026FB684604F088
:100C500023FB1DB030BD00BF7E9F00004CA3FF1FD3
:100C6000BC95FF1F15A00000DCA7FF1F709F0000B0
:100C700030B53A4D3A4C89B02146284601F038FB50
:100C80002246384C13236846294601F0D5FA6946B6
:100C90002046FFF7B3FC684601F054F9204632497C
:100CA000FFF741FC314B20461978FFF74AFC2046FC
:100CB0002F49FFF738FC2F4B20461968FFF74DFCF2
:100CC00020462D49FFF72FFC2C4B20461978FFF7C3
:100CD00038FC20462A49FFF726FC2A4B2046196893
:100CE000FFF73BFC20462849FFF71DFC274B204619
:100CF0001978FFF726FC20462549FFF714FC254B01
:100D000020461978FFF71DFC20462349FFF70BFC0E
:100D1000224B20461978FFF714FC20462049FFF7A4
:100D200002FC204B20461978FFF70BFC20461E4999
:100D3000FFF7F9FB1D4B20461968FFF70EFC204614
:100D40001B49FFF7F0FB1B4B20461978FFF7F9FB17
:100D5000204601F030F909B030BD00BF4CA3FF1FA1
:100D60007E9F0000BC95FF1F879E00001499FF1F07
:100D70008D9E0000708FFF1F969E0000788FFF1FD2
:100D8000A19E00006C8FFF1FAC9E0000848FFF1F90
:100D9000BE9E0000948FFF1FCF9E00000899FF1F8A
:100DA000E29E0000C898FF1F8B9F0000888FFF1FE6
:100DB0009B9F00008C8FFF1F30B5022089B000215F
:100DC00003F00AFA0820002103F006FA09200121A5
:100DD00003F002FA0B20012103F0FEF906200121A5
:100DE00003F0FAF90520012103F0F6F904200121AE
:100DF00003F0F2F90121032003F0EEF9404B1868EB
:100E0000FFF742FD4FF47A7003F020FA3D480521C8
:100E100003F0FEFF3C4B3D481A780A2142F00502E0
:100E20001A7001F06DF918B3394A38490123684640
:100E300001F002FA69463748FFF7E0FB684601F027
:100E400081F83248344901F049FAC8B91BE00F2053
:100E5000FFF71AFD642003F0F9F92846FFF714FDA7
:100E60000134642003F0F2F9062C01DDFFF7FEFCEB
:100E700026480A2101F044F905460028E7D0D3E7C7
:100E8000FFF768FE01E0FFF7F3FEFFF7CFFB234C0F
:100E900001462060224804F0CDF922492048FFF79E
:100EA00046FB0021204800F0D3FB2368013B984219
:100EB00005DA134B18601D4B01221A7004E0002163
:100EC00019480A4600F0C7FB0D4C19491448FFF7B2
:100ED0002AFB21681248FFF740FB2068FFF7FEFB62
:100EE000144B014618600E4804F0A4F912490C484E
:100EF000FFF719FB21680A48FFF72FFB09B030BD47
:100F0000DC95FF1F0082FF1FD6A7FF1F4CA3FF1F0A
:100F1000549E00007895FF1F7E9F00004499FF1F9C
:100F2000DCA7FF1FA49F0000F4A2FF1F648FFF1F18
:100F3000B19F0000CC98FF1FBB9F00002DE9F04F30
:100F4000002495B0264625462746A146DFF8B882FC
:100F500010E0172002F014FE8144142002F010FE6D
:100F60003F18152002F00CFE2D18162002F008FE86
:100F700001343618D8F800309C42EADB95FBF3F5D3
:100F800096FBF3F699FBF3F997FBF3F7834B844A4F
:100F9000D3F800A0834B12681B6802920393824B24
:100FA0001B68EB1A83EAE372A2EBE3727F4B0492B5
:100FB000D3F800B07E4B1B68F31A83EAE372A2EB0E
:100FC000E37209EB070040F2FF339842A8BF1846CE
:100FD000784B05921B68002100934FF480620B460A
:100FE00020EAE07004F04EF9DFF820E28046BEE827
:100FF0000F0007AC0FC4BEE80F000FC4BEE80F001F
:101000000FC4DEF800300021236005EB060C0D2331
:1010100040F2FF30844538BF60464FF48062009351
:101020000B4604F02FF90446634800F077FE14AA3B
:1010300002EB8404614A54F8343CB0FBF3F0604B9B
:1010400010601B6898451CD0029AC2EB0903002B64
:10105000B8BF5B42534540F395805A4BC3F80080BC
:10106000594B1A78594B1A704D4BC3F8009089E0D0
:10107000544BC3F80080564B1A78544B1A70494BA6
:101080001F60049A53485A45C4BF474B1D60059BD7
:101090005B45C4BF464B1E6000F016FB20B14D48B7
:1010A00000F0F4FA4C4B18704C48FFF76BFA04460A
:1010B000082003F085F804FB00F14848FFF76EFABA
:1010C0004648FFF75FFAB0F5C87F64D9444C454AFB
:1010D0002368126801339A42236001DC00232360F5
:1010E00041494248334DFFF71EFA21683F48FFF758
:1010F00034FA2068FFF7F2FA0028286003DC3B4846
:101100003B49FFF714FA296838482E4C04F092F84E
:1011100038493648FFF707FA314B34481968FFF76A
:101120001CFA35493148FFF7FEF930482168FFF7CE
:1011300014FA2B682268934201DC013B2360236888
:10114000002B02DA1F4B00221A602C492748FFF7B8
:10115000EAF91C4B25481968FFF7FFF91B4B1F489C
:10116000012200211A70FFF719FA00212448FFF725
:1011700015FA1B4B23481A78002115B0BDE8F04F33
:1011800000F069BA039ABB1A002BB8BF5B42534503
:101190003FF76EAF75E715B0BDE8F08F908FFF1F7A
:1011A0009895FF1FF0A2FF1F7495FF1F808FFF1FF0
:1011B0009C95FF1FCC98FF1F8098FF1F988FFF1FE3
:1011C0001C99FF1F4C99FF1F848FFF1F648FFF1F07
:1011D000948FFF1F3499FF1F6898FF1F6C98FF1FA3
:1011E000DC95FF1F4499FF1FD19F0000DCA7FF1F64
:1011F000E49F0000BB9F0000F39F00000CA00000D4
:101200004098FF1FF4A2FF1F748FFF1F209E000055
:1012100038B57B487B4DFFF7B5F90A22014600231C
:10122000794803F0CFFF784803F0BEFF95F84440BB
:1012300024B9764B1B78002B40F0C480714B1B7E89
:101240000BB1FFF713FB724B1B781BB9714B1B786B
:10125000002B5ED0704B1B789BB1704C704823689C
:1012600040F2B912534305330A22B3FBF2F34FF0B5
:10127000FF31B1FBF3F1002200F0C4FA206802F064
:10128000E5FF684C684B21681868FFF7C7FA674BA1
:1012900022681860664B674C1A605E4B1B7833B946
:1012A0005A4B1B781BB1574800F040FD2060226864
:1012B0005E4B5448196822F00F02226000F0DEFCF9
:1012C000554B1B7883B1554B55481B6840F2B912FA
:1012D000534305330A22B3FBF2F34FF0FF31B1FB66
:1012E000F3F1012200F08EFA4F4B1868FFF7CCFAA9
:1012F000474B434800241C70464B21461C70FFF7A7
:101300004DF921464C48FFF749F94C482146FFF773
:1013100045F94B48FFF736F94A4B1B68984205D30D
:10132000FFF70CFE46480021FFF738F94648FFF763
:1013300029F9464B1B68984203D943480021FFF71F
:101340002DF9394B2E481B680F2B06DCFFF71AF9D5
:1013500009288CBF0021012105E0FFF713F90A28B5
:1013600094BF002101210B2002F00AFF3848FFF74B
:1013700009F953280AD93748FFF704F9364B1B6897
:10138000984203D9354B1B78002B35D12B48FFF7FA
:10139000F9F8334B196888422CBF0021012109203C
:1013A00002F0EEFE2448FFF7EDF82E4B1B68984242
:1013B00025D900212048FFF7F1F800211F48FFF749
:1013C000EDF838BD184B1868194B1968FFF726FA65
:1013D000164B224618600146284600F04FFC214675
:1013E0000748FFF7DBF821461348FFF7D7F82146F7
:1013F0001248FFF7D3F821E7FFF766FAC6E738BDD2
:10140000E098FF1F8098FF1FDCA7FF1F8C8FFF1F36
:10141000648FFF1F6898FF1F1499FF1F708FFF1FB5
:101420005499FF1F4C99FF1FDC95FF1FE498FF1F85
:101430001C99FF1FE095FF1F0C99FF1F1099FF1FBC
:101440004899FF1F9C8FFF1F5099FF1F688FFF1F38
:101450007C99FF1F4098FF1F6C8FFF1F788FFF1F25
:101460007C8FFF1F988FFF1F2DE9FF415648574D76
:10147000574F584EDFF8D48100F056FD5649574A71
:10148000514807F04DF900210A462846FFF792F827
:10149000534B2846002440F81C3B00F045FD2846ED
:1014A00000F0C8FB28464F494C4A07F039F90121A2
:1014B00007F124023846FFF77DF84B4B01213B60D2
:1014C00006F118024FF0FF333046BB61FFF772F8A8
:1014D000464B336047F6FF7308F118020121F3838E
:1014E00040464FF400433384FFF764F8404B4046D6
:1014F000C8F8003000F052FA3E4880E8A0000472BC
:101500004472C46003F05DFD3B4880E880010472D2
:101510004472C46003F055FD384880E860000472EE
:101520004472C46003F04DFD35493648364D03F032
:10153000F4FE3649294A334807F0F2F8344800F0FF
:10154000F3FC33482449254A07F0EAF8281900211A
:10155000103403F0E2FEB4F5176FF7D100202D49E7
:101560001E4A07F0DDF8082114222B4800F07AF813
:1015700002211422294800F075F82948FEF7F8FFE7
:101580002848FEF7F5FF2848FEF7F2FF274B2848CA
:101590001A6801920199274A11601A680292029909
:1015A0001B68254A03931160244B039A1A60FEF7C7
:1015B000DFFF2348FEF7DCFF2248FEF7D9FF224871
:1015C000FEF7D6FFBDE8FF81BC95FF1F8098FF1F87
:1015D0005499FF1F4498FF1F451F0000608FFF1F95
:1015E00058A20000D904000038A2000028A2000080
:1015F00048A200007098FF1FE898FF1FF898FF1F8F
:1016000016A000002499FF1F8099FF1F9952000027
:101610007895FF1FF10400003499FF1FD098FF1F39
:101620002099FF1F1899FF1F5099FF1FB4A6FF1F95
:101630004098FF1FE098FF1F6C98FF1F4899FF1FFD
:101640007C99FF1F1099FF1F0C99FF1FA095FF1F8A
:10165000084602F051BB0846114602F061BB02F099
:101660000FBBFFFF37B500238360074B42601B6849
:101670000193019B0446036008460D4602F0A0FD5D
:101680006573207320463EBDB4A6FF1F007B7047E4
:1016900013B50446407B02F093FD237B834201D1C6
:1016A00000200EE0074B1A68009200992268891A00
:1016B00062689142F4D31B6820730193019B01205F
:1016C00023601CBDB4A6FF1F37B50446FFF7E0FF3B
:1016D00010B10023A3600EE0A26872B1084B196834
:1016E0000091009D2168691A914206D31B68A06091
:1016F0000193019B2360012000E00020A0733EBD08
:10170000B4A6FF1F70B50021044603F02CFCC0B145
:10171000B4F91E20B4F92030811C00F5817631F92E
:10172000025BAA42A8BF2A46AB42B8BF2B46B142D1
:10173000F5D323840123E2832377BDE8704003F0CF
:10174000DDBB70BD2DE9F047846905462CB9214603
:1017500003F009FC002851D04CE00021631C0BD1A0
:1017600003F001FC0446002848D028462146002208
:1017700003F0E4FB20463DE003F002FC06460028AF
:101780003CD0EA6995F820101D4800234FEA146CFC
:10179000C4F30F2E30F91CA00CF1010CF71830F92E
:1017A0001CC0B7F90280CEF580390EFB0CFC0AFB99
:1017B00009CE4FEA2E4E0EFB08FE4FEAEE3EA7F88A
:1017C00002E021B1E743BA4205D2A41807E0A242E1
:1017D00004D2A41A03E04FF0FF3400E00C460233B9
:1017E000B3F5807FD2D12846AC613146002203F0A8
:1017F000A5FB3046BDE8F04703F080BBBDE8F087AD
:101800001AA0000072B683690BB9012303E001330B
:1018100002D16FF001038361C16180F8202062B6BC
:101820007047FFFF2DE9F041DFF860C0154E164FFD
:10183000002A0CBF4FF064524FF06052002434F87D
:10184000078056F814509CFBF8F8414504D303F088
:101850000801C9B221B905E002342E2CEFD1F6E718
:1018600042F0806203F00403DBB23BB125F4704325
:1018700005F4704542F0007243EA15152A430260F0
:10188000BDE8F08194A2000064A20000006CDC02BC
:1018900010B50446FFF7C6FF204610BD10B504463C
:1018A00003F04EFC204610BD02480349034A06F0EF
:1018B00037BF00BFF8A2FF1F9D180000608FFF1FF9
:1018C00002480349034A06F02BBF00BF00A3FF1FD5
:1018D0009D180000608FFF1F10B5194B1A68116822
:1018E0001A79184B1A70184A9142184928BF184B98
:1018F00008683CBF134603F5807298B1014631F980
:10190000024F04F5FF447F34241123F8024B934225
:10191000F5D303F0F3FA0F4B0C491A680A60002262
:101920001A6005E040F2FF7123F8021B9342FBD3DB
:10193000094B1B781BB1094B4FF080421A6010BD58
:101940000CA3FF1F1F8000400A88FF1F18A3FF1F62
:101950000A87FF1F08A3FF1F14A3FF1F08E200E070
:1019600010B5002103F0FFFA034690B172B60949A1
:10197000086808B90B6003E0074A146814B91360DB
:1019800062B610BD0C60136062B6BDE8104003F093
:10199000B5BA10BD18A3FF1F08A3FF1F38B54B48E9
:1019A0004B4D012103F074FB4A4B1A6842F48052FC
:1019B0001A60494B80221A7000242C8008340120C0
:1019C000A4B202F043FCB4F5006FF6D1434B1B68A0
:1019D0005B0264D5424B1A6848F6A273134048F67E
:1019E000A27293425BD13F4B1A6840F23F439A4246
:1019F00055D13D4B1B68012B51D13C4B1A6840F22D
:101A000001139A424BD1314D39492B681A6819603C
:101A10000221197119726FF0010159734FF0FF31F2
:101A20009973D97319692A494FF48070196100229A
:101A3000D98AD88211465A715A729A72DA721A7316
:101A40001A755A751A765A769A76DA76DA8BD883B8
:101A50009A8B012406229A839C71DC712B7903F105
:101A6000804303F50433B02219701A7003F0C0FAF2
:101A7000204B214A18702B792048137003F1100174
:101A80001F4A42F821005A11920002F1604202F509
:101A9000614203F01F0304FA03F4146038BD0F4BD6
:101AA0001A6842F480021A600F4B01221A6040F259
:101AB0003F4243F8082C48F6A37243F80C2C114A15
:101AC00043F80C2C40F201125A609CE70CA3FF1F54
:101AD00000C00C402C80044021C00C403C800440DD
:101AE00000600340046003400C600340106003404A
:101AF0000A87FF1F14A3FF1F1B800040D918000096
:101B0000008AFF1FA28F010002480349034A06F022
:101B100007BE00BF0CA3FF1F9D180000608FFF1FB2
:101B200002480349034A06F0FBBD00BF1CA3FF1F88
:101B30009D180000608FFF1F02480349034A06F00A
:101B4000EFBD00BF24A3FF1F9D180000608FFF1F83
:101B5000F8B590F844300446002B64D003F086F9C1
:101B6000054600285FD004F11C06304600F010FA4C
:101B700000283ED0A91C30464FF4807200F0F2F9E4
:101B8000B0F5807F074621D9274D28492B680322CD
:101B90005B68284698470A2200233946284603F006
:101BA00011FB284603F000FB304600F004FA204AFF
:101BB0001388002B2FD0013B9BB21380002B2AD01F
:101BC000002384F8443001232376F8BD236CC31826
:101BD000236400232376470803E005EB470201371F
:101BE0005380802FF9D120462946002203F0A6F920
:101BF0000CE0304600F0DFF90D4A13887BB1013B61
:101C00009BB213805BB1002384F844302846BDE8C2
:101C1000F84003F073B95E2000F0F0F8D0E75E20E2
:101C200000F0ECF8EFE7F8BDDCA7FF1F60A20000B2
:101C30002CA3FF1F002380F84430C3630364704764
:101C400008B572B690F8443073B1002380F8443080
:101C500062B61C3000F0AFF9074A138833B1013B7C
:101C60009BB2138013B108BD62B608BD5E20BDE80B
:101C7000084000F0C3B800BF2CA3FF1FF0B589B027
:101C8000154604460F46FFF7DBFF5E2000F09CF888
:101C9000204B1A8801321A8072B61F493A46012336
:101CA000684600F0C9FA9DF8043084F82030029BA1
:101CB00063629DF80C3084F828300DF10D0304F1B7
:101CC0001C0604F1290203F10C0153F8040B8B42AA
:101CD00042F8040BF9D11B781370079B6846A36385
:101CE00000F030F962B6304600F071F978B1304654
:101CF00000F04AF90346B5FBF0F1E06303FB115134
:101D0000304600F035F90120256484F8440009B01C
:101D1000F0BD00BF2CA3FF1F4CA3FF1FC26B024BE3
:101D2000A2FB032318467047C8BDE602006C70474B
:101D3000184B19491A6842F480521A60174B184A16
:101D40001A60184A116001F180415160164A1A6008
:101D5000164B1B78DA0755BF154A164A4FF4107117
:101D60004FF40071116003F00201C9B24FF4007228
:101D700009B9114900E0114903F00403DBB20A601C
:101D80001BB94FF410720E4B02E00E4B4FF4007271
:101D90001A6070473C8004400110003800C00240C7
:101DA00001401F000CC0024000001F80D6A7FF1F8B
:101DB00018B0044008C004401CB004400CC00440EB
:101DC00014B0044004C004405E2830B511D8094A5C
:101DD00043091478012101FA03F52C431470064AD3
:101DE00000F01F0052F8234001FA00F10C4342F8C2
:101DF000234030BD48A3FF1F30A3FF1F5E2810B54E
:101E000014D843090A4A00F01F0052F82340012168
:101E100001FA00F024EA000042F8230030B9054A34
:101E2000107801FA03F320EA0303137010BD00BF1A
:101E300030A3FF1F48A3FF1F13B502AB026803F8CE
:101E4000011D546819460122A0471CBDC06908B194
:101E500001F026B8704738B50446C069002510B9AE
:101E60000123237138BD0571E06992B201F09AF93E
:101E7000E3691B7913B101232371284638BD07B5E7
:101E800001220DF1070100F0FBFE01280CBF9DF8B7
:101E900007004FF6FF7000B20EBDC06908B510B163
:101EA000FFF7EDFF08BD4FF0FF3008BD38B5054620
:101EB000C06950B1FFF7E3FF431C044606D0E86950
:101EC000C168013900F0B8FF00E00446204638BD83
:101ED000F8B504464FF47A73A360124B00202071CA
:101EE0002073236024200D46174606F063FCE06152
:101EF000A8B12B4603F120020546186859682E4602
:101F000003C6083393423546F7D118683946306026
:101F10000C2204F10D0007F00BFD00236376204630
:101F2000F8BD00BFF8A200004FF47A718160044947
:101F30000022027102730160C2614273704700BFE8
:101F4000F8A20000014B0360704700BFF8A2000038
:101F50000D307047C06920B18079012894BF0020FE
:101F600001207047C06908B508B100F089FE08BDBE
:101F7000C06908B100F060BF7047C3690BB1D86891
:101F800070474FF0FF307047C06900B180697047FB
:101F900038B5C369044663B1FFF7F6FF054620462E
:101FA000FFF7EBFF47F6FF73281A984228BF184641
:101FB00038BD184638BD10B50446C06930B100F0D0
:101FC0009BFFE06906F0FEFB0023E36110BDC069E2
:101FD00018B18079003018BF0120704710B50A464B
:101FE0008AB00A49044600238DF8083001918DF823
:101FF0000A30214601A8012301F034F8044610B14B
:1020000001A800F079FF20460AB010BD28A3000007
:102010000AB101F0AFB80120704770B50B68C45C1D
:102020002F2C08BF0133C6180024355D2F2D08D092
:102030006DB906E001330B60C05C003018BF0120B1
:1020400070BD00251555C25C2F2AF4D1F2E7155555
:10205000013401330C2CF4D0E7E7FFFF2DE9F04FFA
:102060009A4699B0254B00248DF81C408DF81E40EF
:102070008DF840408DF84240019480460D469146CF
:1020800006930F930C4606AE04E0234600E00FAB28
:1020900034461E4601A902AA4046FFF7BEFF80F063
:1020A0000102074602A92046D2B25346C8478346DA
:1020B00038B9AC4201D100201DE0204600F01CFFE1
:1020C000F9E777B101233046214602AA00F0CAFFA2
:1020D000AC4207460CD0204600F00EFF002FD4D1B2
:1020E000E9E7AC4202D0204600F006FF012002E002
:1020F0000028CCD1DFE719B0BDE8F08F28A300009D
:1021000038B590F83E3004460D4613B1383000F033
:10211000F3FE204601212A4600F0DAFA08B9002031
:1021200038BD04F1100501222846214601F09EFA2F
:10213000024640B104F13800294600F079FD003034
:1021400018BF012038BD2846214601F08FFA00282B
:10215000E5D0EFE70A7902710A4A02604A794271D2
:102160008A7982718A688260CA68C2600A6902617B
:102170000A7D02758A698261CA69C2610A6A02625D
:10218000704700BF28A300002DE9F04F97B0054627
:10219000383104A891469A46FFF7DCFF254B4FF0F3
:1021A000000B8DF838B00D938DF83AB04C460DAF5A
:1021B00004AE2DE023782F2B01D1013428E0C4EBAD
:1021C00000085FFA88F8B8F10C0F28BF4FF00C0830
:1021D00021464246684607F0ABFB16AA02EB08030D
:1021E000384603F858BC00F087FE384631466A4648
:1021F000012300F037FF20B90E4B28712B60A87126
:1022000014E0304600F078FE334644443E461F4614
:1022100020462F2107F06AF90028CBD1C9EB04042E
:10222000CAF8004028463146FFF794FF284617B009
:10223000BDE8F08F28A30000F0B59DB004461E460F
:1022400001A86B461746FFF79FFF009BFD18FB5C3C
:102250003BB901A913A8FFF77DFF204613A91C4A2B
:1022600030E000238DF82C301A4A8DF82E309DF87E
:102270000A300A921BB92046FFF756FE24E0023BC3
:10228000012B0AA806D814492A46334600F0EAFE74
:1022900050B9F0E701A92A46334600F0E3FE0028D2
:1022A000E9D001A800F028FE16F0060F03D00AA816
:1022B000109900F0C1FD0AA913A8FFF74BFF2046B3
:1022C00013A92A46FFF704FE20461DB0F0BD00BF4B
:1022D000549E000028A3000084A3FF1F00F13803D0
:1022E000024A084619460023FFF7B8BEDD1F00006A
:1022F00000F13803024A084619460023FFF7AEBE34
:102300001120000070B504469EB00D46164628E028
:102310009DF8100000B92AE0E52822D02E2820D010
:102320009DF81B0000F00800C0B2D0B9134B8DF827
:1023300034008DF83600694604A80C9300F028FCA0
:102340000CA8E9696A46334600F08CFE78B10CA906
:1023500015A8FFF7FFFE204615A96A46FFF7B8FD4E
:1023600008E0E86904A900F01FFD0028D0DC204641
:10237000FFF7DAFD20461EB070BD00BF28A30000A5
:1023800010B50446FFF7E6FD18B1E36900229A6034
:10239000DA6010BD084B02211961084900225A7108
:1023A0009A719A721A7383F8302083F83C209963EB
:1023B00083F83E20704700BF4CA3FF1F28A30000F6
:1023C000094B1A6842F480621A602C334FF00042C5
:1023D0001A60064AFF2111601A68002AFCDA044BD1
:1023E0001868C0B2704700BF00C0024034C002404D
:1023F00038C002401A4B1B4A70B51A60C307044626
:1024000002D5FFF7DDFF013C052C01D8630800E091
:10241000032300221449154801E0086001329A4262
:10242000FBDB23EAE372A4EB42040F49104A0F4896
:10243000104D06E0166816F0F00FFBD008602E680D
:10244000023C002CF6D106E0106810F0F00FFBD033
:102450000868013B01E0064A0649002BF4D170BD33
:1024600000C0024000041F8034C00240FFFF009003
:102470002CC0024038C00240074B1A6842F4806208
:102480001A602C334FF000421A60044A10601A6838
:10249000002AFCDA704700BF00C0024034C002408E
:1024A00013B5114C052813D8DFE800F00303060923
:1024B0000C0F01A80D490DE001A80D490AE001A883
:1024C0000C4907E001A80C4904E001A80B4901E010
:1024D0000B4901A800230122FFF7DAF9019B2360D1
:1024E000FFF726FC1CBD00BFACA3FF1F00366E012A
:1024F00000127A0000093D00C0C62D0080841E0035
:10250000801A060010B5194B1B780BB3DA0707D5F4
:10251000174A1849146809682140174C2160116056
:1025200003F00202D2B23AB1144A1249146849685F
:102530002140114C6160116003F00403DBB23BB138
:102540000F4B0C4A196892680A400B498A601A605E
:102550000C4A1368834208D00B4B0C491960106079
:1025600040F0804050600A4A1A6010BD48A3FF1F27
:1025700080E100E030A3FF1F3CA3FF1F84E100E0E7
:1025800088E100E00CC0024000C0024001401F0092
:1025900000001F800C4B1B78ABB1D90703D50B4A49
:1025A00011680B4A116003F00202D2B21AB1074A55
:1025B0005168084A116003F00403DBB21BB1034BFE
:1025C0009A68054B1A60704748A3FF1F3CA3FF1F82
:1025D00000E100E004E100E008E100E008B50121CD
:1025E000007901F0CDFDFFF7D5FF08BD054B10B513
:1025F00004461868FFF786FF20790021BDE81040E7
:1026000001F0BEBDACA3FF1F10B5837904468BB1AA
:10261000008940F20123984207D8C0F500700230CB
:10262000FFF7E8FE40F2022323812046FFF7D6FFA2
:102630000023A37110BDFFFF73B50B4B1A68009206
:10264000009E0D461C46B6B2FFF7BAFEFF2808D022
:1026500023680193019B9BB29B1BAB42F4DB0020E0
:1026600000E001207CBD00BFB4A6FF1FF8B5054601
:102670000E461746FFF7C8FF2846FFF7B7FF4FF48F
:1026800096712846FFF7D8FF46F04000FFF7F4FEAA
:10269000182427FA04F0C0B2083CFFF7EDFE14F14D
:1026A000080FF6D126B1082E0CBF8720FF2000E0CE
:1026B0009520FFF7E1FE0024FFF782FE0306E87293
:1026C00004D5FF2C02D00134E4B2F5E7F8BDFFFFDA
:1026D0002DE9F04300230373837283714371544BDC
:1026E000027185B01B680446019310460F46012114
:1026F000019E01F071FD0121207901F041FD4D4B5A
:102700001A6842F480521A600620FFF7C9FE4A4B4D
:102710001868FFF7F7FE0A25FF20013DFFF7ACFE22
:1027200015F0FF05F8D1FFF735FF2046FFF75EFFF4
:10273000DFF8FC801FFA86F90BE0D8F8003002932E
:10274000029B9BB2C9EB0303B3F5FA6F01DD0123D2
:102750004EE0002120460A46FFF788FF0128054683
:10276000E072EAD1204608214FF4D572FFF77EFFD0
:1027700000F00400C0B208B125730DE00425FFF796
:102780001FFE013D15F0FF05E072F8D1AA284FF0B9
:10279000020300D02CE02373257BDFF89480022D08
:1027A0000CBF4FF080450025B6B20AE0D8F80030E3
:1027B0000393039B9BB29B1BB3F5FA6F01DD0823C8
:1027C00016E0372100222046FFF750FF2A46204618
:1027D0002921FFF74BFF0246E0720028E6D1237B58
:1027E000022B15D120463A21FFF740FF10B10623F6
:1027F000637115E0FFF7E4FD00F0C000C02801D1CF
:1028000003232373FFF7DCFDFFF7DAFDFFF7D8FDA5
:102810002046FFF7E3FE3846FFF742FE012003E0C3
:102820002046FFF7DBFE002005B0BDE8F08300BFC7
:10283000B4A6FF1F3C800440ACA3FF1F73B5114B2F
:102840001A680092009E04461D46B6B209E02B6845
:102850000193019B9BB29B1BB3F5967F01DD0F2378
:1028600007E0FFF7ADFDFF28E072F0D0FE2806D0AC
:102870000D2320466371FFF7B1FE002000E0012028
:102880007CBD00BFB4A6FF1F2DE9F843089D044698
:102890000F4690461E4603B974E09B18B3F5007FBF
:1028A00073DC83792BB10368994202D10389934287
:1028B00016D9237B2760032B18BF7F023A46204698
:1028C0001121FFF7D3FE074610B1032363715CE0CB
:1028D0002046FFF7B3FF002857D001232781A371BB
:1028E0004046FFF787FD2C492C4B1960F107324613
:1028F00004D5FFF765FD05F8010B721E052A01D806
:10290000530800E0032300212548264F01E007601B
:1029100001319942FBDBA2EB4302AA182248204F67
:10292000DFF880C0DFF884800DE0016811F0F00F5F
:10293000FBD0C7F800C0D8F80010C1F3072985F80C
:102940000090697002359542EFD302EB43031748BC
:10295000154A09E0116811F0F00FFBD00168C1F3CE
:1029600007272F70697002359D42F3D32389F6182B
:10297000A37AB6B2268113B1B6F5007F02D3204602
:10298000FFF742FE0120BDE8F8832046FFF726FE50
:102990000020BDE8F88300BF00041F8000C0024093
:1029A00034C00240FFFF00902CC0024038C00240FB
:1029B00007B54FF4007300920022FFF765FF0EBDCC
:1029C0002DE9F04104462B482B4F03682B4D43F46F
:1029D00080634FF0004603603E6029603946002363
:1029E00007468C46D1F800E0BEF1000FFADA12E09B
:1029F000D1F800E0BEF1000FFADA18E01E4A1368C1
:102A0000002BFCDA26E0112320466371FFF7E6FD78
:102A10000020BDE8F081D0F8008012F803E048F40F
:102A20008068C0F800800E60C5F800E0E0E702EBC7
:102A3000030ED7F800809EF801E0023348F4806866
:102A4000B3F5007FC7F80080CCF80060C5F800E05F
:102A5000C8D1D3E7FF20FFF70FFDFF20FFF70CFDE4
:102A6000FFF7AEFCE07200F01F000528CBD101207B
:102A7000BDE8F08100C002402CC0024034C00240DA
:102A800070B50B460446164609B9122329E0027BAD
:102A9000032A18BF4B021A461821FFF7E7FD054627
:102AA00008B104231DE02046FE213246FFF788FFCF
:102AB00088B120464FF41671FFF7BEFD08B9152303
:102AC0000FE020460D212A46FFF7D0FD40B9FFF761
:102AD00077FC28B907E02046FFF780FD002070BD95
:102AE00014236371F7E72046FFF778FD012070BDDE
:102AF000014A024B1A60704701100138ACA3FF1F56
:102B000010B504460121006A04F1080200F032FD0C
:102B100040B1E3692BB9A368E361637963F07F0394
:102B20006371012010BD70B50446FFF7E9FF08B9D5
:102B3000002070BD236AA268197C1D79023A02FA4E
:102B400001F65A69B218561E06E0701900F056FCDC
:102B50000028EDD0013DEDB2002DF6D1236A1B7C9B
:102B60004FF4007202FA03F2A3699B18A3610120DB
:102B700070BDFFFF10B50446006900F01BFC18B1E2
:102B8000207D024B03EB401010BD00BFBCA3FF1F14
:102B9000002230B513462E24855C202D09D0D5B2F5
:102BA000082D02D1CC540133DBB2855CCD54013306
:102BB000DBB201320B2AEFD10022CA5430BDFFFF35
:102BC00070B5002305462022CA5401330B2BFBD1DC
:102BD000002207241FE02E2B01D0144E06E00A2C01
:102BE00022D008220A2416E098421DD016F8010FC0
:102BF0000028F9D1A24218D8202B16D97E2B14D840
:102C0000A3F16106192E01EB020001D8203BDBB2D3
:102C100001320370D2B215F8013B002BDBD10878EA
:102C2000203818BF012070BD002070BD0FA3000028
:102C300038B5827904460D460AB1002038BD91F8B6
:102C40002030102B06D1022383714B8CC2615B01B3
:102C500083610CE0202BF0D103238371496A04F1D6
:102C60001802C161284600F019FC0028E5D00023B5
:102C7000012025626071A360E3602361237538BD84
:102C80002DE9F04F837985B00446904613B94FF68D
:102C9000FF7865E04379DB07F9D564E01FFA83F834
:102CA00047460E46DFF8F890DFF8F8A056E0E268F5
:102CB000A179206AD3054FEAD35B02291FFA8BF36F
:102CC0004FEA522E02D1416A71441CE00579013D60
:102CD00005EA0E05EDB26BB965B912B9E269A260F9
:102CE00008E0A168039304F1080200F0A3FB039B32
:102CF0000028CCD0226AA168107C5269023901FAFE
:102D000000F189184919CBF500729742627902F0F7
:102D10004002C8BFC3F50075D2B2CCBFADB23D46CC
:102D200012B9B5F5007F2ED1DAF80020914220D1FA
:102D300029E076190DE00BEB090358191A463146C4
:102D400003E012F801CB01F801CB8242F9D1D31A8A
:102D5000F618E3687F1B5B19E360BFB2002FA6D1B2
:102D60000FFA88F016E08269C368D31A984595D89F
:102D700096E70A4A009610681A462B46FFF784FD2C
:102D80000028D6D183E70846002100F013FB002875
:102D9000D1D17CE705B0BDE8F08F00BFB8A3FF1F1D
:102DA000BCA3FF1FA08FFF1F38B58379012B0546F9
:102DB0000C4601D8FF201BE0C368DA06FAD10AE00E
:102DC0002278A2B1E52A06D02E2A04D0E27A02F0B7
:102DD0000802D2B262B1202228462146FFF750FFF6
:102DE00042B2202AECD0002AE4DB002000E01046AA
:102DF00040B238BD37B58379012B044601D8002095
:102E000016E0C36801220DF10701C3F34315FFF774
:102E100037FF01280CBF9DF807304FF6FF731BB238
:102E20000133ECD0E26803481F32E26000EB45104A
:102E30003EBD00BFBCA3FF1FF8B5044680790D4618
:102E400000282CD0A369994224D825E01DB9A5609B
:102E5000E5600120F8BD236AE2681E7C691E093620
:102E6000531E23FA06F321FA06F69E4200D312B946
:102E7000E369A36009E0F61A07E0206AA1683A4610
:102E800000F0D8FA013E10B9F8BD04F10807002E91
:102E9000F3D1DDE70020F8BD0228D7D1D8E7F8BD8F
:102EA00038B58379054613B390F90530002B1ADA4B
:102EB0000121FFF75FFE0446C8B1AB79012B9CBF2F
:102EC000AB69C361EB6943831B0C8382094B1B68AD
:102ED0002BB1183004F116019847238B63826B796C
:102EE00003F07F036B71BDE8384000F03DBA00206D
:102EF00038BD00BFB0A3FF1F10B50446FFF7D0FFD9
:102F000010B10023A371012010BDFFFFF7B5827936
:102F1000012A04460D4645D1437903F00203DBB292
:102F2000002B3FD040E0002B3AD0E668FFF784FF4B
:102F300000B937E0206A35B9E16900F073FB002879
:102F400030D0E5611BE0A16801AA00F073FA48B334
:102F5000206A184B90F8207001994FF6F872102FE4
:102F600008BF134699420AD200F05CFBD0B1206A38
:102F7000A1686FF0704200F0B9FA00B912E063790D
:102F8000A56163F07F0363712046FFF789FF48B1B5
:102F90002046B54234BF29463146FFF74DFF07E0D2
:102FA000104605E0002003E083699942BBD9F9E7A8
:102FB000FEBD00BFF8FFFF0F10B500210446FFF76C
:102FC000A5FF60B120460121FFF7D4FD38B1E5230C
:102FD00003700023A371BDE8104000F0C5B90020C4
:102FE00010BDFFFF38B51D4B03EB41131546DA7AD0
:102FF00012F0110F044604D015F0420F01D000204A
:1030000038BD174A2175126822615A8B998A42EAA3
:103010000141E161DA7A12F0180203D1DB69A361A0
:10302000012309E0102AEAD1206A04F1180200F015
:1030300035FA0028E3D00423A37105F00F0305F04F
:1030400040050021EDB26371A160E16025B1204629
:10305000BDE83840FFF75ABF012038BDBCA3FF1FB1
:10306000A08FFF1F2DE9FF47867905460C461F46B6
:10307000002E75D10DF1040810464146FFF7A0FD62
:1030800000B96DE0236AA6602B62E660DFF8E0908D
:10309000C24621E02046C3F34318FFF7ABFE0146CA
:1030A00000285DD002780AB1E52A09D126B9D9F8FD
:1030B000002085F814802A610B78012683B10BE08B
:1030C00050460B2205F052FE30B907F03003302B8A
:1030D00046D0284641463FE0E368A2699342D9D3EF
:1030E00007F01203122B3BD136B128460121FFF71E
:1030F00041FD044648B933E0A379022B30D0204685
:10310000FFF711FD60B3184C2E75002120222046D8
:1031100001AE05F07DFF03CE20606160B378328898
:10312000A372124B22811B682BB104F1100004F131
:103130000E01984706E021222274A3732822082357
:103140006274E373238A63822383E389E38200F05A
:103150000BF928B1297D28463A46FFF743FF00E0E6
:10316000002004B0BDE8F087BCA3FF1FB0A3FF1F81
:10317000A08FFF1F10B50A468AB0094900230446F4
:103180008DF8083001918DF80A3001A821460223FC
:10319000FFF768FF10B101A8FFF70EFF0AB010BDDE
:1031A00028A300002DE9F74F92468279012A0746AD
:1031B0000C4640F0B680427902F00201C9B2002903
:1031C00000F0AF80B1E0B969FD688D4201D155468C
:1031D00088E0FFF731FE002800F0A380F7E7386AA7
:1031E00090F804B00BF1FF3B0BEA522B4FEAC259A7
:1031F0004FEAD9591BF0FF0B1FFA89F81FD1B8F11C
:10320000000F1CD1B96811B9FA69BAB911E001AA65
:1032100000F010F9002800F08F80396A474891F8D3
:103220002010019A4FF6F873102908BF1846824201
:1032300004D33846FFF764FC08B972E0BA603A6A12
:10324000B968107C5269C8F500760239B6B2B54249
:1032500038BF2E4601FA00F18918B6F5007F8B447D
:1032600011D1374A1168594504BF4FF0FF31116041
:10327000344A594610682246FFF702FC002850D015
:1032800004F5007429E0B8F1000F10D1F968BA69AB
:1032900091420CD300F068F8002842D0284AC2F8C6
:1032A00000B0294A117841F00101117005E058463B
:1032B000012100F07FF8002833D0244A914409EB23
:1032C0000600611E4A4603E011F801CF02F801CB67
:1032D0008242F9D1C9EB02094C44FA68AD1B961938
:1032E000ADB2FE60FA68002D7FF479AFB9698A4209
:1032F00001D9BA6105E0164A126832B1BAF1000F7D
:1033000003D07A7962F07F027A717A7902F008024A
:10331000D2B20AB950460FE03846FFF7C1FD002887
:10332000F8D101223A71002006E002F00402D2B284
:10333000002A7FF448AF4AE7BDE8FE8FF8FFFF0F91
:10334000A08FFF1FB8A3FF1FBCA5FF1FBCA3FF1FBB
:10335000B0A3FF1F07B502AB012203F8011D1946F8
:10336000FFF720FF0EBDFFFF38B50D4B1B78A3B153
:103370000C4D0D4B286819680C4AFFF781FB68B1AA
:103380000B4C216831B12868084AFFF779FB28B156
:1033900000232360024B00221A70012038BD00BFB9
:1033A000BCA5FF1FB8A3FF1FA08FFF1FBCA3FF1F5B
:1033B000B4A3FF1F70B50D4D2B68834204460E4623
:1033C0000DD0FFF7D1FF08B9002070BD084B094AA6
:1033D00018682146FFF7ECFA0028F5D02C60064B60
:1033E0001A7816431E70012070BD00BFA08FFF1F0A
:1033F000B8A3FF1FBCA3FF1FBCA5FF1F10B5044649
:10340000FFF7B2FF78B10023074A194699540133F8
:10341000B3F5007FFAD1054B1C60054B1A7842F0DA
:1034200001021A70012010BDBCA3FF1FA08FFF1F57
:10343000BCA5FF1FC3680133994270B505460C4611
:10344000164601D9002070BD95F82030C069102BB8
:1034500001D10B0A00E0CB0918180E4B1B689842EB
:1034600005D195F82030102B0B4B0AD105E0002137
:10347000FFF7A0FF0028F4D1E4E7E4B233F81430FA
:1034800005E004F07F0453F8243023F070433360E8
:10349000012070BDA08FFF1FBCA3FF1F2DE9F743C4
:1034A00002AEDFF8448046F8041D054617460024A6
:1034B0004FF6F879284601993246FFF7BBFF80B1F5
:1034C0002B7C4FF4007202FA03F395F82020E418E5
:1034D000019B102A14BF42464A469342EAD33C60FD
:1034E0000120BDE8FE8300BFF8FFFF0F0129F8B5FA
:1034F00004460D46174633D9C368013399422FD885
:1035000090F82030C669102B01D10B0A00E0CB09DE
:103510009E19144B1B689E4205D194F82030102B45
:10352000114B0BD106E030460021FFF743FF002886
:10353000F3D1F8BDEDB223F8157003E005F07F0577
:1035400043F82570094B1A7842F001021A70237E65
:10355000012B03D9A368F618054B1E600120F8BDA6
:103560000020F8BDA08FFF1FBCA3FF1FBCA5FF1F3D
:10357000B4A3FF1F2DE9F74F156806468A46174684
:103580001DB101354FF0000905E04B1ED3F10009D4
:10359000056859EB0309F3682C4603F1010B4FF062
:1035A0000008F36898451CD25C4501D902242546E1
:1035B0003046214601AAFFF73DFF90B1019A631CF6
:1035C0000AB11D4602E05B1B534503D008F1010818
:1035D0000134E6E7304621466FF07042FFF786FF80
:1035E00058B900201CE004F1FF383046414622461D
:1035F000FFF77CFF0028F4D04446AC42F3D839688A
:1036000021B93D60B9F1000F07D108E030462A46E4
:10361000FFF76CFF0028F4D1E3E7013535600120A6
:10362000BDE8FE8FF7B502230F4F036005460C4639
:103630004FF6F8762846214601AAFFF7FBFE80B137
:10364000284621460022FFF751FF50B195F820305F
:10365000019C102B14BF3B4633469C42EAD3012009
:1036600000E00020FEBD00BFF8FFFF0FF8B53B4BA8
:10367000044619601546CAB1042A01D90020F8BDD4
:1036800000200146FFF796FE0028F7D0344B03EBED
:10369000051505F5D475AA795206EFD1D5F8122093
:1036A000632AEBD9D5F80E50002DE7D0284600212B
:1036B000FFF780FE0028E1D0294BB3F80B20B2F5CC
:1036C000007FDBD11A7C002AD8D0D9890029D5D037
:1036D0005B7B002BD2D02276002223712274012042
:1036E00003E0511C072A2174C8D8227C00FA02F199
:1036F0008B42F6D11A4BD98A01B9596ADE89A16089
:10370000AE19E661B3F811001F7C6084400107FB2D
:10371000016100F2FF10616201EB50216161B3F8B9
:1037200013300BB90E4B1B6A691ACB1823FA02F23D
:1037300040F6F4739A42E26001D80C2309E04FF698
:10374000F4739A4201D8102303E0054BDB6A6362ED
:10375000202384F820300120F8BD00BFB8A3FF1F4C
:10376000BCA3FF1F094B1B7813B9094B1B782BB166
:10377000084A1378202B03D90123037100207047D6
:103780000548C154013313700120704722A6FF1F62
:10379000E5A5FF1F23A6FF1FC4A5FF1F7047FFFF5E
:1037A000024B1878024B1B78C01A704721A6FF1FE6
:1037B00020A6FF1F064A074913780978994204D9C1
:1037C0000549C85C0133137070474FF0FF307047F4
:1037D00020A6FF1F21A6FF1FE6A5FF1F054B064AD7
:1037E0001B7812789A4202D9044AD05C70474FF095
:1037F000FF30704720A6FF1F21A6FF1FE6A5FF1F71
:1038000038B50E4B1B78144613B90D4B1B788BB192
:103810000C4B1D78C5F121039C4202D90122027193
:103820001C4609482246401905F0D2FA054B2D19CD
:103830001D7000E01C46204638BD00BF22A6FF1FB9
:10384000E5A5FF1F23A6FF1FC4A5FF1F10B5104B42
:103850001B7813F020040BD1122000F045FB0D4B18
:103860001B68A3B10C4A14700C4A1078984710BD1D
:103870000B4A13780133DBB2012B137002D8094BCA
:103880001B7823B91220BDE8104000F02DBB10BDFD
:1038900003600640C0A5FF1F20A6FF1F21A6FF1F33
:1038A0000CA6FF1FE5A5FF1F002202710273034A49
:1038B0004FF47A7181600260704700BF38A3000046
:1038C00010B5374A137803F01001C9B221B903F0DB
:1038D0004002D2B242B92EE01021117003F0400232
:1038E000D2B2002AF3D110BD13F004032D4A18D030
:1038F000002313702C4A13702C4B1B68144603B121
:10390000984722782A4B1AB927491A700120087063
:10391000284AD02111701A78274B1A700122274BA0
:1039200021E001211170264A1370224BC0221A7027
:1039300002331B7830E01F4A1F4C117811F0100140
:1039400017D013F0010310D11C4917480A780078EA
:10395000904205D9164B9B5C013223700A7000E03F
:103960002370144BD0221A7016E0C02313702378F2
:1039700012E0144B122019700322134900F08AFA46
:103980000F4A207813781F2B06D80649097819B1F9
:103990000E49C85401331370014B02221A7010BD36
:1039A00003600640BDA5FF1F23A6FF1F08A6FF1F3B
:1039B000C4A5FF1F026006400460064024A6FF1F46
:1039C00021A6FF1F0CA6FF1F4D380000E6A5FF1F14
:1039D0000148FFF769BF00BF10A6FF1FF0B53048D0
:1039E000304903681B06FCD40B6813F08002F8D141
:1039F00072B62D4B1978002950D02C4908684F68B1
:103A00008E68CD680C69381814318019096840191E
:103A100000194018C0F34E00254940F400400860EA
:103A2000C86A0F6B4E6B8D6BCC6B381840318019A8
:103A30000968401900194018C0F34E001D4940F4B0
:103A40000040086001F10811143151F8140C51F8CC
:103A5000107C51F80C6C51F8085C51F8044C096862
:103A600038188019401900194018C0F34E00124947
:103A700040F400400860C86A0F6B4E6B8D6BCC6BD6
:103A80003818403180190968401900194018C0F3EE
:103A90004E000A4940F4004008601A7062B6F0BD5A
:103AA00024B0034024B00B4026A6FF1F38B00340CB
:103AB0002CB0034030B003402CB00B4030B00B4072
:103AC000224B60221A70E1225A70214B214A197848
:103AD000214B082901D1012102E00A2907D139210E
:103AE000116013221A601D4B19605A600BE00C29FB
:103AF0001A4901D1352000E03D20106012221A60E1
:103B0000174B08601A60174B17491B78174A03B107
:103B100001230B601360164B164A1978164B0129C6
:103B200001D880210CE0042901D8842108E008296B
:103B300001D8852104E0102901D8862100E08721E1
:103B4000116019600D4B01221A7070470040074048
:103B5000A48FFF1F08B003400CB0034008B00B4017
:103B60000CB00B4029A6FF1F20B0034020B00B4033
:103B7000A58FFF1F24B0034024B00B4026A6FF1FD3
:103B80000D282DE9F0410FD9172801D80E380AE089
:103B9000A0F11A03052B01D8093804E0A0F1220393
:103BA000062B4DD81838C0B2274B1C5C274B1B780E
:103BB0000BB1FFF713FF72B6200614D4244D254E27
:103BC00001272C60377062B672B62B68190603D5D0
:103BD000214B18681F4B23E03378002BF1D062B6DD
:103BE00001F084FCF0E704F040071C4D1C4EFFB2CE
:103BF00004F03F044FF001081A4B1A6817B122F085
:103C0000100201E042F010021A602C6086F8008079
:103C100062B672B62B681A060BD5134B1868104B98
:103C200000221A7062B6114B1B7840FA03F0BDE80F
:103C3000F0813378002BDFD062B601F057FCE8E763
:103C40000020BDE8F08100BF50A3000026A6FF1FA2
:103C500000B0034028A6FF1F10B0034000B00B4087
:103C600027A6FF1F0CB00B4010B00B4025A6FF1F6E
:103C7000024A1378DB07FCD5704700BF0100024001
:103C800030B5194B85B06C4603F1100518685968BA
:103C9000224603C20833AB421446F7D1134B1B78BC
:103CA00003F00203DBB2BBB1114B80221A70332246
:103CB0001A710322DA7072B60E4C6B4643F00103A0
:103CC0002046984762B6237813F0700304D023701F
:103CD00008E0013B03D105E0044944F621630A787A
:103CE000D207F6D505B030BD68A300000100024040
:103CF0000700024000000240B0F5006F10B5044616
:103D000009D2064B1B78D90701D4FFF7B9FF04F19C
:103D1000A054207810BD002010BD00BF010002405B
:103D2000B0F5006F38B504460D460FD2084B1B782E
:103D3000D90701D4FFF7A4FF04F1A0542378AB42C4
:103D400004D02570BDE83840FFF792BF38BD00BFF2
:103D500001000240024B1A6801321A60704700BF2E
:103D6000B4A6FF1F38B50B4C25462368580301D570
:103D700000F090FB2B68590501D501F0A7FD2B68D9
:103D80001A0501D501F0E0FF2368DB04EDD502F050
:103D9000B3F9EAE73480044008B5FFF7E3FFFFFF1B
:103DA000014B10221A807047002005407047FFFF2A
:103DB000024A13681818106018467047A88FFF1F32
:103DC000FEE7FFFFEFF313839BB9EFF3108098B981
:103DD000EFF3058323B10F2B04D9084A985C01E067
:103DE0004FF48070EFF311833BB1984228BF18461F
:103DF00070474FF0FF30704718467047F0E300E01F
:103E0000002300E00133C25C002AFBD11846704752
:103E100010B50023B0FBF2F402FB1400092801D80E
:103E2000303000E03730C85420460CB10133F1E7A0
:103E3000CA185470224605E0885CCC5C8C54C85487
:103E40000132013B9A42F7DB084610BD031E10B554
:103E50000C4603DBBDE81040FFF7DABF2D2001F868
:103E6000010B5842FFF7D4FF204610BD084B4FF41A
:103E700000021A604FF080721A604FF000721A60F0
:103E80004FF080621A604FF000621A60704700BF06
:103E900008E100E0212830B521D8042A1FD8DFE846
:103EA00002F00709050B03000B2306E00A2304E0D8
:103EB000082302E00C2300E00923094A02EBC002B8
:103EC000526872B61468074D24F47024146044F0EC
:103ED000807444EA034345F82010136062B630BD95
:103EE00078A300002CA6FF1F094B03EBC0035B68FF
:103EF00072B61A6822F0877222F4803242F0807221
:103F00001A60044B002243F8202062B6704700BFBD
:103F100078A300002CA6FF1F114B10B51C68E0040D
:103F20001C6004D50F4BDA680AB1DB689847A1041E
:103F300004D50C4B1A690AB11B699847A20604D52F
:103F4000084B1A6E0AB11B6E9847E30606D5054B5F
:103F5000D3F8842012B1D3F88430984710BD00BF45
:103F6000A09004402CA6FF1F1F4B10B51C68E00357
:103F70001C6004D51D4B1A680AB11B689847A10341
:103F800004D51A4B5A680AB15B689847E20704D512
:103F9000164B1A6C0AB11B6C9847A30704D5134B38
:103FA0005A6C0AB15B6C9847200704D50F4B9A6C8A
:103FB0000AB19B6C9847610704D50C4BDA6C0AB1C7
:103FC000DB6C9847220304D5084B5A6E0AB15B6E2E
:103FD0009847630306D5054BD3F8802012B1D3F878
:103FE0008030984710BD00BFA0A004402CA6FF1F42
:103FF0002C4B10B51C6820071C6004D52A4B5A6A4C
:104000000AB15B6A9847E10604D5274B9A6A0AB160
:104010009B6A9847620604D5234BDA6A0AB1DB6AC9
:104020009847230604D5204B1A6B0AB11B6B98479F
:10403000A00604D51C4B5A6B0AB15B6B9847E1078D
:1040400004D5194BDA6B0AB1DB6B9847A20704D58C
:10405000154B9A6D0AB19B6D9847630704D5124BB7
:10406000DA6D0AB1DB6D9847A00504D50E4BDA6E08
:104070000AB1DB6E9847E10504D50B4B1A6F0AB104
:104080001B6F9847620504D5074B5A6F0AB15B6FE7
:104090009847230504D5044B9A6F0AB19B6F984744
:1040A00010BD00BFA0B004402CA6FF1F1E4B10B5D2
:1040B0001C68E0071C6004D51C4B9A680AB19B6819
:1040C0009847210604D5194B5A690AB15B6998478C
:1040D000E20604D5154B9A690AB19B6998476307B4
:1040E00004D5124BDA690AB1DB699847200704D579
:1040F0000E4B1A6A0AB11B6A9847A10704D50B4BED
:104100009A6B0AB19B6B9847A20604D5074B1A6DB0
:104110000AB11B6D9847630604D5044B5A6D0AB16A
:104120005B6D984710BD00BFA0C004402CA6FF1FC8
:10413000094B10B51C68A2071C6004D5074B9A6E8A
:104140000AB19B6E9847E30704D5044BDA6F0AB1B6
:10415000DB6F984710BD00BFA0D004402CA6FF1F06
:10416000044B054900221A600A60044A10601022BC
:104170001A60704714D0034004D0034000D00340BD
:10418000212810B518D80D4A52F8303093F88042E3
:104190003CB1012211B183F8802010BD83F80021C9
:1041A00010BD02EBC00043681A6811B142F003026F
:1041B00001E022F002021A6010BD00BF78A30000E7
:1041C000212805D8034B53F8303093F8000270478C
:1041D0000020704778A30000212816D80B4A02EB74
:1041E000C00301295B6852F8302004D182F88012A4
:1041F0004FF4A27208E0002082F8800211B94FF457
:10420000807201E040F203121A60704778A3000048
:1042100072B60B4B0B491A680B4B1B68096862B6E8
:10422000490102D5322A88BF0133C2F5BB32FF32C1
:104230006021B2FBF1F24FF47A7000FB032070476B
:1042400018E000E004ED00E0B4A6FF1F70B50446DE
:10425000FFF7DEFF05466CB140F2E736FFF7D8FF07
:10426000401BB04203D9013C04D005F57A7501F03A
:104270003DF9F3E770BDFFFF10B5FFF7F7FD164BF3
:10428000164A174C00204BF6FF711860596028231E
:10429000136093601361936113629362136393637A
:1042A000092222600F4C20606160A360236144F802
:1042B000042C0D4C20600D4801600D490B608B6093
:1042C0000C4B1A60FFF7FCFB0420FFF7BFFFBDE8B3
:1042D000104000F0FBBB00BF048003400C80034093
:1042E000008003400490034004800B4008800B4092
:1042F0000C800B4000800B40F0B50C4B0C4C1A7836
:1043000042F0020504EBC50682F001027060094824
:104310001A700678002E0CBF8827C82747EA01418B
:1043200086F0010644F835100670F0BD20A7FF1F87
:104330000080FF1F98A7FF1F431E032B10B510D846
:1043400072B6094A52F8230048B1416842F8231076
:10435000064A018832F81340611A22F8131062B637
:1043600010BD002010BD00BF10A7FF1FC8A9FF1F70
:10437000013803280BD872B6064B53F820300020C2
:1043800001E05B680130002BFBD162B67047002072
:10439000704700BF64A7FF1F70B572B6184E194C66
:1043A00001239A1912F8012C02F00802D2B2E2B1EC
:1043B0009900144A54F831502DB902EB43130830D8
:1043C0005860114B09E041F0010154F8315065B9D2
:1043D00002EBC103083058600C4B42F831300C4BF3
:1043E0001A78013A1A7062B670BD0133052BD8D124
:1043F00062B6074B00221A70BDE8704000F0D2BBD5
:10440000B0A400000080FF1F88004000C8004000EA
:104410008EA7FF1F431E032B30B532D84001194A27
:1044200040F01000101872B6174CE25C032A09D84D
:10443000DFE802F0160218050830022213E0083007
:10444000042210E01148124A50F8234014B940F8F1
:10445000231002E052F82300416042F823100FE0DD
:10446000032200E00522E25410F0080F01F10803D6
:104470000A8843600CBF8823C82343EA02430360D1
:1044800062B630BD0080FF1FCCA6FF1F64A7FF1FD0
:1044900074A7FF1F2DE9F74FA54EA64C357805F000
:1044A0000403DBB2ABB1A44B1B7883B1A34A1378EE
:1044B00023B1013BDBB2137003B900BEA04A1378ED
:1044C0002BB1013BDBB213700BB900F07FFC04236E
:1044D000337005F00802D2B2002A00F08082994BB6
:1044E0001B781D094FEA930940F0FE8104EBC903D4
:1044F000586854F83930C3F38303013B0C2B00F2A6
:10450000F081DFE813F0A901A901EE01EE01EE014F
:10451000EE01EE01EE01C501EE01EE01EE010D002E
:104520004368894902684B60884B894844F83930B0
:10453000884D0A60002303600120287092B240F287
:104540008165AA422361A36117D8B2F5D06F80F0CC
:104550002C81B2F5817F00F0DC8006D8802A00F043
:10456000C280822A40F03D81C1E040F202339A428B
:1045700000F00C81B2F5A06F16E042F22105AA42CC
:1045800000F0678108D8B2F5086F00F0A680B2F598
:10459000106F40F026810AE042F22120824200F0B2
:1045A0001C8142F221339A4240F01B811DE18A783E
:1045B000614B604D1A702B6A180603D5686A08387B
:1045C00000F0F0FA644A08359542F4D1DFF8B09172
:1045D000DFF8B0B10025A846CA4655F8090005E045
:1045E0004368009300F0DEFA009B18460028F7D1DC
:1045F0005A4B4AF8050045F80B00E85807E04268B6
:104600000093019200F0CEFA019A009B1046002818
:10461000F5D15851524BE850524B23F81800524BE9
:1046200018F80320023A032A08D8DFE802F002044F
:104630000204002200E0012203F8082008F101082A
:104640000435B8F1040FC8D1484BDFF83C91002283
:104650001A7001259846464B05EB0902EB1812F833
:10466000012C9B001A7002F00802D2B23AB300F09B
:104670007BFAAB0038B104EB4512083050603D4A7C
:1046800044F8332006E044F8330098F80030013352
:1046900088F8003000F068FAAB0043F0010338B14D
:1046A00004EBC30208305060284A44F8332006E087
:1046B00044F8330098F80030013388F80030AA003D
:1046C00042F00201013542F003020023052D44F8B7
:1046D000313044F83230BED188E0174B264D1B787C
:1046E0002B70034685E0244D2B706B7080E08A8828
:1046F000042A00D975E0204D2B706B701F4B92007F
:10470000D3181B7803F00203DBB2002B70D02870A3
:104710006EE08A8802F07F03042B62DC4B8803B1D1
:104720005FE09100154A8A18117821F0020156E0E5
:10473000802007400080FF1F97A7FF1F21A7FF1FB2
:1047400099A7FF1F9020074084A7FF1FC8004000C3
:10475000B8A6FF1F98A7FF1F8080FF1F64A7FF1F39
:1047600074A7FF1FC8A9FF1FCCA6FF1F8EA7FF1F9E
:1047700030C80110880040008FA7FF1FC0200740ED
:1047800010A7FF1FBCA6FF1FB0A400008A8802F07C
:104790007F03042B25DC4B8803B122E09100A14A62
:1047A0008A18117841F0020119E04A889E4B8988E5
:1047B00053F8085CA3F10C009DB133F80CCC944580
:1047C00009D133F80ACC8C4505D1120A032A0CBF53
:1047D0002B7803890DE00C33EAE78978934A11704E
:1047E00004E0904B0F221A7033E000231D4600E0D6
:1047F00002238F4AB2F806904B4538BF9946B9F16B
:10480000400F34BFC8464FF0400828464146FFF7E6
:1048100073FDB9EB0809454403D1B8F1400F07D047
:1048200017E0B9F1400F34BFC8464FF0400800E030
:10483000C84628464146FFF75FFDB9EB08094544E5
:1048400002D1B8F1400F04D17A4B7B4A1D60A2F827
:1048500000900122794B43E0754B1A8842F2210304
:104860009A4211D1764A0023C15C99540133072B37
:10487000FAD1734B1B68862B02D1724B0F221A7030
:1048800000200146FFF738FD6F4B44F8393028E02F
:10489000684BD3F80080B8F1000F18D0DFF898917A
:1048A000B9F800A0BAF1400F34BF55464025404644
:1048B0002946FFF721FDC5EB0A039BB2A9F800309A
:1048C0000BB9402D01D108EB05035A4A1360584B30
:1048D0001A88B2F5A06F04D100225A709A785B4B07
:1048E0001A700122554B6DE004EBC90803F0080370
:1048F000D8F80420013DD9B2A2F10800EDB2002998
:1049000037D000F04FF95248524B50F82510F1B112
:104910004A6840F8252001F10802C8F804205A5DD1
:10492000032A0BD8DFE802F002040608032204E0A1
:10493000022202E0052200E004225A5518F0080F76
:104940000A880CBF8823C82343EA024342E05A5D29
:10495000032A07D8DFE802F040400204002206E004
:10496000012204E018F0080F0CBF022203225A555E
:1049700032E054F839301B0C22F8083C23B322F8FB
:10498000061C42F8041C344A344952F8257017B901
:1049900042F8250002E051F825205060304A41F8E5
:1049A000250032F815105B1822F8153000F0DCF8FD
:1049B00018B10830C8F8040006E02A4B44F8390062
:1049C0001A7801321A7007E01F4B274A18F0080FB7
:1049D00008BF134644F83930082333705EE5E90711
:1049E00052D516492048214C02230B70204B1A70D7
:1049F000204B1860986020481A61D8609A615C600A
:104A0000084B0D2018701D48FF23037000F8083C68
:104A100002741B4A13701B4B9F221A7001230B70E8
:104A20004BE000BFC0200740C0A40000A8A7FF1FA4
:104A300084A7FF1FB8A6FF1F8CA7FF1F9420074065
:104A4000D0A9FF1F21A7FF1FC800400098200740E2
:104A500064A7FF1FCCA6FF1F10A7FF1FBCA6FF1F48
:104A6000C8A9FF1F8EA7FF1F88004000D0A6FF1F08
:104A700020A7FF1F0080FF1F24A7FF1F88200740DB
:104A80008C200740842007402B0605D50C4B0D22B7
:104A90001A70802203F8402C05F00203DBB22BB120
:104AA000084B1A781A70022203F8082C05F010053A
:104AB000EDB215B1044B10221A70BDE8FE8F00BF95
:104AC000C0200740882007408020074008B501F03B
:104AD00069FB00231E491A465A50C8180833882B10
:104AE0004260F9D11B4B1A6842F480221A601A4BBB
:104AF00080221A701978184A0906FBD4144B1749FA
:104B0000C3F307200870C3F307401B0E08750B762C
:104B1000FF2301F81C3C01F8143C01F88C3C13788D
:104B200043F0400313700021012302F8783C02F89F
:104B30000C1C02F8883C0A4B70226FF4507C1A70EF
:104B400063444FF400721A60064B10221A7008BDBD
:104B50000080FF1F348004400C2107409C20074048
:104B600049E400E00821074072B60C4A1168B1FA26
:104B700081F30B2B02D962B6002070474FF0004042
:104B800020FA03F021EA0001116062B604494822CC
:104B90005343C8180022CA5042607047AC8FFF1FB1
:104BA000008CFF1F0C4B4822C31AB3FBF2F30B2BF4
:104BB00011D80A4A127822B1094A12780AB1FFF7CD
:104BC000EBBB72B6074A4FF0004121FA03F31168BC
:104BD0001943116062B67047008CFF1F8EA7FF1F3C
:104BE00097A7FF1FAC8FFF1F38B5114C23684BB13F
:104BF0000F4D28684288811801320C7A01888A4258
:104C000012D30CE00B4B1B7813B94FF0FF340CE0C0
:104C10000320FFF791FB20600028E9D1F5E7FFF7BB
:104C2000C1FF00232B6000E04280204638BD00BF5A
:104C3000A4A7FF1F97A7FF1F10B50C4C23681BB13B
:104C40000A4B1B686BB902E0094B1B7813B94FF094
:104C5000FF3010BD0320FFF76FFB20600028EFD16D
:104C6000F5E75A889B18187A10BD00BFA4A7FF1F4C
:104C700097A7FF1F044B9888044B1B681BB11A8829
:104C80005B88D31AC0187047C8A9FF1FA4A7FF1FCD
:104C90002DE9F8432D4B2E4DDFF8C08001220C4644
:104CA0001A7006464BE02B682BBBDFF8A0904AF247
:104CB000F92798F8003013B9244A137014E004203F
:104CC000FFF756FB072808D8012389F80030FFF7C3
:104CD0004BFF286078B989F80000013F1D4B01D0D7
:104CE0001A782AB101221A704FF0FF30BDE8F8831C
:104CF00000F0FCFBDDE72968164A488800231370A2
:104D0000C0F14002944238BF224600F108078018E3
:104D1000CF194880A41A02E0F05CF85401339342A2
:104D2000FAD1F6184B883F2B06D940230B8004207C
:104D3000FFF770FB00232B60074B05221A70002C35
:104D4000B1D1024B20461C70BDE8F8839AA7FF1F23
:104D50009CA7FF1FA0A7FF1F99A7FF1F97A7FF1FD3
:104D600007B502AB012103F8010D1846FFF790FFCC
:104D70000EBDFFFFF8B5114B1B78EBB1104E114B78
:104D80003468114D01271F704CB1638800272F70C4
:104D9000042023802146FFF73DFB376009E0FFF741
:104DA000E3FE014620B104202C70FFF733FB00E046
:104DB0002F70044B00221A70F8BD00BF97A7FF1F89
:104DC0009CA7FF1F9AA7FF1F99A7FF1F38B50D4B80
:104DD0001D78ADB90C4C216831B14B8804200B8093
:104DE000FFF718FB256038BDFFF7BEFE014620B176
:104DF0000420BDE83840FFF70DBB044B01221A70B8
:104E000038BD00BF9AA7FF1F9CA7FF1F99A7FF1FD0
:104E1000F0B5C02928BFC02172B6124B1860124BE2
:104E200000221A605A609A60DA601A615A6101269B
:104E30000AE0540902F01F0753F8245006FA07F756
:104E40003D4343F8245001328A42F2D100234FF40B
:104E5000817203E002FB0304637001338B42F9D1DA
:104E600062B6F0BDB4A7FF1FBCA7FF1F10B572B696
:104E70001E4B1868A0B9586850B9986850B9D868DE
:104E800050B9186950B95869143348B962B610BDA1
:104E9000043305E0083303E00C3301E01033FFE78F
:104EA000B0FA80F14FF0004222FA01F220EA02004B
:104EB00018600F4802780132D2B2027062B60B4815
:104EC0001B1A9B105B01591A4FF481734B4309491C
:104ED00003F5F9531E3309680124CC54C818064B56
:104EE0001978914238BF1A7010BD00BFBCA7FF1FD0
:104EF000B9A7FF1FB4A7FF1FB0A7FF1F417872B665
:104F00000378012B02D9013B037011E04A11094BD0
:104F1000C9434FF0004001F01F0120FA01F153F89E
:104F20002200084343F82200034B1A78013A1A7012
:104F300062B67047BCA7FF1FB9A7FF1F30B5C36893
:104F40000EE0187A90420AD158685C7A006950F8ED
:104F5000245025B940F82410087801300870DB6827
:104F6000002BEED130BD437A99424FF0000305D2B9
:104F7000026952F8210042F8213070471846704704
:104F800038B5437A994201D3002418E0036953F8F5
:104F90002140002243F82120002CF5D02378012B5A
:104FA0000DD9FFF763FF054628B10230A11C4FF46D
:104FB000807203F00DFF2378013B23702C462046BE
:104FC00038BD10B54168427A4B7A9A420ED872B613
:104FD0000268D36813B9D06004E02346DC68002C73
:104FE000FBD1D860012313720B7262B610BDFFFFB4
:104FF000074B1A784AB9074AFF211170064A4FF049
:10500000804101201160187070470020704700BF78
:10501000B8A7FF1F5EE400E008E100E0F8B5164B1A
:10502000164D1A6842F080721A60154B1A6842F0E9
:1050300001021A60134B2E681C680FE0237A63B1DB
:1050400021682F680B68204698472A68E388D21B9E
:1050500012099A42A28088BFE2806469002CEDD1D7
:10506000064B094A1B689B1B1B091380074A1188C2
:105070008B4288BF1380F8BDFCED00E0041000E017
:10508000001000E0ACA7FF1FD4A7FF1FBAA7FF1FA7
:1050900030B572B609B9026822B9264A00231188D0
:1050A000144611E003790F2BF7D82249098841FAF9
:1050B00003F1C907F1D503F1007303F59063B2EB77
:1050C000431FEAD162B630BD41FA03F212F0010289
:1050D00027D1012505FA03F52943218062B6164937
:1050E00003710C6844F002040C6051F8044C44F065
:1050F000020441F8044C114982240C608B768B77B2
:105100000B76CB7703F1007303F590635B010360CB
:105110001A605A609A60DA601A615A619A61DA61BB
:1051200030BD0133102BCFD162B600220260037173
:1051300030BD00BFD8A7FF1F408004400080004062
:1051400003790F2B10D8094A137072B6084B0279F5
:10515000012101FA02F2198821EA02021A8062B6DC
:105160001023037100230360704700BF1A800040C2
:10517000D8A7FF1F08B5FBF71FFEFCF749F800F0A2
:10518000B5F9FAE7F8B506460C468F18002506E093
:10519000336814F8011B1B68304698472D18BC4231
:1051A000F6D12846F8BDFFFF07B5054B1B88ADF8C3
:1051B0000430036801A95B68022298470EBD00BF56
:1051C00088A40000F0B505468BB022B90368C9B2C7
:1051D0001B6898472CE0012A08BF0A2221B9302217
:1051E0008DF82520212413E02124B1FBF2F002FBED
:1051F0001011C9B2092901D8303100E037310AAFA6
:105200003E1906F8241C014610B1013CE4B2ECE75B
:1052100033B1013C0AAAE4B213192D2203F8242C5D
:105220002B6801AF5B6828463919C4F12202984700
:105230000BB0F0BD002902DA49422D2300E0002323
:105240000A22FFF7BFBF08461146FFF721BD0846F7
:10525000FFF786BDFFF78EBDFFF7EEBCFFF7C4BCBE
:10526000FFF708BD7047FFFF044B00221A711A7345
:10527000034A4FF47A7199601A607047DCA7FF1FE8
:1052800098A4000010B5029C401AE41A4443521A34
:1052900094FBF2F0C01810BD10B50446006803F08E
:1052A00091FA204610BD38B504460D46006801311C
:1052B00003F018FF10B184E82100012038BD4368D5
:1052C0008B4210B5044600D306E0FFF7ECFF20B197
:1052D000A3680BB922681370012010BDF8B504460D
:1052E0000F46154622B9036803B11A7000230BE07C
:1052F0001146FFF7E4FF064640B9206810B103F0FD
:1053000061FA266000236360A36004E0A560206862
:10531000394604F059FA2046F8BD38B50023044652
:1053200003604360836003730D4639B10846FEF79E
:1053300067FD294602462046FFF7D0FF204638BDCC
:1053400081420B4603D009689A68FFF7C7BF7047D0
:10535000002310B504460360436083600373FFF7C6
:10536000EFFF204610BD38B505460C4641B1084652
:10537000FEF746FD214602462846FFF7AFFF00E054
:10538000A960284638BD70B504460E4685685AB1F6
:1053900055192946FFF793FF30B12068A3683146BD
:1053A000C01804F011FAA560204670BD0B460968CC
:1053B0009A68FFF7E8BF38B505460C4639B108468C
:1053C000FEF71EFD214602462846FFF7DCFF284671
:1053D00038BD13B5002304468DF80410012201A93D
:1053E0008DF80530FFF7CFFF20461CBD1FB50446E2
:1053F0000A22084601A9FEF729FD01A8FEF700FDD3
:1054000001A902462046FFF7BEFF204604B010BDAA
:1054100010B50446FFF7DDFF204610BD826808B5D1
:105420000B461AB901B103E0012008BD11B90368A8
:10543000187802E0006804F0D9F8D0F1010038BF14
:10544000002008BD10B58B688468E41AA2420CD80D
:10545000006868B1096851B180181A4604F012FA60
:10546000D0F1010038BF002010BD002010BD08465B
:1054700010BD82688B689A4202D30022FFF7E2BF18
:105480000020704708B582688B689A420CD3006888
:1054900068B1096851B1D31AC01804F0A7F8D0F167
:1054A000010038BF002008BD002008BD084608BD27
:1054B00038B50C469AB191B181688B4202D3002372
:1054C000237038BDCD1A013A0168954228BF1546B0
:1054D000C91820462A4604F02BFA0023635538BD2C
:1054E000006808B103F022B97047FFFF08B50E4B02
:1054F0001A78C2B901221A70FFF7BCFB08B1FFF796
:10550000B1FE00F08BF908B100F0E6FE00F0C4FB3C
:1055100008B100F053FF00F0A9FD08B100F0C0FF92
:10552000014B00221A7008BDECA7FF1F194B1A6827
:1055300042F480621A60184A00231370174A1370ED
:10554000174A1370174A1370174A1370174B40F21B
:1055500013321A604FF451725A60154BC0F3443243
:105560001A70C0F347125A700221042200F01F0083
:1055700098729A70D9745A7588221A743C22DA701B
:105580000C4B40226FF44A711A705B184FF40052B2
:105590001A607047348004406FA8FF1FEEA7FF1FFA
:1055A00078A8FF1F70A8FF1FEDA7FF1F40A00440B1
:1055B00000A006402DE400E0134A937800F00301B8
:1055C00003F0EC030B43410748BF43F01003937013
:1055D00000F00F03042B0C4903D18B7943F04003F7
:1055E0008B715379C20603F0EF03074A48BF43F0BB
:1055F000100353719379800603F0EF0348BF43F023
:1056000010039371704700BF00A006400E4B1B684B
:10561000580510B503D410BDFFF768FF00E00B4C30
:105620002378002BF8D10A4A4FF400511160094A3F
:105630000949D37040F203120A604A60074A1370A6
:10564000074A137010BD00BF34800440EDA7FF1F50
:1056500084E100E000A0064040A004406FA8FF1FC6
:10566000EEA7FF1F38B5094B04461D78002DFCD16D
:1056700020460121FEF7B0FD20462946FEF780FDB9
:10568000034B53F83420034B1A6038BDEDA7FF1FBE
:1056900078A3000074A8FF1F1D4B1B685A052DE955
:1056A000F041074631D51B4B1B680BB101221A7024
:1056B000194B1A4D1C781A4EDFF8688001343F2CC4
:1056C00088BF002414E0FEF77DFB40280CDC337912
:1056D0001B060DD52B7801333F2B88BF002318F80C
:1056E0000320F2712B7003E0FF2801DDFFF7FEFEBF
:1056F0002B78A342E7D00B4B1F550B4B01221A709E
:10570000054B1C70064BBC22DA70BDE8F08100BF6F
:105710003480044074A8FF1F78A8FF1F70A8FF1FE3
:1057200000A00640EFA7FF1FEDA7FF1F2DE9F84FD0
:10573000254B1B6806465805894642D5234B1B68F6
:105740000BB101221A70224DB346AA4632E0214B1A
:105750001C782F7801343F2C88BF0024A74209D041
:105760001BF8012B1C4B1A551C4B01221A70194BAC
:105770001C701FE01A4BBC22DA709846FEF722FB21
:1057800040280FDC98F8043019060FD52B78124A00
:1057900001333F2B88BF0023D25C88F807208AF8AA
:1057A000003003E0FF2801DDFFF7A0FE2B78BB42AD
:1057B000E4D0D5E706EB09039B45C8D3084BBC22D0
:1057C000DA70BDE8F88F00BF3480044074A8FF1F72
:1057D00070A8FF1F78A8FF1FEFA7FF1FEDA7FF1FEF
:1057E00000A0064010B5044C01E0FFF77FFE2378CF
:1057F000002BFAD110BD00BFEDA7FF1F054B064AD5
:105800001B781078834201D33F3000E00138C01A82
:10581000704700BF78A8FF1F70A8FF1F044B1878BF
:10582000044B1B78984238BF4030C01A704700BF05
:105830006FA8FF1FEEA7FF1F084B094A19781378BE
:10584000994207D001333F2B88BF00230549C85C2C
:10585000137070474FF0FF30704700BF6FA8FF1FF5
:10586000EEA7FF1F2FA8FF1F074B1A78074B1B78C7
:105870009A4206D001333F2B88BF0023044AD05CF4
:1058800070474FF0FF3070476FA8FF1FEEA7FF1F54
:105890002FA8FF1F094B1B685B050ED5084BDA7854
:1058A00002F0CB02DA7040225A74DA7842F0340205
:1058B000DA70044B1A78044B1A7070473480044035
:1058C00000A00640EEA7FF1F6FA8FF1F70B52D4B6D
:1058D0001A7912F0300F1DD072B6997D21B9DA799C
:1058E00040225A7462B615E062B6274A27481278F9
:1058F000274D00781C46531C3F2B88BF0023E679B8
:1059000083421CBFEE541A46013911F0FF01F2D157
:105910001D4B1A701B4AD37819465BB2002B1BDA59
:105920001379180618D51B4B1B4C1D781B4B1B7885
:10593000AB4209D001333F2B88BF00231079E05CD4
:10594000D071107D0728F3D9144A13700D4B1A79C2
:10595000120601D57C22DA7001F04003DBB27BB184
:10596000084B1A7902F04002D2B2194642B10C4BF0
:1059700000221A700B4B1B6803B11A703C23CB70CA
:1059800070BD00BF00A006406FA8FF1FEEA7FF1F5D
:105990002FA8FF1F78A8FF1FEFA7FF1F70A8FF1FEA
:1059A000EDA7FF1F74A8FF1F184B1A6842F400628E
:1059B0001A60174A00231370164A1370164A1370A0
:1059C000164A1370164A1370164B40F213321A60BF
:1059D0004FF451725A60144BC0F344321A70C0F342
:1059E00047125A7000F01F000422022198729A7028
:1059F000D9745A7588221A743C22DA700B4B4022F3
:105A00001A700B4B4FF400421A6070473480044008
:105A1000E3A8FF1F7AA8FF1FECA8FF1FE4A8FF1F41
:105A200079A8FF1F0CB0044000B006402FE400E04E
:105A300004E100E0134A937800F0030103F0EC0363
:105A40000B43410748BF43F01003937000F00F036E
:105A5000042B0C4903D18B7943F040038B715379AC
:105A6000C20603F0EF03074A48BF43F01003537127
:105A70009379810603F0EF0348BF43F0100393715D
:105A8000704700BF00B006400E4B1B68180510B5EC
:105A900003D410BDFFF72AFD00E00B4C2378002B48
:105AA000F8D10A4A4FF400411160094A0949D370FC
:105AB00040F203120A604A60074A1370074A1370E3
:105AC00010BD00BF3480044079A8FF1F84E100E0CE
:105AD00000B006400CB00440E3A8FF1F7AA8FF1FE7
