:1000000000800020BD010000311E0000311E0000F4
:10001000311E0000311E0000311E0000FD1D0000D9
:10002000FD1D0000FD1D0000FD1D0000311E000033
:10003000311E0000FD1D0000311E0000ED1D0000FE
:10004000311E0000311E0000311E0000311E000074
:10005000311E0000311E0000311E0000311E000064
:10006000311E0000311E0000311E0000311E000054
:10007000311E0000311E0000311E0000311E000044
:10008000311E0000311E0000311E0000311E000034
:10009000311E0000311E0000311E0000311E000024
:1000A000650F0000311E0000311E0000311E0000EF
:1000B000311E0000311E0000311E0000311E000004
:1000C000311E0000311E0000311E0000311E0000F4
:1000D000311E0000311E0000311E0000311E0000E4
:1000E000311E0000311E0000311E0000311E0000D4
:1000F000311E000035380000311E0000B13C000008
:10010000311E000061400000311E0000311E000061
:10011000311E0000311E0000311E0000311E0000A3
:10012000311E0000311E0000311E0000311E000093
:10013000311E0000311E0000311E0000311E000083
:10014000311E0000311E0000311E0000311E000073
:10015000311E0000311E0000311E0000311E000063
:10016000311E0000A9260000311E0000311E0000D3
:10017000311E0000311E0000311E0000311E000043
:10018000311E0000311E0000311E0000311E000033
:10019000311E0000311E0000311E0000911F0000C2
:1001A000E11F00006920000025210000A9210000B6
:1001B000311E0000311E0000ED310000544B4CF2A6
:1001C000205210B51A804DF628121A8000BF00BFC9
:1001D00001F032FE4F4B4FF010621A604E4A9A60A7
:1001E0004E4ADA604E4B1A6812F4807204D14D49BF
:1001F0000A604FF4A8521A604B4B1A7802F00802BA
:10020000D2B21AB11A7842F008021A70474B484825
:10021000484C2A221A700023474A02E01959995083
:10022000043399188142F9D3444B454A002101E037
:1002300043F8041B9342FBD34249434800231A5816
:100240005A500433B3F5DE7FF9D1404B404A802148
:1002500003F8011B9342FBD13A4A3E4B1A603E4BD6
:100260000A221A703D4B24221A70A02203F8012C96
:100270003B4A137803F00203DBB2002BF9D0384A73
:10028000137803F01003DBB2002BF9D1344A137852
:1002900003F00C03082BFAD1324B03221A704022D0
:1002A0005A702F4A137803F02003DBB2002BF9D0E9
:1002B0002B4A137803F04003DBB2002BF9D02A4B12
:1002C0002A4A1A6002225A60294B20221A70244AB4
:1002D000137803F00C030C2BFAD1264A264B1A6034
:1002E000264B274A1A60072243F8042C62B602F014
:1002F000CDF80C4B1B68DC0702D5224801F06CFFDF
:1003000006F028F801F09EFD03F01CF8FEE700BFA0
:100310000E20054030800440823F04000100002B85
:1003200010D0034014D0034002D0074000E0074043
:100330001C95FF1FFC740000608FFF1F1C95FF1FA2
:10034000A49CFF1F008AFF1F0000000000E400E0E3
:100350005FE400E008ED00E0005006400140064088
:10036000064006400440064044800440000003016B
:1003700000400640C01005000480044014E000E086
:10038000FF7601002E51C754FFFFFFFFFFFFFFFF65
:10039000FFFFFFFFFFFFFFFFFFFFFFFFFFFFFFFF6D
:1003A000FFFFFFFFFFFFFFFFFFFFFFFFFFFFFFFF5D
:1003B000FFFFFFFFFFFFFFFFFFFFFFFFFFFFFFFF4D
:1003C000FFFFFFFFFFFFFFFFFFFFFFFFFFFFFFFF3D
:1003D000FFFFFFFFFFFFFFFFFFFFFFFFFFFFFFFF2D
:1003E000FFFFFFFFFFFFFFFFFFFFFFFFFFFFFFFF1D
:1003F000FFFFFFFFFFFFFFFFFFFFFFFFFFFFFFFF0D
:10040000FFFFFFFFFFFFFFFFFFFFFFFFFEFFFFFFFD
:1004100008B549F21C50074BC1F6FF701B1A062B9A
:1004200000D808BD40F20003C0F20003002BF8D052
:100430009847F6E71F95FF1F08B549F21C5049F28F
:100440001C53C1F6FF70C1F6FF731B1A9B1003EB20
:10045000D373591000D108BD40F20002C0F200026F
:10046000002AF8D09047F6E710B549F21C54C1F6BF
:10047000FF74237873B9FFF7CBFF40F20003C0F29B
:1004800000032BB147F2FC40C0F20000AFF3008044
:100490000123237010BD00BF08B540F20003C0F275
:1004A00000034BB147F2FC4049F22051C0F200007A
:1004B000C1F6FF71AFF3008049F21C50C1F6FF7026
:1004C00003682BB140F20003C0F2000303B1984768
:1004D000BDE80840FFF7B0BF38B5044608460D46F2
:1004E00001F0DAFC236802465B68204629469847FB
:1004F00038BD38B50446FFF7EFFF0546204602F049
:100500003BFF281838BDFFFF044B00681B6882B012
:100510000193019B181A02B0704700BF8099FF1F1A
:100520000F4B41720360002302610372C3601946DE
:1005300003E0026942F823100133427A9342F8DB68
:10054000084A136813B9106004E013465A69002A78
:10055000FBD15861002343618380C380704700BF93
:10056000286E0000789AFF1F38B505460C460846ED
:10057000002105F0B1FE48B9204605F01BFA0CA396
:10058000D3E9002305F0FAFC10B902E0002400E0F2
:100590000B4C204605F00EFA07A3D3E9002305F023
:1005A0005DFA05F01DFDE86138BD00BFAFF30080C6
:1005B000522CB7B4B48AD5405202FF7889C4F740B0
:1005C000A655AC46AFF3008038B505460C46084644
:1005D000002105F081FE48B9204605F0EBF90CA397
:1005E000D3E9002305F0CAFC10B902E0002400E0C2
:1005F0000B4C204605F0DEF907A3D3E9002305F0F4
:100600002DFA05F0EDFCE86138BD00BFAFF30080C6
:10061000522CB7B4B48AC5405202FF7889C4F7405F
:10062000A6552C46AFF300802DE9F3413224092072
:1006300001F044FB8044072001F040FB3F180620F6
:1006400001F03CFB3618082001F038FB013C054462
:10065000EDD1394C3223204698FBF3F897FBF3F7A2
:1006600096FBF3F695FBF3F5FFF74EFF322827D9FB
:1006700032493348FFF730FF4146314802F0C2FEAD
:1006800030492F48FFF728FF39462D4802F0BAFEBF
:100690002D492B48FFF720FF3146294802F0B2FED2
:1006A0002A492748FFF718FF2946254802F0AAFEE5
:1006B000234802F061FE264B1B680193019B2360D7
:1006C000042498FBF4F1032001F0D2FD204697FBAF
:1006D000F4F101F0CDFD96FBF4F1052001F0C8FD29
:1006E00095FBF4F1062001F0C3FD092001F0E6FAC4
:1006F0000546062001F0E2FA2818400005F04AFD00
:10070000144C01462046FFF72FFF4EF26665072086
:10071000256201F0D3FA0646082001F0CFFA30181E
:10072000400005F037FD0C4C01462046FFF74CFF1A
:100730006562BDE8FC8100BF3895FF1F306E000088
:10074000A49AFF1F3D6E0000486E0000556E000029
:100750008099FF1F3C95FF1F7C95FF1F10B5044635
:10076000C4F300110B2001F047FD0620C4F3C001C3
:1007700001F042FD0520C4F3800101F03DFD04209D
:10078000C4F3400101F038FD032004F00101BDE88D
:10079000104001F031BDFFFF2DE9F3415648DFF86D
:1007A0006081052102F03EFC0820002101F044FD9B
:1007B0000920002101F040FD0B20012101F03CFD4A
:1007C0000620012101F038FD0520012101F034FD52
:1007D0000420012101F030FD0320012101F02CFD56
:1007E000464B1B680193019B02AC40F2CF7744F863
:1007F000083D1DE06846FFF787FE05F0C7FC01468F
:100800003F48404DFFF7B0FE4EF266666846C8F8B6
:100810002060FFF779FE4000C0F57A6005F0B6FC75
:1008200001462846FFF7D0FE0A206E6201F018FE4E
:100830006846FFF769FEB7EB400FDBD23249334819
:10084000FFF757FE32493148FFF753FE2F48314931
:10085000FFF74FFE40F6C41540F253772B482E4960
:10086000FFF747FE0024204605F092F802460B46AB
:1008700000204FF0804103F0D7FD05F089FBFFF722
:100880006DFF2146214802F0BDFDFA2623491F488D
:10089000FFF722FE06FB04F005F07CFC0146184839
:1008A000FFF762FE284605F075FC01461548FFF784
:1008B0008BFE0134304601F0D3FD052CD3D1134813
:1008C00013497D3DFFF715FEBD42C7D114490F48BE
:1008D000FFF70FFE13490D48FFF70BFE12490B48B7
:1008E000FFF707FE11490948FFF703FE10490748C3
:1008F000FFF7FFFDBDE8FC810082FF1F8099FF1F0D
:100900003C95FF1F7C95FF1F5F6E0000A49AFF1FA0
:10091000B46E0000896E0000A56E0000B36E00008A
:10092000B56E0000CC6E0000DC6E0000EA6E0000C8
:10093000F66E000073B51C4D1C4C00210A4628467B
:10094000FFF7EEFD1A4B4FF48046012104F120021F
:1009500020462B602E62FFF7E3FD6662154E164BB4
:1009600006F11802012130462360FFF7D9FD134B31
:100970003046336000F0ACF8114805600025446053
:1009800005724572C56002F005FC0E4880E8500013
:1009900005724572C56002F0FDFB0B4B1B680193AD
:1009A000019A0A4B1A607CBD3C95FF1F7C95FF1F86
:1009B000207100006095FF1F307100001071000071
:1009C000A495FF1FB495FF1F8099FF1F3895FF1F47
:1009D00010B5044602F09CFC204610BD02480349B5
:1009E000034A05F0A1BC00BFC495FF1FD109000058
:1009F000608FFF1F02480349034A05F095BC00BF02
:100A0000CC95FF1FD1090000608FFF1F10B5194B57
:100A10001A6811681A79184B1A70184A91421849C5
:100A200028BF184B08683CBF134603F5807298B185
:100A3000014631F9024F04F5FF447F34241123F8B5
:100A4000024B9342F5D302F063FB0F4B0C491A683B
:100A50000A6000221A6005E040F2FF7123F8021BD1
:100A60009342FBD3094B1B781BB1094B4FF08042DB
:100A70001A6010BDD895FF1F1F8000400A88FF1F15
:100A8000E495FF1F0A87FF1FD495FF1FE095FF1F06
:100A900008E200E010B5002102F06FFB034690B1C0
:100AA00072B60949086808B90B6003E0074A146880
:100AB00014B9136062B610BD0C60136062B6BDE875
:100AC000104002F025BB10BDE495FF1FD495FF1F19
:100AD00038B54B484B4D012102F0C2FB4A4B1A6816
:100AE00042F480521A60494B80221A7000242C80F4
:100AF00008340120A4B201F0B3FCB4F5006FF6D1C4
:100B0000434B1B685B0264D5424B1A6848F6A273DC
:100B1000134048F6A27293425BD13F4B1A6840F2F1
:100B20003F439A4255D13D4B1B68012B51D13C4B61
:100B30001A6840F201139A424BD1314D39492B6862
:100B40001A6819600221197119726FF00101597345
:100B50004FF0FF319973D97319692A494FF48070A6
:100B600019610022D98AD88211465A715A729A7232
:100B7000DA721A731A755A751A765A769A76DA767E
:100B8000DA8BD8839A8B012406229A839C71DC71BC
:100B90002B7903F1804303F50433B02219701A70E6
:100BA00002F00EFB204B214A18702B79204813705D
:100BB00003F110011F4A42F821005A11920002F17C
:100BC000604202F5614203F01F0304FA03F414606B
:100BD00038BD0F4B1A6842F480021A600F4B012295
:100BE0001A6040F23F4243F8082C48F6A37243F8DB
:100BF0000C2C114A43F80C2C40F201125A609CE76D
:100C0000D895FF1F00C00C402C80044021C00C4030
:100C10003C80044000600340046003400C600340DB
:100C2000106003400A87FF1FE095FF1F1B800040F4
:100C30000D0A0000008AFF1FA28F0100024803492D
:100C4000034A05F071BB00BFD895FF1FD109000012
:100C5000608FFF1F02480349034A05F065BB00BFD0
:100C6000E895FF1FD1090000608FFF1F024803496C
:100C7000034A05F059BB00BFF095FF1FD1090000E2
:100C8000608FFF1F2DE9F8430021054602F075FA39
:100C9000AC69D5F81C80064602F0F2F90746B8B9EF
:100CA00086B1F319B3F902301B0458FB03F3023782
:100CB00008EB4303B7F5807F1C44F2D1304602F0C5
:100CC00027FA02E0EB6904EBC314AC61BDE8F883DA
:100CD0003EB3D5F824E029490023200EC4F30F22A7
:100CE00031F910900130C2F57F4C31F910000CF150
:100CF000FF0C504309FB0C0252FB0EF2F818428025
:100D0000F218B2F90220120458FB02F2023308EB87
:100D10004202B3F5807F1444DFD1304602F0F8F987
:100D200021E0AA69EC69154813464FEA136EC3F334
:100D30000F2130F91E900EF1010EC1F57F4830F9F8
:100D40001EE008F1FF0801FB0EFE07EB060C09FB95
:100D500008E102360914B6F5807FACF8021023448E
:100D6000E3D102EBC4142846AC613946002202F0FC
:100D7000EFF93846BDE8F84302F0CAB9046F000045
:100D80002DE9F843036A0446002B34D002F078F9C9
:100D9000054600282FD0A169E069D4F820C0194F7A
:100DA0000A4600234FEA126EC2F30F2637F91E904F
:100DB0000EF1010EC6F57F4837F91EE008F1FF0875
:100DC00006FB0EF609FB086E5EFB0CFEEE18023306
:100DD000B3F5807FA6F802E00244E3D101EBC01135
:100DE000A16120462946002202F0B2F92846BDE85A
:100DF000F84302F08DB9A369E26903EBC213A36162
:100E0000BDE8F883046F0000094B1B7813B9094B48
:100E10001B782BB1084A1378202B03D901230371C7
:100E2000002070470548C1540133137001207047FA
:100E30005E96FF1F2196FF1F5F96FF1F0096FF1F04
:100E40007047FFFF024B1878024B1B78C01A70479F
:100E50005D96FF1F5C96FF1F064A074913780978C5
:100E6000994204D90549C85C0133137070474FF0AB
:100E7000FF3070475C96FF1F5D96FF1F2296FF1F95
:100E8000054B064A1B7812789A4202D9044AD05C74
:100E900070474FF0FF3070475C96FF1F5D96FF1F55
:100EA0002296FF1F38B50E4B1B78144613B90D4B15
:100EB0001B788BB10C4B1D78C5F121039C4202D9E4
:100EC000012202711C4609482246401905F04AFDDC
:100ED000054B2D191D7000E01C46204638BD00BF93
:100EE0005E96FF1F2196FF1F5F96FF1F0096FF1F54
:100EF00010B5104B1B7813F020040BD1122001F019
:100F00002FF80D4B1B68A3B10C4A14700C4A1078D3
:100F1000984710BD0B4A13780133DBB2012B1370D5
:100F200002D8094B1B7823B91220BDE8104001F00C
:100F300017B810BD03600640FC95FF1F5C96FF1FAD
:100F40005D96FF1F4896FF1F2196FF1F002202712A
:100F50000273034A4FF47A7181600260704700BFE8
:100F60004071000010B5374A137803F01001C9B280
:100F700021B903F04002D2B242B92EE01021117023
:100F800003F04002D2B2002AF3D110BD13F00403E3
:100F90002D4A18D0002313702C4A13702C4B1B6859
:100FA000144603B1984722782A4B1AB927491A7078
:100FB00001200870284AD02111701A78274B1A7026
:100FC0000122274B21E001211170264A1370224B88
:100FD000C0221A7002331B7830E01F4A1F4C117870
:100FE00011F0100117D013F0010310D11C4917485C
:100FF0000A780078904205D9164B9B5C0132237029
:101000000A7000E02370144BD0221A7016E0C0233F
:101010001370237812E0144B122019700322134925
:1010200000F074FF0F4A207813781F2B06D806496A
:10103000097819B10E49C85401331370014B0222CB
:101040001A7010BD03600640F895FF1F5F96FF1FE2
:101050004496FF1F0096FF1F026006400460064092
:101060006096FF1F5D96FF1F4896FF1FF10E000060
:101070002296FF1F0148FFF769BF00BF4C96FF1F74
:10108000084B02211961084900225A719A719A721B
:101090001A7383F8302083F83C20996383F83E204C
:1010A000704700BF8096FF1F60710000094B1A68EF
:1010B00042F480621A602C334FF000421A60064AF4
:1010C000FF2111601A68002AFCDA044B1868C0B2CC
:1010D000704700BF00C0024034C0024038C0024028
:1010E0001A4B1B4A70B51A60C307044602D5FFF7B6
:1010F000DDFF013C052C01D8630800E0032300223A
:101100001449154801E0086001329A42FBDB23EAEA
:10111000E372A4EB42040F49104A0F48104D06E059
:10112000166816F0F00FFBD008602E68023C002C09
:10113000F6D106E0106810F0F00FFBD00868013B14
:1011400001E0064A0649002BF4D170BD00C0024000
:1011500000041F8034C00240FFFF00902CC00240FA
:1011600038C00240074B1A6842F480621A602C3380
:101170004FF000421A60044A10601A68002AFCDA34
:10118000704700BF00C0024034C0024010B5194B88
:101190001B780BB3DA0707D5174A18491468096892
:1011A0002140174C2160116003F00202D2B23AB123
:1011B000144A1249146849682140114C6160116059
:1011C00003F00403DBB23BB10F4B0C4A1968926881
:1011D0000A400B498A601A600C4A1368834208D09F
:1011E0000B4B0C491960106040F0804050600A4A77
:1011F0001A6010BD7C96FF1F80E100E06496FF1F1F
:101200007096FF1F84E100E088E100E00CC002401E
:1012100000C0024001401F0000001F800C4B1B78E3
:10122000ABB1D90703D50B4A11680B4A116003F023
:101230000202D2B21AB1074A5168084A116003F09B
:101240000403DBB21BB1034B9A68054B1A6070476D
:101250007C96FF1F7096FF1F00E100E004E100E0B4
:1012600008E100E008B50121007900F0C5FFFFF7B3
:10127000D5FF08BD054B10B504461868FFF786FF7B
:1012800020790021BDE8104000F0B6BFE096FF1FB6
:1012900010B5837904468BB1008940F2012398424E
:1012A00007D8C0F500700230FFF71AFF40F20223A2
:1012B00023812046FFF7D6FF0023A37110BDFFFF57
:1012C00073B50B4B1A680092009E0D461C46B6B2D1
:1012D000FFF7ECFEFF2808D023680193019B9BB227
:1012E0009B1BAB42F4DB002000E001207CBD00BF73
:1012F0008099FF1FF8B505460E461746FFF7C8FF51
:101300002846FFF7B7FF4FF496712846FFF7D8FF3E
:1013100046F04000FFF726FF182427FA04F0C0B279
:10132000083CFFF71FFF14F1080FF6D126B1082E75
:101330000CBF8720FF2000E09520FFF713FF00245B
:10134000FFF7B4FE0306E87204D5FF2C02D0013487
:10135000E4B2F5E7F8BDFFFF73B5114B1A680092D0
:10136000009E04461D46B6B209E02B680193019B1E
:101370009BB29B1BB3F5967F01DD0F2307E0FFF7C0
:1013800095FEFF28E072F0D0FE2806D00D232046FF
:101390006371FFF767FF002000E001207CBD00BF04
:1013A0008099FF1F2DE9F843089D04460F4690469B
:1013B0001E4603B974E09B18B3F5007F73DC837994
:1013C0002BB10368994202D10389934216D9237B3A
:1013D0002760032B18BF7F023A4620461121FFF7F2
:1013E00089FF074610B1032363715CE02046FFF7D5
:1013F000B3FF002857D001232781A3714046FFF790
:101400006FFE2C492C4B1960F107324604D5FFF7CB
:101410004DFE05F8010B721E052A01D8530800E0A5
:10142000032300212548264F01E00760013199423E
:10143000FBDBA2EB4302AA182248204FDFF880C052
:10144000DFF884800DE0016811F0F00FFBD0C7F8E1
:1014500000C0D8F80010C1F3072985F80090697022
:1014600002359542EFD302EB43031748154A09E0D2
:10147000116811F0F00FFBD00168C1F307272F703E
:10148000697002359D42F3D32389F618A37AB6B268
:10149000268113B1B6F5007F02D32046FFF7F8FE90
:1014A0000120BDE8F8832046FFF7DCFE0020BDE800
:1014B000F88300BF00041F8000C0024034C0024017
:1014C000FFFF00902CC0024038C0024007B54FF427
:1014D000007300920022FFF765FF0EBD2DE9F04179
:1014E00004462B482B4F03682B4D43F480634FF089
:1014F000004603603E6029603946002307468C465B
:10150000D1F800E0BEF1000FFADA12E0D1F800E005
:10151000BEF1000FFADA18E01E4A1368002BFCDA5D
:1015200026E0112320466371FFF79CFE0020BDE8F2
:10153000F081D0F8008012F803E048F48068C0F829
:1015400000800E60C5F800E0E0E702EB030ED7F87C
:1015500000809EF801E0023348F48068B3F5007F14
:10156000C7F80080CCF80060C5F800E0C8D1D3E728
:10157000FF20FFF7F7FDFF20FFF7F4FDFFF796FDD3
:10158000E07200F01F000528CBD10120BDE8F081FA
:1015900000C002402CC0024034C0024070B50B466F
:1015A0000446164609B9122329E0027B032A18BF14
:1015B0004B021A461821FFF79DFE054608B1042389
:1015C0001DE02046FE213246FFF788FF88B1204605
:1015D0004FF41671FFF774FE08B915230FE020468B
:1015E0000D212A46FFF786FE40B9FFF75FFD28B9B7
:1015F00007E02046FFF736FE002070BD142363711C
:10160000F7E72046FFF72EFE012070BD014A024B8E
:101610001A60704701100138E096FF1F10B50446AC
:101620000121006A04F1080200F01EFA40B1E369EA
:101630002BB9A368E361637963F07F0363710120D1
:1016400010BDFFFF10B50446006900F071F918B134
:10165000207D024B03EB401010BD00BFF096FF1F32
:10166000F8B5044680790D4600282CD0A36999422C
:1016700024D825E01DB9A560E5600120F8BD236AE6
:10168000E2681E7C691E0936531E23FA06F321FA0E
:1016900006F69E4200D312B9E369A36009E0F61A88
:1016A00007E0206AA1683A4600F066F9013E10B9E9
:1016B000F8BD04F10807002EF3D1DDE70020F8BDE6
:1016C0000228D7D1D8E7F8BD38B58379054613B3DA
:1016D00090F90530002B1ADA0121FFF7B3FF044619
:1016E000C8B1AB79012B9CBFAB69C361EB69438384
:1016F0001B0C8382094B1B682BB1183004F11601B7
:101700009847238B63826B7903F07F036B71BDE88D
:10171000384000F0E7B8002038BD00BFE496FF1F56
:101720002DE9F74F92468279012A07460C4640F090
:10173000B680427902F00201C9B2002900F0AF8000
:10174000B1E0B969FD688D4201D1554688E0FFF7E7
:1017500087FF002800F0A380F7E7386A90F804B00C
:101760000BF1FF3B0BEA522B4FEAC2594FEAD95912
:101770001BF0FF0B1FFA89F81FD1B8F1000F1CD125
:10178000B96811B9FA69BAB911E001AA00F0F4F820
:10179000002800F08F80396A474891F82010019A9C
:1017A0004FF6F873102908BF1846824204D3384612
:1017B000FFF734FF08B972E0BA603A6AB968107C82
:1017C0005269C8F500760239B6B2B54238BF2E4626
:1017D00001FA00F18918B6F5007F8B4411D1374A20
:1017E0001168594504BF4FF0FF311160344A594622
:1017F00010682246FFF7D2FE002850D004F500748E
:1018000029E0B8F1000F10D1F968BA6991420CD300
:1018100000F068F8002842D0284AC2F800B0294AEF
:10182000117841F00101117005E05846012100F0E6
:101830007FF8002833D0244A914409EB0600611E4A
:101840004A4603E011F801CF02F801CB8242F9D1F8
:10185000C9EB02094C44FA68AD1B9619ADB2FE60A3
:10186000FA68002D7FF479AFB9698A4201D9BA616B
:1018700005E0164A126832B1BAF1000F03D07A7946
:1018800062F07F027A717A7902F00802D2B20AB964
:1018900050460FE03846FFF717FF0028F8D1012225
:1018A0003A71002006E002F00402D2B2002A7FF46E
:1018B00048AF4AE7BDE8FE8FF8FFFF0F648FFF1FB8
:1018C000EC96FF1FF098FF1FF096FF1FE496FF1F96
:1018D00007B502AB012203F8011D1946FFF720FFEF
:1018E0000EBDFFFF38B50D4B1B78A3B10C4D0D4B52
:1018F000286819680C4AFFF751FE68B10B4C216843
:1019000031B12868084AFFF749FE28B10023236057
:10191000024B00221A70012038BD00BFF098FF1F53
:10192000EC96FF1F648FFF1FF096FF1FE896FF1FC6
:1019300070B50D4D2B68834204460E460DD0FFF75F
:10194000D1FF08B9002070BD084B094A186821462C
:10195000FFF7BCFD0028F5D02C60064B1A78164323
:101960001E70012070BD00BF648FFF1FEC96FF1F2B
:10197000F096FF1FF098FF1FC3680133994270B5BE
:1019800005460C46164601D9002070BD95F820305A
:10199000C069102B01D10B0A00E0CB0918180E4BBF
:1019A0001B68984205D195F82030102B0B4B0AD1BB
:1019B00005E00021FFF7BCFF0028F4D1E4E7E4B222
:1019C00033F8143005E004F07F0453F8243023F09A
:1019D00070433360012070BD648FFF1FF096FF1FBE
:1019E0000129F8B504460D46174633D9C3680133BB
:1019F00099422FD890F82030C669102B01D10B0ADC
:101A000000E0CB099E19144B1B689E4205D194F847
:101A10002030102B114B0BD106E030460021FFF790
:101A200087FF0028F3D1F8BDEDB223F8157003E06D
:101A300005F07F0543F82570094B1A7842F0010242
:101A40001A70237E012B03D9A368F618054B1E607C
:101A50000120F8BD0020F8BD648FFF1FF096FF1F26
:101A6000F098FF1FE896FF1F2DE9F74F156806460F
:101A70008A4617461DB101354FF0000905E04B1E9F
:101A8000D3F10009056859EB0309F3682C4603F10B
:101A9000010B4FF00008F36898451CD25C4501D952
:101AA000022425463046214601AAFFF765FF90B182
:101AB000019A631C0AB11D4602E05B1B534503D02B
:101AC00008F101080134E6E7304621466FF0704224
:101AD000FFF786FF58B900201CE004F1FF383046BC
:101AE00041462246FFF77CFF0028F4D04446AC4232
:101AF000F3D8396821B93D60B9F1000F07D108E08A
:101B000030462A46FFF76CFF0028F4D1E3E70135A1
:101B100035600120BDE8FE8FF0B5304830490368DC
:101B20001B06FCD40B6813F08002F8D172B62D4B63
:101B30001978002950D02C4908684F688E68CD6804
:101B40000C693818143180190968401900194018B7
:101B5000C0F34E00254940F400400860C86A0F6B8E
:101B60004E6B8D6BCC6B3818403180190968401969
:101B700000194018C0F34E001D4940F400400860B1
:101B800001F10811143151F8140C51F8107C51F87E
:101B90000C6C51F8085C51F8044C0968381880192D
:101BA000401900194018C0F34E00124940F400409B
:101BB0000860C86A0F6B4E6B8D6BCC6B3818403168
:101BC00080190968401900194018C0F34E000A49ED
:101BD00040F4004008601A7062B6F0BD24B00340C3
:101BE00024B00B40F298FF1F38B003402CB00340E4
:101BF00030B003402CB00B4030B00B40224B602281
:101C00001A70E1225A70214B214A1978214B082978
:101C100001D1012102E00A2907D1392111601322E3
:101C20001A601D4B19605A600BE00C291A4901D14A
:101C3000352000E03D20106012221A60174B08602A
:101C40001A60174B17491B78174A03B101230B6021
:101C50001360164B164A1978164B012901D88021BA
:101C60000CE0042901D8842108E0082901D8852145
:101C700004E0102901D8862100E087211160196055
:101C80000D4B01221A70704700400740688FFF1FFC
:101C900008B003400CB0034008B00B400CB00B4040
:101CA000F598FF1F20B0034020B00B40698FFF1F45
:101CB00024B0034024B00B40F298FF1F0D282DE9FB
:101CC000F0410FD9172801D80E380AE0A0F11A0305
:101CD000052B01D8093804E0A0F12203062B4DD8CA
:101CE0001838C0B2274B1C5C274B1B780BB1FFF791
:101CF00013FF72B6200614D4244D254E01272C6004
:101D0000377062B672B62B68190603D5214B186876
:101D10001F4B23E03378002BF1D062B601F09AFB21
:101D2000F0E704F040071C4D1C4EFFB204F03F04E6
:101D30004FF001081A4B1A6817B122F0100201E0A7
:101D400042F010021A602C6086F8008062B672B60B
:101D50002B681A060BD5134B1868104B00221A700B
:101D600062B6114B1B7840FA03F0BDE8F08133787E
:101D7000002BDFD062B601F06DFBE8E70020BDE884
:101D8000F08100BF68710000F298FF1F00B00340AF
:101D9000F498FF1F10B0034000B00B40F398FF1FF2
:101DA0000CB00B4010B00B40F198FF1F0B4B1A68A2
:101DB00042F480521A600A4B1A780A4B0AB1802208
:101DC00000E0C0221A7040F6FF739842A8BF184680
:101DD000054B20EAE0701880704700BF2C8004405B
:101DE000F598FF1F21C00C4000C00C40024B1A6840
:101DF00001321A60704700BF8099FF1F38B50B4C45
:101E000025462368580301D500F04EFC2B68590580
:101E100001D501F00FFD2B681A0501D501F048FF2F
:101E20002368DB04EDD502F01BF9EAE734800440B7
:101E300008B5FFF7E3FFFFFF014B10221A80704740
:101E4000002005407047FFFF024A13681818106011
:101E5000184670476C8FFF1FFEE7FFFFEFF31383F9
:101E60009BB9EFF3108098B9EFF3058323B10F2BE3
:101E700004D9084A985C01E04FF48070EFF31183B5
:101E80003BB1984228BF184670474FF0FF3070476B
:101E900018467047F0E300E0002300E00133C25C25
:101EA000002AFBD11846704710B50023B0FBF2F4AE
:101EB00002FB1400092801D8303000E03730C85444
:101EC00020460CB10133F1E7CA185470224605E0F0
:101ED000885CCC5C8C54C8540132013B9A42F7DBDD
:101EE000084610BD084B4FF400021A604FF0807294
:101EF0001A604FF000721A604FF080621A604FF063
:101F000000621A60704700BF08E100E0212830B588
:101F100021D8042A1FD8DFE802F00709050B0300C7
:101F20000B2306E00A2304E0082302E00C2300E070
:101F30000923094A02EBC002526872B61468074DC1
:101F400024F47024146044F0807444EA034345F898
:101F50002010136062B630BD80710000F898FF1F3A
:101F6000094B03EBC0035B6872B61A6822F08772F4
:101F700022F4803242F080721A60044B002243F84F
:101F8000202062B6704700BF80710000F898FF1FE4
:101F9000114B10B51C68E0041C6004D50F4BDA68C7
:101FA0000AB1DB689847A10404D50C4B1A690AB141
:101FB0001B699847A20604D5084B1A6E0AB11B6E1E
:101FC0009847E30606D5054BD3F8842012B1D3F821
:101FD0008430984710BD00BFA0900440F898FF1FC0
:101FE0001F4B10B51C68E0031C6004D51D4B1A681C
:101FF0000AB11B689847A10304D51A4B5A680AB165
:102000005B689847E20704D5164B1A6C0AB11B6C43
:102010009847A30704D5134B5A6C0AB15B6C9847D9
:10202000200704D50F4B9A6C0AB19B6C9847610747
:1020300004D50C4BDA6C0AB1DB6C9847220304D54B
:10204000084B5A6E0AB15B6E9847630306D5054B81
:10205000D3F8802012B1D3F88030984710BD00BF6C
:10206000A0A00440F898FF1F2C4B10B51C68200757
:102070001C6004D52A4B5A6A0AB15B6A9847E1068C
:1020800004D5274B9A6A0AB19B6A9847620604D521
:10209000234BDA6A0AB1DB6A9847230604D5204B42
:1020A0001A6B0AB11B6B9847A00604D51C4B5A6BE0
:1020B0000AB15B6B9847E10704D5194BDA6B0AB19B
:1020C000DB6B9847A20704D5154B9A6D0AB19B6D3F
:1020D0009847630704D5124BDA6D0AB1DB6D984758
:1020E000A00504D50E4BDA6E0AB1DB6E9847E10508
:1020F00004D50B4B1A6F0AB11B6F9847620504D5C4
:10210000074B5A6F0AB15B6F9847230504D5044B00
:102110009A6F0AB19B6F984710BD00BFA0B00440F2
:10212000F898FF1F1E4B10B51C68E0071C6004D513
:102130001C4B9A680AB19B689847210604D5194B35
:102140005A690AB15B699847E20604D5154B9A694A
:102150000AB19B699847630704D5124BDA690AB143
:10216000DB699847200704D50E4B1A6A0AB11B6A2F
:102170009847A10704D50B4B9A6B0AB19B6B984704
:10218000A20604D5074B1A6D0AB11B6D984763066A
:1021900004D5044B5A6D0AB15B6D984710BD00BF62
:1021A000A0C00440F898FF1F094B10B51C68A20797
:1021B0001C6004D5074B9A6E0AB19B6E9847E307E3
:1021C00004D5044BDA6F0AB1DB6F984710BD00BF2E
:1021D000A0D00440F898FF1F044B054900221A6064
:1021E0000A60044A106010221A60704714D003403D
:1021F00004D0034000D00340212810B518D80D4A60
:1022000052F8303093F880423CB1012211B183F88A
:10221000802010BD83F8002110BD02EBC000436890
:102220001A6811B142F0030201E022F002021A60C2
:1022300010BD00BF80710000212816D80B4A02EBA8
:10224000C00301295B6852F8302004D182F8801263
:102250004FF4A27208E0002082F8800211B94FF416
:10226000807201E040F203121A6070478071000032
:10227000282838B50A4604464E4B0FD11B780B2B45
:1022800003D8C3F10C039A4003E00C2B01D00C3BA4
:102290001A411046BDE83840FFF788BD197801257E
:1022A000002A05FA01F301DC002102E09A4205D37D
:1022B0002946FFF7A1FF2046294676E0C31E012BE1
:1022C00001D83D4B06E0192801D0202801D13B4B15
:1022D00000E03B4B1B680133534323FA01F3E11E3B
:1022E0001D2959D8DFE801F00F151B215858272D5B
:1022F00058585858585858585833393F45585158D5
:1023000058585858584B2F4A13604FF451722E4B5F
:1023100040E02E4A13604FF451722D4B3AE02D4AA3
:10232000136040F244422C4B34E02C4A136040F2DC
:1023300044422B4B2EE02B4A136040F244422A4B7E
:1023400028E02A4A136040F24442294B22E0294AFD
:10235000136040F24442284B1CE0284A136040F2CC
:102360004442274B16E0274A136040F24442264B72
:1023700010E0264A136040F24442254B0AE0254A09
:1023800013604FF45172244B04E0244A1360244B31
:102390004FF451721A6038BD7F2A2046D4BF002105
:1023A0000121FFF729FF20460121BDE83840FFF752
:1023B00043BF00BF708FFF1F0890034008800B4091
:1023C0000880034010900340309004401890034070
:1023D00034900440488003401CC0044030800340D7
:1023E00010C00440208003400CB00440288003400B
:1023F00010B004403880034014C0044040800340C3
:1024000018C004401080034004B00440188003400A
:1024100008B0044010800B4048A0044018800B40D6
:102420004CA0044072B60B4B0B491A680B4B1B684F
:10243000096862B6490102D5322A88BF0133C2F564
:10244000BB32FF326021B2FBF1F24FF47A7000FB35
:102450000320704718E000E004ED00E08099FF1FC2
:1024600070B50446FFF7DEFF05466CB140F2E73673
:10247000FFF7D8FF401BB04203D9013C04D005F55B
:102480007A7500F0E7FFF3E770BDFFFF10B5FFF7C7
:1024900029FD164B164A174C00204BF6FF711860A9
:1024A00059602823136093601361936113629362F0
:1024B00013639363092222600F4C20606160A36064
:1024C000236144F8042C0D4C20600D4801600D4937
:1024D0000B608B600C4B1A60FFF790FB0420FFF73A
:1024E000BFFFBDE8104000F0FBBB00BF048003400D
:1024F0000C800340008003400490034004800B40A4
:1025000008800B400C800B4000800B40F0B50C4B5A
:102510000C4C1A7842F0020504EBC50682F0010269
:10252000706009481A700678002E0CBF8827C827EB
:1025300047EA014186F0010644F835100670F0BD07
:10254000EC99FF1F0080FF1F649AFF1F431E032B9F
:1025500010B510D872B6094A52F8230048B1416844
:1025600042F82310064A018832F81340611A22F813
:10257000131062B610BD002010BD00BFDC99FF1F14
:10258000909CFF1F013803280BD872B6064B53F8F6
:102590002030002001E05B680130002BFBD162B6E7
:1025A00070470020704700BF309AFF1F70B572B6A9
:1025B000184E194C01239A1912F8012C02F0080246
:1025C000D2B2E2B19900144A54F831502DB902EB5D
:1025D000431308305860114B09E041F0010154F8F1
:1025E000315065B902EBC103083058600C4B42F81A
:1025F00031300C4B1A78013A1A7062B670BD013353
:10260000052BD8D162B6074B00221A70BDE8704086
:1026100000F0D2BBB87200000080FF1F88004000AD
:10262000C80040005A9AFF1F431E032B30B532D812
:102630004001194A40F01000101872B6174CE25CC5
:10264000032A09D8DFE802F0160218050830022232
:1026500013E00830042210E01148124A50F82340D9
:1026600014B940F8231002E052F82300416042F808
:1026700023100FE0032200E00522E25410F0080FBF
:1026800001F108030A8843600CBF8823C82343EA8A
:102690000243036062B630BD0080FF1F9899FF1FA0
:1026A000309AFF1F409AFF1F2DE9F74FA54EA64C09
:1026B000357805F00403DBB2ABB1A44B1B7883B1D2
:1026C000A34A137823B1013BDBB2137003B900BEF8
:1026D000A04A13782BB1013BDBB213700BB900F0A9
:1026E0007FFC0423337005F00802D2B2002A00F008
:1026F0008082994B1B781D094FEA930940F0FE81B7
:1027000004EBC903586854F83930C3F38303013B21
:102710000C2B00F2F081DFE813F0A901A901EE0112
:10272000EE01EE01EE01EE01EE01C501EE01EE015A
:10273000EE010D004368894902684B60884B894867
:1027400044F83930884D0A60002303600120287066
:1027500092B240F28165AA422361A36117D8B2F513
:10276000D06F80F02C81B2F5817F00F0DC8006D83C
:10277000802A00F0C280822A40F03D81C1E040F210
:1027800002339A4200F00C81B2F5A06F16E042F2DB
:102790002105AA4200F0678108D8B2F5086F00F061
:1027A000A680B2F5106F40F026810AE042F22120A7
:1027B000824200F01C8142F221339A4240F01B8198
:1027C0001DE18A78614B604D1A702B6A180603D59B
:1027D000686A083800F0F0FA644A08359542F4D186
:1027E000DFF8B091DFF8B0B10025A846CA4655F829
:1027F000090005E04368009300F0DEFA009B1846EC
:102800000028F7D15A4B4AF8050045F80B00E85864
:1028100007E042680093019200F0CEFA019A009B13
:1028200010460028F5D15851524BE850524B23F82E
:102830001800524B18F80320023A032A08D8DFE8A0
:1028400002F002040204002200E0012203F8082042
:1028500008F101080435B8F1040FC8D1484BDFF87E
:102860003C9100221A7001259846464B05EB09025F
:10287000EB1812F8012C9B001A7002F00802D2B279
:102880003AB300F07BFAAB0038B104EB45120830E4
:1028900050603D4A44F8332006E044F8330098F88D
:1028A0000030013388F8003000F068FAAB0043F0E4
:1028B000010338B104EBC30208305060284A44F8E1
:1028C000332006E044F8330098F80030013388F8EC
:1028D0000030AA0042F00201013542F00302002359
:1028E000052D44F8313044F83230BED188E0174B22
:1028F000264D1B782B70034685E0244D2B706B70A2
:1029000080E08A88042A00D975E0204D2B706B7016
:102910001F4B9200D3181B7803F00203DBB2002B8D
:1029200070D028706EE08A8802F07F03042B62DC8E
:102930004B8803B15FE09100154A8A18117821F0A5
:10294000020156E0802007400080FF1F639AFF1FAE
:10295000ED99FF1F659AFF1F90200740509AFF1FB7
:10296000C80040008499FF1F649AFF1F8080FF1FEA
:10297000309AFF1F409AFF1F909CFF1F9899FF1FDE
:102980005A9AFF1F30C80110880040005B9AFF1F51
:10299000C0200740DC99FF1F8899FF1FB872000014
:1029A0008A8802F07F03042B25DC4B8803B122E0E8
:1029B0009100A14A8A18117841F0020119E04A8871
:1029C0009E4B898853F8085CA3F10C009DB133F845
:1029D0000CCC944509D133F80ACC8C4505D1120AA8
:1029E000032A0CBF2B7803890DE00C33EAE78978C2
:1029F000934A117004E0904B0F221A7033E00023C9
:102A00001D4600E002238F4AB2F806904B4538BFBE
:102A10009946B9F1400F34BFC8464FF040082846E8
:102A20004146FFF773FDB9EB0809454403D1B8F1FE
:102A3000400F07D017E0B9F1400F34BFC8464FF040
:102A4000400800E0C84628464146FFF75FFDB9EB65
:102A50000809454402D1B8F1400F04D17A4B7B4AB2
:102A60001D60A2F800900122794B43E0754B1A8853
:102A700042F221039A4211D1764A0023C15C995453
:102A80000133072BFAD1734B1B68862B02D1724B93
:102A90000F221A7000200146FFF738FD6F4B44F8F3
:102AA000393028E0684BD3F80080B8F1000F18D017
:102AB000DFF89891B9F800A0BAF1400F34BF55463D
:102AC000402540462946FFF721FDC5EB0A039BB28E
:102AD000A9F800300BB9402D01D108EB05035A4A83
:102AE0001360584B1A88B2F5A06F04D100225A70B7
:102AF0009A785B4B1A700122554B6DE004EBC908C4
:102B000003F00803D8F80420013DD9B2A2F108006F
:102B1000EDB2002937D000F04FF95248524B50F82F
:102B20002510F1B14A6840F8252001F10802C8F8E3
:102B300004205A5D032A0BD8DFE802F002040608DD
:102B4000032204E0022202E0052200E004225A559A
:102B500018F0080F0A880CBF8823C82343EA0243F1
:102B600042E05A5D032A07D8DFE802F04040020441
:102B7000002206E0012204E018F0080F0CBF022238
:102B800003225A5532E054F839301B0C22F8083C25
:102B900023B322F8061C42F8041C344A344952F884
:102BA000257017B942F8250002E051F82520506041
:102BB000304A41F8250032F815105B1822F815301C
:102BC00000F0DCF818B10830C8F8040006E02A4B21
:102BD00044F839001A7801321A7007E01F4B274A6F
:102BE00018F0080F08BF134644F839300823337033
:102BF0005EE5E90752D516492048214C02230B70A7
:102C0000204B1A70204B1860986020481A61D860D9
:102C10009A615C60084B0D2018701D48FF230370FB
:102C200000F8083C02741B4A13701B4B9F221A7059
:102C300001230B704BE000BFC0200740C8720000AA
:102C4000749AFF1F509AFF1F8499FF1F589AFF1F05
:102C500094200740989CFF1FED99FF1FC80040007B
:102C600098200740309AFF1F9899FF1FDC99FF1F9B
:102C70008899FF1F909CFF1F5A9AFF1F88004000F1
:102C80009C99FF1FEC99FF1F0080FF1FF099FF1F09
:102C9000882007408C200740842007402B0605D55C
:102CA0000C4B0D221A70802203F8402C05F0020311
:102CB000DBB22BB1084B1A781A70022203F8082CE9
:102CC00005F01005EDB215B1044B10221A70BDE8E5
:102CD000FE8F00BFC02007408820074080200740AB
:102CE00008B501F013FA00231E491A465A50C818B5
:102CF0000833882B4260F9D11B4B1A6842F48022BA
:102D00001A601A4B80221A701978184A0906FBD4E7
:102D1000144B1749C3F307200870C3F307401B0E79
:102D200008750B76FF2301F81C3C01F8143C01F8F0
:102D30008C3C137843F0400313700021012302F808
:102D4000783C02F80C1C02F8883C0A4B70226FF4A5
:102D5000507C1A7063444FF400721A60064B1022C4
:102D60001A7008BD0080FF1F348004400C2107400A
:102D70009C20074049E400E00821074072B60C4A55
:102D80001168B1FA81F30B2B02D962B600207047AB
:102D90004FF0004020FA03F021EA0001116062B612
:102DA000044948225343C8180022CA504260704761
:102DB000748FFF1F008CFF1F0C4B4822C31AB3FBFC
:102DC000F2F30B2B11D80A4A127822B1094A127871
:102DD0000AB1FFF7EBBB72B6074A4FF0004121FA88
:102DE00003F311681943116062B67047008CFF1F2E
:102DF0005A9AFF1F639AFF1F748FFF1F38B5114C3B
:102E000023684BB10F4D28684288811801320C7A33
:102E100001888A4212D30CE00B4B1B7813B94FF098
:102E2000FF340CE00320FFF791FB20600028E9D17C
:102E3000F5E7FFF7C1FF00232B6000E0428020464A
:102E400038BD00BF709AFF1F639AFF1F10B50C4C6E
:102E500023681BB10A4B1B686BB902E0094B1B7856
:102E600013B94FF0FF3010BD0320FFF76FFB206058
:102E70000028EFD1F5E75A889B18187A10BD00BFDB
:102E8000709AFF1F639AFF1F044B9888044B1B68BE
:102E90001BB11A885B88D31AC0187047909CFF1F1B
:102EA000709AFF1F2DE9F8432D4B2E4DDFF8C0809F
:102EB00001220C461A7006464BE02B682BBBDFF84C
:102EC000A0904AF2F92798F8003013B9244A1370F9
:102ED00014E00420FFF756FB072808D8012389F8DF
:102EE0000030FFF74BFF286078B989F80000013FF8
:102EF0001D4B01D01A782AB101221A704FF0FF3011
:102F0000BDE8F88300F0A6FADDE72968164A48888C
:102F100000231370C0F14002944238BF224600F1F2
:102F200008078018CF194880A41A02E0F05CF85412
:102F300001339342FAD1F6184B883F2B06D9402330
:102F40000B800420FFF770FB00232B60074B05224A
:102F50001A70002CB1D1024B20461C70BDE8F883DA
:102F6000669AFF1F689AFF1F6C9AFF1F659AFF1FE2
:102F7000639AFF1F07B502AB012103F8010D184644
:102F8000FFF790FF0EBDFFFFF8B5114B1B78EBB1BB
:102F9000104E114B3468114D01271F704CB16388DE
:102FA00000272F70042023802146FFF73DFB376068
:102FB00009E0FFF7E3FE014620B104202C70FFF783
:102FC00033FB00E02F70044B00221A70F8BD00BFE5
:102FD000639AFF1F689AFF1F669AFF1F659AFF1F7B
:102FE00038B50D4B1D78ADB90C4C216831B14B880B
:102FF00004200B80FFF718FB256038BDFFF7BEFEED
:10300000014620B10420BDE83840FFF70DBB044B5A
:1030100001221A7038BD00BF669AFF1F689AFF1F11
:10302000659AFF1FF0B5C02928BFC02172B6124BA8
:103030001860124B00221A605A609A60DA601A61B6
:103040005A6101260AE0540902F01F0753F8245080
:1030500006FA07F73D4343F8245001328A42F2D181
:1030600000234FF4817203E002FB03046370013319
:103070008B42F9D162B6F0BD809AFF1F889AFF1F7C
:1030800010B572B61E4B1868A0B9586850B9986848
:1030900050B9D86850B9186950B95869143348B94B
:1030A00062B610BD043305E0083303E00C3301E0E1
:1030B0001033FFE7B0FA80F14FF0004222FA01F23C
:1030C00020EA020018600F4802780132D2B2027082
:1030D00062B60B481B1A9B105B01591A4FF481739F
:1030E0004B43094903F5F9531E3309680124CC54B5
:1030F000C818064B1978914238BF1A7010BD00BF2E
:10310000889AFF1F859AFF1F809AFF1F7C9AFF1FD6
:10311000417872B60378012B02D9013B037011E0AC
:103120004A11094BC9434FF0004001F01F0120FA3A
:1031300001F153F82200084343F82200034B1A78A8
:10314000013A1A7062B67047889AFF1F859AFF1F6E
:1031500030B5C3680EE0187A90420AD158685C7A9C
:10316000006950F8245025B940F82410087801303F
:103170000870DB68002BEED130BD437A99424FF0E6
:10318000000305D2026952F8210042F8213070474D
:103190001846704710B54168427A4B7A9A420ED869
:1031A00072B60268D36813B9D06004E02346DC68C5
:1031B000002CFBD1D860012313720B7262B610BDD4
:1031C000074B1A784AB9074AFF211170064A4FF097
:1031D000804101201160187070470020704700BFC7
:1031E000849AFF1F5EE400E008E100E0F8B5164BAA
:1031F000164D1A6842F080721A60154B1A6842F038
:1032000001021A60134B2E681C680FE0237A63B129
:1032100021682F680B68204698472A68E388D21BEC
:1032200012099A42A28088BFE2806469002CEDD125
:10323000064B094A1B689B1B1B091380074A118810
:103240008B4288BF1380F8BDFCED00E0041000E065
:10325000001000E0789AFF1FA09AFF1F869AFF1FB8
:1032600030B572B609B9026822B9264A002311881E
:10327000144611E003790F2BF7D82249098841FA47
:1032800003F1C907F1D503F1007303F59063B2EBC5
:10329000431FEAD162B630BD41FA03F212F00102D7
:1032A00027D1012505FA03F52943218062B6164985
:1032B00003710C6844F002040C6051F8044C44F0B3
:1032C000020441F8044C114982240C608B768B7700
:1032D0000B76CB7703F1007303F590635B0103601A
:1032E0001A605A609A60DA601A615A619A61DA610A
:1032F00030BD0133102BCFD162B6002202600371C2
:1033000030BD00BFA29AFF1F4080044000800040F3
:1033100003790F2B10D8094A137072B6084B027943
:10332000012101FA02F2198821EA02021A8062B62A
:103330001023037100230360704700BF1A80004010
:10334000A29AFF1F08B5FDF727FAFDF76DF900F007
:1033500081F8FAE7F8B506460C468F18002506E016
:10336000336814F8011B1B68304698472D18BC427F
:10337000F6D12846F8BDFFFF07B5054B1B88ADF811
:103380000430036801A95B68022298470EBD00BFA4
:1033900090720000F0B505468BB022B90368C9B23F
:1033A0001B6898472CE0012A08BF0A2221B9302265
:1033B0008DF82520212413E02124B1FBF2F002FB3B
:1033C0001011C9B2092901D8303100E037310AAFF4
:1033D0003E1906F8241C014610B1013CE4B2ECE7AA
:1033E00033B1013C0AAAE4B213192D2203F8242CAC
:1033F0002B6801AF5B6828463919C4F1220298474F
:103400000BB0F0BD002902DA49422D2300E0002371
:103410000A22FFF7BFBF08461146FFF743BD084623
:10342000FFF7A8BDFFF7B0BDFFF710BDFFF7E6BC83
:10343000FFF72ABD7047FFFF044B00221A711A7371
:10344000034A4FF47A7199601A607047A49AFF1F7B
:10345000A072000008B50E4B1A78C2B901221A708A
:10346000FFF712FD08B1FFF7E5FF00F08BF908B197
:1034700000F0E6FE00F0C4FB08B100F053FF00F0DE
:10348000A9FD08B100F0C0FF014B00221A7008BD71
:10349000B49AFF1F194B1A6842F480621A60184AE6
:1034A00000231370174A1370174A1370174A1370CA
:1034B000174A1370174B40F213321A604FF45172CF
:1034C0005A60154BC0F344321A70C0F347125A7059
:1034D0000221042200F01F0098729A70D9745A7564
:1034E00088221A743C22DA700C4B40226FF44A7125
:1034F0001A705B184FF400521A6070473480044011
:10350000379BFF1FB69AFF1F409BFF1F389BFF1F73
:10351000B59AFF1F40A0044000A006402DE400E043
:10352000134A937800F0030103F0EC030B434107C7
:1035300048BF43F01003937000F00F03042B0C49B5
:1035400003D18B7943F040038B715379C20603F0AA
:10355000EF03074A48BF43F0100353719379800685
:1035600003F0EF0348BF43F010039371704700BFAF
:1035700000A006400E4B1B68580510B503D410BDC3
:10358000FFF768FF00E00B4C2378002BF8D10A4AC4
:103590004FF400511160094A0949D37040F20312F7
:1035A0000A604A60074A1370074A137010BD00BFD3
:1035B00034800440B59AFF1F84E100E000A006407B
:1035C00040A00440379BFF1FB69AFF1F38B5094B38
:1035D00004461D78002DFCD120460121FEF72CFE6B
:1035E00020462946FEF708FE034B53F83420034BD0
:1035F0001A6038BDB59AFF1F807100003C9BFF1F09
:103600001D4B1B685A052DE9F041074631D51B4B70
:103610001B680BB101221A70194B1A4D1C781A4EF7
:10362000DFF8688001343F2C88BF002414E0FEF7E7
:1036300015FC40280CDC33791B060DD52B780133A3
:103640003F2B88BF002318F80320F2712B7003E092
:10365000FF2801DDFFF7FEFE2B78A342E7D00B4BDE
:103660001F550B4B01221A70054B1C70064BBC22D8
:10367000DA70BDE8F08100BF348004403C9BFF1F3E
:10368000409BFF1F389BFF1F00A00640B79AFF1FFB
:10369000B59AFF1F2DE9F84F254B1B6806465805C4
:1036A000894642D5234B1B680BB101221A70224D6B
:1036B000B346AA4632E0214B1C782F7801343F2CC8
:1036C00088BF0024A74209D01BF8012B1C4B1A55B8
:1036D0001C4B01221A70194B1C701FE01A4BBC22A4
:1036E000DA709846FEF7BAFB40280FDC98F80430F1
:1036F00019060FD52B78124A01333F2B88BF0023C0
:10370000D25C88F807208AF8003003E0FF2801DD4A
:10371000FFF7A0FE2B78BB42E4D0D5E706EB090308
:103720009B45C8D3084BBC22DA70BDE8F88F00BFB8
:10373000348004403C9BFF1F389BFF1F409BFF1FB2
:10374000B79AFF1FB59AFF1F00A0064010B5044CA2
:1037500001E0FFF77FFE2378002BFAD110BD00BFF8
:10376000B59AFF1F054B064A1B781078834201D398
:103770003F3000E00138C01A704700BF409BFF1F78
:10378000389BFF1F044B1878044B1B78984238BFB6
:103790004030C01A704700BF379BFF1FB69AFF1F0B
:1037A000084B094A19781378994207D001333F2B07
:1037B00088BF00230549C85C137070474FF0FF3085
:1037C000704700BF379BFF1FB69AFF1FF79AFF1F76
:1037D000074B1A78074B1B789A4206D001333F2BD0
:1037E00088BF0023044AD05C70474FF0FF30704719
:1037F000379BFF1FB69AFF1FF79AFF1F094B1B68E5
:103800005B050ED5084BDA7802F0CB02DA70402265
:103810005A74DA7842F03402DA70044B1A78044BA6
:103820001A7070473480044000A00640B69AFF1F0B
:10383000379BFF1F70B52D4B1A7912F0300F1DD03A
:1038400072B6997D21B9DA7940225A7462B615E0D0
:1038500062B6274A27481278274D00781C46531C29
:103860003F2B88BF0023E67983421CBFEE541A46E3
:10387000013911F0FF01F2D11D4B1A701B4AD378A8
:1038800019465BB2002B1BDA1379180618D51B4BAF
:103890001B4C1D781B4B1B78AB4209D001333F2BCF
:1038A00088BF00231079E05CD071107D0728F3D920
:1038B000144A13700D4B1A79120601D57C22DA7066
:1038C00001F04003DBB27BB1084B1A7902F04002F1
:1038D000D2B2194642B10C4B00221A700B4B1B6836
:1038E00003B11A703C23CB7070BD00BF00A006402E
:1038F000379BFF1FB69AFF1FF79AFF1F409BFF1FC2
:10390000B79AFF1F389BFF1FB59AFF1F3C9BFF1FF5
:10391000184B1A6842F400621A60174A00231370A9
:10392000164A1370164A1370164A1370164A13700B
:10393000164B40F213321A604FF451725A60144B16
:10394000C0F344321A70C0F347125A7000F01F00DF
:103950000422022198729A70D9745A7588221A74B6
:103960003C22DA700B4B40221A700B4B4FF4004292
:103970001A60704734800440AB9BFF1F429BFF1FBF
:10398000B49BFF1FAC9BFF1F419BFF1F0CB004406B
:1039900000B006402FE400E004E100E0134A937811
:1039A00000F0030103F0EC030B43410748BF43F071
:1039B0001003937000F00F03042B0C4903D18B7993
:1039C00043F040038B715379C20603F0EF03074ABB
:1039D00048BF43F0100353719379810603F0EF035E
:1039E00048BF43F010039371704700BF00B006401A
:1039F0000E4B1B68180510B503D410BDFFF72AFD48
:103A000000E00B4C2378002BF8D10A4A4FF4004118
:103A10001160094A0949D37040F203120A604A60F2
:103A2000074A1370074A137010BD00BF348004406A
:103A3000419BFF1F84E100E000B006400CB0044051
:103A4000AB9BFF1F429BFF1F38B5094B04461D78F7
:103A5000002DFCD120460121FEF7EEFB2046294631
:103A6000FEF7CAFB034B53F83420034B1A6038BDF2
:103A7000419BFF1F80710000B09BFF1F1D4B1B6807
:103A80001A052DE9F041074631D51B4B1B680BB1D8
:103A900001221A70194B1A4D1C781A4EDFF86880F3
:103AA0000134272C88BF002414E0FEF7D7F9402802
:103AB0000CDC33791B060DD52B780133272B88BFFF
:103AC000002318F80320F2712B7003E0FF2801DDBA
:103AD000FFF7C0FC2B78A342E7D00B4B1F550B4BD5
:103AE00001221A70054B1C70064BBC22DA70BDE82F
:103AF000F08100BF34800440B09BFF1FB49BFF1FC8
:103B0000AC9BFF1F00B00640439BFF1F419BFF1F64
:103B10002DE9F84F254B1B6806461805894642D506
:103B2000234B1B680BB101221A70224DB346AA46E3
:103B300032E0214B1C782F780134272C88BF0024D9
:103B4000A74209D01BF8012B1C4B1A551C4B012214
:103B50001A70194B1C701FE01A4BBC22DA70984681
:103B6000FEF77CF940280FDC98F8043019060FD5D1
:103B70002B78124A0133272B88BF0023D25C88F8A8
:103B800007208AF8003003E0FF2801DDFFF762FC20
:103B90002B78BB42E4D0D5E706EB09039B45C8D39D
:103BA000084BBC22DA70BDE8F88F00BF34800440B7
:103BB000B09BFF1FAC9BFF1FB49BFF1F439BFF1FCE
:103BC000419BFF1F00B0064010B5044C01E0FFF719
:103BD00041FC2378002BFAD110BD00BF419BFF1F91
:103BE000054B064A1B781078834201D3273000E04A
:103BF0000138C01A704700BFB49BFF1FAC9BFF1F6A
:103C0000044B1878044B1B78984238BF4030C01AD8
:103C1000704700BFAB9BFF1F429BFF1F084B094A29
:103C200019781378994207D001333F2B88BF0023BE
:103C30000549C85C137070474FF0FF30704700BFF4
:103C4000AB9BFF1F429BFF1F6B9BFF1F074B1A780D
:103C5000074B1B789A4206D001333F2B88BF0023C5
:103C6000044AD05C70474FF0FF307047AB9BFF1F9A
:103C7000429BFF1F6B9BFF1F094B1B681B050ED54B
:103C8000084BDA7802F0CB02DA7040225A74DA7804
:103C900042F03402DA70044B1A78044B1A70704701
:103CA0003480044000B00640429BFF1FAB9BFF1FC7
:103CB00070B52D4B1A7912F0300F1DD072B6997D68
:103CC00021B9DA7940225A7462B615E062B6274A01
:103CD00027481278274D00781C46531C3F2B88BF7D
:103CE0000023E67983421CBFEE541A46013911F0D5
:103CF000FF01F2D11D4B1A701B4AD37819465BB2F3
:103D0000002B1BDA1379180618D51B4B1B4C1D789A
:103D10001B4B1B78AB4209D00133272B88BF0023F4
:103D20001079E05CD071107D0728F3D9144A137024
:103D30000D4B1A79120601D57C22DA7001F040038E
:103D4000DBB27BB1084B1A7902F04002D2B21946BD
:103D500042B10C4B00221A700B4B1B6803B11A7056
:103D60003C23CB7070BD00BF00B00640AB9BFF1F73
:103D7000429BFF1F6B9BFF1FB49BFF1F439BFF1FBB
:103D8000AC9BFF1F419BFF1FB09BFF1F174B1A6887
:103D900042F480521A60164A00231370154A1370B9
:103DA000154A1370154A1370154A1370154A40F2DC
:103DB000133111604FF451715160134AC0F3443113
:103DC0001170C0F3471100F01F0051709072937092
:103DD00013742C23D3700D4B40226FF44B711A7067
:103DE0005B184FF400321A60704700BF3480044003
:103DF0001F9CFF1FB69BFF1F289CFF1F209CFF1FBF
:103E0000B59BFF1F08C0044000C0064031E400E03D
:103E1000134A937800F0030103F0EC030B434107CE
:103E200048BF43F01003937000F00F03042B0C49BC
:103E300003D18B7943F040038B715379C20603F0B1
:103E4000EF03074A48BF43F010035371937980068C
:103E500003F0EF0348BF43F010039371704700BFB6
:103E600000C006400E4B1B68D80410B503D410BD2B
:103E7000FFF7F0FA00E00B4C2378002BF8D10A4A48
:103E80004FF400311160094A0949D37040F203121E
:103E90000A604A60074A1370074A137010BD00BFDA
:103EA00034800440B59BFF1F84E100E000C0064061
:103EB00008C004401F9CFF1FB69BFF1F38B5094B6D
:103EC00004461D78002DFCD120460121FEF7B4F9EF
:103ED00020462946FEF790F9034B53F83420034B54
:103EE0001A6038BDB59BFF1F80710000249CFF1F26
:103EF0001D4B1B68DA042DE9F041074631D51B4BF9
:103F00001B680BB101221A70194B1A4D1C781A4EFE
:103F1000DFF868800134272C88BF002414E0FDF707
:103F20009DFF40280CDC33791B060DD52B7801331F
:103F3000272B88BF002318F80320F2712B7003E0B1
:103F4000FF2801DDFFF786FA2B78A342E7D00B4B61
:103F50001F550B4B01221A70054B1C70064BAC22EF
:103F6000DA70BDE8F08100BF34800440249CFF1F5C
:103F7000289CFF1F209CFF1F00C00640B79BFF1F0F
:103F8000B59BFF1F38B54518044603E014F8010B34
:103F9000FFF7AEFFAC42F9D138BDFFFF10B5044CBE
:103FA00001E0FFF757FA2378002BFAD110BD00BFCC
:103FB000B59BFF1F054B064A1B781078834201D33F
:103FC000273000E00138C01A704700BF289CFF1F4F
:103FD000209CFF1F044B1878044B1B78984238BF75
:103FE0004030C01A704700BF1F9CFF1FB69BFF1FC9
:103FF000084B094A19781378994207D001333F2BAF
:1040000088BF00230549C85C137070474FF0FF302C
:10401000704700BF1F9CFF1FB69BFF1FDF9BFF1F4A
:10402000074B1A78074B1B789A4206D001333F2B77
:1040300088BF0023044AD05C70474FF0FF307047C0
:104040001F9CFF1FB69BFF1FDF9BFF1F024B1A78B1
:10405000024B1A70704700BFB69BFF1F1F9CFF1FCB
:1040600010B5214B1A7902F02002D2B26AB11F4A70
:10407000D8791F491378097801333F2B88BF002373
:104080008B4202D01B49C8541370174AD378184684
:104090005BB2002B13DA1379190610D5164B1749AA
:1040A0001C780B789C4202D16C23D37007E001335B
:1040B000272B88BF0023124CE45CD4710B7000F0F6
:1040C0004003DBB27BB1084B1A7902F04002D2B256
:1040D000194642B10B4B00221A700B4B1B6803B1FF
:1040E0001A702C23CB7010BD00C006401F9CFF1F10
:1040F000B69BFF1FDF9BFF1F289CFF1F209CFF1FFD
:10410000B79BFF1FB59BFF1F249CFF1F1FB572B6F7
:10411000154B70221A70154A412111700F2102F8B7
:10412000011C80221A701A781206FCD5104B1868F0
:1041300062B6104B984201D80A23584301A90A22BB
:10414000FDF7B2FE0C48002301AA9A5C2AB100EBED
:10415000430101330A2B4A80F6D10133064A5B0042
:10416000137005B000BD00BF000002400700024010
:10417000080002407F9698000090FF1F08B5036872
:10418000C9B21B68984708BD08B50368C9B21B6867
:10419000984708BD08B50368C9B21B68984708BDB1
:1041A00008B50368C9B21B68984708BD084608B53A
:1041B000FFF726FA012008BD084608B5FFF720FAE8
:1041C000012008BD38B508460D46FDF765FE0446DA
:1041D00021462846FFF75EFA204638BD10B508464E
:1041E00014461146FFF756FA204610BDFFF7BABA3B
:1041F000FFF704BBFFF7AABAFFF7D2BAFFF7E8BA96
:10420000FFF7C0BA0846FFF7E1B9FFF7B3B94808AE
:1042100000F1376000F5D830B0FBF1F0FFF73AB9A4
:10422000480800F1376010B500F5D830B0FBF1F068
:104230001446FFF72FF92046BDE81040FFF770B98C
:104240007047FFFF044B00221A711A73034A4FF4A0
:104250007A7199601A6070472C9CFF1F18730000D8
:1042600008B50368C9B21B68984708BD08B503685C
:10427000C9B21B68984708BD08B50368C9B21B6876
:10428000984708BD08B50368C9B21B68984708BDC0
:10429000084608B5FFF7F2FB012008BD084608B53F
:1042A000FFF7ECFB012008BD38B508460D46FDF7C9
:1042B000F3FD044621462846FFF72AFC204638BD78
:1042C00010B5084614461146FFF722FC204610BDE3
:1042D000FFF786BCFFF7D0BCFFF776BCFFF79EBCAC
:1042E000FFF7B4BCFFF78CBC0846FFF7ADBBFFF788
:1042F0007FBB480800F1376000F5D830B0FBF1F023
:10430000FFF706BB480800F1376010B500F5D8305C
:10431000B0FBF1F01446FFF7FBFA2046BDE8104071
:10432000FFF73CBB7047FFFF044B00221A711A7362
:10433000034A4FF47A7199601A6070473C9CFF1FE2
:104340006873000008B50368C9B21B68984708BDC8
:1043500008B50368C9B21B68984708BD08B503686B
:10436000C9B21B68984708BD08B50368C9B21B6885
:10437000984708BD084608B5FFF7BAFD012008BDFB
:10438000084608B5FFF7B4FD012008BD38B508465A
:104390000D46FDF781FD044621462846FFF7F2FD54
:1043A000204638BD10B5084614461146FFF7EAFD11
:1043B000204610BDFFF7FEBDFFF748BEFFF7EEBD7C
:1043C000FFF716BEFFF72CBEFFF704BE0846FFF747
:1043D00075BDFFF747BD480800F1B76000F55840CC
:1043E000B0FBF1F0FFF7D2BC480800F1B76010B5A0
:1043F00000F55840B0FBF1F01446FFF7C7FC20462B
:10440000BDE81040FFF704BD7047FFFF044B0022DA
:104410001A711A73034A4FF47A7199601A607047DF
:104420004C9CFF1FB87300002DE9F04F8BB01F4666
:1044300080468946164600F093F949F2160BC1F6FC
:10444000FF7B9BF90030013304460D4604D0304613
:10445000394600F0F5FF20B9204629460BB0BDE8EB
:10446000F08F4046494600F0EBFF824620BB3046C5
:1044700039460022002301F059FD0028ECD09BF9B9
:10448000001047F200430122C0F200038DE80C0047
:1044900000220023B1F1FF3F18BF0229C3F6F073D9
:1044A000CDF820A0CDE90289CDE90467CDE9062346
:1044B0002DD1DDE90645CFE74046494600220023DD
:1044C00001F034FD00282FD0304639460022002369
:1044D00001F02CFD002861D09BF9002047F2004339
:1044E000C0F20003012100208DE80A00CDE9028915
:1044F000002300210893CDE90467CDE9060132B11C
:1045000000230022C3F6F073CDE90623D1E7684605
:1045100000F0BEFF002870D0089B002BC9D001F02E
:1045200013FF089B0360C4E72046294600F082FF82
:104530008246002866D0204629460022002301F04A
:10454000F5FC002888D04046494600F073FF00285B
:1045500082D03046394600F06DFF00283FF47CAF32
:104560009BF9002047F200430421C0F20003002021
:104570008DE80A0000230021022A0893CDE9028970
:10458000CDE90467CDE9060169D0684600F080FFF7
:10459000002864D0089B002B8BD0C0E730463946FA
:1045A00000F048FF00283FF457AF3046394600225C
:1045B000002301F0C5FC00283FF44EAF9BF800102B
:1045C00047F20043C0F200030122CDE902898DE8E1
:1045D0000C000023CDE90467002208930023002982
:1045E00036D1CDE90623684600F052FF0028D1D12C
:1045F00001F0AAFE21230360CCE701F0A5FE2123F0
:10460000036089E74046494600F014FF002892D035
:104610003046394600F00EFF00288CD0204629464F
:1046200000F00EFF00BB9BF8004047F20043C0F2D1
:1046300000030122089000218DE80C000020CDE944
:104640000289CDE90467002C63D1CDE90601CAE7F0
:104650000229CFF6F073CDE90623C9D0C3E701F0F4
:1046600073FE2223036095E79BF9001047F2004296
:104670000320C0F20002CDF820A08DE805004046DE
:10468000CDE90289CDE90467E9B94FF6FF754946DE
:10469000002200234FF06044C4F2EF75CDE90645D7
:1046A00001F04EFC00283ED19BF90030022B05D0D2
:1046B000684600F0EDFE00287FF42EAF01F044FEC6
:1046C0002223036028E70025494600220023002416
:1046D000C7F6F075CDE9064501F032FC0028E3D0BD
:1046E00000230022C3F6E0733046394601F0B6F9E4
:1046F00004460D4600F0D4FE22462B4601F016FC7F
:104700000028D1D100230022CFF6F073CDE9062393
:10471000CAE702460B4601F0CBFA022CCDE90601AE
:104720003FF466AF5FE700230022C3F6E073304634
:10473000394601F093F904460D4600F0B1FE2246D9
:104740002B4601F0F3FB0028AED14FF6FF734FF07C
:104750006042CCF2EF73CDE90623A5E7FFFFFFFF30
:104760002DE9F04F91B023F000478B460D460491A0
:1047700057EA0201914682461E4604469446804608
:1047800000F08E8000212BF00040C7F6F0710290FF
:10479000884211DD029901F1404909F5801959EA71
:1047A000080840F082800026C146C3F6F0764846ED
:1047B000314611B0BDE8F08F14BF002001200690F3
:1047C000BAF1000F0CBF002000F001000028E1D179
:1047D0008F42DFDC14BF00200120002A0CBF002123
:1047E00000F001010029D5D1049A5C461D46002A3B
:1047F00064DB0E91BCF1000F14D1002840F08280E0
:104800000023C3F6F0739F4200F0B880B5F1804FEB
:1048100004BF504659463CD00023C3F6E0739D4286
:1048200000F0C0835046594600F000FE8C46B8F1B7
:10483000000F0BD1069B0299002908BF43F001032A
:10484000002B76D1C3F6F073994272D0049B0E9977
:104850004FEAD37808F1FF3851EA080100F0898067
:104860000023C4F2E0139F4240F3A6800023C4F269
:10487000F0339F4240F330844FF6FF73029AC3F641
:10488000EF739A4240F39E83002D4EDD48A1D1E99B
:10489000000102460B4601F0E1F881460E4686E72C
:1048A00000268946C3F6F07681E747F23840C0F229
:1048B000000011B0BDE8F04F00F0ECBD4FF6FF7303
:1048C000C4F23F339F426ADC4FF6FF73C3F6EF73C7
:1048D0009F428EDD3B1540F21342934240F38B849E
:1048E000C3F5866303332CFA03F202FA03F363453C
:1048F00002BF02F00103C3F102030E933FF47AAF4B
:10490000002176E7029A02F1404303F5801353EA4F
:10491000080300F051834FF6FF73C3F6EF739A421A
:1049200040F3B283002DBFF642AF4FF000094E4670
:104930003DE7002DA8BF6646C0F24284002CA8BF08
:104940008146BFF634AF029A0E9902F1404303F557
:104950008013194340F05F84804602463346314657
:1049600000F0C8FE02460B4601F0A2F981460E4651
:104970001DE75046594652465B46F1E7002DA4BF5D
:10498000D1465E46BFF613AF002152460020C3F663
:10499000F0715B4601F08CF981460E4607E7022371
:1049A0000E93BCF1000F3FF428AF3BE7AFF300805C
:1049B0009C7500883CE4377E029B0021B3F5801F84
:1049C0000BDA002361460022C4F2403301F046F8BE
:1049D0008C466FF03401CDF808C0029A002522F011
:1049E0007F43141549F68E0223F47003C0F20302CC
:1049F000934243F07F57A4F2FF340C440F9447F4E2
:104A000040142F460FDD4BF279620127C0F20B02F2
:104A10004FF48025934206DD00250F9BA4F58014FA
:104A20002F4601330F9347F208410246C0F20001BE
:104A3000234601EBC707CDE90823D7E90001CDE9FB
:104A40000A0110462146DDE90A2300F053FEDDE9A4
:104A50000A2382468B46DDE9080100F04DFE0B4635
:104A600000210246C3F6F071002001F021F9CDE9E2
:104A70000C015046DDE90C23594600F0EFFFCDE96B
:104A800006016110DDE9062341F00051002001F527
:104A90000021CDE904236B1804900022DDE9040114
:104AA00014461D46CDE9020100F0D8FF02460B4630
:104AB0005046594600F01EFEDDE90A2382468B4629
:104AC0002046294600F016FE02460B46DDE90801A5
:104AD00000F010FE02460B46DDE9020100F0BEFFC9
:104AE00002460B465046594600F004FEDDE90C2311
:104AF00000F0B4FF82468B46DDE9060102460B4614
:104B000000F0ACFF02460B4604460D4600F0A6FF3F
:104B1000A3A3D3E90023CDE908012046294600F0EC
:104B20009DFFA1A3D3E9002300F0E6FD22462B461A
:104B300000F094FF9EA3D3E9002300F0DDFD2246A0
:104B40002B4600F08BFF9CA3D3E9002300F0D4FD9B
:104B500022462B4600F082FF99A3D3E9002300F000
:104B6000CBFD22462B4600F079FF97A3D3E9002323
:104B700000F0C2FD02460B46DDE9080100F06EFFC1
:104B8000DDE9062304460D46DDE9020100F0B4FD2F
:104B900052465B4600F062FF22462B4600F0ACFD19
:104BA000CDE90801DDE9020102460B4600F056FF9F
:104BB00000220023C4F20803CDE90A0100F09CFDA5
:104BC000DDE9082300F098FD0D4604992B460C46BC
:104BD000DDE90201224600F041FF22462B46CDE9E5
:104BE00002015046594600F039FF00230022C4F26A
:104BF000080382468B462046294600F07BFDDDE90E
:104C00000A2300F077FD02460B46DDE9080100F0BB
:104C100071FDDDE9062300F021FF02460B465046F8
:104C2000594600F069FD82468B4652465B46DDE9F7
:104C3000020100F061FD049A104665A3D3E9002348
:104C400004460D4600F00AFF63A3D3E90023CDE933
:104C500006012046294600F001FFDDE90223CDE9E7
:104C600008012046294600F045FD02460B46504605
:104C7000594600F03FFD5AA3D3E9002300F0EEFEB1
:104C800002460B46DDE9080100F036FDD7E90423B2
:104C900000F032FD82460F988B4600F079FE5246B6
:104CA0005B4604460D46D7E90801CDE90201DDE97E
:104CB000060100F021FDDDE9022300F01DFD224682
:104CC0002B4600F019FD049A2B4610462246044656
:104CD0000D4600F00FFDDDE9022300F00BFDDDE9DC
:104CE000062300F007FD02460B465046594600F0E9
:104CF00001FD82468B460E98431E53EA080340F09E
:104D0000BC8100230022CBF6F073CDE904233346A7
:104D1000002231464846CDE9022300F0EBFC224652
:104D20002B4600F09BFE52465B46CDE9060131461C
:104D3000484600F093FE02460B46DDE9060100F00E
:104D4000DBFC22462B4682468B46DDE9020100F061
:104D500085FE04460D465046594622462B4600F035
:104D6000CBFC4FF6FF7CC4F28F0C614506460F4624
:104D7000884640F32B8101F13F4303F5E0030343F1
:104D800040F0298218A3D3E900235046594627F062
:104D9000004900F0B1FC22462B46CDE9020127E094
:104DA000EF4E454A287ECA3F65DBC9934A86CD3F10
:104DB00001411DA96074D13F4D268F515555D53FF6
:104DC000FFAB6FDBB66DDB3F033333333333E33F8E
:104DD000000000E009C7EE3FF5015B14E02F3EBE86
:104DE000FD033ADC09C7EE3FFE822B654715973C71
:104DF0003046394600F07EFC02460B46DDE90201F2
:104E000001F0BCF8002840F0E6810023C3F6E0730F
:104E10009945DCBF4FF0000CCDF808C000F3F480DA
:104E200000269DA3D3E9002330463946CDF804C0BF
:104E300000F014FE22462B4680468946304639460D
:104E400000F058FC02460B465046594600F052FC12
:104E500093A3D3E9002300F001FE93A3D3E9002339
:104E600004460D463046394600F0F8FD02460B4632
:104E70002046294600F040FC04460D4622462B46BB
:104E80004046494600F038FC42464B4682468B4637
:104E900000F030FC02460B462046294600F02AFC72
:104EA00052465B46804689465046594600F0D6FD3C
:104EB0007FA3D3E9002304460D4600F0CFFD7EA377
:104EC000D3E9002300F016FC22462B4600F0C6FD75
:104ED0007BA3D3E9002300F00FFC22462B4600F011
:104EE000BDFD79A3D3E9002300F004FC22462B4644
:104EF00000F0B4FD76A3D3E9002300F0FDFB2246C9
:104F00002B4600F0ABFD02460B465046594600F0DA
:104F1000F1FB04460D4622462B465046594600F00A
:104F20009DFD00224FF0804306460F46204629464D
:104F300000F0E0FB02460B463046394600F0B8FE72
:104F400042464B4604460D465046594600F086FD03
:104F500042464B4600F0D0FB02460B46204629460F
:104F600000F0C8FB52465B4600F0C4FB0B46002134
:104F70000246C3F6F071002000F0BCFBDDF804C06F
:104F80000CEB01040B46B4F5801F02460D46A8BF8A
:104F90002346C0F25E81DDE9040100F05FFD814639
:104FA0000E4604E4002CFFF63DAC5046594611B0C5
:104FB000BDE8F04F00F074B900269946C3F6F076CC
:104FC000FFF7F5BB002DBFF6B0AC5FE44CF6FF3346
:104FD00021F00049C4F2900399457FF716AF4FF4D2
:104FE0005053C3F66F73CB18034340F01A81224627
:104FF0002B4600F07FFB02460B465046594600F018
:10500000A9FF002840F00D814FEA29534FF4801189
:10501000A3F2FE334FF6FF7641FA03F1C0F20F061A
:105020004144002221F07F47C1F30A5027F4700762
:10503000A0F2FF3E47F48017C0F58260B8F1000F80
:1050400046FA0EF600F1030C21EA060347FA0CFCBF
:10505000CDF808C0C0F2F9802046294600F04AFB8E
:1050600004460D462246504659462B4600F044FB66
:10507000029A4FEA025C0F46D2E600210020C3F6F6
:10508000F071CDE9040142E6002DBFF64EAC06F109
:105090000046FFF78CBB00BF00000000432EE63F38
:1050A000EF39FAFE422EE63F396CA80C615C20BE57
:1050B000D0A4BE726937663EF16BD2C541BDBB3E1E
:1050C0002CDE25AF6A56113F93BDBE166CC1663FFC
:1050D0003E5555555555C53F4FF6FE730299C3F6DB
:1050E000EF7399427FF76EAF0023029AC3F6F07315
:1050F0009A423FF7C9AB002361460022C3F6F07322
:1051000000F0F8FA5AA3D3E9002304460D4600F054
:10511000A5FC59A3D3E9002382468B4620462946A5
:1051200000F09CFC22462B46CDE902012046294690
:1051300000F094FC00230022C3F6D073CDE90401F3
:105140002046294600F08AFC02460B464CA1D1E9D4
:10515000000100F0CFFA22462B4600F07FFC0B4600
:1051600000210246C3F6E071002000F0C3FA0246B7
:105170000B46DDE9040100F071FC43A3D3E90023F1
:1051800000F06CFC02460B46DDE9020100F0B2FAC9
:10519000CDE902015046DDE90223594600F0ACFAA0
:1051A00052465B46002004460D4600F0A3FA024634
:1051B0000B46DDE9020100F09DFA82468B469AE536
:1051C00000210246C3F6F0710020634600F070FD36
:1051D0000E46FFF7B3BB2EA3D3E90023DDE904019C
:1051E00000F03CFC2AA3D3E9002300F037FC814601
:1051F0000E46FFF7DCBABCF1000F22D1C3F5826383
:10520000DA1C47FA02F303FA02F2BA4227D000236B
:105210000E93FFF7F2BA0E9A8146012A7FF4C7AACD
:1052200035E71DA3D3E90023DDE9040100F016FCF6
:1052300019A3D3E9002300F011FC81460E46FFF7C5
:10524000B6BA00230E93FFF7EDBA614649420291C8
:1052500002E7029A00F0BCF902460B469BE603F017
:105260000103C3F102030E93FFF7C7BAAFF3008047
:10527000000000604715F73F44DF5DF80BAE543E79
:10528000555555555555D53FFE822B654715F73F6A
:105290009C7500883CE4377E59F3F8C21F6EA50167
:1052A0002DE9F8430027B946C7F6F077C7F6F0793D
:1052B0000F404F4504460D4602460B460E468046BB
:1052C00000F09980002977DD0F1500F0828026F02C
:1052D0007F43A7F2FF3723F47003FA0743F48013E8
:1052E00044BF4FEAD8724FEA48084FF0000C48BF5D
:1052F00002EB430360464FEAD8727F1002EB430390
:1053000016244FEA48024FF400114518D60F9D426B
:105310004FEA4202DEBFC5EB030368188C4449081C
:10532000013C06EB4303F0D12026A0464FF000419C
:105330000EE081461B1A954288BF013B521B641840
:105340004846D50F49085200013E05EB430315D0EE
:10535000984201EB080503DB954298BF8342F0D1E8
:1053600005F0004905EB0108B9F1004FE1D1B8F1B2
:10537000000FA8BF00F10109DCDADAE7134312D10C
:1053800066084FEA6C031CF0010F03F17F5318BF4E
:1053900046F0004603F50013344603EB075520465C
:1053A0002946BDE8F883631C08BF0CF1010CE8D066
:1053B00004F001031C19E3E721F000460643EED098
:1053C00041BB0F464FEAD826153F4FEA4858002EFA
:1053D000F8D016F4801319D176000133F102FBD511
:1053E000C3F10101C3F1200228FA02F27F1816432B
:1053F00008FA03F86BE700F031FB02460B46204643
:10540000294600F079F904460D46C8E7202201211B
:105410000023E9E702460B4600F06CF902460B4612
:1054200000F046FC04460D46B9E700BF21F00041FC
:10543000704700BF41F0004101F58010C00F704778
:1054400050EA010201D102207047D0F1010238BFB9
:105450000022B1F1004F08BF0028F4D021F0004332
:105460004FF6FF71A3F58010C7F6DF71884201D8AF
:1054700004207047B3F5801F01D20320704700203D
:10548000C7F6F070834214BF002002F0010070479D
:105490000020704700210020C7F6F871704700BF58
:1054A000C1F30A5C02462DE9F041ACF2FF36CD0FA4
:1054B000132E82B00B4604460F4688463ADC002E77
:1054C00056DB4FF6FF71C0F20F0141FA06F101EA17
:1054D0000300104329D049080B4053EA02040CD0C2
:1054E0004FF4802327EA0108132E0CBF4FF000442D
:1054F000002443FA06F648EA060847F240412246ED
:10550000C0F20001434601EBC505D5E90045204640
:10551000294600F0F1F822462B46CDE90001DDE9ED
:10552000000100F0E7F802460B461046194602B0AB
:10553000BDE8F081332E07DDB6F5806FF5D100F0C0
:10554000DBF802460B46F0E74FF0FF31ACF2134CAC
:1055500021FA0CF10142E8D0490801421FBF4FF087
:10556000804320EA010443FA0CFC44EA0C04C4E73B
:1055700021F000410143D8D023F07F4047F2404161
:1055800020F47000C0F2000140EA020401EBC50102
:1055900060424FEA534E0443D1E90067240B304682
:1055A00004F40024394644EA4E4300F0A5F832469C
:1055B0003B46CDE90001DDE9000100F09BF80F4614
:1055C00021F000410646024641EAC573ADE700BF3F
:1055D000C1F30A532DE9F04104460D4690460646B4
:1055E0000F46C3B921F0004C5CEA000C29D000231F
:1055F0000022C4F2503300F031FA43F6B043CFF644
:10560000FF73984504460D4606460F462BDBC1F353
:105610000A53363B05E040F2FF72934218BF094639
:1056200036D0434440F2FE729342C4BF22462B461A
:1056300021DC002B09DD21F0FF4121F4E00141EAEA
:10564000035520462946BDE8F08113F1350F26DACF
:105650004CF25033224698452B460CDC1AA1D1E976
:10566000000100F039F818A3D3E9002300F0F6F99F
:1056700004460D46E5E716A1D1E9000100F02CF83B
:1056800013A3D3E9002300F0E9F904460D46D8E757
:105690002B46024600F030F804460D46D1E736337B
:1056A00021F0FF4121F4E001204641EA03550023A7
:1056B00029460022C3F6904300F0D0F904460D4677
:1056C000BFE700BFAFF3008059F3F8C21F6EA5011A
:1056D0009C7500883CE4377E10B421F0004203F052
:1056E000004444EA020110BC704700BF81F0004151
:1056F00002E000BF83F0004330B54FEA41044FEAB7
:10570000430594EA050F08BF90EA020F1FBF54EA51
:10571000000C55EA020C7FEA645C7FEA655C00F0ED
:10572000E2804FEA5454D4EB5555B8BF6D420CDDBE
:105730002C4480EA020281EA030382EA000083EA41
:10574000010180EA020281EA0303362D88BF30BDE1
:1057500011F0004F4FEA01314FF4801C4CEA113137
:1057600002D0404261EB410113F0004F4FEA033396
:105770004CEA133302D0524263EB430394EA050F21
:1057800000F0A780A4F10104D5F1200E0DDB02FA90
:105790000EFC22FA05F2801841F1000103FA0EF224
:1057A000801843FA05F359410EE0A5F120050EF1EA
:1057B000200E012A03FA0EFC28BF4CF0020C43FA1B
:1057C00005F3C01851EBE37101F0004507D54FF028
:1057D000000EDCF1000C7EEB00006EEB0101B1F578
:1057E000801F1BD3B1F5001F0CD349085FEA3000BE
:1057F0004FEA3C0C04F101044FEA445212F5800FC9
:1058000080F09A80BCF1004F08BF5FEA500C50F165
:10581000000041EB045141EA050130BD5FEA4C0C48
:10582000404141EB010111F4801FA4F10104E9D1D1
:1058300091F0000F04BF01460020B1FA81F308BFC8
:105840002033A3F10B03B3F120020CDA0C3208DD94
:1058500002F1140CC2F10C0201FA0CF021FA02F16F
:105860000CE002F11402D8BFC2F1200C01FA02F1DF
:1058700020FA0CFCDCBF41EA0C019040E41AA2BF04
:1058800001EB0451294330BD6FEA04041F3C1CDACC
:105890000C340EDC04F11404C4F1200220FA04F0EC
:1058A00001FA02F340EA030021FA04F345EA030196
:1058B00030BDC4F10C04C4F1200220FA02F001FA58
:1058C00004F340EA0300294630BD21FA04F02946DA
:1058D00030BD94F0000F83F4801306BF81F4801173
:1058E0000134013D4EE77FEA645C18BF7FEA655CE6
:1058F00029D094EA050F08BF90EA020F05D054EAB8
:10590000000C04BF1946104630BD91EA030F1EBFBC
:105910000021002030BD5FEA545C05D140004941C0
:1059200028BF41F0004130BD14F580043CBF01F5B3
:10593000801130BD01F0004545F0FE4141F4700199
:105940004FF0000030BD7FEA645C1ABF1946104674
:105950007FEA655C1CBF0B46024650EA013406BF75
:1059600052EA033591EA030F41F4002130BD00BF34
:1059700090F0000F04BF0021704730B54FF48064F1
:1059800004F132044FF000054FF0000150E700BF72
:1059900090F0000F04BF0021704730B54FF48064D1
:1059A00004F1320410F0004548BF40424FF00001BE
:1059B0003EE700BF42004FEAE2014FEA31014FEA01
:1059C00002701FBF12F07F4393F07F4F81F0605150
:1059D000704792F0000F14BF93F07F4F704730B5BF
:1059E0004FF4607401F0004521F0004120E700BF52
:1059F00050EA010208BF704730B54FF000050AE0D9
:105A000050EA010208BF704730B511F0004502D5D9
:105A1000404261EB41014FF4806404F132045FEADB
:105A2000915C3FF4DCAE4FF003025FEADC0C18BF80
:105A300003325FEADC0C18BF033202EBDC02C2F176
:105A4000200300FA03FC20FA02F001FA03FE40EA08
:105A50000E0021FA02F11444C1E600BF70B54FF008
:105A6000FF0C4CF4E06C1CEA11541DBF1CEA1355EA
:105A700094EA0C0F95EA0C0F00F0DEF82C4481EA52
:105A8000030621EA4C5123EA4C5350EA013518BF72
:105A900052EA033541F4801143F4801338D0A0FB5F
:105AA00002CE4FF00005E1FB02E506F00042E0FB0C
:105AB00003E54FF00006E1FB03569CF0000F18BF12
:105AC0004EF0010EA4F1FF04B6F5007F64F54074BA
:105AD00004D25FEA4E0E6D4146EB060642EAC6214D
