:1000000000800020BD010000F53C0000F53C000030
:10001000F53C0000F53C0000F53C0000C13C000050
:10002000C13C0000C13C0000C13C0000F53C0000A8
:10003000F53C0000C13C0000F53C0000B13C000074
:10004000F53C0000F53C0000F53C0000F53C0000EC
:10005000F53C0000F53C0000F53C0000F53C0000DC
:10006000F53C0000F53C0000F53C0000F53C0000CC
:10007000F53C0000F53C0000F53C0000F53C0000BC
:10008000F53C0000F53C0000F53C0000F53C0000AC
:10009000F53C0000F53C0000F53C0000F53C00009C
:1000A0001D380000F53C0000F53C0000F53C000068
:1000B000F53C0000F53C0000F53C0000F53C00007C
:1000C000F53C0000F53C0000F53C0000F53C00006C
:1000D000F53C0000F53C0000F53C0000F53C00005C
:1000E000F53C0000F53C0000F53C0000F53C00004C
:1000F000F53C000029580000F53C0000A55C00001C
:10010000F53C000055600000F53C0000F53C0000A7
:10011000F53C0000F53C0000F53C0000F53C00001B
:10012000F53C0000F53C0000F53C0000F53C00000B
:10013000F53C0000F53C0000F53C0000F53C0000FB
:10014000F53C0000F53C0000F53C0000F53C0000EB
:10015000F53C0000F53C0000F53C0000F53C0000DB
:10016000F53C0000F1430000F53C0000F53C0000C8
:10017000F53C0000F53C0000F53C0000F53C0000BB
:10018000F53C0000F53C0000F53C0000F53C0000AB
:10019000F53C0000F53C0000F53C0000753E000019
:1001A000C53E00004D3F0000094000008D400000AA
:1001B000F53C0000F53C0000794F0000544B4CF238
:1001C000205210B51A804DF628121A8000BF00BFC9
:1001D00003F094FD4F4B4FF010621A604E4A9A6044
:1001E0004E4ADA604E4B1A6812F4807204D14D49BF
:1001F0000A604FF4A8521A604B4B1A7802F00802BA
:10020000D2B21AB11A7842F008021A70474B484825
:10021000484C2A221A700023474A02E01959995083
:10022000043399188142F9D3444B454A002101E037
:1002300043F8041B9342FBD34249434800231A5816
:100240005A500433B3F5DE7FF9D1404B404A802148
:1002500003F8011B9342FBD13A4A3E4B1A603E4BD6
:100260000A221A703D4B24221A70A02203F8012C96
:100270003B4A137803F00203DBB2002BF9D0384A73
:10028000137803F01003DBB2002BF9D1344A137852
:1002900003F00C03082BFAD1324B03221A704022D0
:1002A0005A702F4A137803F02003DBB2002BF9D0E9
:1002B0002B4A137803F04003DBB2002BF9D02A4B12
:1002C0002A4A1A6002225A60294B20221A70244AB4
:1002D000137803F00C030C2BFAD1264A264B1A6034
:1002E000264B274A1A60072243F8042C62B603F013
:1002F00071FF0C4B1B68DC0702D5224803F0DEFEC1
:1003000008F014F803F000FD04F0E2FEFEE700BF81
:100310000E20054030800440823F04000100002B85
:1003200010D0034014D0034002D0074000E0074043
:100330005495FF1F6CA30000608FFF1F5495FF1F93
:100340001C470020008AFF1F0000000000E400E0BE
:100350005FE400E008ED00E0005006400140064088
:10036000064006400440064044800440000003016B
:1003700000400640C01005000480044014E000E086
:10038000FF7601002BDBB254FFFFFFFFFFFFFFFFF3
:10039000FFFFFFFFFFFFFFFFFFFFFFFFFFFFFFFF6D
:1003A000FFFFFFFFFFFFFFFFFFFFFFFFFFFFFFFF5D
:1003B000FFFFFFFFFFFFFFFFFFFFFFFFFFFFFFFF4D
:1003C000FFFFFFFFFFFFFFFFFFFFFFFFFFFFFFFF3D
:1003D000FFFFFFFFFFFFFFFFFFFFFFFFFFFFFFFF2D
:1003E000FFFFFFFFFFFFFFFFFFFFFFFFFFFFFFFF1D
:1003F000FFFFFFFFFFFFFFFFFFFFFFFFFFFFFFFF0D
:10040000FFFFFFFFFFFFFFFFFFFFFFFFFEFFFFFFFD
:1004100008B549F25450074BC1F6FF701B1A062B62
:1004200000D808BD40F20003C0F20003002BF8D052
:100430009847F6E75795FF1F08B549F2545049F21F
:100440005453C1F6FF70C1F6FF731B1A9B1003EBE8
:10045000D373591000D108BD40F20002C0F200026F
:10046000002AF8D09047F6E710B549F25454C1F687
:10047000FF74237873B9FFF7CBFF40F20003C0F29B
:1004800000032BB14AF26C30C0F20000AFF30080E1
:100490000123237010BD00BF08B540F20003C0F275
:1004A00000034BB14AF26C3049F25851C0F20000DF
:1004B000C1F6FF71AFF3008049F25450C1F6FF70EE
:1004C00003682BB140F20003C0F2000303B1984768
:1004D000BDE80840FFF7B0BF044A10B5044640F835
:1004E0001C2B01F0E7FC204610BD00BF989D0000CA
:1004F00038B5054CA4F596452046103C04F07AFE2C
:10050000AC42F9D138BD00BFF4F4FF1F38B5054C3B
:10051000A4F596452046103C04F06CFEAC42F9D19F
:1005200038BD00BF2040002038B5044608460D46BF
:1005300003F014FC236802465B682046294698476E
:1005400038BD08B5FFF7F0FF08BD38B50446FFF722
:10055000EBFF0546204604F0D5FD281838BD38B518
:100560000A220023044604F0DBFD0546204604F081
:10057000C9FD281838BD38B5044604F009FE054603
:10058000204604F0BFFD281838BDFFFF034B82B0A2
:100590001B680193019B036002B07047F443002085
:1005A000044B00681B6882B00193019B181A02B0CB
:1005B000704700BFF4430020044B82B01B680193D6
:1005C000019B591A016002B0704700BFF44300203C
:1005D0000F4B41720360002302610372C36019462E
:1005E00003E0026942F823100133427A9342F8DBB8
:1005F000084A136813B9106004E013465A69002AC8
:10060000FBD15861002343618380C380704700BFE2
:10061000E8990000EC4400202DE9F0479CB08046AA
:1006200089460DF149070CA84146012201F022FE3E
:100630000CA801F084FC002800F0A0800CA801F0B8
:100640003FFC0146684604F016FE68464E4904F039
:10065000C8FE00283CD04D4908A804F00CFE6846AE
:1006600008A904F0B5FE044608A804F0C3FD7CBB4D
:100670004748484D04F0E3FE474B1A689042C8BF14
:1006800018604B260446464355F82000434B30186B
:1006900003EB001A0CA801F013FC0146504604F0CD
:1006A00010FE55F824A00CA801F026FCB2443C4BE7
:1006B000374943F82A0055F824003A4B301803EB29
:1006C000001004F0EBFD55F82430013345F82430D8
:1006D0000CA801F0F7FB002846D0334904A804F029
:1006E000CAFD684604A904F073FE78B908A82F492A
:1006F00004F0C1FD684608A904F06AFED0F10104C7
:1007000008A838BF002404F075FD00E0002404A808
:1007100004F070FD44B30CA801F0D2FB01461C4864
:1007200004F0CFFD9DF834308DF854300E9B1693B5
:100730009DF83C308DF85C301D4B0DF13D0214935B
:100740000DF15D0352F8041BBA4243F8041BF9D1C2
:100750003A781A70139B14A809F101011B93FFF753
:100760005BFF14A801F0A6FB0CA801F0DCFB6846B7
:1007700004F040FD0CA801F09DFB54E70CA801F02B
:1007800099FB1CB0BDE8F08758A9FF1FF099000045
:100790002CA9FF1FC0A9FF1F68A9FF1F30F5FF1F6D
:1007A0004896FF1F04AAFF1FF2990000F899000065
:1007B000689E000030B504468BB00A220D4601A8A1
:1007C000214604F08EFD01A80B4904F0B5FD4B2332
:1007D0000A4903FB045401EB041101A804F0A7FD2E
:1007E00001A805A91122002304F011FE01A804F0BC
:1007F00001FD05A80BB030BDFE99000030F5FF1FCC
:1008000008B54FF4FA7003F0CFFC024A024B1A60AD
:1008100008BD00BF0400FA050CED00E010B50E4C59
:100820000E492046FFF78DFE0D4B2046196804F057
:10083000AFFC20460B49FFF784FE0B4B204619689E
:1008400004F0A6FC20460949FFF77BFE084B204632
:100850001968FFF77AFE10BD1C450020029A0000BF
:10086000D495FF1F089A000054A9FF1F129A000098
:1008700008A9FF1F10B50446C4F3C001062003F009
:100880002DFC0520C4F3800103F028FC0420C4F3F0
:10089000400103F023FC032004F00101BDE81040F7
:1008A00003F01CBCFFFFFFFF08B572B6224A137F9E
:1008B0000BB10021117762B6002B35D000211F4803
:1008C000FFF77AFE72B61C4BB3F91E20B3F9200075
:1008D000801A47F6FF72DA834FF400421A8462B638
:1008E00007F04EF812A3D3E9002307F0D9F907F077
:1008F0006FFB07F057F80022114B07F0A7F807F03D
:100900003FFB07F03DF802460B4600204FF08041C8
:1009100005F084FD00220B4B06F0E4FE07F030FBEF
:10092000BDE80840FFF7A6BF08BD00BFAFF30080D9
:1009300000000000E0FFEF40F095FF1F2CF5FF1FC7
:10094000000014400000F03F08B504F078FD431E9D
:100950005842584108BDFFFF30B50C4685B04B49A1
:10096000054604F00AFD58B12146684604F09EFC95
:100970006846FFF7E9FF464B1870684604F03AFCFA
:100980002846444904F0F9FC20B1204604F057FD04
:10099000414B18602846414904F0EFFC58B121460C
:1009A000684604F083FC6846FFF7CEFF3C4B1870A6
:1009B000684604F01FFC28463A4904F0DEFC20B1EA
:1009C000204604F03CFD384B18602846374904F0B7
:1009D000D4FC58B12146684604F068FC6846FFF72D
:1009E000B3FF334B1870684604F004FC28463149C5
:1009F00004F0C3FC58B12146684604F057FC684631
:100A0000FFF7A2FF2C4B1870684604F0F3FB284652
:100A10002A4904F0B2FC58B12146684604F046FC6D
:100A20006846FFF791FF264B1870684604F0E2FB1A
:100A30002846244904F0A1FC58B12146684604F038
:100A400035FC6846FFF780FF1F4B1870684604F0BE
:100A5000D1FB28461D4904F090FC20B1204604F04B
:100A6000EEFC1B4B186028461A4904F086FC58B16E
:100A70002146684604F01AFC6846FFF765FF164BEE
:100A80001870684604F0B6FB05B030BDA19A0000AE
:100A90003DA9FF1FA69A0000788FFF1FAE9A0000A5
:100AA000808FFF1FB89A0000708FFF1FC29A00004E
:100AB000748FFF1FD39A0000888FFF1FE39A0000F6
:100AC0003CA9FF1FF59A00002896FF1F069B000017
:100AD0008C8FFF1F159B0000948FFF1F10B59CB0DB
:100AE0000021684604F0C7FB002104A804F0C3FB02
:100AF0004449454A012314A801F056FB434A9DF896
:100B000054301371169B93609DF85C3013730DF194
:100B10005D030D3203F10C0153F8040B8B4242F8D4
:100B2000040BF9D11B78394C13701B9B14A8E3619B
:100B300001F0C0F9204601F002FA002856D03348EF
:100B400001F0DEF900284DD00EE0694608A804F057
:100B5000ADFB214608A804F00AFC0146684604F0F3
:100B60009DFB08A804F046FB284801F04EF9C4B2EA
:100B70003D2CEAD1254801F048F9C4B22FE004A980
:100B800008A804F093FB214608A804F0F0FB0146F6
:100B900004A804F083FB08A804F02CFB1B4801F018
:100BA00034F9C4B20A2C1AD169460CA804F07EFBB1
:100BB00004A910A804F07AFB10A90CA8FFF7CCFE3A
:100BC00010A804F017FB0CA804F014FB68461049A9
:100BD00004F077FB04A80E4904F073FBAFE70A2C7E
:100BE000ADD0CCE7094801F09EF903E009480A4975
:100BF000FFF7ABFC04A804F0FDFA684604F0FAFA2B
:100C00001CB010BD8C4000202B9B0000B495FF1F32
:100C10002F9A00001C4500201D9B000010B5434981
:100C2000434888B001F01CFB4149404A1323684601
:100C300001F0BAFA3F4A9DF804301371029B9360A9
:100C40009DF80C3013730DF10D030D3203F10C01FF
:100C500053F8040B8B4242F8040BF9D11B78354C46
:100C60001370079B6846E36101F024F9204632497E
:100C7000FFF767FC314B20461978FFF770FC2046E0
:100C80002F49FFF75EFC2F4B20461968FFF773FCD6
:100C900020462D49FFF755FC2C4B20461978FFF7CD
:100CA0005EFC20462A49FFF74CFC2A4B2046196877
:100CB000FFF761FC20462849FFF743FC274B2046FD
:100CC0001978FFF74CFC20462549FFF73AFC254BE5
:100CD00020461978FFF743FC20462349FFF731FCF3
:100CE000224B20461978FFF73AFC20462049FFF7AF
:100CF00028FC204B20461978FFF731FC20461E497E
:100D0000FFF71FFC1D4B20461968FFF734FC2046F7
:100D10001B49FFF716FC1B4B20461978FFF71FFCF9
:100D2000204601F000F908B010BD00BF2B9B000069
:100D30008C400020B495FF1F349A00003DA9FF1F8E
:100D40003A9A0000788FFF1F439A0000808FFF1FA0
:100D50004E9A0000708FFF1F599A0000748FFF1F7A
:100D60006B9A0000888FFF1F7C9A00003CA9FF1F30
:100D70008F9A00002896FF1F389B00008C8FFF1F62
:100D8000489B0000948FFF1F30B5022089B00021DE
:100D900003F0D0F90820002103F0CCF9092000214C
:100DA00003F0C8F90B20012103F0C4F9062001214A
:100DB00003F0C0F90520012103F0BCF90420012152
:100DC00003F0B8F90121032003F0B4F9474B186888
:100DD000FFF750FD4648052103F0C8FF454B464844
:100DE0001A780A2142F005021A7001F041F9002830
:100DF00038D04149414A0123684601F0D5F9404ABB
:100E00009DF804301371029B93609DF80C301373AE
:100E10000DF10D030D3203F10C0153F8040B8B425D
:100E200042F8040BF9D11B78354C1370079B6846C8
:100E3000E36101F03FF83048324901F007FAC8B9E0
:100E40001BE00F20FFF716FD642003F0ADF92846E4
:100E5000FFF710FD0134642003F0A6F9062C01DD34
:100E6000FFF7CEFC24480A2101F002F905460028CC
:100E7000E7D0BEE7FFF732FE01E0FFF7CFFE2379B0
:100E80008DF80430A3680293237B8DF80C301E4B41
:100E900000931E4B0DF10D0203F10C0153F8040BEE
:100EA0008B4242F8040BF9D11B781370144BDB69A9
:100EB000002168460793FFF7AFFB684600F0FAFF92
:100EC0000021134800F076FB124B1B68984205DCAA
:100ED000064B1860104B01221A7004E000210C48E8
:100EE0000A4600F06AFB09B030BD00BFD495FF1F71
:100EF0000082FF1F164500208C400020FE99000054
:100F00007895FF1F2B9B0000689E00008595FF1FB2
:100F10003440002068A9FF1F648FFF1F2DE9F743AD
:100F200000242546A04627462646DFF8A09210E07A
:100F3000172002F0D3FD3618142002F0CFFD3F1821
:100F4000152002F0CBFD8044162002F0C7FD0134CD
:100F50002D18D9F800309C42EADB98FBF3F496FB9D
:100F6000F3F697FBF3F795FBF3F57B4B7B4819689A
:100F70007B4B02681B68C3EB04097A4B1B68C3EB0D
:100F80000508794BB21A1B68791A002AB8BF524279
:100F90000029B8BF4942B9F1000FB8BFC9F1000933
:100FA000B8F1000FB8BFC8F100089A4240F3C980F9
:100FB0006E4A066092F800E06D4A994282F800E0BD
:100FC00005DD6C4B1A786A4B1A70634B1F606A48D8
:100FD000FFF7E6FA694B1B6898426ED807E0644A4F
:100FE00000211170186000216348FFF7E5FA644B97
:100FF0001B68994540F3A980624A1178624A1170D2
:10100000574A9845146005DD604B1A785E4B1A709C
:10101000544B1D605E48FFF7C3FA5E4B1B68984255
:1010200066D85D4800F002FB20B15B4800F0E0FAB2
:10103000554B1870594800F0F9FA20B1574800F0A4
:10104000D7FA514B18705648FFF7AAFA0446082001
:1010500003F064F804FB00F15148FFF7ADFA504883
:10106000FFF79EFAB0F5C87F73D94E4B4E491A6808
:10107000096801328A421A6001DD00221A601A688A
:101080004A4B53F822204A4B1968914201DB013A3E
:101090001A60374B4248012200211A70FFF78CFA80
:1010A00000214448FFF788FA3E4B43481A78002154
:1010B00003B0BDE8F04300F080BA40F2FF33F61908
:1010C0009E42B4BF30461846364B1A68374B53F829
:1010D0002230002100934FF480620B4620EAE0703A
:1010E00004F07EF8324B1A6890427FF47BAF76E7CB
:1010F000324B19682B4B18682D4B1B6864194B2514
:1011000005FB003040F2FF322D4B9442A8BF14463D
:1011100053F820602B4824EAE47494FBF1F4614313
:10112000B6FBF2F202FB01F400F0B8FD264BB0FB77
:10113000F6F006FB0046002115481E60FFF73CFA5A
:101140006FE799423FF73DAF51E798453FF75CAFF6
:1011500067E703B0BDE8F0837095FF1F9C95FF1F04
:101160007495FF1FB095FF1F6C8FFF1F748FFF1FBB
:10117000648FFF1F888FFF1FBCA9FF1F908FFF1F69
:10118000848FFF1F3CA9FF1F1496FF1F2896FF1F87
:1011900040A9FF1F988FFF1FDC95FF1FA095FF1F21
:1011A00030400020D495FF1F68A9FF1FC0A9FF1F72
:1011B00054A9FF1FEC95FF1F344000208C8FFF1FA8
:1011C0004896FF1F74A9FF1FD895FF1F7C8FFF1F34
:1011D000534A92F8443010B523B95249097800298E
:1011E00040F09280137E0BB1FFF70AFB4E4B1B7849
:1011F0001BB94E4B1B78002B52D04D4B1B789BB12B
:101200004C4C4D48236840F2B912534305330A222F
:10121000B3FBF2F34FF0FF31B1FBF3F1002200F02A
:10122000A3FA206802F0C0FF444B454C1868454BB8
:101230001968FFF7BFFA444B18603C4B1B781BB989
:10124000374800F02BFD20603F4B22681968344876
:1012500022F00F02226000F0C1FC0A2002F0A4FF7D
:10126000334B1B7883B1334B33481B6840F2B912C0
:10127000534305330A22B3FBF2F34FF0FF31B1FBC6
:10128000F3F1012200F070FA2C4B1868FFF7F2FA24
:10129000254B2E4800211970244B1970FFF78CF94B
:1012A0002B48FFF77DF92B4B1B68984205D3FFF7BE
:1012B00035FE27480021FFF77FF92748FFF770F92F
:1012C000264B1B68984205D9FFF7A8FA224800214F
:1012D000FFF772F91D48FFF763F909288CBF002159
:1012E00001210B2002F0FAFE1D48FFF759F92928C9
:1012F00014D91C48FFF754F91B4B1B6898420DD9B1
:101300001A4B1B7833B910BD0D490B60074B0121F7
:10131000197067E7BDE81040FFF7C6BA10BD00BFFF
:1013200074A9FF1F948FFF1F648FFF1F1496FF1F68
:101330003DA9FF1F788FFF1F04F5FF1FD495FF1FE6
:10134000D895FF1F54A9FF1F08A9FF1F9895FF1FDD
:101350006CA9FF1F70A9FF1F00AAFF1F688FFF1F46
:101360002CF5FF1FEC95FF1F708FFF1F808FFF1F55
:101370002DE9FF416A486B4D6B4F6C4EDFF83082B0
:1013800000F08AFD6A496B4A654806F0B1FF00210A
:101390000A462846FFF71CF9674B2846002440F808
:1013A0001C3B00F079FD284600F0F4FB2846634919
:1013B000604A06F09DFF012107F124023846FFF73D
:1013C00007F95F4B06F118023B6030464FF0FF33E0
:1013D0000121BB61FFF7FCF85A4B336047F6FF73FE
:1013E00008F118020121F38340464FF4004333848F
:1013F000FFF7EEF8544B4046C8F8003000F080FA92
:10140000524880E8A00004724472C46003F087FD73
:101410004F4880E8800104724472C46003F07FFD8D
:101420004C4880E8600004724472C4604A4D03F086
:1014300076FD4A494A4803F01EFF494849493D4A5A
:1014400006F056FF05F596460AE0204600211034C6
:1014500003F011FFAC42F8D104F59665B54202D015
:10146000A5F59664F1E7404D4049324A002006F068
:101470003FFF05F596460AE020460021103403F0B0
:10148000FAFEAC42F8D104F59665B54202D0A5F556
:101490009664F1E7274A3649002006F029FF3549CE
:1014A000354803F0E8FE2F49224A334806F020FF72
:1014B000324800F0F1FC1E491E4A304806F018FF81
:1014C000082114222E4800F07FF809210A222D4815
:1014D00000F07AF8022114222B4800F075F82B480E
:1014E000FFF754F82A48FFF751F82A48FFF74EF85B
:1014F000294B2A481A6801920199294A11601A68F1
:10150000029202991B68274A03931160264B039AA3
:101510001A60FFF73BF82548FFF738F8BDE8FF8170
:10152000B495FF1F74A9FF1F04F5FF1FF095FF1F5F
:10153000B51E0000608FFF1F989D0000D9040000B9
:10154000789D0000689D0000889D00001896FF1F90
:101550000CA9FF1F1CA9FF1FE0F9FF1F519B0000F2
:1015600058A9FF1FF5510000B4AEFF1F0D05000084
:10157000F1040000559B00002CA9FF1F7895FF1F68
:10158000DC95FF1FA095FF1F44A9FF1FBCA9FF1FEB
:1015900040A9FF1F00AAFF1FF4430020EC95FF1F86
:1015A0009895FF1F304000206CA9FF1F2CF5FF1FEE
:1015B0002C96FF1F084602F04DBB0846114602F06C
:1015C0005DBB02F00BBBFFFF37B500238360074B09
:1015D00042601B680193019B0446036008460D4668
:1015E00002F09CFD6573207320463EBDF44300204D
:1015F000007B704713B50446407B02F08FFD237BD0
:10160000834201D100200EE0074B1A680092009936
:101610002268891A62689142F4D31B68207301938F
:10162000019B012023601CBDF443002037B5044614
:10163000FFF7E0FF10B10023A3600EE0A26872B1D3
:10164000084B19680091009D2168691A914206D3E0
:101650001B68A0600193019B2360012000E0002033
:10166000A0733EBDF443002070B50021044603F092
:1016700028FCC0B1B4F91E20B4F92030811C00F55B
:10168000817631F9025BAA42A8BF2A46AB42B8BFB5
:101690002B46B142F5D323840123E2832377BDE8AF
:1016A000704003F0D9BB70BD2DE9F0478469054651
:1016B0002CB9214603F005FC002851D04CE0002154
:1016C000631C0BD103F0FDFB0446002848D02846DC
:1016D0002146002203F0E0FB20463DE003F0FEFB44
:1016E000064600283CD0EA6995F820101D480023E2
:1016F0004FEA146CC4F30F2E30F91CA00CF1010C4E
:10170000F71830F91CC0B7F90280CEF580390EFB0E
:101710000CFC0AFB09CE4FEA2E4E0EFB08FE4FEAE8
:10172000EE3EA7F802E021B1E743BA4205D2A41881
:1017300007E0A24204D2A41A03E04FF0FF3400E015
:101740000C460233B3F5807FD2D12846AC613146D6
:10175000002203F0A1FB3046BDE8F04703F07CBB5C
:10176000BDE8F087589B000072B683690BB901236E
:1017700003E0013302D16FF001038361C16180F89E
:10178000202062B67047FFFF2DE9F041DFF860C00E
:10179000154E164F002A0CBF4FF064524FF06052A6
:1017A000002434F8078056F814509CFBF8F84145A3
:1017B00004D303F00801C9B221B905E002342E2C8C
:1017C000EFD1F6E742F0806203F00403DBB23BB1F5
:1017D00025F4704305F4704542F0007243EA151594
:1017E0002A430260BDE8F081049E0000D49D000001
:1017F000006CDC0210B50446FFF7C6FF204610BDA2
:1018000010B5044603F04AFC204610BD02480349C7
:10181000034A06F06DBD00BF3840002001180000EB
:10182000608FFF1F02480349034A06F061BD00BFF5
:101830004040002001180000608FFF1F10B5194BB9
:101840001A6811681A79184B1A70184A9142184987
:1018500028BF184B08683CBF134603F5807298B147
:10186000014631F9024F04F5FF447F34241123F877
:10187000024B9342F5D303F0EFFA0F4B0C491A6871
:101880000A6000221A6005E040F2FF7123F8021B93
:101890009342FBD3094B1B781BB1094B4FF080429D
:1018A0001A6010BD4C4000201F8000400A88FF1FB6
:1018B000584000200A87FF1F484000205440002065
:1018C00008E200E010B5002103F0FBFA034690B1F6
:1018D00072B60949086808B90B6003E0074A146842
:1018E00014B9136062B610BD0C60136062B6BDE837
:1018F000104003F0B1BA10BD58400020484000200D
:1019000038B54B484B4D012103F070FB4A4B1A6828
:1019100042F480521A60494B80221A7000242C80B5
:1019200008340120A4B202F03FFCB4F5006FF6D1F8
:10193000434B1B685B0264D5424B1A6848F6A2739E
:10194000134048F6A27293425BD13F4B1A6840F2B3
:101950003F439A4255D13D4B1B68012B51D13C4B23
:101960001A6840F201139A424BD1314D39492B6824
:101970001A6819600221197119726FF00101597307
:101980004FF0FF319973D97319692A494FF4807068
:1019900019610022D98AD88211465A715A729A72F4
:1019A000DA721A731A755A751A765A769A76DA7640
:1019B000DA8BD8839A8B012406229A839C71DC717E
:1019C0002B7903F1804303F50433B02219701A70A8
:1019D00003F0BCFA204B214A18702B792048137071
:1019E00003F110011F4A42F821005A11920002F13E
:1019F000604202F5614203F01F0304FA03F414602D
:101A000038BD0F4B1A6842F480021A600F4B012256
:101A10001A6040F23F4243F8082C48F6A37243F89C
:101A20000C2C114A43F80C2C40F201125A609CE72E
:101A30004C40002000C00C402C80044021C00C40D1
:101A40003C80044000600340046003400C6003409D
:101A5000106003400A87FF1F544000201B80004095
:101A60003D180000008AFF1FA28F010002480349B1
:101A7000034A06F03DBC00BF4C40002001180000A6
:101A8000608FFF1F02480349034A06F031BC00BFC4
:101A90005C40002001180000608FFF1F02480349CE
:101AA000034A06F025BC00BF644000200118000076
:101AB000608FFF1FF8B590F844300446002B61D0CA
:101AC00003F082F9054600285CD004F11C0630467C
:101AD00000F016FA00283BD0A91C30464FF4807263
:101AE00000F0F8F9B0F5807F07461ED9264927484F
:101AF000FEF71AFD0A2200233946244803F010FBA2
:101B0000224803F0FFFA304600F00DFA204A13880D
:101B1000002B2FD0013B9BB21380002B2AD0002337
:101B200084F8443001232376F8BD236CC318236462
:101B300000232376470803E005EB47020137538073
:101B4000802FF9D120462946002203F0A5F90CE0A8
:101B5000304600F0E8F90E4A13887BB1013B9BB296
:101B600013805BB1002384F844302846BDE8F84078
:101B700003F072B95E2000F0F9F8D0E75E2000F0C3
:101B8000F5F8EFE7F8BD00BFA09D00001C45002060
:101B90006C400020002380F84430C3630364704726
:101BA00008B572B690F8443073B1002380F8443021
:101BB00062B61C3000F0B7F9074A138833B1013B15
:101BC0009BB2138013B108BD62B608BD5E20BDE8AC
:101BD000084000F0CBB800BF6C400020F0B589B0E1
:101BE000154604460F46FFF7DBFF5E2000F0A4F821
:101BF000254B1A8801321A8072B624493A460123CD
:101C0000684600F0D1FA9DF8043084F82030029B39
:101C100063629DF80C3084F828300DF10D0304F157
:101C20001C0604F1290203F10C0153F8040B8B424A
:101C300042F8040BF9D11B781370079B6846A36325
:101C400000F038F962B6304600F079F9074628B955
:101C50000F481049FEF779FC384613E0304600F093
:101C60004BF90346B5FBF0F103FB1151E06330463D
:101C700000F036F9256406480749FEF766FC0120A6
:101C800084F8440009B0F0BD6C4000208C40002076
:101C90001C450020A49D0000BC9D0000006C704706
:101CA000184B19491A6842F480521A60174B184AA7
:101CB0001A60184A116001F180415160164A1A6099
:101CC000164B1B78DA0755BF154A164A4FF41071A8
:101CD0004FF40071116003F00201C9B24FF40072B9
:101CE00009B9114900E0114903F00403DBB20A60AD
:101CF0001BB94FF410720E4B02E00E4B4FF4007202
:101D00001A6070473C8004400110003800C0024057
:101D100001401F000CC0024000001F80164500203B
:101D200018B0044008C004401CB004400CC004407B
:101D300014B0044004C004405E2830B511D8094AEC
:101D400043091478012101FA03F52C431470064A63
:101D500000F01F0052F8234001FA00F10C4342F852
:101D6000234030BD88400020704000205E2810B520
:101D700014D843090A4A00F01F0052F823400121F9
:101D800001FA00F024EA000042F8230030B9054AC5
:101D9000107801FA03F320EA0303137010BD00BFAB
:101DA000704000208840002013B502AB026803F8A1
:101DB000011D546819460122A0471CBDC06908B125
:101DC00001F01CB8704738B50446C069002510B949
:101DD0000123237138BD0571E06992B201F090F9D9
:101DE000E3691B7913B101232371284638BD07B578
:101DF00001220DF1070100F0F1FE01280CBF9DF852
:101E000007004FF6FF7000B20EBDC06908B510B1F3
:101E1000FFF7EDFF08BD4FF0FF3008BD38B50546B0
:101E2000C06950B1FFF7E3FF431C044606D0E869E0
:101E3000C168013900F0AEFF00E00446204638BD1D
:101E4000F8B504464FF47A73A360124B002020715A
:101E50002073236024200D46174606F093FAE061B4
:101E6000A8B12B4603F120020546186859682E4692
:101E700003C6083393423546F7D1186839463060B7
:101E80000C2204F10D0007F03BFB00236376204693
:101E9000F8BD00BF689E00004FF47A71816004496C
:101EA0000022027102730160C2614273704700BF79
:101EB000689E0000014B0360704700BF689E0000F1
:101EC0000D307047C06920B18079012894BF00208F
:101ED00001207047C06908B508B100F07FFE08BD59
:101EE000C06908B100F056BF7047C3690BB1D8682C
:101EF00070474FF0FF307047C06900B1806970478C
:101F000038B5C369044663B1FFF7F6FF05462046BE
:101F1000FFF7EBFF47F6FF73281A984228BF1846D1
:101F200038BD184638BD10B50446C06930B100F060
:101F300091FFE06906F02EFA0023E36110BDC0694D
:101F400018B18079003018BF0120704710B50A46DB
:101F50008AB00A49044600238DF8083001918DF8B3
:101F60000A30214601A8012301F02AF8044610B1E5
:101F700001A800F06FFF20460AB010BD989E000037
:101F80000AB101F0A5B80120704770B50B68C45CB8
:101F90002F2C08BF0133C6180024355D2F2D08D023
:101FA0006DB906E001330B60C05C003018BF012042
:101FB00070BD00251555C25C2F2AF4D1F2E71555E6
:101FC000013401330C2CF4D0E7E7FFFF2DE9F04F8B
:101FD0009A4699B0254B00248DF81C408DF81E4080
:101FE0008DF840408DF84240019480460D46914660
:101FF00006930F930C4606AE04E0234600E00FABB9
:1020000034461E4601A902AA4046FFF7BEFF80F0F3
:102010000102074602A92046D2B25346C84783466A
:1020200038B9AC4201D100201DE0204600F012FF7B
:10203000F9E777B101233046214602AA00F0C0FF3C
:10204000AC4207460CD0204600F004FF002FD4D14C
:10205000E9E7AC4202D0204600F0FCFE012002E09D
:102060000028CCD1DFE719B0BDE8F08F989E0000C2
:1020700038B590F83E3004460D4613B1383000F0C4
:10208000E9FE204601212A4600F0D0FA08B90020D6
:1020900038BD04F1100501222846214601F094FACA
:1020A000024640B104F13800294600F06FFD0030CF
:1020B00018BF012038BD2846214601F085FA0028C6
:1020C000E5D0EFE70A7902710A4A02604A79427163
:1020D0008A7982718A688260CA68C2600A6902610C
:1020E0000A7D02758A698261CA69C2610A6A0262EE
:1020F000704700BF989E00002DE9F04F97B005464D
:10210000383104A891469A46FFF7DCFF254B4FF083
:10211000000B8DF838B00D938DF83AB04C460DAFEA
:1021200004AE2DE023782F2B01D1013428E0C4EB3D
:1021300000085FFA88F8B8F10C0F28BF4FF00C08C0
:1021400021464246684607F0DBF916AA02EB08036F
:10215000384603F858BC00F07DFE384631466A46E2
:10216000012300F02DFF20B90E4B28712B60A871C0
:1021700014E0304600F06EFE334644443E461F46AF
:1021800020462F2106F09AFF0028CBD1C9EB04048A
:10219000CAF8004028463146FFF794FF284617B09A
:1021A000BDE8F08F989E0000F0B59DB004461E4635
:1021B00001A86B461746FFF79FFF009BFD18FB5CCD
:1021C0003BB901A913A8FFF77DFF204613A91C4ABC
:1021D00030E000238DF82C301A4A8DF82E309DF80F
:1021E0000A300A921BB92046FFF756FE24E0023B54
:1021F000012B0AA806D814492A46334600F0E0FE0F
:1022000050B9F0E701A92A46334600F0D9FE00286C
:10221000E9D001A800F01EFE16F0060F03D00AA8B0
:10222000109900F0B7FD0AA913A8FFF74BFF20464D
:1022300013A92A46FFF704FE20461DB0F0BD00BFDB
:10224000FE990000989E0000C440002000F1380371
:10225000024A084619460023FFF7B8BE4D1F00008A
:1022600000F13803024A084619460023FFF7AEBEC4
:10227000811F000070B504469EB00D46164628E04A
:102280009DF8100000B92AE0E52822D02E2820D0A1
:102290009DF81B0000F00800C0B2D0B9134B8DF8B8
:1022A00034008DF83600694604A80C9300F01EFC3B
:1022B0000CA8E9696A46334600F082FE78B10CA9A1
:1022C00015A8FFF7FFFE204615A96A46FFF7B8FDDF
:1022D00008E0E86904A900F015FD0028D0DC2046DC
:1022E000FFF7DAFD20461EB070BD00BF989E0000CB
:1022F000084B02211961084900225A719A719A7299
:102300001A7383F8302083F83C20996383F83E20C9
:10231000704700BF8C400020989E0000094B1A684F
:1023200042F480621A602C334FF000421A60064A71
:10233000FF2111601A68002AFCDA044B1868C0B249
:10234000704700BF00C0024034C0024038C00240A5
:102350001A4B1B4A70B51A60C307044602D5FFF733
:10236000DDFF013C052C01D8630800E003230022B7
:102370001449154801E0086001329A42FBDB23EA68
:10238000E372A4EB42040F49104A0F48104D06E0D7
:10239000166816F0F00FFBD008602E68023C002C87
:1023A000F6D106E0106810F0F00FFBD00868013B92
:1023B00001E0064A0649002BF4D170BD00C002407E
:1023C00000041F8034C00240FFFF00902CC0024078
:1023D00038C00240074B1A6842F480621A602C33FE
:1023E0004FF000421A60044A10601A68002AFCDAB2
:1023F000704700BF00C0024034C0024013B5114C0A
:10240000052813D8DFE800F0030306090C0F01A824
:102410000D490DE001A80D490AE001A80C4907E0AB
:1024200001A80C4904E001A80B4901E00B4901A8EF
:1024300000230122FFF7DEF9019B2360FFF730FC48
:102440001CBD00BFEC40002000366E0100127A0077
:1024500000093D00C0C62D0080841E00801A0600C1
:1024600010B5194B1B780BB3DA0707D5174A184973
:10247000146809682140174C2160116003F00202C2
:10248000D2B23AB1144A1249146849682140114C39
:102490006160116003F00403DBB23BB10F4B0C4AE7
:1024A000196892680A400B498A601A600C4A1368DE
:1024B000834208D00B4B0C491960106040F08040FB
:1024C00050600A4A1A6010BD8840002080E100E098
:1024D000704000207C40002084E100E088E100E0C2
:1024E0000CC0024000C0024001401F0000001F80DD
:1024F0000C4B1B78ABB1D90703D50B4A11680B4ABB
:10250000116003F00202D2B21AB1074A5168084AB8
:10251000116003F00403DBB21BB1034B9A68054B57
:102520001A607047884000207C40002000E100E0F5
:1025300004E100E008E100E008B50121007901F0C4
:10254000CDFDFFF7D5FF08BD054B10B50446186853
:10255000FFF786FF20790021BDE8104001F0BEBDE5
:10256000EC40002010B5837904468BB1008940F21D
:102570000123984207D8C0F500700230FFF7E8FE4B
:1025800040F2022323812046FFF7D6FF0023A371E8
:1025900010BDFFFF73B50B4B1A680092009E0D46ED
:1025A0001C46B6B2FFF7BAFEFF2808D02368019395
:1025B000019B9BB29B1BAB42F4DB002000E001209F
:1025C0007CBD00BFF4430020F8B505460E46174613
:1025D000FFF7C8FF2846FFF7B7FF4FF4967128466C
:1025E000FFF7D8FF46F04000FFF7F4FE182427FA63
:1025F00004F0C0B2083CFFF7EDFE14F1080FF6D16D
:1026000026B1082E0CBF8720FF2000E09520FFF7A1
:10261000E1FE0024FFF782FE0306E87204D5FF2CDA
:1026200002D00134E4B2F5E7F8BDFFFF2DE9F04335
:1026300000230373837283714371544B027185B01D
:102640001B680446019310460F460121019E01F0CC
:1026500071FD0121207901F041FD4D4B1A6842F4D2
:1026600080521A600620FFF7C9FE4A4B1868FFF730
:10267000F7FE0A25FF20013DFFF7ACFE15F0FF0530
:10268000F8D1FFF735FF2046FFF75EFFDFF8FC804B
:102690001FFA86F90BE0D8F800300293029B9BB238
:1026A000C9EB0303B3F5FA6F01DD01234EE000210E
:1026B00020460A46FFF788FF01280546E072EAD166
:1026C000204608214FF4D572FFF77EFF00F004008A
:1026D000C0B208B125730DE00425FFF71FFE013DD0
:1026E00015F0FF05E072F8D1AA284FF0020300D0E0
:1026F0002CE02373257BDFF89480022D0CBF4FF074
:1027000080450025B6B20AE0D8F800300393039B59
:102710009BB29B1BB3F5FA6F01DD082316E037214E
:1027200000222046FFF750FF2A4620462921FFF7C6
:102730004BFF0246E0720028E6D1237B022B15D125
:1027400020463A21FFF740FF10B10623637115E0E0
:10275000FFF7E4FD00F0C000C02801D1032323737C
:10276000FFF7DCFDFFF7DAFDFFF7D8FD2046FFF7A6
:10277000E3FE3846FFF742FE012003E02046FFF764
:10278000DBFE002005B0BDE8F08300BFF44300206D
:102790003C800440EC40002073B5114B1A68009255
:1027A000009E04461D46B6B209E02B680193019BCA
:1027B0009BB29B1BB3F5967F01DD0F2307E0FFF76C
:1027C000ADFDFF28E072F0D0FE2806D00D23204694
:1027D0006371FFF7B1FE002000E001207CBD00BF67
:1027E000F44300202DE9F843089D04460F46904627
:1027F0001E4603B974E09B18B3F5007F73DC837940
:102800002BB10368994202D10389934216D9237BE5
:102810002760032B18BF7F023A4620461121FFF79D
:10282000D3FE074610B1032363715CE02046FFF737
:10283000B3FF002857D001232781A3714046FFF73B
:1028400087FD2C492C4B1960F107324604D5FFF760
:1028500065FD05F8010B721E052A01D8530800E03A
:10286000032300212548264F01E0076001319942EA
:10287000FBDBA2EB4302AA182248204FDFF880C0FE
:10288000DFF884800DE0016811F0F00FFBD0C7F88D
:1028900000C0D8F80010C1F3072985F800906970CE
:1028A00002359542EFD302EB43031748154A09E07E
:1028B000116811F0F00FFBD00168C1F307272F70EA
:1028C000697002359D42F3D32389F618A37AB6B214
:1028D000268113B1B6F5007F02D32046FFF742FEF2
:1028E0000120BDE8F8832046FFF726FE0020BDE862
:1028F000F88300BF00041F8000C0024034C00240C3
:10290000FFFF00902CC0024038C0024007B54FF4D2
:10291000007300920022FFF765FF0EBD2DE9F04124
:1029200004462B482B4F03682B4D43F480634FF034
:10293000004603603E6029603946002307468C4606
:10294000D1F800E0BEF1000FFADA12E0D1F800E0B1
:10295000BEF1000FFADA18E01E4A1368002BFCDA09
:1029600026E0112320466371FFF7E6FD0020BDE855
:10297000F081D0F8008012F803E048F48068C0F8D5
:1029800000800E60C5F800E0E0E702EB030ED7F828
:1029900000809EF801E0023348F48068B3F5007FC0
:1029A000C7F80080CCF80060C5F800E0C8D1D3E7D4
:1029B000FF20FFF70FFDFF20FFF70CFDFFF7AEFC38
:1029C000E07200F01F000528CBD10120BDE8F081A6
:1029D00000C002402CC0024034C0024070B50B461B
:1029E0000446164609B9122329E0027B032A18BFC0
:1029F0004B021A461821FFF7E7FD054608B10423EC
:102A00001DE02046FE213246FFF788FF88B12046B0
:102A10004FF41671FFF7BEFD08B915230FE02046ED
:102A20000D212A46FFF7D0FD40B9FFF777FC28B902
:102A300007E02046FFF780FD002070BD142363717E
:102A4000F7E72046FFF778FD012070BD014A024BF1
:102A50001A60704701100138EC40002010B50446A0
:102A60000121006A04F1080200F032FD40B1E3697F
:102A70002BB9A368E361637963F07F03637101207D
:102A800010BD70B50446FFF7E9FF08B9002070BD1E
:102A9000236AA268197C1D79023A02FA01F65A6982
:102AA000B218561E06E0701900F056FC0028EDD052
:102AB000013DEDB2002DF6D1236A1B7C4FF400726C
:102AC00002FA03F2A3699B18A361012070BDFFFF06
:102AD00010B50446006900F01BFC18B1207D024BC4
:102AE00003EB401010BD00BFFC400020002230B5B9
:102AF00013462E24855C202D09D0D5B2082D02D195
:102B0000CC540133DBB2855CCD540133DBB20132EE
:102B10000B2AEFD10022CA5430BDFFFF70B500234D
:102B200005462022CA5401330B2BFBD10022072477
:102B30001FE02E2B01D0144E06E00A2C22D00822D2
:102B40000A2416E098421DD016F8010F0028F9D18A
:102B5000A24218D8202B16D97E2B14D8A3F16106D7
:102B6000192E01EB020001D8203BDBB201320370C9
:102B7000D2B215F8013B002BDBD10878203818BF02
:102B8000012070BD002070BD7F9E000038B58279A5
:102B900004460D460AB1002038BD91F82030102BB4
:102BA00006D1022383714B8CC2615B0183610CE00F
:102BB000202BF0D103238371496A04F11802C1610B
:102BC000284600F019FC0028E5D0002301202562EA
:102BD0006071A360E3602361237538BD2DE9F04F78
:102BE000837985B00446904613B94FF6FF7865E0C7
:102BF0004379DB07F9D564E01FFA83F847460E46B0
:102C0000DFF8F890DFF8F8A056E0E268A179206AD2
:102C1000D3054FEAD35B02291FFA8BF34FEA522EFA
:102C200002D1416A71441CE00579013D05EA0E05B7
:102C3000EDB26BB965B912B9E269A26008E0A168AA
:102C4000039304F1080200F0A3FB039B0028CCD0FF
:102C5000226AA168107C5269023901FA00F18918D0
:102C60004919CBF500729742627902F04002C8BF61
:102C7000C3F50075D2B2CCBFADB23D4612B9B5F5C1
:102C8000007F2ED1DAF80020914220D129E0761978
:102C90000DE00BEB090358191A46314603E012F810
:102CA00001CB01F801CB8242F9D1D31AF618E368BF
:102CB0007F1B5B19E360BFB2002FA6D10FFA88F02B
:102CC00016E08269C368D31A984595D896E70A4AF0
:102CD000009610681A462B46FFF784FD0028D6D1CF
:102CE00083E70846002100F013FB0028D1D17CE7E0
:102CF00005B0BDE8F08F00BFF8400020FC40002088
:102D00009C8FFF1F38B58379012B05460C4601D8EF
:102D1000FF201BE0C368DA06FAD10AE02278A2B1EC
:102D2000E52A06D02E2A04D0E27A02F00802D2B2B6
:102D300062B1202228462146FFF750FF42B2202AE6
:102D4000ECD0002AE4DB002000E0104640B238BDA1
:102D500037B58379012B044601D8002016E0C368FB
:102D600001220DF10701C3F34315FFF737FF0128D7
:102D70000CBF9DF807304FF6FF731BB20133ECD048
:102D8000E26803481F32E26000EB45103EBD00BF21
:102D9000FC400020F8B5044680790D4600282CD070
:102DA000A369994224D825E01DB9A560E5600120FA
:102DB000F8BD236AE2681E7C691E0936531E23FA99
:102DC00006F321FA06F69E4200D312B9E369A36026
:102DD00009E0F61A07E0206AA1683A4600F0D8FA3E
:102DE000013E10B9F8BD04F10807002EF3D1DDE76C
:102DF0000020F8BD0228D7D1D8E7F8BD38B58379CF
:102E0000054613B390F90530002B1ADA0121FFF7BC
:102E10005FFE0446C8B1AB79012B9CBFAB69C361AF
:102E2000EB6943831B0C8382094B1B682BB1183061
:102E300004F116019847238B63826B7903F07F03BB
:102E40006B71BDE8384000F03DBA002038BD00BFCE
:102E5000F040002010B50446FFF7D0FF10B100236A
:102E6000A371012010BDFFFFF7B58279012A044646
:102E70000D4645D1437903F00203DBB2002B3FD06E
:102E800040E0002B3AD0E668FFF784FF00B937E056
:102E9000206A35B9E16900F073FB002830D0E561A4
:102EA0001BE0A16801AA00F073FA48B3206A184B2E
:102EB00090F8207001994FF6F872102F08BF134652
:102EC00099420AD200F05CFBD0B1206AA1686FF091
:102ED000704200F0B9FA00B912E06379A56163F0BD
:102EE0007F0363712046FFF789FF48B12046B54252
:102EF00034BF29463146FFF74DFF07E0104605E095
:102F0000002003E083699942BBD9F9E7FEBD00BF09
:102F1000F8FFFF0F10B500210446FFF7A5FF60B1D1
:102F200020460121FFF7D4FD38B1E52303700023CB
:102F3000A371BDE8104000F0C5B9002010BDFFFF2F
:102F400038B51D4B03EB41131546DA7A12F0110F19
:102F5000044604D015F0420F01D0002038BD174AB6
:102F60002175126822615A8B998A42EA0141E16116
:102F7000DA7A12F0180203D1DB69A361012309E0B8
:102F8000102AEAD1206A04F1180200F035FA00286C
:102F9000E3D00423A37105F00F0305F040050021E1
:102FA000EDB26371A160E16025B12046BDE8384013
:102FB000FFF75ABF012038BDFC4000209C8FFF1F47
:102FC0002DE9FF47867905460C461F46002E75D130
:102FD0000DF1040810464146FFF7A0FD00B96DE071
:102FE000236AA6602B62E660DFF8E090C24621E02B
:102FF0002046C3F34318FFF7ABFE014600285DD01F
:1030000002780AB1E52A09D126B9D9F8002085F855
:1030100014802A610B78012683B10BE050460B2205
:1030200005F08CFC30B907F03003302B46D0284631
:1030300041463FE0E368A2699342D9D307F0120307
:10304000122B3BD136B128460121FFF741FD044642
:1030500048B933E0A379022B30D02046FFF711FDA9
:1030600060B3184C2E7500212022204601AE05F0D9
:10307000B7FD03CE20606160B3783288A372124B33
:1030800022811B682BB104F1100004F10E01984756
:1030900006E021222274A373282208236274E373BA
:1030A000238A63822383E389E38200F00BF928B14A
:1030B000297D28463A46FFF743FF00E0002004B090
:1030C000BDE8F087FC400020F04000209C8FFF1FEF
:1030D00010B50A468AB00949002304468DF8083025
:1030E00001918DF80A3001A821460223FFF768FFFD
:1030F00010B101A8FFF70EFF0AB010BD989E0000A6
:103100002DE9F74F92468279012A07460C4640F096
:10311000B680427902F00201C9B2002900F0AF8006
:10312000B1E0B969FD688D4201D1554688E0FFF7ED
:1031300031FE002800F0A380F7E7386A90F804B069
:103140000BF1FF3B0BEA522B4FEAC2594FEAD95918
:103150001BF0FF0B1FFA89F81FD1B8F1000F1CD12B
:10316000B96811B9FA69BAB911E001AA00F010F909
:10317000002800F08F80396A474891F82010019AA2
:103180004FF6F873102908BF1846824204D3384618
:10319000FFF764FC08B972E0BA603A6AB968107C5B
:1031A0005269C8F500760239B6B2B54238BF2E462C
:1031B00001FA00F18918B6F5007F8B4411D1374A26
:1031C0001168594504BF4FF0FF311160344A594628
:1031D00010682246FFF702FC002850D004F5007466
:1031E00029E0B8F1000F10D1F968BA6991420CD307
:1031F00000F068F8002842D0284AC2F800B0294AF6
:10320000117841F00101117005E05846012100F0EC
:103210007FF8002833D0244A914409EB0600611E50
:103220004A4603E011F801CF02F801CB8242F9D1FE
:10323000C9EB02094C44FA68AD1B9619ADB2FE60A9
:10324000FA68002D7FF479AFB9698A4201D9BA6171
:1032500005E0164A126832B1BAF1000F03D07A794C
:1032600062F07F027A717A7902F00802D2B20AB96A
:1032700050460FE03846FFF7C1FD0028F8D1012283
:103280003A71002006E002F00402D2B2002A7FF474
:1032900048AF4AE7BDE8FE8FF8FFFF0F9C8FFF1F86
:1032A000F8400020FC420020FC400020F0400020BC
:1032B00007B502AB012203F8011D1946FFF720FFF5
:1032C0000EBDFFFF38B50D4B1B78A3B10C4D0D4B58
:1032D000286819680C4AFFF781FB68B10B4C21681C
:1032E00031B12868084AFFF779FB28B10023236031
:1032F000024B00221A70012038BD00BFFC420020A2
:10330000F84000209C8FFF1FFC400020F44000206C
:1033100070B50D4D2B68834204460E460DD0FFF765
:10332000D1FF08B9002070BD084B094A1868214632
:10333000FFF7ECFA0028F5D02C60064B1A781643FC
:103340001E70012070BD00BF9C8FFF1FF840002041
:10335000FC400020FC42002010B50446FFF7B2FFFD
:1033600078B10023074A194699540133B3F5007F19
:10337000FAD1054B1C60054B1A7842F001021A7015
:10338000012010BDFC4000209C8FFF1FFC4200204C
:10339000C3680133994270B505460C46164601D9FB
:1033A000002070BD95F82030C069102B01D10B0AA8
:1033B00000E0CB0918180E4B1B68984205D195F810
:1033C0002030102B0B4B0AD105E00021FFF7A0FFA6
:1033D0000028F4D1E4E7E4B233F8143005E004F057
:1033E0007F0453F8243023F070433360012070BD14
:1033F0009C8FFF1FFC4000202DE9F74302AEDFF851
:10340000448046F8041D0546174600244FF6F87917
:10341000284601993246FFF7BBFF80B12B7C4FF461
:10342000007202FA03F395F82020E418019B102A99
:1034300014BF42464A469342EAD33C600120BDE8AD
:10344000FE8300BFF8FFFF0F0129F8B504460D46C3
:10345000174633D9C368013399422FD890F82030EA
:10346000C669102B01D10B0A00E0CB099E19144B41
:103470001B689E4205D194F82030102B114B0BD1C4
:1034800006E030460021FFF743FF0028F3D1F8BDE6
:10349000EDB223F8157003E005F07F0543F82570C1
:1034A000094B1A7842F001021A70237E012B03D9CE
:1034B000A368F618054B1E600120F8BD0020F8BD7A
:1034C0009C8FFF1FFC400020FC420020F4400020A5
:1034D0002DE9F74F156806468A4617461DB1013596
:1034E0004FF0000905E04B1ED3F10009056859EBC8
:1034F0000309F3682C4603F1010B4FF00008F36851
:1035000098451CD25C4501D9022425463046214607
:1035100001AAFFF73DFF90B1019A631C0AB11D4655
:1035200002E05B1B534503D008F101080134E6E7D4
:10353000304621466FF07042FFF786FF58B90020F1
:103540001CE004F1FF38304641462246FFF77CFF7D
:103550000028F4D04446AC42F3D8396821B93D6024
:10356000B9F1000F07D108E030462A46FFF76CFF9B
:103570000028F4D1E3E7013535600120BDE8FE8F76
:10358000F7B502230F4F036005460C464FF6F87659
:103590002846214601AAFFF7FBFE80B128462146B6
:1035A0000022FFF751FF50B195F82030019C102BFD
:1035B00014BF3B4633469C42EAD3012000E0002082
:1035C000FEBD00BFF8FFFF0FF8B53B4B0446196086
:1035D0001546CAB1042A01D90020F8BD00200146D1
:1035E000FFF796FE0028F7D0344B03EB051505F5E1
:1035F000D475AA795206EFD1D5F81220632AEBD9F7
:10360000D5F80E50002DE7D028460021FFF780FEA8
:103610000028E1D0294BB3F80B20B2F5007FDBD1B5
:103620001A7C002AD8D0D9890029D5D05B7B002B01
:10363000D2D02276002223712274012003E0511C93
:10364000072A2174C8D8227C00FA02F18B42F6D1F5
:103650001A4BD98A01B9596ADE89A160AE19E661AF
:10366000B3F811001F7C6084400107FB016100F288
:10367000FF10616201EB50216161B3F813300BB9A7
:103680000E4B1B6A691ACB1823FA02F240F6F47348
:103690009A42E26001D80C2309E04FF6F4739A4293
:1036A00001D8102303E0054BDB6A6362202384F812
:1036B00020300120F8BD00BFF8400020FC40002071
:1036C000094B1B7813B9094B1B782BB1084A1378A7
:1036D000202B03D901230371002070470548C154F2
:1036E00001331370012070476243002025430020FE
:1036F00063430020044300207047FFFF024B18780B
:10370000024B1B78C01A70476143002060430020C1
:10371000064A074913780978994204D90549C85CD3
:103720000133137070474FF0FF3070476043002043
:103730006143002026430020054B064A1B7812787F
:103740009A4202D9044AD05C70474FF0FF3070476C
:1037500060430020614300202643002038B50E4B13
:103760001B78144613B90D4B1B788BB10C4B1D788D
:10377000C5F121039C4202D9012202711C4609486D
:103780002246401905F00CF9054B2D191D7000E07B
:103790001C46204638BD00BF624300202543002060
:1037A000634300200443002010B5104B1B7813F036
:1037B00020040BD1122000F045FB0D4B1B68A3B178
:1037C0000C4A14700C4A1078984710BD0B4A1378B5
:1037D0000133DBB2012B137002D8094B1B7823B9DC
:1037E0001220BDE8104000F02DBB10BD0360064064
:1037F0000043002060430020614300204C43002030
:1038000025430020002202710273034A4FF47A71AB
:1038100081600260704700BFA89E000010B5374A63
:10382000137803F01001C9B221B903F04002D2B2FB
:1038300042B92EE01021117003F04002D2B2002AEA
:10384000F3D110BD13F004032D4A18D000231370D8
:103850002C4A13702C4B1B68144603B198472278EE
:103860002A4B1AB927491A7001200870284AD0211A
:1038700011701A78274B1A700122274B21E0012181
:103880001170264A1370224BC0221A7002331B7823
:1038900030E01F4A1F4C117811F0100117D013F0BF
:1038A000010310D11C4917480A780078904205D9C5
:1038B000164B9B5C013223700A7000E02370144B9E
:1038C000D0221A7016E0C0231370237812E0144B34
:1038D000122019700322134900F08AFA0F4A207847
:1038E00013781F2B06D80649097819B10E49C85418
:1038F00001331370014B02221A7010BD03600640A1
:10390000FD42002063430020484300200443002080
:1039100002600640046006406443002061430020CA
:103920004C430020A9370000264300200148FFF740
:1039300069BF00BF50430020F0B5304830490368EC
:103940001B06FCD40B6813F08002F8D172B62D4B25
:103950001978002950D02C4908684F688E68CD68C6
:103960000C69381814318019096840190019401879
:10397000C0F34E00254940F400400860C86A0F6B50
:103980004E6B8D6BCC6B381840318019096840192B
:1039900000194018C0F34E001D4940F40040086073
:1039A00001F10811143151F8140C51F8107C51F840
:1039B0000C6C51F8085C51F8044C096838188019EF
:1039C000401900194018C0F34E00124940F400405D
:1039D0000860C86A0F6B4E6B8D6BCC6B381840312A
:1039E00080190968401900194018C0F34E000A49AF
:1039F00040F4004008601A7062B6F0BD24B0034085
:103A000024B00B406643002038B003402CB0034084
:103A100030B003402CB00B4030B00B40224B602242
:103A20001A70E1225A70214B214A1978214B08293A
:103A300001D1012102E00A2907D1392111601322A5
:103A40001A601D4B19605A600BE00C291A4901D10C
:103A5000352000E03D20106012221A60174B0860EC
:103A60001A60174B17491B78174A03B101230B60E3
:103A70001360164B164A1978164B012901D880217C
:103A80000CE0042901D8842108E0082901D8852107
:103A900004E0102901D8862100E087211160196017
:103AA0000D4B01221A70704700400740A08FFF1F86
:103AB00008B003400CB0034008B00B400CB00B4002
:103AC0006943002020B0034020B00B40A18FFF1FAE
:103AD00024B0034024B00B40664300200D282DE99C
:103AE000F0410FD9172801D80E380AE0A0F11A03C7
:103AF000052B01D8093804E0A0F12203062B4DD88C
:103B00001838C0B2274B1C5C274B1B780BB1FFF752
:103B100013FF72B6200614D4244D254E01272C60C5
:103B2000377062B672B62B68190603D5214B186838
:103B30001F4B23E03378002BF1D062B601F084FCF8
:103B4000F0E704F040071C4D1C4EFFB204F03F04A8
:103B50004FF001081A4B1A6817B122F0100201E069
:103B600042F010021A602C6086F8008062B672B6CD
:103B70002B681A060BD5134B1868104B00221A70CD
:103B800062B6114B1B7840FA03F0BDE8F081337840
:103B9000002BDFD062B601F057FCE8E70020BDE85B
:103BA000F08100BFC09E00006643002000B00340CB
:103BB0006843002010B0034000B00B406743002072
:103BC0000CB00B4010B00B4065430020024A137844
:103BD000DB07FCD5704700BF0100024030B5194B30
:103BE00085B06C4603F1100518685968224603C277
:103BF0000833AB421446F7D1134B1B7803F0020392
:103C0000DBB2BBB1114B80221A7033221A7103222E
:103C1000DA7072B60E4C6B4643F0010320469847AB
:103C200062B6237813F0700304D0237008E0013BE0
:103C300003D105E0044944F621630A78D207F6D59A
:103C400005B030BDD89E00000100024007000240D0
:103C500000000240B0F5006F10B5044609D2064BD3
:103C60001B78D90701D4FFF7B9FF04F1A0542078DD
:103C700010BD002010BD00BF01000240B0F5006F74
:103C800038B504460D460FD2084B1B78D90701D42E
:103C9000FFF7A4FF04F1A0542378AB4204D02570B1
:103CA000BDE83840FFF792BF38BD00BF01000240B9
:103CB000024B1A6801321A60704700BFF4430020BB
:103CC00038B50B4C25462368580301D500F090FB0E
:103CD0002B68590501D501F0A7FD2B681A0501D500
:103CE00001F0E0FF2368DB04EDD502F0B3F9EAE769
:103CF0003480044008B5FFF7E3FFFFFF014B1022BB
:103D00001A807047002005407047FFFF024A136881
:103D10001818106018467047A48FFF1FFEE7FFFFBA
:103D2000EFF313839BB9EFF3108098B9EFF305839A
:103D300023B10F2B04D9084A985C01E04FF480703E
:103D4000EFF311833BB1984228BF184670474FF0FC
:103D5000FF30704718467047F0E300E0002300E0B2
:103D60000133C25C002AFBD11846704710B500230E
:103D7000B0FBF2F402FB1400092801D8303000E057
:103D80003730C85420460CB10133F1E7CA185470DB
:103D9000224605E0885CCC5C8C54C8540132013B5F
:103DA0009A42F7DB084610BD031E10B50C4603DB34
:103DB000BDE81040FFF7DABF2D2001F8010B584293
:103DC000FFF7D4FF204610BD084B4FF400021A60E5
:103DD0004FF080721A604FF000721A604FF08062EC
:103DE0001A604FF000621A60704700BF08E100E0FF
:103DF000212830B521D8042A1FD8DFE802F00709AE
:103E0000050B03000B2306E00A2304E0082302E06D
:103E10000C2300E00923094A02EBC002526872B683
:103E20001468074D24F47024146044F0807444EA4C
:103E3000034345F82010136062B630BDE89E0000D1
:103E40006C430020094B03EBC0035B6872B61A6831
:103E500022F0877222F4803242F080721A60044BA2
:103E6000002243F8202062B6704700BFE89E0000A1
:103E70006C430020114B10B51C68E0041C6004D595
:103E80000F4BDA680AB1DB689847A10404D50C4BE4
:103E90001A690AB11B699847A20604D5084B1A6E25
:103EA0000AB11B6E9847E30606D5054BD3F884206C
:103EB00012B1D3F88430984710BD00BFA0900440E1
:103EC0006C4300201F4B10B51C68E0031C6004D538
:103ED0001D4B1A680AB11B689847A10304D51A4BF9
:103EE0005A680AB15B689847E20704D5164B1A6C0A
:103EF0000AB11B6C9847A30704D5134B5A6C0AB13F
:103F00005B6C9847200704D50F4B9A6C0AB19B6CE9
:103F10009847610704D50C4BDA6C0AB1DB6C984703
:103F2000220304D5084B5A6E0AB15B6E98476303AF
:103F300006D5054BD3F8802012B1D3F880309847CE
:103F400010BD00BFA0A004406C4300202C4B10B556
:103F50001C6820071C6004D52A4B5A6A0AB15B6AA8
:103F60009847E10604D5274B9A6A0AB19B6A98479D
:103F7000620604D5234BDA6A0AB1DB6A9847230646
:103F800004D5204B1A6B0AB11B6B9847A00604D5C9
:103F90001C4B5A6B0AB15B6B9847E10704D5194B70
:103FA000DA6B0AB1DB6B9847A20704D5154B9A6D03
:103FB0000AB19B6D9847630704D5124BDA6D0AB1BD
:103FC000DB6D9847A00504D50E4BDA6E0AB1DB6EA7
:103FD0009847E10504D50B4B1A6F0AB11B6F984740
:103FE000620504D5074B5A6F0AB15B6F98472305EA
:103FF00004D5044B9A6F0AB19B6F984710BD00BF60
:10400000A0B004406C4300201E4B10B51C68E007B4
:104010001C6004D51C4B9A680AB19B68984721061E
:1040200004D5194B5A690AB15B699847E20604D571
:10403000154B9A690AB19B699847630704D5124BDF
:10404000DA690AB1DB699847200704D50E4B1A6A72
:104050000AB11B6A9847A10704D50B4B9A6B0AB1AA
:104060009B6B9847A20604D5074B1A6D0AB11B6DCE
:104070009847630604D5044B5A6D0AB15B6D9847A7
:1040800010BD00BFA0C004406C430020094B10B518
:104090001C68A2071C6004D5074B9A6E0AB19B6E80
:1040A0009847E30704D5044BDA6F0AB1DB6F9847F2
:1040B00010BD00BFA0D004406C430020044B054954
:1040C00000221A600A60044A106010221A607047C9
:1040D00014D0034004D0034000D00340212810B581
:1040E00018D80D4A52F8303093F880423CB1012282
:1040F00011B183F8802010BD83F8002110BD02EBC0
:10410000C00043681A6811B142F0030201E022F0D6
:1041100002021A6010BD00BFE89E0000212805D8E9
:10412000034B53F8303093F800027047002070477B
:10413000E89E0000212816D80B4A02EBC003012993
:104140005B6852F8302004D182F880124FF4A272DA
:1041500008E0002082F8800211B94FF4807201E07B
:1041600040F203121A607047E89E000072B60B4BD3
:104170000B491A680B4B1B68096862B6490102D5E6
:10418000322A88BF0133C2F5BB32FF326021B2FB55
:10419000F1F24FF47A7000FB0320704718E000E062
:1041A00004ED00E0F443002070B50446FFF7DEFFA5
:1041B00005466CB140F2E736FFF7D8FF401BB0422E
:1041C00003D9013C04D005F57A7501F03DF9F3E718
:1041D00070BDFFFF10B5FFF7F7FD164B164A174CE1
:1041E00000204BF6FF71186059602823136093601C
:1041F00013619361136293621363936309222260D4
:104200000F4C20606160A360236144F8042C0D4CC6
:1042100020600D4801600D490B608B600C4B1A60EB
:10422000FFF7FCFB0420FFF7BFFFBDE8104000F0E4
:10423000FBBB00BF048003400C80034000800340B0
:104240000490034004800B4008800B400C800B401E
:1042500000800B40F0B50C4B0C4C1A7842F0020574
:1042600004EBC50682F00102706009481A700678F6
:10427000002E0CBF8827C82747EA014186F00106B7
:1042800044F835100670F0BD604400200080FF1F28
:10429000D8440020431E032B10B510D872B6094A2B
:1042A00052F8230048B1416842F82310064A0188B9
:1042B00032F81340611A22F8131062B610BD0020C4
:1042C00010BD00BF504400200847002001380328DB
:1042D0000BD872B6064B53F82030002001E05B6823
:1042E0000130002BFBD162B670470020704700BF41
:1042F000A444002070B572B6184E194C01239A19C7
:1043000012F8012C02F00802D2B2E2B19900144A6C
:1043100054F831502DB902EB431308305860114B5B
:1043200009E041F0010154F8315065B902EBC103D5
:10433000083058600C4B42F831300C4B1A78013A77
:104340001A7062B670BD0133052BD8D162B6074B27
:1043500000221A70BDE8704000F0D2BB20A000001F
:104360000080FF1F88004000C8004000CE440020AD
:10437000431E032B30B532D84001194A40F01000DB
:10438000101872B6174CE25C032A09D8DFE802F075
:10439000160218050830022213E00830042210E04B
:1043A0001148124A50F8234014B940F8231002E093
:1043B00052F82300416042F823100FE0032200E08E
:1043C0000522E25410F0080F01F108030A88436047
:1043D0000CBF8823C82343EA0243036062B630BDA2
:1043E0000080FF1F0C440020A4440020B44400209F
:1043F0002DE9F74FA54EA64C357805F00403DBB246
:10440000ABB1A44B1B7883B1A34A137823B1013B12
:10441000DBB2137003B900BEA04A13782BB1013B85
:10442000DBB213700BB900F07FFC0423337005F08E
:104430000802D2B2002A00F08082994B1B781D0935
:104440004FEA930940F0FE8104EBC903586854F821
:104450003930C3F38303013B0C2B00F2F081DFE81A
:1044600013F0A901A901EE01EE01EE01EE01EE014A
:10447000EE01C501EE01EE01EE010D004368894930
:1044800002684B60884B894844F83930884D0A608F
:10449000002303600120287092B240F28165AA4295
:1044A0002361A36117D8B2F5D06F80F02C81B2F5EB
:1044B000817F00F0DC8006D8802A00F0C280822A4A
:1044C00040F03D81C1E040F202339A4200F00C819D
:1044D000B2F5A06F16E042F22105AA4200F0678112
:1044E00008D8B2F5086F00F0A680B2F5106F40F062
:1044F00026810AE042F22120824200F01C8142F231
:1045000021339A4240F01B811DE18A78614B604D56
:104510001A702B6A180603D5686A083800F0F0FA9A
:10452000644A08359542F4D1DFF8B091DFF8B0B1B4
:104530000025A846CA4655F8090005E043680093DF
:1045400000F0DEFA009B18460028F7D15A4B4AF8D3
:10455000050045F80B00E85807E042680093019217
:1045600000F0CEFA019A009B10460028F5D1585170
:10457000524BE850524B23F81800524B18F80320C6
:10458000023A032A08D8DFE802F0020402040022FB
:1045900000E0012203F8082008F101080435B8F111
:1045A000040FC8D1484BDFF83C9100221A70012556
:1045B0009846464B05EB0902EB1812F8012C9B00BC
:1045C0001A7002F00802D2B23AB300F07BFAAB00E4
:1045D00038B104EB4512083050603D4A44F83320AE
:1045E00006E044F8330098F80030013388F80030D2
:1045F00000F068FAAB0043F0010338B104EBC302EA
:1046000008305060284A44F8332006E044F833006C
:1046100098F80030013388F80030AA0042F0020117
:10462000013542F003020023052D44F8313044F8EF
:104630003230BED188E0174B264D1B782B700346D5
:1046400085E0244D2B706B7080E08A88042A00D9A5
:1046500075E0204D2B706B701F4B9200D3181B78A8
:1046600003F00203DBB2002B70D028706EE08A8862
:1046700002F07F03042B62DC4B8803B15FE0910002
:10468000154A8A18117821F0020156E0802007406F
:104690000080FF1FD744002061440020D94400203F
:1046A00090200740C4440020C8004000F843002088
:1046B000D84400208080FF1FA4440020B444002080
:1046C000084700200C440020CE44002030C80110D0
:1046D00088004000CF440020C02007405044002004
:1046E000FC43002020A000008A8802F07F03042BF6
:1046F00025DC4B8803B122E09100A14A8A18117889
:1047000041F0020119E04A889E4B898853F8085C01
:10471000A3F10C009DB133F80CCC944509D133F8CA
:104720000ACC8C4505D1120A032A0CBF2B780389C9
:104730000DE00C33EAE78978934A117004E0904B5E
:104740000F221A7033E000231D4600E002238F4A37
:10475000B2F806904B4538BF9946B9F1400F34BFC7
:10476000C8464FF0400828464146FFF773FDB9EBB5
:104770000809454403D1B8F1400F07D017E0B9F15B
:10478000400F34BFC8464FF0400800E0C8462846F6
:104790004146FFF75FFDB9EB0809454402D1B8F186
:1047A000400F04D17A4B7B4A1D60A2F80090012291
:1047B000794B43E0754B1A8842F221039A4211D19A
:1047C000764A0023C15C99540133072BFAD1734B0D
:1047D0001B68862B02D1724B0F221A7000200146F3
:1047E000FFF738FD6F4B44F8393028E0684BD3F8B9
:1047F0000080B8F1000F18D0DFF89891B9F800A048
:10480000BAF1400F34BF5546402540462946FFF7D0
:1048100021FDC5EB0A039BB2A9F800300BB9402D6E
:1048200001D108EB05035A4A1360584B1A88B2F5B8
:10483000A06F04D100225A709A785B4B1A70012243
:10484000554B6DE004EBC90803F00803D8F80420C9
:10485000013DD9B2A2F10800EDB2002937D000F035
:104860004FF95248524B50F82510F1B14A6840F8C0
:10487000252001F10802C8F804205A5D032A0BD84C
:10488000DFE802F002040608032204E0022202E04C
:10489000052200E004225A5518F0080F0A880CBFC0
:1048A0008823C82343EA024342E05A5D032A07D81B
:1048B000DFE802F040400204002206E0012204E0AA
:1048C00018F0080F0CBF022203225A5532E054F8A8
:1048D00039301B0C22F8083C23B322F8061C42F89E
:1048E000041C344A344952F8257017B942F825009F
:1048F00002E051F825205060304A41F8250032F896
:1049000015105B1822F8153000F0DCF818B10830EB
:10491000C8F8040006E02A4B44F839001A7801323E
:104920001A7007E01F4B274A18F0080F08BF1346FC
:1049300044F83930082333705EE5E90752D516494B
:104940002048214C02230B70204B1A70204B18601A
:10495000986020481A61D8609A615C60084B0D200D
:1049600018701D48FF23037000F8083C02741B4AAE
:1049700013701B4B9F221A7001230B704BE000BF7A
:10498000C020074030A00000E8440020C4440020BC
:10499000F8430020CC44002094200740104700201A
:1049A00061440020C800400098200740A444002033
:1049B0000C44002050440020FC4300200847002005
:1049C000CE440020880040001044002060440020B5
:1049D0000080FF1F64440020882007408C2007408F
:1049E000842007402B0605D50C4B0D221A7080221F
:1049F00003F8402C05F00203DBB22BB1084B1A7808
:104A00001A70022203F8082C05F01005EDB215B15A
:104A1000044B10221A70BDE8FE8F00BFC020074073
:104A2000882007408020074008B501F069FB00237B
:104A30001E491A465A50C8180833882B4260F9D1CB
:104A40001B4B1A6842F480221A601A4B80221A709B
:104A50001978184A0906FBD4144B1749C3F30720E9
:104A60000870C3F307401B0E08750B76FF2301F88F
:104A70001C3C01F8143C01F88C3C137843F04003D3
:104A800013700021012302F8783C02F80C1C02F894
:104A9000883C0A4B70226FF4507C1A7063444FF4C8
:104AA00000721A60064B10221A7008BD0080FF1FAA
:104AB000348004400C2107409C20074049E400E07A
:104AC0000821074072B60C4A1168B1FA81F30B2B2A
:104AD00002D962B6002070474FF0004020FA03F080
:104AE00021EA0001116062B6044948225343C81804
:104AF0000022CA5042607047A88FFF1F008CFF1F22
:104B00000C4B4822C31AB3FBF2F30B2B11D80A4A01
:104B1000127822B1094A12780AB1FFF7EBBB72B6DC
:104B2000074A4FF0004121FA03F31168194311605D
:104B300062B67047008CFF1FCE440020D74400208F
:104B4000A88FFF1F38B5114C23684BB10F4D286853
:104B50004288811801320C7A01888A4212D30CE013
:104B60000B4B1B7813B94FF0FF340CE00320FFF719
:104B700091FB20600028E9D1F5E7FFF7C1FF002392
:104B80002B6000E04280204638BD00BFE444002096
:104B9000D744002010B50C4C23681BB10A4B1B688E
:104BA0006BB902E0094B1B7813B94FF0FF3010BD11
:104BB0000320FFF76FFB20600028EFD1F5E75A884C
:104BC0009B18187A10BD00BFE4440020D744002091
:104BD000044B9888044B1B681BB11A885B88D31A56
:104BE000C018704708470020E44400202DE9F8432E
:104BF0002D4B2E4DDFF8C08001220C461A70064660
:104C00004BE02B682BBBDFF8A0904AF2F92798F80D
:104C1000003013B9244A137014E00420FFF756FB48
:104C2000072808D8012389F80030FFF74BFF2860D8
:104C300078B989F80000013F1D4B01D01A782AB1DC
:104C400001221A704FF0FF30BDE8F88300F0FCFB42
:104C5000DDE72968164A488800231370C0F1400236
:104C6000944238BF224600F108078018CF194880C7
:104C7000A41A02E0F05CF85401339342FAD1F6181A
:104C80004B883F2B06D940230B800420FFF770FB95
:104C900000232B60074B05221A70002CB1D1024B68
:104CA00020461C70BDE8F883DA440020DC44002074
:104CB000E0440020D9440020D744002007B502ABCF
:104CC000012103F8010D1846FFF790FF0EBDFFFF0D
:104CD000F8B5114B1B78EBB1104E114B3468114DE8
:104CE00001271F704CB1638800272F700420238098
:104CF0002146FFF73DFB376009E0FFF7E3FE014681
:104D000020B104202C70FFF733FB00E02F70044B20
:104D100000221A70F8BD00BFD7440020DC440020F8
:104D2000DA440020D944002038B50D4B1D78ADB9C8
:104D30000C4C216831B14B8804200B80FFF718FB25
:104D4000256038BDFFF7BEFE014620B10420BDE856
:104D50003840FFF70DBB044B01221A7038BD00BF6D
:104D6000DA440020DC440020D9440020F0B5C029FA
:104D700028BFC02172B6124B1860124B00221A6075
:104D80005A609A60DA601A615A6101260AE0540991
:104D900002F01F0753F8245006FA07F73D4343F883
:104DA000245001328A42F2D100234FF4817203E091
:104DB00002FB0304637001338B42F9D162B6F0BD8C
:104DC000F4440020FC44002010B572B61E4B186855
:104DD000A0B9586850B9986850B9D86850B91869DE
:104DE00050B95869143348B962B610BD043305E0B0
:104DF000083303E00C3301E01033FFE7B0FA80F131
:104E00004FF0004222FA01F220EA020018600F4837
:104E100002780132D2B2027062B60B481B1A9B10A4
:104E20005B01591A4FF481734B43094903F5F95358
:104E30001E3309680124CC54C818064B19789142D6
:104E400038BF1A7010BD00BFFC440020F944002098
:104E5000F4440020F0440020417872B60378012B1E
:104E600002D9013B037011E04A11094BC9434FF0CD
:104E7000004001F01F0120FA01F153F8220008431D
:104E800043F82200034B1A78013A1A7062B6704751
:104E9000FC440020F944002030B5C3680EE0187AC5
:104EA00090420AD158685C7A006950F8245025B9BC
:104EB00040F82410087801300870DB68002BEED130
:104EC00030BD437A99424FF0000305D2026952F88F
:104ED000210042F8213070471846704738B5437AB0
:104EE000994201D3002418E0036953F821400022BD
:104EF00043F82120002CF5D02378012B0DD9FFF7A2
:104F000063FF054628B10230A11C4FF4807203F004
:104F100047FD2378013B23702C46204638BD10B551
:104F20004168427A4B7A9A420ED872B60268D368C8
:104F300013B9D06004E02346DC68002CFBD1D860B4
:104F4000012313720B7262B610BDFFFF074B1A7874
:104F50004AB9074AFF211170064A4FF080410120EB
:104F60001160187070470020704700BFF84400209F
:104F70005EE400E008E100E0F8B5164B164D1A6853
:104F800042F080721A60154B1A6842F001021A60F2
:104F9000134B2E681C680FE0237A63B121682F68D9
:104FA0000B68204698472A68E388D21B12099A4268
:104FB000A28088BFE2806469002CEDD1064B094ACB
:104FC0001B689B1B1B091380074A11888B4288BFF3
:104FD0001380F8BDFCED00E0041000E0001000E0DC
:104FE000EC44002014450020FA44002030B572B68D
:104FF00009B9026822B9264A00231188144611E033
:1050000003790F2BF7D82249098841FA03F1C90720
:10501000F1D503F1007303F59063B2EB431FEAD1BE
:1050200062B630BD41FA03F212F0010227D1012528
:1050300005FA03F52943218062B6164903710C680D
:1050400044F002040C6051F8044C44F0020441F8AE
:10505000044C114982240C608B768B770B76CB77CE
:1050600003F1007303F590635B0103601A605A60FB
:105070009A60DA601A615A619A61DA6130BD01336F
:10508000102BCFD162B600220260037130BD00BF89
:1050900018450020408004400080004003790F2B19
:1050A00010D8094A137072B6084B0279012101FA2F
:1050B00002F2198821EA02021A8062B610230371F3
:1050C00000230360704700BF1A800040184500208D
:1050D00008B5FBF759FEFCF77BF800F0B5F9FAE7E5
:1050E000F8B506460C468F18002506E0336814F81C
:1050F000011B1B68304698472D18BC42F6D1284644
:10510000F8BDFFFF07B5054B1B88ADF804300368F9
:1051100001A95B68022298470EBD00BFF89F0000FE
:10512000F0B505468BB022B90368C9B21B68984731
:105130002CE0012A08BF0A2221B930228DF825204F
:10514000212413E02124B1FBF2F002FB1011C9B2BB
:10515000092901D8303100E037310AAF3E1906F88D
:10516000241C014610B1013CE4B2ECE733B1013C30
:105170000AAAE4B213192D2203F8242C2B6801AFDC
:105180005B6828463919C4F1220298470BB0F0BD7C
:10519000002902DA49422D2300E000230A22FFF70A
:1051A000BFBF08461146FFF721BD0846FFF786BD81
:1051B000FFF78EBDFFF7EEBCFFF7C4BCFFF708BDDD
:1051C0007047FFFF044B00221A711A73034A4FF411
:1051D0007A7199601A6070471C45002008A0000091
:1051E00010B5029C401AE41A4443521A94FBF2F0A0
:1051F000C01810BD10B50446006803F0CBF8204677
:1052000010BD38B504460D460068013103F052FD6B
:1052100010B184E82100012038BD43688B4210B5ED
:10522000044600D306E0FFF7ECFF20B1A3680BB9FA
:1052300022681370012010BDF8B504460F461546CC
:1052400022B9036803B11A7000230BE01146FFF77F
:10525000E4FF064640B9206810B103F09BF82660D1
:1052600000236360A36004E0A5602068394604F071
:1052700093F82046F8BD38B5002304460360436028
:10528000836003730D4639B10846FEF767FD294672
:1052900002462046FFF7D0FF204638BD81420B462C
:1052A00003D009689A68FFF7C7BF7047002310B59D
:1052B00004460360436083600373FFF7EFFF2046FB
:1052C00010BD38B505460C4641B10846FEF746FD0F
:1052D000214602462846FFF7AFFF00E0A9602846B6
:1052E00038BD10B5002386B0044603604360836078
:1052F0000373084601A9FEF757FD204601A9FFF7F1
:10530000E0FF204606B010BD70B504460E46856825
:105310005AB155192946FFF780FF30B12068A368BC
:105320003146C01804F038F8A560204670BD0B4621
:1053300009689A68FFF7E8BF38B505460C4639B1E9
:105340000846FEF70BFD214602462846FFF7DCFF24
:10535000284638BD13B5002304468DF804100122F9
:1053600001A98DF80530FFF7CFFF20461CBD10B511
:105370000446FFF7EFFF204610BD826808B50B46D4
:105380001AB901B103E0012008BD11B9036818780A
:1053900002E0006803F012FFD0F1010038BF0020E6
:1053A00008BD10B58B688468E41AA2420CD8006866
:1053B00068B1096851B180181A4604F04BF8D0F171
:1053C000010038BF002010BD002010BD084610BDF0
:1053D00082688B689A4202D30022FFF7E2BF002066
:1053E000704708B582688B689A420CD3006868B130
:1053F000096851B1D31AC01803F0E0FED0F10100E2
:1054000038BF002008BD002008BD084608BD38B5DB
:105410000C469AB191B181688B4202D3002323706C
:1054200038BDCD1A013A0168954228BF1546C91802
:1054300020462A4604F064F80023635538BD00680E
:1054400008B102F05BBF704708B50E4B1A78C2B9BD
:1054500001221A70FFF7BCFB08B1FFF7B1FE00F0A4
:105460008BF908B100F0E6FE00F0C4FB08B100F0D3
:1054700053FF00F0A9FD08B100F0C0FF014B00226E
:105480001A7008BD2C450020194B1A6842F480623E
:105490001A60184A00231370174A1370174A1370C2
:1054A000174A1370174A1370174B40F213321A60E1
:1054B0004FF451725A60154BC0F344321A70C0F366
:1054C00047125A700221042200F01F0098729A704D
:1054D000D9745A7588221A743C22DA700C4B402217
:1054E0006FF44A711A705B184FF400521A607047DB
:1054F00034800440AF4500202E450020B8450020F0
:10550000B04500202D45002040A0044000A00640EA
:105510002DE400E0134A937800F0030103F0EC035C
:105520000B43410748BF43F01003937000F00F0393
:10553000042B0C4903D18B7943F040038B715379D1
:10554000C20603F0EF03074A48BF43F0100353714C
:105550009379800603F0EF0348BF43F01003937183
:10556000704700BF00A006400E4B1B68580510B5E1
:1055700003D410BDFFF768FF00E00B4C2378002B2D
:10558000F8D10A4A4FF400511160094A0949D37011
:1055900040F203120A604A60074A1370074A137008
:1055A00010BD00BF348004402D45002084E100E0A0
:1055B00000A0064040A00440AF4500202E4500203A
:1055C00038B5094B04461D78002DFCD12046012139
:1055D000FEF7B0FD20462946FEF780FD034B53F849
:1055E0003420034B1A6038BD2D450020E89E000092
:1055F000B44500201D4B1B685A052DE9F0410746B4
:1056000031D51B4B1B680BB101221A70194B1A4D77
:105610001C781A4EDFF8688001343F2C88BF0024C4
:1056200014E0FEF77DFB40280CDC33791B060DD51A
:105630002B7801333F2B88BF002318F80320F27129
:105640002B7003E0FF2801DDFFF7FEFE2B78A3425D
:10565000E7D00B4B1F550B4B01221A70054B1C70EA
:10566000064BBC22DA70BDE8F08100BF34800440F4
:10567000B4450020B8450020B045002000A00640F9
:105680002F4500202D4500202DE9F84F254B1B68A4
:1056900006465805894642D5234B1B680BB10122AB
:1056A0001A70224DB346AA4632E0214B1C782F785F
:1056B00001343F2C88BF0024A74209D01BF8012BDE
:1056C0001C4B1A551C4B01221A70194B1C701FE001
:1056D0001A4BBC22DA709846FEF722FB40280FDCFA
:1056E00098F8043019060FD52B78124A01333F2B56
:1056F00088BF0023D25C88F807208AF8003003E0D6
:10570000FF2801DDFFF7A0FE2B78BB42E4D0D5E7F0
:1057100006EB09039B45C8D3084BBC22DA70BDE8F1
:10572000F88F00BF34800440B4450020B04500200D
:10573000B84500202F4500202D45002000A0064040
:1057400010B5044C01E0FFF77FFE2378002BFAD15F
:1057500010BD00BF2D450020054B064A1B78107870
:10576000834201D33F3000E00138C01A704700BFC8
:10577000B8450020B0450020044B1878044B1B7836
:10578000984238BF4030C01A704700BFAF45002074
:105790002E450020084B094A19781378994207D002
:1057A00001333F2B88BF00230549C85C1370704745
:1057B0004FF0FF30704700BFAF4500202E4500205E
:1057C0006F450020074B1A78074B1B789A4206D08A
:1057D00001333F2B88BF0023044AD05C70474FF051
:1057E000FF307047AF4500202E4500206F45002058
:1057F000094B1B685B050ED5084BDA7802F0CB022B
:10580000DA7040225A74DA7842F03402DA70044BCB
:105810001A78044B1A7070473480044000A0064088
:105820002E450020AF45002070B52D4B1A7912F09F
:10583000300F1DD072B6997D21B9DA7940225A74A1
:1058400062B615E062B6274A27481278274D0078DD
:105850001C46531C3F2B88BF0023E67983421CBFA4
:10586000EE541A46013911F0FF01F2D11D4B1A70A6
:105870001B4AD37819465BB2002B1BDA1379180642
:1058800018D51B4B1B4C1D781B4B1B78AB4209D00A
:1058900001333F2B88BF00231079E05CD071107D6D
:1058A0000728F3D9144A13700D4B1A79120601D543
:1058B0007C22DA7001F04003DBB27BB1084B1A792D
:1058C00002F04002D2B2194642B10C4B00221A70CB
:1058D0000B4B1B6803B11A703C23CB7070BD00BF2B
:1058E00000A00640AF4500202E4500206F45002057
:1058F000B84500202F450020B04500202D45002050
:10590000B4450020184B1A6842F400621A60174A26
:1059100000231370164A1370164A1370164A137038
:10592000164A1370164B40F213321A604FF451723C
:105930005A60144BC0F344321A70C0F347125A70C5
:1059400000F01F000422022198729A70D9745A75CF
:1059500088221A743C22DA700B4B40221A700B4BCF
:105960004FF400421A607047348004402346002000
:10597000BA4500202C46002024460020B9450020CE
:105980000CB0044000B006402FE400E004E100E069
:10599000134A937800F0030103F0EC030B43410733
:1059A00048BF43F01003937000F00F03042B0C4921
:1059B00003D18B7943F040038B715379C20603F016
:1059C000EF03074A48BF43F01003537193798106F0
:1059D00003F0EF0348BF43F010039371704700BF1B
:1059E00000B006400E4B1B68180510B503D410BD5F
:1059F000FFF72AFD00E00B4C2378002BF8D10A4A70
:105A00004FF400411160094A0949D37040F2031272
:105A10000A604A60074A1370074A137010BD00BF3E
:105A200034800440B945002084E100E000B0064025
:105A30000CB0044023460020BA45002038B5094B7D
:105A400004461D78002DFCD120460121FEF772FB93
:105A500020462946FEF742FB034B53F83420034B04
:105A60001A6038BDB9450020E89E00002846002095
:105A70001D4B1B681A052DE9F041074631D51B4B1C
:105A80001B680BB101221A70194B1A4D1C781A4E63
:105A9000DFF868800134272C88BF002414E0FEF76B
:105AA0003FF940280CDC33791B060DD52B780133E8
:105AB000272B88BF002318F80320F2712B7003E016
:105AC000FF2801DDFFF7C0FC2B78A342E7D00B4B8A
:105AD0001F550B4B01221A70054B1C70064BBC2244
