:1000000000800020BD010000793500007935000036
:10001000793500007935000079350000453500005C
:1000200045350000453500004535000079350000B4
:100030007935000045350000793500003535000080
:1000400079350000793500007935000079350000F8
:1000500079350000793500007935000079350000E8
:1000600079350000793500007935000079350000D8
:1000700079350000793500007935000079350000C8
:1000800079350000793500007935000079350000B8
:1000900079350000793500007935000079350000A8
:1000A00039180000793500007935000079350000F5
:1000B0007935000079350000793500007935000088
:1000C0007935000079350000793500007935000078
:1000D0007935000079350000793500007935000068
:1000E0007935000079350000793500007935000058
:1000F0007935000089500000793500000555000071
:1001000079350000B55800007935000079350000D8
:100110007935000079350000793500007935000027
:100120007935000079350000793500007935000017
:100130007935000079350000793500007935000007
:1001400079350000793500007935000079350000F7
:1001500079350000793500007935000079350000E7
:1001600079350000753C00007935000079350000D4
:1001700079350000793500007935000079350000C7
:1001800079350000793500007935000079350000B7
:10019000793500007935000079350000F936000026
:1001A00049370000D13700008D38000011390000B8
:1001B0007935000079350000FD470000544B4CF2C2
:1001C000205210B51A804DF628121A8000BF00BFC9
:1001D00003F0D6F94F4B4FF010621A604E4A9A6006
:1001E0004E4ADA604E4B1A6812F4807204D14D49BF
:1001F0000A604FF4A8521A604B4B1A7802F00802BA
:10020000D2B21AB11A7842F008021A70474B484825
:10021000484C2A221A700023474A02E01959995083
:10022000043399188142F9D3444B454A002101E037
:1002300043F8041B9342FBD34249434800231A5816
:100240005A500433B3F5DE7FF9D1404B404A802148
:1002500003F8011B9342FBD13A4A3E4B1A603E4BD6
:100260000A221A703D4B24221A70A02203F8012C96
:100270003B4A137803F00203DBB2002BF9D0384A73
:10028000137803F01003DBB2002BF9D1344A137852
:1002900003F00C03082BFAD1324B03221A704022D0
:1002A0005A702F4A137803F02003DBB2002BF9D0E9
:1002B0002B4A137803F04003DBB2002BF9D02A4B12
:1002C0002A4A1A6002225A60294B20221A70244AB4
:1002D000137803F00C030C2BFAD1264A264B1A6034
:1002E000264B274A1A60072243F8042C62B603F013
:1002F000B3FB0C4B1B68DC0702D5224803F020FB44
:1003000007F044FC03F042F904F024FBFEE700BFD1
:100310000E20054030800440823F04000100002B85
:1003200010D0034014D0034002D0074000E0074043
:100330002095FF1F149B0000608FFF1F2095FF1F5B
:1003400024F2FF1F008AFF1F0000000000E400E00D
:100350005FE400E008ED00E0005006400140064088
:10036000064006400440064044800440000003016B
:1003700000400640C01005000480044014E000E086
:10038000FF76010061E36154FFFFFFFFFFFFFFFF06
:10039000FFFFFFFFFFFFFFFFFFFFFFFFFFFFFFFF6D
:1003A000FFFFFFFFFFFFFFFFFFFFFFFFFFFFFFFF5D
:1003B000FFFFFFFFFFFFFFFFFFFFFFFFFFFFFFFF4D
:1003C000FFFFFFFFFFFFFFFFFFFFFFFFFFFFFFFF3D
:1003D000FFFFFFFFFFFFFFFFFFFFFFFFFFFFFFFF2D
:1003E000FFFFFFFFFFFFFFFFFFFFFFFFFFFFFFFF1D
:1003F000FFFFFFFFFFFFFFFFFFFFFFFFFFFFFFFF0D
:10040000FFFFFFFFFFFFFFFFFFFFFFFFFEFFFFFFFD
:1004100008B549F22050074BC1F6FF701B1A062B96
:1004200000D808BD40F20003C0F20003002BF8D052
:100430009847F6E72395FF1F08B549F2205049F287
:100440002053C1F6FF70C1F6FF731B1A9B1003EB1C
:10045000D373591000D108BD40F20002C0F200026F
:10046000002AF8D09047F6E710B549F22054C1F6BB
:10047000FF74237873B9FFF7CBFF40F20003C0F29B
:1004800000032BB149F61430C0F20000AFF3008036
:100490000123237010BD00BF08B540F20003C0F275
:1004A00000034BB149F6143049F22451C0F2000068
:1004B000C1F6FF71AFF3008049F22050C1F6FF7022
:1004C00003682BB140F20003C0F2000303B1984768
:1004D000BDE80840FFF7B0BF38B5054CA4F5165588
:1004E0002046103C04F0E8FAAC42F9D138BD00BF18
:1004F000F8EAFF1F38B5054CA4F516552046103C08
:1005000004F0DAFAAC42F9D138BD00BFACBAFF1F33
:10051000044A10B5044640F8182B01F025FB20468C
:1005200010BD00BF7095000038B5044608460D4662
:1005300003F056F8236802465B6820462946984730
:1005400038BD08B5FFF7F0FF08BD38B5044604F024
:100550001AFA0546204604F037FA401938BD38B576
:100560000446FFF7E1FF0546204604F02DFA28185F
:1005700038BDFFFF044B00681B6882B00193019BEC
:10058000181A02B0704700BFFCEEFF1F044B82B088
:100590001B680193019B591A016002B0704700BFAC
:1005A000FCEEFF1F0F4B41720360002302610372D8
:1005B000C360194603E0026942F823100133427A0E
:1005C0009342F8DB084A136813B9106004E013463D
:1005D0005A69002AFBD15861002343618380C3809C
:1005E000704700BF48920000F4EFFF1F10B50446AB
:1005F000C4F3C001062003F0B3F90520C4F3800161
:1006000003F0AEF90420C4F3400103F0A9F903207C
:1006100004F00101BDE8104003F0A2B9F0B50920D3
:1006200087B002F09DFE0446082002F099FE5B4B65
:100630001A685B4B201853F822300021B0F5806F08
:10064000A8BF4FF4806000934FF480620B4620EA0D
:10065000E07004F027FA534A534913680C68039377
:10066000524B039E1D68A0420AD0741B0A2C07D966
:100670001268086004924E49049A012008701A60BA
:10068000072002F06DFE0446062002F069FE454B8D
:10069000484E1B680593454B05991A683368201826
:1006A000B0F5806FB4BF04464FF4806424EAE4746C
:1006B000E31A002BB8BF5B42042B18DD8B1A0A2B00
:1006C00015D9364B3C481A68374B1B684B2101FB48
:1006D00002323A4B53F8225000F0FEFFAF0A674354
:1006E000B0FBF5F0364B346005FB00751D603548F6
:1006F00000F0FAFC20B1334800F0D8FC324B1870FF
:10070000324800F0F1FC20B1304800F0CFFC2E4B15
:1007100018702F48FFF72EFF0446082003F040F919
:1007200004FB00F12A48FFF731FF2948FFF722FFB9
:10073000B0F5C87F17D9194B25481A680132072A26
:10074000C8BF00221A601A4B012200211A70FFF75D
:100750001DFF00211F48FFF719FF104B1E481A7894
:10076000002100F088FC1D4800F0BEFC98B11B4839
:1007700000F09CFC01280ED1084B17481A68013282
:10078000072AC8BF00221A60094A012111700021FE
:100790001A7800F070FC07B0F0BD00BF28BBFF1F47
:1007A00050C5FF1FFCEEFF1F1CEBFF1F08EBFF1FD8
:1007B000648FFF1F14C5FF1F2CBBFF1FB4BBFF1F9F
:1007C000FCBAFF1FA4BBFF1F34EBFF1F3CC5FF1F7C
:1007D00038EBFF1F4CC5FF1F3CEBFF1F0CEBFF1F4F
:1007E0002DE9F04F9DB0804689460DF149076249D9
:1007F0006248FFF7A6FE0CA84146012201F0E6FA86
:100800000CA801F0F6F938B95D495C48FFF7A7FE7E
:100810000CA801F0A9F9ABE00CA801F0ABF9014676
:10082000684604F08AF957495448FFF78AFE69463A
:100830005248FFF78AFE6846534904F002FA00283E
:1008400040D0524908A804F078F9684608A904F095
:10085000EFF9044608A804F02FF99CBB4C484D4D15
:10086000DFF848A104F01BFA4B260446464355F82E
:10087000200030180AEB001B0CA801F07BF90146A0
:10088000584604F075F955F824B00CA801F08EF91B
:10089000B344414B3E4943F82B0055F824003F4BED
:1008A000301803EB001004F05BF955F824103348BE
:1008B00071180AEB0111FFF748FE55F82430013397
:1008C00045F824300CA801F057F9002846D03449E7
:1008D00004A804F032F9684604A904F0A9F978B92B
:1008E00008A8304904F029F9684608A904F0A0F9DD
:1008F000D0F1010408A838BF002404F0DDF800E0BE
:10090000002404A804F0D8F844B30CA801F032F98C
:1009100001461F4804F02CF99DF834308DF854300E
:100920000E9B16939DF83C308DF85C301E4B0DF1FC
:100930003D0214930DF15D0352F8041BBA4243F8D3
:10094000041BF9D13A781A70139B14A809F101011C
:100950001B93FFF745FF14A801F006F90CA801F05E
:100960003CF9684604F0A8F80CA801F0FDF83EE751
:100970001DB0BDE8F08F00BFD192000024F0FF1F32
:10098000509200005E92000094BBFF1F689200002E
:1009900024EBFF1F50C5FF1FB4BBFF1F88C5FF1FFF
:1009A0006A92000070920000309600003C95FF1F94
:1009B00030B504468BB00A220D4601A8214604F04A
:1009C000E7F801A80B4904F00EF94B230A4903FB91
:1009D000045401EB041101A804F000F901A805A9D1
:1009E0001122002304F043F901A804F065F805A8DA
:1009F0000BB030BD769200003C95FF1F2DE9F84FFB
:100A00002A4EDFF8C880DFF8C8900024284929481A
:100A1000FFF797FD2146274804F01CF8254803F00E
:100A2000D3FF56F8041F234804F014F82249214844
:100A3000FFF787FD21491F4803F0A5FF4FF4967A81
:100A40001C481F494FF04B0BFFF789FD0AFB048A36
:100A500000250BFB04FB20E005EB0B073F0109EB36
:100A60000701144803F08FFF16491248FFF769FD8C
:100A700015491048C91903F086FF12490D48FFF7C0
:100A800060FD5AF825100B480A22002303F0AAFF44
:100A900008480C49FFF763FD013533689D42DBDBF5
:100AA0000134082CB2D1BDE8F88F00BF4CC5FF1F40
:100AB0007892000024F0FF1F7D92000094BBFF1F7E
:100AC0007F9200008C9200003C95FF1FB4BBFF1F7B
:100AD00088C5FF1F10B5022088B0002102F06CFF0E
:100AE0000820002102F068FF0920002102F064FFC5
:100AF0000B20012102F060FF0620012102F05CFFC3
:100B00000520012102F058FF0420012102F054FFCA
:100B10000121032002F050FF4E4B1868FFF766FDDD
:100B20004FF4FA6002F082FF4B494C48FFF717FD83
:100B30004B48052103F05CFD4A494848FFF70FFD8B
:100B4000494B4A491A78454842F005021A70FFF7A6
:100B500006FD47480A2101F053F8002867D04549AF
:100B60003E48FFF7FCFC4249434A0123684601F036
:100B7000DBF8424A9DF804301371029B93609DF8A4
:100B80000C3013730DF10D030D3203F10C0153F80A
:100B9000040B8B4242F8040BF9D11B78374C1370CD
:100BA000079B6846E36100F0DFFF2C483449FFF7FC
:100BB000D6FC23798DF80430A3680293237B8DF84B
:100BC0000C30304B0DF10D02009304F10D0319347C
:100BD00053F8041BA34242F8041BF9D11B7813708D
:100BE000264BDB69002168460793FFF7F9FD68464D
:100BF00000F0BAFF24491948FFF7B1FCFFF7FEFEE9
:100C00000021224800F034FA082818D91AE02049B7
:100C10001248FFF7A4FC0F20FFF7E8FC642002F065
:100C200005FF2046FFF7E2FC642002F0FFFE1048BB
:100C30000A2100F0E5FF04460028E8D08FE7054BC5
:100C4000186004E0002111480A4600F014FA08B0C8
:100C500010BD00BF28BBFF1F9092000024F0FF1FB3
:100C60000082FF1F9F9200001EF0FF1FAD92000048
:100C7000FCEBFF1FC19200007692000070BBFF1FCB
:100C8000D392000030960000E19200003CEBFF1F81
:100C9000F6920000FFFFFFFF08B572B6224A137FED
:100CA0000BB10021117762B6002B35D000211F480F
:100CB000FFF76CFC72B61C4BB3F91E20B3F9200091
:100CC000801A47F6FF72DA834FF400421A8462B644
:100CD00006F086FA12A3D3E9002306F011FC06F011
:100CE000A7FD06F08FFA0022114B06F0DFFA06F09E
:100CF00077FD06F075FA02460B4600204FF0804162
:100D000004F0BCFF00220B4B06F01CF906F068FD56
:100D1000BDE80840FFF76ABC08BD00BFAFF3008024
:100D200000000000E0FFEF40BCBAFF1F84C5FF1FBA
:100D3000000014400000F03F10B5374C2368C82B6A
:100D400003D9FFF76BFC002323603448FFF712FC44
:100D5000FA2803D931480021FFF718FC3048FFF783
:100D600009FC09288CBF002101210B2002F0F8FDAD
:100D70002C4B1B781BB92C4B1B78002B31D02B49EB
:100D80002B482C4C002200F04DFA0A2002F04EFEB7
:100D9000294B1868294B1968FFF70AFE284B186081
:100DA000214B1B781BB9274800F096FC2060244B90
:100DB00022681968234822F00F02226000F03EFCEE
:100DC0001A491B48012200F02DFA1B4B1868FFF747
:100DD0000DFC144B124800211970134B1970FFF7CA
:100DE000D5FB184B184893F840200E4B82F00102B7
:100DF0001A70FFF7BFFB292805D91448FFF7BAFB83
:100E0000B0F5FA6F04D8044B1A6801321A6010BDAD
:100E1000FFF742FFF7E700BF20EBFF1F18C5FF1FDA
:100E200090BBFF1F648FFF1F34EBFF1F929B94004A
:100E300000BBFF1FFCBAFF1F28BBFF1F1CEBFF1FDF
:100E400080C5FF1F2CBBFF1F84C5FF1F4CC5FF1FA4
:100E50002DE9F041654D664F664EDFF810820021A6
:100E600086B00A462846FFF79DFB634B28460024C0
:100E700040F8183B00F06AFE284600F0BBFB28460D
:100E80005E495F4A06F064FE012107F124023846FC
:100E9000FFF788FB5B4B06F118023B6030464FF0D2
:100EA000FF330121BB61FFF77DFB574B336047F6F2
:100EB000FF7308F118020121F38340464FF4004309
:100EC0003384FFF76FFB514B4046C8F8003000F009
:100ED00075FA4F4880E8A00004724472C46003F0C1
:100EE00060FC4C4880E8800104724472C46003F0E6
:100EF00058FC494880E8600004724472C460474D61
:100F000003F04FFC4649474803F017FE4548464961
:100F10003B4A06F01DFE05F516560AE02046002164
:100F2000103403F00AFEAC42F8D104F59665B542E0
:100F300002D0A5F59664F1E73C4D3D49304A0020CA
:100F400006F006FE05F516560AE02046002110348C
:100F500003F0F3FDAC42F8D104F59665B54202D03A
:100F6000A5F59664F1E7264A3249002006F0F0FD27
:100F70003149324803F0E1FD2B49214A2F4806F060
:100F8000E7FD2F4800F0E2FD2E491D4A2C4806F0EF
:100F9000DFFD082114222C4800F074F809210A22F0
:100FA0002A4800F06FF802211422294800F06AF85C
:100FB000284B1A6801920199274A11601A68029217
:100FC0000299264A11601A6803920399244A116013
:100FD0001A68049204991B68224A05931160224BF7
:100FE000059A1A6006B0BDE8F08100BF2CBBFF1F58
:100FF00000BBFF1FBCBAFF1F709500001105000069
:10100000608FFF1F50950000409500006095000024
:101010001CC5FF1F2CC5FF1F70C5FF1FEC99FF1FCC
:101020002C93000094BBFF1FB94A000038CAFF1F71
:10103000F5040000D90400003093000024EBFF1FEA
:1010400070BBFF1F691B0000A4BBFF1F3CC5FF1F37
:101050000CEBFF1FFCEEFF1F18C5FF1F90BBFF1F0F
:1010600038EBFF1F4CC5FF1F84C5FF1FE0BAFF1FF1
:10107000084602F031BA0846114602F041BA02F0C1
:10108000EFB9FFFF37B500238360074B42601B6851
:101090000193019B0446036008460D4602F080FC64
:1010A0006573207320463EBDFCEEFF1F007B70473A
:1010B00013B50446407B02F073FC237B834201D1CD
:1010C00000200EE0074B1A68009200992268891AE6
:1010D00062689142F4D31B6820730193019B012045
:1010E00023601CBDFCEEFF1F37B50446FFF7E0FF91
:1010F00010B10023A3600EE0A26872B1084B19681A
:101100000091009D2168691A914206D31B68A06076
:101110000193019B2360012000E00020A0733EBDED
:10112000FCEEFF1F70B50021044603F00CFBC0B1BC
:10113000B4F91E20B4F92030811C00F5817631F914
:10114000025BAA42A8BF2A46AB42B8BF2B46B142B7
:10115000F5D323840123E2832377BDE8704003F0B5
:10116000BDBA70BD2DE9F047846905462CB921460A
:1011700003F0E9FA002851D04CE00021631C0BD1A8
:1011800003F0E1FA0446002848D028462146002210
:1011900003F0C4FA20463DE003F0E2FA06460028D8
:1011A0003CD0EA6995F820101D4800234FEA146CE2
:1011B000C4F30F2E30F91CA00CF1010CF71830F914
:1011C0001CC0B7F90280CEF580390EFB0CFC0AFB7F
:1011D00009CE4FEA2E4E0EFB08FE4FEAEE3EA7F870
:1011E00002E021B1E743BA4205D2A41807E0A242C7
:1011F00004D2A41A03E04FF0FF3400E00C4602339F
:10120000B3F5807FD2D12846AC613146002203F08D
:1012100085FA3046BDE8F04703F060BABDE8F087D4
:101220003293000072B683690BB9012303E00133E6
:1012300002D16FF001038361C16180F8202062B6A2
:101240007047FFFF2DE9F041DFF860C0154E164FE3
:10125000002A0CBF4FF064524FF06052002434F863
:10126000078056F814509CFBF8F8414504D303F06E
:101270000801C9B221B905E002342E2CEFD1F6E7FE
:1012800042F0806203F00403DBB23BB125F470430B
:1012900005F4704542F0007243EA15152A430260D6
:1012A000BDE8F081C895000098950000006CDC0254
:1012B00010B50446FFF7C6FF204610BD10B5044622
:1012C00003F02EFB204610BD02480349034A06F0F6
:1012D0003FBC00BF40EBFF1FBD120000608FFF1F2F
:1012E00002480349034A06F033BC00BF48EBFF1F26
:1012F000BD120000608FFF1F10B5194B1A681168EE
:101300001A79184B1A70184A9142184928BF184B7D
:1013100008683CBF134603F5807298B1014631F965
:10132000024F04F5FF447F34241123F8024B93420B
:10133000F5D303F0D3F90F4B0C491A680A60002269
:101340001A6005E040F2FF7123F8021B9342FBD3C1
:10135000094B1B781BB1094B4FF080421A6010BD3E
:1013600054EBFF1F1F8000400A88FF1F60EBFF1F28
:101370000A87FF1F50EBFF1F5CEBFF1F08E200E036
:1013800010B5002103F0DFF9034690B172B60949A8
:10139000086808B90B6003E0074A146814B91360C1
:1013A00062B610BD0C60136062B6BDE8104003F079
:1013B00095B910BD60EBFF1F50EBFF1F38B54B48D0
:1013C0004B4D012103F054FA4A4B1A6842F4805203
:1013D0001A60494B80221A7000242C8008340120A6
:1013E000A4B202F023FBB4F5006FF6D1434B1B68A7
:1013F0005B0264D5424B1A6848F6A273134048F664
:10140000A27293425BD13F4B1A6840F23F439A422B
:1014100055D13D4B1B68012B51D13C4B1A6840F212
:1014200001139A424BD1314D39492B681A68196022
:101430000221197119726FF0010159734FF0FF31D8
:101440009973D97319692A494FF480701961002280
:10145000D98AD88211465A715A729A72DA721A73FC
:101460001A755A751A765A769A76DA76DA8BD8839E
:101470009A8B012406229A839C71DC712B7903F1EB
:10148000804303F50433B02219701A7003F0A0F9F9
:10149000204B214A18702B792048137003F110015A
:1014A0001F4A42F821005A11920002F1604202F5EF
:1014B000614203F01F0304FA03F4146038BD0F4BBC
:1014C0001A6842F480021A600F4B01221A6040F23F
:1014D0003F4243F8082C48F6A37243F80C2C114AFB
:1014E00043F80C2C40F201125A609CE754EBFF1FAA
:1014F00000C00C402C80044021C00C403C800440C3
:1015000000600340046003400C600340106003402F
:101510000A87FF1F5CEBFF1F1B800040F9120000D1
:10152000008AFF1FA28F010002480349034A06F008
:101530000FBB00BF54EBFF1FBD120000608FFF1FE9
:1015400002480349034A06F003BB00BF64EBFF1FD8
:10155000BD120000608FFF1F02480349034A06F0D6
:10156000F7BA00BF6CEBFF1FBD120000608FFF1FBA
:1015700090F8403070B50446002B38D003F066F880
:101580000546002833D004F11806304600F012FB5F
:10159000B8B13046A91C4FF4807200F0F5FAE36B45
:1015A000C318E3634008002303E005EB4002013069
:1015B00053807F28F9D920462946002203F0AEF84F
:1015C0000CE0304600F009FB094A13885BB1013B8F
:1015D0009BB213803BB1002384F840302846BDE81D
:1015E000704003F07BB85E2000F01AFAF3E770BD9C
:1015F00074EBFF1F002380F840308363C3637047A0
:1016000008B572B690F8403073B1002380F84030CE
:1016100062B6183000F0E1FA074A138833B1013B93
:101620009BB2138013B108BD62B608BD5E20BDE851
:10163000084000F0F5B900BF74EBFF1FF0B589B0AA
:10164000154604460F46FFF7DBFF5E2000F0CEF99B
:101650001F4B1A8801321A8072B61E493A4601237E
:10166000684600F061FB9DF804302377029B2362FB
:101670009DF80C3084F824300DF10D0304F11806A8
:1016800004F1250203F10C0153F8040B8B4242F8DC
:10169000040BF9D11B781370079B6846636300F055
:1016A00063FA62B6304600F0A4FA78B1304600F032
:1016B0007DFA0346B5FBF0F1A06303FB1151304600
:1016C00000F068FA0120E56384F8400009B0F0BD3D
:1016D00074EBFF1FFCEBFF1FC06B7047094B1B78BF
:1016E00013B9094B1B782BB1084A1378202B03D967
:1016F00001230371002070470548C1540133137062
:1017000001207047DAEBFF1F9DEBFF1FDBEBFF1F94
:101710007CEBFF1F7047FFFF024B1878024B1B78D2
:10172000C01A7047D9EBFF1FD8EBFF1F064A0749C5
:1017300013780978994204D90549C85C01331370BC
:1017400070474FF0FF307047D8EBFF1FD9EBFF1FFA
:101750009EEBFF1F054B064A1B7812789A4202D96E
:10176000044AD05C70474FF0FF307047D8EBFF1F42
:10177000D9EBFF1F9EEBFF1F38B50E4B1B781446AD
:1017800013B90D4B1B788BB10C4B1D78C5F12103A0
:101790009C4202D9012202711C4609482246401986
:1017A00006F02EFD054B2D191D7000E01C4620464D
:1017B00038BD00BFDAEBFF1F9DEBFF1FDBEBFF1F08
:1017C0007CEBFF1F10B5104B1B7813F020040BD1DE
:1017D000122001F079FF0D4B1B68A3B10C4A147065
:1017E0000C4A1078984710BD0B4A13780133DBB2CE
:1017F000012B137002D8094B1B7823B91220BDE8C6
:10180000104001F061BF10BD0360064078EBFF1F80
:10181000D8EBFF1FD9EBFF1FC4EBFF1F9DEBFF1F92
:10182000002202710273034A4FF47A7181600260F0
:10183000704700BF8095000010B5374A137803F059
:101840001001C9B221B903F04002D2B242B92EE070
:101850001021117003F04002D2B2002AF3D110BD62
:1018600013F004032D4A18D0002313702C4A137070
:101870002C4B1B68144603B1984722782A4B1AB99F
:1018800027491A7001200870284AD02111701A784F
:10189000274B1A700122274B21E001211170264AA3
:1018A0001370224BC0221A7002331B7830E01F4A9B
:1018B0001F4C117811F0100117D013F0010310D153
:1018C0001C4917480A780078904205D9164B9B5C52
:1018D000013223700A7000E02370144BD0221A707A
:1018E00016E0C0231370237812E0144B12201970F5
:1018F0000322134901F0BEFE0F4A207813781F2BF4
:1019000006D80649097819B10E49C8540133137035
:10191000014B02221A7010BD0360064076EBFF1FD8
:10192000DBEBFF1FC0EBFF1F7CEBFF1F02600640DD
:1019300004600640DCEBFF1FD9EBFF1FC4EBFF1F69
:10194000C51700009EEBFF1F0148FFF769BF00BFEE
:10195000C8EBFF1F184B19491A6842F480521A60ED
:10196000174B184A1A60184A116001F18041516002
:10197000164A1A60164B1B78DA0755BF154A164AE5
:101980004FF410714FF40071116003F00201C9B2FD
:101990004FF4007209B9114900E0114903F0040342
:1019A000DBB20A601BB94FF410720E4B02E00E4B13
:1019B0004FF400721A6070473C80044001100038F8
:1019C00000C0024001401F000CC0024000001F8008
:1019D0001EF0FF1F18B0044008C004401CB00440B3
:1019E0000CC0044014B0044004C004405E2830B56C
:1019F00011D8094A43091478012101FA03F52C434F
:101A00001470064A00F01F0052F8234001FA00F15A
:101A10000C4342F8234030BDF8EBFF1FE0EBFF1F03
:101A20005E2810B514D843090A4A00F01F0052F886
:101A30002340012101FA00F024EA000042F82300CB
:101A400030B9054A107801FA03F320EA0303137052
:101A500010BD00BFE0EBFF1FF8EBFF1F13B502AB9B
:101A6000026803F8011D546819460122A0471CBDF5
:101A7000C06908B100F06EBF704738B50446C06950
:101A8000002510B90123237138BD0571E06992B2B8
:101A900001F0B4F8E3691B7913B1012323712846DF
:101AA00038BD07B501220DF1070100F043FE012802
:101AB0000CBF9DF807004FF6FF7000B20EBDC06965
:101AC00008B510B1FFF7EDFF08BD4FF0FF3008BDBE
:101AD00038B50546C06950B1FFF7E3FF431C044623
:101AE00006D0E869C168013900F000FF00E0044653
:101AF000204638BDF8B504464FF47A73A360124B04
:101B0000002020712073236024200D46174606F024
:101B100069F8E061A8B12B4603F120020546186878
:101B200059682E4603C6083393423546F7D11868E4
:101B3000394630600C2204F10D0007F011F9002342
:101B400063762046F8BD00BF309600004FF47A71EE
:101B5000816004490022027102730160C261427314
:101B6000704700BF30960000014B0360704700BF14
:101B7000309600000D307047C06920B1807901288F
:101B800094BF002001207047C06908B508B100F07B
:101B9000D1FD08BDC06908B100F0A8BE7047C36997
:101BA0000BB1D86870474FF0FF307047C06900B183
:101BB0008069704738B5C369044663B1FFF7F6FF23
:101BC00005462046FFF7EBFF47F6FF73281A9842B9
:101BD00028BF184638BD184638BD10B50446C06940
:101BE00030B100F0E3FEE06906F004F80023E361A1
:101BF00010BDC06918B18079003018BF012070474E
:101C000038B50A460121044600F0BCFA08B90020A4
:101C100038BD04F1100501222846214601F052FA90
:101C2000024640B104F13800294600F05BFD003067
:101C300018BF012038BD2846214601F043FA00288C
:101C4000E5D0EFE70A7902710A4A02604A794271E7
:101C50008A7982718A688260CA68C2600A69026190
:101C60000A7D02758A698261CA69C2610A6A026272
:101C7000704700BF609600002DE9F04F97B0054611
:101C8000383104A891469A46FFF7DCFF254B4FF008
:101C9000000B8DF838B00D938DF83AB04C460DAF6F
:101CA00004AE2DE023782F2B01D1013428E0C4EBC2
:101CB00000085FFA88F8B8F10C0F28BF4FF00C0845
:101CC00021464246684607F04BF816AA02EB080385
:101CD000384603F858BC00F069FE384631466A467B
:101CE000012300F003FF20B90E4B28712B60A8716F
:101CF00014E0304600F05AFE334644443E461F4648
:101D000020462F2106F00AFE0028CBD1C9EB04049F
:101D1000CAF8004028463146FFF794FF284617B01E
:101D2000BDE8F08F60960000F0B59DB004461E46F9
:101D300001A86B461746FFF79FFF009BFD18FB5C51
:101D40003BB901A913A8FFF77DFF204613A91C4A40
:101D500030E000238DF82C301A4A8DF82E309DF893
:101D60000A300A921BB92046FFF7F0FE24E0023B3E
:101D7000012B0AA806D814492A46334600F0B6FEBD
:101D800050B9F0E701A92A46334600F0AFFE00281B
:101D9000E9D001A800F00AFE16F0060F03D00AA849
:101DA000109900F0A3FD0AA913A8FFF74BFF2046E6
:101DB00013A92A46FFF79EFE20461DB0F0BD00BFC6
:101DC000769200006096000034ECFF1F70B5044668
:101DD0009EB00D46164628E09DF8100000B92AE096
:101DE000E52822D02E2820D09DF81B0000F0080006
:101DF000C0B2D0B9134B8DF834008DF83600694667
:101E000004A80C9300F01EFC0CA8E9696A4633464E
:101E100000F06CFE78B10CA915A8FFF713FF20465F
:101E200015A96A46FFF766FE08E0E86904A900F014
:101E300015FD0028D0DC2046FFF788FE20461EB0A6
:101E400070BD00BF60960000084B0221196108496F
:101E500000225A719A719A721A7383F8302083F8AB
:101E60003C20996383F83E20704700BFFCEBFF1FC6
:101E700060960000094B1A6842F480621A602C33A5
:101E80004FF000421A60064AFF2111601A68002ACA
:101E9000FCDA044B1868C0B2704700BF00C00240B3
:101EA00034C0024038C002401A4B1B4A70B51A6059
:101EB000C307044602D5FFF7DDFF013C052C01D81E
:101EC000630800E0032300221449154801E008607C
:101ED00001329A42FBDB23EAE372A4EB42040F498E
:101EE000104A0F48104D06E0166816F0F00FFBD0B0
:101EF00008602E68023C002CF6D106E0106810F055
:101F0000F00FFBD00868013B01E0064A0649002BB0
:101F1000F4D170BD00C0024000041F8034C00240F4
:101F2000FFFF00902CC0024038C00240074B1A68E7
:101F300042F480621A602C334FF000421A60044A67
:101F400010601A68002AFCDA704700BF00C0024027
:101F500034C0024013B5114C052813D8DFE800F057
:101F6000030306090C0F01A80D490DE001A80D4956
:101F70000AE001A80C4907E001A80C4904E001A807
:101F80000B4901E00B4901A800230122FFF790F95A
:101F9000019B2360FFF7DEFC1CBD00BF5CECFF1F54
:101FA00000366E0100127A0000093D00C0C62D0007
:101FB00080841E00801A060010B5194B1B780BB3E5
:101FC000DA0707D5174A1849146809682140174CE1
:101FD0002160116003F00202D2B23AB1144A1249F0
:101FE000146849682140114C6160116003F00403DA
:101FF000DBB23BB10F4B0C4A196892680A400B499F
:102000008A601A600C4A1368834208D00B4B0C4953
:102010001960106040F0804050600A4A1A6010BD9C
:10202000F8EBFF1F80E100E0E0EBFF1FECEBFF1F90
:1020300084E100E088E100E00CC0024000C0024002
:1020400001401F0000001F800C4B1B78ABB1D9076B
:1020500003D50B4A11680B4A116003F00202D2B299
:102060001AB1074A5168084A116003F00403DBB251
:102070001BB1034B9A68054B1A607047F8EBFF1FC2
:10208000ECEBFF1F00E100E004E100E008E100E00C
:1020900008B50121007901F063FCFFF7D5FF08BD09
:1020A000054B10B504461868FFF786FF207900211C
:1020B000BDE8104001F054BC5CECFF1F10B5837903
:1020C00004468BB1008940F20123984207D8C0F53D
:1020D00000700230FFF7E8FE40F202232381204621
:1020E000FFF7D6FF0023A37110BDFFFF73B50B4BA5
:1020F0001A680092009E0D461C46B6B2FFF7BAFE63
:10210000FF2808D023680193019B9BB29B1BAB4225
:10211000F4DB002000E001207CBD00BFFCEEFF1FCF
:10212000F8B505460E461746FFF7C8FF2846FFF7E5
:10213000B7FF4FF496712846FFF7D8FF46F04000EE
:10214000FFF7F4FE182427FA04F0C0B2083CFFF7AA
:10215000EDFE14F1080FF6D126B1082E0CBF872032
:10216000FF2000E09520FFF7E1FE0024FFF782FE4C
:102170000306E87204D5FF2C02D00134E4B2F5E77F
:10218000F8BDFFFF2DE9F0430023037383728371D1
:102190004371544B027185B01B680446019310468D
:1021A0000F460121019E01F007FC0121207901F079
:1021B000D7FB4D4B1A6842F480521A600620FFF795
:1021C000C9FE4A4B1868FFF7F7FE0A25FF20013DBC
:1021D000FFF7ACFE15F0FF05F8D1FFF735FF2046FD
:1021E000FFF75EFFDFF8FC801FFA86F90BE0D8F8F6
:1021F00000300293029B9BB2C9EB0303B3F5FA6F65
:1022000001DD01234EE0002120460A46FFF788FF4A
:1022100001280546E072EAD1204608214FF4D57224
:10222000FFF77EFF00F00400C0B208B125730DE097
:102230000425FFF71FFE013D15F0FF05E072F8D100
:10224000AA284FF0020300D02CE02373257BDFF88F
:102250009480022D0CBF4FF080450025B6B20AE0F5
:10226000D8F800300393039B9BB29B1BB3F5FA6F26
:1022700001DD082316E0372100222046FFF750FF3A
:102280002A4620462921FFF74BFF0246E07200282C
:10229000E6D1237B022B15D120463A21FFF740FFE0
:1022A00010B10623637115E0FFF7E4FD00F0C000F4
:1022B000C02801D103232373FFF7DCFDFFF7DAFD0C
:1022C000FFF7D8FD2046FFF7E3FE3846FFF742FE52
:1022D000012003E02046FFF7DBFE002005B0BDE84B
:1022E000F08300BFFCEEFF1F3C8004405CECFF1F4E
:1022F00073B5114B1A680092009E04461D46B6B293
:1023000009E02B680193019B9BB29B1BB3F5967F61
:1023100001DD0F2307E0FFF7ADFDFF28E072F0D0ED
:10232000FE2806D00D2320466371FFF7B1FE002082
:1023300000E001207CBD00BFFCEEFF1F2DE9F8434B
:10234000089D04460F4690461E4603B974E09B184C
:10235000B3F5007F73DC83792BB10368994202D116
:102360000389934216D9237B2760032B18BF7F0272
:102370003A4620461121FFF7D3FE074610B103234A
:1023800063715CE02046FFF7B3FF002857D00123BC
:102390002781A3714046FFF787FD2C492C4B19601C
:1023A000F107324604D5FFF765FD05F8010B721EF3
:1023B000052A01D8530800E0032300212548264FB1
:1023C00001E0076001319942FBDBA2EB4302AA184E
:1023D0002248204FDFF880C0DFF884800DE00168DC
:1023E00011F0F00FFBD0C7F800C0D8F80010C1F30F
:1023F000072985F80090697002359542EFD302EB0A
:1024000043031748154A09E0116811F0F00FFBD09B
:102410000168C1F307272F70697002359D42F3D31D
:102420002389F618A37AB6B2268113B1B6F5007FD8
:1024300002D32046FFF742FE0120BDE8F883204684
:10244000FFF726FE0020BDE8F88300BF00041F80D0
:1024500000C0024034C00240FFFF00902CC0024088
:1024600038C0024007B54FF4007300920022FFF716
:1024700065FF0EBD2DE9F04104462B482B4F036844
:102480002B4D43F480634FF0004603603E602960AB
:102490003946002307468C46D1F800E0BEF1000F14
:1024A000FADA12E0D1F800E0BEF1000FFADA18E033
:1024B0001E4A1368002BFCDA26E0112320466371C4
:1024C000FFF7E6FD0020BDE8F081D0F8008012F8AB
:1024D00003E048F48068C0F800800E60C5F800E0B2
:1024E000E0E702EB030ED7F800809EF801E002332C
:1024F00048F48068B3F5007FC7F80080CCF800602E
:10250000C5F800E0C8D1D3E7FF20FFF70FFDFF209B
:10251000FFF70CFDFFF7AEFCE07200F01F0005288E
:10252000CBD10120BDE8F08100C002402CC00240A8
:1025300034C0024070B50B460446164609B9122352
:1025400029E0027B032A18BF4B021A461821FFF725
:10255000E7FD054608B104231DE02046FE21324672
:10256000FFF788FF88B120464FF41671FFF7BEFDD4
:1025700008B915230FE020460D212A46FFF7D0FDAC
:1025800040B9FFF777FC28B907E02046FFF780FD48
:10259000002070BD14236371F7E72046FFF778FD34
:1025A000012070BD014A024B1A60704701100138CA
:1025B0005CECFF1F10B504460121006A04F108021B
:1025C00000F004FD40B1E3692BB9A368E3616379CE
:1025D00063F07F036371012010BD70B50446FFF7FF
:1025E000E9FF08B9002070BD236AA268197C1D7933
:1025F000023A02FA01F65A69B218561E06E070193C
:1026000000F028FC0028EDD0013DEDB2002DF6D100
:10261000236A1B7C4FF4007202FA03F2A3699B1831
:10262000A361012070BDFFFF10B50446006900F0F2
:10263000EDFB18B1207D024B03EB401010BD00BF35
:102640006CECFF1F002230B513462E24855C202D34
:1026500009D0D5B2082D02D1CC540133DBB2855C50
:10266000CD540133DBB201320B2AEFD10022CA5420
:1026700030BDFFFF70B5002305462022CA54013348
:102680000B2BFBD1002207241FE02E2B01D0144E70
:1026900006E00A2C22D008220A2416E098421DD017
:1026A00016F8010F0028F9D1A24218D8202B16D90C
:1026B0007E2B14D8A3F16106192E01EB020001D87C
:1026C000203BDBB201320370D2B215F8013B002B84
:1026D000DBD10878203818BF012070BD002070BD04
:1026E0004796000038B5827904460D460AB10020AD
:1026F00038BD91F82030102B06D1022383714B8C0A
:10270000C2615B0183610CE0202BF0D10323837154
:10271000496A04F11802C161284600F0EBFB002869
:10272000E5D00023012025626071A360E36023618E
:10273000237538BD2DE9F04F837985B00446904666
:1027400013B94FF6FF7865E04379DB07F9D564E00C
:102750001FFA83F847460E46DFF8F890DFF8F8A036
:1027600056E0E268A179206AD3054FEAD35B0229DB
:102770001FFA8BF34FEA522E02D1416A71441CE0DA
:102780000579013D05EA0E05EDB26BB965B912B9DF
:10279000E269A26008E0A168039304F1080200F076
:1027A00075FB039B0028CCD0226AA168107C52697B
:1027B000023901FA00F189184919CBF500729742E4
:1027C000627902F04002C8BFC3F50075D2B2CCBF37
:1027D000ADB23D4612B9B5F5007F2ED1DAF8002032
:1027E000914220D129E076190DE00BEB090358192D
:1027F0001A46314603E012F801CB01F801CB8242C0
:10280000F9D1D31AF618E3687F1B5B19E360BFB2F6
:10281000002FA6D10FFA88F016E08269C368D31A98
:10282000984595D896E70A4A009610681A462B46AE
:10283000FFF784FD0028D6D183E70846002100F089
:10284000E5FA0028D1D17CE705B0BDE8F08F00BFE4
:1028500068ECFF1F6CECFF1F688FFF1F38B5837992
:10286000012B05460C4601D8FF201BE0C368DA06A1
:10287000FAD10AE02278A2B1E52A06D02E2A04D0A5
:10288000E27A02F00802D2B262B120222846214642
:10289000FFF750FF42B2202AECD0002AE4DB0020F0
:1028A00000E0104640B238BD37B58379012B0446AD
:1028B00001D8002016E0C36801220DF10701C3F31F
:1028C0004315FFF737FF01280CBF9DF807304FF67F
:1028D000FF731BB20133ECD0E26803481F32E260A1
:1028E00000EB45103EBD00BF6CECFF1FF8B5044681
:1028F00080790D4600282CD0A369994224D825E080
:102900001DB9A560E5600120F8BD236AE2681E7C60
:10291000691E0936531E23FA06F321FA06F69E4273
:1029200000D312B9E369A36009E0F61A07E0206A50
:10293000A1683A4600F0AAFA013E10B9F8BD04F1C8
:102940000807002EF3D1DDE70020F8BD0228D7D11B
:10295000D8E7F8BD38B58379054613B390F905304B
:10296000002B1ADA0121FFF75FFE0446C8B1AB79EC
:10297000012B9CBFAB69C361EB6943831B0C838252
:10298000094B1B682BB1183004F116019847238BB3
:1029900063826B7903F07F036B71BDE8384000F010
:1029A0000FBA002038BD00BF60ECFF1F10B5044611
:1029B000FFF7D0FF10B10023A371012010BDFFFF6E
:1029C000F7B58279012A04460D4645D1437903F0D3
:1029D0000203DBB2002B3FD040E0002B3AD0E66888
:1029E000FFF784FF00B937E0206A35B9E16900F0EC
:1029F00045FB002830D0E5611BE0A16801AA00F08A
:102A000045FA48B3206A184B90F8207001994FF6A8
:102A1000F872102F08BF134699420AD200F02EFB1D
:102A2000D0B1206AA1686FF0704200F08BFA00B953
:102A300012E06379A56163F07F0363712046FFF7BD
:102A400089FF48B12046B54234BF29463146FFF7D9
:102A50004DFF07E0104605E0002003E0836999423E
:102A6000BBD9F9E7FEBD00BFF8FFFF0F38B51D4B1E
:102A700003EB41131546DA7A12F0110F044604D025
:102A800015F0420F01D0002038BD174A2175126899
:102A900022615A8B998A42EA0141E161DA7A12F0A5
:102AA000180203D1DB69A361012309E0102AEAD1EE
:102AB000206A04F1180200F01DFA0028E3D0042374
:102AC000A37105F00F0305F040050021EDB263711D
:102AD000A160E16025B12046BDE83840FFF770BF36
:102AE000012038BD6CECFF1F688FFF1F2DE9FF47E9
:102AF000867905460C461F46002E75D10DF1040857
:102B000010464146FFF7B6FD00B96DE0236AA660A6
:102B10002B62E660DFF8E090C24621E02046C3F376
:102B20004318FFF7C1FE014600285DD002780AB1C4
:102B3000E52A09D126B9D9F8002085F814802A6140
:102B40000B78012683B10BE050460B2205F026FBE3
:102B500030B907F03003302B46D0284641463FE0DD
:102B6000E368A2699342D9D307F01203122B3BD139
:102B700036B128460121FFF757FD044648B933E036
:102B8000A379022B30D02046FFF727FD60B3184C05
:102B90002E7500212022204601AE05F051FC03CE07
:102BA00020606160B3783288A372124B22811B6867
:102BB0002BB104F1100004F10E01984706E0212228
:102BC0002274A373282208236274E373238A638226
:102BD0002383E389E38200F0F3F828B1297D2846B6
:102BE0003A46FFF743FF00E0002004B0BDE8F0875D
:102BF0006CECFF1F60ECFF1F688FFF1F2DE9F74F84
:102C000092468279012A07460C4640F0B680427906
:102C100002F00201C9B2002900F0AF80B1E0B96949
:102C2000FD688D4201D1554688E0FFF75FFE002820
:102C300000F0A380F7E7386A90F804B00BF1FF3B8F
:102C40000BEA522B4FEAC2594FEAD9591BF0FF0B3E
:102C50001FFA89F81FD1B8F1000F1CD1B96811B95A
:102C6000FA69BAB911E001AA00F010F9002800F0E1
:102C70008F80396A474891F82010019A4FF6F8730F
:102C8000102908BF1846824204D33846FFF792FC49
:102C900008B972E0BA603A6AB968107C5269C8F53E
:102CA00000760239B6B2B54238BF2E4601FA00F1BD
:102CB0008918B6F5007F8B4411D1374A1168594500
:102CC00004BF4FF0FF311160344A59461068224664
:102CD000FFF730FC002850D004F5007429E0B8F16B
:102CE000000F10D1F968BA6991420CD300F068F86E
:102CF000002842D0284AC2F800B0294A117841F091
:102D00000101117005E05846012100F07FF800280C
:102D100033D0244A914409EB0600611E4A4603E081
:102D200011F801CF02F801CB8242F9D1C9EB0209B7
:102D30004C44FA68AD1B9619ADB2FE60FA68002DDE
:102D40007FF479AFB9698A4201D9BA6105E0164AC0
:102D5000126832B1BAF1000F03D07A7962F07F02C3
:102D60007A717A7902F00802D2B20AB950460FE0BD
:102D70003846FFF7EFFD0028F8D101223A71002014
:102D800006E002F00402D2B2002A7FF448AF4AE71C
:102D9000BDE8FE8FF8FFFF0F688FFF1F68ECFF1F75
:102DA0006CEEFF1F6CECFF1F60ECFF1F07B502AB62
:102DB000012203F8011D1946FFF720FF0EBDFFFF9A
:102DC00038B50D4B1B78A3B10C4D0D4B2868196815
:102DD0000C4AFFF7AFFB68B10B4C216831B1286892
:102DE000084AFFF7A7FB28B100232360024B00220B
:102DF0001A70012038BD00BF6CEEFF1F68ECFF1F8A
:102E0000688FFF1F6CECFF1F64ECFF1F70B50D4D4A
:102E10002B68834204460E460DD0FFF7D1FF08B958
:102E2000002070BD084B094A18682146FFF71AFBBD
:102E30000028F5D02C60064B1A7816431E7001202E
:102E400070BD00BF688FFF1F68ECFF1F6CECFF1F99
:102E50006CEEFF1F10B50446FFF7B2FF78B10023F8
:102E6000074A194699540133B3F5007FFAD1054B4F
:102E70001C60054B1A7842F001021A70012010BD47
:102E80006CECFF1F688FFF1F6CEEFF1FC3680133E0
:102E9000994270B505460C46164601D9002070BD12
:102EA00095F82030C069102B01D10B0A00E0CB0946
:102EB00018180E4B1B68984205D195F82030102B3E
:102EC0000B4B0AD105E00021FFF7A0FF0028F4D149
:102ED000E4E7E4B233F8143005E004F07F0453F87B
:102EE000243023F070433360012070BD688FFF1FD2
:102EF0006CECFF1F2DE9F74302AEDFF8448046F883
:102F0000041D0546174600244FF6F8792846019916
:102F10003246FFF7BBFF80B12B7C4FF4007202FA00
:102F200003F395F82020E418019B102A14BF4246B1
:102F30004A469342EAD33C600120BDE8FE8300BFCD
:102F4000F8FFFF0F0129F8B504460D46174633D99F
:102F5000C368013399422FD890F82030C669102BEE
:102F600001D10B0A00E0CB099E19144B1B689E424D
:102F700005D194F82030102B114B0BD106E03046D0
:102F80000021FFF743FF0028F3D1F8BDEDB223F88D
:102F9000157003E005F07F0543F82570094B1A789A
:102FA00042F001021A70237E012B03D9A368F618A0
:102FB000054B1E600120F8BD0020F8BD688FFF1F83
:102FC0006CECFF1F6CEEFF1F64ECFF1F2DE9F74F49
:102FD000156806468A4617461DB101354FF00009AF
:102FE00005E04B1ED3F10009056859EB0309F368AE
:102FF0002C4603F1010B4FF00008F36898451CD2F2
:103000005C4501D9022425463046214601AAFFF736
:103010003DFF90B1019A631C0AB11D4602E05B1BA3
:10302000534503D008F101080134E6E73046214654
:103030006FF07042FFF786FF58B900201CE004F1E2
:10304000FF38304641462246FFF77CFF0028F4D087
:103050004446AC42F3D8396821B93D60B9F1000F5C
:1030600007D108E030462A46FFF76CFF0028F4D16C
:10307000E3E7013535600120BDE8FE8FF7B5022397
:103080000F4F036005460C464FF6F876284621465A
:1030900001AAFFF7FBFE80B1284621460022FFF778
:1030A00051FF50B195F82030019C102B14BF3B46C6
:1030B00033469C42EAD3012000E00020FEBD00BF61
:1030C000F8FFFF0FF8B53B4B044619601546CAB12F
:1030D000042A01D90020F8BD00200146FFF796FE22
:1030E0000028F7D0344B03EB051505F5D475AA7904
:1030F0005206EFD1D5F81220632AEBD9D5F80E503D
:10310000002DE7D028460021FFF780FE0028E1D0FF
:10311000294BB3F80B20B2F5007FDBD11A7C002AD3
:10312000D8D0D9890029D5D05B7B002BD2D022768C
:10313000002223712274012003E0511C072A21740C
:10314000C8D8227C00FA02F18B42F6D11A4BD98AF8
:1031500001B9596ADE89A160AE19E661B3F81100C0
:103160001F7C6084400107FB016100F2FF10616277
:1031700001EB50216161B3F813300BB90E4B1B6AA0
:10318000691ACB1823FA02F240F6F4739A42E2600D
:1031900001D80C2309E04FF6F4739A4201D81023AA
:1031A00003E0054BDB6A6362202384F820300120B2
:1031B000F8BD00BF68ECFF1F6CECFF1FF0B5304896
:1031C000304903681B06FCD40B6813F08002F8D169
:1031D00072B62D4B1978002950D02C4908684F68D9
:1031E0008E68CD680C693818143180190968401947
:1031F00000194018C0F34E00254940F40040086013
:10320000C86A0F6B4E6B8D6BCC6B381840318019D0
:103210000968401900194018C0F34E001D4940F4D8
:103220000040086001F10811143151F8140C51F8F4
:10323000107C51F80C6C51F8085C51F8044C09688A
:1032400038188019401900194018C0F34E0012496F
:1032500040F400400860C86A0F6B4E6B8D6BCC6BFE
:103260003818403180190968401900194018C0F316
:103270004E000A4940F4004008601A7062B6F0BD82
:1032800024B0034024B00B406EEEFF1F38B0034063
:103290002CB0034030B003402CB00B4030B00B409A
:1032A000224B60221A70E1225A70214B214A197870
:1032B000214B082901D1012102E00A2907D1392136
:1032C000116013221A601D4B19605A600BE00C2923
:1032D0001A4901D1352000E03D20106012221A6009
:1032E000174B08601A60174B17491B78174A03B130
:1032F00001230B601360164B164A1978164B0129EF
:1033000001D880210CE0042901D8842108E0082993
:1033100001D8852104E0102901D8862100E0872109
:10332000116019600D4B01221A7070470040074070
:103330006C8FFF1F08B003400CB0034008B00B4077
:103340000CB00B4071EEFF1F20B0034020B00B40CB
:103350006D8FFF1F24B0034024B00B406EEEFF1FA3
:103360000D282DE9F0410FD9172801D80E380AE0B1
:10337000A0F11A03052B01D8093804E0A0F12203BB
:10338000062B4DD81838C0B2274B1C5C274B1B7836
:103390000BB1FFF713FF72B6200614D4244D254E4F
:1033A00001272C60377062B672B62B68190603D5F8
:1033B000214B18681F4B23E03378002BF1D062B605
:1033C00001F072FCF0E704F040071C4D1C4EFFB208
:1033D00004F03F044FF001081A4B1A6817B122F0AD
:1033E000100201E042F010021A602C6086F80080A2
:1033F00062B672B62B681A060BD5134B1868104BC1
:1034000000221A7062B6114B1B7840FA03F0BDE837
:10341000F0813378002BDFD062B601F045FCE8E79D
:103420000020BDE8F08100BF689600006EEEFF1F2F
:1034300000B0034070EEFF1F10B0034000B00B401F
:103440006FEEFF1F0CB00B4010B00B406DEEFF1F76
:10345000024A1378DB07FCD5704700BF0100024029
:1034600030B5194B85B06C4603F1100518685968E2
:10347000224603C20833AB421446F7D1134B1B78E4
:1034800003F00203DBB2BBB1114B80221A7033226E
:103490001A710322DA7072B60E4C6B4643F00103C8
:1034A0002046984762B6237813F0700304D0237047
:1034B00008E0013B03D105E0044944F621630A78A2
:1034C000D207F6D505B030BD80960000010002405D
:1034D0000700024000000240B0F5006F10B504463E
:1034E00009D2064B1B78D90701D4FFF7B9FF04F1C5
:1034F000A054207810BD002010BD00BF0100024084
:10350000B0F5006F38B504460D460FD2084B1B7856
:10351000D90701D4FFF7A4FF04F1A0542378AB42EC
:1035200004D02570BDE83840FFF792BF38BD00BF1A
:1035300001000240024B1A6801321A60704700BF56
:10354000FCEEFF1F38B50B4C25462368580301D508
:1035500000F090FB2B68590501D501F095FD2B6813
:103560001A0501D501F0CEFF2368DB04EDD502F08A
:10357000A1F9EAE73480044008B5FFF7E3FFFFFF55
:10358000014B10221A807047002005407047FFFF52
:10359000024A13681818106018467047708FFF1F92
:1035A000FEE7FFFFEFF313839BB9EFF3108098B9A9
:1035B000EFF3058323B10F2B04D9084A985C01E08F
:1035C0004FF48070EFF311833BB1984228BF184647
:1035D00070474FF0FF30704718467047F0E300E047
:1035E000002300E00133C25C002AFBD1184670477B
:1035F00010B50023B0FBF2F402FB1400092801D837
:10360000303000E03730C85420460CB10133F1E7C8
:10361000CA185470224605E0885CCC5C8C54C854AF
:103620000132013B9A42F7DB084610BD031E10B57C
:103630000C4603DBBDE81040FFF7DABF2D2001F890
:10364000010B5842FFF7D4FF204610BD084B4FF442
:1036500000021A604FF080721A604FF000721A6018
:103660004FF080621A604FF000621A60704700BF2E
:1036700008E100E0212830B521D8042A1FD8DFE86E
:1036800002F00709050B03000B2306E00A2304E000
:10369000082302E00C2300E00923094A02EBC002E0
:1036A000526872B61468074D24F47024146044F014
:1036B000807444EA034345F82010136062B630BDBD
:1036C0009096000074EEFF1F094B03EBC0035B688C
:1036D00072B61A6822F0877222F4803242F0807249
:1036E0001A60044B002243F8202062B6704700BFE6
:1036F0009096000074EEFF1F114B10B51C68E0049B
:103700001C6004D50F4BDA680AB1DB689847A10446
:1037100004D50C4B1A690AB11B699847A20604D557
:10372000084B1A6E0AB11B6E9847E30606D5054B87
:10373000D3F8842012B1D3F88430984710BD00BF6D
:10374000A090044074EEFF1F1F4B10B51C68E003EF
:103750001C6004D51D4B1A680AB11B689847A10369
:1037600004D51A4B5A680AB15B689847E20704D53A
:10377000164B1A6C0AB11B6C9847A30704D5134B60
:103780005A6C0AB15B6C9847200704D50F4B9A6CB2
:103790000AB19B6C9847610704D50C4BDA6C0AB1EF
:1037A000DB6C9847220304D5084B5A6E0AB15B6E56
:1037B0009847630306D5054BD3F8802012B1D3F8A0
:1037C0008030984710BD00BFA0A0044074EEFF1FDA
:1037D0002C4B10B51C6820071C6004D52A4B5A6A74
:1037E0000AB15B6A9847E10604D5274B9A6A0AB189
:1037F0009B6A9847620604D5234BDA6A0AB1DB6AF2
:103800009847230604D5204B1A6B0AB11B6B9847C7
:10381000A00604D51C4B5A6B0AB15B6B9847E107B5
:1038200004D5194BDA6B0AB1DB6B9847A20704D5B4
:10383000154B9A6D0AB19B6D9847630704D5124BDF
:10384000DA6D0AB1DB6D9847A00504D50E4BDA6E30
:103850000AB1DB6E9847E10504D50B4B1A6F0AB12C
:103860001B6F9847620504D5074B5A6F0AB15B6F0F
:103870009847230504D5044B9A6F0AB19B6F98476C
:1038800010BD00BFA0B0044074EEFF1F1E4B10B56A
:103890001C68E0071C6004D51C4B9A680AB19B6841
:1038A0009847210604D5194B5A690AB15B699847B4
:1038B000E20604D5154B9A690AB19B6998476307DC
:1038C00004D5124BDA690AB1DB699847200704D5A1
:1038D0000E4B1A6A0AB11B6A9847A10704D50B4B15
:1038E0009A6B0AB19B6B9847A20604D5074B1A6DD9
:1038F0000AB11B6D9847630604D5044B5A6D0AB193
:103900005B6D984710BD00BFA0C0044074EEFF1F60
:10391000094B10B51C68A2071C6004D5074B9A6EB2
:103920000AB19B6E9847E30704D5044BDA6F0AB1DE
:10393000DB6F984710BD00BFA0D0044074EEFF1F9E
:10394000044B054900221A600A60044A10601022E4
:103950001A60704714D0034004D0034000D00340E5
:10396000212810B518D80D4A52F8303093F880420B
:103970003CB1012211B183F8802010BD83F80021F1
:1039800010BD02EBC00043681A6811B142F0030297
:1039900001E022F002021A6010BD00BF9096000004
:1039A000212805D8034B53F8303093F800027047B4
:1039B0000020704790960000212816D80B4A02EB91
:1039C000C00301295B6852F8302004D182F88012CC
:1039D0004FF4A27208E0002082F8800211B94FF47F
:1039E000807201E040F203121A6070479096000066
:1039F00072B60B4B0B491A680B4B1B68096862B611
:103A0000490102D5322A88BF0133C2F5BB32FF32E9
:103A10006021B2FBF1F24FF47A7000FB0320704793
:103A200018E000E004ED00E0FCEEFF1F70B5044676
:103A3000FFF7DEFF05466CB140F2E736FFF7D8FF2F
:103A4000401BB04203D9013C04D005F57A7501F062
:103A50002BF9F3E770BDFFFF10B5FFF7F7FD164B2D
:103A6000164A174C00204BF6FF7118605960282346
:103A700013609360136193611362936213639363A2
:103A8000092222600F4C20606160A360236144F82A
:103A9000042C0D4C20600D4801600D490B608B60BB
:103AA0000C4B1A60FFF7FCFB0420FFF7BFFFBDE8DB
:103AB000104000F0FBBB00BF048003400C800340BB
:103AC000008003400490034004800B4008800B40BA
:103AD0000C800B4000800B40F0B50C4B0C4C1A785E
:103AE00042F0020504EBC50682F00102706009484D
:103AF0001A700678002E0CBF8827C82747EA0141B4
:103B000086F0010644F835100670F0BD68EFFF1F1F
:103B10000080FF1FE0EFFF1F431E032B10B510D8DE
:103B200072B6094A52F8230048B1416842F823109E
:103B3000064A018832F81340611A22F8131062B65F
:103B400010BD002010BD00BF58EFFF1F10F2FF1F77
:103B5000013803280BD872B6064B53F820300020EA
:103B600001E05B680130002BFBD162B6704700209A
:103B7000704700BFACEFFF1F70B572B6184E194CFE
:103B800001239A1912F8012C02F00802D2B2E2B114
:103B90009900144A54F831502DB902EB4313083000
:103BA0005860114B09E041F0010154F8315065B9FA
:103BB00002EBC103083058600C4B42F831300C4B1B
:103BC0001A78013A1A7062B670BD0133052BD8D14C
:103BD00062B6074B00221A70BDE8704000F0D2BBFD
:103BE000C89700000080FF1F88004000C800400008
:103BF000D6EFFF1F431E032B30B532D84001194AC0
:103C000040F01000101872B6174CE25C032A09D875
:103C1000DFE802F0160218050830022213E008302F
:103C2000042210E01148124A50F8234014B940F819
:103C3000231002E052F82300416042F823100FE005
:103C4000032200E00522E25410F0080F01F10803FE
:103C50000A8843600CBF8823C82343EA02430360F9
:103C600062B630BD0080FF1F14EFFF1FACEFFF1FD7
:103C7000BCEFFF1F2DE9F74FA54EA64C357805F098
:103C80000403DBB2ABB1A44B1B7883B1A34A137816
:103C900023B1013BDBB2137003B900BEA04A137815
:103CA0002BB1013BDBB213700BB900F07FFC042396
:103CB000337005F00802D2B2002A00F08082994BDE
:103CC0001B781D094FEA930940F0FE8104EBC903FC
:103CD000586854F83930C3F38303013B0C2B00F2CE
:103CE000F081DFE813F0A901A901EE01EE01EE0178
:103CF000EE01EE01EE01C501EE01EE01EE010D0057
:103D00004368894902684B60884B894844F83930D8
:103D1000884D0A60002303600120287092B240F2AF
:103D20008165AA422361A36117D8B2F5D06F80F0F4
:103D30002C81B2F5817F00F0DC8006D8802A00F06B
:103D4000C280822A40F03D81C1E040F202339A42B3
:103D500000F00C81B2F5A06F16E042F22105AA42F4
:103D600000F0678108D8B2F5086F00F0A680B2F5C0
:103D7000106F40F026810AE042F22120824200F0DA
:103D80001C8142F221339A4240F01B811DE18A7866
:103D9000614B604D1A702B6A180603D5686A0838A3
:103DA00000F0F0FA644A08359542F4D1DFF8B0919A
:103DB000DFF8B0B10025A846CA4655F8090005E06D
:103DC0004368009300F0DEFA009B18460028F7D104
:103DD0005A4B4AF8050045F80B00E85807E04268DE
:103DE0000093019200F0CEFA019A009B1046002841
:103DF000F5D15851524BE850524B23F81800524B12
:103E000018F80320023A032A08D8DFE802F0020477
:103E10000204002200E0012203F8082008F1010852
:103E20000435B8F1040FC8D1484BDFF83C910022AB
:103E30001A7001259846464B05EB0902EB1812F85B
:103E4000012C9B001A7002F00802D2B23AB300F0C3
:103E50007BFAAB0038B104EB4512083050603D4AA4
:103E600044F8332006E044F8330098F8003001337A
:103E700088F8003000F068FAAB0043F0010338B175
:103E800004EBC30208305060284A44F8332006E0AF
:103E900044F8330098F80030013388F80030AA0065
:103EA00042F00201013542F003020023052D44F8DF
:103EB000313044F83230BED188E0174B264D1B78A4
:103EC0002B70034685E0244D2B706B7080E08A8850
:103ED000042A00D975E0204D2B706B701F4B9200A7
:103EE000D3181B7803F00203DBB2002B70D02870CC
:103EF0006EE08A8802F07F03042B62DC4B8803B1FA
:103F00005FE09100154A8A18117821F0020156E00D
:103F1000802007400080FF1FDFEFFF1F69EFFF1FBA
:103F2000E1EFFF1F90200740CCEFFF1FC8004000CB
:103F300000EFFF1FE0EFFF1F8080FF1FACEFFF1FB0
:103F4000BCEFFF1F10F2FF1F14EFFF1FD6EFFF1F84
:103F500030C8011088004000D7EFFF1FC020074085
:103F600058EFFF1F04EFFF1FC89700008A8802F078
:103F70007F03042B25DC4B8803B122E09100A14A8A
:103F80008A18117841F0020119E04A889E4B89880D
:103F900053F8085CA3F10C009DB133F80CCC9445A8
:103FA00009D133F80ACC8C4505D1120A032A0CBF7B
:103FB0002B7803890DE00C33EAE78978934A117076
:103FC00004E0904B0F221A7033E000231D4600E0FE
:103FD00002238F4AB2F806904B4538BF9946B9F193
:103FE000400F34BFC8464FF0400828464146FFF70F
:103FF00073FDB9EB0809454403D1B8F1400F07D070
:1040000017E0B9F1400F34BFC8464FF0400800E058
:10401000C84628464146FFF75FFDB9EB080945440D
:1040200002D1B8F1400F04D17A4B7B4A1D60A2F84F
:1040300000900122794B43E0754B1A8842F221032C
:104040009A4211D1764A0023C15C99540133072B5F
:10405000FAD1734B1B68862B02D1724B0F221A7058
:1040600000200146FFF738FD6F4B44F8393028E057
:10407000684BD3F80080B8F1000F18D0DFF89891A2
:10408000B9F800A0BAF1400F34BF5546402540466C
:104090002946FFF721FDC5EB0A039BB2A9F80030C2
:1040A0000BB9402D01D108EB05035A4A1360584B58
:1040B0001A88B2F5A06F04D100225A709A785B4B2F
:1040C0001A700122554B6DE004EBC90803F0080398
:1040D000D8F80420013DD9B2A2F10800EDB20029C0
:1040E00037D000F04FF95248524B50F82510F1B13B
:1040F0004A6840F8252001F10802C8F804205A5DFA
:10410000032A0BD8DFE802F002040608032204E0C9
:10411000022202E0052200E004225A5518F0080F9E
:104120000A880CBF8823C82343EA024342E05A5D51
:10413000032A07D8DFE802F040400204002206E02C
:10414000012204E018F0080F0CBF022203225A5586
:1041500032E054F839301B0C22F8083C23B322F823
:10416000061C42F8041C344A344952F8257017B929
:1041700042F8250002E051F825205060304A41F80D
:10418000250032F815105B1822F8153000F0DCF825
:1041900018B10830C8F8040006E02A4B44F839008A
:1041A0001A7801321A7007E01F4B274A18F0080FDF
:1041B00008BF134644F83930082333705EE5E90739
:1041C00052D516492048214C02230B70204B1A70FF
:1041D000204B1860986020481A61D8609A615C6032
:1041E000084B0D2018701D48FF23037000F8083C91
:1041F00002741B4A13701B4B9F221A7001230B7011
:104200004BE000BFC0200740D8970000F0EFFF1F31
:10421000CCEFFF1F00EFFF1FD4EFFF1F94200740DC
:1042200018F2FF1F69EFFF1FC800400098200740E9
:10423000ACEFFF1F14EFFF1F58EFFF1F04EFFF1F2E
:1042400010F2FF1FD6EFFF1F8800400018EFFF1F7E
:1042500068EFFF1F0080FF1F6CEFFF1F88200740E3
:104260008C200740842007402B0605D50C4B0D22DF
:104270001A70802203F8402C05F00203DBB22BB148
:10428000084B1A781A70022203F8082C05F0100562
:10429000EDB215B1044B10221A70BDE8FE8F00BFBD
:1042A000C0200740882007408020074008B501F063
:1042B00057FB00231E491A465A50C8180833882B4A
:1042C0004260F9D11B4B1A6842F480221A601A4BE3
:1042D00080221A701978184A0906FBD4144B174922
:1042E000C3F307200870C3F307401B0E08750B7655
:1042F000FF2301F81C3C01F8143C01F88C3C1378B6
:1043000043F0400313700021012302F8783C02F8C7
:104310000C1C02F8883C0A4B70226FF4507C1A7017
:1043200063444FF400721A60064B10221A7008BDE5
:104330000080FF1F348004400C2107409C20074070
:1043400049E400E00821074072B60C4A1168B1FA4E
:1043500081F30B2B02D962B6002070474FF000406A
:1043600020FA03F021EA0001116062B604494822F4
:104370005343C8180022CA5042607047748FFF1F11
:10438000008CFF1F0C4B4822C31AB3FBF2F30B2B1C
:1043900011D80A4A127822B1094A12780AB1FFF7F5
:1043A000EBBB72B6074A4FF0004121FA03F31168E4
:1043B0001943116062B67047008CFF1FD6EFFF1FD4
:1043C000DFEFFF1F748FFF1F38B5114C23684BB10F
:1043D0000F4D28684288811801320C7A01888A4280
:1043E00012D30CE00B4B1B7813B94FF0FF340CE0E9
:1043F0000320FFF791FB20600028E9D1F5E7FFF7E4
:10440000C1FF00232B6000E04280204638BD00BF82
:10441000ECEFFF1FDFEFFF1F10B50C4C23681BB143
:104420000A4B1B686BB902E0094B1B7813B94FF0BC
:10443000FF3010BD0320FFF76FFB20600028EFD195
:10444000F5E75A889B18187A10BD00BFECEFFF1FE4
:10445000DFEFFF1F044B9888044B1B681BB11A88C1
:104460005B88D31AC018704710F2FF1FECEFFF1FD4
:104470002DE9F8432D4B2E4DDFF8C08001220C466C
:104480001A7006464BE02B682BBBDFF8A0904AF26F
:10449000F92798F8003013B9244A137014E0042067
:1044A000FFF756FB072808D8012389F80030FFF7EB
:1044B0004BFF286078B989F80000013F1D4B01D0FF
:1044C0001A782AB101221A704FF0FF30BDE8F88344
:1044D00000F0EAFBDDE72968164A488800231370DC
:1044E000C0F14002944238BF224600F1080780180C
:1044F000CF194880A41A02E0F05CF85401339342CB
:10450000FAD1F6184B883F2B06D940230B800420A4
:10451000FFF770FB00232B60074B05221A70002C5D
:10452000B1D1024B20461C70BDE8F883E2EFFF1FBB
:10453000E4EFFF1FE8EFFF1FE1EFFF1FDFEFFF1FBB
:1045400007B502AB012103F8010D1846FFF790FFF4
:104550000EBDFFFFF8B5114B1B78EBB1104E114BA0
:104560003468114D01271F704CB1638800272F70EC
:10457000042023802146FFF73DFB376009E0FFF769
:10458000E3FE014620B104202C70FFF733FB00E06E
:104590002F70044B00221A70F8BD00BFDFEFFF1F21
:1045A000E4EFFF1FE2EFFF1FE1EFFF1F38B50D4BF8
:1045B0001D78ADB90C4C216831B14B8804200B80BB
:1045C000FFF718FB256038BDFFF7BEFE014620B19E
:1045D0000420BDE83840FFF70DBB044B01221A70E0
:1045E00038BD00BFE2EFFF1FE4EFFF1FE1EFFF1F49
:1045F000F0B5C02928BFC02172B6124B1860124B0B
:1046000000221A605A609A60DA601A615A610126C3
:104610000AE0540902F01F0753F8245006FA07F77E
:104620003D4343F8245001328A42F2D100234FF433
:10463000817203E002FB0304637001338B42F9D102
:1046400062B6F0BDFCEFFF1F04F0FF1F10B572B69D
:104650001E4B1868A0B9586850B9986850B9D86806
:1046600050B9186950B95869143348B962B610BDC9
:10467000043305E0083303E00C3301E01033FFE7B7
:10468000B0FA80F14FF0004222FA01F220EA020073
:1046900018600F4802780132D2B2027062B60B483D
:1046A0001B1A9B105B01591A4FF481734B43094944
:1046B00003F5F9531E3309680124CC54C818064B7E
:1046C0001978914238BF1A7010BD00BF04F0FF1F67
:1046D00001F0FF1FFCEFFF1FF8EFFF1F417872B6DC
:1046E0000378012B02D9013B037011E04A11094BF9
:1046F000C9434FF0004001F01F0120FA01F153F8C7
:104700002200084343F82200034B1A78013A1A703A
:1047100062B6704704F0FF1F01F0FF1F30B5C36899
:104720000EE0187A90420AD158685C7A006950F815
:10473000245025B940F82410087801300870DB684F
:10474000002BEED130BD437A99424FF0000305D2E1
:10475000026952F8210042F821307047184670472C
:1047600038B5437A994201D3002418E0036953F81D
:104770002140002243F82120002CF5D02378012B82
:104780000DD9FFF763FF054628B10230A11C4FF495
:10479000807203F035FD2378013B23702C462046C0
:1047A00038BD10B54168427A4B7A9A420ED872B63B
:1047B0000268D36813B9D06004E02346DC68002C9B
:1047C000FBD1D860012313720B7262B610BDFFFFDC
:1047D000074B1A784AB9074AFF211170064A4FF071
:1047E000804101201160187070470020704700BFA1
:1047F00000F0FF1F5EE400E008E100E0F8B5164BB2
:10480000164D1A6842F080721A60154B1A6842F011
:1048100001021A60134B2E681C680FE0237A63B103
:1048200021682F680B68204698472A68E388D21BC6
:1048300012099A42A28088BFE2806469002CEDD1FF
:10484000064B094A1B689B1B1B091380074A1188EA
:104850008B4288BF1380F8BDFCED00E0041000E03F
:10486000001000E0F4EFFF1F1CF0FF1F02F0FF1F1D
:1048700030B572B609B9026822B9264A00231188F8
:10488000144611E003790F2BF7D82249098841FA21
:1048900003F1C907F1D503F1007303F59063B2EB9F
:1048A000431FEAD162B630BD41FA03F212F00102B1
:1048B00027D1012505FA03F52943218062B616495F
:1048C00003710C6844F002040C6051F8044C44F08D
:1048D000020441F8044C114982240C608B768B77DA
:1048E0000B76CB7703F1007303F590635B010360F4
:1048F0001A605A609A60DA601A615A619A61DA61E4
:1049000030BD0133102BCFD162B60022026003719B
:1049100030BD00BF20F0FF1F4080044000800040F9
:1049200003790F2B10D8094A137072B6084B02791D
:10493000012101FA02F2198821EA02021A8062B604
:104940001023037100230360704700BF1A800040EA
:1049500020F0FF1F08B5FCF7BDF8FCF7EDF900F0FB
:10496000A3F9FAE7F8B506460C468F18002506E0CD
:10497000336814F8011B1B68304698472D18BC4259
:10498000F6D12846F8BD2DE9F04100258AB007464A
:1049900088468C682E4611E02B46404601A921220C
:1049A00000F065F93B68202C34BF224620225B686A
:1049B000384601A9AD18A41A98473618002CEBD137
:1049C00030460AB0BDE8F08107B5054B1B88ADF84D
:1049D0000430036801A95B68022298470EBD00BF3E
:1049E000A0970000F0B505468BB022B90368C9B2A4
:1049F0001B6898472CE0012A08BF0A2221B93022FF
:104A00008DF82520212413E02124B1FBF2F002FBD4
:104A10001011C9B2092901D8303100E037310AAF8D
:104A20003E1906F8241C014610B1013CE4B2ECE743
:104A300033B1013C0AAAE4B213192D2203F8242C45
:104A40002B6801AF5B6828463919C4F122029847E8
:104A50000BB0F0BD002902DA49422D2300E000230B
:104A60000A22FFF7BFBF08461146FFF701BD0846FF
:104A7000FFF766BDFFF76EBDFFF7CEBCFFF7A4BC26
:104A8000FFF7E8BC7047FFFF044B00221A711A734E
:104A9000034A4FF47A7199601A60704724F0FF1F3F
:104AA000B097000010B5029C401AE41A4443521A11
:104AB00094FBF2F0C01810BD10B50446006803F076
:104AC00099F8204610BD38B504460D4600680131FE
:104AD00003F020FD10B184E82100012038BD4368B7
:104AE0008B4210B5044600D306E0FFF7ECFF20B17F
:104AF000A3680BB922681370012010BDF8B50446F5
:104B00000F46154622B9036803B11A7000230BE063
:104B10001146FFF7E4FF064640B9206810B103F0E4
:104B200069F8266000236360A36004E0A560206844
:104B3000394604F061F82046F8BD38B50023044634
:104B400003604360836003730D4639B10846FEF786
:104B500047FD294602462046FFF7D0FF204638BDD4
:104B600081420B4603D009689A68FFF7C7BF7047B8
:104B700038B505460C4641B10846FEF731FD2146E1
:104B800002462846FFF7BAFF00E0A960284638BD74
:104B900010B5002386B0044603604360836003734E
:104BA000084601A9FEF742FD204601A9FFF7E0FFF4
:104BB000204606B010BD70B504460E4685685AB151
:104BC00055192946FFF78BFF30B12068A36831469D
:104BD000C01804F011F8A560204670BD0B460968A6
:104BE0009A68FFF7E8BF38B505460C4639B1084664
:104BF000FEF7F6FC214602462846FFF7DCFF284672
:104C000038BD10B58B688468E41AA2420CD80068DD
:104C100068B1096851B180181A4604F04BF8D0F118
:104C2000010038BF002010BD002010BD084610BD97
:104C300082688B689A4202D30022FFF7E2BF00200D
:104C4000704708B582688B689A420CD3006868B1D7
:104C5000096851B1D31AC01803F0E0FED0F1010089
:104C600038BF002008BD002008BD084608BD38B583
:104C70000C469AB191B181688B4202D30023237014
:104C800038BDCD1A013A0168954228BF1546C918AA
:104C900020462A4604F064F80023635538BD0068B6
:104CA00008B102F05BBF704708B50E4B1A78C2B965
:104CB00001221A70FFF7CEFB08B1FFF7E3FE00F008
:104CC0008BF908B100F0E6FE00F0C4FB08B100F07B
:104CD00053FF00F0A9FD08B100F0C0FF014B002216
:104CE0001A7008BD34F0FF1F194B1A6842F4806235
:104CF0001A60184A00231370174A1370174A13706A
:104D0000174A1370174A1370174B40F213321A6088
:104D10004FF451725A60154BC0F344321A70C0F30D
:104D200047125A700221042200F01F0098729A70F4
:104D3000D9745A7588221A743C22DA700C4B4022BE
:104D40006FF44A711A705B184FF400521A60704782
:104D500034800440B7F0FF1F36F0FF1FC0F0FF1F84
:104D6000B8F0FF1F35F0FF1F40A0044000A0064030
:104D70002DE400E0134A937800F0030103F0EC0304
:104D80000B43410748BF43F01003937000F00F033B
:104D9000042B0C4903D18B7943F040038B71537979
:104DA000C20603F0EF03074A48BF43F010035371F4
:104DB0009379800603F0EF0348BF43F0100393712B
:104DC000704700BF00A006400E4B1B68580510B589
:104DD00003D410BDFFF768FF00E00B4C2378002BD5
:104DE000F8D10A4A4FF400511160094A0949D370B9
:104DF00040F203120A604A60074A1370074A1370B0
:104E000010BD00BF3480044035F0FF1F84E100E096
:104E100000A0064040A00440B7F0FF1F36F0FF1F7F
:104E200038B5094B04461D78002DFCD120460121E0
:104E3000FEF7C2FD20462946FEF792FD034B53F8CC
:104E40003420034B1A6038BD35F0FF1F90960000E8
:104E5000BCF0FF1F1D4B1B685A052DE9F0410746AA
:104E600031D51B4B1B680BB101221A70194B1A4D1F
:104E70001C781A4EDFF8688001343F2C88BF00246C
:104E800014E0FEF78FFB40280CDC33791B060DD5B0
:104E90002B7801333F2B88BF002318F80320F271D1
:104EA0002B7003E0FF2801DDFFF7FEFE2B78A34205
:104EB000E7D00B4B1F550B4B01221A70054B1C7092
:104EC000064BBC22DA70BDE8F08100BF348004409C
:104ED000BCF0FF1FC0F0FF1FB8F0FF1F00A006408E
:104EE00037F0FF1F35F0FF1F2DE9F84F254B1B68EA
:104EF00006465805894642D5234B1B680BB1012253
:104F00001A70224DB346AA4632E0214B1C782F7806
:104F100001343F2C88BF0024A74209D01BF8012B85
:104F20001C4B1A551C4B01221A70194B1C701FE0A8
:104F30001A4BBC22DA709846FEF734FB40280FDC8F
:104F400098F8043019060FD52B78124A01333F2BFD
:104F500088BF0023D25C88F807208AF8003003E07D
:104F6000FF2801DDFFF7A0FE2B78BB42E4D0D5E798
:104F700006EB09039B45C8D3084BBC22DA70BDE899
:104F8000F88F00BF34800440BCF0FF1FB8F0FF1F53
:104F9000C0F0FF1F37F0FF1F35F0FF1F00A00640D5
:104FA00010B5044C01E0FFF77FFE2378002BFAD107
:104FB00010BD00BF35F0FF1F054B064A1B78107867
:104FC000834201D33F3000E00138C01A704700BF70
:104FD000C0F0FF1FB8F0FF1F044B1878044B1B787C
:104FE000984238BF4030C01A704700BFB7F0FF1F6B
:104FF00036F0FF1F084B094A19781378994207D0F9
:1050000001333F2B88BF00230549C85C13707047EC
:105010004FF0FF30704700BFB7F0FF1F36F0FF1FA3
:1050200077F0FF1F074B1A78074B1B789A4206D080
:1050300001333F2B88BF0023044AD05C70474FF0F8
:10504000FF307047B7F0FF1F36F0FF1F77F0FF1FEC
:10505000094B1B685B050ED5084BDA7802F0CB02D2
:10506000DA7040225A74DA7842F03402DA70044B73
:105070001A78044B1A7070473480044000A0064030
:1050800036F0FF1FB7F0FF1F70B52D4B1A7912F0E5
:10509000300F1DD072B6997D21B9DA7940225A7449
:1050A00062B615E062B6274A27481278274D007885
:1050B0001C46531C3F2B88BF0023E67983421CBF4C
:1050C000EE541A46013911F0FF01F2D11D4B1A704E
:1050D0001B4AD37819465BB2002B1BDA13791806EA
:1050E00018D51B4B1B4C1D781B4B1B78AB4209D0B2
:1050F00001333F2B88BF00231079E05CD071107D15
:105100000728F3D9144A13700D4B1A79120601D5EA
:105110007C22DA7001F04003DBB27BB1084B1A79D4
:1051200002F04002D2B2194642B10C4B00221A7072
:105130000B4B1B6803B11A703C23CB7070BD00BFD2
:1051400000A00640B7F0FF1F36F0FF1F77F0FF1FEB
:10515000C0F0FF1F37F0FF1FB8F0FF1F35F0FF1F33
:10516000BCF0FF1F184B1A6842F400621A60174A1D
:1051700000231370164A1370164A1370164A1370E0
:10518000164A1370164B40F213321A604FF45172E4
:105190005A60144BC0F344321A70C0F347125A706D
:1051A00000F01F000422022198729A70D9745A7577
:1051B00088221A743C22DA700B4B40221A700B4B77
:1051C0004FF400421A607047348004402BF1FF1FF7
:1051D000C2F0FF1F34F1FF1F2CF1FF1FC1F0FF1FB2
:1051E0000CB0044000B006402FE400E004E100E011
:1051F000134A937800F0030103F0EC030B434107DB
:1052000048BF43F01003937000F00F03042B0C49C8
:1052100003D18B7943F040038B715379C20603F0BD
:10522000EF03074A48BF43F0100353719379810697
:1052300003F0EF0348BF43F010039371704700BFC2
:1052400000B006400E4B1B68180510B503D410BD06
:10525000FFF72AFD00E00B4C2378002BF8D10A4A17
:105260004FF400411160094A0949D37040F203121A
:105270000A604A60074A1370074A137010BD00BFE6
:1052800034800440C1F0FF1F84E100E000B006401C
:105290000CB004402BF1FF1FC2F0FF1F38B5094BC3
:1052A00004461D78002DFCD120460121FEF784FB29
:1052B00020462946FEF754FB034B53F83420034B9A
:1052C0001A6038BDC1F0FF1F9096000030F1FF1F3B
:1052D0001D4B1B681A052DE9F041074631D51B4BC4
:1052E0001B680BB101221A70194B1A4D1C781A4E0B
:1052F000DFF868800134272C88BF002414E0FEF713
:1053000051F940280CDC33791B060DD52B7801337D
:10531000272B88BF002318F80320F2712B7003E0BD
:10532000FF2801DDFFF7C0FC2B78A342E7D00B4B31
:105330001F550B4B01221A70054B1C70064BBC22EB
:10534000DA70BDE8F08100BF3480044030F1FF1F07
:1053500034F1FF1F2CF1FF1F00B00640C3F0FF1F08
:10536000C1F0FF1F2DE9F84F254B1B6806461805B5
:10537000894642D5234B1B680BB101221A70224D7E
:10538000B346AA4632E0214B1C782F780134272CF3
:1053900088BF0024A74209D01BF8012B1C4B1A55CB
:1053A0001C4B01221A70194B1C701FE01A4BBC22B7
:1053B000DA709846FEF7F6F840280FDC98F80430CB
:1053C00019060FD52B78124A0133272B88BF0023EB
:1053D000D25C88F807208AF8003003E0FF2801DD5E
:1053E000FFF762FC2B78BB42E4D0D5E706EB09035C
:1053F0009B45C8D3084BBC22DA70BDE8F88F00BFCC
:105400003480044030F1FF1F2CF1FF1F34F1FF1FE7
:10541000C3F0FF1FC1F0FF1F00B0064010B5044CE1
:1054200001E0FFF741FC2378002BFAD110BD00BF4B
:10543000C1F0FF1F054B064A1B781078834201D349
:10544000273000E00138C01A704700BF34F1FF1F59
:105450002CF1FF1F044B1878044B1B78984238BF7F
:105460004030C01A704700BF2BF1FF1FC2F0FF1F72
:10547000084B094A19781378994207D001333F2B1A
:1054800088BF00230549C85C137070474FF0FF3098
:10549000704700BF2BF1FF1FC2F0FF1FEBF0FF1F93
:1054A000074B1A78074B1B789A4206D001333F2BE3
:1054B00088BF0023044AD05C70474FF0FF3070472C
:1054C0002BF1FF1FC2F0FF1FEBF0FF1F094B1B6802
:1054D0001B050ED5084BDA7802F0CB02DA704022B9
:1054E0005A74DA7842F03402DA70044B1A78044BBA
:1054F0001A7070473480044000B00640C2F0FF1FAD
:105500002BF1FF1F70B52D4B1A7912F0300F1DD003
:1055100072B6997D21B9DA7940225A7462B615E0E3
:1055200062B6274A27481278274D00781C46531C3C
:105530003F2B88BF0023E67983421CBFEE541A46F6
:10554000013911F0FF01F2D11D4B1A701B4AD378BB
:1055500019465BB2002B1BDA1379180618D51B4BC2
:105560001B4C1D781B4B1B78AB4209D00133272BFA
:1055700088BF00231079E05CD071107D0728F3D933
:10558000144A13700D4B1A79120601D57C22DA7079
:1055900001F04003DBB27BB1084B1A7902F0400204
:1055A000D2B2194642B10C4B00221A700B4B1B6849
:1055B00003B11A703C23CB7070BD00BF00B0064031
:1055C0002BF1FF1FC2F0FF1FEBF0FF1F34F1FF1F95
:1055D000C3F0FF1F2CF1FF1FC1F0FF1F30F1FF1FB1
:1055E000174B1A6842F480521A60164A002313704F
:1055F000154A1370154A1370154A1370154A137023
:10560000154A40F2133111604FF451715160134A41
:10561000C0F344311170C0F3471100F01F00517006
:105620009072937013742C23D3700D4B40226FF43F
:105630004B711A705B184FF400321A60704700BF4C
:10564000348004409FF1FF1F36F1FF1FA8F1FF1FB8
:10565000A0F1FF1F35F1FF1F08C0044000C0064045
:1056600031E400E0134A937800F0030103F0EC0307
:105670000B43410748BF43F01003937000F00F0342
:10568000042B0C4903D18B7943F040038B71537980
:10569000C20603F0EF03074A48BF43F010035371FB
:1056A0009379800603F0EF0348BF43F01003937132
:1056B000704700BF00C006400E4B1B68D80410B5F1
:1056C00003D410BDFFF7F0FA00E00B4C2378002B59
:1056D000F8D10A4A4FF400311160094A0949D370E0
:1056E00040F203120A604A60074A1370074A1370B7
:1056F00010BD00BF3480044035F1FF1F84E100E09D
:1057000000C0064008C004409FF1FF1F36F1FF1F94
:1057100038B5094B04461D78002DFCD120460121E7
:10572000FEF74AF920462946FEF71AF9034B53F8CB
:105730003420034B1A6038BD35F1FF1F90960000EE
:10574000A4F1FF1F1D4B1B68DA042DE9F041074649
:1057500031D51B4B1B680BB101221A70194B1A4D26
:105760001C781A4EDFF868800134272C88BF00248B
:1057700014E0FDF717FF40280CDC33791B060DD52C
:105780002B780133272B88BF002318F80320F271F0
:105790002B7003E0FF2801DDFFF786FA2B78A34288
:1057A000E7D00B4B1F550B4B01221A70054B1C7099
:1057B000064BAC22DA70BDE8F08100BF34800440B3
:1057C000A4F1FF1FA8F1FF1FA0F1FF1F00C00640BA
:1057D00037F1FF1F35F1FF1F38B54518044603E0C8
:1057E00014F8010BFFF7AEFFAC42F9D138BDFFFF53
:1057F00010B5044C01E0FFF757FA2378002BFAD1DB
:1058000010BD00BF35F1FF1F054B064A1B7810780D
:10581000834201D3273000E00138C01A704700BF2F
:10582000A8F1FF1FA0F1FF1F044B1878044B1B7851
:10583000984238BF4030C01A704700BF9FF1FF1F29
:1058400036F1FF1F084B094A19781378994207D09F
:1058500001333F2B88BF00230549C85C1370704794
:105860004FF0FF30704700BF9FF1FF1F36F1FF1F61
:105870005FF1FF1F074B1A78074B1B789A4206D03F
:1058800001333F2B88BF0023044AD05C70474FF0A0
:10589000FF3070479FF1FF1F36F1FF1F5FF1FF1FC1
:1058A000024B1A78024B1A70704700BF36F1FF1F87
:1058B0009FF1FF1F10B5214B1A7902F02002D2B2DE
:1058C0006AB11F4AD8791F491378097801333F2BF1
:1058D00088BF00238B4202D01B49C8541370174A5B
:1058E000D37818465BB2002B13DA1379190610D55A
:1058F000164B17491C780B789C4202D16C23D3704D
:1059000007E00133272B88BF0023124CE45CD471DD
:105910000B7000F04003DBB27BB1084B1A7902F048
:105920004002D2B2194642B10B4B00221A700B4B07
:105930001B6803B11A702C23CB7010BD00C0064049
:105940009FF1FF1F36F1FF1F5FF1FF1FA8F1FF1F3F
:10595000A0F1FF1F37F1FF1F35F1FF1FA4F1FF1F5B
:105960001FB572B6154B70221A70154A412111707D
:105970000F2102F8011C80221A701A781206FCD539
:10598000104B186862B6104B984201D80A2358434E
:1059900001A90A22FDF72CFE0C48002301AA9A5CFB
:1059A0002AB100EB430101330A2B4A80F6D10133BF
:1059B000064A5B00137005B000BD00BF0000024046
:1059C00007000240080002407F9698000090FF1FE9
:1059D00008B50368C9B21B68984708BD08B50368D5
:1059E000C9B21B68984708BD08B50368C9B21B68EF
:1059F000984708BD08B50368C9B21B68984708BD39
:105A0000084608B5FFF726FA012008BD084608B584
:105A1000FFF720FA012008BD38B508460D46FDF70E
:105A2000DFFD044621462846FFF75EFA204638BDD2
:105A300010B5084614461146FFF756FA204610BD29
:105A4000FFF7BABAFFF704BBFFF7AABAFFF7D2BA5B
:105A5000FFF7E8BAFFF7C0BA0846FFF7E1B9FFF76A
:105A6000B3B9480800F1376000F5D830B0FBF1F069
:105A7000FFF73AB9480800F1376010B500F5D830A3
:105A8000B0FBF1F01446FFF72FF92046BDE81040B7
:105A9000FFF770B97047FFFF044B00221A711A73A9
:105AA000034A4FF47A7199601A607047ACF1FF1F96
:105AB0002898000008B50368C9B21B68984708BD5C
:105AC00008B50368C9B21B68984708BD08B50368E4
:105AD000C9B21B68984708BD08B50368C9B21B68FE
