:1000000000800020BD010000592500005925000096
:10001000592500005925000059250000252500001C
:100020002525000025250000252500005925000074
:100030005925000025250000592500001525000040
:1000400059250000592500005925000059250000B8
:1000500059250000592500005925000059250000A8
:100060005925000059250000592500005925000098
:100070005925000059250000592500005925000088
:100080005925000059250000592500005925000078
:100090005925000059250000592500005925000068
:1000A000A11800005925000059250000592500001D
:1000B0005925000059250000592500005925000048
:1000C0005925000059250000592500005925000038
:1000D0005925000059250000592500005925000028
:1000E0005925000059250000592500005925000018
:1000F00059250000493F000059250000C543000074
:1001000059250000754700005925000059250000B9
:1001100059250000592500005925000059250000E7
:1001200059250000592500005925000059250000D7
:1001300059250000592500005925000059250000C7
:1001400059250000592500005925000059250000B7
:1001500059250000592500005925000059250000A7
:1001600059250000352C00005925000059250000B4
:100170005925000059250000592500005925000087
:100180005925000059250000592500005925000077
:10019000592500005925000059250000B926000006
:1001A00009270000912700004D280000D1280000F9
:1001B0005925000059250000BD370000544B4CF272
:1001C000205210B51A804DF628121A8000BF00BFC9
:1001D00002F0C6F94F4B4FF010621A604E4A9A6017
:1001E0004E4ADA604E4B1A6812F4807204D14D49BF
:1001F0000A604FF4A8521A604B4B1A7802F00802BA
:10020000D2B21AB11A7842F008021A70474B484825
:10021000484C2A221A700023474A02E01959995083
:10022000043399188142F9D3444B454A002101E037
:1002300043F8041B9342FBD34249434800231A5816
:100240005A500433B3F5DE7FF9D1404B404A802148
:1002500003F8011B9342FBD13A4A3E4B1A603E4BD6
:100260000A221A703D4B24221A70A02203F8012C96
:100270003B4A137803F00203DBB2002BF9D0384A73
:10028000137803F01003DBB2002BF9D1344A137852
:1002900003F00C03082BFAD1324B03221A704022D0
:1002A0005A702F4A137803F02003DBB2002BF9D0E9
:1002B0002B4A137803F04003DBB2002BF9D02A4B12
:1002C0002A4A1A6002225A60294B20221A70244AB4
:1002D000137803F00C030C2BFAD1264A264B1A6034
:1002E000264B274A1A60072243F8042C62B602F014
:1002F00093FB0C4B1B68DC0702D5224802F000FB85
:1003000005F09AFB02F032F903F004FBFEE700BFB0
:100310000E20054030800440823F04000100002B85
:1003200010D0034014D0034002D0074000E0074043
:100330002CC6FF1FBC6A000060BDFF1F2CC6FF1F3C
:1003400010D8FF1F00B8FF1F0000000000E400E00D
:100350005FE400E008ED00E0005006400140064088
:10036000064006400440064044800440000003016B
:1003700000400640C01005000480044014E000E086
:10038000FF7601003FC0F854FFFFFFFFFFFFFFFFB4
:10039000FFFFFFFFFFFFFFFFFFFFFFFFFFFFFFFF6D
:1003A000FFFFFFFFFFFFFFFFFFFFFFFFFFFFFFFF5D
:1003B000FFFFFFFFFFFFFFFFFFFFFFFFFFFFFFFF4D
:1003C000FFFFFFFFFFFFFFFFFFFFFFFFFFFFFFFF3D
:1003D000FFFFFFFFFFFFFFFFFFFFFFFFFFFFFFFF2D
:1003E000FFFFFFFFFFFFFFFFFFFFFFFFFFFFFFFF1D
:1003F000FFFFFFFFFFFFFFFFFFFFFFFFFFFFFFFF0D
:10040000FFFFFFFFFFFFFFFFFFFFFFFFFEFFFFFFFD
:1004100008B54CF22C60074BC1F6FF701B1A062B77
:1004200000D808BD40F20003C0F20003002BF8D052
:100430009847F6E72FC6FF1F08B54CF22C604CF228
:100440002C63C1F6FF70C1F6FF731B1A9B1003EB00
:10045000D373591000D108BD40F20002C0F200026F
:10046000002AF8D09047F6E710B54CF22C64C1F69C
:10047000FF74237873B9FFF7CBFF40F20003C0F29B
:1004800000032BB146F6BC20C0F20000AFF30080A1
:100490000123237010BD00BF08B540F20003C0F275
:1004A00000034BB146F6BC204CF23061C0F20000B4
:1004B000C1F6FF71AFF300804CF22C60C1F6FF7003
:1004C00003682BB140F20003C0F2000303B1984768
:1004D000BDE80840FFF7B0BF38B5044608460D46F2
:1004E00002F06EF8236802465B682046294698476A
:1004F00038BDFFFF0F4B417203600023026103729E
:10050000C360194603E0026942F823100133427ABE
:100510009342F8DB084A136813B9106004E01346ED
:100520005A69002AFBD15861002343618380C3804C
:10053000704700BF10650000E0D5FF1F10B5042113
:1005400000F128020446FFF7D5FF054B23604FF466
:100550008033A361E36123626362204610BD00BF64
:1005600038670000002110B50A460446FFF7C2FFB5
:10057000034B23604FF480432362204610BD00BF2D
:1005800058670000FFFFFFFF38B505460C460846D8
:10059000002105F019FA48B9204604F033FC0CA3F9
:1005A000D3E9002304F012FF10B902E0002400E0B8
:1005B0000B4C204604F026FC07A3D3E9002304F0EB
:1005C00075FC04F035FFE86138BD00BFAFF3008073
:1005D000522CB7B4B48AD5405202FF7889C4F74090
:1005E000A655AC46AFF3008038B505460C46084624
:1005F000002105F0E9F930B920464FF07E5105F0B1
:1006000001FA10B903E0002401E04FF07E542046C7
:1006100004F0F8FB0022034B04F048FC04F0E0FE79
:10062000286238BD0000F0402DE9F04F924B934C0A
:10063000DFF8C0B22168DFF8C0A2DFF8C092DFF8AF
:10064000C0828F4F8F4E904D4FF080421A608F4A7C
:1006500085B010460392FFF797FF8D4B61680293B8
:100660001846FFF791FFDFF89CC2A168CDF804C0DF
:100670006046FFF789FFE1688648FFF785FF21693B
:100680008548FFF781FF61698448FFF77DFFA16915
:100690008348FFF779FFE1698248FFF775FF216A18
:1006A0008148FFF771FF616A8048FFF76DFFA16A1B
:1006B0007F48FFF769FFE16A7E48FFF765FF216B1E
:1006C0007D48FFF761FF616B7C48FFF75DFFA16B21
:1006D0007B48FFF759FFE16B7A48FFF755FF216C24
:1006E0007948FFF751FF616C7848FFF74DFFA16C27
:1006F0007748FFF749FFE16C7648FFF745FF216D2A
:100700007548FFF741FF616D7448FFF73DFFA16D2C
:100710007348FFF739FFE16D7248FFF735FF216E2F
:100720007148FFF731FF616E5846FFF72DFFA16E4C
:100730005046FFF729FFE16E4846FFF725FF216F7E
:100740004046FFF721FF616F3846FFF71DFFA16F9D
:100750003046FFF719FFE16F644C2846FFF714FF9E
:10076000039A21681046FFF73FFF029B6168184615
:10077000FFF73AFFDDF804C0A1686046FFF734FFD9
:100780004448E168FFF730FF43482169FFF72CFF39
:1007900042486169FFF728FF4148A169FFF724FF3C
:1007A0004048E169FFF720FF3F48216AFFF71CFF3F
:1007B0003E48616AFFF718FF3D48A16AFFF714FF42
:1007C0003C48E16AFFF710FF3B48216BFFF70CFF45
:1007D0003A48616BFFF708FF3948A16BFFF704FF48
:1007E0003848E16BFFF700FF3748216CFFF7FCFE4C
:1007F0003648616CFFF7F8FE3548A16CFFF7F4FE50
:100800003448E16CFFF7F0FE3348216DFFF7ECFE52
:100810003248616DFFF7E8FE3148A16DFFF7E4FE55
:100820003048E16DFFF7E0FE2F48216EFFF7DCFE58
:100830005846616EFFF7D8FE5046A16EFFF7D4FE12
:100840004846E16EFFF7D0FE4046216FFFF7CCFE31
:100850003846616FFFF7C8FE3046A16FFFF7C4FE50
:100860002846E16FFFF7C0FE214B4FF080421A602F
:1008700005B0BDE8F08F00BF88E100E0DCCCFF1FD1
:10088000FCD0FF1F40CBFF1F64CBFF1FFCC9FF1F25
:1008900020CAFF1F68CAFF1F8CCAFF1FB0CAFF1FF4
:1008A000D4CAFF1FF8CAFF1F1CCBFF1F78C6FF1F4B
:1008B0001CC7FF1F40C7FF1F64C7FF1F24D0FF1FB7
:1008C00048D0FF1F6CD0FF1F90D0FF1FB4D0FF1F78
:1008D000D8D0FF1F88C7FF1FACC7FF1FD0C7FF1F9F
:1008E000F4C7FF1F5CCDFF1F1CC8FF1F98BFFF1F71
:1008F00008E100E040C8FF1F64C8FF1F88C8FF1F51
:10090000ACC8FF1F44CAFF1F2DE9F3411C4D1D4F0A
:100910001D4E002442F2107003F01AF904F05EFE3E
:100920001A496051E0511A48FFF7D6FD605904F0AA
:1009300069FA4FF0020802460B46CDF800801448D1
:1009400003F04AF813491248FFF7C6FDA05904F016
:1009500059FACDF8008002460B460D4803F03CF8EA
:1009600004340B4802F0F0FF802CD3D10A4803F086
:10097000EFF804F033FE094B1860BDE8FC8100BFBE
:100980009CC6FF1FDCCCFF1F14BFFF1F18650000B3
:100990000CD6FF1F1F650000A086010094BFFF1F3B
:1009A00008B50220002101F0E7FF0820002101F036
:1009B000E3FF0920002101F0DFFF0B20012101F0FE
:1009C000DBFF0620012101F0D7FF0520012101F006
:1009D000D3FF0420012101F0CFFF0320012101F00A
:1009E000CBFF3221214802F0E3FD214A4FF480433E
:1009F0009361D361136253621E4A9361D3611362A0
:100A000053621D4A9361D361136253621B4A93611F
:100A1000D361136253621A4A9361D36113625362C2
:100A2000184A4EF266619161D161002111625162F2
:100A3000154A9361D36113625362144A9361D3617F
:100A400013625362124A9361D36113625362114A73
:100A50009361D361136253620F4A9361D36113624E
:100A60005362BDE80840FFF74FBF00BF0082FF1F81
:100A700064CEFF1F34CCFF1F6CCCFF1F0CCFFF1FB9
:100A800044CFFF1F7CCFFF1FB4CFFF1FECCFFF1F52
:100A9000A4CCFF1F9CCEFF1FD4CEFF1FF0B50023B8
:100AA0000C4C0D4D0D4E19461A468000092700EBDF
:100AB000020C013256F82CC007FB0C1C032A55F817
:100AC0002CC043F804C001DD013100220433802B27
:100AD000EDD1F0BD14BFFF1F64BDFF1F18C0FF1F85
:100AE000044A05480023195899500433802BFAD141
:100AF000704700BF9CC6FF1FDCCCFF1F2DE9F84FDD
:100B00003E4B3F4819783F4D0A22002302F02AFF4E
:100B10003B4802F019FF1BE054F80A10304604F07D
:100B2000B5FDE1598346404604F0B0FD0146584604
:100B300004F0A4FC44F809000434802CECD1324ABF
:100B40001660324A1060FFF76FFD2B6801332B608F
:100B5000286804F047FD2E4B1C682146064604F029
:100B600033FF10B32146304604F044FE01460446EC
:100B700004F08CFD21460646204604F07FFC014629
:100B80002448DFF8A4A0244FDFF8A09004F074FC00
:100B90000146304604F07AFD064631464FF07E505D
:100BA00004F06AFC00248046B6E71C4800F09EFB77
:100BB00070B11A4800F07CFB194B187008E0174818
:100BC00000F094FB28B1154800F072FB207000E0A3
:100BD000134C2378002BF2D0124CFFF781FF2068D2
:100BE000FFF75CFF074B00221A6023680133052BD7
:100BF000C8BF13462360BDE8F88F00BFE4D5FF1FD0
:100C00000CD6FF1F80CDFF1FD0C8FF1FD4C8FF1F09
:100C100094BFFF1F000040409CC6FF1F20D1FF1F54
:100C2000E8C9FF1F18C8FF1F14BFFF1FDCCCFF1F40
:100C30002DE9F74F02211422B54EB648B64DB74CF8
:100C4000DFF8C4B3DFF8C4A3DFF8C493DFF8C483CC
:100C500000F01AFB08211422B14800F015FB3046C1
:100C6000FFF780FC2846FFF77DFCAE48FFF77AFCD3
:100C70002046FFF777FCDFF8A0C36046CDF800C040
:100C8000FFF770FCA848FFF76DFCA848FFF76AFC67
:100C9000A748FFF767FCA748FFF764FCA648FFF7E3
:100CA00061FCA648FFF75EFCA548FFF75BFCA54882
:100CB000FFF758FCA448FFF755FCA448FFF752FC87
:100CC000A348FFF74FFCA348FFF74CFCA248FFF7EF
:100CD00049FCA248FFF746FCA148FFF743FCA148A6
:100CE000FFF740FCA048FFF73DFCA048FFF73AFCA7
:100CF0009F48FFF737FC9F48FFF734FC9E48FFF7FB
:100D000031FC9E48FFF72EFC9D48FFF72BFC9D48C9
:100D1000FFF728FC9C48FFF725FC5846FFF70EFC20
:100D20005046FFF70BFC9948FFF71CFC9848FFF76B
:100D300019FC9848FFF702FC9748FFF7FFFB97481C
:100D4000FFF7FCFB9648FFF7F9FB9648FFF7F6FB29
:100D50004846FFF7F3FB4046FFF7F0FB9248FFF7EA
:100D6000EDFB924B012103F1180218460193FFF7A6
:100D7000C1FB019B8E4A18461A6000F0C5FB8D48E6
:100D8000FFF7DCFB8C48002780E84008022607724A
:100D90004672C76002F0E5FC884880E82008032519
:100DA00007724572C76002F0DCFC85485D4A077235
:100DB00080E804084772C76002F0D3FC814880E8ED
:100DC0001008012407724472C76002F0CAFCDDF803
:100DD00000C07D48C0F800C0C0F804A00772477288
:100DE000C76002F0BEFC79484F4A077202606C4A45
:100DF00047724260C76002F0B4FC75484B4A077204
:100E00000260664A47724260C76002F0AAFC7148FD
:100E1000474A077280E804044472C76002F0A1FCEC
:100E20006D48444A077280E804044672C76002F0C5
:100E300098FC6A48404A07720260584A447242600D
:100E4000C76002F08EFC66483C4A07720260514A55
:100E500045724260C76002F084FC6248384A0772FB
:100E600002604C4A47724260C76002F07AFC5E48FA
:100E7000344A07720260484A47724260C76002F013
:100E800070FC5A48304A07720260444A4572426018
:100E9000C76002F066FC56482C4A077202603D4A61
:100EA00044724260C76002F05CFC5248284A0772F4
:100EB00002603A4A46724260C76002F052FC4E48F5
:100EC000244A07720260334A46724260C76002F0E9
:100ED00048FC4A48204A077202602F4A4472426026
:100EE000C76002F03EFC46481C4A077202602C4A6A
:100EF00044724260C76002F034FC4248184A0772EC
:100F000080E804044572C76002F02BFC86E000BF55
:100F100044CAFF1F88CBFF1F68CAFF1F20CAFF1FDC
:100F200020D1FF1FFCC9FF1F64C7FF1F1CCBFF1F81
:100F3000B0CAFF1FD4CAFF1F78C6FF1F88C7FF1F94
:100F400090D0FF1FACC7FF1F40C7FF1FB4D0FF1FCB
:100F50001CC7FF1FD8D0FF1FD0C7FF1F24D0FF1F03
:100F6000F8CAFF1FF4C7FF1F6CD0FF1F5CCDFF1F27
:100F700048D0FF1F1CC8FF1F40C8FF1F88C8FF1FA5
:100F800064C8FF1FACC8FF1FFCD0FF1F40CBFF1F72
:100F900064CBFF1FECCFFF1FA4CCFF1F0CCFFF1FA4
:100FA00044CFFF1F6CCCFF1F7CCFFF1FD8CBFF1F90
:100FB00048670000B4CFFF1FD8C8FF1FE8C8FF1F55
:100FC000F8C8FF1F08C9FF1F18C9FF1F28C9FF1F46
:100FD00038C9FF1F48C9FF1F58C9FF1F84CDFF1F15
:100FE00094CDFF1F68C9FF1F78C9FF1FA4CDFF1F45
:100FF00098C9FF1FB4CDFF1FB8C9FF1FC8C9FF1F85
:10100000D8C9FF1F98CBFF1F64CEFF1F34CCFF1F32
:101010009CCEFF1FD4CEFF1F8CCAFF1F7048714AA1
:1010200007720260704A46724260C76002F099FB24
:101030006E486F4A077202606E4A45724260C7602E
:1010400002F08FFB6C486D4A07720260664A457277
:101050004260C76002F085FB69486A4A0772026015
:10106000644A46724260C76002F07BFB6648674A8A
:10107000077280E804024772C76002F072FB64489E
:10108000644A077280E804024472C76002F069FB98
:101090006148624A077280E804024572C76002F044
:1010A00060FB5F485F4A077280E804024672C760CF
:1010B00002F057FB5C485D4A077280E80401477202
:1010C000C76002F04EFB5A485A4A077280E8040192
:1010D0004472C76002F045FB5748584AC0F800B058
:1010E000426007724772C76002F03BFB5448534AA4
:1010F000C0F800A0426007724472C76002F031FB82
:101100005048514A077280E804014672C76002F0F5
:1011100028FB4E484E4A077280E804014572C760BA
:1011200002F01FFB4B484C4A077202604B4A477261
:101130004260C76002F015FB49482B4A0772026003
:10114000464A44724260C76002F00BFB4548464A7B
:1011500007720260394A46724260C76002F001FBC2
:101160004248244A07720260344A45724260C760AE
:1011700002F0F7FA3E48314A077202603D4A477270
:101180004260C76002F0EDFA3B48344AC0F8009074
:10119000426007724672C76002F0E3FA37482F4A8E
:1011A000C0F80080426007724572C76002F0D9FA49
:1011B0003348019B2F4A80E80C0007724772C760D2
:1011C00002F0CFFA2F48254B2A4A0360426007728B
:1011D0004472C76003B0BDE8F04F02F0C2BA00BF6E
:1011E000A8CBFF1FF4C7FF1FA4CCFF1FB8CBFF1F66
:1011F0006CD0FF1F44CFFF1FC8CBFF1F5CCDFF1F6C
:1012000088C9FF1F48D0FF1FA8C9FF1F1CC8FF1FA8
:10121000F4CBFF1F40C8FF1F04CCFF1F88C8FF1F6F
:1012200014CCFF1F64C8FF1F24CCFF1FACC8FF1FD6
:10123000C4CDFF1FFCD0FF1FD4CDFF1F6CCCFF1F00
:10124000E4CDFF1FF4CDFF1F40CBFF1F04CEFF1FD7
:1012500064CBFF1F14CEFF1FECCFFF1FB4CFFF1FC7
:1012600024CEFF1F34CEFF1F0CCFFF1F44CEFF1F25
:1012700054CEFF1F7CCFFF1FECC9FF1F48C6FF1FC6
:1012800058C6FF1F68C6FF1F37B500238360074B92
:1012900042601B680193019B0446036008460D46AB
:1012A00001F05EFB6573207320463EBDE8D4FF1F4E
:1012B000007B704713B50446407B01F051FB237B54
:1012C000834201D100200EE0074B1A68009200997A
:1012D0002268891A62689142F4D31B6820730193D3
:1012E000019B012023601CBDE8D4FF1F37B50446D5
:1012F000FFF7E0FF10B10023A3600EE0A26872B117
:10130000084B19680091009D2168691A914206D323
:101310001B68A0600193019B2360012000E0002076
:10132000A0733EBDE8D4FF1F10B5044602F0D8FA02
:10133000204610BD02480349034A04F06DBB00BFBC
:1013400030D1FF1F2913000060BDFF1F0248034971
:10135000034A04F061BB00BF38D1FF1F291300000E
:1013600060BDFF1F10B500F58072036831FB03F408
:1013700031FB13F304F30F0403F30F03C4EA034335
:1013800040F8043B9042F0D110BD0023B2F5803FFD
:1013900070B510D1C258CC5892FA14F2C250CD1880
:1013A000C2186D68546894FA15F40833B3F5807F59
:1013B0005460EFD170BDCC5832FB04F632FB14F40C
:1013C00006F30F0604F30F04C6EA0444C55894FA62
:1013D00015F5C5500433B3F5807FECD170BD2DE910
:1013E000F0410025064607462C46304629465CB9A2
:1013F00002F096F90446A0B1B969B1F5803F10D06A
:101400000230FFF7AFFF0CE002F07DF9804640B1FB
:10141000A01C08F10201BA69FFF7B7FF404602F0CD
:101420003DF901350437042DDFD14CB1304621465A
:10143000002202F053F92046BDE8F04102F02EB937
:10144000BDE8F08110B5194B1A6811681A79184B6C
:101450001A70184A9142184928BF184B08683CBFB7
:10146000134603F5807298B1014631F9024F04F535
:10147000FF447F34241123F8024B9342F5D302F04A
:101480000DF90F4B0C491A680A6000221A6005E03A
:1014900040F2FF7123F8021B9342FBD3094B1B78E8
:1014A0001BB1094B4FF080421A6010BD44D1FF1FA1
:1014B0001F80004064B5FF1F50D1FF1F64B4FF1FA1
:1014C00040D1FF1F4CD1FF1F08E200E010B5002102
:1014D00002F019F9034690B172B60949086808B9D3
:1014E0000B6003E0074A146814B9136062B610BDBC
:1014F0000C60136062B6BDE8104002F0CFB810BDBA
:1015000050D1FF1F40D1FF1F38B54B484B4D012133
:1015100002F08EF94A4B1A6842F480521A60494B25
:1015200080221A7000242C8008340120A4B201F01B
:101530005DFAB4F5006FF6D1434B1B685B0264D5CE
:10154000424B1A6848F6A273134048F6A2729342BF
:101550005BD13F4B1A6840F23F439A4255D13D4B15
:101560001B68012B51D13C4B1A6840F201139A427F
:101570004BD1314D39492B681A6819600221197114
:1015800019726FF0010159734FF0FF319973D973DC
:1015900019692A494FF4807019610022D98AD882CA
:1015A00011465A715A729A72DA721A731A755A750A
:1015B0001A765A769A76DA76DA8BD8839A8B012461
:1015C00006229A839C71DC712B7903F1804303F529
:1015D0000433B02219701A7002F0DAF8204B214A55
:1015E00018702B792048137003F110011F4A42F83C
:1015F00021005A11920002F1604202F5614203F0AB
:101600001F0304FA03F4146038BD0F4B1A6842F448
:1016100080021A600F4B01221A6040F23F4243F8E9
:10162000082C48F6A37243F80C2C114A43F80C2CF2
:1016300040F201125A609CE744D1FF1F00C00C40E9
:101640002C80044021C00C403C80044000600340DA
:10165000046003400C6003401060034064B4FF1F4B
:101660004CD1FF1F1B8000404514000000B8FF1F35
:10167000A28F010002480349034A04F0CDB900BF1C
:1016800044D1FF1F2913000060BDFF1F024803491A
:10169000034A04F0C1B900BF54D1FF1F2913000051
:1016A00060BDFF1F02480349034A04F0B5B900BFFB
:1016B0005CD1FF1F2913000060BDFF1F2DE9F84317
:1016C000036A0446002B34D001F0A0FF0546002831
:1016D0002FD0A169E069D4F820C0194F0A46002331
:1016E0004FEA126EC2F30F2637F91E900EF1010E6B
:1016F000C6F57F4837F91EE008F1FF0806FB0EF635
:1017000009FB086E5EFB0CFEEE180233B3F5807F1A
:10171000A6F802E00244E3D101EBC011A16120462A
:101720002946002201F0DAFF2846BDE8F84301F01F
:10173000B5BFA369E26903EBC213A361BDE8F883F7
:101740002A650000094B1B7813B9094B1B782BB194
:10175000084A1378202B03D9012303710020704716
:101760000548C1540133137001207047CAD1FF1FCF
:101770008DD1FF1FCBD1FF1F6CD1FF1F7047FFFF23
:10178000024B1878024B1B78C01A7047C9D1FF1F53
:10179000C8D1FF1F064A074913780978994204D92E
:1017A0000549C85C0133137070474FF0FF30704734
:1017B000C8D1FF1FC9D1FF1F8ED1FF1F054B064A9D
:1017C0001B7812789A4202D9044AD05C70474FF0D5
:1017D000FF307047C8D1FF1FC9D1FF1F8ED1FF1F37
:1017E00038B50E4B1B78144613B90D4B1B788BB1D3
:1017F0000C4B1D78C5F121039C4202D901220271D4
:101800001C4609482246401904F01EFC054B2D19C0
:101810001D7000E01C46204638BD00BFCAD1FF1F26
:101820008DD1FF1FCBD1FF1F6CD1FF1F10B5104B07
:101830001B7813F020040BD1122000F025FF0D4B74
:101840001B68A3B10C4A14700C4A1078984710BD5D
:101850000B4A13780133DBB2012B137002D8094B0A
:101860001B7823B91220BDE8104000F00DBF10BD59
:101870000360064068D1FF1FC8D1FF1FC9D1FF1FF9
:10188000B4D1FF1F8DD1FF1F002202710273034AE2
:101890004FF47A7181600260704700BF6867000092
:1018A00010B5374A137803F01001C9B221B903F01B
:1018B0004002D2B242B92EE01021117003F0400272
:1018C000D2B2002AF3D110BD13F004032D4A18D070
:1018D000002313702C4A13702C4B1B68144603B161
:1018E000984722782A4B1AB927491A7001200870A4
:1018F000284AD02111701A78274B1A700122274BE1
:1019000021E001211170264A1370224BC0221A7067
:1019100002331B7830E01F4A1F4C117811F0100180
:1019200017D013F0010310D11C4917480A7800782A
:10193000904205D9164B9B5C013223700A7000E07F
:101940002370144BD0221A7016E0C0231370237832
:1019500012E0144B122019700322134900F06AFEA2
:101960000F4A207813781F2B06D80649097819B139
:101970000E49C85401331370014B02221A7010BD76
:101980000360064064D1FF1FCBD1FF1FB0D1FF1F02
:101990006CD1FF1F0260064004600640CCD1FF1FDF
:1019A000C9D1FF1FB4D1FF1F2D1800008ED1FF1F1A
:1019B0000148FFF769BF00BFB8D1FF1F084B0221E4
:1019C0001961084900225A719A719A721A7383F840
:1019D000302083F83C20996383F83E20704700BF95
:1019E000ECD1FF1F88670000094B1A6842F480623F
:1019F0001A602C334FF000421A60064AFF21116032
:101A00001A68002AFCDA044B1868C0B2704700BF9D
:101A100000C0024034C0024038C002401A4B1B4A8A
:101A200070B51A60C307044602D5FFF7DDFF013C1D
:101A3000052C01D8630800E003230022144915484F
:101A400001E0086001329A42FBDB23EAE372A4EB77
:101A500042040F49104A0F48104D06E0166816F070
:101A6000F00FFBD008602E68023C002CF6D106E097
:101A7000106810F0F00FFBD00868013B01E0064A47
:101A80000649002BF4D170BD00C0024000041F8045
:101A900034C00240FFFF00902CC0024038C002401A
:101AA000074B1A6842F480621A602C334FF00042F0
:101AB0001A60044A10601A68002AFCDA704700BFF6
:101AC00000C0024034C0024010B5194B1B780BB364
:101AD000DA0707D5174A1849146809682140174CD6
:101AE0002160116003F00202D2B23AB1144A1249E5
:101AF000146849682140114C6160116003F00403CF
:101B0000DBB23BB10F4B0C4A196892680A400B4993
:101B10008A601A600C4A1368834208D00B4B0C4948
:101B20001960106040F0804050600A4A1A6010BD91
:101B3000E8D1FF1F80E100E0D0D1FF1FDCD1FF1F03
:101B400084E100E088E100E00CC0024000C00240F7
:101B500001401F0000001F800C4B1B78ABB1D90760
:101B600003D50B4A11680B4A116003F00202D2B28E
:101B70001AB1074A5168084A116003F00403DBB246
:101B80001BB1034B9A68054B1A607047E8D1FF1FE1
:101B9000DCD1FF1F00E100E004E100E008E100E02B
:101BA00008B50121007900F0BBFEFFF7D5FF08BDA5
:101BB000054B10B504461868FFF786FF2079002111
:101BC000BDE8104000F0ACBE4CD2FF1F10B58379C9
:101BD00004468BB1008940F20123984207D8C0F532
:101BE00000700230FFF71AFF40F2022323812046E3
:101BF000FFF7D6FF0023A37110BDFFFF73B50B4B9A
:101C00001A680092009E0D461C46B6B2FFF7ECFE25
:101C1000FF2808D023680193019B9BB29B1BAB421A
:101C2000F4DB002000E001207CBD00BFE8D4FF1FF2
:101C3000F8B505460E461746FFF7C8FF2846FFF7DA
:101C4000B7FF4FF496712846FFF7D8FF46F04000E3
:101C5000FFF726FF182427FA04F0C0B2083CFFF76C
:101C60001FFF14F1080FF6D126B1082E0CBF8720F4
:101C7000FF2000E09520FFF713FF0024FFF7B4FEDC
:101C80000306E87204D5FF2C02D00134E4B2F5E774
:101C9000F8BDFFFF73B5114B1A680092009E044611
:101CA0001D46B6B209E02B680193019B9BB29B1BBA
:101CB000B3F5967F01DD0F2307E0FFF795FEFF28C0
:101CC000E072F0D0FE2806D00D2320466371FFF7A6
:101CD00067FF002000E001207CBD00BFE8D4FF1FAB
:101CE0002DE9F843089D04460F4690461E4603B969
:101CF00074E09B18B3F5007F73DC83792BB1036824
:101D0000994202D10389934216D9237B2760032B82
:101D100018BF7F023A4620461121FFF789FF074688
:101D200010B1032363715CE02046FFF7B3FF002886
:101D300057D001232781A3714046FFF76FFE2C493E
:101D40002C4B1960F107324604D5FFF74DFE05F81C
:101D5000010B721E052A01D8530800E0032300215D
:101D60002548264F01E0076001319942FBDBA2EBD9
:101D70004302AA182248204FDFF880C0DFF8848091
:101D80000DE0016811F0F00FFBD0C7F800C0D8F8E3
:101D90000010C1F3072985F800906970023595425B
:101DA000EFD302EB43031748154A09E0116811F01D
:101DB000F00FFBD00168C1F307272F70697002355F
:101DC0009D42F3D32389F618A37AB6B2268113B1C4
:101DD000B6F5007F02D32046FFF7F8FE0120BDE8EC
:101DE000F8832046FFF7DCFE0020BDE8F88300BF43
:101DF00000041F8000C0024034C00240FFFF00907A
:101E00002CC0024038C0024007B54FF40073009266
:101E10000022FFF765FF0EBD2DE9F04104462B4877
:101E20002B4F03682B4D43F480634FF00046036053
:101E30003E6029603946002307468C46D1F800E011
:101E4000BEF1000FFADA12E0D1F800E0BEF1000FA7
:101E5000FADA18E01E4A1368002BFCDA26E0112398
:101E600020466371FFF79CFE0020BDE8F081D0F8AA
:101E7000008012F803E048F48068C0F800800E602B
:101E8000C5F800E0E0E702EB030ED7F800809EF80B
:101E900001E0023348F48068B3F5007FC7F80080A2
:101EA000CCF80060C5F800E0C8D1D3E7FF20FFF709
:101EB000F7FDFF20FFF7F4FDFFF796FDE07200F05D
:101EC0001F000528CBD10120BDE8F08100C00240F1
:101ED0002CC0024034C0024070B50B460446164682
:101EE00009B9122329E0027B032A18BF4B021A46C4
:101EF0001821FFF79DFE054608B104231DE020468A
:101F0000FE213246FFF788FF88B120464FF4167154
:101F1000FFF774FE08B915230FE020460D212A466D
:101F2000FFF786FE40B9FFF75FFD28B907E02046BE
:101F3000FFF736FE002070BD14236371F7E72046DB
:101F4000FFF72EFE012070BD014A024B1A60704758
:101F5000011001384CD2FF1F10B504460121006A60
:101F600004F1080200F01EFA40B1E3692BB9A3683E
:101F7000E361637963F07F036371012010BDFFFFAC
:101F800010B50446006900F071F918B1207D024BCC
:101F900003EB401010BD00BF5CD2FF1FF8B5044634
:101FA00080790D4600282CD0A369994224D825E0D9
:101FB0001DB9A560E5600120F8BD236AE2681E7CBA
:101FC000691E0936531E23FA06F321FA06F69E42CD
:101FD00000D312B9E369A36009E0F61A07E0206AAA
:101FE000A1683A4600F066F9013E10B9F8BD04F167
:101FF0000807002EF3D1DDE70020F8BD0228D7D175
:10200000D8E7F8BD38B58379054613B390F90530A4
:10201000002B1ADA0121FFF7B3FF0446C8B1AB79F0
:10202000012B9CBFAB69C361EB6943831B0C8382AB
:10203000094B1B682BB1183004F116019847238B0C
:1020400063826B7903F07F036B71BDE8384000F069
:10205000E7B8002038BD00BF50D2FF1F2DE9F74F71
:1020600092468279012A07460C4640F0B6804279B2
:1020700002F00201C9B2002900F0AF80B1E0B969F5
:10208000FD688D4201D1554688E0FFF787FF0028A3
:1020900000F0A380F7E7386A90F804B00BF1FF3B3B
:1020A0000BEA522B4FEAC2594FEAD9591BF0FF0BEA
:1020B0001FFA89F81FD1B8F1000F1CD1B96811B906
:1020C000FA69BAB911E001AA00F0F4F8002800F0AA
:1020D0008F80396A474891F82010019A4FF6F873BB
:1020E000102908BF1846824204D33846FFF734FF50
:1020F00008B972E0BA603A6AB968107C5269C8F5EA
:1021000000760239B6B2B54238BF2E4601FA00F168
:102110008918B6F5007F8B4411D1374A11685945AB
:1021200004BF4FF0FF311160344A5946106822460F
:10213000FFF7D2FE002850D004F5007429E0B8F172
:10214000000F10D1F968BA6991420CD300F068F819
:10215000002842D0284AC2F800B0294A117841F03C
:102160000101117005E05846012100F07FF80028B8
:1021700033D0244A914409EB0600611E4A4603E02D
:1021800011F801CF02F801CB8242F9D1C9EB020963
:102190004C44FA68AD1B9619ADB2FE60FA68002D8A
:1021A0007FF479AFB9698A4201D9BA6105E0164A6C
:1021B000126832B1BAF1000F03D07A7962F07F026F
:1021C0007A717A7902F00802D2B20AB950460FE069
:1021D0003846FFF717FF0028F8D101223A71002096
:1021E00006E002F00402D2B2002A7FF448AF4AE7C8
:1021F000BDE8FE8FF8FFFF0F78C0FF1F58D2FF1F0A
:102200005CD4FF1F5CD2FF1F50D2FF1F07B502AB8B
:10221000012203F8011D1946FFF720FF0EBDFFFF45
:1022200038B50D4B1B78A3B10C4D0D4B28681968C0
:102230000C4AFFF751FE68B10B4C216831B1286898
:10224000084AFFF749FE28B100232360024B002211
:102250001A70012038BD00BF5CD4FF1F58D2FF1F89
:1022600078C0FF1F5CD2FF1F54D2FF1F70B50D4D09
:102270002B68834204460E460DD0FFF7D1FF08B904
:10228000002070BD084B094A18682146FFF7BCFDC5
:102290000028F5D02C60064B1A7816431E700120DA
:1022A00070BD00BF78C0FF1F58D2FF1F5CD2FF1F58
:1022B0005CD4FF1FC3680133994270B505460C46D4
:1022C000164601D9002070BD95F82030C069102B4A
:1022D00001D10B0A00E0CB0918180E4B1B6898427D
:1022E00005D195F82030102B0B4B0AD105E00021C9
:1022F000FFF7BCFF0028F4D1E4E7E4B233F8143070
:1023000005E004F07F0453F8243023F07043336079
:10231000012070BD78C0FF1F5CD2FF1F0129F8B5F6
:1023200004460D46174633D9C368013399422FD866
:1023300090F82030C669102B01D10B0A00E0CB09C0
:102340009E19144B1B689E4205D194F82030102B27
:10235000114B0BD106E030460021FFF787FF002824
:10236000F3D1F8BDEDB223F8157003E005F07F0559
:1023700043F82570094B1A7842F001021A70237E47
:10238000012B03D9A368F618054B1E600120F8BD88
:102390000020F8BD78C0FF1F5CD2FF1F5CD4FF1F78
:1023A00054D2FF1F2DE9F74F156806468A46174697
:1023B0001DB101354FF0000905E04B1ED3F10009B6
:1023C000056859EB0309F3682C4603F1010B4FF044
:1023D0000008F36898451CD25C4501D902242546C3
:1023E0003046214601AAFFF765FF90B1019A631CB0
:1023F0000AB11D4602E05B1B534503D008F10108FA
:102400000134E6E7304621466FF07042FFF786FF61
:1024100058B900201CE004F1FF38304641462246FE
:10242000FFF77CFF0028F4D04446AC42F3D839686B
:1024300021B93D60B9F1000F07D108E030462A46C6
:10244000FFF76CFF0028F4D1E3E701353560012088
:10245000BDE8FE8F224B60221A70E1225A70214B98
:10246000214A1978214B082901D1012102E00A29CA
:1024700007D13921116013221A601D4B19605A606F
:102480000BE00C291A4901D1352000E03D201060F5
:1024900012221A60174B08601A60174B17491B78F5
:1024A000174A03B101230B601360164B164A1978C3
:1024B000164B012901D880210CE0042901D8842180
:1024C00008E0082901D8852104E0102901D88621D7
:1024D00000E08721116019600D4B01221A707047CE
:1024E000004007407CC0FF1F08B003400CB0034011
:1024F00008B00B400CB00B405ED4FF1F20B003406F
:1025000020B00B407DC0FF1F24B0034024B00B401F
:102510005DD4FF1F024B1A6801321A60704700BF7A
:10252000E8D4FF1F38B50B4C25462368580301D566
:1025300000F080FB2B68590501D501F005FD2B68E3
:102540001A0501D501F03EFF2368DB04EDD502F04A
:1025500011F9EAE73480044008B5FFF7E3FFFFFF15
:10256000014B10221A807047002005407047FFFF82
:10257000024A1368181810601846704780C0FF1F81
:10258000FEE7FFFFEFF313839BB9EFF3108098B9D9
:10259000EFF3058323B10F2B04D9084A985C01E0BF
:1025A0004FF48070EFF311833BB1984228BF184677
:1025B00070474FF0FF30704718467047F0E300E077
:1025C000002300E00133C25C002AFBD118467047AB
:1025D00010B50023B0FBF2F402FB1400092801D867
:1025E000303000E03730C85420460CB10133F1E7F9
:1025F000CA185470224605E0885CCC5C8C54C854E0
:102600000132013B9A42F7DB084610BD084B4FF4FC
:1026100000021A604FF080721A604FF000721A6068
:102620004FF080621A604FF000621A60704700BF7E
:1026300008E100E0212830B521D8042A1FD8DFE8BE
:1026400002F00709050B03000B2306E00A2304E050
:10265000082302E00C2300E00923094A02EBC00230
:10266000526872B61468074D24F47024146044F064
:10267000807444EA034345F82010136062B630BD0D
:102680009067000060D4FF1F094B03EBC0035B6839
:1026900072B61A6822F0877222F4803242F0807299
:1026A0001A60044B002243F8202062B6704700BF36
:1026B0009067000060D4FF1F114B10B51C68E00448
:1026C0001C6004D50F4BDA680AB1DB689847A10497
:1026D00004D50C4B1A690AB11B699847A20604D5A8
:1026E000084B1A6E0AB11B6E9847E30606D5054BD8
:1026F000D3F8842012B1D3F88430984710BD00BFBE
:10270000A090044060D4FF1F1F4B10B51C68E0036D
:102710001C6004D51D4B1A680AB11B689847A103B9
:1027200004D51A4B5A680AB15B689847E20704D58A
:10273000164B1A6C0AB11B6C9847A30704D5134BB0
:102740005A6C0AB15B6C9847200704D50F4B9A6C02
:102750000AB19B6C9847610704D50C4BDA6C0AB13F
:10276000DB6C9847220304D5084B5A6E0AB15B6EA6
:102770009847630306D5054BD3F8802012B1D3F8F0
:102780008030984710BD00BFA0A0044060D4FF1F58
:102790002C4B10B51C6820071C6004D52A4B5A6AC4
:1027A0000AB15B6A9847E10604D5274B9A6A0AB1D9
:1027B0009B6A9847620604D5234BDA6A0AB1DB6A42
:1027C0009847230604D5204B1A6B0AB11B6B984718
:1027D000A00604D51C4B5A6B0AB15B6B9847E10706
:1027E00004D5194BDA6B0AB1DB6B9847A20704D505
:1027F000154B9A6D0AB19B6D9847630704D5124B30
:10280000DA6D0AB1DB6D9847A00504D50E4BDA6E80
:102810000AB1DB6E9847E10504D50B4B1A6F0AB17C
:102820001B6F9847620504D5074B5A6F0AB15B6F5F
:102830009847230504D5044B9A6F0AB19B6F9847BC
:1028400010BD00BFA0B0044060D4FF1F1E4B10B5E8
:102850001C68E0071C6004D51C4B9A680AB19B6891
:102860009847210604D5194B5A690AB15B69984704
:10287000E20604D5154B9A690AB19B69984763072C
:1028800004D5124BDA690AB1DB699847200704D5F1
:102890000E4B1A6A0AB11B6A9847A10704D50B4B65
:1028A0009A6B0AB19B6B9847A20604D5074B1A6D29
:1028B0000AB11B6D9847630604D5044B5A6D0AB1E3
:1028C0005B6D984710BD00BFA0C0044060D4FF1FDF
:1028D000094B10B51C68A2071C6004D5074B9A6E03
:1028E0000AB19B6E9847E30704D5044BDA6F0AB12F
:1028F000DB6F984710BD00BFA0D0044060D4FF1F1D
:10290000044B054900221A600A60044A1060102234
:102910001A60704714D0034004D0034000D0034035
:10292000212810B518D80D4A52F8303093F880425B
:102930003CB1012211B183F8802010BD83F8002141
:1029400010BD02EBC00043681A6811B142F00302E7
:1029500001E022F002021A6010BD00BF9067000083
:10296000212805D8034B53F8303093F80002704704
:102970000020704790670000212816D80B4A02EB10
:10298000C00301295B6852F8302004D182F880121C
:102990004FF4A27208E0002082F8800211B94FF4CF
:1029A000807201E040F203121A60704790670000E5
:1029B00072B60B4B0B491A680B4B1B68096862B661
:1029C000490102D5322A88BF0133C2F5BB32FF323A
:1029D0006021B2FBF1F24FF47A7000FB03207047E4
:1029E00018E000E004ED00E0E8D4FF1F70B50446F5
:1029F000FFF7DEFF05466CB140F2E736FFF7D8FF80
:102A0000401BB04203D9013C04D005F57A7501F0B2
:102A1000ABF8F3E770BDFFFF10B5FFF7F7FD164BFE
:102A2000164A174C00204BF6FF7118605960282396
:102A300013609360136193611362936213639363F2
:102A4000092222600F4C20606160A360236144F87A
:102A5000042C0D4C20600D4801600D490B608B600B
:102A60000C4B1A60FFF7F6FC0420FFF7BFFFBDE830
:102A7000104000F0FBBB00BF048003400C8003400B
:102A8000008003400490034004800B4008800B400A
:102A90000C800B4000800B40F0B50C4B0C4C1A78AE
:102AA00042F0020504EBC50682F00102706009489D
:102AB0001A700678002E0CBF8827C82747EA014104
:102AC00086F0010644F835100670F0BD54D5FF1F9E
:102AD0000080FF1FCCD5FF1F431E032B10B510D85D
:102AE00072B6094A52F8230048B1416842F82310EF
:102AF000064A018832F81340611A22F8131062B6B0
:102B000010BD002010BD00BF44D5FF1FFCD7FF1F24
:102B1000013803280BD872B6064B53F8203000203A
:102B200001E05B680130002BFBD162B670470020EA
:102B3000704700BF98D5FF1F70B572B6184E194C7C
:102B400001239A1912F8012C02F00802D2B2E2B164
:102B50009900144A54F831502DB902EB4313083050
:102B60005860114B09E041F0010154F8315065B94A
:102B700002EBC103083058600C4B42F831300C4B6B
:102B80001A78013A1A7062B670BD0133052BD8D19C
:102B900062B6074B00221A70BDE8704000F0D2BB4D
:102BA000C86800000080FF1F88004000C800400087
:102BB000C2D5FF1F431E032B30B532D84001194A3E
:102BC00040F01000101872B6174CE25C032A09D8C6
:102BD000DFE802F0160218050830022213E0083080
:102BE000042210E01148124A50F8234014B940F86A
:102BF000231002E052F82300416042F823100FE056
:102C0000032200E00522E25410F0080F01F108034E
:102C10000A8843600CBF8823C82343EA0243036049
:102C200062B630BD0080FF1F00D5FF1F98D5FF1F83
:102C3000A8D5FF1F2DE9F74FA54EA64C357805F016
:102C40000403DBB2ABB1A44B1B7883B1A34A137866
:102C500023B1013BDBB2137003B900BEA04A137865
:102C60002BB1013BDBB213700BB900F07FFC0423E6
:102C7000337005F00802D2B2002A00F08082994B2E
:102C80001B781D094FEA930940F0FE8104EBC9034C
:102C9000586854F83930C3F38303013B0C2B00F21E
:102CA000F081DFE813F0A901A901EE01EE01EE01C8
:102CB000EE01EE01EE01C501EE01EE01EE010D00A7
:102CC0004368894902684B60884B894844F8393029
:102CD000884D0A60002303600120287092B240F200
:102CE0008165AA422361A36117D8B2F5D06F80F045
:102CF0002C81B2F5817F00F0DC8006D8802A00F0BC
:102D0000C280822A40F03D81C1E040F202339A4203
:102D100000F00C81B2F5A06F16E042F22105AA4244
:102D200000F0678108D8B2F5086F00F0A680B2F510
:102D3000106F40F026810AE042F22120824200F02A
:102D40001C8142F221339A4240F01B811DE18A78B6
:102D5000614B604D1A702B6A180603D5686A0838F3
:102D600000F0F0FA644A08359542F4D1DFF8B091EA
:102D7000DFF8B0B10025A846CA4655F8090005E0BD
:102D80004368009300F0DEFA009B18460028F7D154
:102D90005A4B4AF8050045F80B00E85807E042682E
:102DA0000093019200F0CEFA019A009B1046002891
:102DB000F5D15851524BE850524B23F81800524B62
:102DC00018F80320023A032A08D8DFE802F00204C8
:102DD0000204002200E0012203F8082008F10108A3
:102DE0000435B8F1040FC8D1484BDFF83C910022FC
:102DF0001A7001259846464B05EB0902EB1812F8AC
:102E0000012C9B001A7002F00802D2B23AB300F013
:102E10007BFAAB0038B104EB4512083050603D4AF4
:102E200044F8332006E044F8330098F800300133CA
:102E300088F8003000F068FAAB0043F0010338B1C5
:102E400004EBC30208305060284A44F8332006E0FF
:102E500044F8330098F80030013388F80030AA00B5
:102E600042F00201013542F003020023052D44F82F
:102E7000313044F83230BED188E0174B264D1B78F4
:102E80002B70034685E0244D2B706B7080E08A88A0
:102E9000042A00D975E0204D2B706B701F4B9200F7
:102EA000D3181B7803F00203DBB2002B70D028701C
:102EB0006EE08A8802F07F03042B62DC4B8803B14A
:102EC0005FE09100154A8A18117821F0020156E05E
:102ED000802007400080FF1FCBD5FF1F55D5FF1F67
:102EE000CDD5FF1F90200740B8D5FF1FC800400078
:102EF000ECD4FF1FCCD5FF1F8080FF1F98D5FF1F8C
:102F0000A8D5FF1FFCD7FF1F00D5FF1FC2D5FF1F8D
:102F100030C8011088004000C3D5FF1FC020074003
:102F200044D5FF1FF0D4FF1FC86800008A8802F054
:102F30007F03042B25DC4B8803B122E09100A14ADA
:102F40008A18117841F0020119E04A889E4B89885D
:102F500053F8085CA3F10C009DB133F80CCC9445F8
:102F600009D133F80ACC8C4505D1120A032A0CBFCB
:102F70002B7803890DE00C33EAE78978934A1170C6
:102F800004E0904B0F221A7033E000231D4600E04E
:102F900002238F4AB2F806904B4538BF9946B9F1E3
:102FA000400F34BFC8464FF0400828464146FFF75F
:102FB00073FDB9EB0809454403D1B8F1400F07D0C0
:102FC00017E0B9F1400F34BFC8464FF0400800E0A9
:102FD000C84628464146FFF75FFDB9EB080945445E
:102FE00002D1B8F1400F04D17A4B7B4A1D60A2F8A0
:102FF00000900122794B43E0754B1A8842F221037D
:103000009A4211D1764A0023C15C99540133072BAF
:10301000FAD1734B1B68862B02D1724B0F221A70A8
:1030200000200146FFF738FD6F4B44F8393028E0A7
:10303000684BD3F80080B8F1000F18D0DFF89891F2
:10304000B9F800A0BAF1400F34BF554640254046BC
:103050002946FFF721FDC5EB0A039BB2A9F8003012
:103060000BB9402D01D108EB05035A4A1360584BA8
:103070001A88B2F5A06F04D100225A709A785B4B7F
:103080001A700122554B6DE004EBC90803F00803E8
:10309000D8F80420013DD9B2A2F10800EDB2002910
:1030A00037D000F04FF95248524B50F82510F1B18B
:1030B0004A6840F8252001F10802C8F804205A5D4A
:1030C000032A0BD8DFE802F002040608032204E01A
:1030D000022202E0052200E004225A5518F0080FEF
:1030E0000A880CBF8823C82343EA024342E05A5DA2
:1030F000032A07D8DFE802F040400204002206E07D
:10310000012204E018F0080F0CBF022203225A55D6
:1031100032E054F839301B0C22F8083C23B322F873
:10312000061C42F8041C344A344952F8257017B979
:1031300042F8250002E051F825205060304A41F85D
:10314000250032F815105B1822F8153000F0DCF875
:1031500018B10830C8F8040006E02A4B44F83900DA
:103160001A7801321A7007E01F4B274A18F0080F2F
:1031700008BF134644F83930082333705EE5E90789
:1031800052D516492048214C02230B70204B1A704F
:10319000204B1860986020481A61D8609A615C6082
:1031A000084B0D2018701D48FF23037000F8083CE1
:1031B00002741B4A13701B4B9F221A7001230B7061
:1031C0004BE000BFC0200740D8680000DCD5FF1FDF
:1031D000B8D5FF1FECD4FF1FC0D5FF1F94200740B8
:1031E00004D8FF1F55D5FF1FC80040009820074096
:1031F00098D5FF1F00D5FF1F44D5FF1FF0D4FF1F38
:10320000FCD7FF1FC2D5FF1F8800400004D5FF1F59
:1032100054D5FF1F0080FF1F58D5FF1F882007408F
:103220008C200740842007402B0605D50C4B0D222F
:103230001A70802203F8402C05F00203DBB22BB198
:10324000084B1A781A70022203F8082C05F01005B2
:10325000EDB215B1044B10221A70BDE8FE8F00BF0D
:10326000C0200740882007408020074008B501F0B3
:10327000D7FA00231E491A465A50C8180833882B1B
:103280004260F9D11B4B1A6842F480221A601A4B33
:1032900080221A701978184A0906FBD4144B174972
:1032A000C3F307200870C3F307401B0E08750B76A5
:1032B000FF2301F81C3C01F8143C01F88C3C137806
:1032C00043F0400313700021012302F8783C02F818
:1032D0000C1C02F8883C0A4B70226FF4507C1A7068
:1032E00063444FF400721A60064B10221A7008BD36
:1032F0000080FF1F348004400C2107409C200740C1
:1033000049E400E00821074072B60C4A1168B1FA9E
:1033100081F30B2B02D962B6002070474FF00040BA
:1033200020FA03F021EA0001116062B60449482244
:103330005343C8180022CA504260704784C0FF1F20
:1033400000BAFF1F0C4B4822C31AB3FBF2F30B2B3E
:1033500011D80A4A127822B1094A12780AB1FFF745
:10336000EBBB72B6074A4FF0004121FA03F3116834
:103370001943116062B6704700BAFF1FC2D5FF1F24
:10338000CBD5FF1F84C0FF1F38B5114C23684BB14C
:103390000F4D28684288811801320C7A01888A42D0
:1033A00012D30CE00B4B1B7813B94FF0FF340CE039
:1033B0000320FFF791FB20600028E9D1F5E7FFF734
:1033C000C1FF00232B6000E04280204638BD00BFD3
:1033D000D8D5FF1FCBD5FF1F10B50C4C23681BB1F0
:1033E0000A4B1B686BB902E0094B1B7813B94FF00D
:1033F000FF3010BD0320FFF76FFB20600028EFD1E6
:10340000F5E75A889B18187A10BD00BFD8D5FF1F62
:10341000CBD5FF1F044B9888044B1B681BB11A883F
:103420005B88D31AC0187047FCD7FF1FD8D5FF1F81
:103430002DE9F8432D4B2E4DDFF8C08001220C46BC
:103440001A7006464BE02B682BBBDFF8A0904AF2BF
:10345000F92798F8003013B9244A137014E00420B7
:10346000FFF756FB072808D8012389F80030FFF73B
:103470004BFF286078B989F80000013F1D4B01D04F
:103480001A782AB101221A704FF0FF30BDE8F88394
:1034900000F06AFBDDE72968164A488800231370AC
:1034A000C0F14002944238BF224600F1080780185C
:1034B000CF194880A41A02E0F05CF854013393421B
:1034C000FAD1F6184B883F2B06D940230B800420F5
:1034D000FFF770FB00232B60074B05221A70002CAE
:1034E000B1D1024B20461C70BDE8F883CED5FF1F3A
:1034F000D0D5FF1FD4D5FF1FCDD5FF1FCBD5FF1FC4
:1035000007B502AB012103F8010D1846FFF790FF44
:103510000EBDFFFFF8B5114B1B78EBB1104E114BF0
:103520003468114D01271F704CB1638800272F703C
:10353000042023802146FFF73DFB376009E0FFF7B9
:10354000E3FE014620B104202C70FFF733FB00E0BE
:103550002F70044B00221A70F8BD00BFCBD5FF1F9F
:10356000D0D5FF1FCED5FF1FCDD5FF1F38B50D4BD2
:103570001D78ADB90C4C216831B14B8804200B800B
:10358000FFF718FB256038BDFFF7BEFE014620B1EE
:103590000420BDE83840FFF70DBB044B01221A7030
:1035A00038BD00BFCED5FF1FD0D5FF1FCDD5FF1F23
:1035B000F0B5C02928BFC02172B6124B1860124B5B
:1035C00000221A605A609A60DA601A615A61012614
:1035D0000AE0540902F01F0753F8245006FA07F7CF
:1035E0003D4343F8245001328A42F2D100234FF484
:1035F000817203E002FB0304637001338B42F9D153
:1036000062B6F0BDE8D5FF1FF0D5FF1F10B572B64A
:103610001E4B1868A0B9586850B9986850B9D86856
:1036200050B9186950B95869143348B962B610BD19
:10363000043305E0083303E00C3301E01033FFE707
:10364000B0FA80F14FF0004222FA01F220EA0200C3
:1036500018600F4802780132D2B2027062B60B488D
:103660001B1A9B105B01591A4FF481734B43094994
:1036700003F5F9531E3309680124CC54C818064BCE
:103680001978914238BF1A7010BD00BFF0D5FF1FE6
:10369000EDD5FF1FE8D5FF1FE4D5FF1F417872B6B7
:1036A0000378012B02D9013B037011E04A11094B49
:1036B000C9434FF0004001F01F0120FA01F153F817
:1036C0002200084343F82200034B1A78013A1A708B
:1036D00062B67047F0D5FF1FEDD5FF1F30B5C36848
:1036E0000EE0187A90420AD158685C7A006950F866
:1036F000245025B940F82410087801300870DB68A0
:10370000002BEED130BD437A99424FF0000305D231
:10371000026952F8210042F821307047184670477C
:1037200038B5437A994201D3002418E0036953F86D
:103730002140002243F82120002CF5D02378012BD2
:103740000DD9FFF763FF054628B10230A11C4FF4E5
:10375000807202F079FC2378013B23702C462046CE
:1037600038BD10B54168427A4B7A9A420ED872B68B
:103770000268D36813B9D06004E02346DC68002CEB
:10378000FBD1D860012313720B7262B610BDFFFF2C
:10379000074B1A784AB9074AFF211170064A4FF0C1
:1037A000804101201160187070470020704700BFF1
:1037B000ECD5FF1F5EE400E008E100E0F8B5164B31
:1037C000164D1A6842F080721A60154B1A6842F062
:1037D00001021A60134B2E681C680FE0237A63B154
:1037E00021682F680B68204698472A68E388D21B17
:1037F00012099A42A28088BFE2806469002CEDD150
:10380000064B094A1B689B1B1B091380074A11883A
:103810008B4288BF1380F8BDFCED00E0041000E08F
:10382000001000E0E0D5FF1F08D6FF1FEED5FF1FF8
:1038300030B572B609B9026822B9264A0023118848
:10384000144611E003790F2BF7D82249098841FA71
:1038500003F1C907F1D503F1007303F59063B2EBEF
:10386000431FEAD162B630BD41FA03F212F0010201
:1038700027D1012505FA03F52943218062B61649AF
:1038800003710C6844F002040C6051F8044C44F0DD
:10389000020441F8044C114982240C608B768B772A
:1038A0000B76CB7703F1007303F590635B01036044
:1038B0001A605A609A60DA601A615A619A61DA6134
:1038C00030BD0133102BCFD162B6002202600371EC
:1038D00030BD00BF0AD6FF1F40800440008000407A
:1038E00003790F2B10D8094A137072B6084B02796E
:1038F000012101FA02F2198821EA02021A8062B655
:103900001023037100230360704700BF1A8000403A
:103910000AD6FF1F08B5FDF743F8FDF7EFF800F0F2
:1039200023F9FAE7F8B506460C468F18002506E09D
:10393000336814F8011B1B68304698472D18BC42A9
:10394000F6D12846F8BDFFFF07B5054B1B88ADF83B
:103950000430036801A95B68022298470EBD00BFCE
:10396000A0680000F0B505468BB022B90368C9B263
:103970001B6898472CE0012A08BF0A2221B930228F
:103980008DF82520212413E02124B1FBF2F002FB65
:103990001011C9B2092901D8303100E037310AAF1E
:1039A0003E1906F8241C014610B1013CE4B2ECE7D4
:1039B00033B1013C0AAAE4B213192D2203F8242CD6
:1039C0002B6801AF5B6828463919C4F12202984779
:1039D0000BB0F0BDFFFFFFFF2DE9F347074691460F
:1039E0009A4610461946002200239DF8284001F00F
:1039F000CFFC20B10AF1004A4FF0010800E08046F8
:103A000000260022304B0AE0104619462CA3D3E9C9
:103A1000002301F04BFA013602460B46F6B2A642ED
:103A2000F2D14846514601F08FF80D46044601F0A8
:103A3000FFFC81464346384649460A22FFF792FF7B
:103A40008046002E37D0484601F0BAF9072E28BF2D
:103A500007260B4602462946204601F073F8013638
:103A60002E238DF80030F6B24FF001091BE0002242
:103A7000164B01F01BFA0D46044601F0D9FC02AAD0
:103A800002EB0903C0B200F1300203F8082C01F088
:103A9000A7F909F1010902460B46204629465FFABB
:103AA00089F901F04FF8B145E1D13B6838465B68D0
:103AB00069464A4698474046BDE8FC87AFF3008018
:103AC0009A9999999999B93F0000E03F00002440E4
:103AD00008461146FFF7ACBC0846FFF711BDFFF7DB
:103AE00019BDFFF779BCFFF74FBCFFF793BC7047D8
:103AF000044B00221A711A73034A4FF47A719960C9
:103B00001A6070470CD6FF1FB06800000C4B0D4ABE
:103B10001B680D48002B08BF134693FBF0F200FB17
:103B200012330A48424344F2A71000FB0320002846
:103B3000B8BF00F10040024BB8BF013818607047B1
:103B40001CD6FF1F24D95B071DF30100ECF4FFFF17
:103B500010B5044630B1FFF7D9FFB0FBF4F303FB17
:103B6000140010BD10BDFFFF08B50E4B1A78C2B986
:103B700001221A70FFF74EFC08B1FFF7B8FF00F002
:103B80008BF908B100F0E6FE00F0C4FB08B100F0CC
:103B900053FF00F0A9FD08B100F0C0FF014B002267
:103BA0001A7008BD20D6FF1F194B1A6842F48062B4
:103BB0001A60184A00231370174A1370174A1370BB
:103BC000174A1370174A1370174B40F213321A60DA
:103BD0004FF451725A60154BC0F344321A70C0F35F
:103BE00047125A700221042200F01F0098729A7046
:103BF000D9745A7588221A743C22DA700C4B402210
:103C00006FF44A711A705B184FF400521A607047D3
:103C100034800440A3D6FF1F22D6FF1FACD6FF1F5F
:103C2000A4D6FF1F21D6FF1F40A0044000A00640DD
:103C30002DE400E0134A937800F0030103F0EC0355
:103C40000B43410748BF43F01003937000F00F038C
:103C5000042B0C4903D18B7943F040038B715379CA
:103C6000C20603F0EF03074A48BF43F01003537145
:103C70009379800603F0EF0348BF43F0100393717C
:103C8000704700BF00A006400E4B1B68580510B5DA
:103C900003D410BDFFF768FF00E00B4C2378002B26
:103CA000F8D10A4A4FF400511160094A0949D3700A
:103CB00040F203120A604A60074A1370074A137001
:103CC00010BD00BF3480044021D6FF1F84E100E016
:103CD00000A0064040A00440A3D6FF1F22D6FF1F2D
:103CE00038B5094B04461D78002DFCD12046012132
:103CF000FEF742FE20462946FEF712FE034B53F81C
:103D00003420034B1A6038BD21D6FF1F9067000096
:103D1000A8D6FF1F1D4B1B685A052DE9F041074629
:103D200031D51B4B1B680BB101221A70194B1A4D70
:103D30001C781A4EDFF8688001343F2C88BF0024BD
:103D400014E0FEF71FFC40280CDC33791B060DD570
:103D50002B7801333F2B88BF002318F80320F27122
:103D60002B7003E0FF2801DDFFF7FEFE2B78A34256
:103D7000E7D00B4B1F550B4B01221A70054B1C70E3
:103D8000064BBC22DA70BDE8F08100BF34800440ED
:103D9000A8D6FF1FACD6FF1FA4D6FF1F00A0064069
:103DA00023D6FF1F21D6FF1F2DE9F84F254B1B6897
:103DB00006465805894642D5234B1B680BB10122A4
:103DC0001A70224DB346AA4632E0214B1C782F7858
:103DD00001343F2C88BF0024A74209D01BF8012BD7
:103DE0001C4B1A551C4B01221A70194B1C701FE0FA
:103DF0001A4BBC22DA709846FEF7C4FB40280FDC51
:103E000098F8043019060FD52B78124A01333F2B4E
:103E100088BF0023D25C88F807208AF8003003E0CE
:103E2000FF2801DDFFF7A0FE2B78BB42E4D0D5E7E9
:103E300006EB09039B45C8D3084BBC22DA70BDE8EA
:103E4000F88F00BF34800440A8D6FF1FA4D6FF1F00
:103E5000ACD6FF1F23D6FF1F21D6FF1F00A00640B0
:103E600010B5044C01E0FFF77FFE2378002BFAD158
:103E700010BD00BF21D6FF1F054B064A1B781078E6
:103E8000834201D33F3000E00138C01A704700BFC1
:103E9000ACD6FF1FA4D6FF1F044B1878044B1B7829
:103EA000984238BF4030C01A704700BFA3D6FF1FEA
:103EB00022D6FF1F084B094A19781378994207D078
:103EC00001333F2B88BF00230549C85C137070473E
:103ED0004FF0FF30704700BFA3D6FF1F22D6FF1F51
:103EE00063D6FF1F074B1A78074B1B789A4206D000
:103EF00001333F2B88BF0023044AD05C70474FF04A
:103F0000FF307047A3D6FF1F22D6FF1F63D6FF1FC7
:103F1000094B1B685B050ED5084BDA7802F0CB0223
:103F2000DA7040225A74DA7842F03402DA70044BC4
:103F30001A78044B1A7070473480044000A0064081
:103F400022D6FF1FA3D6FF1F70B52D4B1A7912F092
:103F5000300F1DD072B6997D21B9DA7940225A749A
:103F600062B615E062B6274A27481278274D0078D6
:103F70001C46531C3F2B88BF0023E67983421CBF9D
:103F8000EE541A46013911F0FF01F2D11D4B1A709F
:103F90001B4AD37819465BB2002B1BDA137918063B
:103FA00018D51B4B1B4C1D781B4B1B78AB4209D003
:103FB00001333F2B88BF00231079E05CD071107D66
:103FC0000728F3D9144A13700D4B1A79120601D53C
:103FD0007C22DA7001F04003DBB27BB1084B1A7926
:103FE00002F04002D2B2194642B10C4B00221A70C4
:103FF0000B4B1B6803B11A703C23CB7070BD00BF24
:1040000000A00640A3D6FF1F22D6FF1F63D6FF1FC6
:10401000ACD6FF1F23D6FF1FA4D6FF1F21D6FF1F3C
:10402000A8D6FF1F184B1A6842F400621A60174A9C
:1040300000231370164A1370164A1370164A137031
:10404000164A1370164B40F213321A604FF4517235
:104050005A60144BC0F344321A70C0F347125A70BE
:1040600000F01F000422022198729A70D9745A75C8
:1040700088221A743C22DA700B4B40221A700B4BC8
:104080004FF400421A6070473480044017D7FF1F76
:10409000AED6FF1F20D7FF1F18D7FF1FADD6FF1FBB
:1040A0000CB0044000B006402FE400E004E100E062
:1040B000134A937800F0030103F0EC030B4341072C
:1040C00048BF43F01003937000F00F03042B0C491A
:1040D00003D18B7943F040038B715379C20603F00F
:1040E000EF03074A48BF43F01003537193798106E9
:1040F00003F0EF0348BF43F010039371704700BF14
:1041000000B006400E4B1B68180510B503D410BD57
:10411000FFF72AFD00E00B4C2378002BF8D10A4A68
:104120004FF400411160094A0949D37040F203126B
:104130000A604A60074A1370074A137010BD00BF37
:1041400034800440ADD6FF1F84E100E000B006409B
:104150000CB0044017D7FF1FAED6FF1F38B5094B70
:1041600004461D78002DFCD120460121FEF704FCF9
:1041700020462946FEF7D4FB034B53F83420034B6B
:104180001A6038BDADD6FF1F906700001CD7FF1F17
:104190001D4B1B681A052DE9F041074631D51B4B15
:1041A0001B680BB101221A70194B1A4D1C781A4E5C
:1041B000DFF868800134272C88BF002414E0FEF764
:1041C000E1F940280CDC33791B060DD52B7801333F
:1041D000272B88BF002318F80320F2712B7003E00F
:1041E000FF2801DDFFF7C0FC2B78A342E7D00B4B83
:1041F0001F550B4B01221A70054B1C70064BBC223D
:10420000DA70BDE8F08100BF348004401CD7FF1F86
:1042100020D7FF1F18D7FF1F00B00640AFD6FF1FE3
:10422000ADD6FF1F2DE9F84F254B1B680646180534
:10423000894642D5234B1B680BB101221A70224DCF
:10424000B346AA4632E0214B1C782F780134272C44
:1042500088BF0024A74209D01BF8012B1C4B1A551C
:104260001C4B01221A70194B1C701FE01A4BBC2208
:10427000DA709846FEF786F940280FDC98F804308B
:1042800019060FD52B78124A0133272B88BF00233C
:10429000D25C88F807208AF8003003E0FF2801DDAF
:1042A000FFF762FC2B78BB42E4D0D5E706EB0903AD
:1042B0009B45C8D3084BBC22DA70BDE8F88F00BF1D
:1042C000348004401CD7FF1F18D7FF1F20D7FF1FC3
:1042D000AFD6FF1FADD6FF1F00B0064010B5044C8F
:1042E00001E0FFF741FC2378002BFAD110BD00BF9D
:1042F000ADD6FF1F054B064A1B781078834201D3C9
:10430000273000E00138C01A704700BF20D7FF1FD8
:1043100018D7FF1F044B1878044B1B78984238BFFE
:104320004030C01A704700BF17D7FF1FAED6FF1F1F
:10433000084B094A19781378994207D001333F2B6B
:1043400088BF00230549C85C137070474FF0FF30E9
:10435000704700BF17D7FF1FAED6FF1FD7D6FF1F6E
:10436000074B1A78074B1B789A4206D001333F2B34
:1043700088BF0023044AD05C70474FF0FF3070477D
:1043800017D7FF1FAED6FF1FD7D6FF1F094B1B68DD
:104390001B050ED5084BDA7802F0CB02DA7040220A
:1043A0005A74DA7842F03402DA70044B1A78044B0B
:1043B0001A7070473480044000B00640AED6FF1F2C
:1043C00017D7FF1F70B52D4B1A7912F0300F1DD083
:1043D00072B6997D21B9DA7940225A7462B615E035
:1043E00062B6274A27481278274D00781C46531C8E
:1043F0003F2B88BF0023E67983421CBFEE541A4648
:10440000013911F0FF01F2D11D4B1A701B4AD3780C
:1044100019465BB2002B1BDA1379180618D51B4B13
:104420001B4C1D781B4B1B78AB4209D00133272B4B
:1044300088BF00231079E05CD071107D0728F3D984
:10444000144A13700D4B1A79120601D57C22DA70CA
:1044500001F04003DBB27BB1084B1A7902F0400255
:10446000D2B2194642B10C4B00221A700B4B1B689A
:1044700003B11A703C23CB7070BD00BF00B0064082
:1044800017D7FF1FAED6FF1FD7D6FF1F20D7FF1F9E
:10449000AFD6FF1F18D7FF1FADD6FF1F1CD7FF1FBA
:1044A000174B1A6842F480521A60164A00231370A0
:1044B000154A1370154A1370154A1370154A137074
:1044C000154A40F2133111604FF451715160134A93
:1044D000C0F344311170C0F3471100F01F00517058
:1044E0009072937013742C23D3700D4B40226FF491
:1044F0004B711A705B184FF400321A60704700BF9E
:10450000348004408BD7FF1F22D7FF1F94D7FF1F93
:104510008CD7FF1F21D7FF1F08C0044000C00640F2
:1045200031E400E0134A937800F0030103F0EC0358
:104530000B43410748BF43F01003937000F00F0393
:10454000042B0C4903D18B7943F040038B715379D1
:10455000C20603F0EF03074A48BF43F0100353714C
:104560009379800603F0EF0348BF43F01003937183
:10457000704700BF00C006400E4B1B68D80410B542
:1045800003D410BDFFF7F0FA00E00B4C2378002BAA
:10459000F8D10A4A4FF400311160094A0949D37031
:1045A00040F203120A604A60074A1370074A137008
:1045B00010BD00BF3480044021D7FF1F84E100E01C
:1045C00000C0064008C004408BD7FF1F22D7FF1F42
:1045D00038B5094B04461D78002DFCD12046012139
:1045E000FEF7CAF920462946FEF79AF9034B53F81D
:1045F0003420034B1A6038BD21D7FF1F906700009D
:1046000090D7FF1F1D4B1B68DA042DE9F0410746C8
:1046100031D51B4B1B680BB101221A70194B1A4D77
:104620001C781A4EDFF868800134272C88BF0024DC
:1046300014E0FDF7A7FF40280CDC33791B060DD5ED
:104640002B780133272B88BF002318F80320F27141
:104650002B7003E0FF2801DDFFF786FA2B78A342D9
:10466000E7D00B4B1F550B4B01221A70054B1C70EA
:10467000064BAC22DA70BDE8F08100BF3480044004
:1046800090D7FF1F94D7FF1F8CD7FF1F00C0064095
:1046900023D7FF1F21D7FF1F38B54518044603E075
:1046A00014F8010BFFF7AEFFAC42F9D138BDFFFFA4
:1046B00010B5044C01E0FFF757FA2378002BFAD12C
:1046C00010BD00BF21D7FF1F054B064A1B7810788D
:1046D000834201D3273000E00138C01A704700BF81
:1046E00094D7FF1F8CD7FF1F044B1878044B1B78FF
:1046F000984238BF4030C01A704700BF8BD7FF1FA9
:1047000022D7FF1F084B094A19781378994207D01E
:1047100001333F2B88BF00230549C85C13707047E5
:104720004FF0FF30704700BF8BD7FF1F22D7FF1F0E
:104730004BD7FF1F074B1A78074B1B789A4206D0BE
:1047400001333F2B88BF0023044AD05C70474FF0F1
:10475000FF3070478BD7FF1F22D7FF1F4BD7FF1F9C
:10476000024B1A78024B1A70704700BF22D7FF1F06
:104770008BD7FF1F10B5214B1A7902F02002D2B25D
:104780006AB11F4AD8791F491378097801333F2B42
:1047900088BF00238B4202D01B49C8541370174AAC
:1047A000D37818465BB2002B13DA1379190610D5AB
:1047B000164B17491C780B789C4202D16C23D3709E
:1047C00007E00133272B88BF0023124CE45CD4712F
:1047D0000B7000F04003DBB27BB1084B1A7902F09A
:1047E0004002D2B2194642B10B4B00221A700B4B59
:1047F0001B6803B11A702C23CB7010BD00C006409B
:104800008BD7FF1F22D7FF1F4BD7FF1F94D7FF1F48
:104810008CD7FF1F23D7FF1F21D7FF1F90D7FF1F64
:104820001FB572B6154B70221A70154A41211170CE
:104830000F2102F8011C80221A701A781206FCD58A
:10484000104B186862B6104B984201D80A2358439F
:1048500001A90A22FDF7BCFE0C48002301AA9A5CBC
:104860002AB100EB430101330A2B4A80F6D1013310
:10487000064A5B00137005B000BD00BF0000024097
:1048800007000240080002407F96980010C1FF1FF9
:1048900008B50368C9B21B68984708BD08B5036826
:1048A000C9B21B68984708BD08B50368C9B21B6840
:1048B000984708BD08B50368C9B21B68984708BD8A
:1048C000084608B5FFF726FA012008BD084608B5D6
:1048D000FFF720FA012008BD38B508460D46FDF760
:1048E0006FFE044621462846FFF75EFA204638BD93
:1048F00010B5084614461146FFF756FA204610BD7B
:10490000FFF7BABAFFF704BBFFF7AABAFFF7D2BAAC
:10491000FFF7E8BAFFF7C0BA0846FFF7E1B9FFF7BB
:10492000B3B9480800F1376000F5D830B0FBF1F0BA
:10493000FFF73AB9480800F1376010B500F5D830F4
:10494000B0FBF1F01446FFF72FF92046BDE8104008
:10495000FFF770B97047FFFF044B00221A711A73FA
:10496000034A4FF47A7199601A60704798D7FF1F15
:104970002869000008B50368C9B21B68984708BDDC
:1049800008B50368C9B21B68984708BD08B5036835
:10499000C9B21B68984708BD08B50368C9B21B684F
:1049A000984708BD084608B5FFF7F2FB012008BD8F
:1049B000084608B5FFF7ECFB012008BD38B50846EE
:1049C0000D46FDF7FDFD044621462846FFF72AFC6B
:1049D000204638BD10B5084614461146FFF722FCA4
:1049E000204610BDFFF786BCFFF7D0BCFFF776BCB2
:1049F000FFF79EBCFFF7B4BCFFF78CBC0846FFF77F
:104A0000ADBBFFF77FBB480800F1376000F5D83039
:104A1000B0FBF1F0FFF706BB480800F1376010B5B6
:104A200000F5D830B0FBF1F01446FFF7FBFA204652
:104A3000BDE81040FFF73CBB7047FFFF044B00226E
:104A40001A711A73034A4FF47A7199601A607047A9
:104A5000A8D7FF1F7869000008B50368C9B21B68B2
:104A6000984708BD08B50368C9B21B68984708BDD8
:104A700008B50368C9B21B68984708BD08B5036844
:104A8000C9B21B68984708BD084608B5FFF7BAFDCC
:104A9000012008BD084608B5FFF7B4FD012008BD98
:104AA00038B508460D46FDF78BFD044621462846DD
:104AB000FFF7F2FD204638BD10B5084614461146F2
:104AC000FFF7EAFD204610BDFFF7FEBDFFF748BE29
:104AD000FFF7EEBDFFF716BEFFF72CBEFFF704BED3
:104AE0000846FFF775BDFFF747BD480800F1B760FE
:104AF00000F55840B0FBF1F0FFF7D2BC480800F1D8
:104B0000B76010B500F55840B0FBF1F01446FFF760
:104B1000C7FC2046BDE81040FFF704BD7047FFFF0B
:104B2000044B00221A711A73034A4FF47A71996088
:104B30001A607047B8D7FF1FC869000081F00041B4
:104B400002E000BF83F0004330B54FEA41044FEA72
:104B5000430594EA050F08BF90EA020F1FBF54EA0D
:104B6000000C55EA020C7FEA645C7FEA655C00F0A9
:104B7000E2804FEA5454D4EB5555B8BF6D420CDD7A
:104B80002C4480EA020281EA030382EA000083EAFD
:104B9000010180EA020281EA0303362D88BF30BD9D
:104BA00011F0004F4FEA01314FF4801C4CEA1131F3
:104BB00002D0404261EB410113F0004F4FEA033352
:104BC0004CEA133302D0524263EB430394EA050FDD
:104BD00000F0A780A4F10104D5F1200E0DDB02FA4C
:104BE0000EFC22FA05F2801841F1000103FA0EF2E0
:104BF000801843FA05F359410EE0A5F120050EF1A6
:104C0000200E012A03FA0EFC28BF4CF0020C43FAD6
:104C100005F3C01851EBE37101F0004507D54FF0E3
:104C2000000EDCF1000C7EEB00006EEB0101B1F533
:104C3000801F1BD3B1F5001F0CD349085FEA300079
:104C40004FEA3C0C04F101044FEA445212F5800F84
:104C500080F09A80BCF1004F08BF5FEA500C50F121
:104C6000000041EB045141EA050130BD5FEA4C0C04
:104C7000404141EB010111F4801FA4F10104E9D18D
:104C800091F0000F04BF01460020B1FA81F308BF84
:104C90002033A3F10B03B3F120020CDA0C3208DD50
:104CA00002F1140CC2F10C0201FA0CF021FA02F12B
:104CB0000CE002F11402D8BFC2F1200C01FA02F19B
:104CC00020FA0CFCDCBF41EA0C019040E41AA2BFC0
:104CD00001EB0451294330BD6FEA04041F3C1CDA88
:104CE0000C340EDC04F11404C4F1200220FA04F0A8
:104CF00001FA02F340EA030021FA04F345EA030152
:104D000030BDC4F10C04C4F1200220FA02F001FA13
:104D100004F340EA0300294630BD21FA04F0294695
:104D200030BD94F0000F83F4801306BF81F480112E
:104D30000134013D4EE77FEA645C18BF7FEA655CA1
:104D400029D094EA050F08BF90EA020F05D054EA73
:104D5000000C04BF1946104630BD91EA030F1EBF78
:104D60000021002030BD5FEA545C05D1400049417C
:104D700028BF41F0004130BD14F580043CBF01F56F
:104D8000801130BD01F0004545F0FE4141F4700155
:104D90004FF0000030BD7FEA645C1ABF1946104630
:104DA0007FEA655C1CBF0B46024650EA013406BF31
:104DB00052EA033591EA030F41F4002130BD00BFF0
:104DC00090F0000F04BF0021704730B54FF48064AD
:104DD00004F132044FF000054FF0000150E700BF2E
:104DE00090F0000F04BF0021704730B54FF480648D
:104DF00004F1320410F0004548BF40424FF000017A
:104E00003EE700BF42004FEAE2014FEA31014FEABC
:104E100002701FBF12F07F4393F07F4F81F060510B
:104E2000704792F0000F14BF93F07F4F704730B57A
:104E30004FF4607401F0004521F0004120E700BF0D
:104E400050EA010208BF704730B54FF000050AE094
:104E500050EA010208BF704730B511F0004502D595
:104E6000404261EB41014FF4806404F132045FEA97
:104E7000915C3FF4DCAE4FF003025FEADC0C18BF3C
:104E800003325FEADC0C18BF033202EBDC02C2F132
:104E9000200300FA03FC20FA02F001FA03FE40EAC4
:104EA0000E0021FA02F11444C1E600BF70B54FF0C4
:104EB000FF0C4CF4E06C1CEA11541DBF1CEA1355A6
:104EC00094EA0C0F95EA0C0F00F0DEF82C4481EA0E
:104ED000030621EA4C5123EA4C5350EA013518BF2E
:104EE00052EA033541F4801143F4801338D0A0FB1B
:104EF00002CE4FF00005E1FB02E506F00042E0FBC8
:104F000003E54FF00006E1FB03569CF0000F18BFCD
:104F10004EF0010EA4F1FF04B6F5007F64F5407475
:104F200004D25FEA4E0E6D4146EB060642EAC62108
:104F300041EA55514FEAC52040EA5E504FEACE2E75
:104F4000B4F1FD0C88BFBCF5E06F1ED8BEF1004F78
:104F500008BF5FEA500E50F1000041EB045170BDF4
:104F600006F0004646EA010140EA020081EA030138
:104F7000B4EB5C04C2BFD4EB0C0541EA045170BD34
:104F800041F480114FF0000E013C00F3AB8014F1AE
:104F9000360FDEBF002001F0004170BDC4F10004F7
:104FA000203C35DA0C341BDC04F11404C4F1200578
:104FB00000FA05F320FA04F001FA05F240EA0200D3
:104FC00001F0004221F0004110EBD37021FA04F609
:104FD00042EB06015EEA430E08BF20EAD37070BDC3
:104FE000C4F10C04C4F1200500FA04F320FA05F022
:104FF00001FA04F240EA020001F0004110EBD37024
:1050000041F100015EEA430E08BF20EAD37070BD93
:10501000C4F1200500FA05F24EEA020E20FA04F36C
:1050200001FA05F243EA020321FA04F001F000411B
:1050300021FA04F220EA020000EBD3705EEA430E8C
:1050400008BF20EAD37070BD94F0000F0FD101F0BB
:105050000046400041EB010111F4801F08BF013CF4
:10506000F7D041EA060195F0000F18BF704703F032
:105070000046520043EB030313F4801F08BF013DB9
:10508000F7D043EA0603704794EA0C0F0CEA135575
:1050900018BF95EA0C0F0CD050EA410618BF52EA2F
:1050A0004306D1D181EA030101F000414FF0000035
:1050B00070BD50EA410606BF1046194652EA430643
:1050C00019D094EA0C0F02D150EA013613D195EAB7
:1050D0000C0F05D152EA03361CBF104619460AD1FF
:1050E00081EA030101F0004141F0FE4141F4700109
:1050F0004FF0000070BD41F0FE4141F4780170BDF9
:1051000070B54FF0FF0C4CF4E06C1CEA11541DBF5D
:105110001CEA135594EA0C0F95EA0C0F00F0A7F85F
:10512000A4EB050481EA030E52EA03354FEA01318C
:1051300000F088804FEA03334FF0805545EA13139F
:1051400043EA12634FEA022245EA111545EA106567
:105150004FEA00260EF000419D4208BF964244F1FE
:10516000FD0404F5407402D25B084FEA3202B61A1D
:1051700065EB03055B084FEA32024FF480104FF4F1
:10518000002CB6EB020E75EB030E22BFB61A754665
:1051900040EA0C005B084FEA3202B6EB020E75EBF8
:1051A000030E22BFB61A754640EA5C005B084FEA60
:1051B0003202B6EB020E75EB030E22BFB61A75462D
:1051C00040EA9C005B084FEA3202B6EB020E75EB38
:1051D000030E22BFB61A754640EADC0055EA060EF9
:1051E00018D04FEA051545EA16754FEA06164FEA3C
:1051F000C30343EA52734FEAC2025FEA1C1CC0D1E8
:1052000011F4801F0BD141EA00014FF000004FF074
:10521000004CB6E711F4801F04BF01430020B4F135
:10522000FD0C88BFBCF5E06F3FF6AFAEB5EB030CED
:1052300004BFB6EB020C5FEA500C50F1000041EBEA
:10524000045170BD0EF0004E4EEA113114EB5C04B7
:10525000C2BFD4EB0C0541EA045170BD41F480118A
:105260004FF0000E013C90E645EA060E8DE60CEA92
:10527000135594EA0C0F08BF95EA0C0F3FF43BAFAF
:1052800094EA0C0F0AD150EA01347FF434AF95EA66
:105290000C0F7FF425AF104619462CE795EA0C0F4A
:1052A00006D152EA03353FF4FDAE1046194622E717
:1052B00050EA410618BF52EA43067FF4C5AE50EAF1
:1052C00041047FF40DAF52EA43057FF4EBAE12E7E1
:1052D0004FF0FF3C06E000BF4FF0010C02E000BFC2
:1052E0004FF0010C4DF804CD4FEA410C7FEA6C5CA5
:1052F0004FEA430C18BF7FEA6C5C1BD001B050EA48
:10530000410C0CBF52EA430C91EA030F02BF90EA32
:10531000020F0020704710F1000F91EA030F58BFF1
:10532000994208BF90422CBFD8176FEAE37040F053
:10533000010070474FEA410C7FEA6C5C02D150EAF1
:10534000013C07D14FEA430C7FEA6C5CD6D152EAAC
:10535000033CD3D05DF8040B704700BF8446104671
:1053600062468C461946634600E000BF01B5FFF770
:10537000B7FF002848BF10F1000F01BD4DF808ED40
:10538000FFF7F4FF0CBF012000205DF808FB00BF11
:105390004DF808EDFFF7EAFF34BF012000205DF86B
:1053A00008FB00BF4DF808EDFFF7E0FF94BF0120B8
:1053B00000205DF808FB00BF4DF808EDFFF7CEFFB9
:1053C00094BF012000205DF808FB00BF4DF808EDF8
:1053D000FFF7C4FF34BF012000205DF808FB00BFC9
:1053E0004FEA410212F5001215D211D56FF478730D
:1053F000B3EB625212D94FEAC12343F0004343EAB0
:10540000505311F0004F23FA02F018BF404270478A
:105410004FF00000704750EA013005D111F0004014
:1054200008BF6FF0004070474FF00000704700BFAA
:105430004A0011D212F5001211D20DD56FF4787313
:10544000B3EB62520ED44FEAC12343F0004343EA68
:10545000505323FA02F070474FF00000704750EAB3
:10546000013002D14FF0FF3070474FF0000070471D
:1054700080F0004002E000BF81F0004142001FBF09
:105480005FEA410392EA030F7FEA226C7FEA236C12
:105490006AD04FEA1262D2EB1363C1BFD218414007
:1054A00048404140B8BF5B42192B88BF704710F09D
:1054B000004F40F4000020F07F4018BF404211F040
:1054C000004F41F4000121F07F4118BF494292EAA8
:1054D000030F3FD0A2F1010241FA03FC10EB0C00D4
:1054E000C3F1200301FA03F100F0004302D5494261
:1054F00060EB4000B0F5000F13D3B0F1807F06D30E
:1055000040084FEA310102F10102FE2A51D2B1F105
:10551000004F40EBC25008BF20F0010040EA0300FA
:105520007047490040EB000010F4000FA2F10102A7
:10553000EDD1B0FA80FCACF1080CB2EB0C0200FA31
:105540000CF0AABF00EBC25052421843BCBFD0407F
:105550001843704792F0000F81F4000106BF80F4F9
:1055600000000132013BB5E74FEA41037FEA226CBC
:1055700018BF7FEA236C21D092EA030F04D092F087
:10558000000F08BF0846704790EA010F1CBF0020BB
:10559000704712F07F4F04D1400028BF40F0004018
:1055A000704712F100723CBF00F50000704700F038
:1055B000004343F0FE4040F4000070477FEA22625F
:1055C00016BF08467FEA23630146420206BF5FEA30
:1055D000412390EA010F40F4800070474FF0000330
:1055E00004E000BF10F0004348BF40425FEA000CF7
:1055F00008BF704743F0964301464FF000001CE09F
:1056000050EA010208BF70474FF000030AE000BFF4
:1056100050EA010208BF704711F0004302D5404232
:1056200061EB41015FEA010C02BF844601460020A4
:1056300043F0B64308BFA3F18053A3F50003BCFABF
:105640008CF2083AA3EBC25310DB01FA02FC63446C
:1056500000FA02FCC2F12002BCF1004F20FA02F273
:1056600043EB020008BF20F00100704702F1200266
:1056700001FA02FCC2F1200250EA4C0021FA02F2C7
:1056800043EB020008BF20EADC7070474FF0FF0CCC
:105690001CEAD0521EBF1CEAD15392EA0C0F93EAC7
:1056A0000C0F6FD01A4480EA010C400218BF5FEA69
:1056B00041211ED04FF0006343EA501043EA5111DC
:1056C000A0FB01310CF00040B1F5000F3EBF4900D6
:1056D00041EAD3715B0040EA010062F17F02FD2ADA
:1056E0001DD8B3F1004F40EBC25008BF20F00100BD
:1056F000704790F0000F0CF0004C08BF49024CEAD4
:10570000502040EA51207F3AC2BFD2F1FF0340EA65
:10571000C250704740F400004FF00003013A5DDCD6
:1057200012F1190FDCBF00F000407047C2F1000217
:10573000410021FA02F1C2F1200200FA02FC5FEA04
:10574000310040F1000053EA4C0308BF20EADC704E
:10575000704792F0000F00F0004C02BF400010F4C0
:10576000000F013AF9D040EA0C0093F0000F01F06D
:10577000004C02BF490011F4000F013BF9D041EA8F
:105780000C018FE70CEAD15392EA0C0F18BF93EA91
:105790000C0F0AD030F0004C18BF31F0004CD8D1BB
:1057A00080EA010000F00040704790F0000F17BF42
:1057B00090F0004F084691F0000F91F0004F14D088
:1057C00092EA0C0F01D142020FD193EA0C0F03D1E0
:1057D0004B0218BF084608D180EA010000F00040E3
:1057E00040F0FE4040F40000704740F0FE4040F4BE
:1057F000400070474FF0FF0C1CEAD0521EBF1CEA5D
:10580000D15392EA0C0F93EA0C0F69D0A2EB03027A
:1058100080EA010C49024FEA402037D04FF0805314
:1058200043EA111143EA10130CF000408B4238BFD9
:105830005B0042F17D024FF4000C8B4224BF5B1AE7
:1058400040EA0C00B3EB510F24BFA3EB510340EA35
:105850005C00B3EB910F24BFA3EB910340EA9C00E3
:10586000B3EBD10F24BFA3EBD10340EADC001B0153
:1058700018BF5FEA1C1CE0D1FD2A3FF650AF8B42F7
:1058800040EBC25008BF20F0010070470CF0004C04
:105890004CEA50207F32C2BFD2F1FF0340EAC2502F
:1058A000704740F400004FF00003013A37E792F0F0
:1058B000000F00F0004C02BF400010F4000F013A4E
:1058C000F9D040EA0C0093F0000F01F0004C02BF49
:1058D000490011F4000F013BF9D041EA0C0195E7B2
:1058E0000CEAD15392EA0C0F08D142027FF47DAF4B
:1058F00093EA0C0F7FF470AF084676E793EA0C0F3B
:1059000004D14B023FF44CAF08466EE730F0004C38
:1059100018BF31F0004CCAD130F000427FF45CAFC8
:1059200031F000437FF43CAF5FE700BF4FF0FF3C36
:1059300006E000BF4FF0010C02E000BF4FF0010C89
:105940004DF804CD4FEA40024FEA41037FEA226C52
:1059500018BF7FEA236C11D001B052EA530C18BF74
:1059600090EA010F58BFB2EB030088BFC81738BFD9
:105970006FEAE17018BF40F0010070477FEA226CC7
:1059800002D15FEA402C05D17FEA236CE4D15FEAC3
:10599000412CE1D05DF8040B704700BF84460846F7
:1059A0006146FFE70FB5FFF7C9FF002848BF10F1B8
:1059B000000F0FBD4DF808EDFFF7F4FF0CBF0120FD
:1059C00000205DF808FB00BF4DF808EDFFF7EAFF87
:1059D00034BF012000205DF808FB00BF4DF808ED42
:1059E000FFF7E0FF94BF012000205DF808FB00BF37
:1059F0004DF808EDFFF7D2FF94BF012000205DF8BD
:105A000008FB00BF4DF808EDFFF7C8FF34BF0120C9
:105A100000205DF808FB00BF03460846194600F069
:105A200001B800BF30B405460C4613460220294693
:105A3000224630BC00F0DABB70B546F6842646F646
:105A40008425C0F20006C0F20005761BB61007D010
:105A5000043D002455F8043F01349847A642F9D18B
:105A600046F6BC2646F68425C0F20006C0F20005C4
:105A7000761B01F001F8B61008D0043D002455F85B
:105A8000043F01349847A642F9D170BD70BD00BFF4
:105A90004CF228130146C1F6FF73186800F008B8ED
:105AA0004CF228130146C1F6FF73186800F060BC81
:105AB0002DE9F04F01F10B04162C83B0074630D9C5
:105AC00024F00704E30F8C422CBF194643F0010178
:105AD00000292FD1384600F071FBB4F5FC7F2ED29F
