:1000000000800020BD010000212500002125000006
:10001000212500002125000021250000ED240000FD
:10002000ED240000ED240000ED2400002125000057
:1000300021250000ED24000021250000DD24000022
:100040002125000021250000212500002125000098
:100050002125000021250000212500002125000088
:100060002125000021250000212500002125000078
:100070002125000021250000212500002125000068
:100080002125000021250000212500002125000058
:100090002125000021250000212500002125000048
:1000A000A5150000212500002125000021250000C4
:1000B0002125000021250000212500002125000028
:1000C0002125000021250000212500002125000018
:1000D0002125000021250000212500002125000008
:1000E00021250000212500002125000021250000F8
:1000F00021250000713D000021250000ED41000098
:10010000212500009D45000021250000212500003B
:1001100021250000212500002125000021250000C7
:1001200021250000212500002125000021250000B7
:1001300021250000212500002125000021250000A7
:100140002125000021250000212500002125000097
:100150002125000021250000212500002125000087
:1001600021250000E52B00002125000021250000AD
:100170002125000021250000212500002125000067
:100180002125000021250000212500002125000057
:1001900021250000212500002125000081260000E6
:1001A000D1260000592700001528000099280000DA
:1001B00021250000212500006D370000544B4CF232
:1001C000205210B51A804DF628121A8000BF00BFC9
:1001D00002F0AAF94F4B4FF010621A604E4A9A6033
:1001E0004E4ADA604E4B1A6812F4807204D14D49BF
:1001F0000A604FF4A8521A604B4B1A7802F00802BA
:10020000D2B21AB11A7842F008021A70474B484825
:10021000484C2A221A700023474A02E01959995083
:10022000043399188142F9D3444B454A002101E037
:1002300043F8041B9342FBD34249434800231A5816
:100240005A500433B3F5DE7FF9D1404B404A802148
:1002500003F8011B9342FBD13A4A3E4B1A603E4BD6
:100260000A221A703D4B24221A70A02203F8012C96
:100270003B4A137803F00203DBB2002BF9D0384A73
:10028000137803F01003DBB2002BF9D1344A137852
:1002900003F00C03082BFAD1324B03221A704022D0
:1002A0005A702F4A137803F02003DBB2002BF9D0E9
:1002B0002B4A137803F04003DBB2002BF9D02A4B12
:1002C0002A4A1A6002225A60294B20221A70244AB4
:1002D000137803F00C030C2BFAD1264A264B1A6034
:1002E000264B274A1A60072243F8042C62B602F014
:1002F0006BFB0C4B1B68DC0702D5224802F0E4FACA
:1003000005F024FA02F016F903F0DCFAFEE700BF6C
:100310000E20054030800440823F04000100002B85
:1003200010D0034014D0034002D0074000E0074043
:10033000305F0020B466000060590020305F00206C
:10034000F46B0020005400200000000000E400E0F6
:100350005FE400E008ED00E0005006400140064088
:10036000064006400440064044800440000003016B
:1003700000400640C01005000480044014E000E086
:10038000FF760100B06EDC54FFFFFFFFFFFFFFFFB1
:10039000FFFFFFFFFFFFFFFFFFFFFFFFFFFFFFFF6D
:1003A000FFFFFFFFFFFFFFFFFFFFFFFFFFFFFFFF5D
:1003B000FFFFFFFFFFFFFFFFFFFFFFFFFFFFFFFF4D
:1003C000FFFFFFFFFFFFFFFFFFFFFFFFFFFFFFFF3D
:1003D000FFFFFFFFFFFFFFFFFFFFFFFFFFFFFFFF2D
:1003E000FFFFFFFFFFFFFFFFFFFFFFFFFFFFFFFF1D
:1003F000FFFFFFFFFFFFFFFFFFFFFFFFFFFFFFFF0D
:10040000FFFFFFFFFFFFFFFFFFFFFFFFFEFFFFFFFD
:1004100008B545F63070074BC2F200001B1A062BD8
:1004200000D808BD40F20003C0F20003002BF8D052
:100430009847F6E7335F002008B545F6307045F67B
:100440003073C2F20000C2F200031B1A9B1003EBD0
:10045000D373591000D108BD40F20002C0F200026F
:10046000002AF8D09047F6E710B545F63074C2F28E
:100470000004237873B9FFF7CBFF40F20003C0F20A
:1004800000032BB146F2B460C0F20000AFF300806D
:100490000123237010BD00BF08B540F20003C0F275
:1004A00000034BB146F2B46045F63471C0F200006F
:1004B000C2F20001AFF3008045F63070C2F20000D6
:1004C00003682BB140F20003C0F2000303B1984768
:1004D000BDE80840FFF7B0BF034B82B01B68019333
:1004E000019B036002B07047CC680020044B006899
:1004F0001B6882B00193019B181A02B0704700BFBD
:10050000CC680020044B82B01B680193019B591AF0
:10051000016002B0704700BFCC6800200F4B4172F1
:100520000360002302610372C360194603E002699D
:1005300042F823100133427A9342F8DB084A1368E9
:1005400013B9106004E013465A69002AFBD15861C0
:10055000002343618380C380704700BFF0620000C6
:10056000C469002010B5012100F500720446FFF7B0
:10057000D5FF074B0021236021766176A176E176D5
:1005800004F12C004FF4EA7205F0A2FC204610BDE5
:100590000063000010B50023017E1A4641FA03F4FF
:1005A00014F0010F08D000EB4304A48B7F34E4095E
:1005B0000134A24238BF22460133082BEED1C27665
:1005C00010BDFFFFFFFFFFFF70B504460D4610464C
:1005D0000021164605F05CF800B10026304604F014
:1005E00025FB1DA3D3E9002304F074FB00221C4B60
:1005F00004F0BEF904F080FD217EB0F5685F28BFED
:100600004FF4685000F17F03DB0941FA05F2013332
:1006100012F0010F05F10C0204EB42020AD19080A6
:10062000E27E934288BFE376012303FA05F529436E
:10063000217670BD9188884207D9E27E934288BFB7
:10064000E37604EB4504A08370BD90802046FFF75D
:10065000A1FF70BDAFF30080D595110F0F0F46407D
:100660000000E03FAFF30080012210B5047E02FAE3
:1006700001F124EA01020276FFF78CFF10BDFFFFB3
:1006800010B5042100F128020446FFF747FF054B8F
:1006900023604FF48033A361E361236263622046E9
:1006A00010BD00BF2063000038B52C4C2C4D2D48E8
:1006B000C82102F055FF2A4620460021FFF784FF9B
:1006C00020460121FFF7D0FF20460221FFF7CCFF93
:1006D00020460321FFF7C8FF20460421FFF7C4FF8F
:1006E00020460521FFF7C0FF20460621FFF7BCFF8B
:1006F00020461D4C0721FFF7B7FF2A460021204660
:10070000FFF762FF01212046FFF7AEFF02212046DE
:10071000FFF7AAFF03212046FFF7A6FF042120468A
:10072000FFF7A2FF05212046FFF79EFF0621204686
:10073000FFF79AFF07212046FFF796FF0B494FF47A
:10074000404249F699138A61CB6109498B61094B93
:100750009A614FF40042DA6138BD00BF6C5F00203F
:100760000000A5430082FF1F706100204864002044
:1007700080640020B864002070B55A485A4DFFF7D5
:10078000B5FE2B6898421DD9584C0A20266803F004
:10079000F3F8801920604FF47A7003F0EDF800212F
:1007A00028605048FFF7AEFE2368B3F5A57F01DD52
:1007B00001232360206804F079FD002102464C48A3
:1007C000FFF702FF4B484C4DFFF790FE2B68984215
:1007D0001DD94A4C0A20266803F0CEF8301A206052
:1007E0004FF47A7003F0C8F8002128604148FFF701
:1007F00089FE2368002BDCBF4FF4A57323602068BB
:1008000004F054FD012102463D48FFF7DDFE3D485E
:10081000FFF76CFE3C4B1B6898422AD90E2003F070
:10082000ABF804F03FFD394904F048FE384B394934
:100830001860044604F04AFF28B92046002104F05D
:1008400027FF18B101E0334C00E000244FF08F4146
:10085000204604F07FFD04F043FF2F4BD8614FF496
:10086000FA7003F089F8284B002118602548FFF73B
:1008700049FE2A48FFF73AFE294B1B6898422AD9BD
:100880000E2003F079F804F00DFD204904F016FE67
:10089000244B20491860044604F018FF28B920466C
:1008A000002104F0F5FE18B101E01A4C00E000242C
:1008B0004FF08F41204604F04DFD04F011FF1A4B1C
:1008C000D8614FF4FA7003F057F8154B0021186007
:1008D0001248FFF717FE642003F04EF8BDE87040A1
:1008E00002F05CB8F064002070590020F86300202A
:1008F0006C5F0020A063002078590020F463002082
:10090000706100204C5F00206C59002000002041E5
:100910006459002000FEFF464864002074630020F4
:100920006859002074590020B86400202DE9F74F61
:10093000DFF888B14D4EDFF888914D4DDFF88481A6
:100940004C4FDFF884A100210A465846FFF7E6FD28
:10095000494B1420CBF8003000F0DEF93046FFF7A9
:100960008FFE464B18460193FFF7FCFD4846FFF704
:10097000F9FD2846FFF784FE4046FFF781FE01217E
:1009800007F118023846FFF7C9FD3D4A38463A607C
:1009900000F066FB01210AF118025046FFF7BEFD88
:1009A000384A5046CAF8002000F0B4FC364800240B
:1009B000C0F800B0466004724472C46002F0A9FE40
:1009C0003248C0F800B0456004724472C46002F05E
:1009D000A0FE019B2E484360066004724472C4600E
:1009E000019302F096FE2B4880E8400104724472A5
:1009F000C46002F08EFE019B274880E84800012673
:100A000004724672C46002F084FE2448C0F800906C
:100A1000456004724672C46002F07BFE204880E8A4
:100A2000200404724472C46002F073FE1D4880E822
:100A3000200204724472C46002F06BFE1A48C0F8CF
:100A40000080476004724472C46002F062FE17487E
:100A5000FFF742FD1648FFF73FFD1648FFF73CFD44
:100A60001548FFF739FDBDE8FE8F00BF4864002040
:100A7000B8640020505F0020106300006C5F00200D
:100A80003063000040630000C4630020E463002082
:100A900078630020FC6300200C640020A463002025
:100AA000B463002038640020D4630020F064002088
:100AB000A06300204C5F0020746300208863002046
:100AC00070610020806400201C6400202DE9F04744
:100AD000467E857E0136742E88BF0026AE420446CF
:100AE00008D100EB8603751CD86A02F0AFFD752DA6
:100AF00008BF00250021204602F0DDFD04EB86033F
:100B0000AE4238BF06F17507D862E37E66762CBF29
:100B1000C5EB0607C5EB07079F4212D9FF1A4FF036
:100B2000000905F10A0804EB88080135D8F804002B
:100B300002F08CFD742D88BF0025013FC8F8049099
:100B4000EFD1A5760025A946237E43FA05F3DB07FE
:100B50005DD504EB4503B3F81CA04FEADA1846450F
:100B600038BF06F175030AF07F0A2CBFC8EB0608F0
:100B7000C8EB0308BAF1000F09D104EB8803D96A66
:100B8000002944D02046EAB202F080FD3FE002F0A6
:100B900015FD074600283AD0831CB8F1000F02D09B
:100BA00008F1FF3200E0742204EB8202D16A4FEABE
:100BB0004A0251B101F581718A1A03E032F8020B41
:100BC00023F8020B8A42F9D306E0BA18023201E098
:100BD00023F8029B9342FBD304EB880107F5817253
:100BE000C96A89B103E031F8020F23F8020B93427E
:100BF000F9D320463946EAB202F048FD384602F001
:100C000025FD04E023F8029B9342FBD3F1E7013575
:100C1000082D99D1BDE8F08710B5154B1A681979E0
:100C2000144B12691970144B9A4207D2134A127866
:100C30003AB1134A4FF08041116002E01A46803BFE
:100C400001E003F180020F49096879B10E48048878
:100C5000402C28BF402401EB440140340231048081
:100C600033F8020B9A4221F8020BF9D810BD00BFED
:100C7000FC6400201F800040104C0020066500200E
:100C800008E200E0F8640020F464002010B5044697
:100C900002F0FEFD204610BD70B5054602F08EFC48
:100CA00072B61A4B19887F290AD838B1184C2168B6
:100CB00011B92060198001E062B622E062B670BD11
:100CC000134900220C681A80086062B6114B1B8819
:100CD00004F58170A21C42F6E0661188C91A01F37E
:100CE0000F0122F8021B09B291FBF6F182420B447C
:100CF000F3D3084A284613802146002202F0C6FC9E
:100D00002046BDE8704002F0A1BC00BFF4640020A2
:100D1000F86400200465002070B50646102001F03C
:100D200011FB022001F0EAFA082001F035FB4FF434
:100D300080650024304601F059FB013D0444F9D19F
:100D4000434BA40A1C80434B1B685B0269D5424B92
:100D50001A6848F6A273134048F6A272934260D113
:100D60003E4B1A6840F23F439A425AD13C4B1B68B3
:100D7000012B56D13B4B1A6840F201139A4250D1D5
:100D8000394B3A4C1A6842F044021A60204601215D
:100D900002F026FD236836491A681960186935483B
:100DA00002211861802019721975D98AD8824FF0F2
:100DB000FF3159769976D976D98BD8830022998BD1
:100DC0001A710125062199835A719D71DD715A723C
:100DD0009A72DA721A735A739A73DA735A751A76A8
:100DE000237903F1804303F504331A70A8221A70A3
:100DF00002F0A6FC204B214A18702379204813707A
:100E000003F110011F4A42F821005A11920002F129
:100E1000604202F5614203F01F0305FA03F5156015
:100E200070BD0C4B1A6842F480021A600C4B012210
:100E30001A6040F23F4243F8082C48F6A37243F888
:100E40000C2C114A43F80C2C40F201125A6097E71F
:100E5000046500203C8004400060034004600340BF
:100E60000C6003401060034020B00340FC6400208D
:100E700010B00340904B0020066500201B8000400E
:100E8000190C000000540020A28F01000248034901
:100E9000034A04F04BBC00BFFC6400208D0C000032
:100EA0006059002002480349034A04F03FBC00BFD8
:100EB000086500208D0C00006059002010B500F579
:100EC0008072036831FB03F431FB13F304F30F0466
:100ED00003F30F03C4EA034340F8043B9042F0D10C
:100EE00010BD0023B2F5803F70B510D1C258CC5868
:100EF00092FA14F2C250CD18C2186D68546894FA70
:100F000015F40833B3F5807F5460EFD170BDCC5831
:100F100032FB04F632FB14F406F30F0604F30F045D
:100F2000C6EA0444C55894FA15F5C5500433B3F520
:100F3000807FECD170BD2DE9F041002506460746C3
:100F40002C46304629465CB902F0C2FB0446A0B1EB
:100F5000B969B1F5803F10D00230FFF7AFFF0CE068
:100F600002F0A9FB804640B1A01C08F10201BA6959
:100F7000FFF7B7FF404602F069FB01350437042D47
:100F8000DFD14CB130462146002202F07FFB2046E3
:100F9000BDE8F04102F05ABBBDE8F08110B5194B35
:100FA0001A6811681A79184B1A70184A9142184930
:100FB00028BF184B08683CBF134603F5807298B1F0
:100FC000014631F9024F04F5FF447F34241123F820
:100FD000024B9342F5D302F039FB0F4B0C491A68D0
:100FE0000A6000221A6005E040F2FF7123F8021B3C
:100FF0009342FBD3094B1B781BB1094B4FF0804246
:101000001A6010BD146500201F800040904D002024
:1010100020650020904C0020106500201C650020F9
:1010200008E200E010B5002102F045FB034690B154
:1010300072B60949086808B90B6003E0074A1468EA
:1010400014B9136062B610BD0C60136062B6BDE8DF
:10105000104002F0FBBA10BD206500201065002092
:1010600038B54B484B4D012102F0BAFB4A4B1A6888
:1010700042F480521A60494B80221A7000242C805E
:1010800008340120A4B201F089FCB4F5006FF6D158
:10109000434B1B685B0264D5424B1A6848F6A27347
:1010A000134048F6A27293425BD13F4B1A6840F25C
:1010B0003F439A4255D13D4B1B68012B51D13C4BCC
:1010C0001A6840F201139A424BD1314D39492B68CD
:1010D0001A6819600221197119726FF001015973B0
:1010E0004FF0FF319973D97319692A494FF4807011
:1010F00019610022D98AD88211465A715A729A729D
:10110000DA721A731A755A751A765A769A76DA76E8
:10111000DA8BD8839A8B012406229A839C71DC7126
:101120002B7903F1804303F50433B02219701A7050
:1011300002F006FB204B214A18702B7920481370CF
:1011400003F110011F4A42F821005A11920002F1E6
:10115000604202F5614203F01F0304FA03F41460D5
:1011600038BD0F4B1A6842F480021A600F4B0122FF
:101170001A6040F23F4243F8082C48F6A37243F845
:101180000C2C114A43F80C2C40F201125A609CE7D7
:101190001465002000C00C402C80044021C00C408D
:1011A0003C80044000600340046003400C60034046
:1011B00010600340904C00201C6500201B80004004
:1011C0009D0F000000540020A28F01000248034937
:1011D000034A04F0ABBA00BF146500208D0C000078
:1011E0006059002002480349034A04F09FBA00BF37
:1011F000246500208D0C000060590020F8B5294BB3
:101200001A6811681A79284B1A70284BA3F50072D6
:10121000994238BF1A46264B1868264B1C6820B3E3
:1012200000EB44070237002337F8025B85F40045E2
:101230002E0A7836D650D1181033EDB2B3F5007FB0
:101240004D608E60CD60EFD104F120027F2A194BF2
:1012500001D81A6014E000241C6002F0F7F9164B64
:1012600013491A681C600A600AE0F8240146145009
:1012700013181030B0F5007F59609C60D960F6D12A
:101280000E4B1B7863B10E4B1A780132D2B2032A8F
:101290001A7005D900221A700A4B4FF080421A606A
:1012A000F8BD00BF3C6500201F800040905000202A
:1012B0002C65002030650020346500204465002046
:1012C0003865002008E200E010B5002102F0F3F9D3
:1012D0000346B8B172B60C49086818B90B600B4BDD
:1012E000186003E00A4A146814B9136062B610BDAE
:1012F0001360064B0C6000221A6062B6BDE8104015
:1013000002F0A4B910BD00BF2C650020306500209C
:101310003465002038B53B48012102F061FA3A4AB1
:101320003A49002313603A4A40F21F2013600B60D1
:1013300048606920886028200861082111603549CB
:101340004FF451720A604A60334978220A608B6018
:10135000324915461C465D50C81808330022B3F5C3
:10136000806F4460F7D1274C236819682B495A7164
:101370006FF003001960587304214FF0FF301971AA
:101380009873D87322211869234899710221186132
:10139000D9718020082119721975D98AD8825A7298
:1013A0009A72DA721A735A7511461A765A769A76C2
:1013B000DA76DA8BD8839A8B06229A83237903F123
:1013C000804303F50433A02219701A702279144B5C
:1013D0001A7002F0B5F9134B134A187023791348A9
:1013E00003F1100142F821005A11920002F160420B
:1013F00002F5614203F01F03012101FA03F31360B8
:1014000038BD00BF3C6500202C65002004900340DF
:10141000009003403090044010900340904E002014
:101420001B8000404465002000540020FD11000096
:1014300002480349034A04F079B900BF3C65002023
:101440008D0C000060590020094B1B7813B9094B23
:101450001B782BB1084A1378202B03D90123037181
:10146000002070470548C1540133137001207047B4
:10147000AA6500206D650020AB6500204C6500204A
:101480007047FFFF024B1878024B1B78C01A704759
:10149000A9650020A8650020064A07491378097845
:1014A000994204D90549C85C0133137070474FF065
:1014B000FF307047A8650020A96500206E650020F8
:1014C000054B064A1B7812789A4202D9044AD05C2E
:1014D00070474FF0FF307047A8650020A9650020D5
:1014E0006E65002038B50E4B1B78144613B90D4BB2
:1014F0001B788BB10C4B1D78C5F121039C4202D99E
:10150000012202711C4609482246401904F026FCBB
:10151000054B2D191D7000E01C46204638BD00BF4C
:10152000AA6500206D650020AB6500204C65002099
:1015300010B5104B1B7813F020040BD1122001F0D2
:1015400087F80D4B1B68A3B10C4A14700C4A107835
:10155000984710BD0B4A13780133DBB2012B13708F
:1015600002D8094B1B7823B91220BDE8104001F0C6
:101570006FB810BD0360064048650020A8650020D4
:10158000A9650020946500206D650020002202718D
:101590000273034A4FF47A7181600260704700BFA2
:1015A0005063000010B5374A137803F01001C9B238
:1015B00021B903F04002D2B242B92EE010211170DD
:1015C00003F04002D2B2002AF3D110BD13F004039D
:1015D0002D4A18D0002313702C4A13702C4B1B6813
:1015E000144603B1984722782A4B1AB927491A7032
:1015F00001200870284AD02111701A78274B1A70E0
:101600000122274B21E001211170264A1370224B41
:10161000C0221A7002331B7830E01F4A1F4C117829
:1016200011F0100117D013F0010310D11C49174815
:101630000A780078904205D9164B9B5C01322370E2
:101640000A7000E02370144BD0221A7016E0C023F9
:101650001370237812E0144B1220197003221349DF
:1016600000F0CCFF0F4A207813781F2B06D80649CC
:10167000097819B10E49C85401331370014B022285
:101680001A7010BD0360064045650020AB65002060
:10169000906500204C650020026006400460064012
:1016A000AC650020A965002094650020311500007C
:1016B0006E6500200148FFF769BF00BF98650020F4
:1016C000084B02211961084900225A719A719A72D5
:1016D0001A7383F8302083F83C20996383F83E2006
:1016E000704700BFCC65002070630000094B1A688A
:1016F00042F480621A602C334FF000421A60064AAE
:10170000FF2111601A68002AFCDA044B1868C0B285
:10171000704700BF00C0024034C0024038C00240E1
:101720001A4B1B4A70B51A60C307044602D5FFF76F
:10173000DDFF013C052C01D8630800E003230022F3
:101740001449154801E0086001329A42FBDB23EAA4
:10175000E372A4EB42040F49104A0F48104D06E013
:10176000166816F0F00FFBD008602E68023C002CC3
:10177000F6D106E0106810F0F00FFBD00868013BCE
:1017800001E0064A0649002BF4D170BD00C00240BA
:1017900000041F8034C00240FFFF00902CC00240B4
:1017A00038C00240074B1A6842F480621A602C333A
:1017B0004FF000421A60044A10601A68002AFCDAEE
:1017C000704700BF00C0024034C0024010B5194B42
:1017D0001B780BB3DA0707D5174A1849146809684C
:1017E0002140174C2160116003F00202D2B23AB1DD
:1017F000144A1249146849682140114C6160116013
:1018000003F00403DBB23BB10F4B0C4A196892683A
:101810000A400B498A601A600C4A1368834208D058
:101820000B4B0C491960106040F0804050600A4A30
:101830001A6010BDC865002080E100E0B06500209E
:10184000BC65002084E100E088E100E00CC00240BB
:1018500000C0024001401F0000001F800C4B1B789D
:10186000ABB1D90703D50B4A11680B4A116003F0DD
:101870000202D2B21AB1074A5168084A116003F055
:101880000403DBB21BB1034B9A68054B1A60704727
:10189000C8650020BC65002000E100E004E100E034
:1018A00008E100E008B50121007901F01DF8FFF71B
:1018B000D5FF08BD054B10B504461868FFF786FF35
:1018C00020790021BDE8104001F00EB82C66002000
:1018D00010B5837904468BB1008940F20123984208
:1018E00007D8C0F500700230FFF71AFF40F202235C
:1018F00023812046FFF7D6FF0023A37110BDFFFF11
:1019000073B50B4B1A680092009E0D461C46B6B28A
:10191000FFF7ECFEFF2808D023680193019B9BB2E0
:101920009B1BAB42F4DB002000E001207CBD00BF2C
:10193000CC680020F8B505460E461746FFF7C8FFED
:101940002846FFF7B7FF4FF496712846FFF7D8FFF8
:1019500046F04000FFF726FF182427FA04F0C0B233
:10196000083CFFF71FFF14F1080FF6D126B1082E2F
:101970000CBF8720FF2000E09520FFF713FF002415
:10198000FFF7B4FE0306E87204D5FF2C02D0013441
:10199000E4B2F5E7F8BDFFFF73B5114B1A6800928A
:1019A000009E04461D46B6B209E02B680193019BD8
:1019B0009BB29B1BB3F5967F01DD0F2307E0FFF77A
:1019C00095FEFF28E072F0D0FE2806D00D232046B9
:1019D0006371FFF767FF002000E001207CBD00BFBE
:1019E000CC6800202DE9F843089D04460F46904638
:1019F0001E4603B974E09B18B3F5007F73DC83794E
:101A00002BB10368994202D10389934216D9237BF3
:101A10002760032B18BF7F023A4620461121FFF7AB
:101A200089FF074610B1032363715CE02046FFF78E
:101A3000B3FF002857D001232781A3714046FFF749
:101A40006FFE2C492C4B1960F107324604D5FFF785
:101A50004DFE05F8010B721E052A01D8530800E05F
:101A6000032300212548264F01E0076001319942F8
:101A7000FBDBA2EB4302AA182248204FDFF880C00C
:101A8000DFF884800DE0016811F0F00FFBD0C7F89B
:101A900000C0D8F80010C1F3072985F800906970DC
:101AA00002359542EFD302EB43031748154A09E08C
:101AB000116811F0F00FFBD00168C1F307272F70F8
:101AC000697002359D42F3D32389F618A37AB6B222
:101AD000268113B1B6F5007F02D32046FFF7F8FE4A
:101AE0000120BDE8F8832046FFF7DCFE0020BDE8BA
:101AF000F88300BF00041F8000C0024034C00240D1
:101B0000FFFF00902CC0024038C0024007B54FF4E0
:101B1000007300920022FFF765FF0EBD2DE9F04132
:101B200004462B482B4F03682B4D43F480634FF042
:101B3000004603603E6029603946002307468C4614
:101B4000D1F800E0BEF1000FFADA12E0D1F800E0BF
:101B5000BEF1000FFADA18E01E4A1368002BFCDA17
:101B600026E0112320466371FFF79CFE0020BDE8AC
:101B7000F081D0F8008012F803E048F48068C0F8E3
:101B800000800E60C5F800E0E0E702EB030ED7F836
:101B900000809EF801E0023348F48068B3F5007FCE
:101BA000C7F80080CCF80060C5F800E0C8D1D3E7E2
:101BB000FF20FFF7F7FDFF20FFF7F4FDFFF796FD8D
:101BC000E07200F01F000528CBD10120BDE8F081B4
:101BD00000C002402CC0024034C0024070B50B4629
:101BE0000446164609B9122329E0027B032A18BFCE
:101BF0004B021A461821FFF79DFE054608B1042343
:101C00001DE02046FE213246FFF788FF88B12046BE
:101C10004FF41671FFF774FE08B915230FE0204644
:101C20000D212A46FFF786FE40B9FFF75FFD28B970
:101C300007E02046FFF736FE002070BD14236371D5
:101C4000F7E72046FFF72EFE012070BD014A024B48
:101C50001A607047011001382C66002010B5044648
:101C60000121006A04F1080200F01EFA40B1E369A4
:101C70002BB9A368E361637963F07F03637101208B
:101C800010BDFFFF10B50446006900F071F918B1EE
:101C9000207D024B03EB401010BD00BF3C660020CE
:101CA000F8B5044680790D4600282CD0A3699942E6
:101CB00024D825E01DB9A560E5600120F8BD236AA0
:101CC000E2681E7C691E0936531E23FA06F321FAC8
:101CD00006F69E4200D312B9E369A36009E0F61A42
:101CE00007E0206AA1683A4600F066F9013E10B9A3
:101CF000F8BD04F10807002EF3D1DDE70020F8BDA0
:101D00000228D7D1D8E7F8BD38B58379054613B393
:101D100090F90530002B1ADA0121FFF7B3FF0446D2
:101D2000C8B1AB79012B9CBFAB69C361EB6943833D
:101D30001B0C8382094B1B682BB1183004F1160170
:101D40009847238B63826B7903F07F036B71BDE847
:101D5000384000F0E7B8002038BD00BF30660020F2
:101D60002DE9F74F92468279012A07460C4640F04A
:101D7000B680427902F00201C9B2002900F0AF80BA
:101D8000B1E0B969FD688D4201D1554688E0FFF7A1
:101D900087FF002800F0A380F7E7386A90F804B0C6
:101DA0000BF1FF3B0BEA522B4FEAC2594FEAD959CC
:101DB0001BF0FF0B1FFA89F81FD1B8F1000F1CD1DF
:101DC000B96811B9FA69BAB911E001AA00F0F4F8DA
:101DD000002800F08F80396A474891F82010019A56
:101DE0004FF6F873102908BF1846824204D33846CC
:101DF000FFF734FF08B972E0BA603A6AB968107C3C
:101E00005269C8F500760239B6B2B54238BF2E46DF
:101E100001FA00F18918B6F5007F8B4411D1374AD9
:101E20001168594504BF4FF0FF311160344A5946DB
:101E300010682246FFF7D2FE002850D004F5007447
:101E400029E0B8F1000F10D1F968BA6991420CD3BA
:101E500000F068F8002842D0284AC2F800B0294AA9
:101E6000117841F00101117005E05846012100F0A0
:101E70007FF8002833D0244A914409EB0600611E04
:101E80004A4603E011F801CF02F801CB8242F9D1B2
:101E9000C9EB02094C44FA68AD1B9619ADB2FE605D
:101EA000FA68002D7FF479AFB9698A4201D9BA6125
:101EB00005E0164A126832B1BAF1000F03D07A7900
:101EC00062F07F027A717A7902F00802D2B20AB91E
:101ED00050460FE03846FFF717FF0028F8D10122DF
:101EE0003A71002006E002F00402D2B2002A7FF428
:101EF00048AF4AE7BDE8FE8FF8FFFF0F7C5900208E
:101F0000386600203C6800203C66002030660020D7
:101F100007B502AB012203F8011D1946FFF720FFA8
:101F20000EBDFFFF38B50D4B1B78A3B10C4D0D4B0B
:101F3000286819680C4AFFF751FE68B10B4C2168FC
:101F400031B12868084AFFF749FE28B10023236011
:101F5000024B00221A70012038BD00BF3C680020EF
:101F6000386600207C5900203C6600203466002042
:101F700070B50D4D2B68834204460E460DD0FFF719
:101F8000D1FF08B9002070BD084B094A18682146E6
:101F9000FFF7BCFD0028F5D02C60064B1A781643DD
:101FA0001E70012070BD00BF7C59002038660020E3
:101FB0003C6600203C680020C3680133994270B53C
:101FC00005460C46164601D9002070BD95F8203014
:101FD000C069102B01D10B0A00E0CB0918180E4B79
:101FE0001B68984205D195F82030102B0B4B0AD175
:101FF00005E00021FFF7BCFF0028F4D1E4E7E4B2DC
:1020000033F8143005E004F07F0453F8243023F053
:1020100070433360012070BD7C5900203C66002075
:102020000129F8B504460D46174633D9C368013374
:1020300099422FD890F82030C669102B01D10B0A95
:1020400000E0CB099E19144B1B689E4205D194F801
:102050002030102B114B0BD106E030460021FFF74A
:1020600087FF0028F3D1F8BDEDB223F8157003E027
:1020700005F07F0543F82570094B1A7842F00102FC
:102080001A70237E012B03D9A368F618054B1E6036
:102090000120F8BD0020F8BD7C5900203C660020DE
:1020A0003C680020346600202DE9F74F156806468D
:1020B0008A4617461DB101354FF0000905E04B1E59
:1020C000D3F10009056859EB0309F3682C4603F1C5
:1020D000010B4FF00008F36898451CD25C4501D90C
:1020E000022425463046214601AAFFF765FF90B13C
:1020F000019A631C0AB11D4602E05B1B534503D0E5
:1021000008F101080134E6E7304621466FF07042DD
:10211000FFF786FF58B900201CE004F1FF38304675
:1021200041462246FFF77CFF0028F4D04446AC42EB
:10213000F3D8396821B93D60B9F1000F07D108E043
:1021400030462A46FFF76CFF0028F4D1E3E701355B
:1021500035600120BDE8FE8FF0B530483049036896
:102160001B06FCD40B6813F08002F8D172B62D4B1D
:102170001978002950D02C4908684F688E68CD68BE
:102180000C69381814318019096840190019401871
:10219000C0F34E00254940F400400860C86A0F6B48
:1021A0004E6B8D6BCC6B3818403180190968401923
:1021B00000194018C0F34E001D4940F4004008606B
:1021C00001F10811143151F8140C51F8107C51F838
:1021D0000C6C51F8085C51F8044C096838188019E7
:1021E000401900194018C0F34E00124940F4004055
:1021F0000860C86A0F6B4E6B8D6BCC6B3818403122
:1022000080190968401900194018C0F34E000A49A6
:1022100040F4004008601A7062B6F0BD24B003407C
:1022200024B00B403E68002038B003402CB003407F
:1022300030B003402CB00B4030B00B40224B60223A
:102240001A70E1225A70214B214A1978214B082932
:1022500001D1012102E00A2907D13921116013229D
:102260001A601D4B19605A600BE00C291A4901D104
:10227000352000E03D20106012221A60174B0860E4
:102280001A60174B17491B78174A03B101230B60DB
:102290001360164B164A1978164B012901D8802174
:1022A0000CE0042901D8842108E0082901D88521FF
:1022B00004E0102901D8862100E08721116019600F
:1022C0000D4B01221A7070470040074080590020D2
:1022D00008B003400CB0034008B00B400CB00B40FA
:1022E0004168002020B0034020B00B4081590020FD
:1022F00024B0034024B00B403E6800200E4B1A78F7
:1023000060B1BAB9012119700C4B1B7823B10C4B89
:102310001A6003F500231A60FFF790BF52B11870DE
:10232000064B1B78002BF7D0054B186003F50023F4
:102330001860F1E7704700BF416800203E68002048
:1023400024B003400C2803D91023102807D809E033
:102350000A2806D8082894BF08230A2302E0184652
:1023600000E00C23084AD9B2081A1070074A107806
:10237000834208D0064B11701B7813B1054B002225
:102380001A60FFF75BBF70473D680020805900204E
:102390003E68002024B0034010B5114B1B78044662
:1023A0000BB1FFF7D9FE012C0E4A01D8002302E041
:1023B000042C02D8042313600EE0082C03D8052354
:1023C0001360082308E0102C03D8062313601023A1
:1023D00002E0072313602023034A137010BD00BFDF
:1023E0003E68002024B00340815900200D282DE9CB
:1023F000F0410FD9172801D80E380AE0A0F11A03CE
:10240000052B01D8093804E0A0F12203062B4DD892
:102410001838C0B2274B1C5C274B1B780BB1FFF759
:102420009BFE72B6200614D4244D254E01272C6045
:10243000377062B672B62B68190603D5214B18683F
:102440001F4B23E03378002BF1D062B601F0A0FAE5
:10245000F0E704F040071C4D1C4EFFB204F03F04AF
:102460004FF001081A4B1A6817B122F0100201E070
:1024700042F010021A602C6086F8008062B672B6D4
:102480002B681A060BD5134B1868104B00221A70D4
:1024900062B6114B1B7840FA03F0BDE8F081337847
:1024A000002BDFD062B601F073FAE8E70020BDE848
:1024B000F08100BF786300003E68002000B0034058
:1024C0004068002010B0034000B00B403F6800207F
:1024D0000CB00B4010B00B403D680020024B1A6856
:1024E00001321A60704700BFCC68002038B50B4C31
:1024F00025462368580301D500F074FB2B68590565
:1025000001D501F035FC2B681A0501D501F06EFEEE
:102510002368DB04EDD502F041F8EAE7348004409B
:1025200008B5FFF7E3FFFFFF014B10221A80704749
:10253000002005407047FFFF024A1368181810601A
:102540001846704784590020FEE7FFFFEFF313831E
:102550009BB9EFF3108098B9EFF3058323B10F2BEC
:1025600004D9084A985C01E04FF48070EFF31183BE
:102570003BB1984228BF184670474FF0FF30704774
:1025800018467047F0E300E0002300E00133C25C2E
:10259000002AFBD11846704710B50023B0FBF2F4B7
:1025A00002FB1400092801D8303000E03730C8544D
:1025B00020460CB10133F1E7CA185470224605E0F9
:1025C000885CCC5C8C54C8540132013B9A42F7DBE6
:1025D000084610BD084B4FF400021A604FF080729D
:1025E0001A604FF000721A604FF080621A604FF06C
:1025F00000621A60704700BF08E100E0212830B592
:1026000021D8042A1FD8DFE802F00709050B0300D0
:102610000B2306E00A2304E0082302E00C2300E079
:102620000923094A02EBC002526872B61468074DCA
:1026300024F47024146044F0807444EA034345F8A1
:102640002010136062B630BD906300004468002023
:10265000094B03EBC0035B6872B61A6822F08772FD
:1026600022F4803242F080721A60044B002243F858
:10267000202062B6704700BF9063000044680020CD
:10268000114B10B51C68E0041C6004D50F4BDA68D0
:102690000AB1DB689847A10404D50C4B1A690AB14A
:1026A0001B699847A20604D5084B1A6E0AB11B6E27
:1026B0009847E30606D5054BD3F8842012B1D3F82A
:1026C0008430984710BD00BFA090044044680020AB
:1026D0001F4B10B51C68E0031C6004D51D4B1A6825
:1026E0000AB11B689847A10304D51A4B5A680AB16E
:1026F0005B689847E20704D5164B1A6C0AB11B6C4D
:102700009847A30704D5134B5A6C0AB15B6C9847E2
:10271000200704D50F4B9A6C0AB19B6C9847610750
:1027200004D50C4BDA6C0AB1DB6C9847220304D554
:10273000084B5A6E0AB15B6E9847630306D5054B8A
:10274000D3F8802012B1D3F88030984710BD00BF75
:10275000A0A00440446800202C4B10B51C68200742
:102760001C6004D52A4B5A6A0AB15B6A9847E10695
:1027700004D5274B9A6A0AB19B6A9847620604D52A
:10278000234BDA6A0AB1DB6A9847230604D5204B4B
:102790001A6B0AB11B6B9847A00604D51C4B5A6BE9
:1027A0000AB15B6B9847E10704D5194BDA6B0AB1A4
:1027B000DB6B9847A20704D5154B9A6D0AB19B6D48
:1027C0009847630704D5124BDA6D0AB1DB6D984761
:1027D000A00504D50E4BDA6E0AB1DB6E9847E10511
:1027E00004D50B4B1A6F0AB11B6F9847620504D5CD
:1027F000074B5A6F0AB15B6F9847230504D5044B0A
:102800009A6F0AB19B6F984710BD00BFA0B00440FB
:10281000446800201E4B10B51C68E0071C6004D5FE
:102820001C4B9A680AB19B689847210604D5194B3E
:102830005A690AB15B699847E20604D5154B9A6953
:102840000AB19B699847630704D5124BDA690AB14C
:10285000DB699847200704D50E4B1A6A0AB11B6A38
:102860009847A10704D50B4B9A6B0AB19B6B98470D
:10287000A20604D5074B1A6D0AB11B6D9847630673
:1028800004D5044B5A6D0AB15B6D984710BD00BF6B
:10289000A0C0044044680020094B10B51C68A20782
:1028A0001C6004D5074B9A6E0AB19B6E9847E307EC
:1028B00004D5044BDA6F0AB1DB6F984710BD00BF37
:1028C000A0D0044044680020044B054900221A604F
:1028D0000A60044A106010221A60704714D0034046
:1028E00004D0034000D00340212810B518D80D4A69
:1028F00052F8303093F880423CB1012211B183F894
:10290000802010BD83F8002110BD02EBC000436899
:102910001A6811B142F0030201E022F002021A60CB
:1029200010BD00BF90630000212816D80B4A02EBAF
:10293000C00301295B6852F8302004D182F880126C
:102940004FF4A27208E0002082F8800211B94FF41F
:10295000807201E040F203121A6070479063000039
:1029600072B60B4B0B491A680B4B1B68096862B6B1
:10297000490102D5322A88BF0133C2F5BB32FF328A
:102980006021B2FBF1F24FF47A7000FB0320704734
:1029900018E000E004ED00E0CC68002070B50446CB
:1029A000FFF7DEFF05466CB140F2E736FFF7D8FFD0
:1029B000401BB04203D9013C04D005F57A7500F004
:1029C000E7FFF3E770BDFFFF10B5FFF703FE164BFF
:1029D000164A174C00204BF6FF71186059602823E7
:1029E0001360936013619361136293621363936343
:1029F000092222600F4C20606160A360236144F8CB
:102A0000042C0D4C20600D4801600D490B608B605B
:102A10000C4B1A60FFF712FC0420FFF7BFFFBDE864
:102A2000104000F0FBBB00BF048003400C8003405B
:102A3000008003400490034004800B4008800B405A
:102A40000C800B4000800B40F0B50C4B0C4C1A78FE
:102A500042F0020504EBC50682F0010270600948ED
:102A60001A700678002E0CBF8827C82747EA014154
:102A700086F0010644F835100670F0BD3869002074
:102A80000080FF1FB0690020431E032B10B510D833
:102A900072B6094A52F8230048B1416842F823103F
:102AA000064A018832F81340611A22F8131062B600
:102AB00010BD002010BD00BF28690020E06B002081
:102AC000013803280BD872B6064B53F8203000208B
:102AD00001E05B680130002BFBD162B6704700203B
:102AE000704700BF7C69002070B572B6184E194C53
:102AF00001239A1912F8012C02F00802D2B2E2B1B5
:102B00009900144A54F831502DB902EB43130830A0
:102B10005860114B09E041F0010154F8315065B99A
:102B200002EBC103083058600C4B42F831300C4BBB
:102B30001A78013A1A7062B670BD0133052BD8D1EC
:102B400062B6074B00221A70BDE8704000F0D2BB9D
:102B5000C06400000080FF1F88004000C8004000E3
:102B6000A6690020431E032B30B532D84001194A14
:102B700040F01000101872B6174CE25C032A09D816
:102B8000DFE802F0160218050830022213E00830D0
:102B9000042210E01148124A50F8234014B940F8BA
:102BA000231002E052F82300416042F823100FE0A6
:102BB000032200E00522E25410F0080F01F108039F
:102BC0000A8843600CBF8823C82343EA024303609A
:102BD00062B630BD0080FF1FE46800207C690020E1
:102BE0008C6900202DE9F74FA54EA64C357805F0ED
:102BF0000403DBB2ABB1A44B1B7883B1A34A1378B7
:102C000023B1013BDBB2137003B900BEA04A1378B5
:102C10002BB1013BDBB213700BB900F07FFC042336
:102C2000337005F00802D2B2002A00F08082994B7E
:102C30001B781D094FEA930940F0FE8104EBC9039C
:102C4000586854F83930C3F38303013B0C2B00F26E
:102C5000F081DFE813F0A901A901EE01EE01EE0118
:102C6000EE01EE01EE01C501EE01EE01EE010D00F7
:102C70004368894902684B60884B894844F8393079
:102C8000884D0A60002303600120287092B240F250
:102C90008165AA422361A36117D8B2F5D06F80F095
:102CA0002C81B2F5817F00F0DC8006D8802A00F00C
:102CB000C280822A40F03D81C1E040F202339A4254
:102CC00000F00C81B2F5A06F16E042F22105AA4295
:102CD00000F0678108D8B2F5086F00F0A680B2F561
:102CE000106F40F026810AE042F22120824200F07B
:102CF0001C8142F221339A4240F01B811DE18A7807
:102D0000614B604D1A702B6A180603D5686A083843
:102D100000F0F0FA644A08359542F4D1DFF8B0913A
:102D2000DFF8B0B10025A846CA4655F8090005E00D
:102D30004368009300F0DEFA009B18460028F7D1A4
:102D40005A4B4AF8050045F80B00E85807E042687E
:102D50000093019200F0CEFA019A009B10460028E1
:102D6000F5D15851524BE850524B23F81800524BB2
:102D700018F80320023A032A08D8DFE802F0020418
:102D80000204002200E0012203F8082008F10108F3
:102D90000435B8F1040FC8D1484BDFF83C9100224C
:102DA0001A7001259846464B05EB0902EB1812F8FC
:102DB000012C9B001A7002F00802D2B23AB300F064
:102DC0007BFAAB0038B104EB4512083050603D4A45
:102DD00044F8332006E044F8330098F8003001331B
:102DE00088F8003000F068FAAB0043F0010338B116
:102DF00004EBC30208305060284A44F8332006E050
:102E000044F8330098F80030013388F80030AA0005
:102E100042F00201013542F003020023052D44F87F
:102E2000313044F83230BED188E0174B264D1B7844
:102E30002B70034685E0244D2B706B7080E08A88F0
:102E4000042A00D975E0204D2B706B701F4B920047
:102E5000D3181B7803F00203DBB2002B70D028706C
:102E60006EE08A8802F07F03042B62DC4B8803B19A
:102E70005FE09100154A8A18117821F0020156E0AE
:102E8000802007400080FF1FAF69002039690020C3
:102E9000B1690020902007409C690020C8004000D4
:102EA000D0680020B06900208080FF1F7C6900206E
:102EB0008C690020E06B0020E4680020A6690020F7
:102EC00030C8011088004000A7690020C0200740DA
:102ED00028690020D4680020C06400008A8802F0BD
:102EE0007F03042B25DC4B8803B122E09100A14A2B
:102EF0008A18117841F0020119E04A889E4B8988AE
:102F000053F8085CA3F10C009DB133F80CCC944548
:102F100009D133F80ACC8C4505D1120A032A0CBF1B
:102F20002B7803890DE00C33EAE78978934A117016
:102F300004E0904B0F221A7033E000231D4600E09E
:102F400002238F4AB2F806904B4538BF9946B9F133
:102F5000400F34BFC8464FF0400828464146FFF7AF
:102F600073FDB9EB0809454403D1B8F1400F07D010
:102F700017E0B9F1400F34BFC8464FF0400800E0F9
:102F8000C84628464146FFF75FFDB9EB08094544AE
:102F900002D1B8F1400F04D17A4B7B4A1D60A2F8F0
:102FA00000900122794B43E0754B1A8842F22103CD
:102FB0009A4211D1764A0023C15C99540133072B00
:102FC000FAD1734B1B68862B02D1724B0F221A70F9
:102FD00000200146FFF738FD6F4B44F8393028E0F8
:102FE000684BD3F80080B8F1000F18D0DFF8989143
:102FF000B9F800A0BAF1400F34BF5546402540460D
:103000002946FFF721FDC5EB0A039BB2A9F8003062
:103010000BB9402D01D108EB05035A4A1360584BF8
:103020001A88B2F5A06F04D100225A709A785B4BCF
:103030001A700122554B6DE004EBC90803F0080338
:10304000D8F80420013DD9B2A2F10800EDB2002960
:1030500037D000F04FF95248524B50F82510F1B1DB
:103060004A6840F8252001F10802C8F804205A5D9A
:10307000032A0BD8DFE802F002040608032204E06A
:10308000022202E0052200E004225A5518F0080F3F
:103090000A880CBF8823C82343EA024342E05A5DF2
:1030A000032A07D8DFE802F040400204002206E0CD
:1030B000012204E018F0080F0CBF022203225A5527
:1030C00032E054F839301B0C22F8083C23B322F8C4
:1030D000061C42F8041C344A344952F8257017B9CA
:1030E00042F8250002E051F825205060304A41F8AE
:1030F000250032F815105B1822F8153000F0DCF8C6
:1031000018B10830C8F8040006E02A4B44F839002A
:103110001A7801321A7007E01F4B274A18F0080F7F
:1031200008BF134644F83930082333705EE5E907D9
:1031300052D516492048214C02230B70204B1A709F
:10314000204B1860986020481A61D8609A615C60D2
:10315000084B0D2018701D48FF23037000F8083C31
:1031600002741B4A13701B4B9F221A7001230B70B1
:103170004BE000BFC0200740D0640000C0690020C1
:103180009C690020D0680020A4690020942007409A
:10319000E86B002039690020C800400098200740F3
:1031A0007C690020E468002028690020D4680020A1
:1031B000E06B0020A669002088004000E86800203D
:1031C000386900200080FF1F3C69002088200740EC
:1031D0008C200740842007402B0605D50C4B0D2280
:1031E0001A70802203F8402C05F00203DBB22BB1E9
:1031F000084B1A781A70022203F8082C05F0100503
:10320000EDB215B1044B10221A70BDE8FE8F00BF5D
:10321000C0200740882007408020074008B501F003
:1032200013FA00231E491A465A50C8180833882B2F
:103230004260F9D11B4B1A6842F480221A601A4B83
:1032400080221A701978184A0906FBD4144B1749C2
:10325000C3F307200870C3F307401B0E08750B76F5
:10326000FF2301F81C3C01F8143C01F88C3C137856
:1032700043F0400313700021012302F8783C02F868
:103280000C1C02F8883C0A4B70226FF4507C1A70B8
:1032900063444FF400721A60064B10221A7008BD86
:1032A0000080FF1F348004400C2107409C20074011
:1032B00049E400E00821074072B60C4A1168B1FAEF
:1032C00081F30B2B02D962B6002070474FF000400B
:1032D00020FA03F021EA0001116062B60449482295
:1032E0005343C8180022CA504260704788590020D2
:1032F000005600200C4B4822C31AB3FBF2F30B2BF1
:1033000011D80A4A127822B1094A12780AB1FFF795
:10331000EBBB72B6074A4FF0004121FA03F3116884
:103320001943116062B6704700560020A66900205C
:10333000AF6900208859002038B5114C23684BB183
:103340000F4D28684288811801320C7A01888A4220
:1033500012D30CE00B4B1B7813B94FF0FF340CE089
:103360000320FFF791FB20600028E9D1F5E7FFF784
:10337000C1FF00232B6000E04280204638BD00BF23
:10338000BC690020AF69002010B50C4C23681BB14C
:103390000A4B1B686BB902E0094B1B7813B94FF05D
:1033A000FF3010BD0320FFF76FFB20600028EFD136
:1033B000F5E75A889B18187A10BD00BFBC69002039
:1033C000AF690020044B9888044B1B681BB11A8816
:1033D0005B88D31AC0187047E06B0020BC690020DE
:1033E0002DE9F8432D4B2E4DDFF8C08001220C460D
:1033F0001A7006464BE02B682BBBDFF8A0904AF210
:10340000F92798F8003013B9244A137014E0042007
:10341000FFF756FB072808D8012389F80030FFF78B
:103420004BFF286078B989F80000013F1D4B01D09F
:103430001A782AB101221A704FF0FF30BDE8F883E4
:1034400000F0A6FADDE72968164A488800231370C1
:10345000C0F14002944238BF224600F108078018AC
:10346000CF194880A41A02E0F05CF854013393426B
:10347000FAD1F6184B883F2B06D940230B80042045
:10348000FFF770FB00232B60074B05221A70002CFE
:10349000B1D1024B20461C70BDE8F883B269002010
:1034A000B4690020B8690020B1690020AF6900202C
:1034B00007B502AB012103F8010D1846FFF790FF95
:1034C0000EBDFFFFF8B5114B1B78EBB1104E114B41
:1034D0003468114D01271F704CB1638800272F708D
:1034E000042023802146FFF73DFB376009E0FFF70A
:1034F000E3FE014620B104202C70FFF733FB00E00F
:103500002F70044B00221A70F8BD00BFAF69002075
:10351000B4690020B2690020B169002038B50D4BB4
:103520001D78ADB90C4C216831B14B8804200B805B
:10353000FFF718FB256038BDFFF7BEFE014620B13E
:103540000420BDE83840FFF70DBB044B01221A7080
:1035500038BD00BFB2690020B4690020B169002005
:10356000F0B5C02928BFC02172B6124B1860124BAB
:1035700000221A605A609A60DA601A615A61012664
:103580000AE0540902F01F0753F8245006FA07F71F
:103590003D4343F8245001328A42F2D100234FF4D4
:1035A000817203E002FB0304637001338B42F9D1A3
:1035B00062B6F0BDCC690020D469002010B572B6A7
:1035C0001E4B1868A0B9586850B9986850B9D868A7
:1035D00050B9186950B95869143348B962B610BD6A
:1035E000043305E0083303E00C3301E01033FFE758
:1035F000B0FA80F14FF0004222FA01F220EA020014
:1036000018600F4802780132D2B2027062B60B48DD
:103610001B1A9B105B01591A4FF481734B430949E4
:1036200003F5F9531E3309680124CC54C818064B1E
:103630001978914238BF1A7010BD00BFD4690020BC
:10364000D1690020CC690020C8690020417872B699
:103650000378012B02D9013B037011E04A11094B99
:10366000C9434FF0004001F01F0120FA01F153F867
:103670002200084343F82200034B1A78013A1A70DB
:1036800062B67047D4690020D169002030B5C368A4
:103690000EE0187A90420AD158685C7A006950F8B6
:1036A000245025B940F82410087801300870DB68F0
:1036B000002BEED130BD437A99424FF0000305D282
:1036C000026952F8210042F82130704718467047CD
:1036D00038B5437A994201D3002418E0036953F8BE
:1036E0002140002243F82120002CF5D02378012B23
:1036F0000DD9FFF763FF054628B10230A11C4FF436
:10370000807202F02BFB2378013B23702C4620466D
:1037100038BD10B54168427A4B7A9A420ED872B6DB
:103720000268D36813B9D06004E02346DC68002C3B
:10373000FBD1D860012313720B7262B610BDFFFF7C
:10374000074B1A784AB9074AFF211170064A4FF011
:10375000804101201160187070470020704700BF41
:10376000D06900205EE400E008E100E0F8B5164B07
:10377000164D1A6842F080721A60154B1A6842F0B2
:1037800001021A60134B2E681C680FE0237A63B1A4
:1037900021682F680B68204698472A68E388D21B67
:1037A00012099A42A28088BFE2806469002CEDD1A0
:1037B000064B094A1B689B1B1B091380074A11888B
:1037C0008B4288BF1380F8BDFCED00E0041000E0E0
:1037D000001000E0C4690020EC690020D2690020DC
:1037E00030B572B609B9026822B9264A0023118899
:1037F000144611E003790F2BF7D82249098841FAC2
:1038000003F1C907F1D503F1007303F59063B2EB3F
:10381000431FEAD162B630BD41FA03F212F0010251
:1038200027D1012505FA03F52943218062B61649FF
:1038300003710C6844F002040C6051F8044C44F02D
:10384000020441F8044C114982240C608B768B777A
:103850000B76CB7703F1007303F590635B01036094
:103860001A605A609A60DA601A615A619A61DA6184
:1038700030BD0133102BCFD162B60022026003713C
:1038800030BD00BFEE690020408004400080004051
:1038900003790F2B10D8094A137072B6084B0279BE
:1038A000012101FA02F2198821EA02021A8062B6A5
:1038B0001023037100230360704700BF1A8000408B
:1038C000EE69002008B5FCF7EFFEFCF755FF00F0AD
:1038D0005FF8FAE7F8B506460C468F18002506E0B3
:1038E000336814F8011B1B68304698472D18BC42FA
:1038F000F6D12846F8BD08461146FFF771BD0846C7
:10390000FFF7D6BDFFF7DEBDFFF73EBDFFF714BDE5
:10391000FFF758BD7047FFFF044B00221A711A735E
:10392000034A4FF47A7199601A607047F069002079
:10393000A86400000C4B0D4A1B680D48002B08BF03
:10394000134693FBF0F200FB12330A48424344F261
:10395000A71000FB03200028B8BF00F10040024B75
:10396000B8BF013818607047006A002024D95B078F
:103970001DF30100ECF4FFFF10B5044630B1FFF772
:10398000D9FFB0FBF4F303FB140010BD10BDFFFF23
:1039900008B50E4B1A78C2B901221A70FFF712FD52
:1039A00008B1FFF7B7FF00F08BF908B100F0E6FEB1
:1039B00000F0C4FB08B100F053FF00F0A9FD08B10E
:1039C00000F0C0FF014B00221A7008BD046A0020FD
:1039D000194B1A6842F480621A60184A0023137067
:1039E000174A1370174A1370174A1370174A137047
:1039F000174B40F213321A604FF451725A60154B54
:103A0000C0F344321A70C0F347125A7002210422E4
:103A100000F01F0098729A70D9745A7588221A742F
:103A20003C22DA700C4B40226FF44A711A705B181A
:103A30004FF400521A60704734800440876A0020B7
:103A4000066A0020906A0020886A0020056A00202B
:103A500040A0044000A006402DE400E0134A937803
:103A600000F0030103F0EC030B43410748BF43F0B0
:103A70001003937000F00F03042B0C4903D18B79D2
:103A800043F040038B715379C20603F0EF03074AFA
:103A900048BF43F0100353719379800603F0EF039E
:103AA00048BF43F010039371704700BF00A0064069
:103AB0000E4B1B68580510B503D410BDFFF768FF07
:103AC00000E00B4C2378002BF8D10A4A4FF4005148
:103AD0001160094A0949D37040F203120A604A6032
:103AE000074A1370074A137010BD00BF34800440AA
:103AF000056A002084E100E000A0064040A00440E8
:103B0000876A0020066A002038B5094B04461D78F4
:103B1000002DFCD120460121FEF706FF2046294654
:103B2000FEF7E2FE034B53F83420034B1A6038BD16
:103B3000056A0020906300008C6A00201D4B1B6802
:103B40005A052DE9F041074631D51B4B1B680BB1D7
:103B500001221A70194B1A4D1C781A4EDFF8688032
:103B600001343F2C88BF002414E0FEF7EFFC40280E
:103B70000CDC33791B060DD52B7801333F2B88BF26
:103B8000002318F80320F2712B7003E0FF2801DDF9
:103B9000FFF7FEFE2B78A342E7D00B4B1F550B4BD4
:103BA00001221A70054B1C70064BBC22DA70BDE86E
:103BB000F08100BF348004408C6A0020906A0020AD
:103BC000886A002000A00640076A0020056A0020DD
:103BD0002DE9F84F254B1B6806465805894642D506
:103BE000234B1B680BB101221A70224DB346AA4623
:103BF00032E0214B1C782F7801343F2C88BF002401
:103C0000A74209D01BF8012B1C4B1A551C4B012253
:103C10001A70194B1C701FE01A4BBC22DA709846C0
:103C2000FEF794FC40280FDC98F8043019060FD5F5
:103C30002B78124A01333F2B88BF0023D25C88F8CF
:103C400007208AF8003003E0FF2801DDFFF7A0FE1F
:103C50002B78BB42E4D0D5E706EB09039B45C8D3DC
:103C6000084BBC22DA70BDE8F88F00BF34800440F6
:103C70008C6A0020886A0020906A0020076A002071
:103C8000056A002000A0064010B5044C01E0FFF7D3
:103C90007FFE2378002BFAD110BD00BF056A0020FB
:103CA000054B064A1B781078834201D33F3000E071
:103CB0000138C01A704700BF906A0020886A00204F
:103CC000044B1878044B1B78984238BF4030C01A18
:103CD000704700BF876A0020066A0020084B094A27
:103CE00019781378994207D001333F2B88BF0023FE
:103CF0000549C85C137070474FF0FF30704700BF34
:103D0000876A0020066A0020476A0020074B1A785D
:103D1000074B1B789A4206D001333F2B88BF002304
:103D2000044AD05C70474FF0FF307047876A00202C
:103D3000066A0020476A0020094B1B685B050ED508
:103D4000084BDA7802F0CB02DA7040225A74DA7843
:103D500042F03402DA70044B1A78044B1A70704740
:103D60003480044000A00640066A0020876A0020D4
:103D700070B52D4B1A7912F0300F1DD072B6997DA7
:103D800021B9DA7940225A7462B615E062B6274A40
:103D900027481278274D00781C46531C3F2B88BFBC
:103DA0000023E67983421CBFEE541A46013911F014
:103DB000FF01F2D11D4B1A701B4AD37819465BB232
:103DC000002B1BDA1379180618D51B4B1B4C1D78DA
:103DD0001B4B1B78AB4209D001333F2B88BF00231C
:103DE0001079E05CD071107D0728F3D9144A137064
:103DF0000D4B1A79120601D57C22DA7001F04003CE
:103E0000DBB27BB1084B1A7902F04002D2B21946FC
:103E100042B10C4B00221A700B4B1B6803B11A7095
:103E20003C23CB7070BD00BF00A00640876A002015
:103E3000066A0020476A0020906A0020076A002076
:103E4000886A0020056A00208C6A0020184B1A68D6
:103E500042F400621A60174A00231370164A137066
:103E6000164A1370164A1370164A1370164B40F216
:103E700013321A604FF451725A60144BC0F344323B
:103E80001A70C0F347125A7000F01F00042202217A
:103E900098729A70D9745A7588221A743C22DA7012
:103EA0000B4B40221A700B4B4FF400421A607047C4
:103EB00034800440FB6A0020926A0020046B0020DA
:103EC000FC6A0020916A00200CB0044000B006405B
:103ED0002FE400E004E100E0134A937800F00301CE
:103EE00003F0EC030B43410748BF43F0100393700A
:103EF00000F00F03042B0C4903D18B7943F04003EE
:103F00008B715379C20603F0EF03074A48BF43F0B1
:103F1000100353719379810603F0EF0348BF43F018
:103F200010039371704700BF00B006400E4B1B6832
:103F3000180510B503D410BDFFF72AFD00E00B4CA7
:103F40002378002BF8D10A4A4FF400411160094A46
:103F50000949D37040F203120A604A60074A13709D
:103F6000074A137010BD00BF34800440916A0020DE
:103F700084E100E000B006400CB00440FB6A002081
:103F8000926A002038B5094B04461D78002DFCD1FB
:103F900020460121FEF7C8FC20462946FEF7A4FC76
:103FA000034B53F83420034B1A6038BD916A00204C
:103FB00090630000006B00201D4B1B681A052DE963
:103FC000F041074631D51B4B1B680BB101221A701B
:103FD000194B1A4D1C781A4EDFF868800134272CD3
:103FE00088BF002414E0FEF7B1FA40280CDC3379D6
:103FF0001B060DD52B780133272B88BF002318F81B
:104000000320F2712B7003E0FF2801DDFFF7C0FCF5
:104010002B78A342E7D00B4B1F550B4B01221A7094
:10402000054B1C70064BBC22DA70BDE8F08100BF66
:1040300034800440006B0020046B0020FC6A0020E8
:1040400000B00640936A0020916A00202DE9F84FE5
:10405000254B1B6806461805894642D5234B1B682D
:104060000BB101221A70224DB346AA4632E0214B11
:104070001C782F780134272C88BF0024A74209D050
:104080001BF8012B1C4B1A551C4B01221A70194BA3
:104090001C701FE01A4BBC22DA709846FEF756FAE5
:1040A00040280FDC98F8043019060FD52B78124AF7
:1040B0000133272B88BF0023D25C88F807208AF8B9
:1040C000003003E0FF2801DDFFF762FC2B78BB42E4
:1040D000E4D0D5E706EB09039B45C8D3084BBC22C7
:1040E000DA70BDE8F88F00BF34800440006B002018
:1040F000FC6A0020046B0020936A0020916A002073
:1041000000B0064010B5044C01E0FFF741FC2378F5
:10411000002BFAD110BD00BF916A0020054B064A62
:104120001B781078834201D3273000E00138C01A91
:10413000704700BF046B0020FC6A0020044B187815
:10414000044B1B78984238BF4030C01A704700BFFC
:10415000FB6A0020926A0020084B094A19781378FC
:10416000994207D001333F2B88BF00230549C85C23
:10417000137070474FF0FF30704700BFFB6A00209C
:10418000926A0020BB6A0020074B1A78074B1B7805
:104190009A4206D001333F2B88BF0023044AD05CEB
:1041A00070474FF0FF307047FB6A0020926A002092
:1041B000BB6A0020094B1B681B050ED5084BDA783B
:1041C00002F0CB02DA7040225A74DA7842F03402FC
:1041D000DA70044B1A78044B1A707047348004402C
:1041E00000B00640926A0020FB6A002070B52D4B9B
:1041F0001A7912F0300F1DD072B6997D21B9DA7993
:1042000040225A7462B615E062B6274A27481278EF
:10421000274D00781C46531C3F2B88BF0023E679AE
:1042200083421CBFEE541A46013911F0FF01F2D14E
:104230001D4B1A701B4AD37819465BB2002B1BDA50
:104240001379180618D51B4B1B4C1D781B4B1B787C
:10425000AB4209D00133272B88BF00231079E05CE3
:10426000D071107D0728F3D9144A13700D4B1A79B9
:10427000120601D57C22DA7001F04003DBB27BB17B
:10428000084B1A7902F04002D2B2194642B10C4BE7
:1042900000221A700B4B1B6803B11A703C23CB70C1
:1042A00070BD00BF00B00640FB6A0020926A00208B
:1042B000BB6A0020046B0020936A0020FC6A002087
:1042C000916A0020006B0020174B1A6842F480525C
:1042D0001A60164A00231370154A1370154A13709A
:1042E000154A1370154A1370154A40F213311160C4
:1042F0004FF451715160134AC0F344311170C0F34F
:10430000471100F01F0051709072937013742C23AA
:10431000D3700D4B40226FF44B711A705B184FF441
:1043200000321A60704700BF348004406F6B002079
:10433000066B0020786B0020706B0020056B00205E
:1043400008C0044000C0064031E400E0134A9378FE
:1043500000F0030103F0EC030B43410748BF43F0B7
:104360001003937000F00F03042B0C4903D18B79D9
:1043700043F040038B715379C20603F0EF03074A01
:1043800048BF43F0100353719379800603F0EF03A5
:1043900048BF43F010039371704700BF00C0064050
:1043A0000E4B1B68D80410B503D410BDFFF7F0FA0C
:1043B00000E00B4C2378002BF8D10A4A4FF400316F
:1043C0001160094A0949D37040F203120A604A6039
:1043D000074A1370074A137010BD00BF34800440B1
:1043E000056B002084E100E000C0064008C00440E6
:1043F0006F6B0020066B002038B5094B04461D7812
:10440000002DFCD120460121FEF78EFA20462946D8
:10441000FEF76AFA034B53F83420034B1A6038BD99
:10442000056B002090630000746B00201D4B1B681F
:10443000DA042DE9F041074631D51B4B1B680BB15F
:1044400001221A70194B1A4D1C781A4EDFF8688039
:104450000134272C88BF002414E0FEF777F84028A9
:104460000CDC33791B060DD52B780133272B88BF45
:10447000002318F80320F2712B7003E0FF2801DD00
:10448000FFF786FA2B78A342E7D00B4B1F550B4B57
:1044900001221A70054B1C70064BAC22DA70BDE885
:1044A000F08100BF34800440746B0020786B0020E2
:1044B000706B002000C00640076B0020056B0020D9
:1044C00038B54518044603E014F8010BFFF7AEFFBA
:1044D000AC42F9D138BDFFFF10B5044C01E0FFF745
:1044E00057FA2378002BFAD110BD00BF056B0020CE
:1044F000054B064A1B781078834201D3273000E031
:104500000138C01A704700BF786B0020706B002024
:10451000044B1878044B1B78984238BF4030C01ABF
:10452000704700BF6F6B0020066B0020084B094AE4
:1045300019781378994207D001333F2B88BF0023A5
:104540000549C85C137070474FF0FF30704700BFDB
:104550006F6B0020066B00202F6B0020074B1A7832
:10456000074B1B789A4206D001333F2B88BF0023AC
:10457000044AD05C70474FF0FF3070476F6B0020EB
:10458000066B00202F6B0020024B1A78024B1A702A
:10459000704700BF066B00206F6B002010B5214BE9
:1045A0001A7902F02002D2B26AB11F4AD8791F49A3
:1045B0001378097801333F2B88BF00238B4202D048
:1045C0001B49C8541370174AD37818465BB2002BA6
:1045D00013DA1379190610D5164B17491C780B7886
:1045E0009C4202D16C23D37007E00133272B88BF94
:1045F0000023124CE45CD4710B7000F04003DBB27A
:104600007BB1084B1A7902F04002D2B2194642B18E
:104610000B4B00221A700B4B1B6803B11A702C2332
:10462000CB7010BD00C006406F6B0020066B0020F1
:104630002F6B0020786B0020706B0020076B002030
:10464000056B0020746B00201FB572B6154B7022ED
:104650001A70154A412111700F2102F8011C8022A5
:104660001A701A781206FCD5104B186862B6104BF7
:10467000984201D80A23584301A90A22FDF78CFF6A
:104680000C48002301AA9A5C2AB100EB43010133D4
:104690000A2B4A80F6D10133064A5B00137005B03D
:1046A00000BD00BF000002400700024008000240B9
:1046B0007F969800145A002008B50368C9B21B6899
:1046C000984708BD08B50368C9B21B68984708BD7C
:1046D00008B50368C9B21B68984708BD08B50368E8
:1046E000C9B21B68984708BD084608B5FFF726FA07
:1046F000012008BD084608B5FFF720FA012008BDD3
:1047000038B508460D46FDF73FFF044621462846CA
:10471000FFF75EFA204638BD10B50846144611462C
:10472000FFF756FA204610BDFFF7BABAFFF704BBF1
:10473000FFF7AABAFFF7D2BAFFF7E8BAFFF7C0BA95
:104740000846FFF7E1B9FFF7B3B9480800F1376051
:1047500000F5D830B0FBF1F0FFF73AB9480800F1A6
:10476000376010B500F5D830B0FBF1F01446FFF714
:104770002FF92046BDE81040FFF770B97047FFFFE2
:10478000044B00221A711A73034A4FF47A7199602C
:104790001A6070477C6B00202065000008B5036834
:1047A000C9B21B68984708BD08B50368C9B21B6841
:1047B000984708BD08B50368C9B21B68984708BD8B
:1047C00008B50368C9B21B68984708BD084608B514
:1047D000FFF7F2FB012008BD084608B5FFF7ECFB28
:1047E000012008BD38B508460D46FDF7CDFE04464C
:1047F00021462846FFF72AFC204638BD10B508465A
:1048000014461146FFF722FC204610BDFFF786BC78
:10481000FFF7D0BCFFF776BCFFF79EBCFFF7B4BC38
:10482000FFF78CBC0846FFF7ADBBFFF77FBB48081E
:1048300000F1376000F5D830B0FBF1F0FFF706BBB0
:10484000480800F1376010B500F5D830B0FBF1F042
:104850001446FFF7FBFA2046BDE81040FFF73CBBCB
:104860007047FFFF044B00221A711A73034A4FF47A
:104870007A7199601A6070478C6B00207065000037
:1048800008B50368C9B21B68984708BD08B5036836
:10489000C9B21B68984708BD08B50368C9B21B6850
:1048A000984708BD08B50368C9B21B68984708BD9A
:1048B000084608B5FFF7BAFD012008BD084608B54F
:1048C000FFF7B4FD012008BD38B508460D46FDF7D9
:1048D0005BFE044621462846FFF7F2FD204638BD20
:1048E00010B5084614461146FFF7EAFD204610BDF4
:1048F000FFF7FEBDFFF748BEFFF7EEBDFFF716BEA0
:10490000FFF72CBEFFF704BE0846FFF775BDFFF7A3
:1049100047BD480800F1B76000F55840B0FBF1F022
:10492000FFF7D2BC480800F1B76010B500F5584059
:10493000B0FBF1F01446FFF7C7FC2046BDE810407D
:10494000FFF704BD7047FFFF044B00221A711A7372
:10495000034A4FF47A7199601A6070479C6B00208B
:10496000C065000081F0004102E000BF83F0004319
:1049700030B54FEA41044FEA430594EA050F08BFFA
:1049800090EA020F1FBF54EA000C55EA020C7FEABE
:10499000645C7FEA655C00F0E2804FEA5454D4EB3B
:1049A0005555B8BF6D420CDD2C4480EA020281EA05
:1049B000030382EA000083EA010180EA020281EA3D
:1049C0000303362D88BF30BD11F0004F4FEA01318F
:1049D0004FF4801C4CEA113102D0404261EB41019E
:1049E00013F0004F4FEA03334CEA133302D0524224
:1049F00063EB430394EA050F00F0A780A4F10104E0
:104A0000D5F1200E0DDB02FA0EFC22FA05F2801819
:104A100041F1000103FA0EF2801843FA05F35941FF
:104A20000EE0A5F120050EF1200E012A03FA0EFC7E
:104A300028BF4CF0020C43FA05F3C01851EBE371A8
:104A400001F0004507D54FF0000EDCF1000C7EEBC5
:104A500000006EEB0101B1F5801F1BD3B1F5001F03
:104A60000CD349085FEA30004FEA3C0C04F1010422
:104A70004FEA445212F5800F80F09A80BCF1004F4B
:104A800008BF5FEA500C50F1000041EB045141EACD
:104A9000050130BD5FEA4C0C404141EB010111F4CE
:104AA000801FA4F10104E9D191F0000F04BF014679
:104AB0000020B1FA81F308BF2033A3F10B03B3F157
:104AC00020020CDA0C3208DD02F1140CC2F10C02E7
:104AD00001FA0CF021FA02F10CE002F11402D8BF45
:104AE000C2F1200C01FA02F120FA0CFCDCBF41EA11
:104AF0000C019040E41AA2BF01EB0451294330BDE0
:104B00006FEA04041F3C1CDA0C340EDC04F11404BC
:104B1000C4F1200220FA04F001FA02F340EA030093
:104B200021FA04F345EA030130BDC4F10C04C4F1D9
:104B3000200220FA02F001FA04F340EA03002946B9
:104B400030BD21FA04F0294630BD94F0000F83F403
:104B5000801306BF81F480110134013D4EE77FEAE6
:104B6000645C18BF7FEA655C29D094EA050F08BF32
:104B700090EA020F05D054EA000C04BF1946104613
:104B800030BD91EA030F1EBF0021002030BD5FEA57
:104B9000545C05D14000494128BF41F0004130BD7F
:104BA00014F580043CBF01F5801130BD01F00045D3
:104BB00045F0FE4141F470014FF0000030BD7FEA46
:104BC000645C1ABF194610467FEA655C1CBF0B4641
:104BD000024650EA013406BF52EA033591EA030F58
:104BE00041F4002130BD00BF90F0000F04BF002150
:104BF000704730B54FF4806404F132044FF0000583
:104C00004FF0000150E700BF90F0000F04BF0021FB
:104C1000704730B54FF4806404F1320410F0004561
:104C200048BF40424FF000013EE700BF42004FEA5C
:104C3000E2014FEA31014FEA02701FBF12F07F43D9
:104C400093F07F4F81F06051704792F0000F14BFD6
:104C500093F07F4F704730B54FF4607401F000451A
:104C600021F0004120E700BF50EA010208BF704771
:104C700030B54FF000050AE050EA010208BF704766
:104C800030B511F0004502D5404261EB41014FF4CF
:104C9000806404F132045FEA915C3FF4DCAE4FF0D3
:104CA00003025FEADC0C18BF03325FEADC0C18BFBA
:104CB000033202EBDC02C2F1200300FA03FC20FA0B
:104CC00002F001FA03FE40EA0E0021FA02F1144458
:104CD000C1E600BF70B54FF0FF0C4CF4E06C1CEA6D
:104CE00011541DBF1CEA135594EA0C0F95EA0C0FE2
:104CF00000F0DEF82C4481EA030621EA4C5123EA55
:104D00004C5350EA013518BF52EA033541F4801183
:104D100043F4801338D0A0FB02CE4FF00005E1FB36
:104D200002E506F00042E0FB03E54FF00006E1FB80
:104D300003569CF0000F18BF4EF0010EA4F1FF04C3
:104D4000B6F5007F64F5407404D25FEA4E0E6D4103
:104D500046EB060642EAC62141EA55514FEAC52014
:104D600040EA5E504FEACE2EB4F1FD0C88BFBCF590
:104D7000E06F1ED8BEF1004F08BF5FEA500E50F141
:104D8000000041EB045170BD06F0004646EA010107
:104D900040EA020081EA0301B4EB5C04C2BFD4EB39
:104DA0000C0541EA045170BD41F480114FF0000E32
:104DB000013C00F3AB8014F1360FDEBF002001F0A0
:104DC000004170BDC4F10004203C35DA0C341BDC1A
:104DD00004F11404C4F1200500FA05F320FA04F0EC
:104DE00001FA05F240EA020001F0004221F0004120
:104DF00010EBD37021FA04F642EB06015EEA430E93
:104E000008BF20EAD37070BDC4F10C04C4F12005C2
:104E100000FA04F320FA05F001FA04F240EA020075
:104E200001F0004110EBD37041F100015EEA430E46
:104E300008BF20EAD37070BDC4F1200500FA05F266
:104E40004EEA020E20FA04F301FA05F243EA0203E5
:104E500021FA04F001F0004121FA04F220EA0200F4
:104E600000EBD3705EEA430E08BF20EAD37070BD3A
:104E700094F0000F0FD101F00046400041EB01011A
:104E800011F4801F08BF013CF7D041EA060195F0FC
:104E9000000F18BF704703F00046520043EB0303B6
:104EA00013F4801F08BF013DF7D043EA06037047A3
:104EB00094EA0C0F0CEA135518BF95EA0C0F0CD0AE
:104EC00050EA410618BF52EA4306D1D181EA0301F4
:104ED00001F000414FF0000070BD50EA410606BFEE
:104EE0001046194652EA430619D094EA0C0F02D133
:104EF00050EA013613D195EA0C0F05D152EA033678
:104F00001CBF104619460AD181EA030101F0004195
:104F100041F0FE4141F470014FF0000070BD41F0DE
:104F2000FE4141F4780170BD70B54FF0FF0C4CF4B8
:104F3000E06C1CEA11541DBF1CEA135594EA0C0FD7
:104F400095EA0C0F00F0A7F8A4EB050481EA030E24
:104F500052EA03354FEA013100F088804FEA03330B
:104F60004FF0805545EA131343EA12634FEA0222D9
:104F700045EA111545EA10654FEA00260EF000419A
:104F80009D4208BF964244F1FD0404F5407402D2EC
:104F90005B084FEA3202B61A65EB03055B084FEA7D
:104FA00032024FF480104FF4002CB6EB020E75EB7A
:104FB000030E22BFB61A754640EA0C005B084FEAA2
:104FC0003202B6EB020E75EB030E22BFB61A75461F
:104FD00040EA5C005B084FEA3202B6EB020E75EB6A
:104FE000030E22BFB61A754640EA9C005B084FEAE2
:104FF0003202B6EB020E75EB030E22BFB61A7546EF
:1050000040EADC0055EA060E18D04FEA051545EADD
:1050100016754FEA06164FEAC30343EA52734FEA86
:10502000C2025FEA1C1CC0D111F4801F0BD141EAFF
:1050300000014FF000004FF0004CB6E711F4801F64
:1050400004BF01430020B4F1FD0C88BFBCF5E06F44
:105050003FF6AFAEB5EB030C04BFB6EB020C5FEA54
:10506000500C50F1000041EB045170BD0EF0004EA9
:105070004EEA113114EB5C04C2BFD4EB0C0541EADB
:10508000045170BD41F480114FF0000E013C90E6D8
:1050900045EA060E8DE60CEA135594EA0C0F08BF9C
:1050A00095EA0C0F3FF43BAF94EA0C0F0AD150EA9B
:1050B00001347FF434AF95EA0C0F7FF425AF10462E
:1050C00019462CE795EA0C0F06D152EA03353FF456
:1050D000FDAE1046194622E750EA410618BF52EAD3
:1050E00043067FF4C5AE50EA41047FF40DAF52EAA7
:1050F00043057FF4EBAE12E74A0011D212F500121D
:1051000011D20DD56FF47873B3EB62520ED44FEA1F
:10511000C12343F0004343EA505323FA02F070479F
:105120004FF00000704750EA013002D14FF0FF30DD
:1051300070474FF00000704780F0004002E000BF71
:1051400081F0004142001FBF5FEA410392EA030F72
:105150007FEA226C7FEA236C6AD04FEA1262D2EBBC
:105160001363C1BFD218414048404140B8BF5B42C1
:10517000192B88BF704710F0004F40F4000020F05A
:105180007F4018BF404211F0004F41F4000121F070
:105190007F4118BF494292EA030F3FD0A2F10102BA
:1051A00041FA03FC10EB0C00C3F1200301FA03F1F8
:1051B00000F0004302D5494260EB4000B0F5000F1B
:1051C00013D3B0F1807F06D340084FEA310102F1DA
:1051D0000102FE2A51D2B1F1004F40EBC25008BF8C
:1051E00020F0010040EA03007047490040EB000056
:1051F00010F4000FA2F10102EDD1B0FA80FCACF185
:10520000080CB2EB0C0200FA0CF0AABF00EBC25083
:1052100052421843BCBFD0401843704792F0000F71
:1052200081F4000106BF80F400000132013BB5E7C4
:105230004FEA41037FEA226C18BF7FEA236C21D03A
:1052400092EA030F04D092F0000F08BF084670479F
:1052500090EA010F1CBF0020704712F07F4F04D16D
:10526000400028BF40F00040704712F100723CBF80
:1052700000F50000704700F0004343F0FE4040F4AA
:10528000000070477FEA226216BF08467FEA236368
:105290000146420206BF5FEA412390EA010F40F453
:1052A000800070474FF0000304E000BF10F000439F
:1052B00048BF40425FEA000C08BF704743F0964386
:1052C00001464FF000001CE050EA010208BF7047A1
:1052D0004FF000030AE000BF50EA010208BF704728
:1052E00011F0004302D5404261EB41015FEA010C3D
:1052F00002BF84460146002043F0B64308BFA3F135
:105300008053A3F50003BCFA8CF2083AA3EBC25316
:1053100010DB01FA02FC634400FA02FCC2F1200235
:10532000BCF1004F20FA02F243EB020008BF20F06C
:105330000100704702F1200201FA02FCC2F12002D2
:1053400050EA4C0021FA02F243EB020008BF20EAC7
:10535000DC7070474FF0FF0C1CEAD0521EBF1CEAF5
:10536000D15392EA0C0F93EA0C0F6FD01A4480EAE3
:10537000010C400218BF5FEA41211ED04FF00063CC
:1053800043EA501043EA5111A0FB01310CF00040F8
:10539000B1F5000F3EBF490041EAD3715B0040EA1E
:1053A000010062F17F02FD2A1DD8B3F1004F40EBEE
:1053B000C25008BF20F00100704790F0000F0CF0C1
:1053C000004C08BF49024CEA502040EA51207F3A85
:1053D000C2BFD2F1FF0340EAC250704740F4000060
:1053E0004FF00003013A5DDC12F1190FDCBF00F051
:1053F00000407047C2F10002410021FA02F1C2F1FF
:10540000200200FA02FC5FEA310040F1000053EA9A
:105410004C0308BF20EADC70704792F0000F00F0E8
:10542000004C02BF400010F4000F013AF9D040EAEE
:105430000C0093F0000F01F0004C02BF490011F482
:10544000000F013BF9D041EA0C018FE70CEAD15380
:1054500092EA0C0F18BF93EA0C0F0AD030F0004C00
:1054600018BF31F0004CD8D180EA010000F00040B4
:10547000704790F0000F17BF90F0004F084691F072
:10548000000F91F0004F14D092EA0C0F01D14202AC
:105490000FD193EA0C0F03D14B0218BF084608D175
:1054A00080EA010000F0004040F0FE4040F40000BF
:1054B000704740F0FE4040F4400070474FF0FF0C52
:1054C0001CEAD0521EBF1CEAD15392EA0C0F93EA99
:1054D0000C0F69D0A2EB030280EA010C49024FEAEB
:1054E000402037D04FF0805343EA111143EA1013A4
:1054F0000CF000408B4238BF5B0042F17D024FF45C
:10550000000C8B4224BF5B1A40EA0C00B3EB510F36
:1055100024BFA3EB510340EA5C00B3EB910F24BF1F
:10552000A3EB910340EA9C00B3EBD10F24BFA3EBA4
:10553000D10340EADC001B0118BF5FEA1C1CE0D16C
:10554000FD2A3FF650AF8B4240EBC25008BF20F01F
:10555000010070470CF0004C4CEA50207F32C2BF73
:10556000D2F1FF0340EAC250704740F400004FF010
:105570000003013A37E792F0000F00F0004C02BF41
:10558000400010F4000F013AF9D040EA0C0093F00B
:10559000000F01F0004C02BF490011F4000F013B65
:1055A000F9D041EA0C0195E70CEAD15392EA0C0FCD
:1055B00008D142027FF47DAF93EA0C0F7FF470AF05
:1055C000084676E793EA0C0F04D14B023FF44CAF48
:1055D00008466EE730F0004C18BF31F0004CCAD1DD
:1055E00030F000427FF45CAF31F000437FF43CAF19
:1055F0005FE700BF4FF0FF3C06E000BF4FF0010C3B
:1056000002E000BF4FF0010C4DF804CD4FEA40021C
:105610004FEA41037FEA226C18BF7FEA236C11D066
:1056200001B052EA530C18BF90EA010F58BFB2EB19
:10563000030088BFC81738BF6FEAE17018BF40F099
:10564000010070477FEA226C02D15FEA402C05D14D
:105650007FEA236CE4D15FEA412CE1D05DF8040BD2
:10566000704700BF844608466146FFE70FB5FFF765
:10567000C9FF002848BF10F1000F0FBD4DF808ED1D
:10568000FFF7F4FF0CBF012000205DF808FB00BF0E
:105690004DF808EDFFF7EAFF34BF012000205DF868
:1056A00008FB00BF4DF808EDFFF7E0FF94BF0120B5
:1056B00000205DF808FB00BF4DF808EDFFF7D2FFB2
:1056C00094BF012000205DF808FB00BF4DF808EDF5
:1056D000FFF7C8FF34BF012000205DF808FB00BFC2
:1056E0004FEA4002B2F1FE4F0FD34FF09E03B3EBEF
:1056F00012620DD94FEA002343F0004310F0004F2F
:1057000023FA02F018BF404270474FF00000704784
:1057100012F1610F01D1420205D110F0004008BF23
:105720006FF0004070474FF0000070470346084696
:10573000194600F001B800BF30B405460C461346C8
:1057400002202946224630BC00F040BC70B546F22B
:105750007C6646F27C65C0F20006C0F20005761B4E
:10576000B61007D0043D002455F8043F0134984793
:10577000A642F9D146F2B46646F27C65C0F2000654
:10578000C0F20005761B00F073FFB61008D0043D90
:10579000002455F8043F01349847A642F9D170BD62
:1057A00070BD00BF45F62C230146C2F20003186805
:1057B00000F008B845F62C230146C2F20003186831
:1057C00000F0C6BC2DE9F04F01F10B04162C83B09C
:1057D000074630D924F00704E30F8C422CBF19464A
:1057E00043F0010100292FD1384600F0D7FBB4F572
:1057F000FC7F2ED24FEAD40C45F62036C2F20006CA
:1058000006EBCC02D368934200F01182596803F191
:105810000808DA68384621F0030499681B195C68A7
:10582000CA6044F0010491605C6000F0B9FB40463E
:1058300003B0BDE8F08F002310248C422CBF194622
:1058400043F001010029CFD00C234FF000083B604A
:10585000EDE75FEA542C04BF4FEAD40C4FEA4C0545
:1058600040F08F8045F62036C2F2000606EB850533
:10587000EB689D4206D10DE0002A80F25581DB687D
:105880009D4207D0596821F003010A1B0F2AF3DD5E
:105890000CF1FF3C0CF1010C45F620323369C2F2E9
:1058A000000202F1080E734508BFD2F8049022D01E
:1058B000586820F00300011B0F2900F384810029A0
:1058C000C2F814E0C2F810E066DAB0F5007F80F0AC
:1058D0004E81C1084FF0010802EBC100891008FA9F
:1058E00001F851688568D86048EA0109C2F8049057
:1058F0009D60EB60836001224FEAAC0302FA03F380
:105900004B4554D819EA030F0DD193402CF0030CEA
:1059100019EA030F0CF1040C05D15B000CF1040C27
:1059200019EA030FF9D006EBCC09E0464846C268F5
:10593000904207D15BE1002980F28381D2689042D6
:1059400000F05581556825F00305291B0F29F2DD6C
:1059500090461319D56844F0010058F8084F41F0FB
:10596000010C50603846C3F804C0E560AC60736158
:105970003361C3F80CE0C3F808E0595000F010FBA5
:1059800055E7BCF1040F00F2DE804FEA941C0CF1E5
:10599000380C4FEA4C0565E71A1803F10808384639
:1059A000536843F00103536000F0FAFA3FE7B5682B
:1059B0006B6823F0030A544504D8C4EB0A030F2B89
:1059C00000F3A48046F6AC39D6F80814C2F20009F8
:1059D00005EB0A020131D9F80030234408BF03F176
:1059E000100B06D003F580530F3323F47F6323F0AD
:1059F0000F0B38465946019200F0D4FA019A411C27
:105A0000804600F06881824200F23181D9F804308A
:105A100042455B44C9F8043000F06681D6F80814AA
:105A200045F62030C2F20000013117BFC2EB080278
:105A3000C0F808849B18C9F8043018F007033846EA
:105A40001FBFC3F10802C3F58053904403F108025D
:105A500008EB0B0308BF4FF480521B051B0DC3EB73
:105A6000020B594600F09EFA431C00F04981C8EB36
:105A70000001594441F00101D9F80430B54246F61D
:105A8000AC32C6F808805B44C2F20002C8F80410C9
:105A9000C9F8043018D0BAF10F0F40F20B81AAF107
:105AA0000C00696820F007004FF0050C05EB000EB4
:105AB0000F2801F0010140EA01016960CEF804C03D
:105AC000CEF808C000F2208146F6AC32D9F82C108E
:105AD000C2F20002B5688B42D9F8301088BFD36299
