:1000000000800020BD01000009350000C13400005F
:10001000C1340000C1340000C1340000C13400000C
:10002000C1340000C1340000C134000009350000B3
:1000300009350000C134000009350000B13400006A
:1000400009350000093500000935000009350000B8
:1000500009350000093500000935000009350000A8
:100060000935000009350000093500000935000098
:100070000935000009350000093500000935000088
:100080000935000009350000093500000935000078
:100090000935000009350000093500000935000068
:1000A000A52F0000B12F0000093500000935000020
:1000B0000935000009350000093500000935000048
:1000C0000935000009350000093500000935000038
:1000D0000935000009350000093500000935000028
:1000E0000935000009350000093500000935000018
:1000F00009350000D554000009350000195C0000E6
:10010000093500008961000009350000093500004B
:1001100009350000093500000935000009350000E7
:1001200009350000093500000935000009350000D7
:1001300009350000093500000935000009350000C7
:1001400009350000093500000935000009350000B7
:1001500009350000093500000935000009350000A7
:1001600009350000F13C00000935000009350000A8
:100170000935000009350000093500000935000087
:100180000935000009350000093500000935000077
:100190000935000009350000093500000935000067
:1001A0000935000009350000093500000935000057
:1001B00009350000093500003D4B0000564B4CF25C
:1001C000205210B51A804DF628121A8000BF00BFC9
:1001D00003F09EF9514B4FF010621A60504A9A603A
:1001E000504ADA60504A136813F4807304D14F49BF
:1001F0000B604FF4A85313604D4B1A78110703D5C9
:100200001A7842F008021A704A4B4B492A221A7097
:100210004A4A4B4B8B4204D252F8040F43F8040B6A
:10022000F8E7484B484900228B4202D243F8042B9E
:10023000FAE74649464A002352F8230041F82300D2
:1002400001336F2BF8D1434B434A802103F8011B44
:100250009342FBD1414B3D4A1A60414B8A221A70AE
:10026000A3F5805324225A70A0221A709A7992071B
:10027000FCD59A79D406FCD43A4A937903F00C035E
:10028000082B384BF9D103221A7140225A719A79FE
:100290009006FCD5334A9179324B4906FBD5324A58
:1002A000324911600221516020221A709A7902F0BD
:1002B0000C020C2AFAD12E4B2E4A1A602E4B2F4AD2
:1002C0001A6000225A60072243F8042C2C4AC3F813
:1002D0000C2D62B603F0E4FB144B1B68DA0705D55E
:1002E000284803F073FA284B284A1A60284B1B78D9
:1002F0005B0609D5244C254B22689A4204D121483B
:1003000003F064FA0023236006F0DEFC03F006F934
:1003100004F040FDFEE700BF0E20054030800440A1
:10032000823F04000100002B10D0034014D0034092
:1003300002D0074000E00740DCA3FF1F687D0000FB
:100340002099FF1FDCA3FF1FF4AFFF1F0094FF1FC6
:100350000000000000E400E05FE400E008ED00E0E1
:100360000050064000400640448004400000030165
:1003700004800440C010050014E000E0FF76010096
:100380000000202096EF8E591CE00340A5C3945A2C
:1003900000F00740FFFFFFFFFFFFFFFFFFFFFFFF32
:1003A000FFFFFFFFFFFFFFFFFFFFFFFFFFFFFFFF5D
:1003B000FFFFFFFFFFFFFFFFFFFFFFFFFFFFFFFF4D
:1003C000FFFFFFFFFFFFFFFFFFFFFFFFFFFFFFFF3D
:1003D000FFFFFFFFFFFFFFFFFFFFFFFFFFFFFFFF2D
:1003E000FFFFFFFFFFFFFFFFFFFFFFFFFFFFFFFF1D
:1003F000FFFFFFFFFFFFFFFFFFFFFFFFFFFFFFFF0D
:10040000FFFFFFFFFFFFFFFFFFFFFFFFDEF9FFFF23
:1004100010B5054C237833B9044B13B10448AFF33E
:1004200000800123237010BDDCA3FF1F000000002B
:100430006C7D0000084B10B51BB108490848AFF3AC
:1004400000800848036803B910BD074B002BFBD0A0
:10045000BDE81040184700BF00000000E0A3FF1FE8
:100460006C7D0000DCA3FF1F00000000002310B41F
:10047000104C4172026104600372C36041B11946BD
:1004800000E0026942F82310427A01339A42F8DC14
:10049000094B1A680AB90AE01A465369002BFBD1C6
:1004A0005061002343618380C38010BC7047186093
:1004B000F7E700BF3C770000A8ADFF1FF8B50F219C
:1004C0002A482B4E2B4C2C4F2C4D04F023FA0021A4
:1004D000082003F091FA0021092003F08DFA012190
:1004E0000B2003F089FA0121062003F085FA01218F
:1004F000052003F081FA0121042003F07DFA012197
:10050000032003F079FA1E4ADFF884E010681D49E1
:1005100043F67053B361F36133627362A36143F2D4
:100520003336E36123626362BB61FB613B627B62E2
:10053000154C164FCEF81830CEF81C30CEF82030BF
:10054000CEF82430AE61EE612E626E620B783BB164
:1005500023789B0704D013683D685B1B182B04D8D5
:1005600013681B1AB3F57A7FF0D9F8BD0082FF1F1C
:10057000F8A3FF1F8CA7FF1FB4A6FF1F58A6FF1FDD
:10058000A8ACFF1F8CADFF1FA4ADFF1FECAFFF1F7A
:10059000FCA5FF1F2DE9F04F4FF0320885B0092070
:1005A00002F0E8FE0744072002F0E4FE06440620BD
:1005B00002F0E0FE0544082002F0DCFEB8F101087C
:1005C0000444ECD1D24ADFF8688313680293029B9B
:1005D000D8F800105B1A322B00F2F186FB174FEAB5
:1005E000E67B4FEAE57A4FEAE479DFF8488388FB57
:1005F0000721C3EBA111032003F0FAF888FB0631B1
:10060000CBEBA111042003F0F3F888FB0531CAEB12
:10061000A111052003F0ECF888FB0431C9EBA1110E
:10062000062003F0E5F8092002F0A4FE04460620A7
:1006300002F0A0FE2044400006F0FAF80021044633
:1006400006F0E8FA002840F0FF86B249204606F09E
:10065000FFFA002840F07786AF49204606F03CF9C3
:1006600006F000FB0146AD4B4EF26662D9611A629C
:10067000092002F07FFE0746062002F07BFE0446BA
:10068000072002F077FE0646082002F073FE0546BA
:100690003819400006F0CCF80446701906F0C8F886
:1006A0009F4906F019F90146204606F015F9002188
:1006B000044606F0AFFA002840F0DA869549204655
:1006C00006F0C6FA002840F070869349204606F0EE
:1006D00003F906F0C7FA0146924B4EF26662D96101
:1006E0001A62092002F046FE0646062002F042FE8B
:1006F0000446072002F03EFE8146082002F03AFE42
:100700000546072002F036FE8046082002F032FE41
:10071000074609EB050006F08BF8814906F0DCF886
:10072000054608EB070006F083F87D4906F0D4F88B
:100730000146284606F0D0F805463019400006F07C
:1007400077F80146284606F0C7F80021044606F06F
:1007500061FA002840F07E866E49204606F078FA5D
:10076000002840F01F866C49204606F0B5F806F0D8
:1007700079FA01466C4B4EF26662D9611A62092021
:1007800002F0F8FD0646062002F0F4FD04460720BC
:1007900002F0F0FD8146082002F0ECFD054607203E
:1007A00002F0E8FD8046082002F0E4FD074609EB70
:1007B000050006F03DF85A4906F08EF8054608EBAC
:1007C000070006F035F8564906F086F80146284637
:1007D00006F082F805463019400006F029F8014677
:1007E000284606F079F80446072002F0C3FD0546C6
:1007F000082002F0BFFD284406F01AF8484906F028
:100800006BF8214606F068F80021044606F002FA6B
:10081000002840F01C863F49204606F019FA0028BF
:1008200040F0BD853C49204606F056F806F01AFA1D
:1008300001463E4B4EF26662D9611A62092002F00F
:1008400099FD0646062002F095FD0446072002F0B9
:1008500091FD8146082002F08DFD0546072002F03B
:1008600089FD8046082002F085FD074609EB05005A
:1008700005F0DEFF2A4906F02FF8054608EB0700D1
:1008800005F0D6FF264906F027F80146284606F06F
:1008900023F805463019400005F0CAFF01462846F6
:1008A00006F01AF80446072002F064FD0546082009
:1008B00002F060FD284405F0BBFF194906F00CF872
:1008C000214606F009F80446072002F053FD0546CC
:1008D000082002F04FFD284405F0AAFF104905F05A
:1008E000FBFF214605F0F8FF0021044606F092F9CF
:1008F000002840F0B5850749204606F0A9F90028F0
:1009000040F04A850449204605F0E6FF14E000BFA8
:10091000A8ACFF1FA655AC464B24BE47B4A5FF1F8D
:100920006F12833AD8A5FF1F34A6FF1F90A6FF1FA2
:1009300068A7FF1F1F85EB5106F094F90146D34BC2
:100940004EF26662D9611A62092002F013FD064672
:10095000062002F00FFD0446072002F00BFD814641
:10096000082002F007FD0546072002F003FD80463F
:10097000082002F0FFFC074609EB050005F058FFD0
:10098000C34905F0A9FF054608EB070005F050FF35
:10099000BF4905F0A1FF0146284605F09DFF054629
:1009A0003019400005F044FF0146284605F094FF49
:1009B0000446072002F0DEFC0546082002F0DAFCBF
:1009C000284405F035FFB24905F086FF214605F0C1
:1009D00083FF0446072002F0CDFC0546082002F004
:1009E000C9FC284405F024FFA94905F075FF2146FC
:1009F00005F072FF0446072002F0BCFC0546082003
:100A000002F0B8FC284405F013FFA14905F064FF8B
:100A1000214605F061FF0021044606F0FBF800289E
:100A200040F01B859B49204606F012F9002840F053
:100A3000B0849949204605F04FFF06F013F90146AE
:100A4000964B4EF26662D9611A62092002F092FC5E
:100A50000646062002F08EFC0446072002F08AFCBF
:100A60008146082002F086FC0546072002F082FC41
:100A70008046082002F07EFC074609EB050005F0E1
:100A8000D7FE834905F028FF054608EB070005F06F
:100A9000CFFE7F4905F020FF0146284605F01CFFE8
:100AA00005463019400005F0C3FE0146284605F012
:100AB00013FF0446072002F05DFC0546082002F003
:100AC00059FC284405F0B4FE714905F005FF2146A4
:100AD00005F002FF0446072002F04CFC0546082002
:100AE00002F048FC284405F0A3FE694905F0F4FE35
:100AF000214605F0F1FE0446072002F03BFC0546C6
:100B0000082002F037FC284405F092FE604905F009
:100B1000E3FE214605F0E0FE0446072002F02AFC31
:100B20000546082002F026FC284405F081FE5849BD
:100B300005F0D2FE214605F0CFFE0021044606F066
:100B400069F8002840F091845249204606F080F868
:100B5000002840F01B845049204605F0BDFE06F0F9
:100B600081F801464E4B4EF26662D9611A62092045
:100B700002F000FC0646062002F0FCFB04460720BB
:100B800002F0F8FB8146082002F0F4FB054607203E
:100B900002F0F0FB8046082002F0ECFB074609EB70
:100BA000050005F045FE3A4905F096FE054608EBBE
:100BB000070005F03DFE364905F08EFE0146284649
:100BC00005F08AFE05463019400005F031FE014669
:100BD000284605F081FE0446072002F0CBFB0546BF
:100BE000082002F0C7FB284405F022FE284905F042
:100BF00073FE214605F070FE0446072002F0BAFBA2
:100C00000546082002F0B6FB284405F011FE2049F5
:100C100005F062FE214605F05FFE0446072002F063
:100C2000A9FB0546082002F0A5FB284405F000FEBC
:100C3000174905F051FE214605F04EFE04460720F7
:100C400002F098FB0546082002F094FB284405F0CA
:100C5000EFFD0F4905F040FE214605F03DFE04463C
:100C6000072002F087FB0546082002F083FB28449A
:100C700005F0DEFD064905F02FFE214605F02CFEAD
:100C80000021044605F0C6FF0CE000BFECA6FF1FE4
:100C90006F12833AA655AC464B24BE4710A7FF1FE0
:100CA00034A7FF1F002840F0DE83CF49204605F01F
:100CB000CFFF002840F06883CC49204605F00CFEA9
:100CC00005F0D0FF0146CA4B4EF26662D9611A6246
:100CD000092002F04FFB0746062002F04BFB0446BA
:100CE000072002F047FB0646082002F043FB0546BA
:100CF0003819400005F09CFD0446701905F098FD78
:100D0000BC4905F0E9FD0146204605F099FE0021A9
:100D1000044605F07FFF002840F0B583B249204625
:100D200005F096FF002840F02D83B049204605F0DD
:100D3000D3FD05F097FF0146AF4B4EF26662D961D5
:100D40001A62092002F016FB8146062002F012FB0F
:100D50000446072002F00EFB8046082002F00AFB42
:100D60000546072002F006FB0746082002F002FBBA
:100D7000064609EB0400400005F05AFD044608EB66
:100D8000050005F055FD9B4905F0A6FD0546B8197F
:100D900005F04EFD974905F09FFD0146284605F0F8
:100DA0009BFD0146204605F04BFE0021044605F060
:100DB00031FF002840F065838B49204605F048FF4D
:100DC000002840F0DD828949204605F085FD05F0C8
:100DD00049FF0146894B4EF26662D9611A620920C9
:100DE00002F0C8FA8146062002F0C4FA0446072041
:100DF00002F0C0FA8046082002F0BCFA054607203F
:100E000002F0B8FA0746082002F0B4FA064609EBE9
:100E10000400400005F00CFD044608EB050005F059
:100E200007FD744905F058FD0546B81905F000FDA9
:100E3000704905F051FD0146284605F04DFD01467B
:100E4000204605F0FDFD0446072002F093FA054612
:100E5000082002F08FFA284405F0EAFC654905F005
:100E60003BFD214605F038FD0021044605F0D2FE89
:100E7000002840F00C835C49204605F0E9FE00287C
:100E800040F07C825949204605F026FD05F0EAFE37
:100E900001465B4B4EF26662D9611A62092002F08C
:100EA00069FA8146062002F065FA0446072002F03E
:100EB00061FA8046082002F05DFA0546072002F03C
:100EC00059FA0746082002F055FA064609EB0400D5
:100ED000400005F0ADFC044608EB050005F0A8FC59
:100EE000444905F0F9FC0546B81905F0A1FC414953
:100EF00005F0F2FC0146284605F0EEFC01462046CE
:100F000005F09EFD0446072002F034FA054608204D
:100F100002F030FA284405F08BFC364905F0DCFC81
:100F2000214605F0D9FC0446072002F023FA0546C5
:100F3000082002F01FFA284405F07AFC2D4905F03C
:100F4000CBFC214605F0C8FC0021044605F062FEFA
:100F5000002840F09A822449204605F079FE0028B6
:100F600040F00A822149204605F0B6FC05F07AFEE1
:100F70000146244B4EF26662D9611A62092002F0E2
:100F8000F9F98146062002F0F5F90446072002F03F
:100F9000F1F98046082002F0EDF90546072002F03D
:100FA000E9F90746082002F0E5F9064609EB0400D6
:100FB000400005F03DFC044608EB050005F038FC58
:100FC0000C4905F089FC0546B81905F031FC0949C2
:100FD00005F082FC0146284605F07EFC01462046CD
:100FE00005F02EFD04460FE0A655AC464B24BE4747
:100FF000D0A4FF1F6F12833AF4A4FF1FD0A7FF1FD6
:10100000F4A7FF1F18A8FF1F072002F0B3F9054639
:10101000082002F0AFF9284405F00AFCCC4905F09D
:101020005BFC214605F058FC0446072002F0A2F9BB
:101030000546082002F09EF9284405F0F9FBC44952
:1010400005F04AFC214605F047FC0446072002F063
:1010500091F90546082002F08DF9284405F0E8FBD7
:10106000BB4905F039FC214605F036FC0021044659
:1010700005F0D0FD002840F00282B649204605F078
:10108000E7FD002840F07681B349204605F024FCB6
:1010900005F0E8FD0146B14B4EF26662D9611A6275
:1010A000092002F067F98146062002F063F9044640
:1010B000072002F05FF98046082002F05BF9054640
:1010C000072002F057F90746082002F053F90646B8
:1010D00009EB0400400005F0ABFB044608EB0500FB
:1010E00005F0A6FB9A4905F0F7FB0546B81905F08F
:1010F0009FFB974905F0F0FB0146284605F0ECFB05
:101100000146204605F09CFC0446072002F032F917
:101110000546082002F02EF9284405F089FB8C4989
:1011200005F0DAFB214605F0D7FB0446072002F064
:1011300021F90546082002F01DF9284405F078FB46
:10114000834905F0C9FB214605F0C6FB044607208C
:1011500002F010F90546082002F00CF9284405F0C9
:1011600067FB7B4905F0B8FB214605F0B5FB04465B
:10117000072002F0FFF80546082002F0FBF828449B
:1011800005F056FB724905F0A7FB214605F0A4FBCC
:101190000021044605F03EFD002840F06E816D49B7
:1011A000204605F055FD002840F0E2806A492046BF
:1011B00005F092FB05F056FD0146694B4EF2666262
:1011C000D9611A62092002F0D5F88146062002F0A2
:1011D000D1F80446072002F0CDF88046082002F03E
:1011E000C9F80546072002F0C5F80746082002F0B6
:1011F000C1F8064609EB0400400005F019FB04465F
:1012000008EB050005F014FB514905F065FB0546A8
:10121000B81905F00DFB4E4905F05EFB0146284666
:1012200005F05AFB0146204605F00AFC044607205B
:1012300002F0A0F80546082002F09CF8284405F0CA
:10124000F7FA434905F048FB214605F045FB044603
:10125000072002F08FF80546082002F08BF828449A
:1012600005F0E6FA3A4905F037FB214605F034FB74
:101270000446072002F07EF80546082002F07AF8BE
:10128000284405F0D5FA324905F026FB214605F041
:1012900023FB0446072002F06DF80546082002F003
:1012A00069F8284405F0C4FA294905F015FB2146E0
:1012B00005F012FB0446072002F05CF80546082002
:1012C00002F058F8284405F0B3FA214905F004FB70
:1012D000214605F001FB0021044605F09BFC002897
:1012E00040F0C9801B49204605F0B2FC70BB1A498A
:1012F000204605F0F1FA05F0B5FC0146194B4EF217
:101300006662D9611A62092002F034F804460620A8
:1013100002F030F82044400005F08AFA002104462B
:1013200005F078FC002840F0B4800A49204605F01A
:101330008FFC00283CD00C480C4B0022D8611A626C
:1013400005B0BDE8F08F0849FFF78DB90649D5E72C
:101350006F12833AA655AC464B24BE473CA8FF1FEC
:1013600060A8FF1F84A8FF1F80FFFF7FA8A8FF1FA2
:10137000494922E748498EE64749FAE5464988E562
:10138000454927E54449D7E443499CE44249FFF7EE
:10139000E9BB4149FFF754BB3F49FFF7D0BA3E498B
:1013A000FFF747BA3C49FFF7E5B93B49FFF794B966
:1013B0003A49204605F090FA05F054FCBCE70C21B0
:1013C0003748019203F0C6F9364A374882FB0721B5
:1013D000FB17C3EB2111009303F0D4FC0A2133481F
:1013E00003F0B8F92F4B304883FB06314FEAE67B18
:1013F000CBEB211103F0C6FC0C212D4803F0AAF918
:10140000284B294883FB05314FEAE57ACAEB2111C5
:1014100003F0B8FC0921274803F09CF9214B22482E
:1014200083FB04314FEAE479C9EB211103F0AAFCF4
:101430001D4803F057FC019A009B12680392039A1F
:10144000C8F80020FFF7D1B80021FFF70CB9002140
:10145000FFF7EFB90021FFF78DB90021FFF7F0BAD0
:101460000021FFF76CBA00212DE40021FFF77ABBC1
:101470000021FFF731B9002140E700219DE600215E
:1014800009E60021A6E4002156E4002171E50021CF
:10149000FFE4002050E700BF80FFFF7F4B24BE47E2
:1014A000407700001F85EB51D4ADFF1F507700003F
:1014B0005C7700006C7700002DE9F04F002285B0CA
:1014C00011467948794DDFF834A2DFF83492DFF81D
:1014D0003482774FDFF830B2764EFEF7C7FF724B9B
:1014E00075481D6000224FF4804411461C62FEF7CF
:1014F000BDFF714B71481D60002211461C62FEF752
:10150000B5FF6E4B6E481D60002211461C62FEF74F
:10151000ADFF6B4B6B481D60002211461C62FEF74D
:10152000A5FF684B68481D60002211461C62FEF74B
:101530009DFF654B65481D60002211461C62FEF749
:1015400095FF624B62481D60002211461C62FEF747
:101550008DFF5F4B5F481D60002211461C62FEF745
:1015600085FF5C4B5C481D60002211461C62FEF743
:101570007DFF594B59481D60002211461C62FEF741
:1015800075FF564B56481D60002211461C62FEF73F
:101590006DFF534B53481D60002211461C62FEF73D
:1015A00065FF504B50481D60002211461C62FEF73B
:1015B0005DFF4D4B4D481D60002211461C62FEF739
:1015C00055FF4A4B4A481D60002211461C62FEF737
:1015D0004DFF474B0AF12802042150461D601C6252
:1015E0004FF48034FEF742FF09F1280204214846F7
:1015F000CAF800B0CAF81840CAF81C40CAF820401F
:10160000CAF82440FEF732FF08F1280204214046C0
:10161000C9F800B0C9F81840C9F81C40C9F8204002
:10162000C9F82440FEF722FF07F1280204213846BA
:10163000C8F800B0C8F81840C8F81C40C8F82040E6
:10164000C8F82440FEF712FF2A4B019306F1280246
:1016500004213046C7F800B0BC61FC613C627C628A
:10166000FEF704FF019BDFF8A4E0C6F800B00020FD
:10167000012503F118015D72B461F4613462746292
:101680000246C3F800E019611872D8601D4600E0F8
:10169000296941F82200597A164C01329142F7DC4F
:1016A000154A1168A9BB33E1B4A5FF1FB879000042
:1016B000B4A6FF1F58A6FF1F34A6FF1F90A6FF1F4A
:1016C000D8A5FF1FECA6FF1FD0A4FF1F10A7FF1F68
:1016D00034A7FF1FF4A4FF1FD0A7FF1F18A8FF1FE8
:1016E00060A8FF1F3CA8FF1FF4A7FF1F84A8FF1FCF
:1016F000A8A8FF1F78A5FF1FA8ADFF1FF8A3FF1F15
:10170000FCA5FF1F8CA7FF1FA07900003C770000FD
:1017100011464A69002AFBD14B6100247D495C6176
:101720009C80DC807C481960019300F07DFB7B4944
:101730007B4B0C72084681E808024C72CC6003F0C7
:10174000CDF97849784B0C720225084681E80802E9
:10175000CC604D7203F0C2F97449754B0C7281E88C
:10176000080208464FF00303CC604B7203F0B6F951
:101770007049714B0C724FF0010B084681E808026A
:10178000CC6081F809B003F0A9F96C496C4B0C727C
:10179000084681E808044C72CC6003F09FF969495F
:1017A000694B0C7281E8080408464FF003034B7242
:1017B000CC6003F093F96549654B0C72084681E8EB
:1017C000080481F809B0CC6003F088F96149624BE4
:1017D0000C72084681E808044D72CC6003F07EF973
:1017E0005E495F4B0C72084681E808014C72CC6080
:1017F00003F074F95B495C4B0C72084681E8080100
:1018000081F809B0CC6003F069F95849584B0C7263
:1018100081E8080108464FF003034B72CC6003F0E7
:101820005DF95449544B0C72084681E8880081F8F0
:1018300009B0CC6003F052F95049514B0C72084684
:1018400081E888004C72CC6003F048F94D494E4B5A
:101850000C72084681E808014D72CC6003F03EF935
:101860004A494B4B0C72084681E888004D72CC60A7
:1018700003F034F94749484B0C7281E88800084668
:101880004FF003034B72CC6003F028F9434908463C
:1018900081F809B0C1F800A04E600C72CC6003F072
:1018A0001DF93F4908460C72C1F800904E604C7219
:1018B000CC6003F013F93B4908464D72C1F8008033
:1018C0004E600C72CC6003F009F937494FF0030306
:1018D00008464B720F604E600C72CC6003F0FEF84D
:1018E0003249019B0C7208460E604B604C72CC6012
:1018F00003F0F4F82E4B2F4A1B68039303982E4BEA
:101900002E4910600A2219601A7205B0BDE8F08FE6
:10191000146002E7AC79000078A5FF1F18A5FF1F2F
:10192000B4A5FF1F28A5FF1F34A6FF1F38A5FF1F62
:1019300090A6FF1F48A5FF1FD8A5FF1F58A5FF1F92
:10194000ECA6FF1F68A5FF1FD0A4FF1F58A7FF1F0D
:1019500010A7FF1F94A5FF1F34A7FF1FA4A5FF1FFB
:10196000F4A4FF1F30A4FF1FD0A7FF1F40A4FF1F38
:1019700018A8FF1F50A4FF1F60A8FF1F60A4FF1F2F
:101980003CA8FF1F70A4FF1FF4A7FF1F80A4FF1F28
:1019900084A8FF1F90A4FF1FA8A8FF1FA0A4FF1FDB
:1019A000B0A4FF1FC0A4FF1F6CA7FF1F7CA7FF1FD1
:1019B000A8ACFF1F68A7FF1FC4A7FF1F8479000002
:1019C0000020704700207047F8B5144C037A242992
:1019D00008BFC2805B0001250E462046C1F30721E7
:1019E000174684F83B3084F85E5084F85D5001F06F
:1019F000F7F8F1B2204601F0F3F8C7F307212046CB
:101A000001F0EEF8F9B2204601F0EAF82946204646
:101A100001F032FAB0FA80F04009F8BD34ACFF1F93
:101A200038B5012504460571334801F00BF905204E
:101A300001F0E8FF204644F260023021FFF7C4FFC6
:101A400020466C222621FFF7BFFF20464FF4F97293
:101A50002821FFF7B9FF204640F622722C21FFF71C
:101A6000B3FF204644F246423C21FFF7ADFF20463B
:101A700040F237122421FFF7A7FF204644F2FF026D
:101A80003021FFF7A1FF732202212046FFF79CFFC0
:101A90004FF4C87001F0B6FF204641F61D522E21CA
:101AA000FFF792FF042211462046FFF78DFF2046E4
:101AB0004FF498720621FFF787FF204610220A2173
:101AC000FFF782FF204600220E21FFF77DFF204610
:101AD00043F63C421021FFF777FF204647F67F721E
:101AE0002221FFF771FF204636222421FFF76CFFE9
:101AF0006572284638BD00BF34ACFF1F10B50446E0
:101B000019B1012911D0002010BD55222021FFF765
:101B10005BFF0028F7D0E28842F00402204692B230
:101B20002421BDE81040FFF74FBF40F273122A2175
:101B3000FFF74AFF0028E6D0882220212046FFF741
:101B400043FF0028DFD0E288204622F0040224214F
:101B5000BDE81040FFF738BF38B50546F1B1802920
:101B600003799ABFC1F1800444EA0424002433B904
:101B7000224628462221BDE83840FFF725BFC2880B
:101B8000002322F0100203712421FFF71DFF2246DB
:101B900028462221BDE83840FFF716BF0123037114
:101BA00047F67F722221FFF70FFFEA8842F010020A
:101BB000284692B22421BDE83840FFF705BF00BF98
:101BC0000B4610B507490446184604F085FE064941
:101BD00004F07AFD05F046F801462046BDE81040C5
:101BE000FFF7BABF00000143EE7CFF3E10B504468C
:101BF00003F04AF8204610BD024A0349034805F0A5
:101C000051B800BFFC99FF1FED1B0000CCA8FF1FBF
:101C100038B5074D074C08482A46214605F042F8DA
:101C20002A4621460548BDE8384005F03BB800BFCC
:101C3000FC99FF1FED1B0000D4A8FF1FDCA8FF1FAD
:101C4000024A0349034805F02DB800BFFC99FF1F65
:101C5000ED1B0000E4A8FF1F024A0349034805F0FA
:101C600021B800BFFC99FF1FED1B0000ECA8FF1F6F
:101C70002DE9F8434FF00008064600F118054746E5
:101C800041463046002F4FD002F0FAFEF0B12C68EA
:101C9000B4F5803F07F1040100F1040E07F5827CE2
:101CA00027D05EF8042B34FB02F334FB12F903F364
:101CB0000F0209F30F03C2EA03430A6893FA12F30F
:101CC00041F8043B8C45ECD802F09CFE08F1010879
:101CD000B8F1040F05F10405D2D1002F40D03046F1
:101CE0003946002202F0B2FE3846BDE8F84302F061
:101CF00089BE07F10C0100F10C0451F8083C54F8BE
:101D0000082C93FA12F341F8083C54F8042C51F8CB
:101D1000043C93FA12F38C4541F8043C04F10804A6
:101D200001F10801E9D8CFE702F0B6FE0746002826
:101D3000CCD02868B0F5803FC8D0391D07F5827433
:101D40000B6830FB03F230FB13F302F30F0203F3D3
:101D50000F03C2EA034341F8043B8C42F0D8B5E7D5
:101D6000BDE8F88310B5002102F08AFE70B172B6AA
:101D70000A4B1A6872B10A490C6844B11C600860C9
:101D800062B61046BDE8104002F03CBE10BD0860CF
:101D900062B610BD186062B610BD00BF04A9FF1F77
:101DA000F4A8FF1F38B5194B19491A68194C126865
:101DB0001B79194D0B70A242286836BF2246A4F544
:101DC000807202F58074C8B1011D31F9023B03F540
:101DD000FF437F331B1122F8023B9442F5D802F0F7
:101DE00011FE0E4B0022196829601A600C4B1B78FB
:101DF0001BB10C4B4FF080421A6038BD40F2FF73AC
:101E000022F8023B9442FBD8F0E700BFF8A8FF1F7E
:101E10001F8000403C92FF1F04A9FF1FF4A8FF1F72
:101E200000A9FF1F08E200E0F8B501215148524D1A
:101E300002F0C6FE514A52491368802043F4805391
:101E40001360002408702C800120083401F0DAFDB2
:101E5000A3B2B3F5006F1CB2F5D14A4B1B685B020D
:101E600008D5494B1A6848F6A273134048F6A27287
:101E700093426DD04349444A0B68444F444D454812
:101E8000454C43F480030B604FF0010E40F23F4697
:101E900048F6A37140F20113C7F800E02E6011600C
:101EA00014600360334D3D492B6800221960197C92
:101EB0001A746FF03F01587C59740C21987C997406
:101EC0004021D87CD974997D9A750124D97DDC751F
:101ED00002204FF0FF316FF001065A715A729A7268
:101EE000DA721A731A755A751A765A769A76DA76FB
:101EF0005E739C71DC71187118729973D973997F34
:101F000029799A7701F18041D87FDC7701F5043196
:101F100006201E7F1877B0205E7F5A770A700870FF
:101F200002F0F4FD2A791E4B1E4E187053119B00CF
:101F300003F1604302F01F051B49327003F5614352
:101F400002F11000AC40194D41F820501C60F8BD62
:101F50000F4B1A6840F23F439A428BD10B4B1B68E0
:101F6000012B87D10B4B1A6840F201139A4281D1A1
:101F700098E700BFF8A8FF1F00C00C402C80044069
:101F800021C00C403C800440006003400C600340D2
:101F90000460034010600340A28F01003C91FF1FCA
:101FA00000A9FF1F1B8000400094FF1FA51D00001B
:101FB000024A0349034804F075BE00BFFC99FF1FA5
:101FC000ED1B0000F8A8FF1F024A0349034804F074
:101FD00069BE00BFFC99FF1FED1B000008A9FF1F91
:101FE000024A0349034804F05DBE00BFFC99FF1F8D
:101FF000ED1B000010A9FF1F024A0349034804F02B
:1020000051BE00BFFC99FF1FED1B000018A9FF1F68
:10201000024A0349034804F045BE00BFFC99FF1F74
:10202000ED1B000020A9FF1F024A0349034804F0EA
:1020300039BE00BFFC99FF1FED1B000028A9FF1F40
:10204000036A2DE9F04780464BB9D8F81830D8F824
:102050001C2003EBC213C8F81830BDE8F08702F06B
:1020600085FC06460028F0D0D8F81890D8F81C70E7
:10207000D8F820C0134D4946841C00F5817E0B0E14
:102080005A1C35F9130035F91220C1F30F2ACAF58D
:10209000803300FB03F30AFB023353FB0CF324F8F9
:1020A000023FA6453944EAD109EBC7174046C8F8B4
:1020B00018703146002202F0C9FC3046BDE8F047F6
:1020C00002F0A0BC78770000084B094A9A6302210D
:1020D000002219615A719A719A721A7383F830202A
:1020E00083F83C2083F83E20704700BF4CA9FF1FB7
:1020F000C479000008B50121007901F077FC0E4B8E
:102100001A7802B908BD0D4A127800211970002A08
:10211000F8D0D00703D50A490A4B0968196091071E
:1021200003D50749084B496819605307EAD5044AA3
:10213000064B92681A6008BDB0A9FF1F48A9FF1F8F
:102140003CA9FF1F00E100E004E100E008E100E03D
:10215000F8B5038940F20122591C934207460181D8
:1021600014D80D4A4FF000461546FF2440F20220D5
:10217000D6625463D36A002BFCDA8BB28342A96B1C
:1021800001D0591CF4E740F203233B813846FFF7A6
:10219000B1FF0023BB71F8BD00C00240204B1A788C
:1021A0001AB10079002101F021BC70B41D491E4A0A
:1021B0000C78126801251D7004B372B60B78DC0729
:1021C00007D51A4C1A49266809681A4D314029600A
:1021D0002160990707D5184C154926684968154D9F
:1021E0003140216069605B0707D51449104B0D68C9
:1021F0009B68104C2B400B60A36062B6104BD968F3
:10220000914207D00F4C1C600F49DA6042F08044C5
:102210001C6119600079002170BC01F0E7BB00BFB0
:10222000B0A9FF1F48A9FF1FACA9FF1F80E100E074
:1022300030A9FF1F3CA9FF1F84E100E088E100E016
:1022400000C0024001401F0000001F80F0B4114C8C
:10225000114A236882B01746009300984FF0004659
:1022600080B2FF25D6625563D36A002BFCDABB6BC4
:10227000DBB2FF2B0AD023680193019B9BB21B1A90
:102280008B42EFDB002002B0F0BC7047012002B0AF
:10229000F0BC7047A8ACFF1F00C00240F8B58379BE
:1022A00004460D461646002B4CD12046FFF776FF1C
:1022B0004FF496712046FFF7C9FF244B4FF00042C0
:1022C00045F04001DA621A465963D36A1F49002B70
:1022D000FBDA8B6B0F4618204FF0004226FA00F312
:1022E000DBB2CA624B63CB6A002BFCDA083810F110
:1022F000080FBB6BF2D11DB3082D0CBF8722FF2244
:10230000124B4FF00041D96219465A63CB6A0F4A0B
:10231000002BFBDA936B164600274FF00045FF2198
:10232000D5625163D36A002BFCDAB36BD8B21B06BB
:10233000E07200D4F8BD0137B7F5807FF0D1F8BD69
:102340009522DDE7FFF704FFAFE700BF00C00240C2
:10235000F0B5164C164A236883B0174600930099CF
:102360004FF0004689B2FF25D6625563D36A002B31
:10237000FCDABB6BDBB2FF2BC3720ED12368019377
:10238000019B9BB25B1AB3F5967FEDDD0F23437182
:10239000FFF7B0FE002003B0F0BDFE2B02D00D23EE
:1023A0004371F5E7012003B0F0BD00BFA8ACFF1FEB
:1023B00000C00240F8B51E461344B3F5007F054641
:1023C00010DC8379174693B92B7B2960032B18BF48
:1023D00049020A4628461121FFF760FF044668B10A
:1023E00003236B712846FFF785FE0020F8BD0368C4
:1023F0008B42E9D10089824209D2E5E72846FFF7FE
:10240000A7FF0028EED001232C812046AB71874224
:1024100010D91C494FF0004E0C46FF23C1F82CE0A8
:102420004B63CA6A002AFCDA013080B28742A26B91
:10243000F4D12F81A6B1069B1249701E13FA80F0C9
:102440008E46013B4FF00047FF24CF624C63CA6ABF
:10245000002AFCDADEF8382003F8012F8342F4D199
:102460002B89AA7A33449BB22B8112B1B3F5007F3A
:1024700001D3AB790BB90120F8BD2846FFF768FE00
:102480000120F8BD00C0024000B583B04FF40073D6
:1024900000920022FFF78EFF03B05DF804FB00BF3F
:1024A000F8B5254B4FF00044DC621C465963E36AE3
:1024B0002149002BFBDA8B6B0F46541E02F2FF15ED
:1024C0004FF0004614F8013FCE624B63CB6A1A4AC4
:1024D000002BFBDAAC42BB6BF4D14FF00041FF2381
:1024E000D16211465363CB6A134A002BFBDA4FF0DB
:1024F0000041FF23946BD16211465363CB6A0E4AAD
:10250000002BFBDA4FF00041FF23946BD1621146A0
:102510005363CB6A084A002BFBDA936BDBB203F000
:102520001F02052AC37205D011234371FFF7E2FD94
:102530000020F8BD0120F8BD00C0024070B504467F
:1025400031B9122343712046FFF7D4FD002070BD3E
:10255000037B032B18BF490215460A461821FFF7D3
:102560009DFE064630B1042320466371FFF7C2FD8D
:10257000002070BD2A46FE212046FFF791FF00286B
:10258000E1D04FF416712046FFF760FE10B9152315
:102590006371D8E732460D212046FFF77FFE98B9D8
:1025A0000B4B4FF00041FF22D96219465A63CB6AA8
:1025B000074A002BFBDA936B13F0FF0F04D1204680
:1025C000FFF798FD012070BD14236371BBE700BFC6
:1025D00000C00240014B024A1A607047ACA9FF1FBD
:1025E0000110013838B590F90530002B03DBBDE848
:1025F000384000F091B904460121006900F0B6F9B5
:10260000F8B1257D104B13EB45151AD0A3790F4A6D
:10261000012B9CBFA369EB61E36912686B831B0C00
:10262000AB8232B105F1160105F1180090472B8BF2
:102630006B82637903F07F036371BDE8384000F07B
:102640006BB9002038BD00BFC0A9FF1FB4A9FF1F90
:1026500010B500F1080204460121006A00F024FAD6
:1026600050B1E3693BB96379A268E26163F07F032B
:102670006371012010BD012010BD00BFF8B5837942
:1026800013B182698A4201D20020F8BD022B0F46A5
:1026900005461AD007B32B6AE9681C7C4A1E04F170
:1026A00009037C1EDA40DC40A24211D9EB69AB6021
:1026B00005F1080606E0A968286A00F0BDF9013CAA
:1026C0000028E1D03246002CF5D1EF600120F8BDA2
:1026D0000029EBD0A41AEBE7AF60EF600120F8BD52
:1026E0002DE9F04F8B46817985B001298046019212
:1026F00006D0012388F80430002005B0BDE8F08F33
:1027000042799107F5D553070AD5D8F80C40D8F887
:1027100018108C4200F0C680FFF7B0FF0028E8D008
:10272000019BD8F80C40002B00F0AF80DFF8C89177
:10273000DFF8C8A1019F3AE0002C43D1D8F8081077
:10274000002940F08380D8F81C20002A00F09280F5
:10275000C8F80820C4F50076B6B2BE4239D890F861
:1027600010E04169023A02FA0EF20D44B6F5007F1C
:10277000154435D1DAF80020954204BF4FF0FF32FE
:10278000CAF80020584A294610685A46FFF7D6FE74
:102790000028AED00BF5007B4FF40074D8F80C2065
:1027A000BF1B1444BFB2C8F80C40002F6DD0D8F83E
:1027B00020000579013D05EA542515F0FF05C4F315
:1027C0000804B9D0C4F50076B6B2BE42D8F80820E5
:1027D000C5D9067C4169023AB2400D4415443E46D3
:1027E0002CB9D8F80C10D8F8182091421BD22846E2
:1027F000012100F0BBF800283FF47BAF4C4404EB10
:10280000060E744520D00BF1FF31621E0EF1FF352C
:1028100011F8010F02F8010F9542F9D1C4EB0E0E29
:10282000F3443446BAE700F077F800283FF461AF8C
:102830002E49CAF800500A784C4404EB060E42F0C8
:10284000010274450A70DED13446A7E703AA00F0FE
:10285000F3F800283FF451AFD8F82000244B90F84B
:102860002060039A4FF6F871102E18BF19468A425D
:10287000FFF46EAF4046FFF7EBFE00283FF439AFA0
:10288000D8F82000D8F8082064E7D8F81830A34218
:102890000DD298F80520C8F8184042F0800288F858
:1028A00005200FE0019B002B7FF440AF0AE0114BA5
:1028B00098F805201B682BB1019B1BB142F08002E8
:1028C00088F8052012070AD598F80630002B3FF447
:1028D00010AF4046FFF786FE00283FF40AAF01988C
:1028E00005B0BDE8F08F00BFBCA9FF1FC0ABFF1F44
:1028F000F8FFFF0FB4A9FF1FC0A9FF1F009AFF1F19
:1029000000B583B002AB012203F8011D1946FFF7A1
:10291000E7FE03B05DF804FB70B50F4C23780BB9EC
:10292000012070BD0D4B0E4D196828680D4AFFF748
:1029300005FE70B10C4E316819B9002323700120D7
:1029400070BD2868074AFFF7F9FD10B10023336016
:10295000F3E7002070BD00BFC0ABFF1F009AFF1F50
:10296000BCA9FF1FC0A9FF1FB8A9FF1F70B50D4D5F
:102970002B6883420E460ED00446FFF7CDFF08B900
:10298000002070BD084B094A18682146FFF77CFDFE
:102990000028F5D02C60064B1978314319700120BE
:1029A00070BD00BF009AFF1FBCA9FF1FC0A9FF1F79
:1029B000C0ABFF1FF8B590F82030C469102B1A4B3C
:1029C00005460E4617461B6816D004EBD1149C42F0
:1029D00016D106F07F06154A42F826701449287E63
:1029E0000A78012842F001020A7018D9A968114A30
:1029F0000B4413600120F8BD04EB11249C4208D065
:102A000000212046FFF7B2FF50B195F82030102B7F
:102A100007D1F6B2054A234622F81670DEE70120F8
:102A2000F8BD2346D5E700BF009AFF1FC0A9FF1FCE
:102A3000C0ABFF1FB8A9FF1FC36801338B4218D377
:102A400070B590F82030102B154B044616460D46F5
:102A5000C0691B680FD000EBD11098420FD105F070
:102A60007F01104B53F8213023F070433360012075
:102A700070BD0020704700EB1120984207D0002164
:102A8000FFF774FF50B194F82030102BE7D1E9B272
:102A9000044B33F811303360012070BD002070BD4D
:102AA000009AFF1FC0A9FF1F2DE9F04F176883B0E0
:102AB0006FB301374FF0000AC36803F1010813B385
:102AC0008B46064691463C46002505E01C461F46BF
:102AD000F3680135AB4216D9A04538BF0224214620
:102AE00001AA304638BF2746FFF7A6FF631CD91B53
:102AF00048B1019A002AE9D18B4510D01C46F368F1
:102B00000135AB42E8D8002003B0BDE8F08FA1F159
:102B1000010ABAFA8AFA07684FEA5A1ACCE7012C76
:102B2000F1D9F36801339C42EDD86FF07042214631
:102B30003046FFF73FFF0028E5D0A74214D2013C02
:102B4000012CE0D9F36801339C42DCD8621C214699
:102B50003046FFF72FFF0028D5D0A74204F1FF34FD
:102B600002D0012CEED1CEE7D9F8001059B10129DD
:102B7000C9D9F36801339942C5D83A463046FFF7C0
:102B800019FF0028BFD0C9F80070BAF1000F01D0BA
:102B9000013737600120B7E790F8392090F8380006
:102BA000101A704790F8383090F839209A4205D9B9
:102BB0005A1C034480F83820187E70474FF0FF30CD
:102BC000704700BF90F8383090F839209A4286BF9D
:102BD0001B18187E4FF0FF30704700BF704700BFD2
:102BE000B0F85E306BB190F85D30202B07D8C2187A
:102BF000013380F85D30012082F83B1070470123DB
:102C000003710020704700BF38B50546B0F85E007C
:102C100090B195F85D301446C3F1210294420CD86E
:102C200005F13B001844224600F0F8F995F85D30B4
:102C3000234485F85D30204638BD012014462871B4
:102C4000EEE700BF0023426980F8383080F8393061
:102C500080F85C3080F85D3080F85E3080F85F305E
:102C600006CA30B40D68046943662A4383660A6065
:102C7000A370426990F861301649146813441D7AB4
:102C80005B7B01EBC5051B026D6803F4E06343F059
:102C900064032B6090F8623013449D7CDB7D01EB74
:102CA000C5011B02496803F4E06343F064030B6051
:102CB00021685368194205D0036927225A700369B5
:102CC00004229A71036920225A71036980229A7042
:102CD00030BC7047587A000010B50269D378DBB277
:102CE000D90604463DD510215806D17038D503F0D9
:102CF000040303F0FF02002B51D03D49626E002314
:102D00000B7084F85D30002A5BD0904794F85D30FA
:102D1000002B56D02369D0229A70236994F83B2067
:102D20001A712369012284F85C200222DA7010BD36
:102D3000304B84F860009C424AD02F4B9C4252D0CA
:102D400094F8391013791F29DBB207D82848007886
:102D500020B16018013184F8391003760223D37052
:102D600010BD5906C3D4917801F0100101F0FF00A5
:102D70000029DDD013F001031ED194F85C1094F803
:102D80005D00884281BF4B1C091984F85C3091F8C2
:102D90003B3013712369D0229A702269DEE72369E0
:102DA00084F83920C0229A702369114A19790121C7
:102DB00011700222DA7010BDC0239370226913795A
:102DC000CCE70122002384F85D2084F83B30A1E7A2
:102DD000626994F86130094913440322187A00F0BB
:102DE00035FC2269ACE7626994F861300449F3E785
:102DF00030ACFF1F34ACFF1FC4ABFF1F612E0000BF
:102E00006D2E00000369DB7803F0200373B190F8A6
:102E100060300133DBB2012B80F860301AD942698F
:102E200090F861301344187A00F08CBC70B5426998
:102E300003F0FF0590F8613013440446187A00F05F
:102E400081FCA36E5BB184F8385094F83900BDE87A
:102E50007040184790F85F30002BE0D0704770BD8D
:102E60000148FFF7CFBF00BF34ACFF1F0148FFF799
:102E7000C9BF00BFC4ABFF1FF0B503691222DA70EF
:102E8000026993780546980687B04ED5B423444C22
:102E9000937023680293029E2A6905E023680393D6
:102EA000039B9B1B042B57D8D37803F0200303F01C
:102EB000FF00002BF2D095F85D30002B2ED00027BC
:102EC0004FF0020EEB1993F83B3013712368049313
:102ED000DDF810C0286908E09B060ED5236805932D
:102EE000059BCCEB0303052B3DD8C378DBB203F085
:102EF000020202F0FF06002AEED080F803E02A6901
:102F0000D378DBB2DE063DD49E063BD5DB0741D449
:102F1000013795F85D30FFB2BB42D3D800200029BD
:102F200034D1002385F85E301BE01D4C23680093EC
:102F3000009E05E023680193019B9B1B0F2B19D872
:102F4000D37803F0200303F0FF00002BF2D1B0236D
:102F500085F85F0093709CE790702B6980229A70CF
:102F6000042007B0F0BD86702B69802204209A707F
:102F700007B0F0BD002393702B69802204209A7063
:102F800007B0F0BD802393700420C8E72A6980232E
:102F90009370C6E7002F0CBF02200320F7E700BFA5
:102FA000A8ACFF1F0148FFF797BE00BF34ACFF1F5E
:102FB0000148FFF791BE00BFC4ABFF1FF0B410493A
:102FC000104B114A0A6100224FF47A740F4F1048D7
:102FD000104E114D0A710A7381F8612081F8622048
:102FE0001A711A7383F8612083F862204F618C6034
:102FF0009C601E615D6108601860F0BC704700BF96
:1030000034ACFF1FC4ABFF1F00600640CC7900004A
:10301000147A000000700640EC790000844641EA12
:10302000000313F003036DD1403A41D351F8043B40
:1030300040F8043B51F8043B40F8043B51F8043B92
:1030400040F8043B51F8043B40F8043B51F8043B82
:1030500040F8043B51F8043B40F8043B51F8043B72
:1030600040F8043B51F8043B40F8043B51F8043B62
:1030700040F8043B51F8043B40F8043B51F8043B52
:1030800040F8043B51F8043B40F8043B51F8043B42
:1030900040F8043B51F8043B40F8043B51F8043B32
:1030A00040F8043B51F8043B40F8043B403ABDD2A1
:1030B000303211D351F8043B40F8043B51F8043B43
:1030C00040F8043B51F8043B40F8043B51F8043B02
:1030D00040F8043B103AEDD20C3205D351F8043BD2
:1030E00040F8043B043AF9D2043208D0D2071CBF9E
:1030F00011F8013B00F8013B01D30B8803806046C7
:10310000704700BF082A13D38B078DD010F003033C
:103110008AD0C3F10403D21ADB071CBF11F8013BAC
:1031200000F8013B80D331F8023B20F8023B7BE7FB
:10313000043AD9D3013A11F8013B00F8013BF9D226
:103140000B7803704B7843708B78837060467047C0
:10315000374A384913681B06FCD40B6813F0800308
:10316000F8D172B634490A78002A5FD0334A34481D
:10317000F0B4344C176806682568D4680C303E44B7
:10318000143200681268304F35442C442044024405
:10319000C2F34E022D4E2E482E4D2F4C42F40042CB
:1031A0003A60376806682D682C4A24680C303E4423
:1031B000006812682A4F35442C4420440244C2F36C
:1031C0004E02284E2848294D294C42F400423A60CC
:1031D000376806682D68274A24680C303E4400682A
:1031E0001268254F35442C4420440244C2F34E0259
:1031F000224E2348234D244C42F400423A60376863
:1032000006682D68214A24680C303E440068126824
:1032100035442C4420440244C2F34E021C4842F47C
:10322000004202600B7062B6F0BC704762B6704735
:1032300024B0034024B00B40A1ACFF1F38B00340C2
:103240003CB0034040B003402CB0034058B00340B2
:103250005CB0034060B0034064B003406CB0034016
:1032600030B0034038B00B403CB00B4040B00B4096
:1032700044B00B404CB00B402CB00B4058B00B404E
:103280005CB00B4060B00B4064B00B406CB00B40C6
:1032900030B00B4030B42948294A2A4B2A4D6024CB
:1032A000E121047011701B78284C082B30D00A2BB8
:1032B0002748284937D00C2B0CBF35223D2212233A
:1032C0002A60236002600B60234B24491B78244A48
:1032D000BBB101230B601360224B23491B78234AA7
:1032E000012B26D9042B0FD9082B1ED9102B94BFE4
:1032F000862387230B6013601D4B01221A7030BC9C
:1033000070470B601360E7E784230B601360F3E7FB
:1033100000F58E200F490830012213232A60236014
:1033200002600B60D0E73922F7E785230B6013605A
:10333000E2E780230B601360DEE700BF0040074038
:1033400001400740049AFF1F08B003400CB003403F
:1033500008B00B400CB00B40A4ACFF1F20B00340E2
:1033600020B00B40059AFF1F24B0034024B00B404F
:10337000A1ACFF1F28282FD8334B2DE9F0411E5C4C
:10338000FF2E2BD0314B1B78002B2AD132062CD4A8
:1033900072B62F4D2F4C2F46012326602B7062B63C
:1033A00072B623681B060CD43B781BB9F4E72B7864
:1033B000002BF1D062B601F017FD72B62368180633
:1033C000F5D5254B1B6800222A7062B6234A107877
:1033D00043FA00F0BDE8F081002070470020BDE80E
:1033E000F081FFF7B5FE3206D2D572B61C4DDFF87C
:1033F0007C801C4C06F04007FFB206F03F06D8F870
:103400000030DFB123F01003C8F80030012326603C
:10341000134A2B7062B672B6236819060CD413785F
:103420001BB9ECE72B78002BE9D062B601F0DCFC8D
:1034300072B623681B06F5D50B4BC3E743F01003A8
:10344000C8F80030E2E700BF2C7A0000A1ACFF1FF3
:10345000A3ACFF1F00B0034010B00340A0ACFF1F9F
:10346000A2ACFF1F00B00B4010B00B400CB00B40E3
:103470000B4A0C49136843F4805313600B783BB13B
:10348000094B80221A70094B80F30C00188070479A
:10349000054BC0221A70054B80F30C001880704752
:1034A0002C800440A4ACFF1F21C00C4000C00C4085
:1034B000024A136801331360704700BFA8ACFF1FB6
:1034C00008B5104C08E0236859050DD423681A0587
:1034D0000FD42368DB0411D423685803F3D500F01C
:1034E00007FC23685905F1D501F0F4FF23681A059C
:1034F000EFD502F091FB2368DB04EDD502F044FE2A
:10350000EAE700BF3480044008B5FFF7D9FF00BFE9
:10351000014B10221A80704700200540704700BF01
:10352000094908B50B6830B16A461844A2F58052C3
:10353000904202D20860184608BD03F0BFFB0C237E
:1035400003604FF0FF3008BD089AFF1FFEE700BF81
:10355000EFF3138070B9EFF310836BB9EFF30582CB
:103560005AB94FF48070EFF311832BB1984228BF02
:10357000184670474FF0FF3070470F2A01D81846A1
:10358000F1E7014BD05CEEE7F0E300E0704700BFED
:1035900010B40F4B53F8302092F880422CB1012325
:1035A00069B182F8803010BC704703EBC0035B68E0
:1035B0001A6841B922F002021A6010BC704782F802
:1035C000003110BC704742F003021A6010BC704713
:1035D000587A00001C4A02EBC00301295B6811D035
:1035E00004291BD052F83000002280F8802229B133
:1035F000022920D0032922D01A6070474FF480722C
:103600001A60704752F830004FF4A27280F88012AE
:103610001A601A6822F020021A60704752F83010BF
:103620004FF4A272012081F880021A601A6842F0F9
:1036300020021A60704740F203121A6070474FF47C
:1036400081721A60704700BF587A0000212817D88D
:10365000F8B5042A13D8DFE802F0494C4F144600AD
:103660002C4872B6236823F4702343F08072C4F3AD
:1036700084011643236040F82150266062B6F8BDED
:1036800070474FF41026244B03EBC0030D465C68D3
:10369000216811F4E06134D0204B214A2149C3F85C
:1036A0009C2104F140422048C3F8A411A2F59221C4
:1036B0001E4FC3F8A0017C291D48C3F8A871C3F8A8
:1036C000AC01CDD9A2F594237C2B18D9A2F5962371
:1036D0007C2B19D9A2F598237C2B17D9A2F59A2215
:1036E0007C2A15D9F8BD4FF43026CCE74FF40026DC
:1036F000C9E74FF44026C6E74FF42026C3E70D483C
:10370000AFE7FFF767FFC7E70B48AAE70B48A8E753
:103710000B48A6E70C9AFF1F587A00000094FF1F81
:10372000D199FF1F7999FF1FA599FF1F4D99FF1F81
:103730002199FF1F449AFF1F949AFF1FC49AFF1FED
:10374000E49AFF1F1A4B03EBC00010B4426802F169
:103750004043A3F592217C2905D9A3F594217C2926
:1037600013D8144900E0144972B61368134C23F0BF
:103770008773C2F3840023F4803343F080731360B3
:1037800041F8204062B610BC7047A3F596217C2911
:1037900009D9A3F598217C2907D9A3F59A237C2B75
:1037A000F1D80749E0E70749DEE70749DCE700BF52
:1037B000587A0000449AFF1F0C9AFF1F8D350000B5
:1037C000E49AFF1F949AFF1FC49AFF1F30B4054B61
:1037D000054D064C002210211A602A6020601960F5
:1037E00030BC704714D0034004D0034000D00340E5
:1037F000282838B52ED0002904464FDD5F4B1B78B2
:10380000012505FA03F28A4202D8212837D938BDAA
:103810000338C2B2012A3AD9202C4AD0192C48D0F8
:10382000574A126802FB011222FA03F31D2800F224
:103830009B80DFE800F0928B847D9999766F99994F
:103840009999999999999968615A53994C99999923
:1038500099999945494B1B780B2B08D90C2B1CBF08
:103860000C3B19410846BDE83840FFF701BEC3F1E3
:103870000C0399400846BDE83840FFF7F9BD2946DA
:10388000FFF786FE2946BDE83840FFF7A3BE3D4A54
:10389000126802FB011222FA03F3C7E72128B6D807
:1038A0000021FFF775FE20460121BDE83840FFF7F3
:1038B00091BE354A126802FB011222FA03F3B5E702
:1038C0003249334A0B604FF45173136038BD3149AC
:1038D000314A0B604FF45173136038BD2F49304AA1
:1038E0000B6040F24443136038BD2E492E4A0B60F2
:1038F00040F24443136038BD2C492D4A0B6040F21E
:103900004443136038BD2B492B4A0B6040F24443BB
:10391000136038BD29492A4A0B6040F244431360C2
:1039200038BD2849284A0B6040F24443136038BD33
:103930002649274A0B6040F24443136038BD2549AD
:10394000254A0B6040F24443136038BD2349244AA2
:103950000B604FF45173136038BD2249224A0B604B
:103960004FF45173136038BD212C3FF650AF7F29BF
:10397000D4BF00210121204693E700BFEC9AFF1F2E
:10398000088003400890034008800B4010800B40E3
:1039900048A0044018800B404CA00440188003400D
:1039A00008B004401080034004B00440408003404D
:1039B00018C004403880034014C0044028800340ED
:1039C00010B00440208003400CB00440308003401D
:1039D00010C00440488003401CC0044018900340BD
:1039E000349004401090034030900440212801D8C6
:1039F000FFF7CEBD704700BF212801D8FFF7EABD11
:103A0000704700BF2DE9F843054672B6204F214BA1
:103A1000214A1B683C68126862B6520102D5322BFB
:103A200088BF013495B3C3F5BB331C4EDFF86490F7
:103A3000DFF86480FF334FF47A72A6FB031302FBB6
:103A400004F404EB931472B6D9F800103A68D8F86D
:103A500000E062B6C1F5BB33FF33A6FB03031EF0E3
:103A6000806FC4EB93134FF47A7002D0322988BF71
:103A7000013200FB0233B3F57A7F04D3013D05D058
:103A800004F57A74DFE701F0AFF9DCE7BDE8F8830D
:103A9000A8ACFF1F18E000E004ED00E0ABAAAAAA62
:103AA000F8B52D4B2D49DFF8D0E0DFF8D0C02C4E13
:103AB0002C4D2D4C2D4A2E4F4FF4000018604FF026
:103AC000807018604FF0007018604FF080601860D0
:103AD0004FF0006018600020086028234BF6FF714B
:103AE000CCF80010CEF80030336013602B602360F8
:103AF0003B60B3629362092245F8242CC4F8D80FC6
:103B000005F57F65C7F8D41F07F5FF2707F5FA67A6
:103B1000C6F8F83F2B6006F5FF26C4F8D42F05F54C
:103B2000FD2504F5FF24386006F2F4761148316073
:103B300005F5FF6504F5FD642B6023600260FFF767
:103B4000A9FB3220FFF75EFF00F0FCFC4FF4AF70E2
:103B5000BDE8F840FFF756BF08E100E004800340ED
:103B600014800340248003402C8003401C800340C9
:103B70003480034000800B400C80034008800340E9
:103B8000431E032B14D872B60A4951F8230068B1BA
:103B900070B4094C058834F81320466841F8236056
:103BA000521B24F8132062B670BC704762B670478F
:103BB0000020704704ADFF1FDCAFFF1F0138032852
:103BC0000BD872B6074B53F8203043B100205B6826
:103BD0000130002BFBD162B67047002070471846B9
:103BE000F9E700BF58ADFF1FF0B472B61A491B4E7B
:103BF000012311F8014B194F9A00240742F00105E7
:103C000005D556F8324064B156F83520BAB10133C3
:103C1000052BEED162B6124B00221A70F0BC00F0F8
:103C20000DBD0F4C0F4D217847F8325007EB431371
:103C300008304A1E5860227062B6F0BC70470849CE
:103C4000094B0A7847F8353007EBC5030830013ACD
:103C500058600A7062B6F0E7907B00000080FF1F9A
:103C600081ADFF1F88004000C8004000431E032BA9
:103C70001DD81B4A400140F0100030B4104472B609
:103C8000184CE25C032A1BD8DFE802F00212151779
:103C900003220D88E25410F0080F14BFC8238823B4
:103CA00043EA054308310360416062B630BC7047A7
:103CB00008300222EDE70522EBE708300422E8E7AE
:103CC000094A52F8230038B1084A52F823004160EB
:103CD00042F8231062B6E9E742F82310034AF7E7F7
:103CE0000080FF1F90ADFF1F58ADFF1F68ADFF1F85
:103CF0002DE9F04FDFF800A3DFF800B387B044E010
:103D0000A84F4FEA930807EBC809013ED9F80420F1
:103D100003F00803F6B2A2F1080003F0FF04002B41
:103D200040F0FC8057F838301B0C99B222F8081C80
:103D3000002B00F0EA809C4B22F8064C42F8044C21
:103D400053F82620002A00F02982984D55F8263095
:103D50005860974C45F8260034F81630194424F87A
:103D6000161000F04BFC002800F01182914A924B93
:103D700019F0080F00F1080018BF1346C9F8040035
:103D800047F8383008238AF800309AF80040E4B247
:103D900060071AD5894B1B78A3B189490A7802F0CC
:103DA000FF0322B1013BDBB20B7003B900BE8549B2
:103DB0000A7802F0FF032AB1013BDBB20B70002B43
:103DC00000F0BB8104238AF8003004F0080303F0FC
:103DD000FF02002B00F0C6809BF80030DBB21E090A
:103DE0008ED19C086F4F57F8342007EBC401C2F303
:103DF0008302013A49680C2A00F28380DFE802F06E
:103E00007777818181818181408181810700086884
:103E10006D4B6E4D0193674B4A686D4E47F83430D9
:103E200081B240F28164684B6A6028600022012000
:103E3000A1421A603A61BA61307000F2E180B1F5D6
:103E4000D06F80F02582B1F5817F00F0DE8100F235
:103E5000C181802900F03482822940F0DC81A98868
:103E60005C4B042900F2D8815B4C89000B44227022
:103E700062701A78930740F122832070022023E2B7
:103E8000514B01931A683AB3544B514E5449188818
:103E900034780D784028864645F0020828BF4FF058
:103EA000400E002C84F001043470CEEB00000CBFF7
:103EB0008824C82407EBC80680B285F0010544EACF
:103EC0000E447260188047F8384072440D70002824
:103ED00000F0B780019B1A603C4B1A88B2F5A06FC6
:103EE0000FD100219A7859703E4B1A7009E0374A79
:103EF000108842F22102904200F0A8802D4A47F833
:103F00003420394A012313703CE72A4A2A4B19F01E
:103F1000080F18BF134647F8383033E700F08EFB20
:103F2000324A334952F82630002B00F03B81586862
:103F30008C5D42F8260003F10802C9F80420032C26
:103F400005D8DFE804F02C02292602228A551A88B7
:103F500019F0080F0CBF8823C82343EA024347F82F
:103F600038300FE7E00700F1EB80210600F12881EF
:103F7000A20706D51F4A204913780220DBB213702E
:103F80000870E30602D51C4B10221A7007B0BDE87A
:103F9000F08F04228A55DAE705228A55D7E70322F3
:103FA0008A55D4E70080FF1F04ADFF1FB0ACFF1F90
:103FB000DCAFFF1FC8004000880040008CADFF1F31
:103FC00015ADFF1F94ADFF1FACACFF1F78ADFF1FF9
:103FD00014ADFF1FC020074084ADFF1FC0ACFF1F02
:103FE00080ADFF1F982007409420074058ADFF1F69
:103FF00090ADFF1F88200740802007409020074099
:1040000042F22104A14200F0948043D8B1F5086F38
:1040100000F0A881B1F5106F40F0FD80B84AB94CAE
:10402000A978117004F1800503E00834AC4200F077
:104030009E81236A1906F8D5606A083800F0FEFAF6
:10404000F3E7BEF1400F18BF002243E7AE4ACD1D93
:1040500011F8013B02F8013FA942F9D1AB4A1268BD
:10406000862A00F01181AA49AA4E0A78307882F097
:104070000105002842F002020D700CBF8821C82102
:1040800047F8321007EBC20280F0010000213070C7
:10409000516033E742F22124A14240F0FE81DFF873
:1040A000BCC29D4B9D49AC78DCF800501D60814638
:1040B0000C700020029080468446044694490D7896
:1040C00045F0020E07EBCE03B9F1000F5C600CBFA8
:1040D0008824C82444EA080385F0010447F83E30E8
:1040E00032700C70DFF81CE28A4BDFF82482002863
:1040F00040F09880BCF1400F1BD144F0020407EB64
:10410000C403029FDFF8FCE15F60002A40F09F805B
:10411000020442F0880207444EF8342086F80090EA
:104120000D703B46402804D100207D4A0199108043
:104130000B607C4A01231370E3E600F0C7FB41E605
:10414000704B784872491A614FF0020E80F800E017
:10415000754F0A70754919609960754E754D764CAA
:104160009A610D213970FF213170DFF8F4E1297077
:104170002270724D724A8EF800109F27012406F8B3
:10418000047C5D600470DA6007B0BDE8F08F6D4AB2
:1041900047F83800137801331370F3E543F826002D
:1041A000694DD6E58B5D032B67D801A252F823F049
:1041B000853D0000853D000005420000FF410000F4
:1041C00059495C4B80220D2008701A70A2077FF5B8
:1041D000D8AECFE640F20232914240F05681A98833
:1041E00001F07F01042916D86A88A2B94E4C8900D3
:1041F0000C448146217841F00201217059E70123E6
:104200008B55BFE500238B55BCE5A98801F07F01E4
:10421000042940F24781444B0F221A70414A01237E
:1042200013706EE640287FF668AF44F002040EEB90
:10423000C401029E4E60AAB1444A83F800903346FE
:10424000403888F8005040334EF834206DE70204BF
:10425000029B86F8009042F0C8020D7003444EF8AD
:1042600034205FE783F80090029B304A88F80050C2
:10427000403840334EF8342057E719F0080F0CBF90
:10428000022303238B557DE5314A0F211170EAE6A5
:10429000304A5468002CBED06888B5F804E003E0CA
:1042A0000C325468002CB6D013888342F8D153885E
:1042B0007345F5D1000A03280CBF2078108903E06C
:1042C000254C022022706270EA88824280F00C81C4
:1042D0000F490D78402A45F0020E944607EBCE00B8
:1042E00028BF4FF0400C04EB0C0344600293CCEB6E
:1042F00002004FEA0C484FF001090022C824E9E609
:104300008CADFF1F0080FF1FE3AFFF1FE4AFFF1F57
:1043100080ADFF1F14ADFF1FECAFFF1FA4ADFF1F4B
:10432000C0ACFF1F94200740C02007408800400019
:10433000882007408020074098200740C4ACFF1F1A
:1043400018ADFF1F81ADFF1FB0ACFF1FC8004000BC
:1043500015ADFF1F947B000084ADFF1FA8ACFF1FAD
:104360008C200740684A694C12782270ACE7684993
:10437000684B694A02916949694C6A4D03940596F4
:104380004FF0000988461C4616460495206828B15F
:10439000456800F053F92846002DF9D10023236029
:1043A000049B30681A46002342F8293028B145683A
:1043B00000F044F92846002DF9D100223260029A1B
:1043C00098F800301146002241F8042B039A02911C
:1043D000023B4FF0000122F81910032B07D8DFE849
:1043E00003F0340234024FF0010388F8003009F181
:1043F0000109B9F1040F04F1040406F1040608F1FF
:104400000108C3D1484B059EDFF83091DFF83081B9
:1044100000211970012518F8013B09F8043B1A071F
:1044200018D4AC0044F0020244F00304002347F81F
:10443000323047F834303D4B994505F10105EAD15A
:1044400096F8009089F0010233E64FF0000388F8F7
:104450000030CCE700F0D2F8AC0007EB451300F1D8
:104460000802002837D05A60314B47F8343000F04A
:10447000C5F844F0010307EBC30200F1080100B3E3
:1044800051602C4A47F83320CCE7B1F5A06F7FF498
:10449000C2AE00224FF001090BE642F221329142F6
:1044A000F7D0B8E66A88002A7FF4B5AE224C8900BE
:1044B0000C448146217821F002012170F9E50220A7
:1044C00002E7194B44F001021B7847F83200164A04
:1044D00001331370A6E7144B134A1B78AC00013369
:1044E00047F834001370C2E74028844628BF4FF0D5
:1044F000400C04EB0C03CCEB00004FEA0C48029399
:1045000000224FF00109D9E58CADFF1F84ADFF1FDC
:1045100068ADFF1F04ADFF1F58ADFF1F90ADFF1F1B
:10452000DCAFFF1FB0ACFF1F81ADFF1FD4200740E1
:1045300088004000C8004000C0200740C420074059
:10454000907B00002DE9F843204C01F089FE002209
:1045500004F1880023461A605A60083383424FF002
:104560000001F8D11A4A1B4F13681B4D1B481C4E03
:10457000DFF87880DFF878C0DFF87890DFF878E04F
:1045800043F480231360C4F307233B70C4F3074351
:104590002B70240EFF2302F528320470114D88F889
:1045A000003011488CF80030D4323370012389F880
:1045B000003070268EF800104FF40074102107F8B8
:1045C000183C2E7004601170BDE8F8830080FF1F56
:1045D000348004409C200740B0200740B4200740AE
:1045E0001020074049E400E008E100E08020074097
:1045F00088200740942007400021074072B60D48EC
:104600000268B2FA82F30B2B10DC4FF00041D94064
:1046100022EA0102026062B6074803EBC303DB0033
:10462000C2180021C15010465160704762B6002088
:10463000704700BFF09AFF1FBC95FF1F0D4B0E4A3D
:10464000C31AA2FB03231B090B2B0CD80B4A1278AD
:1046500052B972B60A484FF00041026821FA03F3DA
:104660001A43026062B67047064A1278002AF0D0F8
:10467000FFF7BABABC95FF1F398EE33881ADFF1F33
:10468000F09AFF1F8CADFF1F38B50F4D286878B129
:1046900043880288C118013393420C7A02D24380C6
:1046A000204638BDFFF7CAFF002320462B6038BDE7
:1046B000064B1B782BB10320FFF762FA2860002815
:1046C000E6D14FF0FF3038BDA0ADFF1F8CADFF1F0E
:1046D00010B5094C206818B143881844007A10BD01
:1046E000064B1B782BB10320FFF74AFA2060002805
:1046F000F2D14FF0FF3010BDA0ADFF1F8CADFF1FFA
:10470000044B054A1B6890881BB11A885B88D31A32
:1047100018447047A0ADFF1FDCAFFF1F0B4B1B7889
:104720009BB110B50A4C206848B1FFF787FF002302
:1047300003202360FFF724FA30B1FFF77FFF032047
:10474000FFF71EFA0028F8D110BD70478CADFF1F8F
:10475000A0ADFF1F2DE9F04FDFF8F89083B00122E4
:1047600089F80020019169B3DFF8EC80364F019E93
:104770008346D8F80000B0B3344D4488C4F14001FA
:10478000B14228BF314604EB010E00221FFA8EFE13
:104790002A70761AA0F802E000F1080251B1013C3B
:1047A000224459441BF8014B02F8014F8B45F9D1C3
:1047B000B0F802E0BEF13F0F0BD8254A0521117079
:1047C000002ED6D10198002389F8003003B0BDE84F
:1047D000F08F4022028001460420FFF747FA0022B2
:1047E000C8F80020E9E73A782AB3184D4AF2F924CC
:1047F0004FF0010A07E0013C16D02A78A2B900F078
:10480000F3FA3A78BAB10420FFF7D8F90728F2D8BA
:1048100089F800A0FFF7F2FEC8F800000028ACD12C
:104820000C4B013C1870E8D101234FF0FF302B7086
:1048300003B0BDE8F08F00234FF0FF3089F800305F
:1048400003B0BDE8F08F00BF8CADFF1F9CADFF1F14
:1048500094ADFF1F95ADFF1F98ADFF1F00B583B04E
:1048600002AB012103F8010D1846FFF773FF03B0F7
:104870005DF804FBF8B5114B1B788BB1104E114D50
:10488000346801272F7064B10F4A638800271770BE
:10489000214623800420FFF7E9F9376000232B70BD
:1048A000F8BDFFF7ABFE084B28B1014604201C7091
:1048B000FFF7DCF9F2E71F70F0E700BF8CADFF1FD8
:1048C00098ADFF1F95ADFF1F94ADFF1F38B50E4B80
:1048D0001B7873B90D4C216861B103F0FF054B885B
:1048E0000B800420FFF7C2F9256038BD084B012278
:1048F0001A7038BDFFF782FE0028F7D00146BDE8E8
:1049000038400420FFF7B2B995ADFF1F98ADFF1FE7
:1049100094ADFF1FC029F0B428BFC02172B6114B5F
:10492000114E1860002333607360B360F36033612D
:104930007361012799B15D0903F01F0456F8252022
:1049400007FA04F4013322438B4246F82520F2D1C2
:104950000023437001338B4200F58270F9D162B6B7
:10496000F0BC7047B0ADFF1FB8ADFF1F70B472B69A
:10497000204B196821B9596821B30433202200E083
:1049800000221D4E3478B1FA81F54FF00040E84026
:104990000134E4B221EA00003470186062B6531B9F
:1049A00003EB83139A00154B1549186802F5FB5366
:1049B0001C330122C2540A78A242184438BF0C703A
:1049C00070BC7047996821B9D96829B10C3360224D
:1049D000D7E708334022D4E7196921B9596929B1C9
:1049E0001433A022CDE710338022CAE762B608460E
:1049F000E6E700BFB8ADFF1FB5ADFF1FB0ADFF1FAD
:104A0000ACADFF1F427872B60378012B03D9013B8E
:104A1000037062B6704770B456110A4D0A4C55F8CF
:104A200026102378D2434FF0004002F01F0220FAF4
:104A300002F21143013B45F82610237062B670BCA8
:104A4000704700BFB8ADFF1FB5ADFF1FC368B3B15E
:104A500030B401E0DB688BB1187A9042FAD1586823
:104A60005C7A006950F82450002DF3D140F82410EE
:104A7000087801300870DB68002BEDD130BC70473E
:104A8000437A8B4206D90369002253F8210043F888
:104A9000212070470020704738B5437A8B421AD9DD
:104AA000036953F82140002243F821209CB1237868
:104AB000012B0ED9FFF75AFF054628B14FF480723B
:104AC000211D0430FEF7AAFA2378013B2370284603
:104AD00038BD204638BD002038BD00BF4368427A4B
:104AE0005B7A9A420ED872B60168CA680AB90AE0BF
:104AF0001A46D368002BFBD1D060426801230B72A9
:104B0000137262B67047C860F7E700BF084B1A78A7
:104B100062B930B407480849D02505704FF0804489
:104B200001220C6010461A7030BC7047002070479C
:104B3000B4ADFF1F5EE400E008E100E01A491B4A43
:104B40001B48F8B50B681B4D046843F080730B607D
:104B5000136843F0010313602E6814B915E064690B
:104B60009CB1237A002BFAD023682F681B6820465B
:104B700098472B68E188DB1B1B099AB28B42A28005
:104B800088BFE2806469002CEBD10A4B0A4A1B689B
:104B900010880A4C9B1B1B0999B28342218001D9C2
:104BA0001180F8BDF8BD00BFFCED00E0001000E092
:104BB000A8ADFF1F041000E0B6ADFF1FD0ADFF1F72
:104BC000F0B572B699B902688AB103790F2B0ED885
:104BD000274C218841FA03F5ED070AD503F100734C
:104BE00003F59063B2EB431F03D162B6F0BD204CD6
:104BF0002188002341FA03F212F0010207D00133A9
:104C0000102BF7D162B6002203710260F0BD0125BE
:104C10009D402943218062B6164E174D174FDFF88D
:104C200064E0D9B20171346844F0020434602C6845
:104C300044F002042C60A6F580268224A5F5802588
:104C400003F100733C6003F59063223E243D0C4C5D
:104C50008EF800105B0131702970217003601A60BA
:104C60005A609A60DA601A615A619A61DA61F0BD3D
:104C7000D2ADFF1F408004403C80044000800040D3
:104C80001F8000401A80004003790F2B11D8094A79
:104C900010B4137072B6084904790A880123A3403E
:104CA00022EA03030B8062B61022002310BC0271BB
:104CB000036070471A800040D2ADFF1FF8B572B193
:104CC00006460F4614460025336817F8011B1B687B
:104CD00030469847013C0544F6D12846F8BD1546B4
:104CE000FBE700BF00B5064A036812885B6883B023
:104CF00001A9ADF804200222984703B05DF804FB37
:104D0000687B0000F0B507468BB0002A33D0012A3B
:104D100008BF0A2251B3212400E0F4B2B1FBF2F53E
:104D200002FB1511C8B2092900F1300198BFC8B2C1
:104D30000AA988BF3730214488BFC0B201F8240CCB
:104D4000661E2946002DE8D133B1013CE4B20AAB1E
:104D500023442D2203F8242C3B6801AA11195B6817
:104D60003846C4F1220298470BB0F0BD30228DF8CE
:104D700025202124E8E70368C9B21B6898470BB0D7
:104D8000F0BD00BF0029BABF49422D2300230A22EB
:104D9000FFF7B8BF08B5FBF791FBFBF7FBFB00F093
:104DA00023F8FAE7FFF7BABCFFF764BDFFF790BC42
:104DB000FFF76ABCFFF7A4BC08461146FFF7CABC60
:104DC0000846FFF74BBD00BF704700BF044B054AC4
:104DD0001A604FF47A71002299601A711A73704741
:104DE000D4ADFF1F747B000010B5154C237803B1C0
:104DF00010BD01232370FFF783FC58B900F0E8FAD7
:104E000070B900F087FE88B901F050F9A0B900230D
:104E1000237010BDFFF7D8FF00F0DAFA0028F0D0B9
:104E200001F0D4FA00F076FE0028EDD001F082FB0C
:104E300001F03CF90028EAD001F030FCE7E700BFC0
:104E4000E4ADFF1FF0B44D1E2E46002400E00134F7
:104E5000B0FBF2F302FB1300092800F130078ABF10
:104E60003730F8B2C0B206F8010F1846002BEED169
:104E70000A1953704CB1107815F8016F287001337E
:104E8000E01A834202F80169F5DB0846F0BC70477E
:104E90002DE9F84F214B1B6807460BB101221A7010
:104EA000DFF888901E4D99F80040DFF884801D4E91
:104EB00001343F2C8ABF4FF0000A5FFA84FA54464F
:104EC000AB462B78A34216D1FEF742FB40281FDCED
:104ED00033791B06F5D59BF8003001333F2B86BF95
:104EE00000221346DAB218F80330DBB2F3712A70ED
:104EF0002B78A342E8D00C490A4BFFB208F80470A3
:104F00000120BC22087089F800A0DA70BDE8F88F93
:104F1000FF28D6DDFFF768FFD3E700BF78AEFF1F9D
:104F200075AEFF1F00A0064074AEFF1F7CAEFF1FD2
:104F3000F0ADFF1F274A28491368F0B543F480639A
:104F400013600A78254F264E264D274C274900230B
:104F50003B7033702B7023700B70002A35D0152AEC
:104F600026D0234B1B78012B2AD0052B03D1214BB4
:104F70004FF451721A60204B204C2149C0F3443643
:104F8000C0F347151E7000F01F005D7004224FF043
:104F9000020E88273C26402598729A704FF40050E4
:104FA00083F813E05A751F74DE7025700860F0BD39
:104FB000144B40F213321A600D4B1B78012BD4D1E5
:104FC000114B4FF451721A60D5E7104B40F2133277
:104FD0001A60C6E73480044030AEFF1FECADFF1FFF
:104FE000EDADFF1F7CAEFF1F75AEFF1F74AEFF1F40
:104FF000F49AFF1F1CC0044000A006402DE400E00E
:1050000004E100E018C0044044A0044040A0044073
:10501000144B14499B7803F0EC0200F00303134394
:10502000420700F00F0248BF43F01003042A8B70C0
:1050300013D00C4B0B4A5B79C10603F0EF0348BF5A
:1050400043F0100353719379820603F0EF03054A8E
:1050500048BF43F01003937170478B7943F04003CE
:105060008B71E6E700A00640214B1B685B053ED52F
:1050700010B5204C237823B1FFF7B6FE2378002B20
:10508000FAD11D481D4A1E4B4FF400540021046004
:10509000D1701B78E3B1152B03D11A4B40F20312E8
:1050A0001A60194B1B7803F07F03012B1AD0052BD4
:1050B00003D1164B40F203121A60154B15481649DE
:1050C0001A68002303700B700AB10123137010BD1E
:1050D000124B40F203121A600B4B1B7803F07F0354
:1050E000012BE4D10E4B40F203121A60E5E7704742
:1050F0003480044074AEFF1F84E100E000A006404D
:1051000030AEFF1F18C00440F49AFF1F1CC00440BB
:10511000E8ADFF1FECADFF1FEDADFF1F40A0044049
:1051200044A004400A4A38B50546137803F0FF044A
:10513000002BFAD101212846FEF75EFC21462846C5
:10514000FEF754FC034A044B52F835201A6038BD70
:1051500074AEFF1F587A000078AEFF1F09B140F00F
:105160008000174A1378984216D010B4154C246862
:1051700064050FD503F07F03012B1CD0052B11D044
:10518000002900F07F0114BF6023442301290DD0C2
:10519000052902D0107010BC70470B4943F44073CE
:1051A0000B60F7E7084B00241C60E9E7074943F46C
:1051B00040730B60EEE7054B00241C60E0E700BF86
:1051C000F49AFF1F348004401CC0044044A00440F3
:1051D000104B1A7882420AD00F490968490505D553
:1051E000AAB1152A09D068B1152801D018707047E6
:1051F0000A4A40F213311160F8E7084A00211160B1
:105200000028F1D1064A40F213311160EEE704495B
:105210000A60E8E730AEFF1F3480044018C0044045
:1052200040A004400D4B1B6813F4806305D0212877
:1052300005D90B4B00201860704718467047094B82
:1052400010B5074C53F8303023600121FEF7D4FB32
:10525000236800221A70012010BD00BF3480044072
:10526000E8ADFF1F587A00000F4B1B6813F48063F2
:1052700008D0122808D0142811D00C4A537B03F010
:10528000FE03537300207047094B40F202321A604C
:10529000064A537B43F00103537301207047054BCB
:1052A00040F202321A60F3E73480044000A0064066
:1052B0000CA0044014C00440034B1B685B0501D5DF
:1052C000FFF7E6BD704700BF348004402DE9F84F7A
:1052D000294B1B685A0548D5284B1B6805460BB15E
:1052E00001221A7005EB010A554540D2DFF89C8077
:1052F000234CDFF89C90234F0AE015F8012B09F8A6
:105300000B20214A0123AA45137088F800602ED093
:1053100098F80030227803F1010BBBF13F0F86BFF4
:105320000026B3465FFA8BF69345E6D1BC22FA70AD
:1053300005E03A7913060BD422789345DDD1FEF7C8
:1053400007F94028F5DDFF28F6DDFFF74DFDF3E70F
:10535000227801323F2A86BF00210A46D1B219F8CD
:105360000220D2B2FA712170E6E7BDE8F88F054B52
:10537000BC22DA70BDE8F88F3480044078AEFF1F9D
:1053800075AEFF1F00A0064074AEFF1F7CAEFF1F6E
:10539000F0ADFF1F10B5044C237823B1FFF724FDB7
:1053A0002378002BFAD110BD74AEFF1F064A074BBD
:1053B0001B781078DBB2C0B283422CBF3F3000F1C3
:1053C000FF30C01A704700BF75AEFF1F7CAEFF1FD5
:1053D000054A064B10781B78C0B2DBB2984238BF42
:1053E0004030C01A704700BFECADFF1FEDADFF1F8E
:1053F00030B4154B154C1A782378D2B2DBB29A42EE
:105400001ED001333F2B0ED91149124B0878196871
:105410000023C0B2237021B1D31A1A2B01DC002360
:105420000B7030BC70470A480A49C05C0968DDB29D
:10543000C0B225700029F4D09A4238BF4032EBE761
:105440004FF0FF30EDE700BFECADFF1FEDADFF1FEC
:1054500034AEFF1FE8ADFF1F084A094B12781B78D6
:10546000DBB29A4207D00133402B28BF0023054A04
:10547000D05CC0B270474FF0FF307047ECADFF1FFB
:10548000EDADFF1F34AEFF1F0D4B1B685B0516D53E
:1054900030B40C4B0C4CDA780C480D4902F0CB02BE
:1054A0004025DA705D74DA7842F03402DA702378DD
:1054B0000268DBB20B700AB10023137030BC704776
:1054C0003480044000A00640EDADFF1FE8ADFF1F93
:1054D000ECADFF1FF0B4384B1A7912F0300F2CD01E
:1054E00072B6997D01F0FF0200293DD062B6334FBC
:1054F000334938780D78334E1C46C0B2EDB2431CA8
:10550000402BE17928BF0023AB4202F1FF32C9B240
:105510001CBFF154184612F0FF02F0D12A4B1B6851
:10552000C2B23A704BB1A84236BFC5F14005401B2C
:1055300040192728C4BF01221A701F49CA78D2B265
:10554000150616D452060DD51B4B1B795B0609D5E3
:105550001E4B1F491B6800220A7003B11A70164BBC
:105560003C22DA70F0BC70474022D9795A7462B696
:10557000E3E70B791C06E5D5164B174E1C783378FC
:10558000E4B2DBB29C420ED0144D01E0A3420AD03B
:105590000133402B28BF00230879E85CC0B2C871F2
:1055A000087D0728F2D9DBB2034933700B7918065E
:1055B00044BF7C23CB70C5E700A00640ECADFF1FC5
:1055C000EDADFF1F34AEFF1FE8ADFF1F78AEFF1F2C
:1055D00074AEFF1F7CAEFF1F75AEFF1FF0ADFF1F47
:1055E000274A28491368F0B543F4006313600A782A
:1055F000254F264E264D274C27490023092A3B706C
:1056000033702B7023700B7035D01A2A26D0234BA1
:105610001B780A2B2AD01F2B03D1214B4FF4517238
:105620001A60204B204C2149C0F34436C0F3471583
:105630001E7000F01F005D7004224FF0020E8827DC
:105640003C26402598729A704FF4004083F813E08E
:105650005A751F74DE7025700860F0BD144B40F25F
:1056600013321A600D4B1B780A2BD4D1114B4FF417
:1056700051721A60D5E7104B40F213321A60C6E738
:1056800034800440F59AFF1FF0AEFF1F85AEFF1F68
:10569000F8AEFF1FF1AEFF1F84AEFF1FF69AFF1F8B
:1056A00000D0044000B006402FE400E004E100E038
:1056B00004D0044010B004400CB00440144B144912
:1056C0009B7803F0EC0200F003031343420700F061
:1056D0000F0248BF43F01003042A8B7013D00C4B09
:1056E0000B4A5B79C10603F0EF0348BF43F0100398
:1056F00053719379820603F0EF03054A48BF43F0E4
:105700001003937170478B7943F040038B71E6E788
:1057100000B00640224B1B681B053FD510B5214C3D
:10572000237823B1FFF760FB2378002BFAD11E48C2
:105730001E4A1F4B4FF4004400210460D1701B78B7
:10574000092B1CD01A2B03D11A4B40F203121A60FA
:10575000194B1B7803F07F030A2B1AD01F2B03D1A0
:10576000164B40F203121A60154B164816491A6878
:10577000002303700B700AB10123137010BD134B8B
:1057800040F203121A600C4B1B7803F07F030A2BC4
:10579000E4D10F4B40F203121A60E5E7704700BFF7
:1057A0003480044084AEFF1F84E100E000B0064076
:1057B000F59AFF1F04D00440F69AFF1F00D0044062
:1057C00080AEFF1FF0AEFF1F85AEFF1F0CB0044080
:1057D00010B004400A4A38B50546137803F0FF04B8
:1057E000002BFAD101212846FEF706F9214628466A
:1057F000FEF7FCF8034A044B52F835201A6038BD16
:1058000084AEFF1F587A0000F4AEFF1F09B140F0CC
:105810008000174A1378984216D010B4154C2468AB
:1058200024050FD503F07F030A2B1CD01F2B11D0AA
:10583000002900F07F0114BF602344230A290DD002
:105840001F2902D0107010BC70470B4943F44073FD
:105850000B60F7E7084B00241C60E9E7074943F4B5
:1058600040730B60EEE7054B00241C60E0E700BFCF
:10587000F69AFF1F3480044000D0044010B004406A
:10588000124B1A7882420CD011490968090507D5D4
:10589000092A16D01A2A0AD009280DD01A2801D0B0
:1058A000187070470B4A40F213311160F8E7094A4B
:1058B000002109281160F1D1074A40F2133111602B
:1058C000EEE7054A00211160E6E700BFF59AFF1FE9
:1058D0003480044004D004400CB004400D4B1B68DD
:1058E00013F4006305D0212805D90B4B0020186064
:1058F000704718467047094B10B5074C53F83030C5
:1059000023600121FEF778F8236800221A70012035
:1059100010BD00BF3480044080AEFF1F587A0000E5
:105920000C4B1B6813F4006306D0172806D00A4AF4
:10593000537B03F0FE03537300207047074B064A66
:1059400040F202311960537B43F00103537301208D
:10595000704700BF3480044000B0064008B00440E7
:105960002DE9F84F234B1B681A053BD5224B1B68CA
:105970000BB101221A70DFF89090204D99F8004089
:10598000DFF888801E4E0134272C8ABF4FF0000AB2
:105990005FFA84FA54460746AB462B789C4216D1F0
:1059A000FDF7D6FD40281FDC33791B06F5D59BF8A3
:1059B00000300133272B86BF00221346DAB218F8D5
:1059C0000330DBB2F3712A702B789C42E8D00D498A
:1059D0000B4BFFB20120BC2208F80470087089F854
:1059E00000A0DA70BDE8F88FFF28D6DDFFF7FCF9DC
:1059F000D3E700BF34800440F4AEFF1FF1AEFF1FB9
:105A000000B0064084AEFF1FF8AEFF1F88AEFF1F38
:105A10002DE9F84F294B1B681A0548D5284B1B6800
:105A200005460BB101221A7005EB010A554540D21B
:105A3000DFF89C80234CDFF89C90234F0AE015F898
:105A4000012B09F80B20214A0123AA45137088F87D
:105A500000602ED098F80030227803F1010BBBF1E2
:105A6000270F86BF0026B3465FFA8BF69345E6D133
:105A7000BC22FA7005E03A7913060BD422789345DC
:105A8000DDD1FDF765FD4028F5DDFF28F6DDFFF7E8
:105A9000ABF9F3E722780132272A86BF00210A46B4
:105AA000D1B219F80220D2B2FA712170E6E7BDE84E
:105AB000F88F054BBC22DA70BDE8F88F34800440C3
:105AC000F4AEFF1FF1AEFF1F00B0064084AEFF1F13
:105AD000F8AEFF1F88AEFF1F10B5044C237823B12A
