:1000000000800020BD010000D97100009171000046
:1000100091710000917100009171000091710000D8
:10002000917100009171000091710000D971000080
:10003000D971000091710000F1660000F5670000C1
:10004000D9710000D9710000D9710000D971000088
:10005000D9710000D9710000D9710000D971000078
:10006000D9710000D9710000D9710000D971000068
:10007000D9710000D9710000D9710000D971000058
:10008000D9710000D9710000D9710000D971000048
:10009000D9710000D9710000D9710000D971000038
:1000A000E15A0000ED5A0000D9710000D97100003A
:1000B000D9710000D9710000D9710000D971000018
:1000C000D9710000D9710000D9710000D971000008
:1000D000D9710000D9710000D9710000D9710000F8
:1000E000D9710000D9710000D9710000D9710000E8
:1000F000D971000031880000D97100005D890000CD
:10010000D9710000898A0000D9710000D9710000FE
:10011000D9710000D9710000D9710000D9710000B7
:10012000D9710000D9710000D9710000D9710000A7
:10013000D9710000D9710000D9710000D971000097
:10014000D9710000D9710000D9710000D971000087
:10015000D9710000D9710000D9710000D971000077
:10016000D971000035780000D9710000D971000004
:10017000D9710000D9710000D9710000D971000057
:10018000D9710000D9710000D9710000D971000047
:10019000D9710000D9710000D9710000D971000037
:1001A000D9710000D9710000D9710000D971000027
:1001B000D9710000D9710000AD640000564B4CF2BB
:1001C000205210B51A804DF628121A8000BF00BFC9
:1001D00007F006F8514B4FF010621A60504A9A60CF
:1001E000504ADA60504A136813F4807304D14F49BF
:1001F0000B604FF4A85313604D4B1A78110703D5C9
:100200001A7842F008021A704A4B4B492A221A7097
:100210004A4A4B4B8B4204D252F8040F43F8040B6A
:10022000F8E7484B484900228B4202D243F8042B9E
:10023000FAE74649464A002352F8230041F82300D2
:1002400001336F2BF8D1434B434A802103F8011B44
:100250009342FBD1414B3D4A1A60414B8A221A70AE
:10026000A3F5805324225A70A0221A709A7992071B
:10027000FCD59A79D406FCD43A4A937903F00C035E
:10028000082B384BF9D103221A7140225A719A79FE
:100290009006FCD5334A9179324B4906FBD5324A58
:1002A000324911600221516020221A709A7902F0BD
:1002B0000C020C2AFAD12E4B2E4A1A602E4B2F4AD2
:1002C0001A6000225A60072243F8042C2C4AC3F813
:1002D0000C2D62B607F064F9144B1B68DA0705D5DC
:1002E000284807F0E3F8284B284A1A60284B1B7867
:1002F0005B0609D5244C254B22689A4204D121483B
:1003000007F0D4F8002323600AF064FE06F06EFFC5
:1003100006F09CFEFEE700BF0E2005403080044042
:10032000823F04000100002B10D0034014D0034092
:1003300002D0074000E0074060B0FF1F68D7000010
:1003400020A3FF1F60B0FF1F94360020009EFF1FF8
:100350000000000000E400E05FE400E008ED00E0E1
:100360000050064000400640448004400000030165
:1003700004800440C010050014E000E0FF76010096
:1003800000002020B0737A5C1CE00340A5C3945A9F
:1003900000F00740FFFFFFFFFFFFFFFFFFFFFFFF32
:1003A000FFFFFFFFFFFFFFFFFFFFFFFFFFFFFFFF5D
:1003B000FFFFFFFFFFFFFFFFFFFFFFFFFFFFFFFF4D
:1003C000FFFFFFFFFFFFFFFFFFFFFFFFFFFFFFFF3D
:1003D000FFFFFFFFFFFFFFFFFFFFFFFFFFFFFFFF2D
:1003E000FFFFFFFFFFFFFFFFFFFFFFFFFFFFFFFF1D
:1003F000FFFFFFFFFFFFFFFFFFFFFFFFFFFFFFFF0D
:10040000FFFFFFFFFFFFFFFFFFFFFFFFDEF9FFFF23
:1004100010B5054C237833B9044B13B10448AFF33E
:1004200000800123237010BD60B0FF1F000000009A
:100430006CD70000084B10B51BB108490848AFF352
:1004400000800848036803B910BD074B002BFBD0A0
:10045000BDE81040184700BF0000000064B0FF1F57
:100460006CD7000060B0FF1F00000000F0B40E4A1F
:100470000E4DC16000244FF07E56102728210260E7
:1004800000220781466104618461C461056245629E
:1004900080F82B10426080F8282080F8292080F80E
:1004A0002A20F0BC704700BF0000C8C218FCFFFF44
:1004B00070B50E46044680F8293011463046154680
:1004C0000AF022FD10B325616661294630460AF024
:1004D00055FA4FF07E510AF053FA014606464FF0A6
:1004E0008C400AF009FC1249A061054630460AF02A
:1004F000EDFC10B194F829306BB910232381294603
:100500004FF07E500AF0F8FBE06170BD2661656136
:1005100031462846DBE7012384F828304FF07A5132
:1005200028460AF035FB0AF01FFD2081E7E700BFEF
:100530000000484380F82A10704700BF2DE9F041C1
:1005400090F82A50044690F82B0025B300266660E8
:10055000002800F08380207B06F070FC636894F82C
:100560002B2001361844B2426060F4DC218990FBF4
:10057000F2F0636A60608842B8BF0020A0EB03031A
:10058000B8BF6060002BB8BF5B42994240DB0025DA
:100590002846BDE8F081656000285DD0207B06F02C
:1005A0004DFC636894F82B6001351844AE426060DE
:1005B000F4DC94F8295090FBF6F66660002D34D0F8
:1005C00030460AF091FAE1690AF0E2FA0AF0A6FC74
:1005D0000AF08AFA21690AF0D3F90AF09FFC8046F2
:1005E0000AF082FA216807460AF066FC0028CED19C
:1005F000636A2289F31A002BB8BF5B42934202DC84
:1006000018F1630FC3DB666227602846BDE8F081FE
:1006100060620AF069FAE1690AF0BAFA21690AF03F
:10062000AFF920602846BDE8F081236A2289F31AD9
:10063000002BB8BF5B429342A9DD30460AF054FA62
:10064000E1690AF0A5FA21690AF09AF9012520600A
:1006500026622846BDE8F0810646AAE7024685E7FD
:1006600070B504460E4641F6AC5519210C4805F00C
:10067000ABFDB17C665104F1100001F003FF63593A
:1006800004F56360997C01F0FDFE04F5E55341F645
:100690009C514FF4803200209A61DA61605470BD41
:1006A0000082FF1F70B5036893F8D52D82B0044611
:1006B00002F0FF0542B141F6AC528258927C002A0A
:1006C0002DD1284602B070BD184941F6AC520968D8
:1006D000019141F69050A1582658019AC888921B62
:1006E000904213D2606890F8D42D12B101F0BAFF95
:1006F00023689A8C92B20A2A8ABF41F69C539B8C3B
:100700000122284688BFE25402B070BD0A7B002A4D
:10071000EFD1606890F8D42D002AE7D1E9E71846B8
:1007200001F08CFF0025284602B070BDBC330020CC
:100730002DE9F04F41F6AC5987B050F80970BB7CF9
:1007400004460D468BB141F69853C05868B13B7EC4
:10075000012B00F0BE80022B00F00B81032B04D094
:100760008F4E002004F5ED5118E0D5F810802B7F56
:100770008B4EDFF84CE208FB02F0400B04F5ED5124
:10078000C3F341031EF80330DB10B0FBF3F203FBAD
:100790001203C01AB0FBF8F308FB1300336803938D
:1007A00041F698523B7DA86103980860D4F8008018
:1007B000A5508BB17B7DD8F81C90002B6BD079496C
:1007C00048460AF0A1FB002865D0DFF8F89163687D
:1007D000C8F81C90C3F81C90FB7D002B69D104F174
:1007E0001000404500F0B78004F5E35204F5E253F1
:1007F0001832103304F5636184E80F006A4B4FF040
:10080000804241F6AC581A60294601F0F1FE54F8D6
:1008100008301A7BAAB96549A06805F0F1F90122F0
:100820006249E06805F0ECF93368059341F69053AE
:10083000059AE2505E4B4FF080421A6007B0BDE867
:10084000F08FDA885B4FA068C2EBC202C2EB821164
:100850000531A7FB01314FF0FF350022C908B5FB78
:10086000F1F105F0CDF954F80830E068DB88C3EB0E
:10087000C303C3EB83110531A7FB01310122C90872
:10088000B5FBF1F105F0BCF93368049341F69053E0
:10089000049AE250CEE7484948460AF035FB002862
:1008A00095D06368DFF82091C8F81C90C3F81C90BD
:1008B00092E73D4B4FF080461E602946404601F0CE
:1008C00097FE606801F0CEFE394B1E6007B0BDE8B0
:1008D000F08F334E027F3368019304F5ED51DDF85C
:1008E0000490D1F800C0DFF8E480DFF8D4E0334BA7
:1008F000C2F3C20BC2F3410ACCEB090958F82B2012
:100900001EF80AA04FEA490902FB09F98269A3FB14
:10091000099302EB93134FEAEA0AB3FBFAF20AFBDC
:10092000123283610AB19B1A83612B7F3268029273
:10093000C3F3C202029858F82220DFF88090D5F85D
:100940001080CCEB000C02FB0CF0AA69A9FB00C0E4
:1009500002EB901014E704F5E25204F5E353103271
:10096000183304F56360C4F80480A260E36020607B
:1009700044E720680A4E02F08DFAD5F81080074649
:1009800040460AF0ADF839460AF002F90AF0ECFAEE
:1009900054F809702B7FDFF828E004F5ED51EFE6FD
:1009A000BC3300200AD7634088E100E02EBAE80299
:1009B00008E100E0CDCCCCCCE3A58F40D34D621054
:1009C000D8CC0000F111644071AC8F40DCCC000049
:1009D00038B541F6AC530546C3585B7D0C4653B160
:1009E0000B4920460AF090FA28B10A4C95E80C0011
:1009F000D461DC6138BD084920460AF085FA002838
:100A0000F4D095E80C00054CD461DC6138BD00BF22
:100A10000AD76340F1116440E3A58F4071AC8F4069
:100A20002DE9F04141F69853174AC658337F37698C
:100A3000C3F3410382B005460846D45C0AF050F87F
:100A40004FF064510AF0A4F8E4108046B7FBF4F0CC
:100A50000AF046F8014640460AF09AF80AF084FA8D
:100A600004FB00F0B0FBF7F107FB1101B16128684E
:100A700001F07AFD054B1B68019305F5ED55019BCF
:100A80002B6002B0BDE8F081D8CC0000BC33002060
:100A900072B600F5E6501830037F03F0FF020BB189
:100AA0000023037762B6E2B110B572B647F6FF7461
:100AB0004FF40041B0F91E20B0F92030C483018406
:100AC00062B6002B82EAE270A0EBE270B8BF5B4234
:100AD0009842B8BF18460AF007F803490AF00CF923
:100AE00010BD0020704700BF00FEFF4605F0D8BFD4
:100AF0002DE9F0470646002500F5B44746F8045BAB
:100B00008046043706F1200406F5C069304600E04F
:100B10002034002105F022FFA1454FF0000A44F8DF
:100B20000C5C44F8085C04F8045C2046F0D1BE423A
:100B300001D04E46E6E746F24403302208F5C040B5
:100B400008F803201449483005F008FF08F5C040B4
:100B50001249583005F002FF08F5C04010496830CE
:100B600005F0FCFE08F5C0400E49783005F0F6FEB1
:100B700008F5C1400C49083005F0F0FE46F29C0330
:100B800008F5C14008F803A05146203005F0E6FE04
:100B90004046BDE8F08700BFF4CC0000F8CC000070
:100BA000FCCC000000CD000004CD000070B500F5C5
:100BB000C046043600F5C045041D55F8041F064B19
:100BC000002920464FF0200204F5C06401DD0AF040
:100BD00009FEB442F1D170BDED0A000038B50446FB
:100BE00000F5C1401830154602F02EFE78B146F2ED
:100BF0009C03E35C63B12B7F13F001001CD1164909
:100C0000C3F341028A5CD210022A18D038BD38BD25
:100C10002B7FDA0712D51149114AC3F3C20451F8E8
:100C200024109142F3D9C3F341030B4AD05CC010A6
:100C3000033818BF012038BD002038BD38BD074A31
:100C4000C3F3C2034AF6444052F82330181AB0FAEC
:100C500080F0400938BD00BFF0CC000034CD00006A
:100C6000905F01002DE9F04700F5C14888B00746C4
:100C7000894608F12008002605E0684603F03AF9A5
:100C8000684603F00FF968460122494603F012FB5B
:100C9000684603F03DF9002849D0684603F004F99E
:100CA0000146404605F094FE684603F0FFF8002830
:100CB000E3D12E21404605F065FF0130DDD107EB81
:100CC000860404F5C0440434236806EB460503EBB0
:100CD000051507EB451505F1040A524669463846E5
:100CE000FFF77CFF50B923682F2BC6DD01360F2E8E
:100CF0001ADC3B689E42C8BF3E60BEE73023AB6152
:100D00009AF81C3043F004038AF81C306B69063BE8
:100D10006B61684603F0C8F80146504605F058FE7E
:100D2000236801332360DFE7684603F0E3F8684691
:100D300003F0B8F808B0BDE8F08700BF2DE9F04F28
:100D400000F5C145A84693B081468A46203508F192
:100D500008080AA80122514603F0ACFA0AA803F0D9
:100D6000D7F8002800F0AE800AA803F09DF80146ED
:100D7000284605F02DFE5C4906A805F0EFFD06A902
:100D8000284605F0DFFE044606A805F0A7FD9CB93D
:100D90000AA803F08BF8002861D109F5C044483453
:100DA0006FF001062146284605F0D6FE58B91034EA
:100DB000444506F10106F5D10AA803F09BF80AA8FC
:100DC00003F070F8C5E7404605F0ECFE024609EB7B
:100DD000800B0BF5C04B0F2A0BF1040B0AA802EB9A
:100DE000420733DCD9F800108A42C8BFC9F8002096
:100DF000DBF8003003EB071709EB4717012E07F16B
:100E0000040365D9019303F071F8019B78611A7F9F
:100E100042F012021A77414606A8019305F0B2FD8E
:100E2000324906A805F01EFE294605F013FE019B77
:100E30000146184605F0C4FD06A805F04FFDDBF895
:100E400000300133302BCBF80030B0D10AA803F0CA
:100E500051F80AA803F026F813B0BDE8F08F244932
:100E600002A805F07BFD02A9284605F06BFE48B1FB
:100E700002A805F033FD0AA803F03CF80AA803F025
:100E800011F866E71B4906A805F068FD06A9284683
:100E900005F058FE044606A805F020FD02A805F05E
:100EA0001DFD002C88D12946404605F089FD0AA980
:100EB0004846FFF743FF0AA803F01CF80AA802F00F
:100EC000F1FF46E70AA802F0EDFF13B0BDE8F08F8E
:100ED0001A460AA948460193FFF780FE019B0028A5
:100EE0003FF465AF97E700BF10CD000024CD0000B0
:100EF00014CD00001CCD0000537D70B5144646F2A1
:100F00009C0283F0010305460E4683541BB946F24A
:100F100044032022C2540D490D4803F0B3F9314671
:100F200050B92846FFF70AFFE37C03B970BD284695
:100F3000BDE87040FFF73ABE2846FFF793FE012355
:100F40000022A274E375237570BD00BF28CD000098
:100F500070300020014B01221A7070477CB0FF1FD7
:100F600070B50446A0F8E810481E09F0BDFD002544
:100F70000246294604F120000123FFF799FAB4F84C
:100F8000E800013809F0B0FD29460246012304F1CA
:100F90004C00BDE87040FFF78BBA00BF2DE9F04F61
:100FA00083B01D4604460D2090460C9E05F012FFAE
:100FB0000121082006F0A0FAA97D092006F09CFA7C
:100FC00004F1D00702224449092006F0AFF938465F
:100FD000082105F07DF83846052105F09DF86B895C
:100FE0002F7D84F8F870DB0098B2A4F8E200002F9F
:100FF00049D14FF4005A9AFBF0F009F075FD04F165
:10100000A40902463B4600214846FFF751FAB4F8CE
:10101000E2009AFBF0F009F067FD04F1780B3B4623
:10102000024600215846FFF743FA48460121FFF7E0
:1010300081FA58460121FFF77DFA2023A4F8803079
:10104000A4F8AC30A97BE87B2A7C6B7C84F8E73081
:1010500084F8E41084F8E5001FFA88F184F8E620AB
:101060002046FFF77DFF1D4BE6611A68019201994A
:101070001B680093009AC4F8DC100023A26123745B
:1010800003B0BDE8F08F2B7995F8039084F80090B9
:101090006370287809F028FD4FF07C5109F070FC4E
:1010A0000746687809F020FD394609F069FC4B468F
:1010B0000246394604F17800FFF7FAF96378084AE6
:1010C000002104F1A400FFF7F3F94023A4F88030D5
:1010D000A4F8AC30B6E700BF550F0000BC330020C9
:1010E000000040422DE9F04104462030FFF726FA87
:1010F000064604F14C00FFF721FA05460EB9002818
:1011000038D0E16C206A09F03BFC00210746B4F8B6
:10111000E88009F0DBFE58BB08F1FF3009F0E4FC81
:1011200080460146384609F0EFFE88B1404609F096
:10113000F5FEE3695A78824211D0987094F8E43051
:1011400083B17DB1E3690122DA700420BDE8F0814A
:10115000384609F0E3FEE3695A788242EDD1002077
:10116000BDE8F08194F8E53033B90420BDE8F081A2
:101170000020DEE7BDE8F081002EF6D0E2E700BFF8
:10118000F8B504467830FFF7D9F9064604F1A40013
:10119000FFF7D4F978B394F8E630002B14BF092593
:1011A00001252EB194F8E73063B345F00A05ADB2DE
:1011B000B4F8E20009F098FCA16F074609F0E8FCDA
:1011C000D4F8A4100646384609F0E2FC0146304641
:1011D00009F0D6FB0021064609F078FEB0B94FF0C1
:1011E0008C41304609F090FE38B9304609F0BCFE1B
:1011F00060612846F8BD0546D3E74FF400506061B2
:101200002846F8BD45F00205ADB2D1E70020606187
:101210002846F8BDF8B504467830FFF78FF9054643
:1012200004F1A400FFF78AF90746C5B9002858D091
:10123000D4F8A4606378002B4ED0304608F0FEFF4F
:1012400007F05AFD09F046FBD4F8F010A0600646FE
:1012500009F032FED8B945F48065ADB217E02378C5
:10126000D4F8A460A06F9BB308F0E8FF07F044FD3A
:1012700009F030FBD4F8F410606009F01DFE00287E
:101280000CBF4FF400750025002FD3D1A66861680C
:10129000304609F075FBE06008F0D0FF07F02CFD48
:1012A0000646D4F8EC000F4608F0C8FF02460B468D
:1012B0003046394609F07EFA40B93046394609F0E1
:1012C00009FB45F40065ADB2C4F8EC002846F8BD52
:1012D00060604FF40075D7E745F48065ADB2A66055
:1012E000D5E705462846F8BD30B500F1D00489B0F1
:1012F0000546204604F012FF204604F053FF38B1A3
:10130000294B1B680093009BC5F8DC3001232B742C
:10131000204604F051FFC0B1234BD5F8DC101A6809
:101320000192019A521A0020092A28742ED81A68AC
:101330000392039A511AB1F5167F94BF0020402002
:101340001B680493049BC5F8DC302B7CE3B1164981
:10135000D5F8DC400B680593059A121BB2F5167F91
:1013600012D30B680693069BA3F516731B1BB3F5EC
:10137000167F14D30B680793079B40F0A000A3F5DA
:10138000167380B2C5F8DC3009B030BD1A6802921D
:10139000029A521AB2F5167FC9D21020D0E740F057
:1013A000200080B209B030BDBC33002038B50446FF
:1013B000FFF798FE94F8F83005462046CBB1FFF7CA
:1013C00029FF0543A4F8E0502046FFF78DFFB4F84D
:1013D000E030094A1843137880B2A4F8E0000BB952
:1013E000C30603D540F48070A4F8E0000023137016
:1013F00038BDFFF7C5FEE4E77CB0FF1F10B4094B12
:10140000094A1B68948883B0002101930346106841
:10141000019A986018469C8119705A6003B010BCFC
:10142000704700BFBC33002048CD000008B5012143
:101430000B2006F061F80121062006F05DF801217D
:10144000052006F059F80121042006F055F8012185
:101450000320BDE8084006F04FB800BF10B50320D8
:101460000C4601F0010106F033F8C4F340010420FA
:1014700006F02EF8C4F38001052006F029F8C4F325
:10148000C0010620BDE8104006F022B810B50C4699
:10149000B1FA81F14909032006F01AF8A4F101011B
:1014A000B1FA81F14909042006F012F8A4F1020111
:1014B000B1FA81F14909052006F00AF8A4F1030107
:1014C000B1FA81F149090620BDE8104006F000B8E4
:1014D0000B2005F0FDBF00BF10B50446203002F020
:1014E000E1FC204610BD00BF38B5044600F5EB50C6
:1014F0001C3004F093FF04F5EB50083004F08EFF2D
:1015000004F5EA50143004F089FF04F5EA5004F0C1
:1015100085FF04F5E9500C3004F080FF04F5E85035
:10152000183004F07BFF0B4DC4F8305E04F5E0503A
:10153000183005F0D3F904F6586002F0B3FC2561C9
:1015400004F6F85005F0CAF904F1380002F0AAFCDC
:10155000204638BD58CE000070B5064600F5C140A3
:1015600004460834203006F5C04505F0B7F9483583
:10157000204605F0B3F92DB1103C204605F0AEF938
:10158000A542F9D1351D0AD006F5C0440434A54260
:1015900005D0203C204605F0A1F9A542F9D13046FE
:1015A00070BD00BF08B5002005F00EFD074B1B689D
:1015B000984204DC064B01221870DA7008BD002145
:1015C0000846BDE8084005F019BD00BFC0CFFF1FA9
:1015D00000A4FF1F38B50A211D4802F041FD10B1DB
:1015E0000125284638BD06211A481B4C06F0B8FFD5
:1015F0001A4805F01BF921E01948FFF747FF1420AE
:1016000005F080FF2178164801F00301FFF73EFF47
:10161000142005F077FF237812480133102123703E
:1016200006F09EFF2B460A2221780C4805F00EF9A1
:101630000A4805F0FBF82378042BD2D80A21044885
:1016400002F00EFD0F2105460028D5D0C8E700BFE7
:1016500070300020DCCD0000B0CFFF1F00A6FF1FC0
:1016600054CFFF1FE4CD0000F0B5494D49488DB07F
:10167000FFF7DCFE29784748FFF708FF07214648B7
:1016800002F0DCFA0E21444802F020FBFFF7A2FF33
:101690000446002866D021464048414C02F0ACF890
:1016A000012304A83F4A404902F078FD04A92046DE
:1016B0003A4AFFF721FCFFF775FF38493B48FEF730
:1016C000CFFF2668002E3ADB06F5C050013004EB50
:1016D000800004F5C043002253F8041F98420A44D6
:1016E000FAD162B32B782E4F03F5C05204EB82027D
:1016F00019465268A2B946F2040110467F5809E023
:10170000CBB203F5C0529E4204EB82024FF00100BF
:1017100025D05268591C002AF2D0002834D119462D
:1017200001EB410104EB4124009561691B4B20480A
:10173000FFF734FC04A802F0B5FB0DB0F0BD1D4B63
:1017400029781B6803931C4A039E1C48166001F508
:10175000C05304EB830301265A680660E0E73A466B
:101760000023D7E70921164806F0FAFE154805F0D0
:101770005DF80921124806F0F3FE124805F056F80C
:10178000114B124A1A6086E72B701946C8E700BF52
:1017900000A4FF1F54CFFF1F04A4FF1F70CFFF1F23
:1017A000C0CFFF1F24CD00007030002080B1FF1F8C
:1017B00080B0FF1FBC33002068CFFF1F7CB1FF1F2C
:1017C0005CCD000000A6FF1F0CED00E00400FA0550
:1017D00010B50E4B0E4C987809F086F90146E0687A
:1017E00009F0CCF80B4909F087FA08F027FD02460A
:1017F0000B4600204FF0804107F006FB09F06AF825
:10180000BDE8104001460448FFF7E2B870CFFF1F63
:1018100080B0FF1F0000404180B1FF1F1B4A1168CC
:1018200051B330B51A4C194D23780133DBB29942CC
:10183000B8BF0023237003F5C05302EB830383B0CA
:101840005968D1B1A378124A12488B42A8BF01F15E
:10185000FF3389B2A8BF9370FFF782FB0E4A0F4B8C
:1018600012680192019A1A60217801230020E37026
:1018700005F0C4FB03B030BD7047FFF7CFFF2378FE
:1018800003F5C05305EB83056968DBE7C0CFFF1F95
:1018900000A4FF1F80B0FF1FBC33002030CFFF1F0C
:1018A00070B5364882B0FFF781FD8606044609D53B
:1018B000334B1A7822B342064BD5324900220A70C4
:1018C0001A7005E045061FD52D4B1A78002AF4D171
:1018D0002D4D2A7D04F480739BB2F2B11E1C18BFFB
:1018E000012614F4706F04D0002B44D11E46FFF77C
:1018F0006FFF16B1254BD97809B3204602B070BDF1
:1019000001221A70FFF78AFF2006E1D51C4B1B78D5
:10191000002BDDD0FFF782FFDAE714F4847FECD0F0
:10192000002BE7D06107194B03D498785978884287
:1019300012D00121D970E2B9D9780029DDD12B7DEF
:101940008BB90E4B12485969FFF76AF8204602B06E
:1019500070BD0306DED4BBE70E480F490068019056
:1019600001980860E7E70A48FFF75AF8204602B0F6
:1019700070BD0126BBE70122D4E700BF80B0FF1F86
:10198000B8CFFF1FB1CFFF1F70CFFF1F00A4FF1FF5
:1019900080B1FF1FBC3300206CCFFF1FF0B52D4C72
:1019A0002D4D23682A6885B00193019B9B1A312B2A
:1019B0003DD9236829490293294A029B0968128963
:1019C0005B1A9A4233D82748FFF762F84FF08141FB
:1019D00009F0DEF80021064609F08CFA48B34FF012
:1019E0007C51304608F0CCFF09F098FA08F014FC5E
:1019F00002460B4600204FF0804107F005FA002216
:101A0000002306460F4608F0F3FED0B10022164B25
:101A10003046394608F0B4FA08F014FF411EC9B246
:101A20001248FFF71BFD23680393039B2B6005B04F
:101A3000F0BD4FF07C51304608F0A0FF09F06EFA7F
:101A4000D4E70022084B3046394608F097FA08F0F0
:101A5000F9FEE3E7BC330020B4CFFF1F30CFFF1FF8
:101A600070CFFF1F80B1FF1F0000E03F54CFFF1F6A
:101A700070B52E4C2E4A2368116886B00093009BE7
:101A80005B1AFA2B03D923680193019B1360294D3C
:101A90002B78E3B1284E29480121FFF719FD33784F
:101AA000002B30D0236826490393039B0A681F4804
:101AB0009B1A272B2DD903680493049B9B1A4F2B49
:101AC0002DD903680593059B0B6006B070BD236894
:101AD0001C4A0293029B11681848174E591A09298B
:101AE0008CBF00210121FFF7F3FC3378002BD9D103
:101AF000154B5B7B002BE8D02B78002BE5D1FFF753
:101B00004DFF06B070BD114B0C481978FFF7A6FCCD
:101B1000EBE70F210948FFF7A1FC06B070BD0021DB
:101B20000648FFF79BFC06B070BD00BFBC33002029
:101B3000BCCFFF1FB8CFFF1FB1CFFF1F54CFFF1F78
:101B400068CFFF1F6CCFFF1F70CFFF1F00A4FF1FC8
:101B500070B5364B1B6884B0002B2AD0344D354C01
:101B60002B680193019B22689B1A642B01D804B057
:101B700070BD314E31483178FFF788FC30493278FA
:101B80000B78286802900133DBB2013202F00302C5
:101B9000029832701E2B0B702060E8D10921294871
:101BA00006F0DEFC284804F041FE284B284A1A6063
:101BB000DDE7284CFFF774FEFFF75AFF2046FEF7DB
:101BC00071FD41F69C53E35CEBB9234CE378002BA9
:101BD000CDD02578A3782149637005EB450503EB4B
:101BE00005131F4A1B48526901EB43110431FEF7EC
:101BF0009FFD0F4A1B4B12680392039A1A60002341
:101C0000E37004B070BD1B21174806F0A9FC0E4814
:101C100004F00CFE09210B4806F0A2FC0A4804F06F
:101C200005FE0A4B0A4A1A60CFE700BF7CB1FF1FCE
:101C3000BC33002068CFFF1FB9CFFF1F54CFFF1F59
:101C4000B0CFFF1F5CCD000000A6FF1F0CED00E031
:101C50000400FA0580B1FF1F00A4FF1FC0CFFF1FC3
:101C600080B0FF1F6CCFFF1FF8CD00002DE9F04FB3
:101C7000DFF860B3BE4DBF4CBF4E91B005F05CF9CC
:101C8000DBF800300693DDF818E0DBF8003007934E
:101C90000799DBF800300893089FDBF800300993C0
:101CA000099ADBF800300A93B44B0A98C3F800E0B5
:101CB000B34BDBF800E01960B249B34B0F60B34996
:101CC000CDF82CE01A60B24B0B9A0860B1481A604C
:101CD00002F0DAF8B04AB149AE4809F065F9B04906
:101CE000B04801F0EFF8AC4AAF49AE4809F05CF9F2
:101CF000AE48FFF783FBAE48FEF7FAFEA64AAD49B1
:101D0000AB4809F051F92A68266100236376236203
:101D10002376E3610AB972E31A465369002BFBD1BB
:101D2000A54B0393536100274FF07E58DFF8A8922C
:101D3000A24884F829706762C4F82C80A78227869D
:101D4000E7826786A77684F82870C4F81090A78683
:101D500002F09AF802233946994884F8587084F8BA
:101D60005970C4F8DC8DC4F8E08DC4F8E83DC4F8BF
:101D7000EC7DC4F8F07DC4F8F47D04F0EFFD0123A0
:101D80008D48A4F8103EC4F8087EC4F80C7EC4F850
:101D9000147EC4F8187EC4F81C7EC4F8207EA4F813
:101DA000247EC4F8287EC4F82C7E00F05DFB2A68EF
:101DB00084F8397EC4F8407E84F8387EC4F83C7ECE
:101DC000C4F8306E6A4B0AB91EE31A465369002BF9
:101DD000FBD17C4B04935361DFF80082C4F8309E42
:101DE00000274FF07E5AA8F6A85084F8497EC4F820
:101DF000447EC4F84CAEA4F8347EA4F8507EA4F817
:101E0000367EA4F8527E84F83A7E84F8487EA4F8A0
:101E1000547E02F039F8404641F6FC3241F6084360
:101E2000022184F8787E41F60C4E84F8797E44F8DD
:101E300002A040F818AB41F61042E15041F61443BD
:101E4000394644F80E70A750E75004F087FD41F67C
:101E50002C4E41F6344141F6384241F63C4341F6BE
:101E6000284044F80E706750A75041F6484141F6AB
:101E70004C42E75041F6444E41F630432750C8F8F3
:101E80004070A8F55D604FF001096750A75024F835
:101E9000039024F80E7000F0E7FA41F6584041F63E
:101EA000594341F65C414246275441F6504004F8FC
:101EB000039008F1740367502650394642F8603F9A
:101EC000384608F1590800E0136843F8210098F8F3
:101ED000003001318B42F7DC2A68254B0AB997E2C2
:101EE0001A465369002BFBD1374B0193536141F6DE
:101EF0008840364A225041F66449002041F6544851
:101F000041F6564C41F65A4E44F8090041F6504904
:101F100024F808002E4924F80C0041F6684841F6E0
:101F2000844304F80E0041F6784C41F6814E44F8A3
:101F300009104FF0FF3944F808904FF00108E050C5
:101F400004F80E80034644F80C6002F81C0CA2F161
:101F50001B07A2F1140E01E0DEF8002042F8230076
:101F60003A7801339A42F7DC2A68014BCABB53E244
:101F70006433002080B1FF1F58CD000064CFFF1FE5
:101F8000BCCFFF1F6CCFFF1F68CFFF1F30CFFF1FDD
:101F9000B4CFFF1F34CFFF1FFCA3FF1FA53E0000DF
:101FA00014CE000070CFFF1FD914000054CFFF1FC4
:101FB000C0CFFF1F5915000090B1FF1FB8B1FF1F20
:101FC00078BFFF1FB0BFFF1FD0CDFF1F1CCEFF1F6C
:101FD000E8D30000BC33002058CE000080CDFF1FA6
:101FE0001A465369002BFBD16B4B02935361DFF808
:101FF000C0914A4641F6B04342F8286B41F67C4E08
:1020000041F67E47E250002341F68C4C41F6824077
:1020100024F80E3041F6784EE35341F6904744F8E9
:102020000C30235441F6A84841F6A94041F6AC4C87
:1020300044F80E104FF0FF31E1510421215404F80F
:10204000083044F80C30184609F1090109F110076D
:1020500000E03A6842F823000A7801339A42F8DC3B
:102060002A684E4B0AB9DBE11A465369002BFBD1B3
:10207000C2F814904A494B4BC9F800300A4641F661
:10208000B84741F6BC434FF48030E05141F6E84C8C
:10209000E05041F6C44742F8300B41F6B44341F6F4
:1020A000A44841F6A64E44F80C20E05141F6AA4C53
:1020B0000020E05024F8080024F80E0041F6E44324
:1020C00041F6D84841F6E14E04F80C004FF0010CFF
:1020D000E05081F820000346074644F8086001F10B
:1020E000210004F80EC0283100E00A6842F823708D
:1020F000027801339A42F8DC2A68284B0AB992E147
:102100001A465369002BFBD1DFF8A8A0C2F814A02F
:1021100041F6EC4C41F6DE47002341F6E24044F83C
:102120000C30E35341F6045C41F6D8471E49235472
:1021300041F6DC4E41F6F640E15104F80C3047F62A
:10214000FF7141F6F84C194A24F80E30215241F63D
:102150000C584FF4004041F6055141F6085E41F637
:10216000FC4724F80C0001206054E65144F8082094
:1021700044F80E30A2F10F00A2F10806194600E063
:10218000326842F82310027801339A42F8DC2A6858
:10219000024B92B94CE100BFF8CDFF1F6433002021
:1021A00040CEFF1FF4D30000D8D1000094CEFF1F13
:1021B00020CEFF1F58CEFF1F1A465369002BFBD1BC
:1021C0009D4B0593536141F6105200259B4FA5503E
:1021D00041F606523846A55441F6025141F6FC42FA
:1021E000974B20F80459A350655203F05DFE41F669
:1021F000215241F6245341F62851A55441F6185274
:10220000E550655441F61C530399A15007F118009D
:10221000019A87F82050E25004F0CCF841F634518E
:1022200041F63552655441F6385341F63C51A554B8
:1022300041F62C52E550655441F630530499A150B3
:1022400007F12C000299E15004F0B4F8384641F649
:102250004852019BA55440F8403F41F64C5241F68C
:102260004953A550E55441F6445241F6505344F8C1
:102270000290E55404F09EF841F65C5341F6645137
:10228000E55441F6545365540299E15041F65852D1
:1022900041F65D534FF0010807F154003D6644F8E4
:1022A000029004F8038004F085F841F6705341F67B
:1022B0007152E55441F67453A554E55041F6685304
:1022C00041F6785244F8039041F66C53A55407F157
:1022D0006800059AE25004F06DF841F6845341F627
:1022E0008550E55441F6885141F68C5241F67C53B5
:1022F000C7F880A0255407F17C0044F8039065508E
:10230000A55404F057F8DBF800300E93DDF838A040
:102310000398DBF800300F9320600498019B606005
:102320000F980390A36041F69452029BE36041F63C
:102330009C5141F6A45C41F6A65E039BA55441F670
:1023400090596554C7F8A030A7F5E8504FF0020344
:102350003C4A3D4924F80C5004F80E5084F8483E9D
:1023600084F8288044F809A008F01EFEDBF800304D
:10237000364E0C930C9A364BB26106F120001421B4
:102380007360B360F36086F8008086F8018035746E
:102390007561FEF76BF806F14C001721FEF766F841
:1023A00006F178001621FEF761F8152106F1A40068
:1023B000FEF75CF806F1D00003F07EFEDBF800309B
:1023C0000D930D9A234BA6F8E050A6F8E28086F80C
:1023D000E48086F8E58086F8E68086F8E780A6F84F
:1023E000E85086F8F850F561C6F8DC20C6F8EC3005
:1023F000C6F8F030C6F8F43011B0BDE8F08F04F143
:10240000100303932B608EE4134A04921A60E3E4F2
:10241000124A01921A606AE5114A02921A60E6E5D0
:10242000C3F8009026E6DFF83CA0C3F800A06FE6F2
:10243000014A05921A60C6E67CCEFF1F80CEFF1FC0
:1024400000D40000FCA3FF1FE914000080B0FF1FB0
:10245000000010420000C8C2B0BFFF1FD0CDFF1F58
:10246000F8CDFF1F58CEFF1F0346002280F8D42D61
:10247000034983F8D52D00F6E8509A8404F0A8BAF1
:1024800028CE000072B680F8D61D62B6704700BF35
:1024900070B5044688B000F6E85016460D4604F0C4
:1024A0008FFA72B6002E52D1684601232A682A4953
:1024B00001F074FE08AA029B12F8140D9DF8041096
:1024C00084F83400236384F82C1004F1350304F1FC
:1024D000420012F8011F03F8011B8342F9D1079B48
:1024E0006364684601F0DEFC2B696A69C4F8FC2D60
:1024F000C4F8F83DC4F8043E2B7F1849184A13F07D
:10250000010F14BF02230123A4F8003E2B7FC3F365
:102510004103CB5CDB10C4F8D83D2B7FC3F3C2036F
:1025200052F8230008F0DCFA0E4908F0E5FB00231E
:10253000C4F8CC0DC4F8DC3DC4F8E03DC4F8E43D7B
:1025400084F8D53D637662B6012008B070BD04F111
:10255000280001F0CFFCA7E77030002024CE000057
:102560003CCE000000442C472DE9F04100F1280545
:10257000044628460E4601F0CBFC68B31A4FD4F847
:10258000FC1D3B8806EB010843BB5E21174801F0A8
:102590003DFB72B64146284601F096FCD4F8F82D72
:1025A0000023961B0122C4F8E03D0546C4F8DC3D3B
:1025B000C4F8046EC4F8E43D637684F8D42D84F83E
:1025C000D53D62B65E21094801F00AFB3B88013324
:1025D00028463B80BDE8F081BDE8F081013B9BB21D
:1025E0003B80002BD1D0D4E76033002004A4FF1F30
:1025F00070B504460D46084604F6E85104F050FA5A
:1026000098B1012229462046FFF742FF064618B935
:1026100084F84900304670BDA9692046FFF7A4FF41
:10262000002384F84930304670BD84F84900A96918
:102630002046BDE87040FFF797BF00BF10B50446C5
:1026400072B6D0F8FC1D283001F03EFC012384F85E
:10265000D43DD4F8F82DC4F8042E002384F8D53DD9
:1026600062B610BD72B690F8D43D0BB962B6704731
:10267000002380F8D43D62B6704700BFF8B5D0F8AB
:10268000E42DD0F8DC3DD0F8046E0D46C2F558625A
:10269000EB1A002192B29E420446C0F81C1EA0F81C
:1026A000142E35DA90F8D63D93BB964240F39580D0
:1026B000D4F8E41D04F1280521444A31284601F0EC
:1026C000FDFB471CC4F81C0E00F0FA80D4F8043E51
:1026D0000021B342C4F8E41DC0F2BE80321A002AC1
:1026E00040F32E8104F14A0192B2284601F0E6FB44
:1026F000411C00F03581D4F81C3EC4F8E40D1844A8
:10270000D4F8043EC4F81C0E1B1AC4F8043E7BE047
:10271000954247DD964280F2E280D4F8E41D04F150
:1027200028072144B2B24A31384601F0C7FBC4F849
:102730001C0E013000F0C980D4F8FC1D384601F0B1
:10274000C3FBD4F81C1EB4F8142ED4F8E43D521A7E
:10275000194492B22144A4F8142E4A31384601F0AB
:10276000ADFB421C064600F0E280D4F81C3E334428
:10277000EA1AC4F81C3E384692B204F14A0101F04C
:102780009DFB431C00F0DF80D4F81C2ED4F8F83DEC
:10279000C4F8E40D06449E1B1044C4F8046EC4F84B
:1027A0001C0E31E0AE4217DAD4F8E41D04F128071C
:1027B0002144B2B24A31384601F080FB461CC4F8CD
:1027C0001C0E00F0878094F8D63D002B40F08980E5
:1027D000012384F8D53D17E02E46D4F8E41D2144AA
:1027E000B2B24A3104F1280001F068FB471CC4F87A
:1027F0001C0E29D0D4F8042ED4F8E43D121A034458
:10280000C4F8042EC4F8E43D411C22D0637E03BB0F
:10281000D4F8DC2D554BD4F8041E1044C4F8DC0D5C
:10282000D4F8E40DC209A3FB02324FF4586303FB52
:102830001203C4F8E43D238C01339BB223840120AE
:1028400049B984F8D50DF8BD637E002BD2D10123A0
:1028500063760020F8BDF8BD1A1A002A0EDD92B288
:1028600004F14A01284601F029FB421C70D0D4F83B
:102870001C3EC4F8E40D1844C4F81C0ED4F8FC1D2A
:10288000284601F021FBD4F81C3ED4F8E41DF61ACA
:1028900021442846B2B24A3101F010FB431C5BD000
:1028A000D4F81C1ED4F8E43DD4F8F82D0844921B4B
:1028B0001E44C4F81C0EC4F8042EC4F8E46DA3E74B
:1028C000637E002B7FF402AFC1E7637E002B7FF4B1
:1028D00033AFBCE7637E002B7FF475AFB7E72E46BE
:1028E000E6E6D4F8FC1D384601F0EEFAD4F8E41D13
:1028F000D4F81C3ED4F8042E0B44E118AA1A38462A
:102900004A3192B201F0DAFA0346013013D0D4F81A
:102910001C0ED4F8E41DD4F8F82D18440144D31A41
:10292000C4F81C0EC4F8E41DC4F8043E6CE7637ED2
:10293000002B7FF41AAF01236376D4F81C0E63E7F3
:10294000C4F8E41DE0E6637E002B7FF41DAFF2E7E0
:10295000637E002B8BD1EEE7637E002BA0D1EAE7EC
:10296000637E002B7FF4C7AEE5E700BF63427B09BF
:102970002DE9F04F838C9BB2642B83B00ED890F876
:10298000D43D5BB190F8D63D7BB990F8D53D43B1CD
:102990000022012380F8D42D80F8D53D03B0BDE896
:1029A000F08FD0F8043E002BF2D0044603F03CFC3C
:1029B00007460028F2D0012384F848300023E0695C
:1029C000C4F81C3ED4F8CC1D08F0E2F8C4F8D00DD1
:1029D000D4F8D00D4FF0864108F0DAF807F02EFC5D
:1029E00006F002F980468946D4F8D80DB4F800AE56
:1029F00007F012FC42464B4607F074FC80465046F6
:102A0000894607F009FC0B4602464946404607F056
:102A100069FC07F017FFD4F8DC3DB0F5586FC8BF6C
:102A20004FF458608342C4F8180EC0F285804FF00E
:102A300086498026D4F8D05D4FF00008C4F8088E8F
:102A4000C4F80C8E504608F04FF8294608F0A0F85C
:102A5000494608F09DF88146D4F8D80DD4F8E0BD79
:102A600008F042F8494608F093F80546584608F041
:102A70003BF80146284607F083FFD4F8D83D022BE7
:102A800007F1040500F0C080D4F8D83D032B00F016
:102A90002581802E00F0B380D4F8D80D08F024F8FA
:102AA000494608F075F808F05FFA7F2EC4F8100E5A
:102AB0000AD8C6F17F0292B205EB4202AB1E00219A
:102AC00023F8021F9A42FBD194F8D63D13B9012393
:102AD00084F8D53DD4F8E02DD44B0244C4F8E02D61
:102AE000D4F8E02D83FB0231D317C3EBA1234FF4BD
:102AF000586101FB1323C4F8E03DD4F8DC3D181AFB
:102B0000C4F8DC0D00223946204603F00BFC3846A1
:102B100003F0DEFB002384F84830638C01339BB262
:102B20006384637E1BB1A38C01339BB2A384002317
:102B3000637603B0BDE8F08FD4F8D83DDB010AFB23
:102B400003F38342C5BFD4F8D81DC90101460AFB6F
:102B500001F12046FFF792FDD4F81C3E002B30DB3C
:102B6000D4F8182E93422CDAD4F8DC0DB4F800AE69
:102B7000D4F8D83D0AFB03F390FBF3F007F04CFBCD
:102B800006F0BAF88046D4F8D00D894607F056FB17
:102B900002460B464046494607F0CEFC0022A44BB5
:102BA0008046894607F02EFE00287FF440AF494654
:102BB000404607F06FFE86B2304607F095FF81462B
:102BC00038E7637E002B57D0A38C013300229BB2E1
:102BD000A38411466276BB1C07F5817223F8021F9D
:102BE0009A42FBD100223946204603F09BFB38462F
:102BF00003F06EFB638C01339BB26384CEE6D4F8A2
:102C0000180EC4F8100E65E78A4908F073F9002819
:102C10003AD0002E00F0FD80AB4601E0B4F800AEE3
:102C2000D4F8D01D0191404607F05EFF019907F0EE
:102C3000AFFF08F099F9D4F8E03DC4F80C0E00FAA3
:102C40000AF01844B0F5586F28BFA0F55860C4F8D2
:102C5000080E204408F10108B0F84A30ABF8003003
:102C60001FFA88F39E420BF1020BD7D8731E9BB25A
:102C7000013305EB43050CE70028A5D0B4F800AEFE
:102C80004FF086498026D5E6002E00F0C2808346AC
:102C9000A84601E0B4F800AED4F8D01D0191584622
:102CA00007F022FF019907F073FF08F05DF9D4F8EF
:102CB000E02DC4F80C0E00FA0AF08318E218C4F8EC
:102CC000083EB2F84A30A8F800300BF1010B1FFAA9
:102CD0008BF39E4208F10208DCD8C7E7BAF1010F76
:102CE00054496CD008F006F990BB002E00F091809A
:102CF0008046AA46D4F8D0BD404607F0F5FE5946B6
:102D000007F046FF08F030F9D4F8E03D00EB400250
:102D100003EB42039A1C04EB030EA1189EF84B3000
:102D200091F84A101B0208F1010843EA01431FFA17
:102D300088F11B0A8E422AF8023BDBD8731E9BB235
:102D40000133C4F80C0EC4F8082E05EB4305A0E6C9
:102D5000002E5ED0AA46D4F8D0BD404607F0C4FE8F
:102D6000594607F015FF08F0FFF8D4F8E03D00EBF6
:102D7000400203EB4203B3F5586F28BFA3F5586335
:102D8000991C04EB030C04EB010E9CF84B309EF8ED
:102D90004AE008F101081B021FFA88F243EA0E43D9
:102DA0001B0A96422AF8023BD5D8731E9BB2013308
:102DB000C4F80C0EC4F8081E05EB430569E608F0DC
:102DC00099F8C8BB2EB38046AA46D4F8D0BD404679
:102DD00007F08AFE594607F0DBFE08F0C5F8D4F884
:102DE000E03D00EB400213449A1C04EB030EA118D3
:102DF0009EF84B3091F84A101B0208F1010843EA93
:102E000001431FFA88F11B0A8E422AF8023BDCD8E4
:102E100094E7D4F8D80D07F067FE494607F0B8FEEE
:102E200008F0A2F8C4F8100E43E600BFF712DA4B20
:102E30000000604000005845002EEAD0AA46D4F8B1
:102E4000D0BD404607F050FE594607F0A1FE08F0FD
:102E50008BF8D4F8E03D00EB40021344B3F5586F13
:102E600028BFA3F55863991C04EB030C04EB010E77
:102E70009CF84B309EF84AE008F101081B021FFA4B
:102E800088F243EA0E431B0A96422AF8023BD6D840
:102E90008BE700BFD0F8182E38B5D0F8043ED0F834
:102EA000F84D52009342C8BF9B1AE01A07F018FE73
:102EB0000546204607F014FE0146284607F01CFF91
:102EC00038BD00BFF8B50446242227234FF03C0E3E
:102ED000227063700122002319274FF4FA66022042
:102EE0000D46608184F802E0E7802681E27022715D
:102EF0006273A273E273E274627523732374637462
:102F0000A3742375A375E375237604F1200000F004
:102F1000BBFFE5612046F8BD2DE9F04188B00D46C4
:102F20000646E4496846174603F018FD69462846F8
:102F300003F0CCFD002800F05181684603F0CEFC80
:102F400004AC3946204603F01DFD204603F02AFE5E
:102F5000A0F10100B0FA80F040093073204603F080
:102F6000BDFCD549684603F0F9FC6946284603F0E4
:102F7000ADFD002800F06D82684603F0AFFC3846D6
:102F800003F010FEF080CD49204603F0E7FC214617
:102F9000284603F09BFD8046204603F09FFCB8F1D5
:102FA000000F40F04582C649204603F0D7FC214679
:102FB000284603F08BFD8046204603F08FFCB8F1D5
:102FC000000F40F03082BF49204603F0C7FC214685
:102FD000284603F07BFD8046204603F07FFCB8F1D5
:102FE000000F40F00F82B849204603F0B7FC21469D
:102FF000284603F06BFD8046204603F06FFCB8F1D5
:10300000000F40F0EE81B149204603F0A7FC2146B5
:10301000284603F05BFD8046204603F05FFCB8F1D4
:10302000000F40F0CD81AA49204603F097FC2146CD
:10303000284603F04BFD8046204603F04FFCB8F1D4
:10304000000F40F0AC81A349204603F087FC2146E5
:10305000284603F03BFD8046204603F03FFCB8F1D4
:10306000000F40F097819C49204603F077FC2146F1
:10307000284603F02BFD8046204603F02FFCB8F1D4
:10308000000F40F076819549204603F067FC214609
:10309000284603F01BFD8046204603F01FFCB8F1D4
:1030A000000F40F055818E49204603F057FC214621
:1030B000284603F00BFD8046204603F00FFCB8F1D4
:1030C000000F40F034818749204603F047FC214639
:1030D000284603F0FBFC8046204603F0FFFBB8F1D6
:1030E000000F40F013818049204603F037FC214651
:1030F000284603F0EBFC8046204603F0EFFBB8F1D6
:10310000000F40F0C5807949204603F027FC214696
:10311000284603F0DBFC8046204603F0DFFBB8F1D5
:10312000000F40F0AB807249204603F017FC2146A7
:10313000284603F0CBFC8046204603F0CFFBB8F1D5
:10314000000F40F08C806B49204603F007FC2146BD
:10315000284603F0BBFC8046204603F0BFFBB8F1D5
:10316000000F77D16449684603F0F8FB69462846AA
:1031700003F0ACFC00285AD0684603F0AFFB394698
:10318000204603F0FFFB204603F00CFDA0F10100F8
:10319000B0FA80F04009F070204603F09FFB5749D9
:1031A000684603F0DBFB6946284603F08FFC50B30A
:1031B000684603F093FB3946204603F0E3FB2046C4
:1031C00003F0F0FCA0F10100B0FA80F0400930718A
:1031D000204603F083FB08B0BDE8F08104AC484909
:1031E000204603F0BBFB2146284603F06FFC8046D7
:1031F000204603F073FB684603F070FBB8F1000F44
:103200003FF4AFAE9DE63F49204603F0A7FB2146C1
:10321000284603F05BFC0546204603F05FFB68464A
:1032200003F05CFB002DC6D108B0BDE8F081364943
:10323000204603F093FB2146284603F047FC8046D6
:10324000204603F04BFB684603F048FBB8F1000F43
:10325000A5D094E7384603F0A5FC307682E73846DF
:1032600003F0A0FC3378C0B29842B0703CBF18465F
:10327000B370602884BF6023B37064E7384603F0FE
:1032800091FCC0B2002840F0F880012373704AE737
:103290003946204603F076FB204603F083FCA0F17C
:1032A0000100B0FA80F04009F075204603F016FBEB
:1032B00029E700BF5CCE000070CE000088CE000081
:1032C00094CE0000A0CE0000B4CE0000C4CE00001A
:1032D000D8CE0000ECCE0000FCCE000004CF0000F1
:1032E0000CCF00001CCF000028CF000034CF00001E
:1032F00040CF00004CCF000058CF000078CF000036
:1033000064CE000088CF000068CF00003946204618
:1033100003F038FB204603F045FCA0F10100B0FAB1
:1033200080F040093075204603F0D8FADBE63946D4
:10333000204603F027FB204603F034FCA0F10100F7
:10334000B0FA80F040097075204603F0C7FABAE67B
:103350003946204603F016FB204603F023FCA0F17B
:103360000100B0FA80F04009F074204603F0B6FA8C
:1033700099E63946204603F005FB204603F012FC8F
:10338000A0F10100B0FA80F04009B074204603F0CB
:10339000A5FA78E6384603F005FC708163E6394605
:1033A000204603F0EFFA204603F0FCFBA0F10100F9
:1033B000B0FA80F040097074204603F08FFA42E6BC
:1033C0003946204603F0DEFA204603F0EBFBA0F17D
:1033D0000100B0FA80F040093074204603F07EFA14
:1033E00021E63946204603F0CDFA204603F0DAFB09
:1033F000A0F10100B0FA80F04009F073204603F01C
:103400006DFA00E63946204603F0BCFA204603F088
:10341000C9FBA0F10100B0FA80F04009B07320466A
:1034200003F05CFADFE5384603F0BCFB3081CAE507
:103430003946204603F0A6FA204603F0B3FBA0F17C
:103440000100B0FA80F040097073204603F046FA9C
:10345000A9E50D49204603F081FA2146284603F0EC
:1034600035FB8046204603F039FA684603F036FA09
:10347000B8F1000F3FF487AD81E548288ABF4823A3
:10348000707073704FE600BF78CE0000F0B595B055
:1034900006460021684603F061FA002104A803F003
:1034A0005DFA0CA801235C4A5C4900F077FE14AA7F
:1034B0009DF8340012F8143D0E9986F8240086F821
:1034C0002C30B16206F12D0306F13A0012F8011F0B
:1034D00003F8011B8342F9D1139BF3630CA806F197
:1034E000200400F0DFFC204600F012FD002800F070
:1034F0008B800127204600F041FCE0B1204600F01F
:103500005BFC012FC5B204A90CA82AD00A2D5FD0FC
:1035100003F038FA29460CA803F0B2FA014604A8D1
:1035200003F04EFA0CA803F0D9F92046022700F068
:1035300025FC0028E2D1029B6BBB204600F0DAFCA0
:10354000337E0BBB337D002B3CD00323337601232A
:10355000F37504A803F0C2F9684603F0BFF915B08B
:10356000F0BD3D2D69460DD003F00CFA29460CA89C
:1035700003F086FA0146684603F022FA0CA803F02D
:10358000ADF9B7E70227B5E7737D002BDFD1337DB7
:10359000002BDCD1DDE7069B002BCED0694608A8C6
:1035A00003F0F0F904A90CA803F0ECF90CAA08A99F
:1035B0003046FFF7B1FC0CA803F090F908A803F01F
:1035C0008DF9BAE7737D01223276002BBFD1C0E7B7
:1035D000694608A803F0D6F904A90CA803F0D2F9AB
:1035E0000CAA08A93046FFF797FC0CA803F076F95F
:1035F00008A803F073F90A49684603F0E9F9084995
:1036000004A803F0E5F974E71A21064804F0A8FFBE
:10361000054803F00BF993E798CF000070300020C5
:103620008CCD0000A8CF000000A6FF1F30B52D21D3
:1036300089B00546604804F093FF604803F0F6F84F
:103640005F49604800F02AFE684613235C4A5D49E2
:1036500000F0A4FD08AA9DF8040012F8143D029998
:1036600085F8240085F82C30A96205F12D0305F1B9
:103670003A0012F8011F03F8011B9842F9D1079B89
:10368000EB6305F12004684600F00CFC0A2220469A
:103690004D4900F07FFB297B204603F017F92046B7
:1036A00003F0C4F80E222046484900F073FBE98875
:1036B000204603F00BF9204603F0B8F80A22204612
:1036C000434900F067FB697B204603F0FFF8204682
:1036D00003F0ACF80A2220463E4900F05BFB298942
:1036E000204603F0F3F8204603F0A0F8112220460C
:1036F000394900F04FFBA97B204603F0E7F820464C
:1037000003F094F810222046344900F043FBE97B93
:10371000204603F0DBF8204603F088F8122220460A
:103720002F4900F037FB297C204603F0CFF82046D4
:1037300003F07CF8112220462A4900F02BFB697C1B
:10374000204603F0C3F8204603F070F80F2220460D
:10375000254900F01FFB6989204603F0B7F8204691
:1037600003F064F808222046204900F013FBA97CEE
:10377000204603F0ABF8204603F058F80522204617
:103780001B4900F007FBE97C204603F09FF8204628
:1037900003F04CF80A222046164900F0FBFA297D76
:1037A000204603F093F8204603F040F8204600F04E
:1037B000A1FB09B030BD00BFC4CF000000A6FF1FB1
:1037C00098CF000070300020F4CF000000D000003F
:1037D00010D000001CD0000028D000003CD0000019
:1037E00050D0000064D0000078D0000088D00000E5
:1037F00094D000009CD0000001B9704710B5C16999
:103800000446064800F03EFD10B92046FFF70EFFC3
:103810002046BDE81040FFF739BE00BF70300020E1
:1038200070B50646006803685B699847082405463A
:10383000306803685B699847A0400834202C45EA4B
:103840000005F5D1284670BD2DE9F8430B680160ED
:1038500004461B6908461646984718B901252846AC
:10386000BDE8F8830421206800F02EFB054618B956
:1038700000252846BDE8F8832046FFF7D1FF204603
:10388000FFF7CEFF5F4B9842F2D12046FFF7C8FF0B
:103890005D4B984218BF994611D02046FFF7C0FFF4
:1038A00027688046384600F019FB08EB00013846CF
:1038B00000F00AFB2046FFF7B3FF4845EDD1206832
:1038C00003681B6998470028D2D02046FFF7A8FF5D
:1038D0000746206803685B699847206803685B694E
:1038E0009847206803685B699847804620680368AA
:1038F0005FFA88F85B699847B8F1020F70D02046EC
:10390000FFF78EFF414BA3FB00235B0B42F6113206
:1039100002FB1302002A4AD1013BDBB2032B18BF82
:10392000DB00327F14BF5BB2102313433377204692
:10393000FFF776FF206803685B6998472068036893
:103940005B699847206803685B69984780462068F0
:1039500003685B69984748EA002003B25A0787D199
:10396000327FC3F3C403013B42EA4303102F337792
:103970003BD8DFF8A0900BE0FFF752FF27688046A6
:10398000384600F0ABFA08EB0001384600F09CFA2C
:103990002046FFF745FF48452046EDD12046FFF77A
:1039A0003FFF3061206800F099FA706157E7184BCB
:1039B000A3FB00239B0A4BF6803202FB1303002B70
:1039C0007FF456AFA0F53B404BF67F3380389842EA
:1039D000337F94BF43F0180343F020033377A6E707
:1039E000337F43F00103337789E7D4F80080404602
:1039F00000F074FAA7F110010144404600F064FAA7
:103A0000B7E700BF57415645666D74203BC637BEC9
:103A1000F11976056461746110B4047F4160022C71
:103A2000C26002D010BC02F001BE836810BC18470F
:103A3000F0B4464B464A186BDC6A0179117045496F
:103A400022790A709A6A00790870002A46D059686B
:103A5000C9688A423ED82168CC8B240402F1FF3029
:103A600065D4C0F30E00C883C88B80B2C882196BBE
:103A70000968C88B000452D4C2F30E00C883C88BF7
:103A8000002480B212F1FF32C88218BF01229C626A
:103A9000D96A2E4809680D6800F12404A54236D081
:103AA0000068C46814F0804F0C680D6815BF248846
:103AB00024780235013544F000440D604463196BED
:103AC000254B09791970214912B1CA6A12791A7005
:103AD000F0BC7047521A9A620122D9E7586B1968F4
:103AE00005681E4C0A63CC62CC682D681C4E24F01D
:103AF00080440327B542CC6083F825701FD1037F33
:103B00004260022BC2601ED0F0BC02F08FBD016883
:103B100090F82400CC6840F000404863CFE7CC8B9D
:103B2000C2F3080004F47E442043C883A7E7CC8B8B
:103B3000C0F3080004F47E442043C88394E72B4676
:103B40001146F0BC18478368F0BC184704A4FF1F57
:103B50001F8000401C8000401B80004000000FFFC1
:103B6000193A000090E80C00F0B41C685968256808
:103B7000164F174E29432160164D17491760D6601E
:103B800015611160417A154A5C180A3194F8244095
:103B900053F8215002EBC40149680D60017A5C18AA
:103BA00003EB8101247ECD6902EBC40149680D60FD
:103BB000817A581803EB810390F83000596B02EBBF
:103BC000C002F0BC53681960704700BF01401F007D
:103BD000011000380110007800001F8054D400004C
:103BE0005E2911D830B44A09C57A012303FA02F4D8
:103BF0002C4300EB8202C472D06801F01F0103FA6B
:103C000001F10143D16030BC704700BF5E2913D879
:103C100030B44D0900EB850401F01F01E368012277
:103C200002FA01F123EA0101E16021B9C37AAA4055
:103C300023EA0202C27230BC704700BF204A4368C8
:103C40009A42F0B40FD0427A1A4492F8242091425A
:103C500007D093F824408C4215D093F825408C422D
:103C60002AD0F0BC70470B2907D00729EBD1154C9F
:103C7000227842F001022270E5E7124C227822F00D
:103C800001022270DFE7002421461E685D68366865
:103C90002E420FD00C4D05EBC202002756685A1871
:103CA000376092F8242005EBC2050A316A6853F8A0
:103CB000213013604472D4E701242146E5E700BFB8
:103CC000A8D00000B933002054D40000204A436833
:103CD0009A42F0B40FD0827A1A4492F8302091427E
:103CE00007D093F830408C4215D093F831408C4285
:103CF0002BD0F0BC70470D2907D00E29EBD1154C05
:103D0000227842F004022270E5E7124C227822F079
:103D100004022270DFE7002421461E685D683668D1
:103D20002E4210D00C4D05EBC202002756685A18DF
:103D3000376092F830200C3105EBC20503EB8103AC
:103D40006A685B6813608472D3E701242146E4E764
:103D5000A8D00000B933002054D4000000207047E0
:103D6000704700BF10B582B002AB026803F8011DB6
:103D7000546819460122A04702B010BDC06938B18D
:103D80008369C06847F6FF72181A904228BF104630
:103D9000704700BFC36910B504463BB100201871DD
:103DA000E06901F033FAE3691B791BB10123237148
:103DB000002010BD10BD00BFC06978B100B583B050
:103DC00001220DF1070100F0A7FF01280CBF9DF8AB
:103DD00007004FF0FF3003B05DF804FB4FF0FF30F9
:103DE000704700BFC369C3B110B582B00446012259
:103DF00018460DF1070100F08FFF012803D04FF0A6
:103E0000FF3002B010BDE0699DF80740C16801397C
:103E100001F056F8204602B010BD1846704700BFAA
:103E2000C06908B101F07EB8704700BF2DE9F041CC
:103E300005464FF47A731348AB60002328602B715A
:103E40002B7324200C46904607F006F9E861B0B1C8
:103E5000064604F1200E20686168A268E3683746D0
:103E60000FC7103474453E46F5D12068386041468E
:103E70000C2205F10D0008F081FC00236B7628462A
:103E8000BDE8F08128D100004FF47A7204498260C5
:103E90000022016002710273C2614273704700BF69
:103EA00028D10000704700BF0D307047C06920B1B5
:103EB0008079012894BF002001207047C06908B1B3
:103EC00000F02ABF704700BFC06930B108B500F0EC
:103ED000F7FF003018BF012008BD7047C3690BB160
:103EE000D86870474FF0FF30704700BFC06900B11D
:103EF00080697047C36953B110B50446184600F095
:103F000079FEE06907F0B0F80023E36110BD704767
:103F1000C06918B18079003018BF0120704700BF18
:103F200030B58BB000240A460A4D8DF80840014692
:103F3000012301A88DF80A40019501F027F9A0425C
:103F400018BF012402D001A800F054FE20460BB097
:103F500030BD00BF4CD100000AB90120704708B540
:103F600001F03CF9003018BF012008BDF0B50E6823
:103F7000835D2F2B08BF0136841902F1FF3E002517
:103F800023782F2B274604F1010408D03BB10135DB
:103F90000C2D06F101060EF8013FF1D1871900231F
:103FA00053553B782F2B04BF013687190E603878A4
:103FB000003018BF0120F0BD2DE9F04F99B08846C0
:103FC000264D069500218DF81C1083469246994691
:103FD00044468DF81E108DF840108DF84210019166
:103FE0000F9506AE05E000F005FEFDB12346344610
:103FF0001E4602AA01A95846FFF7B8FF80F0010249
:10400000D2B24B4602A905462046D0472146074674
:10401000012302AA70B13046ADB101F0B7F84445B2
:1040200005462046DFD10DB10FACDFE7002019B007
:10403000BDE8F08F4445F9D0204600F0DBFD38465E
:1040400019B0BDE8F08F444506D0204600F0D2FDFF
:10405000012019B0BDE8F08F0120E8E74CD1000045
:1040600038B50A460121044600F0CAFA08B9002012
:1040700038BD251D28460122214601F089FB40B1AB
:10408000294604F12C0000F01FFE003018BF01206B
:1040900038BD02462146284601F07AFB0028EFD1C0
:1040A000002038BD2DE9F04F99B04FF00008DFF83F
:1040B000E8A08DF81C808146043106A89346019340
:1040C0008DF81E808DF840808DF84280CDF818A0C4
:1040D000CDF83CA000F0F8FD06AE5D460FAF2F21F5
:1040E000284608F04FF8441BE4B2294608B32B7861
:1040F0002F2B02A81BD00C2C28BF0C24224608F022
:104100003DFB18AB2344384603F8588C00F072FD91
:10411000012302AA3146384601F038F888B3304608
:1041200000F068FD334625443E461F46D7E701357B
:10413000D5E7019831797279B379B468377DCBEBE3
:1041400005050560F068356989F8041089F80520CF
:10415000B16989F80630F269336AC9F80C0048463B
:10416000C9F800A0C9F80840C9F8105089F81470BF
:10417000C9F81810C9F81C20C9F8203019B0BDE8DA
:10418000F08F89F8040089F806004846C9F800A0B5
:1041900019B0BDE8F08F00BF4CD10000F0B59DB064
:1041A00005461F4601A86B461446FFF77BFF009AA1
:1041B000A35C1444002B42D09DF80A202F4E0A968F
:1041C00000238DF82C308DF82E30002A31D00AA82B
:1041D0003B46224601A900F0D9FF50B301A800F0E8
:1041E00009FD17F0060F43D19DF82C700C9B9DF82C
:1041F0002DE0139622469DF82E408DF850708DF8D4
:10420000524015930D990E989DF83C70109E119C8C
:10421000129B8DF851E01691179013A928468DF83E
:10422000607019961A941B93FFF700FE28461DB084
:10423000F0BD2846FFF728FE28461DB0F0BD9DF8CA
:1042400008700E4E9DF809409DF80A30039A8DF8CB
:10425000507013968DF851408DF852301592049994
:1042600005989DF81870079E089C099B044AD2E7A0
:104270000AA8109900F024FEB6E700BF4CD1000058
:1042800024CD000010B40C46002300F12C01024A9A
:10429000204610BCFFF790BE213F000010B40C4632
:1042A000002300F12C01024A204610BCFFF784BE17
:1042B000593F0000F0B505469FB00C46164604A9CC
:1042C000E06900F0BBFD002845DD9DF81030002BB3
:1042D00041D0E52BF3D02E2BF1D09DF81B3003F00D
:1042E000080303F0FF02002BE9D104A869461D4F23
:1042F0008DF834208DF836200C9700F08BFC334677
:104300006A46E1690CA800F041FF20B39DF83560D2
:104310009DF836400E9B0F9910989DF834E0159744
:104320008DF859609DF84470129E8DF85A4017938D
:10433000139C149B189119906A4615A928468DF86C
:1043400058E08DF868701B961C941D93FFF76EFD66
:1043500028461FB0F0BD2846FFF796FD28461FB03F
:10436000F0BD00BF4CD10000064B074ADA620221C3
:10437000002259609A7083F8242083F8302083F853
:1043800032207047703000204CD10000052823D81F
:10439000DFE800F0030310161C0A124B12484FF01E
:1043A00038421A60FFF7DEBB0E4B104A1A600E4807
:1043B000FFF7D8BB0B4B0E4A1A600B48FFF7D2BB76
:1043C000084B0C4A1A600848FFF7CCBB054B0A4A59
:1043D0001A600548FFF7C6BB024B084A1A6002483C
:1043E000FFF7C0BBC430002004A4FF1F0320013826
:1043F0000000013801100138032000380650003851
:1044000010B50121007803F063F80E4A137893B1D8
:104410000D49CB7A00241846147063B1DC0703D52C
:104420000A4A8869106018469A0705D4430702D5DE
:10443000074B0A6A1A6010BD064BCA69C87A1A602F
:10444000F4E700BFC830002004A4FF1F00E100E033
:1044500008E100E004E100E01E4B1A781AB1007890
:10446000002103F035B870B41B4A1C49D47A09689E
:1044700001251D70ECB172B6D37ADE071C4606D555
:10448000174DD4682E68344094612C601C469D07FB
:1044900006D5144D13692E68D47A3340D3612B604E
:1044A000630705D5104C536925682B4013622360C0
:1044B00062B61368DA688A4207D00C4C1C600C4A5A
:1044C000D96041F080441C611A600078002170BC02
:1044D00002F0FEBFC830002004A4FF1FC43000203B
:1044E00080E100E084E100E088E100E001403F007D
:1044F00000003F80F0B41248124A036882B01646AA
:104500000093009F4FF00045FF24136843F480633D
:104510001360D5625463D36A002BFCDAB36BDBB251
:10452000FF2B09D003680193019BDB1B8B42ECD36B
:10453000002002B0F0BC7047012002B0F0BC704710
:10454000BC33002000C00240F8B50D464FF4967110
:1045500016460446FFF7CEFF284B1A684FF000407E
:1045600042F4806245F040011A60D8621A465963ED
:10457000D36A002BFCDA214918204FF000470A6863
:1045800026FA00F342F48062DBB20A60CF624B632A
:10459000CB6A002BFCDA083810F1080FEFD155B3C5
:1045A000082D0CBF8721FF21144B1A684FF00040E3
:1045B00042F480621A60D8621A465963D36A002BAB
:1045C000FCDA0E4A002716464FF00045FF2113681B
:1045D00043F480631360D5625163D36A002BFCDA25
:1045E000B36BD8B21B06607000D4F8BD0137B7F5C5
:1045F000807FECD1F8BD9521D6E700BF00C0024016
:104600002DE9F0430023934E027085B08370336828
:1046100001930546884610460121019F02F058FF8C
:104620002878012102F068FF2878012102F050FF6C
:10463000894A136843F4805313600620FFF7A6FEEF
:10464000DFF840E2854B9EF80BC01A68BCF1000F02
:1046500020D072B69EF80B30DC07194608D580488A
:10466000DEF80C1004682140CEF8181001601946DD
:10467000980709D57B48DEF8103004689EF80B10C7
:104680002340CEF81C300360490700F1A28062B6D7
:104690009EF80BC0DEF80030D968914207D072480E
:1046A00018607249DA6042F0804018611960704AFF
:1046B0000A244FF00040FF21136843F48063136025
:1046C000D0625163D36A002BFCDA013C14F0FF0482
:1046D000F2D1BCF1000F18D01CF0010F05D0654BD2
:1046E000DEF818209EF80BC01A601CF0020F05D0EF
:1046F000614BDEF81C209EF80BC01A601CF0040F02
:1047000003D05E4BDEF820201A602846FFF7A4FE97
:1047100006E033680293029BDB1BB3F5FA6F51D8B6
:10472000002211462846FFF70FFF012881466870D6
:10473000EFD14FF4D57208212846FFF705FF430754
:1047400026D585F802904FF0000906E03368039300
:10475000039BDB1BB3F5FA6F34D8002237212846C0
:10476000FFF7F2FE4A4629212846FFF7EDFE687062
:104770000028EBD1AB78022B39D02846FFF740FE5A
:104780004046FFF703FE0124204605B0BDE8F08354
:10479000374A042194464FF0004EFF20136843F43B
:1047A00080631360C2F82CE05063D36A002BFCDAFC
:1047B000DCF838300139DBB211F0FF016B70EDD15C
:1047C000AA2B0FD02846FFF71BFE204605B0BDE8F8
:1047D000F0832B49DEF8143008680340CEF820300F
:1047E0000B6054E70223AB704FF08049B5E70246F7
:1047F0003A212846FFF7A8FE0028E3D11C4B1A688F
:104800004FF0004442F48062FF201A601946DC62D7
:104810005863CB6A164A002BFBDA936B144A03F0F9
:10482000C003C02B04BF0323AB70032116464FF017
:104830000044FF20136843F480631360D462506324
:10484000D36A002BFCDA013911F0FF01B36BF1D10F
:1048500093E700BFBC3300203C800440C4300020FC
:1048600080E100E084E100E001403F0000003F8083
:1048700000C0024000E100E004E100E008E100E0E7
:1048800088E100E004A4FF1FF0B41549154A0B6845
:1048900082B016460093009F4FF00045FF24136836
:1048A00043F480631360D5625463D36A002BFCDA4F
:1048B000B36BDBB2FF2B43700AD10B680193019BF2
:1048C000DB1BB3F5967FEAD9002002B0F0BC70473D
:1048D000A3F1FE00B0FA80F0400902B0F0BC7047CE
:1048E000BC33002000C00240F8B58378032B0E468D
:1048F000044618BF4E021546FFF7AEFD32461121A1
:104900002046FFF721FE18B92046FFF7BDFF20B96A
:104910002046FFF775FD0020F8BD204B2049214AB5
:104920001A608E4659631A4659631E46596305F547
:10493000FD70A91C05F5FE77D36A13F0F00FFBD0CC
:10494000C6F834E0B36B01F8013C1B1201F8023CDD
:1049500002318F42F0D105F50075A8420DD20F4A01
:104960001646D36A13F0F00FFBD0B36B191200F8A0
:10497000021BA84200F8013CF3D3084B0949084A3E
:10498000196019465A63CB6A044A13F0F00FFAD043
:104990002046936BFFF734FD0120F8BD00C00240B4
:1049A000FFFF009000041F80F0B4314E33684FF0D9
:1049B000004743F4806333603D46F76234467163D9
:1049C0003346511C02F20127E26A002AFCDA1A6817
:1049D00011F8016C42F480621A60DD625E63E26A83
:1049E000002AFCDA1A6811F8026B42F480628F42E6
:1049F0001A60DD625E63E7D11D49CA6A1C4B002A5A
:104A0000FBDA1A684FF0004542F48062FF241A6016
:104A10001946DD625C63CB6A154A002BFBDA13682A
:104A20004FF0004543F48063FF2413601146D562C4
:104A30005463CB6A0E4A002BFBDA13684FF0004533
:104A400043F48063FF2413601146D5625463CB6A3C
:104A5000074A002BFBDA936BDBB203F01F024370B3
:104A6000A2F10500B0FA80F04009F0BC704700BF29
:104A700000C0024070B5044671B18378032B0D4627
:104A800018BF4D021646FFF7E7FC2A4618212046BC
:104A9000FFF75AFD054620B12046FFF7B1FC002084
:104AA00070BD3246FE212046FFF77EFF0028F3D07E
:104AB0004FF416712046FFF71DFD0028ECD02A4662
:104AC0000D212046FFF740FD0028E5D10B4B1A6869
:104AD0004FF0004542F48062FF201A601946DD6203
:104AE0005863CB6A054A002BFBDA936B13F0FF0F78
:104AF000D2D12046FFF784FC012070BD00C00240E7
:104B0000014B024A1A607047C4300020011001387E
:104B100038B590F90530002B03DBBDE8384000F0D4
:104B20006DBC04460121006900F092FCF8B1257DBE
:104B3000104B13EB45151AD0A3790F4A012B9CBFDC
:104B4000A369EB61E36912686B831B0CAB8232B122
:104B500005F1160105F1180090472B8B6B826379E4
:104B600003F07F036371BDE8384000F047BC0020CC
:104B700038BD00BFD8300020CC30002010B500F187
:104B8000080204460121006A00F04CFD50B1E369BF
:104B90003BB96379A268E26163F07F03637101202E
:104BA00010BD012010BD00BF70B50646FFF7E6FF3F
:104BB00098B1326AB568117C53691479023D8D4011
:104BC000013B74B11D4402E014F0FF0407D06019EA
:104BD00000F0A4FC013C0028F6D1002070BD336A2F
:104BE000197CB0694FF4007202FA01F30344B36117
:104BF000012070BD82790AB90020704710B50446C3
:104C0000FFF786FF18B10023A371012010BD00201B
:104C100010BD00BF002270B4013814462E2610F8D3
:104C2000013F202B04D0082A09D0651C0B55ECB29B
:104C300001320B2AF3D100230B5570BC70470E557F
:104C40000134E4B20378F0E770B44B1E01F10A04BA
:104C5000202203F8012FA342FBD1013800250726AB
:104C600010F8014F2CB32E2C1ED0164A01E09C42A6
:104C700017D012F8013B002BF9D1AE421FD3A4F19B
:104C800021025D2A1BD8A4F16102192A05F1010352
:104C900098BF203C0D44DBB298BFE4B22C701D4697
:104CA000DEE7002070BC70470A2EFAD008250A26DD
:104CB000D6E70B78B3F1200018BF0120F2E71846C1
:104CC000F0E700BF5CD1000038B583793BB991F8BB
:104CD0002020102A0D46044603D0202A10D00020A0
:104CE00038BD022282714A8CC36153018361002363
:104CF0000120607123752562A360E360236138BDE4
:104D000003238371496AC16100F11802284600F04B
:104D100059FC0028EBD1E2E7837913B94FF0FF305B
:104D200070472DE9F04F8B464179C90783B005469E
:104D300058D5C1688469641A944228BF144626462F
:104D40000194002C64D01A46022ADFF8E890384F0C
:104D5000DFF8E4802A6AC1F3080A3FD01479013CE5
:104D600004EA5124E4B2BAF1000F5ED1002C5CD108
:104D7000002951D1E969A960107C5269023981404A
:104D800014440819CAF500746A79B442A8BF3446BD
:104D900053062CD4B4F5007F29D0002100F058FB35
:104DA00000B30AEB090E0EEB040086450BD00BF1A5
:104DB000FF32734613F8011B02F8011F9842F9D124
:104DC000CEEB00008344E968361B2144E9601FD024
:104DD000AA79022AC1F3080A2A6ABFD1506A00EBF5
:104DE0005120CFE74FF0FF3003B0BDE8F08F3A68B5
:104DF0009042D2D001465A46D8F80000FFF774FD21
:104E00000028EFD0E968361B2144A344E960DFD1D4
:104E1000019803B0BDE8F08F1046A96805F10802BB
:104E200000F098FB0028DDD02A6AA968A4E700BF3B
:104E30003CA4FF1FD8300020D430002038B583793F
:104E4000012B16D9C368DA060C46054611D120227B
:104E500021462846FFF760FF40B220280CD1237876
:104E600063B1E52BF3D02E2BF1D0E37A1B07EED400
:104E700038BD4FF0FF3038BDC01738BD184638BDBB
:104E80008379012B17D930B5C36883B001220DF1A6
:104E900007010446C3F34315FFF73EFF012802D084
:104EA000002003B030BDE36804481F3300EB451019
:104EB000E36003B030BD0020704700BFD830002051
:104EC000F8B5837913B182698A4201D20020F8BD16
:104ED000022B0F4605461AD007B32B6AE9681C7CE3
:104EE0004A1E04F109037C1EDA40DC40A24211D9BB
:104EF000EB69AB6005F1080606E0A968286A00F0D6
:104F000029FB013C0028E1D03246002CF5D1EF60AE
:104F10000120F8BD0029EBD0A41AEBE7AF60EF60E9
:104F20000120F8BD83790BB1FFF7F2BD1846704739
:104F30008379012B01D000207047F0B54579AC078B
:104F400083B002461CD585698D420C4618D3D5B175
:104F50002546D6681446FFF7B3FF88B1B5B9E169B5
:104F6000206A00F0E7FB58B1E56122E000F0E2FBC7
:104F700030B16FF07042A168206A00F0CBFBC0B97D
:104F8000002003B0F0BD184603B0F0BD01AAA1682F
:104F9000206A00F0DFFA0028F2D0206A0F4B90F868
:104FA000207001994FF6F872102F08BF13469942EE
:104FB000DCD36379A279A56163F07F036371002A72
:104FC000DED02046FFF7A4FD0028D9D0B5422946FF
:104FD000204628BF3146FFF773FFD2E7F8FFFF0FE7
:104FE00070B51D4B03EB4116F37A13F0110F02D08D
:104FF00012F0420F1ED1194B01751B680361738BB0
:10500000B18A43EA0141C161F37A13F018031546EE
:1050100004460DD1F36983610123837105F00F0309
:10502000002163716B06A160E1600FD4012070BDA7
:10503000102B01D0002070BD00F11802006A00F0B2
:10504000C1FA0028F6D00423A371E7E72046BDE8A3
:105050007040FFF76DBF00BFD83000203CA4FF1F99
:105060002DE9F04784B001AF06460C46104639469C
:105070009946FFF7E9FD78B30022216A31621346B1
:105080001546A260E260DFF8008108E0E52B1CD045
:1050900001460B22384606F0BDFA88B3E368A269E0
:1050A0009A421DD92046C3F3431AFFF7E9FE98B18F
:1050B0000378002BEAD15DB9D8F8003086F814A047
:1050C0003361037823B10125E8E7002DFBD1F3E735
:1050D00009F01203122B1DD0002004B0BDE8F087A8
:1050E00009F01203122BF7D1A5B9A379022BF3D043
:1050F0002046FFF759FD0028EED0214C357514E00D
:1051000009F03003302BE7D04A4651463046FFF7CE
:1051100067FFE2E70121306900F09AF90028DBD04F
:10512000347D174B13EB4414D6D0202200212046A7
:1051300006F006FB97E80700234603C3114923F84E
:10514000022B0D68120C1A709DB104F10E0104F1CE
:105150001000A847238AE28963822383E28200F059
:105160004DF90028B8D04A46317D3046FFF738FF68
:10517000B3E742F621034FF400622382E281EBE7BA
:10518000D8300020CC3000203CA4FF1F10B484791C
:1051900014B1002010BC704710BCFFF761BF00BF06
:1051A00010B500210446FFF7C3FE08B9002010BD6A
:1051B0000121206900F04CF90028F7D0237D064A30
:1051C0005B01DA42F2D0E52098540021A171BDE8DC
:1051D000104000F013B900BFD830002030B58BB0BC
:1051E00000240A46084D8DF808400146022301A814
:1051F0008DF80A400195FFF733FF10B101A8FFF7C2
:10520000CFFF0BB030BD00BF4CD100002DE9F04FF7
:105210008B46817985B001290746019205D001238B
:105220003B71002005B0BDE8F08F42799107F6D5BB
:10523000530708D5FC68B9698C4200F0A880FFF7D5
:105240003FFE0028EBD0019BFC68002B49D0DFF823
:105250008C91DFF88CA1DDF80480386A0679013E74
:1052600006EA542616F0FF06C4F3080442D1002CC7
:1052700040D1B96800296FD1FA69002A7ED0BA609E
:10528000C4F50075ADB245453AD9057C4169023A8D
:10529000AA400E4416441FFA88F51CB9F868BA698A
:1052A00090424CD23046012100F0D2F80028B6D00E
:1052B0004C4404EB050E74450DD00BF1FF31621E1A
:1052C0000EF1FF3611F8010F02F8010F9642F9D1E5
:1052D000C4EB0E04A344FC68B8EB05082C44FC6046
:1052E000BBD1BB69A34257D27A79BC6142F080023C
:1052F0007A715AE0C4F50075ADB24545BA68C4D8B4
:10530000017C4069023A8A400644B5F5007F1644A4
:10531000C3D1DAF80020964204BF4FF0FF32CAF83A
:1053200000202A4A314610685A46FFF7A3FB00289E
:105330003FF475AF0BF5007B4FF40075CBE700F041
:105340005DF800283FF46BAF2149CAF800600A7885
:1053500042F001020A70ABE703AA00F0FBF8002854
:105360003FF460AF386A1B4B90F82050039A4FF619
:10537000F871102D18BF19468A4280D33846FFF7BE
:10538000FDFB00283FF44BAF386ABA6878E7019B11
:10539000002B7FF45CAF08E00F4B7A791B6823B1D8
:1053A000019B13B142F080027A71120709D5BB79D3
:1053B000002B3FF434AF3846FFF7AAFB00283FF438
:1053C0002EAF019805B0BDE8F08F00BFD4300020AB
:1053D000D8320020F8FFFF0FCC300020D83000205A
:1053E0003CA4FF1F00B583B002AB012203F8011DEE
:1053F0001946FFF70BFF03B05DF804FB70B50F4CC7
:1054000023780BB9012070BD0D4B0E4D196828682B
:105410000D4AFFF72FFB70B10C4E316819B900230C
:105420002370012070BD2868074AFFF723FB10B1E5
:1054300000233360F3E7002070BD00BFD8320020A6
:105440003CA4FF1FD4300020D8300020D0300020F2
:1054500070B50D4D2B6883420E460ED00446FFF703
:10546000CDFF08B9002070BD084B094A18682146D5
:10547000FFF73AFA0028F5D02C60064B1978314333
:105480001970012070BD00BF3CA4FF1FD430002064
:10549000D8300020D8320020F8B590F82030C46908
:1054A000102B1A4B05460E4617461B6816D004EB08
:1054B000D1149C4216D106F07F06154A42F8267098
:1054C0001449287E0A78012842F001020A7018D98E
:1054D000A968114A0B4413600120F8BD04EB1124A4
:1054E0009C4208D000212046FFF7B2FF50B195F84A
:1054F0002030102B07D1F6B2054A234622F8167049
:10550000DEE70120F8BD2346D5E700BF3CA4FF1F1E
:10551000D8300020D8320020D030002010B504460A
:10552000FFF76CFF78B1084B002103F5007203F818
:10553000011F9342FBD1054A054913780C6043F0E3
:1055400001031370012010BDD7300020D832002095
:105550003CA4FF1FC36801338B4218D370B590F889
:105560002030102B154B044616460D46C0691B68AB
:105570000FD000EBD11098420FD105F07F01104BF6
:1055800053F8213023F070433360012070BD0020B8
:10559000704700EB1120984207D00021FFF758FF19
:1055A00050B194F82030102BE7D1E9B2044B33F816
:1055B00011303360012070BD002070BD3CA4FF1F7E
:1055C000D83000202DE9F04782B002ADDFF85080DE
:1055D00045F8041D044691464FF0000A4FF4007749
:1055E0004FF6F8760CE094F82030227C0199102BCD
:1055F00014BF4346334607FA02F29942924408D256
:105600002A462046FFF7A6FF0028ECD102B0BDE8ED
:10561000F0870120C9F800A002B0BDE8F08700BF04
:10562000F8FFFF0F2DE9F04F176883B06FB3013714
:105630004FF0000AC36803F1010813B38B46064616
:1056400091463C46002505E01C461F46F36801359F
:10565000AB4216D9A04538BF0224214601AA3046E4
:1056600038BF2746FFF776FF631CD91B48B1019A64
:10567000002AE9D18B4510D01C46F3680135AB42B6
:10568000E8D8002003B0BDE8F08FA1F1010ABAFA12
:105690008AFA07684FEA5A1ACCE7012CF1D9F36865
:1056A00001339C42EDD86FF0704221463046FFF73F
:1056B000F3FE0028E5D0A74214D2013C012CE0D92A
:1056C000F36801339C42DCD8621C21463046FFF768
:1056D000E3FE0028D5D0A74204F1FF3402D0012C0C
:1056E000EED1CEE7D9F8001059B10129C9D9F36834
:1056F00001339942C5D83A463046FFF7CDFE00281F
:10570000BFD0C9F80070BAF1000F01D0013737607F
:105710000120B7E701290AD9C3680133994210B4BF
:1057200002D810BCFFF7B8BE002010BC70470020A4
:10573000704700BFF0B5022383B00546134F0360E6
:105740000C464FF6F8760FE0EB6801339C4216D812
:10575000FFF7A2FE98B195F82030019C102B0CBFEA
:1057600033463B469C420DD201AA21462846FFF70C
:10577000F1FE2146002210B1012C2846E4D8002079
:1057800003B0F0BD012003B0F0BD00BFF8FFFF0F74
:10579000F8B53E4B054619601446DAB1042A01D922
:1057A0000020F8BD00210846FFF752FE0028F7D080
:1057B000374B03EB041292F8AE215206F0D11B34A2
:1057C00003EB0414D4F80A30632BE9D9D4F806406B
:1057D000002CE5D000212046FFF73AFE0028DFD05C
:1057E0002B4AB2F80B30B3F5007FD9D1117C0029D8
:1057F000D6D0D389002BD3D0567B002ED0D0002317
:1058000029762E712B74012703E009290B46297490
:10581000C6D007FA03F0B04203F10101F5D1D68AF0
:105820001B4906B94E6AB2F80EE0AE60A644C5F850
:105830001CE0B2F81110177C6984480106FB07E6EA
:1058400000F2FF1006EB60206E626861B2F8131080
:105850000F4E01B9316A241A0C4424FA03F340F6BE
:10586000F4718B42EB600BD94FF6F4718B4285BF1C
:10587000D36A6B621023202385F820300120F8BD05
:105880000C2385F820300120F8BD00BFD430002063
:10589000D830002090F8392090F83800101A70475E
:1058A00090F8383090F839209A4205D95A1C0344B0
:1058B00080F83820187E70474FF0FF30704700BFE7
:1058C00090F8383090F839209A4286BF1B18187E1D
:1058D0004FF0FF30704700BF704700BF38B5054636
:1058E000B0F85E0090B195F85D301446C3F1210226
:1058F00094420CD805F13B001844224601F0AEFB5F
:1059000095F85D30234485F85D30204638BD012090
:1059100014462871EEE700BFB0F85E306BB190F826
:105920005D30202B07D8C218013380F85D3001208C
:1059300082F83B107047012303710020704700BFBD
:1059400010B50269D378DBB2D90604463DD51021E3
:105950005806D17038D503F0040303F0FF02002B82
:1059600051D03D49626E00230B7084F85D30002AEF
:105970005BD0904794F85D30002B56D02369D0223D
:105980009A70236994F83B201A712369012284F8E4
:105990005C200222DA7010BD304B84F860009C421B
:1059A0004AD02F4B9C4252D094F8391013791F29BA
:1059B000DBB207D82848007820B16018013184F89C
:1059C000391003760223D37010BD5906C3D49178E1
:1059D00001F0100101F0FF000029DDD013F00103F8
:1059E0001ED194F85C1094F85D00884281BF4B1C76
:1059F000091984F85C3091F83B3013712369D02287
:105A00009A702269DEE7236984F83920C0229A70EF
:105A10002369114A1979012111700222DA7010BD2F
:105A2000C023937022691379CCE70122002384F804
:105A30005D2084F83B30A1E7626994F86130094940
:105A400013440322187A01F071FC2269ACE7626901
:105A500094F861300449F3E7D932002040A4FF1FD5
:105A6000ACA4FF1FC95A0000D55A00000369DB78B7
:105A700003F0200373B190F860300133DBB2012BE7
:105A800080F860301AD9426990F861301344187A6E
:105A900001F0C8BC70B5426903F0FF0590F86130B1
:105AA00013440446187A01F0BDFCA36E5BB184F880
:105AB000385094F83900BDE87040184790F85F30CE
:105AC000002BE0D0704770BD0148FFF7CFBF00BF8B
:105AD00040A4FF1F0148FFF7C9BF00BFACA4FF1FD0
