:1000000000800020BD01000021450000E544000003
:10001000E5440000E5440000E5440000E54400003C
:10002000E5440000E5440000E544000021450000EF
:1000300021450000E544000021450000D5440000B2
:100040002145000021450000214500002145000018
:100050002145000021450000214500002145000008
:1000600021450000214500002145000021450000F8
:1000700021450000214500002145000021450000E8
:1000800021450000214500002145000021450000D8
:1000900021450000214500002145000021450000C8
:1000A000353E0000214500002145000021450000AB
:1000B00021450000214500002145000021450000A8
:1000C0002145000021450000214500002145000098
:1000D0002145000021450000214500002145000088
:1000E0002145000021450000214500002145000078
:1000F00021450000E564000021450000E16A0000A0
:10010000214500000170000021450000214500004C
:100110002145000021450000214500002145000047
:100120002145000021450000214500002145000037
:100130002145000021450000214500002145000027
:100140002145000021450000214500002145000017
:100150002145000021450000214500002145000007
:1001600021450000D54C000021450000214500003C
:1001700021450000214500002145000021450000E7
:1001800021450000214500002145000021450000D7
:1001900021450000214500002145000021450000C7
:1001A00021450000214500002145000021450000B7
:1001B0002145000021450000A5590000574B4CF295
:1001C000205210B51A804DF628121A8000BF00BFC9
:1001D00004F0AAF9524B4FF010621A60514A9A602B
:1001E000514ADA60A3F53043203B1A6812F480725A
:1001F00004D14E490A604FF4A8521A604C4B1A7849
:10020000110703D51A7842F008021A70494B4A4C7C
:100210004A482A221A704A4A00239918A14203D256
:10022000195899500433F8E7464B474900228B424E
:1002300002D243F8042BFAE74448454900235A58B0
:100240001A500433B3F5DE7FF9D1424B424A802184
:1002500003F8011B9342FBD1404B3C4A1A60404BD0
:100260000A221A70A3F5805324225A70A0221A7011
:100270009A799207FCD59A79D406FCD4394A9379B5
:1002800003F00C03082B374BF9D105221A714322D6
:100290005A719A799006FCD5324A9179314B4906C8
:1002A000FBD5314A4FF08171116005215160202248
:1002B0001A709A7902F00C020C2AFAD12B4B2C4AB4
:1002C0001A602C4B2C4A1A6000225A60072243F80D
:1002D000042C2A4AC3F80C2D62B604F0BDFB134B64
:1002E0001B68DA0705D5264804F018FB254B264A7B
:1002F0001A60264B1B785B0609D5224C224A2368DC
:10030000934204D11E4804F009FB0023236009F046
:1003100057F904F00FF905F0E5FDFEE70E20054062
:1003200030800440823F04000100002B14D00340C1
:1003300002D0074000E007409098FF1F8CB90000F2
:10034000608FFF1F9098FF1FA4FFFF1F008AFF1FF1
:100350000000000000E400E05FE400E008ED00E0E1
:1003600000500640004006404480044004800440A1
:10037000C010050014E000E03F190100000020203B
:100380007C7209571CE00340A5C3945A00F0074053
:10039000FFFFFFFFFFFFFFFFFFFFFFFFFFFFFFFF6D
:1003A000FFFFFFFFFFFFFFFFFFFFFFFFFFFFFFFF5D
:1003B000FFFFFFFFFFFFFFFFFFFFFFFFFFFFFFFF4D
:1003C000FFFFFFFFFFFFFFFFFFFFFFFFFFFFFFFF3D
:1003D000FFFFFFFFFFFFFFFFFFFFFFFFFFFFFFFF2D
:1003E000FFFFFFFFFFFFFFFFFFFFFFFFFFFFFFFF1D
:1003F000FFFFFFFFFFFFFFFFFFFFFFFFFFFFFFFF0D
:10040000FFFFFFFFFFFFFFFFFFFFFFFFFEFFFFFFFD
:1004100010B5054C237833B9044B13B10448AFF33E
:1004200000800123237010BD9098FF1F0000000082
:100430008CB9000008B5064B1BB106480649AFF35E
:1004400000800648036813B1054B03B1984708BD07
:10045000000000008CB900009498FF1F9098FF1FC7
:10046000000000000122014B1A707047A09AFF1F84
:1004700008B505F0A1FC08BD10B50446034A40F8D4
:100480001C2B01F087FE204610BD00BF90B4000079
:1004900038B5064D05F5BB442C34143D204605F017
:1004A000AFFB143CAC42F9D138BD00BFD09AFF1F5E
:1004B00010B5074C23685B68204606490E22984712
:1004C000204605F039FB044A044B1A6010BD00BFFA
:1004D00088FDFF1F38B000000400FA050CED00E0B5
:1004E0000F4B03604172026100230372C36039B194
:1004F0001946026942F823100133427A9A42F8DC25
:10050000084B1A680AB9186004E053690BB11A461F
:10051000FBE75061002343618380C380704700BFC5
:1005200030B0000058FDFF1F2DE9F04FA3B0064684
:1005300001915F4FDFF894B106A83146012202F025
:1005400069F806A801F07AFE002800F0A38006A84A
:1005500001F026FE014602A805F09EFB02A83946DE
:1005600005F088FC00283CD00EA8524905F094FB09
:1005700002A80EA905F072FC04460EA805F040FB87
:100580007CBB584605F0A6FC04464B4B1B689842C2
:10059000C4BF494B1860DFF83881484D55F820300A
:1005A00003EB830340F2DC5909FB00F909EB830AF2
:1005B000C24406A801F0F4FD0146504605F096FB42
:1005C00055F824A006A801F013FE0AEB8A0A09EBED
:1005D0008A09C844C8F8100055F82430013345F89A
:1005E000243006A801F0DEFD002857D012A83449B7
:1005F00005F052FB02A812A905F030FC00284FD1EB
:1006000016A8304905F048FB02A816A905F026FCFB
:10061000D0F1010438BF002416A805F0F1FA00E07B
:10062000002412A805F0ECFA54B306A801F0B8FDB6
:100630000146584605F05AFB9DF81C308DF86C3089
:10064000089B1C939DF824308DF874301E4B1A9330
:1006500022AB53F8630D59689A68CDF87500CDF850
:100660007910CDF87D201B7B8DF881300D9B219377
:100670001AA8019B591CFFF757FF1AA801F08AFD21
:1006800006A801F0CFFD02A805F0BAFA06A801F00D
:1006900081FD51E706A801F07DFD06E0002300E0A2
:1006A0000123002BBCD10024BEE723B0BDE8F08FAE
:1006B000289AFF1F48B00000489AFF1F589AFF1F52
:1006C0004CB0000054B00000D0B40000E499FF1F0B
:1006D000D09AFF1F30B585B004460D4668462146C6
:1006E0000A2205F015FB68460E4905F041FB05EBB3
:1006F000850540F2DC5303FB04F404EB85056846F2
:100700000949294405F02CFB084C68462146112272
:10071000002305F0C7FB684605F072FA204605B0D5
:1007200030BD00BF5CB00000D09AFF1F089AFF1FC9
:1007300038B5164C23685B68204615490522984752
:100740002046144B196805F043FA23685B6820467D
:100750001149092298472046104B196805F038FACC
:1007600023685B6820460E49062298470D4B1D689A
:1007700028460AF06FF9024623685B68204629463E
:100780009847204605F0D8F938BD00BF88FDFF1F07
:1007900064B000000499FF1F6CB000001C9AFF1F9A
:1007A00078B00000C099FF1F10B504460620C4F3BE
:1007B000C00104F0C3F80520C4F3800104F0BEF8C2
:1007C0000420C4F3400104F0B9F8032004F001014F
:1007D00004F0B4F810BD00BF38B572B62F4B1B7FC4
:1007E00003F0FF0213B100212C4B197762B6002AE7
:1007F00052D02B4B1A682B4B1A6072B6274BB3F9A9
:100800002000B3F91E20801A47F6FF72DA834FF4F6
:1008100000421A8462B608F079FC234908F07EFD94
:100820004FF0814108F0C6FC0446002108F074FE38
:1008300038B120464FF07C5108F0B4FB08F080FE40
:1008400006E020464FF07C5108F0AAFB08F078FE45
:1008500008F07AF802460B4600204FF0804106F07F
:1008600049FE04460D460022002308F059FB40B122
:100870002046294600220D4B07F01AFF08F064FBC2
:1008800007E0204629460022084B07F00FFF08F03A
:100890005BFB0138FFF788FF38BD00BF1099FF1FD1
:1008A00060FCFF1FCC9AFF1F00FF7F470000E03F66
:1008B00008B505F00FFB012814BF0020012008BD7A
:1008C00030B5A1B004460D46544905F091FA58B12F
:1008D0006846294605F0FEF96846FFF7E9FF504BE8
:1008E0001870684605F08CF920464E4905F080FAEC
:1008F00020B1284605F0EEFA4B4B186020464B49D4
:1009000005F076FA58B104A8294605F0E3F904A8E1
:10091000FFF7CEFF464B187004A805F071F920468A
:10092000444905F065FA20B1284605F0D3FA424B58
:1009300018602046414905F05BFA58B108A82946DD
:1009400005F0C8F908A8FFF7B3FF3D4B187008A8D9
:1009500005F056F920463B4905F04AFA58B10CA873
:10096000294605F0B7F90CA8FFF7A2FF364B18701F
:100970000CA805F045F92046344905F039FA58B17C
:1009800010A8294605F0A6F910A8FFF791FF304BF3
:10099000187010A805F034F920462E4905F028FA01
:1009A00058B114A8294605F095F914A8FFF780FF5F
:1009B000294B187014A805F023F92046274905F0A3
:1009C00017FA20B1284605F085FA254B1860204615
:1009D000244905F00DFA58B118A8294605F07AF90E
:1009E00018A8FFF765FF204B187018A805F008F944
:1009F00020461E4905F0FCF970B11CA8294605F0F7
:100A000069F91CA8FFF754FF194B18701CA805F0D2
:100A1000F7F80122174B1A7021B030BD1CB100004D
:100A2000019AFF1F24B10000748FFF1F2CB100003A
:100A3000788FFF1F38B100006C8FFF1F44B100009A
:100A4000808FFF1F58B10000708FFF1F68B100003A
:100A5000F899FF1F7CB100009099FF1F90B1000032
:100A6000848FFF1FA0B10000888FFF1FA8B1000076
:100A7000698FFF1F989AFF1F30B5A1B0684600210B
:100A800005F00AF904A8002105F006F908A849496B
:100A9000494A012301F028FD484C9DF82430237178
:100AA0000A9BA3609DF82C30237320AB53F8535D51
:100AB00058689968C4F80D50C4F81100C4F81510AE
:100AC0001B7B63760F9BE36108A801F063FB204664
:100AD00001F0B4FB00285BD0254650E0284601F029
:100AE000E3FAC4B23D2C14D010A8694605F0F2F820
:100AF00010A8214605F05AF90146684605F0E0F8CD
:100B000010A805F07DF8284601F0CEFAC4B23D2CBD
:100B1000EAD1284601F0C8FAC4B20A2C2FD014A892
:100B200004A905F0D7F814A8214605F03FF90146BD
:100B300004A805F0C5F814A805F062F8284601F0ED
:100B4000B3FAC4B20A2CEAD118A8694605F0C2F873
:100B50001CA804A905F0BEF818A81CA9FFF7B0FE50
:100B60001CA805F04DF818A805F04AF8144C684682
:100B7000214605F0BBF804A8214605F0B7F8284641
:100B800001F03CFB0028A9D10C4801F04BFB09E027
:100B90000C4C23685B6820460B491A229847204674
:100BA00004F0CAFF04A805F02BF8684605F028F801
:100BB00021B030BDF0F8FF1FB0B10000E498FF1F76
:100BC000B0B0000088FDFF1FC0B1000030B589B093
:100BD000624D634C2846214601F010FD68462946C7
:100BE0002246132301F080FC5E4C9DF804302371F3
:100BF000029BA3609DF80C30237308AB53F8135D80
:100C000058689968C4F80D50C4F81100C4F815105C
:100C10001B7B6376079BE361684601F0BBFA2368A0
:100C20005B68204650490522984720464F4B19786B
:100C300004F0CEFF204604F07FFF23685B68204667
:100C40004B490822984720464A4B196804F0C0FFD8
:100C5000204604F071FF23685B68204646490A225B
:100C600098472046454B197804F0B2FF204604F01F
:100C700063FF23685B68204641490A229847204663
:100C8000404B196804F0A4FF204604F055FF236888
:100C90005B6820463C491122984720463B4B197817
:100CA00004F096FF204604F047FF23685B68204667
:100CB0003749102298472046364B197804F088FFB0
:100CC000204604F039FF23685B682046324912222F
:100CD00098472046314B197804F07AFF204604F0FB
:100CE0002BFF23685B6820462D4911229847204638
:100CF0002C4B197804F06CFF204604F01DFF23688C
:100D00005B68204628490F2298472046274B1968E0
:100D100004F05EFF204604F00FFF23685B68204666
:100D20002349082298472046224B197804F050FFA7
:100D3000204604F001FF23685B6820461E49052217
:100D4000984720461D4B197804F042FF204604F0D6
:100D5000F3FE204601F066FA09B030BDF0F8FF1F3F
:100D6000B0B10000E498FF1FA0B00000019AFF1F7F
:100D7000A8B00000748FFF1FB4B00000788FFF1F71
:100D8000C0B000006C8FFF1FCCB00000808FFF1F31
:100D9000E0B00000708FFF1FF4B00000F899FF1F53
:100DA00008B100009099FF1FDCB10000848FFF1F85
:100DB000ECB10000888FFF1FF8B10000698FFF1FA2
:100DC0002DE9F04192B00220002103F0E9FD082056
:100DD000002103F0E5FD0920002103F0E1FD0B20D7
:100DE000012103F0DDFD0620012103F0D9FD0520DE
:100DF000012103F0D5FD0420012103F0D1FD0320E2
:100E0000012103F0CDFD684B1868FFF7CDFC674862
:100E1000052104F0A7FC664B1A7842F005021A700F
:100E200064480A2101F0C0FAF0B90024614D624F14
:100E3000624E13E00F20FFF7B7FC642003F0F6FDCD
:100E40000020FFF7B1FC642003F0F0FD0134062C14
:100E500004DD4FF4FA7003F0E9FD3E6028460A21F4
:100E600001F0A2FA0028E5D0524D02A82946544AC2
:100E7000012301F039FB534B9DF80C201A71049AA1
:100E80009A609DF814201A7312AA52F8336D5068B4
:100E90009168C3F80D60C3F81100C3F81510127BF8
:100EA0005A76099ADA6102A801F074F9284646498F
:100EB00001F098FB40B1FFF7DFFD444B1B782BB9E5
:100EC0000022434B1A7001E0FFF780FE3D4B1A7978
:100ED0008DF82C209A680C921A7B8DF834203D4AAC
:100EE0000A921A4652F80D4F50689168CDF8354075
:100EF000CDF83900CDF83D10127B8DF84120DB692B
:100F000011930AA80021FFF70FFB0AA801F042F98C
:100F10002F4B1B789BB1304E341F304D3C36DFF8E1
:100F2000E480142754F8041F002904DD28463A46BB
:100F3000434608F0FBFE05F2DC55B442F2D1002036
:100F400003F09CFA264B1B68984205DC164B186090
:100F50000122244B1A7003E00020014603F0A2FA9C
:100F6000214A224B9A6109202149032203F076FC91
:100F7000204803685B6820490A2298471F4B1B687A
:100F800023B91F4B12AAD31A019302E001AAD31A64
:100F90000193184C2046019904F01AFE204604F0F3
:100FA000CBFD12B0BDE8F0810499FF1F0082FF1F46
:100FB00084FDFF1FF0F8FF1F0CED00E00400FA05B0
:100FC0005CB00000AC98FF1FB0B10000989AFF1F02
:100FD000698FFF1FD0B40000589AFF1FD09AFF1FDF
:100FE000489AFF1F688FFF1FB10400004899FF1F38
:100FF0006504000088FDFF1F00B20000A08FFF1FE6
:10100000E8FFFF1F710400002DE9F04F87B0A14BEE
:101010001B68002B20DD0026354634463746B04697
:101020004FF0170B4FF0140ADFF86892584603F0A0
:1010300041F98044504603F03DF90744152003F080
:1010400039F90444162003F035F905440136D9F87E
:101050000030B342EADC03E000252C462F46A846C8
:1010600098FBF3F897FBF3F794FBF3F495FBF3F598
:10107000894B1E68B442D8BF0024B542D8BF0025B2
:10108000864B1B680493864BD3F800B0854B1B68D6
:101090000593854B1B68E31A83EAE372A2EBE372C4
:1010A0000292824B1B68EB1A83EAE37CACEBE37C95
:1010B000CDF80CC008EB070040F2FF394845A8BF47
:1010C0004846DFF84CA2DAF80020794B53F822307A
:1010D000009320EAE07000214FF480620B4604F098
:1010E00081FD744B1968744B1B68DAF8002003EB20
:1010F000830E40F2DC5C0CFB02F202EB8E02DFF8A6
:1011000014E27244D2F810E06C4AA2FB0EC2C2EBA9
:101110000E0E02EB5E0E4FEA5E2E01FB0EFE621912
:101120004A4528BF4A46B2FBF1F909FB0EF998423D
:101130001AD0049AC2EB0803002BB8BF5B425B4590
:1011400040F317815E4B18605E4B1A785E4B1A7045
:10115000524BC3F800800CE1594B18605B4B1A7876
:10116000594B1A704F4B1F60574B1B7813B101221C
:10117000574B1A70029B9E4208DA564BC3F80090F8
:10118000554B1A78554B1A70474B1C60DDF80CC054
:10119000664508DA4F4BC3F80090514B1A784F4B15
:1011A0001A70424B1D604F4800F0B4FB70B14D48BF
:1011B00000F092FB011C18BF01214B4B19704B4DE5
:1011C000284604F005FD284604F0B6FC464B1B7883
:1011D00013B9474A1678D6E0454A1278002A40F0FB
:1011E000D180444B1A68444B1A600122404B1A705C
:1011F0000026424B1B78BBB9CEE0364BC3F80090BB
:101200000022334B1A700122344B1A70374D2B6871
:101210005B6828463A490E2298472846214604F042
:10122000D7FC284604F088FC0022364B1A70002EAA
:1012300000F0B8802F4B19682F4B1B68C91A41F278
:10124000883291420AD9294C23685B6820462E498E
:101250000D229847204604F06FFC85E0254A12686D
:10126000D31A40F21452934256D9244D2B7883F06E
:1012700001032B701D4C23685B6820462349112213
:1012800098472046297804F0A3FC204604F054FC3B
:101290006AE000BF948FFF1F7C8FFF1FD898FF1F4D
:1012A0008C8FFF1FFC99FF1FCC98FF1FDC98FF1F3E
:1012B000589AFF1F848FFF1F1C9AFF1F05104000C4
:1012C000549AFF1F808FFF1F688FFF1F708FFF1FB3
:1012D000D098FF1F0899FF1FF899FF1F3499FF1F2F
:1012E0009099FF1F389AFF1F009AFF1F88FDFF1F6C
:1012F000209AFF1F60FCFF1F90F8FF1F0C99FF1F33
:101300000CB20000A09AFF1F1CB200002CB200001B
:101310000499FF1FD09AFF1F244B1B7823B3244A44
:10132000136801331360234A1268934202DD0022DE
:101330001F4B1A601E4B19681F4B53F821301F4A70
:101340001268934202DC013B1C4A136001221C4BD1
:101350001A701C4B18681C4A10601A681B4B1A60E4
:101360000020C9B203F09EF8164B1A68164B1A609B
:1013700018E0059ABB1A002BB8BF5B429B45FFF6ED
:10138000EBAEF1E60026124A1370124B1B7813F0F5
:10139000FF0F7FF42EAF47E70F4B1B78002B7FF436
:1013A0002CAF30E707B0BDE8F08F00BF0C99FF1FEE
:1013B0000499FF1F489AFF1F589AFF1F549AFF1F56
:1013C000688FFF1F60FCFF1F90F8FF1FE098FF1F52
:1013D000209AFF1FA09AFF1FD098FF1F38B58E4B91
:1013E00093F8443013F0FF0F04D18C4B1B78002B83
:1013F00040F0FE808A4B1B781BB98A4B1B78002B70
:101400006FD0FFF795F9884B1B78ABB1874C2368F9
:10141000C3EBC303C3EB83130533854AA2FB03135A
:10142000DB0884484FF0FF31B1FBF3F1002200F0FC
:101430001FFB206803F0FAFA7F4C804B1868216884
:10144000FFF748F97E4B186022687E4B1A60754B97
:101450001B783BB9714B1B7823B16F4800F02AFD14
:10146000794B1860784C236823F00F032360774D85
:101470002B685B68284676490A22984728462168E7
:101480000A22002304F068FB284604F055FB62485A
:101490006B4B1968226800F0A1FC634B1B7893B179
:1014A000624B1B68C3EBC303C3EB83130533604A72
:1014B000A2FB0313DB085F484FF0FF31B1FBF3F1F0
:1014C000012200F0D5FA5D4B1868FFF76DF9002393
:1014D000534A1370534A13705E4B1A685E4B1A607E
:1014E00006E05E4B1B781BB1544B1868FFF75CF9A4
:1014F000584B1A685A4B1B68D31A5A4A12689A42B8
:1015000005D8FFF781FD534B1A68554B1A60514BB4
:101510001A68554B1B68D31A544A12689A4203D270
:101520004C4B1A68504B1A604C4B1B7823B10B2064
:10153000012103F003FA0BE0464B1968464B1B6888
:10154000C91A0B2009298CBF0021012103F0F6F9EB
:10155000474B1B7873B13F4B1A68464B1B68D31A35
:10156000092B03D80F20FFF71FF938BD0022404B8D
:101570001A7038BD374B1A683F4B1B68D31A532B70
:1015800014D9344B1A683D4B1B68D31A3C4A126875
:101590009A420BD23B4B1B7843B1304B1B782BB993
:1015A000394B1B7833B9FFF717F938BD364B1B7829
:1015B000002B2FD0354B1A6840F213539A420FDCA0
:1015C000244B1A68324B1B68D21A40F213539A42CA
:1015D00006D90122264B1A701E4B1A68254B1A6039
:1015E0001C4B1A682A4B1B68D21A284B1A6038BD4C
:1015F000124B1868134B1968FFF76CF80146104B33
:1016000018600548002200F0E9FB124B1A68124BE3
:101610001A60EFE638BD00BF4899FF1F888FFF1F93
:10162000688FFF1F3499FF1F019AFF1F748FFF1FE0
:10163000CDCCCCCCA49AFF1F549AFF1F0499FF1F56
:10164000C099FF1F1C9AFF1F0899FF1F88FDFF1FED
:1016500040B2000060FCFF1FD498FF1F0C99FF1FD1
:10166000509AFF1F908FFF1F9C9AFF1F648FFF1FD0
:101670003599FF1F4C9AFF1FCC9AFF1FE098FF1F60
:101680006C8FFF1F788FFF1F009AFF1FF499FF1FB9
:1016900090F8FF1F2DE9F84302F0B6FE624C204699
:1016A00000F06AFDDFF8C48120466049424607F039
:1016B0006DFF5F4E304600210A46FEF711FF3046AF
:1016C0005C4B40F81C3B00F057FD304600F062FBDD
:1016D00030465949424607F059FF584F38460121D4
:1016E00007F12402FEF7FCFE554B3B604FF0FF3341
:1016F000BB61544D2846012105F11802FEF7F0FEAA
:10170000514B2B6047F6FF73EB834FF400432B8460
:10171000DFF89C914846012109F11802FEF7E0FE2E
:101720004A4BC9F80030484600F040FA4848066085
:101730004760002404724472C46004F005F945480F
:101740000760C0F8049004724472C46004F0FCF8AE
:1017500041480660456004724472C46004F0F4F8C5
:101760003E4C20463E4904F097FA20463D49424609
:1017700007F00CFF3C4D05F2DC5705F5C74808F1B2
:101780001C0800260BE02046314604F085FA14348C
:10179000AC42F8D13D4607F2DC57474503D02C4612
:1017A00005F2DC55EFE7314C00203149224607F0C5
:1017B000EDFE304D2846304904F06EFA284629499E
:1017C000224607F0E3FE2D4D284600F0D5FC2846C2
:1017D0001649224607F0DAFE29480821142200F0B3
:1017E00069F828480221142200F064F8264B196891
:1017F000264A11601968264A11601968254A116045
:101800001968254A11601968244A11601968244A28
:1018100011601968234A11601968234A11601A6817
:10182000224B1A60BDE8F883E498FF1F9521000061
:101830004899FF1F90B4000079040000A49AFF1F8C
:1018400070B400001099FF1F60B4000080B4000065
:101850003899FF1FC499FF1FD499FF1F289AFF1FB3
:101860004CB20000015C0000D09AFF1F608FFF1F88
:1018700091040000E499FF1F50B20000AC98FF1FD4
:10188000389AFF1FB099FF1F60FCFF1F249AFF1FAB
:10189000049AFF1F9C9AFF1FD498FF1F90F8FF1F08
:1018A0004C9AFF1F509AFF1FE098FF1FCC9AFF1F12
:1018B0009499FF1F38B504460D46426000238360AB
:1018C000044B1B680360084603F05CF820736573E3
:1018D000204638BD60FCFF1F007B704710B50446F2
:1018E000407B03F04FF8237B83420CD0084B1A68EF
:1018F0002368D21A63689A4207D3054B1B6823609A
:101900002073012010BD002010BD002010BD00BFBD
:1019100060FCFF1F10B50446FFF7E0FF034620B14F
:101920000023A3600123A37311E0A2686AB10949EF
:1019300008682168411A8A4207D8064B1B68236051
:101940000023A3600123A37301E00022A2731846C1
:1019500010BD00BF60FCFF1FF8B50646002103F074
:10196000C3FF0746B8B1031D00F58275B6F91E40E6
:10197000B6F9201033F9022B9442A8BF14469142C5
:10198000B8BF11469D42F5D8F483318401233377E3
:10199000384603F073FFF8BD2DE9F04F83B0019096
:1019A00084693CB9002103F09FFF00285AD003F05E
:1019B00065FF57E0B4F1FF3F0FD10198002103F01C
:1019C00093FF044600284DD001982146002203F0E1
:1019D00075FF204603F052FF44E00198002103F018
:1019E0008FFF804600283DD0019BD3F81CC093F8A0
:1019F000209000231D4F9B464FF0FF3A4E46200E8D
:101A0000C4F30F2108EB0302B2F90450C1F5803E84
:101A100037F91090013037F9100001FB00F109FB94
:101A20000E11091401FB05F1C913918026B1E2439F
:101A3000944506D2644407E0A44504D2CCEB0404E8
:101A400002E0544600E05C460233B3F5807FD6D115
:101A5000019B9C6118464146002203F02FFF40463F
:101A600003F00CFF03B0BDE8F08F00BF54B20000DC
:101A700072B6836913B90123836105E0B3F1FF3FB7
:101A800004BF6FF001038361C16180F8202062B65A
:101A9000704700BF10B5044604F020F8204610BD82
:101AA00008B503480349044A07F070FD08BD00BFAC
:101AB00094F8FF1F951A0000608FFF1F08B50348B8
:101AC0000349044A07F062FD08BD00BF9CF8FF1FF0
:101AD000951A0000608FFF1F08B5002103F004FF76
:101AE0000246A0B172B60A4B186810B91A6062B605
:101AF00008BD084B1B681BB9064B1A6062B608BDCF
:101B000003490B60034B1A6062B603F0B7FE08BDD1
:101B1000B4F8FF1FA4F8FF1F38B51C4B1A681268F1
:101B200019791B4B19701B4B9A4206D2A3F580748E
:101B300004F5807304F5007402E0174B03F580741C
:101B4000164A106898B1021D47F6FF7532F9021B5C
:101B50002944091123F8021B9C42F7D803F08EFE9A
:101B60000F4B1A680D490A6000221A6005E040F226
:101B7000FF7223F8022B9C42FBD80A4B1B781BB147
:101B80004FF08042084B1A6038BD00BFA8F8FF1F15
:101B90001F8000401488FF1F1487FF1FB4F8FF1F29
:101BA000A4F8FF1FB0F8FF1F08E200E070B54F482F
:101BB000012103F035FF4E4B1A6842F480521A603F
:101BC000802203F5032303F6F5731A700024494EAF
:101BD00001253480284602F029FF0834A4B223B23C
:101BE000B3F5006FF5D1444B1B6813F4800F16D08A
:101BF000424B1A6848F6A2731A409A420FD1404BE2
:101C00001A6840F22F339A4209D13E4B1B68012BD0
:101C100005D13D4B1A6840F201139A4217D0364B5A
:101C20001A6842F480021A600122A3F59033303B17
:101C30001A6040F22F32083B1A60043B48F6A37248
:101C40001A60324A1A6040F2011210331A60274CAF
:101C500023681A6800222E4919602368022119712D
:101C60005A7101209871D87119725A729A72DA7287
:101C70001A736FF0010159734FF0FF319973D973E3
:101C800019691C4919611A755A75D98A4FF48071FE
:101C9000D9821A765A769A76DA76D88BD983998B46
:101CA00006219983237903F1804303F504331A70E5
:101CB000B0221A7003F060FE164B18702279164B92
:101CC0001A70227902F110011448154B43F82100D3
:101CD00053119B0003F1604303F5614302F01F02BF
:101CE000012101FA02F21A6070BD00BFA8F8FF1FBF
:101CF0002C80044000C00C403C8004400060034045
:101D0000046003400C60034010600340A28F010098
:101D10001487FF1FB0F8FF1F1B800040191B000035
:101D2000008AFF1F08B503480349044A07F02EFC48
:101D300008BD00BFA8F8FF1F951A0000608FFF1FA5
:101D400008B503480349044A07F020FC08BD00BF5A
:101D5000B8F8FF1F951A0000608FFF1F08B50348F1
:101D60000349044A07F012FC08BD00BFC0F8FF1F7A
:101D7000951A0000608FFF1F08B503480349044A05
:101D800007F004FC08BD00BFC8F8FF1F951A00004B
:101D9000608FFF1F002380F844300364C3637047E3
:101DA00008B572B690F8443013F0FF0F12D000233C
:101DB00080F8443062B61C3000F034FA064B1B88C1
:101DC00023B1013B9BB2044A138023B95E2000F08B
:101DD0002BF908BD62B608BDD0F8FF1FF0B589B079
:101DE00004460D461646FFF7DBFF5E2000F002F9C1
:101DF0002B4B1A8801321A8072B6684629492A4646
:101E0000012300F071FB9DF8043084F82030029B20
:101E100063629DF80C3084F8283008AB53F8135DEA
:101E200058689A68C4F82950C4F82D00C4F83120C5
:101E30001B7B84F83530079BA363684600F0AAF942
:101E400062B604F11C05284600F0F8F9074650B9BF
:101E5000154C23685B682046144917229847204692
:101E600003F06AFE19E0284600F0C2F90346E06379
:101E7000B6FBF0F1284603FB116100F0A5F92664DA
:101E8000094D2B685B682846094916229847284661
:101E900003F052FE012384F84430384609B0F0BD07
:101EA000D0F8FF1FF0F8FF1F88FDFF1F98B4000057
:101EB000B0B40000006C70472DE9F041074690F87F
:101EC000443013F0FF0F46D003F07CFC804600281E
:101ED00041D007F11C04204600F090F938B32046A9
:101EE00008F104014FF4807200F066F9002804DA6A
:101EF000BB6983B39847BDE8F0813B6C03443B6406
:101F000000EBD07045107F2D0BD86E00C6F58076A3
:101F100008EB450500231C46EA1894800233B342BF
:101F2000FAD138464146002203F0C8FC10E02046B2
:101F300000F078F9094B1B8823B1013B9BB2074A9B
:101F4000138013B95E2000F06FF8002387F8443047
:101F5000404603F093FCBDE8F08100BFD0F8FF1FBE
:101F6000184B1A6842F480521A60174B174A1A60CD
:101F7000174ADA6002F180421A61164A1A60164B5B
:101F80001B7813F0010F07BF4FF41072134B4FF47F
:101F90000072134B1A60104B1B7813F0020F4FF4B2
:101FA00000720CBF0F4B104B1A600B4B1B7813F0D9
:101FB000040F07BF4FF410720C4B4FF400720C4B20
:101FC0001A6070473C80044000C0024001401F007E
:101FD0000110003800001F8084FDFF1F18B004406E
:101FE00008C004401CB004400CC0044014B00440BD
:101FF00004C0044030B45E2810D84309084A0121C7
:1020000001FA03F514782C431470064A00F01F00FF
:10201000814052F823400C4342F8234030BC7047C3
:10202000ECF8FF1FD4F8FF1F5E2815D8430900F015
:102030001F00012202FA00F0084A52F8231021EA98
:10204000000042F8230038B9054A012101FA03F3E0
:10205000117821EA03031370704700BFD4F8FF1F03
:10206000ECF8FF1F10B582B002AB03F8011D026847
:10207000546819460122A04702B010BD10B50446AD
:10208000C3691BB901230371002010BD0020187122
:10209000E06992B201F0D2FAE3691B7913B101232E
:1020A0002371002010BD00BF00B583B0C06960B1CE
:1020B0000DF10701012200F0FBFF01280CBF9DF884
:1020C00007004FF6FF7000B201E04FF0FF3003B0A1
:1020D0005DF804FB30B583B00446C06978B10DF1FA
:1020E0000701012200F0E4FF01280AD19DF8075002
:1020F000E069C168013901F0C1F8284603E0002019
:1021000001E04FF0FF3003B030BD00BF08B5C0693B
:1021100008B101F0EBF808BD2DE9F04104460E4688
:102120009046002303714FF47A7282600373114B5F
:102130000360242007F06CFAE061B8B13546074629
:1021400006F1200E3E4628686968AA68EB680FC64B
:10215000103537467545F5D12868306004F10D001B
:1021600041460C2208F000FD002363762046BDE8BE
:10217000F08100BFD0B40000002202714FF47A71E8
:102180008160027302490160C2614273704700BFFF
:10219000D0B40000014B0360704700BFD0B4000012
:1021A0000D307047C3692BB19879012894BF002086
:1021B000012070470020704708B5C06910B100F0D9
:1021C00077FF08BD002008BD08B5C06928B101F03F
:1021D00055F8003018BF012008BD002008BD00BF21
:1021E000C3690BB1D86870474FF0FF30704700BF2C
:1021F000C3690BB1986970470020704738B5044631
:10220000C36963B1FFF7F4FF05462046FFF7E8FF17
:10221000281A47F6FF73984228BF184638BD002099
:1022200038BD00BF10B50446C06930B101F08AF86E
:10223000E06907F0F5F90023E36110BDC36923B13C
:102240009879003018BF012070470020704700BF08
:1022500010B58AB004460A4600238DF808300949B3
:1022600001918DF80A3001A82146012301F01CF9E3
:10227000041C18BF012414B101A801F063F8204622
:102280000AB010BDF0B4000008B52AB101F0BAF9E7
:10229000003018BF012008BD012008BDF0B40C6853
:1022A000035D2F2B1CD101341AE0002563B11EE021
:1022B0000135013407F8013F0C2D05D016F8013F18
:1022C0002F2B01D0002BF3D100235355035D2F2B6F
:1022D00008BF01340C60005D003018BF01200BE026
:1022E0000619035D2F2B08BF0025EDD0DDE7013473
:1022F000137017460125E1E7F0BC70472DE9F04F58
:1023000099B082460F469146984600238DF81C30BE
:10231000244A06928DF81E308DF840300F928DF8C9
:10232000423001930C4606AE4FF0010B03E00FACB8
:10233000234634461E46504601A902AAFFF7AEFFC7
:10234000054680F00102204602A9D2B24346C847A2
:1023500030B9BC421CD0204600F0F4FF00201EE043
:102360007DB13046214602AA5B4601F09DF8054644
:10237000BC4211D0204600F0E5FF002DD8D100204E
:102380000DE0BC4206D0204600F0DCFF012006E054
:10239000002004E0012002E00028C8D1002019B08C
:1023A000BDE8F08FF0B4000038B504460A460121BC
:1023B00000F024FBB0B104F11005284621460122AB
:1023C00001F0EAFB28B928462146002201F0E4FB8F
:1023D00050B104F13800294600F040FE003018BF2B
:1023E000012038BD002038BD002038BD2DE9F04F58
:1023F00099B081469346019300238DF81C30394AE9
:1024000006928DF81E308DF840300F928DF84230D4
:1024100006A8103100F022FE5C460FAE06AD4FF06C
:102420002F084FF0000A2CE023782F2B01D1013424
:1024300027E03F1BFFB20C2F28BF0C2702A8214624
:102440003A4608F091FB18AB3B4403F858AC3046D1
:1024500000F078FF3046294602AA012301F024F853
:1024600040B9002389F804301E4AC9F8002089F8D1
:10247000063032E03C44284600F064FF2B463546E7
:102480001E462046414608F0FFF807460028CBD1FB
:10249000CBEB0404019B1C602B7989F80430114BB1
:1024A000C9F800306B7989F80530AB7989F80630C6
:1024B000AB68C9F80830EB68C9F80C302B69C9F86B
:1024C00010302B7D89F81430AB69C9F81830EB69EE
:1024D000C9F81C302B6AC9F82030484619B0BDE84D
:1024E000F08F00BFF0B40000F0B5A7B00446154669
:1024F0001F4602A801ABFFF779FF01996E18695CCE
:1025000019BB9DF80C308DF85430344B14939DF862
:102510000D308DF855309DF80E308DF85630049BF7
:102520001693059B1793069B18939DF81C308DF806
:102530006430089B1A93099B1B930A9B1C932046AB
:1025400014A9274AFFF7E8FD45E000218DF8301077
:10255000224B0B938DF832109DF80E301BB920469C
:10256000FFF70AFE37E00BA802A932463B4600F00F
:102570009BFF18B92046FFF7FFFD2CE002A800F0F2
:10258000E1FE17F0060F03D00BA8119900F076FEBC
:102590009DF830308DF87830104B1D939DF8313018
:1025A0008DF879309DF832308DF87A300D9B1F937D
:1025B0000E9B20930F9B21939DF840308DF888301F
:1025C000119B2393129B2493139B259320461DA9B3
:1025D0003246FFF7A1FD204627B0F0BDF0B4000061
:1025E0005CB0000008B500F1380308461946024AFD
:1025F0000023FFF783FE08BD5122000008B500F15B
:10260000380308461946024A0023FFF777FE08BD43
:1026100089220000F0B59FB006460D46174649E0F6
:102620009DF810401CB93046FFF7A6FD4BE0E52CA5
:1026300040D02E2C3ED09DF81B1011F0080F39D140
:1026400000238DF83430214A0C928DF8363004A8DE
:10265000694600F0A3FC0CA8E9696A463B4600F015
:1026600023FF18B39DF834308DF85830174B15936D
:102670009DF835308DF859309DF836308DF85A3048
:102680000E9B17930F9B1893109B19939DF8443042
:102690008DF86830129B1B93139B1C93149B1D9306
:1026A000304615A96A46FFF737FD0CE03046FFF7C4
:1026B00063FD08E0E86904A900F098FD0028AFDC9C
:1026C0003046FFF759FD30461FB0F0BDF0B40000B2
:1026D000084B00225A719A719A721A730221196179
:1026E00083F8302083F83C200349996383F83E2027
:1026F000704700BFF0F8FF1FF0B40000084B1A68E5
:1027000042F480621A604FF00042DA62FF225A639C
:102710001A46D36A002BFCDA014B986BC0B27047A3
:1027200000C0024010B50446164A174B1A6010F05C
:10273000010F02D0FFF7E2FF013C052C04D9032171
:1027400000231148114A02E06108F9D104E0426314
:10275000023C01338B42FADB4CB10B4A0B48D36A83
:1027600013F0F00FFBD05063936B023CF7D10029BC
:1027700007DD054AD36A13F0F00FFBD0936B0139E4
:10278000F8D110BD00041F8000C00240FFFF009080
:10279000064B1A6842F480621A604FF00042DA6217
:1027A00058631A46D36A002BFCDA704700C0024017
:1027B00008B505281ED8DFE800F003080D1115192B
:1027C0004FF038420E4B1A6017E04FF038420C4B76
:1027D0001A6012E00B4A0A4B1A600EE00A4A084BD4
:1027E0001A600AE0094A064B1A6006E0084A044BE0
:1027F0001A6002E0074A024B1A60FFF7B1FB08BDFE
:1028000050F9FF1F000002B8000002380110013823
:10281000010002380540013808B50079012102F0B5
:102820008DF8114B1B78F3B100220F4B1A700F4B30
:102830001B78C3B113F0010F03D00D4B1A680D4B79
:102840001A600A4B1B7813F0020F03D0084B5A682A
:10285000094B1A60054B1B7813F0040F03D0044B8F
:102860009A68064B1A6008BD54F9FF1FECF8FF1F69
:10287000E0F8FF1F00E100E004E100E008E100E013
:1028800010B5244B1B78002B3ED10122214B1A702E
:10289000214B1A68214B1B78002B28D072B61F4B96
:1028A0001B7813F0010F07D01D4B1C681D490968E8
:1028B00021401D4C21601960184B1B7813F0020F4A
:1028C00007D01A4B1C68174949682140164C6160B3
:1028D0001960124B1B7813F0040F07D0144B1C68BF
:1028E000104989682140104CA160196062B6114BF3
:1028F000DB68934208D00F4B0F491960DA6042F051
:1029000080421A610D4A1A600079002102F016F81F
:1029100010BD00BF54F9FF1F50F9FF1FECF8FF1F57
:1029200080E100E0D4F8FF1FE0F8FF1F84E100E041
:1029300088E100E000C0024001401F0000001F804D
:1029400038B5044683797BB1008940F2012398426F
:1029500005D840F20225281AFFF7E4FE258120461B
:10296000FFF75AFF0023A37138BD00BF70B50E46B4
:10297000084B1C681D46A4B2FFF7C0FEFF2805D017
:102980002B689BB21B1BB342F6DB01E0012070BD3C
:10299000002070BD60FCFF1FF8B505460F461646C7
:1029A000FFF7CEFF2846FFF76BFF28464FF49671DE
:1029B000FFF7DCFF47F04000FFF7EAFE182426FA95
:1029C00004F0C0B2FFF7E4FE083C14F1080FF6D1A2
:1029D00027B1082F0CBF8720FF2000E09520FFF7CC
:1029E000D7FE0024FFF78AFEE87210F0800F03D0B4
:1029F0000134B4F5807FF5D1F8BD00BF2DE9F04F6B
:102A000083B0044601910023037383728371437181
:102A10000271824B1F68BFB21046012101F08EFF88
:102A20002079012101F0BCFF2079012101F086FF0E
:102A30007B4B1A6842F480521A600620FFF7B8FEFA
:102A4000784B1A68784B1B78002B28D072B6764BDF
:102A50001B7813F0010F07D0744B1868744909688C
:102A600001407448016019606F4B1B7813F0020F2E
:102A700007D0714B18686E49496801406D48416044
:102A80001960694B1B7813F0040F07D06B4B186863
:102A900067498968014067488160196062B6684B80
:102AA000DB68934200F0AB80654B66491960DA60E1
:102AB00042F080421A61644A1A60A0E02846FFF79B
:102AC00067FE013E16F0FF06F8D1574B1B78C3B1E5
:102AD00013F0010F03D0574B1A685C4B1A60524B2E
:102AE0001B7813F0020F03D0524B5A68584B1A60F0
:102AF0004D4B1B7813F0040F03D04E4B9A68554B87
:102B00001A602046FFF7BCFE4FF00008DFF80C917A
:102B100009E0D9F80030DB1B9BB2B3F5FA6F02D99C
:102B20000123637167E0204641464246FFF734FFC8
:102B30000546E0720128ECD1204608214FF4D572F9
:102B4000FFF72AFF10F0040F02D00123237310E0D7
:102B50004FF00408FFF7D2FDE07208F1FF3313F0E5
:102B6000FF08F7D1AA2802D00223637143E00223B1
:102B70002373237B022B14BF4FF0000A4FF0804ACF
:102B80004FF037094FF00008DFF890B009E0DBF8AC
:102B90000030DB1B9BB2B3F5FA6F02D908236371D7
:102BA00029E0204649464246FFF7F6FE2046292105
:102BB0005246FFF7F1FEE0720028E8D1237B022B9A
:102BC00011D120463A210022FFF7E6FE10B106237C
:102BD000637110E0FFF792FD00F0C000C02811D132
:102BE000032323730EE02046FFF716FE0198FFF73C
:102BF000DFFD2E460DE02046FFF70EFE09E00A2617
:102C0000FF255BE7FFF77AFDFFF778FDFFF776FD1D
:102C1000E9E7304603B0BDE8F08F00BF60FCFF1F5E
:102C20003C80044050F9FF1FECF8FF1F80E100E0FA
:102C3000D4F8FF1FE0F8FF1F84E100E088E100E026
:102C400000C0024001401F0000001F8000E100E0C2
:102C500004E100E008E100E070B504460E4B1D6899
:102C60001E46ADB208E033689BB25B1BB3F5967F9E
:102C700002DD0F23637108E0FFF740FDE072FF28DB
:102C8000F1D0FE2806D00D2363712046FFF7C4FD66
:102C9000002070BD012070BD60FCFF1FF8B5054627
:102CA0000C4617461E46002B00F089801344B3F5EE
:102CB000007F7FDC83792BB103688B4202D10389CB
:102CC000934216D92C602B7B032B18BF6402284635
:102CD00011212246FFF760FE10B103236B7169E0FA
:102CE0002846FFF7B9FF002864D000232B81012379
:102CF000AB713846FFF716FD3046334A334B1A6046
:102D000016F0010F07D0069A541CFFF7F7FC069B3C
:102D10001870701E0694052804D9032700232B4938
:102D20002B4A02E04708F9D103E04A6301339F428E
:102D3000FBDCA0EB4700069A1044824219D21446ED
:102D40002249DFF88CC0CA6A12F0F00FFBD0C1F83C
:102D500034C08B6BC3F30722227063700234A0422D
:102D6000F1D8069AD343034423F0010302331A44F3
:102D7000069200EB4700069B98420DD91C4613496A
:102D8000CA6A12F0F00FFBD08B6BC3F307222270DC
:102D900063700234A042F3D82B8933449BB22B8159
:102DA000AA7A12B1B3F5007F0BD32846FFF7C8FD0E
:102DB0000120F8BD2846FFF72FFD0020F8BD0120B7
:102DC000F8BD0120F8BD00BF00041F8000C0024014
:102DD000FFFF009000B583B0009200224FF4007313
:102DE000FFF75CFF03B05DF804FB00BFF8B50646D3
:102DF000214B186840F4806018604FF00040D862A2
:102E00005963114602F500770446DA6A002A0FDB9F
:102E1000FBE7DA6A002A14DBFBE7D36A002B1CDB32
:102E2000FBE7112373713046FFF7F6FC0020F8BD75
:102E300008460A781D6845F480651D60DC625A63A7
:102E4000E7E742781D6845F480651D60DC625A63DF
:102E50000231B942D9D1084ADFE7FF20FFF798FCD9
:102E6000FF20FFF795FCFFF749FCF07200F01F0010
:102E70000528D6D10120F8BD00C0024038B504466F
:102E800015460B4611B9122343712BE0027B032A2E
:102E900018BF4B0218211A46FFF77EFD10B104231C
:102EA00063711FE02046FE212A46FFF79FFFC8B14D
:102EB00020464FF41671FFF759FD10B915236371C1
:102EC00010E020460D210022FFF766FD10B9FFF744
:102ED00015FC10B11423637104E02046FFF79CFC3D
:102EE000012038BD2046FFF797FC002038BD00BF09
:102EF000014A024B1A6070470000023850F9FF1F68
:102F000010B50446006A012104F1080200F0BAFD80
:102F1000034650B1E3693BB9A368E361637963F0A9
:102F20007F036371012300E00123184610BD00BF39
:102F300070B50646FFF7E4FF0346E0B1336AB268B6
:102F4000023A197C02FA01F55A6915441C794CB110
:102F5000013D281900F0CCFC034660B1013C14F09F
:102F6000FF04F6D1336A1B7C4FF400729A40B369B8
:102F70001344B3610123184670BD00BF10B5044669
:102F8000006900F091FC20B1207D034B03EB401061
:102F900010BD002010BD00BF64F9FF1F70B40023F6
:102FA0001A462E26C45C202C09D0DCB2082C02D193
:102FB000541C8E54E2B2541CC55C8D54E2B20133F1
:102FC0000B2BEFD100238B5470BC70472DE9F0011F
:102FD00000232022CA5401330B2BFBD101380025DA
:102FE00007264FF008084FF00A0C1B4F21E02E2C4B
:102FF00001D03A4606E00A2E24D04546664618E03F
:10300000A34221D012F8013F002BF9D1AE421DD3CB
:10301000A4F12103DBB25D2B1AD86B1CDBB20D448B
:10302000A4F16102D2B2192A9CBF203CE4B22C70F8
:103030001D4610F8014F002CD9D10878203818BF50
:10304000012006E0002004E0002002E0002000E073
:103050000020BDE8F0017047F7B4000038B5044621
:103060000D4683790BBB91F82020102A07D102234B
:1030700083710023C3614B8C5B0183610CE0202AC8
:1030800014D103238371496AC161284604F11802EF
:1030900000F084FC034648B12562012363710022DD
:1030A000A260E2602261227500E00023184638BD6C
:1030B0002DE9F04F85B00446884603928379002BB2
:1030C00069D0437913F0010F68D08269C368D11ABF
:1030D0000398884201D98BB20393039B002B57D0EE
:1030E0001E46DFF8FCA0DFF8FC90DFF8FCB0E368D8
:1030F000C3F30807A279022A04D1226A516A01EBBC
:1031000053211BE0206A0579013D05EA5325EDB204
:103110005FB955B913B9E369A36006E0224652F8D6
:10312000081F00F005FC00283BD0226AA368023B80
:10313000117C03FA01F1526911442944C7F5007367
:103140009E42C6BF1D46ADB23546637913F0400FAF
:1031500002D1B5F5007F39D1D9F8003099422AD192
:1031600034E0A8440DE057447819874209D03B4623
:10317000424613F8011B02F8011B8342F9D1C71B19
:10318000B844E3682B44E360761BB6B2002EAED1A0
:10319000039B98B20DE04FF6FF700AE04FF6FF7008
:1031A00007E04FF6FF7004E04FF6FF7001E04FF6C6
:1031B000FF7000B211E0CDF80080DBF800003A4665
:1031C0002B46FFF76BFD0028CBD1EDE70846002129
:1031D00000F06AFB0028C6D1E9E705B0BDE8F08F32
:1031E00064F9FF1F988FFF1F60F9FF1F70B5054638
:1031F0000C468379012B1CD9C36813F01F0F1AD119
:10320000202609E0237883B1E52B05D02E2B03D0AF
:10321000E37A13F0080F10D0284621463246FFF714
:1032200047FFC0B243B2202BECD040F3C011C8B26C
:1032300004E0FF2002E0FF2000E0202040B270BD4B
:1032400030B583B004468379012B0FD9C5680DF1E1
:1032500007010122FFF72CFF012809D1E3681F3382
:10326000E36005F4F070044B184402E0002000E035
:10327000002003B030BD00BF64F9FF1FF8B504465D
:103280000F4683797BB382698A422BD3022B02D10A
:10329000E160012327E021B900238360C36001239B
:1032A00021E0C368026A157C09355A1EEA400139DB
:1032B00021FA05F5AA4200D813B9E369A3600AE030
:1032C000AD1A08E0206AA168324600F031FB013DEA
:1032D000034610B907E004F10806002DF2D1E760BB
:1032E000012300E000231846F8BD00BF38B50446AE
:1032F000807918B394F90530002B1BDA20460121A0
:10330000FFF73CFE0546C0B1A379012B9CBFA36922
:10331000C361A38B4383E38B8382094B1B682BB16F
:10332000183005F1160198472B8B6B82637903F0F7
:103330007F03637100F08CFA38BD002038BD00BFF8
:1033400058F9FF1F10B50446FFF7D0FF034610B130
:103350000023A3710123184610BD00BFF0B583B050
:1033600004460D468379012B4ED1427902F00202C8
:1033700002F0FF01002A49D08269AA4248D3002AFC
:1033800047D0C6682946FFF779FF0346002840D09A
:103390004DB9206AE16900F0D9FB0346002838D016
:1033A0000023E3611DE0206AA16801AA00F0C0FAD1
:1033B000A8B1206A019990F820704FF6F872164B68
:1033C000102F08BF134699420BD200F0BFFB30B15B
:1033D000206AA1686FF0704200F00CFB08B900236E
:1033E00017E0A561637963F07F0363712046FFF7FF
:1033F0007DFF034668B12046B54234BF29463146B9
:10340000FFF73CFF034604E0002302E00B4600E028
:103410000023184603B0F0BDF8FFFF0F38B504468F
:1034200015461F4B03EB4113DA7A12F0110F02D04D
:1034300015F0420F2CD121751A4A12682261998A1F
:103440000904E1615A8B1143E161D87A10F0180048
:1034500004D1DB69A3610123A3710AE0102819D10B
:10346000206A04F1180200F099FA0346A8B1042377
:10347000A37105F00F0363710023A360E36015F0EF
:10348000400F09D020461946FFF768FF034604E0C5
:10349000002302E0002300E00123184638BD00BFEE
:1034A00064F9FF1F988FFF1F2DE9F04F85B0054687
:1034B0000C469A468679002E7FD1104601A9FFF767
:1034C00085FD00287BD0236A2B620027A760E76078
:1034D000DFF8FC904FF0010825E0C1F3431B2046C4
:1034E000FFF7AEFE014600286AD003780BB1E52B4A
:1034F00009D12FB985F814B0D9F800302B614746AF
:103500000B7883B913E001A80B2206F02DFB50B90C
:103510000AF03003302B53D0284659465246FFF765
:103520007DFF06464CE0E168A3699942D5D30AF0D5
:103530001203122B44D137B128460121FFF71EFD9B
:10354000044660B93CE0A379022B39D02046FFF74E
:10355000EFFC0646002833D000232B751A4C20467A
:103560000021202206F094FB01AB03CB20606160B8
:103570001A889B782281A372144B1B682BB104F12B
:10358000100004F10E01984707E02123237428233B
:1035900063740023A3730823E373238A6382238362
:1035A000E389E38200F054F9064648B12846297DB4
:1035B0005246FFF733FF064602E0002600E00646CB
:1035C000304605B0BDE8F08F64F9FF1F58F9FF1FC2
:1035D000988FFF1F10B504460021FFF7BFFE03467A
:1035E00068B120460121FFF7C9FC38B1E52202701D
:1035F0000023A37100F02CF9034600E000231846D5
:1036000010BD00BF10B58AB004460A4600238DF8ED
:103610000830094901918DF80A3001A8214602239A
:10362000FFF742FF034618B101A8FFF7D3FF034697
:1036300018460AB010BD00BFF0B400002DE9F04FED
:1036400085B00446884601928379012B40F0BE8004
:10365000437913F0020F00F0B98013F0040F08D083
:103660008169C3688B4204D0FFF708FE002800F090
:10367000AD80019A002A00F08C801646DFF8B0A1D8
:10368000DFF8B0B1206AE76890F8049009F1FF39DB
:1036900009EA5729C7F3080719F0FF0929D1002FB4
:1036A00040F0AA80A16851B9E36933B92046FFF719
:1036B00027FC002840F08E8088E0A3608AE003AAFF
:1036C00000F036F9002800F0A880039B226A92F8E7
:1036D00020004FF6F871524A102808BF0A4693425C
:1036E00005D32046FFF70CFC002873D16EE0A360E1
:1036F00070E0C7F50075ADB2AE4238BF3546A3687D
:10370000023B027C9340426913449944B5F5007F23
:1037100012D1DBF800304B4504BF4FF0FF33CBF83C
:103720000030404B186849464246FFF7A7FB002887
:103730004CD008F5007824E07FB9E268A3699A428A
:103740000BD300F085F8002840D0CBF80090364A23
:10375000137843F00103137005E04846012100F09F
:10376000A3F8002832D057447819874209D03B4645
:10377000424612F8011B03F8011B8342F9D1C71B13
:10378000B844761BB6B2E3681D44E560002E7FF4B2
:1037900079AFE368A269934205D9A361637963F0C5
:1037A0007F03637108E0214B1B682BB1019B1BB1A8
:1037B000637963F07F036371637913F0080F03D0BB
:1037C0002046FFF793FD08B1019826E001232371FD
:1037D000002022E0B6F5007F34BF35464FF4007577
:1037E000236AA268023A197C02FA01F95B699944DA
:1037F000B5F5007FA1D18CE7C7F50075ADB2AE423B
:1038000038BF3546A368023B027C03FA02F94369DC
:103810009944B5F5007FA0D17BE705B0BDE8F08FF6
:10382000F8FFFF0F60F9FF1F64FBFF1F58F9FF1F30
:1038300064F9FF1F988FFF1F00B583B002AB03F838
:10384000011D19460122FFF7F9FE03B05DF804FBE4
:1038500008B5104B1B78D3B10F4B18680F4B196884
:103860000F4AFFF70BFB034690B10E4B196849B1A5
:10387000094B18680A4AFFF701FB034640B10022D2
:10388000084B1A600022034B1A70012300E0012349
:10389000184608BD64FBFF1F60F9FF1F988FFF1FCC
:1038A00064F9FF1F5CF9FF1F38B504460D460C4B49
:1038B0001B6883420DD0FFF7CBFF034670B1094B65
:1038C00018682146084AFFF785FA034630B1044BD1
:1038D0001C60064B1A7815431D700123184638BD2D
:1038E000988FFF1F60F9FF1F64F9FF1F64FBFF1F24
:1038F00010B50446FFF7ACFF034680B109494B1EE3
:1039000001F2FF11002203F8012F8B42FBD1064B7D
:103910001C60064B1A7842F001021A700123184607
:1039200010BD00BF64F9FF1F988FFF1F64FBFF1FCE
:1039300070B504460D461646C36801338B4225D345
:10394000C36990F82020102A0CBF080AC80918443F
:10395000104B1B68984204D00021FFF7A5FF0346D7
:10396000A8B194F82030102B06D1EDB20A4B33F8F1
:103970001530336001230AE005F07F05064B53F84C
:10398000253023F070433360012300E00023184604
:1039900070BD00BF988FFF1F64F9FF1F2DE9F04332
:1039A00083B0044602AE46F8041D914600254FF44C
:1039B00000780F4F204601993246FFF7B9FF0346C2
:1039C00088B1237C08FA03F31D4494F820104FF6C5
:1039D000F873102914BF39461946019B8B42E9D36D
:1039E000C9F800500123184603B0BDE8F08300BFBA
:1039F000F8FFFF0FF8B504460D461746012931D9E7
:103A0000C368013399422FD8C36990F82020102A47
:103A10000CBF0E0ACE091E44164B1B689E4205D0F1
:103A200030460021FFF740FF034600B394F82030F2
:103A3000102B04D1EDB2104B23F8157004E005F003
:103A40007F050D4B43F825700C4B1A7842F00102AC
:103A50001A70237E012B09D9A3681E44084B1E60EF
:103A6000012304E0002302E0002300E001231846C4
:103A7000F8BD00BF988FFF1F64F9FF1F64FBFF1F95
:103A80005CF9FF1F2DE9F04F85B006468A4600928B
:103A900017681FB101370023019305E0076801296A
:103AA00014BF002301230193F36803F10108DBB184
:103AB0003C4600254FF00209CB46A0453CBF4C4692
:103AC0005F463046214603AAFFF732FF60B1039BF1
:103AD0000BB1671C03E0631CDB1B534506D00135AB
:103AE0000134F368AB42E8D800232AE0304621468F
:103AF0006FF07042FFF77EFF034648B921E0651E74
:103B0000304629462246FFF775FF034618B918E0EC
:103B1000BC42F4D803E0BD4201D92C46EFE7009B3C
:103B2000196829B130463A46FFF764FF034640B1B1
:103B3000009B1F60019B1BB101373760012300E030
:103B40000123184605B0BDE8F08F00BFF0B583B083
:103B500005460C460223036000260E4F28462146E8
:103B600001AAFFF7E5FE80B1284621463246FFF75D
:103B700041FF50B1019C95F820104FF6F8731029C1
:103B800018BF3B469C42E9D301E0002000E0012041
:103B900003B0F0BDF8FFFF0FF8B50546494B1960BB
:103BA0001446DAB1042A7FD800200146FFF77CFED4
:103BB0000346002800F08380434B03EB041494F881
:103BC000AE3104F5D47413F07F036FD1D4F8121022
:103BD000632974D9D4F80E400CB970E00024204653
:103BE0000021FFF761FE0346002868D0364BB3F88A
:103BF0000B30B3F5007F5BD1334B1B7C002B5ED0C9
:103C0000314AD289002A55D02F4A517B002953D0FE
:103C10002B76297100232B74012003E05A1C2A748F
:103C2000072B4BD82B7C1E4600FA03F29142F5D1AC
:103C3000254BD98A01B9596AA960234BDA892244F4
:103C4000EA61B3F8110087B268841B7C03FB01238F
:103C50006B627A0102F2FF1203EB62236B611A4A74
:103C6000B2F813200AB9184A126AE31A134423FA65
:103C700006F6EE6040F6F4739E4204D80C2385F8F5
:103C8000203001231BE04FF6F4739E4204D810232A
:103C900085F82030012312E00B4BDB6A6B62202396
:103CA00085F8203001230AE0002308E0002306E025
:103CB000002304E0002302E00B4600E00023184646
:103CC000F8BD00BF60F9FF1F64F9FF1F0B4B1B78A5
:103CD00013B90B4B1B7873B10A4B1B78202B03D9FC
:103CE0000123037100207047581C064A1070064AD1
:103CF000D154012070470020704700BFCEFBFF1F4A
:103D000090FBFF1FCFFBFF1F6CFBFF1F704700BF27
:103D1000024B1878024B1B78C01A7047CDFBFF1F6F
:103D2000CCFBFF1F074B1B78074A12789A4205D934
:103D3000591C044A1170054AD05C70474FF0FF309F
:103D4000704700BFCCFBFF1FCDFBFF1F94FBFF1F85
:103D5000054B1B78054A12789A4286BF044AD05C0C
:103D60004FF0FF30704700BFCCFBFF1FCDFBFF1FA4
:103D700094FBFF1F08B5104BDB7813F0200F0CD11C
:103D8000122000F0B3FD0D4B1B689BB100210C4AC3
:103D900011700C4A1078984708BD0B4A137801330C
:103DA000DBB21370012B02D8084B1B7813B9122019
:103DB00000F09CFD08BD00BF0060064068FBFF1FCF
:103DC000CCFBFF1FCDFBFF1FB8FBFF1F90FBFF1FAE
:103DD00038B514460D4B1B7813B90D4B1B7893B1B6
:103DE0000C4B1D78C5F12103A34202D201220271BE
:103DF0001C4609482844224600F0B4F82544054BE7
:103E00001D70204638BD002038BD00BFCEFBFF1F0F
:103E100090FBFF1FCFFBFF1F6CFBFF1F00220271F7
:103E20004FF47A7181600273014A0260704700BFEB
:103E300010B5000008B53D4BDB78DBB213F0100F76
:103E400006D01021394AD17013F0400F03D108BDBC
:103E500013F0400F2CD013F0040F1BD00023344A72
:103E60001370344A1370344B1B681BB19847314BA5
:103E70001B782BB901222F4B1A7000222F4B1A707E
:103E80002A4BD0229A702D4A12781A7101222C4B9B
:103E90001A7009E00122264B1A700022294B1A7071
:103EA000224BC0229A701B790222204BDA7008BD87
:103EB0001E4A927812F0100F1CD013F0010F14D18B
:103EC0001F4B1B781B4A12789A4207D9591C1C4A6F
:103ED00011701A4AD25C154B1A7102E00022134B82
:103EE0001A71D022114B9A701BE0104BC0229A70AD
:103EF0001B7916E00022144B1A701220134903227A
:103F000000F0ACFC094B1B79DAB20E4B1B781F2B6F
:103F100007D80749097821B1581C0A4908700C498B
:103F2000CA540222014BDA7008BD00BF006006408F
:103F300065FBFF1FCFFBFF1FB4FBFF1F6CFBFF1FC9
:103F4000D0FBFF1FCDFBFF1FB8FBFF1F753D00001F
:103F500094FBFF1F08B50248FFF760FF08BD00BFD4
:103F6000BCFBFF1F844641EA000313F003036DD13D
:103F7000403A41D351F8043B40F8043B51F8043B2C
:103F800040F8043B51F8043B40F8043B51F8043B33
:103F900040F8043B51F8043B40F8043B51F8043B23
:103FA00040F8043B51F8043B40F8043B51F8043B13
:103FB00040F8043B51F8043B40F8043B51F8043B03
:103FC00040F8043B51F8043B40F8043B51F8043BF3
:103FD00040F8043B51F8043B40F8043B51F8043BE3
:103FE00040F8043B51F8043B40F8043B51F8043BD3
:103FF00040F8043B403ABDD2303211D351F8043B73
:1040000040F8043B51F8043B40F8043B51F8043BB2
:1040100040F8043B51F8043B40F8043B103AEDD221
:104020000C3205D351F8043B40F8043B043AF9D272
:10403000043208D0D2071CBF11F8013B00F8013B45
:1040400001D30B8803806046704700BF082A13D352
:104050008B078DD010F003038AD0C3F10403D21A6A
:10406000DB071CBF11F8013B00F8013B80D331F89E
:10407000023B20F8023B7BE7043AD9D3013A11F81E
:10408000013B00F8013BF9D20B7803704B78437089
:104090008B7883706046704730B4394A3949136869
:1040A00013F0800FFBD10B6813F0800FF7D172B6BD
:1040B000354B1B78002B5FD0344B1C6804331D68D4
:1040C000043318680433196804331A6804331B680E
:1040D0002C44204401440A441A44C2F34E0242F4E0
:1040E00000422B4B1A602C331C6804331D680433C8
:1040F00018680433196804331A6804331B682C44A5
:10410000204401440A441A44C2F34E0242F40042DD
:10411000204B1A6003F108131C6804331D68043334
:1041200018680433196804331A6804331B682C4474
:10413000204401440A441A44C2F34E0242F40042AD
:10414000154B1A602C331C6804331D68043318683F
:104150000433196804331A6804331B682C44204460
:1041600001440A441A44C2F34E0242F400420B4B8B
:104170001A600022044B1A7062B630BC704700BF50
:1041800024B0034024B00B40D2FBFF1F38B00340E3
:104190002CB0034030B003402CB00B4030B00B408B
:1041A00060223A4B1A70E12201331A70384B1B78A7
:1041B000082B10D1012203F1804303F56C331A6000
:1041C000132334490B6001F5FF2101F2FC710A60F1
:1041D000314A13601FE00A2B0DD119222F4B1A60B0
:1041E00013232C490B6001F5FF2101F2FC710A60D9
:1041F000294A13600FE00C2B0CBF15223D22274BE0
:104200001A60122323490B6001F5FF2101F2FC71B2
:104210000A60214A1360224B1B7833B10123214AE3
:10422000136002F50022136005E000231D4A1360AD
:1042300002F5002213601C4B1B78012B06D880234B
:104240001A4A136002F5002213601AE0042B06D804
:104250008423164A136002F50022136011E0082B34
:1042600006D88523114A136002F50022136008E086
:10427000102B94BF862387230C4A136002F500227B
:10428000136001220A4B1A70704700BF00400740BC
:104290009C8FFF1F0CB003400CB00B4008B00340D4
:1042A000D5FBFF1F20B003409D8FFF1F24B00340AC
:1042B000D2FBFF1F2DE9F8430D2813D9172802D888
:1042C0000E38C0B20EE0A0F11A03DBB2052B02D803
:1042D0000938C0B206E0A0F12203DBB2062B73D886
:1042E0001838C0B23A4B1E5C3A4B1B780BB1FFF743
:1042F000D3FE16F0800F29D172B6374C374D4FF0F0
:10430000010726602F7062B672B6236813F0800F23
:1043100004D12B7813F0FF0F0FD1F2E7304B186860
:1043200000222E4B1A7062B62E4B1B781841BDE846
:10433000F8832B7813F0FF0FE3D062B601F006FE8E
:1043400072B6236813F0800FF3D0E7E772B606F079
:1043500040095FFA89F9244F244C06F03F06244DAA
:104360004FF00108B9F1000F04D03B6823F01003AF
:104370003B6003E03B6843F010033B60266085F838
:10438000008062B672B6236813F0800F04D12B78D8
:1043900013F0FF0F0FD1E5E7164B18680022144BFE
:1043A0001A7062B60F4B1B781841BDE8F8832B7862
:1043B00013F0FF0FD6D062B601F0C8FD72B62368C5
:1043C00013F0800FF3D0E7E70020BDE8F88300BFCB
:1043D00028B50000D2FBFF1F00B00340D4FBFF1F35
:1043E00010B00340D1FBFF1F0CB00B4000B00B40DE
:1043F000D3FBFF1F10B00B40024A137813F0010FDC
:10440000FBD070470100024010B584B0174B6C46DA
:10441000186859689A68DB680FC4154B1B7813F04D
:10442000020F19D08022134B1A70332204331A70F2
:104430000322013B1A7072B66B4643F001030E4C27
:104440002046984762B6237813F0700304D0237097
:1044500009E0013B03D106E044F6216304490A78F0
:1044600012F0010FF5D004B010BD00BF40B5000040
:1044700001000240070002400000024010B504465F
:10448000B0F5006F0AD2064B1B7813F0010F01D173
:10449000FFF7BAFF04F1A054207810BD002010BD32
:1044A0000100024038B504460D46B0F5006F0ED24B
:1044B000074B1B7813F0010F01D1FFF7A5FF04F1A3
:1044C000A0542378AB4202D02570FFF795FF38BD8A
:1044D00001000240024B1A6801321A60704700BFA7
:1044E00060FCFF1F08B50D4C236813F4802F01D02A
:1044F00000F0F0FB236813F4806F01D001F0F2FFAD
:10450000236813F4006F01D002F0EAFA236813F471
:10451000805FE9D002F074FDE6E700BF348004401C
:1045200008B5FFF7DFFF00BF1022014B1A8070476C
:1045300000200540704700BF024A1368184410600D
:1045400018467047A08FFF1FFEE700BFEFF31383ED
:10455000ABB9EFF31083ABB9EFF3058323B10F2BA6
:1045600005D9094A985C03E04FF4807000E0002010
:10457000EFF311833BB1834238BF184670474FF0C9
:10458000FF30704700207047F0E300E010B5154B96
:104590001C681C6014F4805F05D0134BDB6813B1FA
:1045A000114BDB68984714F4005F05D00E4B1B6974
:1045B00013B10D4B1B69984714F0200F05D00A4B1F
:1045C0001B6E13B1084B1B6E984714F0100F07D0E9
:1045D000054BD3F884301BB1034BD3F88430984794
:1045E00010BD00BFA0900440D8FBFF1F10B5274BA3
:1045F0001C681C6014F4803F05D0254B1B6813B168
:10460000234B1B68984714F4003F05D0204B5B6890
:1046100013B11F4B5B68984714F0010F05D01C4B7A
:104620001B6C13B11A4B1B6C984714F0020F05D08A
:10463000174B5B6C13B1164B5B6C984714F0080F6B
:1046400005D0134B9B6C13B1114B9B6C984714F026
:10465000040F05D00E4BDB6C13B10D4BDB6C984790
:1046600014F4002F05D00A4B5B6E13B1084B5B6E40
:10467000984714F4802F07D0054BD3F880301BB136
:10468000034BD3F88030984710BD00BFA0A0044072
:10469000D8FBFF1F10B5384B1C681C6014F0080FC6
:1046A00005D0364B5B6A13B1344B5B6A984714F004
:1046B000100F05D0314B9B6A13B1304B9B6A984762
:1046C00014F0400F05D02D4BDB6A13B12B4BDB6A86
:1046D000984714F0800F05D0284B1B6B13B1274B64
:1046E0001B6B984714F0200F05D0244B5B6B13B164
:1046F000224B5B6B984714F0010F05D01F4BDB6B0F
:1047000013B11E4BDB6B984714F0020F05D01B4B07
:104710009B6D13B1194B9B6D984714F0040F05D096
:10472000164BDB6D13B1154BDB6D984714F4007F0E
:1047300005D0124BDB6E13B1104BDB6E984714F4AF
:10474000807F05D00D4B1B6F13B10C4B1B6F98472F
:1047500014F4806F05D0094B5B6F13B1074B5B6F8F
:10476000984714F4006F05D0044B9B6F13B1034BB3
:104770009B6F984710BD00BFA0B00440D8FBFF1F3F
:1047800010B5264B1C681C6014F0010F05D0244B9B
:104790009B6813B1224B9B68984714F0800F05D09B
:1047A0001F4B5B6913B11E4B5B69984714F0100FE8
:1047B00005D01B4B9B6913B1194B9B69984714F0AB
:1047C000040F05D0164BDB6913B1154BDB69984715
:1047D00014F0080F05D0124B1B6A13B1104B1B6A63
:1047E000984714F0020F05D00D4B9B6B13B10C4B87
:1047F0009B6B984714F0200F05D0094B1B6D13B12C
:10480000074B1B6D984714F0400F05D0044B5B6DB0
:1048100013B1034B5B6D984710BD00BFA0C00440AF
:10482000D8FBFF1F10B50B4B1C681C6014F0020F67
:1048300005D0094B9B6E13B1074B9B6E984714F044
:10484000010F05D0044BDB6F13B1034BDB6F9847AF
:1048500010BD00BFA0D00440D8FBFF1F30B42128FA
:1048600031D8042A2FD8DFE802F00709050B03002E
:104870000B2406E00A2404E0082402E00C2400E0F3
:104880000924124B03EBC0035A68114B114DC3F8B6
:104890009C51114DC3F8A051104DC3F8A451104DB7
:1048A000C3F8A8510F4DC3F8AC5172B6136823F486
:1048B000702313600C4D45F8201043F0807343EAD9
:1048C0000444146062B630BC704700BF50B50000AD
:1048D000008AFF1F8D450000ED4500009546000051
:1048E0008147000025480000D8FBFF1F094B03EB60
:1048F000C0035A6872B6136823F0877323F48033B9
:1049000043F0807313600022034B43F8202062B60B
:10491000704700BF50B50000D8FBFF1F044B0022BA
:104920001A6004490A60044A106010221A60704735
:1049300014D0034004D0034000D0034021281ED8E7
:104940000F4B53F8303093F8802212F0FF0F08D04D
:1049500019B1012283F880207047012283F80021D9
:104960007047074B03EBC000436821B11A6842F05F
:1049700003021A6070471A6822F002021A60704738
:1049800050B50000212806D8044B53F8303093F876
:104990000002C0B270470020704700BF50B5000051
:1049A00021281CD80E4B03EBC0035B68012908D1FA
:1049B0000B4A52F8302082F880124FF4A2721A602B
:1049C0007047074A52F83020002082F8800219B957
:1049D0004FF480721A60704740F203121A607047F9
:1049E00050B5000072B60D4B1B680D4A12680D4998
:1049F000096862B611F0806F02D0322B88BF013295
:104A0000C3F58C3303F23F130749A1FB03031B09D2
:104A10004FF47A7000FB0230704700BF18E000E0EE
:104A200060FCFF1F04ED00E0398EE33838B5054621
:104A3000FFF7D8FF044625B938BD013D0AD004F57B
:104A40007A74FFF7CFFF001BB0F57A7FF5D201F043
:104A50007DFAF6E738BD00BF10B5254B4FF40002D4
:104A60001A604FF080721A604FF000721A604FF0B7
:104A700080621A604FF000621A6000201D4B1860BF
:104A800048F6FF710433196028231B4A136008326B
:104A90001360083213600832136008321360083262
:104AA000136008321360083213600922134C22602D
:104AB00004F58054043420600434216004342360FD
:104AC00008342360143C226004F5FE240434206082
:104AD0000B4801600B490B6008310B600A4B1A60F0
:104AE000FFF75EFBFA20FFF7A1FF00F073FC10BD9B
:104AF00008E100E0048003400C8003400080034094
:104B000008800B400C800B4000800B4030B40E4BF3
:104B10001B7843F002020D4C04EBC20460600C48A9
:104B2000007800280CBF8824C82444EA0141074DBE
:104B300045F8321080F00100054A107083F001033F
:104B4000014A137030BC7047CCFCFF1F0080FF1F70
:104B500045FDFF1F10B4431E032B11D872B60A4A3D
:104B600052F8230050B14268074941F82320074A10
:104B700032F813400188611A22F8131062B600E07F
:104B800000205DF8044B7047BCFCFF1F8CFFFF1F2B
:104B9000013803280DD872B6074B53F820302BB1DB
:104BA000002001305B68002BFBD100E0002062B6E2
:104BB00070470020704700BF10FDFF1F38B572B668
:104BC00001231B491B4C5A1812F8012C12F0080F34
:104BD00024D09A0054F832506DB9164B03EBC20141
:104BE00008304860144943F83210144B1A78013ADF
:104BF0001A7062B638BD42F0010254F832506DB9F5
:104C00000C4B03EBC201083048600D4943F83210E9
:104C10000A4B1A78013A1A7062B638BD0133052B77
:104C2000D1D162B60022054B1A7000F037FC38BDB6
:104C300088B600000080FF1F880040003AFDFF1F7B
:104C4000C800400010B4431E032B37D8400140F089
:104C500010001C4A104472B61B4AD25C032A09D8C1
:104C6000DFE802F019021B050830022216E00830C6
:104C7000042213E0154A52F823201AB9134A42F8C5
:104C8000231003E0124A52F823205160104A42F8E0
:104C9000231062B612E0032200E005220A4CE2541F
:104CA00001F10803436000F00803002B0CBF8823C8
:104CB000C8230A8843EA0243036062B65DF8044BE6
:104CC000704700BF0080FF1F78FCFF1F10FDFF1F13
:104CD00020FDFF1F2DE9F84FA34CDFF8E092DFF82D
:104CE000E0A2DFF8E0B22578EDB215F0040F1DD098
:104CF0009E4B1B7813F0FF0F16D09D4B1B7803F0D3
:104D0000FF022BB1531EDBB2994A137003B900BEE8
:104D1000984B1B7803F0FF0233B1531EDBB2954A68
:104D200013700BB900F0FAFC0423237015F0080F80
:104D300000F0E48299F80030DBB21D0940F02182D6
:104D40008D4D9E0805EBC6035A6855F83630C3F3FF
:104D50008303013B0C2B00F21082DFE813F0CB0140
:104D6000CB010E020E020E020E020E020E02E8012E
:104D70000E020E020E020D00804913680B6052688D
:104D80004A607F4A45F8362000227E490A607A4907
:104D90000A618A6101217C4A11709BB240F28162F2
:104DA000934218D8B3F5D06F2ED2B3F5817F00F0BF
:104DB0001E8106D8802B00F0C980822B00F0CC80A9
:104DC00066E140F20232934200F02681B3F5A06F13
:104DD00000F062815CE142F22102934200F08681A0
:104DE00007D8B3F5086F00F0AB80B3F5106F11D0A2
:104DF0004EE142F22122934200F0418142F22132FF
:104E0000934200F0498143E1604B5D68002D40F022
:104E1000188130E1594B9A78544B1A70564D05F170
:104E200080062B6A13F0800F03D0686A083800F000
:104E300035FB0835B542F4D1DFF88C8100263746C2
:104E4000534AB05828B1456800F028FB0DB12846F8
:104E5000F9E700234E4973504E4AB3504E4BF05879
:104E600028B1456800F01AFB0DB12846F9E7002388
:104E700049497350494AB35028F8023F484BFB5CFC
:104E8000023B032B0AD8DFE803F0020602060022E9
:104E9000434BDA5502E00122414BDA550137043623
:104EA000102ECDD100223F4B1A7001253E4EDFF867
:104EB0001C81314F05EB080313F8013C06F8043B55
:104EC00013F0080F2DD000F0C9FA48B1A90007EB84
:104ED000451200F108035360344A47F8312007E0D7
:104EE000AB00002247F833202E4B1A7801321A709B
:104EF00000F0B4FA58B1AB0043F0010307EBC30173
:104F000000F108024A601E4A47F8332009E0AB006E
:104F100043F00103002247F83320224B1A78013274
:104F20001A70AA0042F00201002347F8313042F023
:104F3000030247F8323001351D4B9E42BAD11EE2C2
:104F40000A4B1B781B4D2B700127AAE0194D00233B
:104F50002B706B700227A4E0084B9B88042B37D979
:104F60000F22154B1A70C1E08020074044FDFF1F3F
:104F7000CDFCFF1F46FDFF1F0080FF1F30FDFF1F00
:104F8000C800400064FCFF1F45FDFF1F8CB60000F9
:104F9000BCFCFF1F68FCFF1F10FDFF1F20FDFF1F53
:104FA00078FCFF1F3AFDFF1FC42007408800400027
:104FB000D42007403CFDFF1FC02007409020074041
:104FC00094200740982007408AFFFF1F88B6000002
:104FD000A04A0021117051709F4A12F8233013F03B
:104FE000020F5CD09B4D01232B70022759E09B4B95
:104FF0009B8803F07F03042B02DC984A52881AB185
:105000000F22954B1A7071E0934A12F8231021F089
:10501000020102F82310B2E1904B9B8803F07F035A
:10502000042B02DC8D4A52881AB10F228A4B1A7067
:105030005CE0894A12F8231041F0020102F82310C3
:105040009DE1864B5E889F88854BA3F10C0211463B
:1050500033F80C0CB04209D133F80A0CB84205D130
:10506000360A032E0CBF2F7817891AE00D690C330E
:105070000C32002DEBD10F22774B1A7036E0794BB2
:105080001A68794B1A60754B9A78784B1A7076E1EA
:105090000F22714B1A7029E000273D4601E00227DC
:1050A0006C4D6E4BDB889F4228BF1F46402F34BF9C
:1050B0003E46402628463146FFF728FD3544BF1BB3
:1050C00003D13F2E00F2608110E0402F34BF3E46F6
:1050D000402628463146FFF719FD3544BF1B01D154
:1050E0003F2E03D9624B1D60624B1F8001238AF85B
:1050F000003042E0594B198842F22103994212D103
:105100005D4BD81D12F8011B03F8011F8342F9D132
:105110005A4B1B68862B02D10F22594B1A70002064
:105120000146FFF7F3FC574B45F8363025E0504B6E
:105130001E68BEB14F4FB7F80080B8F1400F34BFC2
:105140004546402530462946FFF7E0FCC5EB0803FD
:105150009BB23B800BB9402D01D1354400E00025C6
:10516000434B1D603D4B1B88B3F5A06F05D13B4BF6
:1051700000225A709B788BF8003001238AF80030A7
:10518000B9E0414E9F0806EBC708D8F80420A2F109
:105190000800013DEDB213F0080F47D000F07EF992
:1051A0003A4B53F825304BB35A68384941F825201B
:1051B00003F10802C8F80420354A525D032A12D8C8
:1051C000DFE802F002060A0E0321314A51550AE0D7
:1051D00002212F4A515506E005212D4A515502E082
:1051E00004212B4A515518F0080F0CBF8822C82201
:1051F0001B8842EA034346F837307CE0244B5B5D72
:10520000032B0BD8DFE803F0777702060022204B50
:105210005A5570E001221E4B5A556CE018F0080FE9
:105220000CBF022203221A4B5A5564E056F837305D
:105230001B0C22F8083C002B55D0002322F8063C1A
:1052400042F8043C134B53F825302BBB114B43F869
:10525000250025E03CFDFF1FC020074030FDFF1F5B
:1052600098B6000060FCFF1F9CFFFF1F54FDFF1F4E
:1052700064FCFF1F38FDFF1F93FFFF1F94FFFF1FFC
:10528000CDFCFF1FC80040000080FF1F10FDFF1F66
:1052900078FCFF1FBCFCFF1F3F4B53F825305860C4
:1052A0003D4B43F825003D4B33F8151032F8082CE0
:1052B0000A4423F8152000F0D1F860B100F108038A
:1052C000C8F8043018F0080F354B364A08BF1346AB
:1052D00046F837300FE0002346F83730324B1A7863
:1052E00001321A7007E018F0080F2D4B2D4A08BF45
:1052F000134646F8373008232370F4E415F0010F05
:1053000022D02A4902230B700022294B1A70294B04
:1053100024481860284C5C6098602848D8601A615E
:105320009A610D20264B1870FF2326480370083819
:10533000037018300270244A13709F22234B1A7096
:1053400001230B70BDE8F88F15F0800F05D00D22FA
:105350001B4B1A708022403B1A7015F0020F06D0CA
:10536000184B1A78D2B21A700222083B1A7015F044
:10537000100F0ED01022164B1A70BDE8F88F0020C7
:105380000146FFF7C3FBB1E628460021FFF7BEFB4D
:10539000ACE6BDE8F88F00BF68FCFF1F8CFFFF1F65
:1053A000C8004000880040003AFDFF1F94200740DD
:1053B000CCFCFF1F0080FF1F7CFCFF1FD0FCFF1FE9
:1053C000C0200740882007408C20074084200740E9
:1053D0008020074008B501F087FE00231B491A46CC
:1053E0005A50C81842600833882BF9D1184B1A68F4
:1053F00042F480221A60154BC3F30721154A11703D
:10540000C3F30741143211701B0E04321370FF23D3
:10541000343A137008321370783A137001238432CF
:10542000137000216C3211707C3A137070220A4B99
:105430001A704FF40072A3F241331A60102203F184
:10544000C04303F5C8231A7008BD00BF0080FF1FCA
:10545000348004409C20074049E400E072B60D4BC4
:105460001A68B2FA82F30B2B02D962B60020704799
:105470004FF00041D94022EA010206490A6062B6B3
:10548000054903EBC303DB00C8180022CA50426081
:10549000704700BFA48FFF1F008CFF1F08B50F4B84
:1054A000C31A0F4AA2FB03131B090B2B14D80D4A76
:1054B00012783AB10C4A127812F0FF0F02D0FFF7BF
:1054C0007DFB08BD72B6094A4FF0004121FA03F393
:1054D00011681943116062B608BD00BF008CFF1F40
:1054E000398EE3383AFDFF1F44FDFF1FA48FFF1FD5
:1054F00010B5134B1B6853B9124B1B7813F0FF0FF9
:1055000018D00320FFF726FB0D4B1860A8B10C4BF9
:10551000186843885A1C03441C7A03889A4206D3AD
:10552000FFF7BCFF0022064B1A60204610BD4280E8
:10553000204610BD4FF0FF3010BD4FF0FF3010BDC2
:1055400050FDFF1F44FDFF1F08B50D4B1B6883B9BD
:105550000C4B1B7813F0FF0F08D00320FFF7FAFA6B
:10556000074B186028B94FF0FF3008BD4FF0FF30EF
:1055700008BD034B1B685A881344187A08BD00BF46
:1055800050FDFF1F44FDFF1F044B9888044B1B6810
:105590001BB11A885B88D31A184470478CFFFF1F11
:1055A00050FDFF1F2DE9F04704460122374B1A70CA
:1055B0000E46002964D0DFF8E080DFF8E0909A46DC
:1055C000334FD8F8003083BB99F8003013F0FF0F49
:1055D00006D100222D4B1A704FF0FF30BDE8F08746
:1055E00048F601450420FFF7D3FA07280AD801231B
:1055F0008AF80030FFF732FFC8F80000A8B900238E
:105600008AF80030013D01D03B7833B10122204BB4
:105610001A704FF0FF30BDE8F08700F097FC99F862
:10562000003013F0FF0FDDD1D3E700233B70D8F833
:1056300000104A88C2F14005AE4238BF354602F13B
:1056400008030B442A444A80761B3DB1254414F8D4
:10565000012B03F8012BAC42F9D100E025464B8821
:105660003F2B07D940230B800420FFF7EBFA0023E0
:10567000C8F800300522074B1A700EB12C46A0E77F
:105680000020024B1870BDE8F08700BF47FDFF1FE8
:105690004CFDFF1F46FDFF1F48FDFF1F44FDFF1F80
:1056A00000B583B002AB03F8010D18460121FFF7E6
:1056B00079FF03B05DF804FB10B5144B1B7813F0B1
:1056C000FF0F21D00122124B1A70124B196851B1F1
:1056D0000024114B1C704B880B800420FFF7B2FA9A
:1056E0000C4B1C600DE0FFF7B9FE014630B1002203
:1056F000094B1A700420FFF7A5FA02E00122064BBD
:105700001A700022024B1A7010BD00BF44FDFF1F2B
:1057100047FDFF1F48FDFF1F46FDFF1F08B50E4B4D
:105720001B7813F0FF0F16D10C4B196841B14B8851
:105730000B800420FFF786FA0022084B1A6008BD90
:10574000FFF78CFE014618B10420FFF77BFA08BD75
:105750000122034B1A7008BD47FDFF1F48FDFF1FC4
:1057600046FDFF1FF0B4C02928BFC02172B6134BFD
:105770001860134B00221A605A609A60DA601A614E
:105780005A61C1B113460E4C01275A0903F01F0696
:1057900007FA06F654F82250354344F822500133F4
:1057A0008B42F2D10022134684186370013302F554
:1057B00082728B42F8D162B6F0BC704760FDFF1F69
:1057C00068FDFF1F10B472B6234B1B688BB9224BC8
:1057D0005B6883B9204B9B687BB91F4BDB6873B94F
:1057E0001D4B1B696BB91C4B5B6963B962B600202A
:1057F0002EE0194A08E0194A06E0194A04E0194A5D
:1058000002E0194A00E0194AB3FA83F14FF0004070
:10581000C84023EA00031360154803780133DBB264
:10582000037062B60C48121A9210C1EB421202EBDE
:10583000821241F67C7101EB82020E4909688818D8
:1058400001248C540C4A12789A423CBF0A4A1370C5
:105850005DF8044B704700BF68FDFF1F6CFDFF1F24
:1058600070FDFF1F74FDFF1F78FDFF1F7CFDFF1FF4
:1058700065FDFF1F60FDFF1F5CFDFF1F427872B6D4
:105880000378012B02D9013B037011E05111094B40
:10589000D24302F01F024FF0004020FA02F253F808
:1058A0002100104343F82100034B1A78013A1A7083
:1058B00062B6704768FDFF1F65FDFF1F30B4C36807
:1058C00083B1187A90420AD158685C7A006950F81E
:1058D000245025B940F82410087801300870DB689E
:1058E000002BEED130BC7047437A8B4206D9036956
:1058F00053F82100002243F8212070470020704710
:1059000038B5437A8B4218D9036953F821400022F5
:1059100043F821209CB12378012B12D9FFF752FFC5
:10592000054628B10430211D4FF48072FEF71AFBA2
:105930002378013B2370284638BD002038BD20461F
:1059400038BD204638BD00BF4368427A5B7A9A4230
:1059500010D872B60368DA680AB9D86004E0D36870
:105960000BB11A46FBE7D06002680123137242684C
:10597000137262B6704700BF084B1B785BB9D02228
:10598000074B1A704FF08042A3F256331A60012081
:10599000024B187070470020704700BF64FDFF1F66
:1059A0005EE400E0F8B5184B1A6842F080721A60A5
:1059B000164B1A6842F001021A6004331F68144B38
:1059C0001C689CB1134D237A6BB12E6823681B6849
:1059D000204698472B689B1B1B099AB2A280E1883E
:1059E0008B4288BFE2806469002CECD1094B1B68B4
:1059F000DF1B3F09BBB2084A1380084A128897424E
:105A000084BF064A1380F8BDFCED00E0001000E002
:105A100058FDFF1F041000E080FDFF1F66FDFF1F03
:105A200030B472B699B902688AB103790F2B0ED8D7
:105A300027490988194111F0010F08D003F10073BB
:105A400003F59063B2EB431F01D162B63EE0204BF9
:105A50001D882946002341FA03F212F0010F2DD1CF
:105A6000012202FA03F42543194A158062B6DAB21C
:105A7000027118490C6844F002040C6004390C6887
:105A800044F002040C60822413490C601A310A703D
:105A900004310A7006390A7007310A7003F1007385
:105AA00003F590635B01036000221A605A609A60FC
:105AB000DA601A615A619A61DA6107E00133102BEA
:105AC000C9D162B6002303601023037130BC704754
:105AD00082FDFF1F408004400080004003790F2BAF
