:1000000000800020BD010000593D0000593D000066
:10001000593D0000593D0000593D0000253D0000BC
:10002000253D0000253D0000253D0000593D000014
:10003000593D0000253D0000593D0000153D0000E0
:10004000593D0000593D0000593D0000593D000058
:10005000593D0000593D0000593D0000593D000048
:10006000593D0000593D0000593D0000593D000038
:10007000593D0000593D0000593D0000593D000028
:10008000593D0000593D0000593D0000593D000018
:10009000593D0000593D0000593D0000593D000008
:1000A00081380000593D0000593D0000593D0000D5
:1000B000593D0000593D0000593D0000593D0000E8
:1000C000593D0000593D0000593D0000593D0000D8
:1000D000593D0000593D0000593D0000593D0000C8
:1000E000593D0000593D0000593D0000593D0000B8
:1000F000593D00008D580000593D0000095D000089
:10010000593D0000B9600000593D0000593D000014
:10011000593D0000593D0000593D0000593D000087
:10012000593D0000593D0000593D0000593D000077
:10013000593D0000593D0000593D0000593D000067
:10014000593D0000593D0000593D0000593D000057
:10015000593D0000593D0000593D0000593D000047
:10016000593D000055440000593D0000593D000034
:10017000593D0000593D0000593D0000593D000027
:10018000593D0000593D0000593D0000593D000017
:10019000593D0000593D0000593D0000D93E000086
:1001A000293F0000B13F00006D400000F140000019
:1001B000593D0000593D0000DD4F0000544B4CF20A
:1001C000205210B51A804DF628121A8000BF00BFC9
:1001D00003F0C6FD4F4B4FF010621A604E4A9A6012
:1001E0004E4ADA604E4B1A6812F4807204D14D49BF
:1001F0000A604FF4A8521A604B4B1A7802F00802BA
:10020000D2B21AB11A7842F008021A70474B484825
:10021000484C2A221A700023474A02E01959995083
:10022000043399188142F9D3444B454A002101E037
:1002300043F8041B9342FBD34249434800231A5816
:100240005A500433B3F5DE7FF9D1404B404A802148
:1002500003F8011B9342FBD13A4A3E4B1A603E4BD6
:100260000A221A703D4B24221A70A02203F8012C96
:100270003B4A137803F00203DBB2002BF9D0384A73
:10028000137803F01003DBB2002BF9D1344A137852
:1002900003F00C03082BFAD1324B03221A704022D0
:1002A0005A702F4A137803F02003DBB2002BF9D0E9
:1002B0002B4A137803F04003DBB2002BF9D02A4B12
:1002C0002A4A1A6002225A60294B20221A70244AB4
:1002D000137803F00C030C2BFAD1264A264B1A6034
:1002E000264B274A1A60072243F8042C62B603F013
:1002F000A3FF0C4B1B68DC0702D5224803F010FF5C
:1003000008F00CFA03F032FD04F014FFFEE700BF22
:100310000E20054030800440823F04000100002B85
:1003200010D0034014D0034002D0074000E0074043
:100330004C95FF1F3CA70000608FFF1F4C95FF1FCF
:1003400004470020008AFF1F0000000000E400E0D6
:100350005FE400E008ED00E0005006400140064088
:10036000064006400440064044800440000003016B
:1003700000400640C01005000480044014E000E086
:10038000FF7601004DC99056FFFFFFFFFFFFFFFF03
:10039000FFFFFFFFFFFFFFFFFFFFFFFFFFFFFFFF6D
:1003A000FFFFFFFFFFFFFFFFFFFFFFFFFFFFFFFF5D
:1003B000FFFFFFFFFFFFFFFFFFFFFFFFFFFFFFFF4D
:1003C000FFFFFFFFFFFFFFFFFFFFFFFFFFFFFFFF3D
:1003D000FFFFFFFFFFFFFFFFFFFFFFFFFFFFFFFF2D
:1003E000FFFFFFFFFFFFFFFFFFFFFFFFFFFFFFFF1D
:1003F000FFFFFFFFFFFFFFFFFFFFFFFFFFFFFFFF0D
:10040000FFFFFFFFFFFFFFFFFFFFFFFFFEFFFFFFFD
:1004100008B549F24C50074BC1F6FF701B1A062B6A
:1004200000D808BD40F20003C0F20003002BF8D052
:100430009847F6E74F95FF1F08B549F24C5049F22F
:100440004C53C1F6FF70C1F6FF731B1A9B1003EBF0
:10045000D373591000D108BD40F20002C0F200026F
:10046000002AF8D09047F6E710B549F24C54C1F68F
:10047000FF74237873B9FFF7CBFF40F20003C0F29B
:1004800000032BB14AF23C70C0F20000AFF30080D1
:100490000123237010BD00BF08B540F20003C0F275
:1004A00000034BB14AF23C7049F25051C0F20000D7
:1004B000C1F6FF71AFF3008049F24C50C1F6FF70F6
:1004C00003682BB140F20003C0F2000303B1984768
:1004D000BDE80840FFF7B0BF014B01221A7070471A
:1004E000A8A8FF1F044A10B5044640F81C2B01F0D1
:1004F00013FD204610BD00BF80A1000038B5054C9B
:10050000A4F596452046103C04F0A6FEAC42F9D175
:1005100038BD00BFDCF4FF1F38B5054CA4F5964587
:100520002046103C04F098FEAC42F9D138BD00BF23
:100530000840002038B5044608460D4603F040FC4C
:10054000236802465B6820462946984738BD08B5AF
:10055000FFF7F0FF08BD38B50446FFF7EBFF05468F
:10056000204604F001FE281838BD38B50A220023C1
:10057000044604F007FE0546204604F0F5FD281861
:1005800038BD38B5044604F035FE0546204604F073
:10059000EBFD281838BDFFFF034B82B01B680193A9
:1005A000019B036002B07047DC430020044B0068ED
:1005B0001B6882B00193019B181A02B0704700BFFC
:1005C000DC430020044B82B01B680193019B591A45
:1005D000016002B0704700BFDC4300200F4B417246
:1005E0000360002302610372C360194603E00269DD
:1005F00042F823100133427A9342F8DB084A136829
:1006000013B9106004E013465A69002AFBD15861FF
:10061000002343618380C380704700BFD89D0000E2
:10062000D44400202DE9F0479CB0804689460DF166
:1006300049070CA84146012201F04EFE0CA801F02A
:10064000B0FC002800F0A0800CA801F06BFC014673
:10065000684604F042FE68464E4904F0F4FE002865
:100660003CD04D4908A804F038FE684608A904F0BB
:10067000E1FE044608A804F0EFFD7CBB4748484D66
:1006800004F00FFF474B1A689042C8BF18604B2612
:100690000446464355F82000434B301803EB001A3C
:1006A0000CA801F03FFC0146504604F03CFE55F812
:1006B00024A00CA801F052FCB2443C4B374943F84B
:1006C0002A0055F824003A4B301803EB001004F0D0
:1006D00017FE55F82430013345F824300CA801F0FA
:1006E00023FC002846D0334904A804F0F6FD6846F0
:1006F00004A904F09FFE78B908A82F4904F0EDFD85
:10070000684608A904F096FED0F1010408A838BF95
:10071000002404F0A1FD00E0002404A804F09CFDE6
:1007200044B30CA801F0FEFB01461C4804F0FBFD9D
:100730009DF834308DF854300E9B16939DF83C3064
:100740008DF85C301D4B0DF13D0214930DF15D03EE
:1007500052F8041BBA4243F8041BF9D13A781A70D4
:10076000139B14A809F101011B93FFF75BFF14A869
:1007700001F0D2FB0CA801F008FC684604F06CFD07
:100780000CA801F0C9FB54E70CA801F0C5FB1CB094
:10079000BDE8F08734A9FF1FE09D000014A9FF1FEA
:1007A000A8A9FF1F54A9FF1F18F5FF1FC095FF1F21
:1007B000ECA9FF1FE29D0000E89D000038A20000A8
:1007C00030B504468BB00A220D4601A8214604F03C
:1007D000BAFD01A80B4904F0E1FD4B230A4903FBD4
:1007E000045401EB041101A804F0D3FD01A805A9EC
:1007F0001122002304F03DFE01A804F02DFD05A800
:100800000BB030BDEE9D000018F5FF1F08B54FF48A
:10081000FA7003F0FBFC024A024B1A6008BD00BFED
:100820000400FA050CED00E010B50E4C0E49204610
:10083000FFF78DFE0D4B2046196804F0DBFC2046C7
:100840000B49FFF784FE0B4B2046196804F0D2FCDD
:1008500020460949FFF77BFE084B20461968FFF741
:100860007AFE10BD04450020F09D0000B895FF1FE2
:10087000F69D00002CA9FF1F009E0000F0A8FF1F9E
:1008800010B50446C4F3C001062003F059FC05204E
:10089000C4F3800103F054FC0420C4F3400103F0CE
:1008A0004FFC032004F00101BDE8104003F048BCF8
:1008B00038B572B6384A137F0BB10021117762B692
:1008C000002B62D000213548FFF77CFE72B6324B18
:1008D000B3F91E20B3F92000801A47F6FF72DA83BD
:1008E0004FF400421A8462B607F07EF828A3D3E9D9
:1008F000002307F009FA07F09FFB4FF0814107F052
:10090000EBFB0021044607F099FD38B1204607F0C3
:100910007DF80022224B06F01BFF06E0204607F080
:1009200075F800221E4B06F011FF07F05DFB07F083
:100930005BF804460D4622462B4600204FF08041CE
:1009400005F09EFD0022002307F03AFB58B1224635
:100950002B4600204FF0804105F092FD0022104B05
:1009600006F0F6FE0AE022462B4600204FF08041BA
:1009700005F086FD00220A4B06F0E8FE07F034FB86
:100980000138BDE83840FFF77BBF38BDAFF30080CA
:1009900000000000E0FFEF4084A8FF1F14F5FF1FD8
:1009A0000000E03FAFF3008008B504F07AFD431E7D
:1009B0005842584108BDFFFF30B50C4685B04B4941
:1009C000054604F00CFD58B12146684604F0A0FC31
:1009D0006846FFF7E9FF464B1870684604F03CFC98
:1009E0002846444904F0FBFC20B1204604F059FDA0
:1009F000414B18602846414904F0F1FC58B12146AA
:100A0000684604F085FC6846FFF7CEFF3C4B187043
:100A1000684604F021FC28463A4904F0E0FC20B185
:100A2000204604F03EFD384B18602846374904F054
:100A3000D6FC58B12146684604F06AFC6846FFF7C8
:100A4000B3FF334B1870684604F006FC2846314962
:100A500004F0C5FC58B12146684604F059FC6846CC
:100A6000FFF7A2FF2C4B1870684604F0F5FB2846F0
:100A70002A4904F0B4FC58B12146684604F048FC09
:100A80006846FFF791FF264B1870684604F0E4FBB8
:100A90002846244904F0A3FC58B12146684604F0D6
:100AA00037FC6846FFF780FF1F4B1870684604F05C
:100AB000D3FB28461D4904F092FC20B1204604F0E7
:100AC000F0FC1B4B186028461A4904F088FC58B10A
:100AD0002146684604F01CFC6846FFF765FF164B8C
:100AE0001870684604F0B8FB05B030BD8F9E00005A
:100AF00025A9FF1F949E0000748FFF1F9C9E00007D
:100B00007C8FFF1FA69E0000708FFF1FB09E00000D
:100B1000848FFF1FC19E0000858FFF1FD19E0000A4
:100B200024A9FF1FE39E0000BCA8FF1FF49E000045
:100B3000888FFF1F039F0000908FFF1F10B59CB090
:100B40000021684604F0C9FB002104A804F0C5FB9D
:100B50004449454A012314A801F058FB434A9DF833
:100B600054301371169B93609DF85C3013730DF134
:100B70005D030D3203F10C0153F8040B8B4242F874
:100B8000040BF9D11B78394C13701B9B14A8E3613B
:100B900001F0C2F9204601F004FA002856D033488B
:100BA00001F0E0F900284DD00EE0694608A804F0F5
:100BB000AFFB214608A804F00CFC0146684604F08F
:100BC0009FFB08A804F048FB284801F050F9C4B284
:100BD0003D2CEAD1254801F04AF9C4B22FE004A91E
:100BE00008A804F095FB214608A804F0F2FB014692
:100BF00004A804F085FB08A804F02EFB1B4801F0B4
:100C000036F9C4B20A2C1AD169460CA804F080FB4C
:100C100004A910A804F07CFB10A90CA8FFF7CCFED7
:100C200010A804F019FB0CA804F016FB6846104944
:100C300004F079FB04A80E4904F075FBAFE70A2C19
:100C4000ADD0CCE7094801F0A0F903E009480A4912
:100C5000FFF781FC04A804F0FFFA684604F0FCFAF0
:100C60001CB010BD74400020199F00009895FF1F14
:100C70001D9E0000044500200B9F000010B5434955
:100C8000434888B001F01EFB4149404A132368469F
:100C900001F0BCFA3F4A9DF804301371029B936047
:100CA0009DF80C3013730DF10D030D3203F10C019F
:100CB00053F8040B8B4242F8040BF9D11B78354CE6
:100CC0001370079B6846E36101F026F9204632491C
:100CD000FFF73DFC314B20461978FFF746FC2046D4
:100CE0002F49FFF734FC2F4B20461968FFF749FCCA
:100CF00020462D49FFF72BFC2C4B20461978FFF797
:100D000034FC20462A49FFF722FC2A4B204619686A
:100D1000FFF737FC20462849FFF719FC274B2046F0
:100D20001978FFF722FC20462549FFF710FC254BD8
:100D300020461978FFF719FC20462349FFF707FCE6
:100D4000224B20461978FFF710FC20462049FFF778
:100D5000FEFB204B20461978FFF707FC20461E4972
:100D6000FFF7F5FB1D4B20461968FFF70AFC2046EC
:100D70001B49FFF7ECFB1B4B20461978FFF7F5FBEF
:100D8000204601F002F908B010BD00BF199F000015
:100D9000744000209895FF1F229E000025A9FF1F88
:100DA000289E0000748FFF1F319E00007C8FFF1F64
:100DB0003C9E0000708FFF1F479E0000848FFF1F26
:100DC000599E0000858FFF1F6A9E000024A9FF1F07
:100DD0007D9E0000BCA8FF1F269F0000888FFF1F7C
:100DE000369F0000908FFF1F30B54FF47A7089B0A6
:100DF00003F00CFA0220002103F0CEF908200021B4
:100E000003F0CAF90920002103F0C6F90B200121E3
:100E100003F0C2F90620012103F0BEF905200121EB
:100E200003F0BAF90420012103F0B6F901210320EF
:100E300003F0B2F94B4B1868FFF722FD4A48052131
:100E400003F0C6FF494B4A481A780A2142F00502CE
:100E50001A7001F03FF900283CD04549454A01236A
:100E6000684601F0D3F9444A9DF804301371029B9F
:100E700093609DF80C3013730DF10D030D3203F1E7
:100E80000C0153F8040B8B4242F8040BF9D11B7888
:100E9000394C1370079B6846E36101F03DF84FF44D
:100EA000FA7003F0B3F93248344901F001FAC8B9D5
:100EB0001BE00F20FFF7E4FC642003F0A7F92846AD
:100EC000FFF7DEFC0134642003F0A0F9062C01DDFD
:100ED000FFF79CFC26480A2101F0FCF80546002893
:100EE000E7D0BAE7FFF72AFE01E0FFF7C7FE237954
:100EF0008DF80430A3680293237B8DF80C30204BCF
:100F00000093204B0DF10D0203F10C0153F8040B7B
:100F10008B4242F8040BF9D11B781370164BDB6936
:100F2000002168460793FFF77DFB684600F0F4FF59
:100F30000021154800F05AFB144B1B68984205DC51
:100F4000084B1860124B01221A7004E000210E4871
:100F50000A4600F04EFB09200E49032202F07AFFF8
:100F600009B030BDB895FF1F0082FF1FFE4400206E
:100F700074400020EE9D00007095FF1F199F000037
:100F800038A200007D95FF1F1C40002054A9FF1FC0
:100F9000648FFF1FD90400002DE9F04F4FF00008C7
:100FA00089B04546444646464746DFF8389211E048
:100FB000172002F0C5FD3F18142002F0C1FD3618BD
:100FC000152002F0BDFD2418162002F0B9FD08F12D
:100FD00001082D18D9F800309845E9DB94FBF3F4AB
:100FE00095FBF3F597FBF3F796FBF3F6674BDFF80A
:100FF000F8B1D3F800A0664BDBF800201B68049220
:101000000593644BDFF8CCC11B68E31A83EAE372F3
:10101000A2EBE372604B0692D3F800905F4B1B6823
:10102000EB1A83EAE372A2EBE37207925C4BDCF803
:10103000002040F2FF3853F82230CDF80CC0B81928
:1010400000214045A8BF404600934FF480620B4604
:1010500020EAE07004F0F6F8524BDDF80CC01A6894
:10106000514BDCF800E01B684FF04B0C0CFB0E3CC6
:10107000DFF878E15EF82CE06119414528BF414670
:10108000BEFBF8F8B1FBF2F102FB08F251439842C3
:1010900017D0049ABB1A002BB8BF5B42534569DDD9
:1010A000424BCBF800701860414B1A78414B1A70D4
:1010B00060E03E4B1860404B1A783E4B1A70344B40
:1010C0001E60069B4B4507DD3C4B19603C4B1A7874
:1010D0003C4B1A702F4B1C60079A4A4507DD374B73
:1010E0001960394B1A78374B1A702C4B1D603748F2
:1010F00000F0B8FA20B1354800F096FA314B18707C
:101100003348FFF753FA0446082003F039F804FB8C
:1011100000F12F48FFF756FA2D48FFF747FAB0F5D0
:10112000C87F2FD92B4B2C491A68096801328A4293
:101130001A6001DD00221A601A68194B53F8222048
:101140001A4B1968914201DB013A1A60194B204889
:10115000012200211A70FFF735FA00211F48FFF71E
:1011600031FA1C4B1E481A78002109B0BDE8F04F37
:1011700000F03FBA059AB31A002BB8BF5B42534543
:1011800097DC9EE709B0BDE8F08F00BF6C8FFF1FB2
:101190006895FF1F6C95FF1F808FFF1F9495FF1FA1
:1011A000A8A9FF1F888FFF1F2CA9FF1FA4A9FF1F3D
:1011B000848FFF1F648FFF1F858FFF1FBC95FF1F4C
:1011C00024A9FF1FA8A8FF1FBCA8FF1F44A9FF1F39
:1011D00018400020B895FF1F54A9FF1F80A8FF1FCB
:1011E0001C400020788FFF1F9095FF1FC095FF1FA8
:1011F00038B55B4D95F8444024B95A4B1B78002B09
:1012000040F09680564B1B7E0BB1FFF7FFFA564B12
:101210001B781BB9554B1B78002B55D0544B1B78B2
:101220009BB1544C5448236840F2B91253430533E0
:101230000A22B3FBF2F34FF0FF31B1FBF3F10022CE
:1012400000F0AEFA206802F0E1FF4C4C4C4B2168F4
:101250001868FFF7B5FA4B4B226818604A4B4B4CA5
:101260001A60424B1B7833B93E4B1B781BB13C488C
:1012700000F046FD20602268424B3948196822F090
:101280000F02226000F0D4FC394B1B7883B1394B3C
:1012900039481B6840F2B912534305330A22B3FBA5
:1012A000F2F34FF0FF31B1FBF3F1012200F078FAD5
:1012B000334B1868FFF7E4FA2B4B354800211970BF
:1012C0002A4B1970FFF77EF93248FFF76FF9324B5E
:1012D0001B68984205D3FFF75FFE2E480021FFF7F9
:1012E00071F92E48FFF762F92D4B1B68984205D91A
:1012F000FFF79AFA29480021FFF764F92448FFF71D
:1013000055F909288CBF002101210B2002F018FF9C
:101310002448FFF74BF9532820D92348FFF746F913
:10132000224B1B68984219D9214B1B7893B938BDC1
:10133000134B1868144B1968FFF742FA114B01461A
:1013400018602246284600F073FC21461048FFF73B
:1013500039F957E7BDE83840FFF7AABA38BD00BFF2
:101360005CA9FF1F908FFF1F648FFF1FA8A8FF1F9E
:1013700025A9FF1F748FFF1FECF4FF1FA4A9FF1FF7
:10138000B895FF1FF0A8FF1F2CA9FF1FBC95FF1FDA
:10139000ECA8FF1F58A9FF1F8C8FFF1FE8A9FF1F94
:1013A000688FFF1F14F5FF1F80A8FF1F708FFF1F9E
:1013B0007C8FFF1F2DE9FF416848694D694F6A4ED8
:1013C000DFF8248200F09AFD6849694A634807F013
:1013D00087F900210A462846FFF700F9654B2846A1
:1013E000002440F81C3B00F089FD284600F0E8FB93
:1013F000284661495E4A07F073F9012107F124028A
:101400003846FFF7EBF85D4B06F118023B603046BB
:101410004FF0FF330121BB61FFF7E0F8584B336019
:1014200047F6FF7308F118020121F38340464FF499
:1014300000433384FFF7D2F8524B4046C8F80030DF
:1014400000F07AFA504880E8A00004724472C46048
:1014500003F097FD4D4880E8800104724472C46037
:1014600003F08FFD4A4880E8600004724472C46053
:10147000484D03F086FD4849484803F02EFF474891
:1014800047493B4A07F02CF905F596460AE0204605
:101490000021103403F021FFAC42F8D104F5966529
:1014A000B54202D0A5F59664F1E73E4D3E49304A7B
:1014B000002007F015F905F596460AE020460021C0
:1014C000103403F00AFFAC42F8D104F59665B5423A
:1014D00002D0A5F59664F1E7254A3449002007F0CB
:1014E000FFF83349334803F0F8FE2D49204A3148CC
:1014F00007F0F6F8304800F001FD1C491C4A2E4860
:1015000007F0EEF8082114222C4800F079F80221A7
:1015100014222B4800F074F82A48FFF73DF82A48B7
:10152000FFF73AF82948FFF737F8294B29481A6896
:1015300001920199284A11601A68029202991B6867
:10154000264A03931160264B039A1A60FFF724F88A
:101550002448FFF721F8BDE8FF8100BF9895FF1FE1
:101560005CA9FF1FECF4FF1F84A8FF1F191F0000D8
:10157000608FFF1F80A10000E504000060A1000053
:1015800050A1000070A10000ACA8FF1FF4A8FF1F2D
:1015900004A9FF1FC8F9FF1F3F9F000034A9FF1FC8
:1015A000595200009CAEFF1F19050000FD04000009
:1015B000439F000014A9FF1F7095FF1F44A9FF1F40
:1015C000DCA8FF1F30A9FF1F28A9FF1FE8A9FF1FE4
:1015D000DC43002080A8FF1FECA8FF1F184000205C
:1015E00058A9FF1F14F5FF1FC0A8FF1F084602F0EF
:1015F00063BB0846114602F073BB02F021BBFFFF3C
:1016000037B500238360074B42601B680193019B41
:101610000446036008460D4602F0B2FD6573207370
:1016200020463EBDDC430020007B704713B50446D6
:10163000407B02F0A5FD237B834201D100200EE018
:10164000074B1A68009200992268891A62689142D1
:10165000F4D31B6820730193019B012023601CBD00
:10166000DC43002037B50446FFF7E0FF10B100234C
:10167000A3600EE0A26872B1084B19680091009D4A
:101680002168691A914206D31B68A0600193019BEF
:101690002360012000E00020A0733EBDDC43002059
:1016A00070B50021044603F03EFCC0B1B4F91E2021
:1016B000B4F92030811C00F5817631F9025BAA4231
:1016C000A8BF2A46AB42B8BF2B46B142F5D323840C
:1016D0000123E2832377BDE8704003F0EFBB70BDC8
:1016E0002DE9F047846905462CB9214603F01BFC1F
:1016F000002851D04CE00021631C0BD103F013FCF7
:101700000446002848D028462146002203F0F6FB74
:1017100020463DE003F014FC064600283CD0EA6970
:1017200095F820101D4800234FEA146CC4F30F2EC7
:1017300030F91CA00CF1010CF71830F91CC0B7F9F6
:101740000280CEF580390EFB0CFC0AFB09CE4FEA75
:101750002E4E0EFB08FE4FEAEE3EA7F802E021B146
:10176000E743BA4205D2A41807E0A24204D2A41A61
:1017700003E04FF0FF3400E00C460233B3F5807F06
:10178000D2D12846AC613146002203F0B7FB304687
:10179000BDE8F04703F092BBBDE8F087469F00002C
:1017A00072B683690BB9012303E0013302D16FF0F4
:1017B00001038361C16180F8202062B67047FFFF9A
:1017C0002DE9F041DFF860C0154E164F002A0CBF1E
:1017D0004FF064524FF06052002434F8078056F8FE
:1017E00014509CFBF8F8414504D303F00801C9B23A
:1017F00021B905E002342E2CEFD1F6E742F08062E9
:1018000003F00403DBB23BB125F4704305F47045EB
:1018100042F0007243EA15152A430260BDE8F081E8
:10182000D4A10000A4A10000006CDC0210B50446A5
:10183000FFF7C6FF204610BD10B5044603F060FC5C
:10184000204610BD02480349034A06F049BF00BFC5
:101850002040002039180000608FFF1F0248034914
:10186000034A06F03DBF00BF2840002039180000A1
:10187000608FFF1F10B5194B1A6811681A79184B41
:101880001A70184A9142184928BF184B08683CBF83
:10189000134603F5807298B1014631F9024F04F501
:1018A000FF447F34241123F8024B9342F5D303F015
:1018B00005FB0F4B0C491A680A6000221A6005E00C
:1018C00040F2FF7123F8021B9342FBD3094B1B78B4
:1018D0001BB1094B4FF080421A6010BD344000200C
:1018E0001F8000400A88FF1F404000200A87FF1F1A
:1018F000304000203C40002008E200E010B500210C
:1019000003F011FB034690B172B60949086808B9A3
:101910000B6003E0074A146814B9136062B610BD87
:101920000C60136062B6BDE8104003F0C7BA10BD8A
:10193000404000203040002038B54B484B4D01213D
:1019400003F086FB4A4B1A6842F480521A60494BF6
:1019500080221A7000242C8008340120A4B202F0E6
:1019600055FCB4F5006FF6D1434B1B685B0264D5A0
:10197000424B1A6848F6A273134048F6A27293428B
:101980005BD13F4B1A6840F23F439A4255D13D4BE1
:101990001B68012B51D13C4B1A6840F201139A424B
:1019A0004BD1314D39492B681A68196002211971E0
:1019B00019726FF0010159734FF0FF319973D973A8
:1019C00019692A494FF4807019610022D98AD88296
:1019D00011465A715A729A72DA721A731A755A75D6
:1019E0001A765A769A76DA76DA8BD8839A8B01242D
:1019F00006229A839C71DC712B7903F1804303F5F5
:101A00000433B02219701A7003F0D2FA204B214A25
:101A100018702B792048137003F110011F4A42F807
:101A200021005A11920002F1604202F5614203F076
:101A30001F0304FA03F4146038BD0F4B1A6842F414
:101A400080021A600F4B01221A6040F23F4243F8B5
:101A5000082C48F6A37243F80C2C114A43F80C2CBE
:101A600040F201125A609CE73440002000C00C4054
:101A70002C80044021C00C403C80044000600340A6
:101A8000046003400C600340106003400A87FF1F9E
:101A90003C4000201B80004075180000008AFF1F9A
:101AA000A28F010002480349034A06F019BE00BF95
:101AB0003440002039180000608FFF1F024803499E
:101AC000034A06F00DBE00BF444000203918000054
:101AD000608FFF1F02480349034A06F001BE00BFA2
:101AE0004C40002039180000608FFF1FF8B590F8B7
:101AF00044300446002B5BD003F098F905460028DB
:101B000056D004F11C06304600F02CFA002835D0DF
:101B1000A91C30464FF4807200F00EFA0746B7F564
:101B2000807F304610D900F030FA224A1388002B0B
:101B300036D0013B9BB21380002B31D0002384F8B8
:101B4000443001232376F8BD00F00CFA18B91A4886
:101B50001A49FEF7FCFC236CFB1823640023237650
:101B6000780803E005EB4002013053808028F9D16A
:101B700020462946002203F0C1F90CE0304600F06F
:101B800004FA0C4A13887BB1013B9BB213805BB112
:101B9000002384F844302846BDE8F84003F08EB9AD
:101BA0005E2000F015F9C9E75E2000F011F9EFE7BB
:101BB000F8BD00BF544000200445002088A100006B
:101BC000002380F84430C3630364704710B51349A1
:101BD00004461348FEF7BBFC72B694F84430104834
:101BE00093B11049FEF7B3FC002384F8443062B689
:101BF00004F11C0000F0C9F90B4A13884BB1013BFA
:101C00009BB213802BB110BD0849FEF7A0FC62B651
:101C100010BD5E20BDE8104000F0DAB88BA10000D6
:101C2000044500208EA100005440002092A1000035
:101C3000F0B5044689B00F462B482C491546FEF7EF
:101C400086FC2046FFF7C2FF5E2000F0A7F8284B75
:101C50001A8801321A8072B626493A46012368462C
:101C600000F0D4FA9DF8043084F82030029B6362BF
:101C70009DF80C3084F828300DF10D0304F11C069A
:101C800004F1290203F10C0153F8040B8B4242F8D2
:101C9000040BF9D11B781370079B6846A36300F00F
:101CA0003BF962B6304600F07CF9074628B90E4889
:101CB0001149FEF74CFC384613E0304600F04EF96F
:101CC0000346B5FBF0F103FB1151E063304600F031
:101CD00039F9256404480949FEF739FC012084F8E4
:101CE000440009B0F0BD00BF0445002096A10000EB
:101CF000544000207440002099A100009DA10000E4
:101D0000006C7047184B19491A6842F480521A60E7
:101D1000174B184A1A60184A116001F1804151604E
:101D2000164A1A60164B1B78DA0755BF154A164A31
:101D30004FF410714FF40071116003F00201C9B249
:101D40004FF4007209B9114900E0114903F004038E
:101D5000DBB20A601BB94FF410720E4B02E00E4B5F
:101D60004FF400721A6070473C8004400110003844
:101D700000C0024001401F000CC0024000001F8054
:101D8000FE44002018B0044008C004401CB00440C9
:101D90000CC0044014B0044004C004405E2830B5B8
:101DA00011D8094A43091478012101FA03F52C439B
:101DB0001470064A00F01F0052F8234001FA00F1A7
:101DC0000C4342F8234030BD7040002058400020B2
:101DD0005E2810B514D843090A4A00F01F0052F8D3
:101DE0002340012101FA00F024EA000042F8230018
:101DF00030B9054A107801FA03F320EA030313709F
:101E000010BD00BF584000207040002013B502AB49
:101E1000026803F8011D546819460122A0471CBD41
:101E2000C06908B101F01CB8704738B50446C069F4
:101E3000002510B90123237138BD0571E06992B204
:101E400001F090F9E3691B7913B10123237128464E
:101E500038BD07B501220DF1070100F0F1FE0128A0
:101E60000CBF9DF807004FF6FF7000B20EBDC069B1
:101E700008B510B1FFF7EDFF08BD4FF0FF3008BD0A
:101E800038B50546C06950B1FFF7E3FF431C04466F
:101E900006D0E869C168013900F0AEFF00E00446F1
:101EA000204638BDF8B504464FF47A73A360124B50
:101EB000002020712073236024200D46174606F071
:101EC00059FCE061A8B12B4603F1200205461868D1
:101ED00059682E4603C6083393423546F7D1186831
:101EE000394630600C2204F10D0007F001FD00239B
:101EF00063762046F8BD00BF38A200004FF47A7127
:101F0000816004490022027102730160C261427360
:101F1000704700BF38A20000014B0360704700BF4C
:101F200038A200000D307047C06920B180790128C7
:101F300094BF002001207047C06908B508B100F0C7
:101F40007FFE08BDC06908B100F056BF7047C36985
:101F50000BB1D86870474FF0FF307047C06900B1CF
:101F60008069704738B5C369044663B1FFF7F6FF6F
:101F700005462046FFF7EBFF47F6FF73281A984205
:101F800028BF184638BD184638BD10B50446C0698C
:101F900030B100F091FFE06906F0F4FB0023E3614B
:101FA00010BDC06918B18079003018BF012070479A
:101FB00010B50A468AB00A49044600238DF8083055
:101FC00001918DF80A30214601A8012301F02AF879
:101FD000044610B101A800F06FFF20460AB010BD02
:101FE00068A200000AB101F0A5B80120704770B5E1
:101FF0000B68C45C2F2C08BF0133C6180024355D64
:102000002F2D08D06DB906E001330B60C05C0030A5
:1020100018BF012070BD00251555C25C2F2AF4D1D0
:10202000F2E71555013401330C2CF4D0E7E7FFFF3C
:102030002DE9F04F9A4699B0254B00248DF81C40AD
:102040008DF81E408DF840408DF842400194804646
:102050000D46914606930F930C4606AE04E02346C8
:1020600000E00FAB34461E4601A902AA4046FFF726
:10207000BEFF80F00102074602A92046D2B25346B5
:10208000C847834638B9AC4201D100201DE0204644
:1020900000F012FFF9E777B101233046214602AA8A
:1020A00000F0C0FFAC4207460CD0204600F004FF11
:1020B000002FD4D1E9E7AC4202D0204600F0FCFE6C
:1020C000012002E00028CCD1DFE719B0BDE8F08F95
:1020D00068A2000038B590F83E3004460D4613B1B2
:1020E000383000F0E9FE204601212A4600F0D0FAFF
:1020F00008B9002038BD04F1100501222846214608
:1021000001F094FA024640B104F13800294600F08B
:102110006FFD003018BF012038BD2846214601F070
:1021200085FA0028E5D0EFE70A7902710A4A0260D1
:102130004A7942718A7982718A688260CA68C2600B
:102140000A6902610A7D02758A698261CA69C2618F
:102150000A6A0262704700BF68A200002DE9F04FD2
:1021600097B00546383104A891469A46FFF7DCFF40
:10217000254B4FF0000B8DF838B00D938DF83AB029
:102180004C460DAF04AE2DE023782F2B01D1013446
:1021900028E0C4EB00085FFA88F8B8F10C0F28BFFC
:1021A0004FF00C0821464246684607F0A1FB16AAEC
:1021B00002EB0803384603F858BC00F07DFE3846B1
:1021C00031466A46012300F02DFF20B90E4B2871DD
:1021D0002B60A87114E0304600F06EFE3346444494
:1021E0003E461F4620462F2107F060F90028CBD13C
:1021F000C9EB0404CAF8004028463146FFF794FFB3
:10220000284617B0BDE8F08F68A20000F0B59DB079
:1022100004461E4601A86B461746FFF79FFF009B2A
:10222000FD18FB5C3BB901A913A8FFF77DFF204611
:1022300013A91C4A30E000238DF82C301A4A8DF87F
:102240002E309DF80A300A921BB92046FFF756FE41
:1022500024E0023B012B0AA806D814492A4633463B
:1022600000F0E0FE50B9F0E701A92A46334600F03D
:10227000D9FE0028E9D001A800F01EFE16F0060FD6
:1022800003D00AA8109900F0B7FD0AA913A8FFF718
:102290004BFF204613A92A46FFF704FE20461DB037
:1022A000F0BD00BFEE9D000068A20000AC40002021
:1022B00000F13803024A084619460023FFF7B8BE6A
:1022C000B11F000000F13803024A084619460023F6
:1022D000FFF7AEBEE51F000070B504469EB00D4688
:1022E000164628E09DF8100000B92AE0E52822D023
:1022F0002E2820D09DF81B0000F00800C0B2D0B9F5
:10230000134B8DF834008DF83600694604A80C9301
:1023100000F01EFC0CA8E9696A46334600F082FE14
:1023200078B10CA915A8FFF7FFFE204615A96A464B
:10233000FFF7B8FD08E0E86904A900F015FD0028E2
:10234000D0DC2046FFF7DAFD20461EB070BD00BF8E
:1023500068A20000084B02211961084900225A7145
:102360009A719A721A7383F8302083F83C2099632B
:1023700083F83E20704700BF7440002068A2000030
:10238000094B1A6842F480621A602C334FF0004205
:102390001A60064AFF2111601A68002AFCDA044B11
:1023A0001868C0B2704700BF00C0024034C002408D
:1023B00038C002401A4B1B4A70B51A60C307044666
:1023C00002D5FFF7DDFF013C052C01D8630800E0D2
:1023D000032300221449154801E0086001329A42A3
:1023E000FBDB23EAE372A4EB42040F49104A0F48D7
:1023F000104D06E0166816F0F00FFBD008602E684E
:10240000023C002CF6D106E0106810F0F00FFBD073
:102410000868013B01E0064A0649002BF4D170BD73
:1024200000C0024000041F8034C00240FFFF009043
:102430002CC0024038C00240074B1A6842F4806248
:102440001A602C334FF000421A60044A10601A6878
:10245000002AFCDA704700BF00C0024034C00240CE
:1024600013B5114C052813D8DFE800F00303060963
:102470000C0F01A80D490DE001A80D490AE001A8C3
:102480000C4907E001A80C4904E001A80B4901E050
:102490000B4901A800230122FFF7C8F9019B236023
:1024A000FFF730FC1CBD00BFD440002000366E0199
:1024B00000127A0000093D00C0C62D0080841E0075
:1024C000801A060010B5194B1B780BB3DA0707D535
:1024D000174A1849146809682140174C2160116097
:1024E00003F00202D2B23AB1144A124914684968A0
:1024F0002140114C6160116003F00403DBB23BB179
:102500000F4B0C4A196892680A400B498A601A609E
:102510000C4A1368834208D00B4B0C4919601060B9
:1025200040F0804050600A4A1A6010BD70400020A0
:1025300080E100E0584000206440002084E100E099
:1025400088E100E00CC0024000C0024001401F00D2
:1025500000001F800C4B1B78ABB1D90703D50B4A89
:1025600011680B4A116003F00202D2B21AB1074A95
:102570005168084A116003F00403DBB21BB1034B3E
:102580009A68054B1A607047704000206440002034
:1025900000E100E004E100E008E100E008B501210D
:1025A000007901F0CDFDFFF7D5FF08BD054B10B553
:1025B00004461868FFF786FF20790021BDE8104027
:1025C00001F0BEBDD440002010B5837904468BB124
:1025D000008940F20123984207D8C0F5007002300C
:1025E000FFF7E8FE40F2022323812046FFF7D6FFE3
:1025F0000023A37110BDFFFF73B50B4B1A68009247
:10260000009E0D461C46B6B2FFF7BAFEFF2808D062
:1026100023680193019B9BB29B1BAB42F4DB002020
:1026200000E001207CBD00BFDC430020F8B505467A
:102630000E461746FFF7C8FF2846FFF7B7FF4FF4CF
:1026400096712846FFF7D8FF46F04000FFF7F4FEEA
:10265000182427FA04F0C0B2083CFFF7EDFE14F18D
:10266000080FF6D126B1082E0CBF8720FF2000E00E
:102670009520FFF7E1FE0024FFF782FE0306E872D3
:1026800004D5FF2C02D00134E4B2F5E7F8BDFFFF1A
:102690002DE9F04300230373837283714371544B1C
:1026A000027185B01B680446019310460F46012154
:1026B000019E01F071FD0121207901F041FD4D4B9A
:1026C0001A6842F480521A600620FFF7C9FE4A4B8E
:1026D0001868FFF7F7FE0A25FF20013DFFF7ACFE63
:1026E00015F0FF05F8D1FFF735FF2046FFF75EFF35
:1026F000DFF8FC801FFA86F90BE0D8F8003002936F
:10270000029B9BB2C9EB0303B3F5FA6F01DD012312
:102710004EE0002120460A46FFF788FF01280546C3
:10272000E072EAD1204608214FF4D572FFF77EFF10
:1027300000F00400C0B208B125730DE00425FFF7D6
:102740001FFE013D15F0FF05E072F8D1AA284FF0F9
:10275000020300D02CE02373257BDFF89480022D48
:102760000CBF4FF080450025B6B20AE0D8F8003023
:102770000393039B9BB29B1BB3F5FA6F01DD082308
:1027800016E0372100222046FFF750FF2A46204658
:102790002921FFF74BFF0246E0720028E6D1237B98
:1027A000022B15D120463A21FFF740FF10B1062336
:1027B000637115E0FFF7E4FD00F0C000C02801D10F
:1027C00003232373FFF7DCFDFFF7DAFDFFF7D8FDE6
:1027D0002046FFF7E3FE3846FFF742FE012003E004
:1027E0002046FFF7DBFE002005B0BDE8F08300BF08
:1027F000DC4300203C800440D440002073B5114BE2
:102800001A680092009E04461D46B6B209E02B6885
:102810000193019B9BB29B1BB3F5967F01DD0F23B8
:1028200007E0FFF7ADFDFF28E072F0D0FE2806D0EC
:102830000D2320466371FFF7B1FE002000E0012068
:102840007CBD00BFDC4300202DE9F843089D044611
:102850000F4690461E4603B974E09B18B3F5007FFF
:1028600073DC83792BB10368994202D103899342C7
:1028700016D9237B2760032B18BF7F023A462046D8
:102880001121FFF7D3FE074610B1032363715CE00B
:102890002046FFF7B3FF002857D001232781A371FB
:1028A0004046FFF787FD2C492C4B1960F107324653
:1028B00004D5FFF765FD05F8010B721E052A01D846
:1028C000530800E0032300212548264F01E007605C
:1028D00001319942FBDBA2EB4302AA182248204FA8
:1028E000DFF880C0DFF884800DE0016811F0F00FA0
:1028F000FBD0C7F800C0D8F80010C1F3072985F84D
:102900000090697002359542EFD302EB43031748FC
:10291000154A09E0116811F0F00FFBD00168C1F30E
:1029200007272F70697002359D42F3D32389F6186B
:10293000A37AB6B2268113B1B6F5007F02D3204642
:10294000FFF742FE0120BDE8F8832046FFF726FE90
:102950000020BDE8F88300BF00041F8000C00240D3
:1029600034C00240FFFF00902CC0024038C002403B
:1029700007B54FF4007300920022FFF765FF0EBD0C
:102980002DE9F04104462B482B4F03682B4D43F4AF
:1029900080634FF0004603603E60296039460023A3
:1029A00007468C46D1F800E0BEF1000FFADA12E0DB
:1029B000D1F800E0BEF1000FFADA18E01E4A136801
:1029C000002BFCDA26E0112320466371FFF7E6FDB9
:1029D0000020BDE8F081D0F8008012F803E048F450
:1029E0008068C0F800800E60C5F800E0E0E702EB08
:1029F000030ED7F800809EF801E0023348F48068A7
:102A0000B3F5007FC7F80080CCF80060C5F800E09F
:102A1000C8D1D3E7FF20FFF70FFDFF20FFF70CFD24
:102A2000FFF7AEFCE07200F01F000528CBD10120BB
:102A3000BDE8F08100C002402CC0024034C002401A
:102A400070B50B460446164609B9122329E0027BED
:102A5000032A18BF4B021A461821FFF7E7FD054667
:102A600008B104231DE02046FE213246FFF788FF0F
:102A700088B120464FF41671FFF7BEFD08B9152343
:102A80000FE020460D212A46FFF7D0FD40B9FFF7A1
:102A900077FC28B907E02046FFF780FD002070BDD5
:102AA00014236371F7E72046FFF778FD012070BD1E
:102AB000014A024B1A60704701100138D4400020CF
:102AC00010B504460121006A04F1080200F032FD4D
:102AD00040B1E3692BB9A368E361637963F07F03D5
:102AE0006371012010BD70B50446FFF7E9FF08B916
:102AF000002070BD236AA268197C1D79023A02FA8F
:102B000001F65A69B218561E06E0701900F056FC1C
:102B10000028EDD0013DEDB2002DF6D1236A1B7CDB
:102B20004FF4007202FA03F2A3699B18A36101201B
:102B300070BDFFFF10B50446006900F01BFC18B122
:102B4000207D024B03EB401010BD00BFE44000208D
:102B5000002230B513462E24855C202D09D0D5B235
:102B6000082D02D1CC540133DBB2855CCD54013346
:102B7000DBB201320B2AEFD10022CA5430BDFFFF75
:102B800070B5002305462022CA5401330B2BFBD11C
:102B9000002207241FE02E2B01D0144E06E00A2C41
:102BA00022D008220A2416E098421DD016F8010F00
:102BB0000028F9D1A24218D8202B16D97E2B14D880
:102BC000A3F16106192E01EB020001D8203BDBB214
:102BD00001320370D2B215F8013B002BDBD108782B
:102BE000203818BF012070BD002070BD4FA200002A
:102BF00038B5827904460D460AB1002038BD91F8F7
:102C00002030102B06D1022383714B8CC2615B01F3
:102C100083610CE0202BF0D103238371496A04F116
:102C20001802C161284600F019FC0028E5D00023F5
:102C3000012025626071A360E3602361237538BDC4
:102C40002DE9F04F837985B00446904613B94FF6CD
:102C5000FF7865E04379DB07F9D564E01FFA83F874
:102C600047460E46DFF8F890DFF8F8A056E0E26835
:102C7000A179206AD3054FEAD35B02291FFA8BF3AF
:102C80004FEA522E02D1416A71441CE00579013DA0
:102C900005EA0E05EDB26BB965B912B9E269A26039
:102CA00008E0A168039304F1080200F0A3FB039B72
:102CB0000028CCD0226AA168107C5269023901FA3E
:102CC00000F189184919CBF500729742627902F038
:102CD0004002C8BFC3F50075D2B2CCBFADB23D460D
:102CE00012B9B5F5007F2ED1DAF80020914220D13B
:102CF00029E076190DE00BEB090358191A46314605
:102D000003E012F801CB01F801CB8242F9D1D31ACA
:102D1000F618E3687F1B5B19E360BFB2002FA6D1F2
:102D20000FFA88F016E08269C368D31A984595D8DF
:102D300096E70A4A009610681A462B46FFF784FD6C
:102D40000028D6D183E70846002100F013FB0028B5
:102D5000D1D17CE705B0BDE8F08F00BFE040002096
:102D6000E4400020948FFF1F38B58379012B05467E
:102D70000C4601D8FF201BE0C368DA06FAD10AE04E
:102D80002278A2B1E52A06D02E2A04D0E27A02F0F7
:102D90000802D2B262B1202228462146FFF750FF36
:102DA00042B2202AECD0002AE4DB002000E01046EA
:102DB00040B238BD37B58379012B044601D80020D5
:102DC00016E0C36801220DF10701C3F34315FFF7B5
:102DD00037FF01280CBF9DF807304FF6FF731BB279
:102DE0000133ECD0E26803481F32E26000EB45108B
:102DF0003EBD00BFE4400020F8B5044680790D4692
:102E000000282CD0A369994224D825E01DB9A560DB
:102E1000E5600120F8BD236AE2681E7C691E093660
:102E2000531E23FA06F321FA06F69E4200D312B986
:102E3000E369A36009E0F61A07E0206AA1683A4650
:102E400000F0D8FA013E10B9F8BD04F10807002ED1
:102E5000F3D1DDE70020F8BD0228D7D1D8E7F8BDCF
:102E600038B58379054613B390F90530002B1ADA8B
:102E70000121FFF75FFE0446C8B1AB79012B9CBF6F
:102E8000AB69C361EB6943831B0C8382094B1B68ED
:102E90002BB1183004F116019847238B63826B79AC
:102EA00003F07F036B71BDE8384000F03DBA0020AD
:102EB00038BD00BFD840002010B50446FFF7D0FF52
:102EC00010B10023A371012010BDFFFFF7B5827977
:102ED000012A04460D4645D1437903F00203DBB2D3
:102EE000002B3FD040E0002B3AD0E668FFF784FF8C
:102EF00000B937E0206A35B9E16900F073FB0028BA
:102F000030D0E5611BE0A16801AA00F073FA48B374
:102F1000206A184B90F8207001994FF6F872102F24
:102F200008BF134699420AD200F05CFBD0B1206A78
:102F3000A1686FF0704200F0B9FA00B912E063794D
:102F4000A56163F07F0363712046FFF789FF48B1F5
:102F50002046B54234BF29463146FFF74DFF07E012
:102F6000104605E0002003E083699942BBD9F9E7E8
:102F7000FEBD00BFF8FFFF0F10B500210446FFF7AC
:102F8000A5FF60B120460121FFF7D4FD38B1E5234C
:102F900003700023A371BDE8104000F0C5B9002004
:102FA00010BDFFFF38B51D4B03EB41131546DA7A10
:102FB00012F0110F044604D015F0420F01D000208A
:102FC00038BD174A2175126822615A8B998A42EAE4
:102FD0000141E161DA7A12F0180203D1DB69A361E1
:102FE000012309E0102AEAD1206A04F1180200F056
:102FF00035FA0028E3D00423A37105F00F0305F090
:1030000040050021EDB26371A160E16025B1204669
:10301000BDE83840FFF75ABF012038BDE44000202A
:10302000948FFF1F2DE9FF47867905460C461F4602
:10303000002E75D10DF1040810464146FFF7A0FDA2
:1030400000B96DE0236AA6602B62E660DFF8E090CD
:10305000C24621E02046C3F34318FFF7ABFE01460A
:1030600000285DD002780AB1E52A09D126B9D9F83D
:10307000002085F814802A610B78012683B10BE0CB
:1030800050460B2205F052FE30B907F03003302BCA
:1030900046D0284641463FE0E368A2699342D9D32F
:1030A00007F01203122B3BD136B128460121FFF75E
:1030B00041FD044648B933E0A379022B30D02046C5
:1030C000FFF711FD60B3184C2E7500212022204619
:1030D00001AE05F07DFF03CE20606160B3783288D9
:1030E000A372124B22811B682BB104F1100004F172
:1030F0000E01984706E021222274A3732822082398
:103100006274E373238A63822383E389E38200F09A
:103110000BF928B1297D28463A46FFF743FF00E026
:10312000002004B0BDE8F087E4400020D840002033
:10313000948FFF1F10B50A468AB009490023044640
:103140008DF8083001918DF80A3001A8214602233C
:10315000FFF768FF10B101A8FFF70EFF0AB010BD1E
:1031600068A200002DE9F74F92468279012A0746AE
:103170000C4640F0B680427902F00201C9B2002943
:1031800000F0AF80B1E0B969FD688D4201D15546CC
:1031900088E0FFF731FE002800F0A380F7E7386AE7
:1031A00090F804B00BF1FF3B0BEA522B4FEAC259E7
:1031B0004FEAD9591BF0FF0B1FFA89F81FD1B8F15C
:1031C000000F1CD1B96811B9FA69BAB911E001AAA6
:1031D00000F010F9002800F08F80396A474891F814
:1031E0002010019A4FF6F873102908BF1846824242
:1031F00004D33846FFF764FC08B972E0BA603A6A53
:10320000B968107C5269C8F500760239B6B2B54289
:1032100038BF2E4601FA00F18918B6F5007F8B44BD
:1032200011D1374A1168594504BF4FF0FF31116081
:10323000344A594610682246FFF702FC002850D055
:1032400004F5007429E0B8F1000F10D1F968BA69EB
:1032500091420CD300F068F8002842D0284AC2F806
:1032600000B0294A117841F00101117005E058467B
:10327000012100F07FF8002833D0244A914409EB63
:103280000600611E4A4603E011F801CF02F801CBA7
:103290008242F9D1C9EB02094C44FA68AD1B961978
:1032A000ADB2FE60FA68002D7FF479AFB9698A4249
:1032B00001D9BA6105E0164A126832B1BAF1000FBD
:1032C00003D07A7962F07F027A717A7902F008028B
:1032D000D2B20AB950460FE03846FFF7C1FD0028C8
:1032E000F8D101223A71002006E002F00402D2B2C5
:1032F000002A7FF448AF4AE7BDE8FE8FF8FFFF0FD2
:10330000948FFF1FE0400020E4420020E4400020B2
:10331000D840002007B502AB012203F8011D194671
:10332000FFF720FF0EBDFFFF38B50D4B1B78A3B193
:103330000C4D0D4B286819680C4AFFF781FB68B1EA
:103340000B4C216831B12868084AFFF779FB28B196
:1033500000232360024B00221A70012038BD00BFF9
:10336000E4420020E0400020948FFF1FE440002052
:10337000DC40002070B50D4D2B68834204460E469C
:103380000DD0FFF7D1FF08B9002070BD084B094AE6
:1033900018682146FFF7ECFA0028F5D02C60064BA0
:1033A0001A7816431E70012070BD00BF948FFF1F56
:1033B000E0400020E4400020E442002010B5044634
:1033C000FFF7B2FF78B10023074A19469954013339
:1033D000B3F5007FFAD1054B1C60054B1A7842F01B
:1033E00001021A70012010BDE4400020948FFF1FDD
:1033F000E4420020C3680133994270B505460C468B
:10340000164601D9002070BD95F82030C069102BF8
:1034100001D10B0A00E0CB0918180E4B1B6898422B
:1034200005D195F82030102B0B4B0AD105E0002177
:10343000FFF7A0FF0028F4D1E4E7E4B233F814303A
:1034400005E004F07F0453F8243023F07043336028
:10345000012070BD948FFF1FE44000202DE9F74349
:1034600002AEDFF8448046F8041D054617460024E6
:103470004FF6F879284601993246FFF7BBFF80B135
:103480002B7C4FF4007202FA03F395F82020E41825
:10349000019B102A14BF42464A469342EAD33C603D
:1034A0000120BDE8FE8300BFF8FFFF0F0129F8B53A
:1034B00004460D46174633D9C368013399422FD8C5
:1034C00090F82030C669102B01D10B0A00E0CB091F
:1034D0009E19144B1B689E4205D194F82030102B86
:1034E000114B0BD106E030460021FFF743FF0028C7
:1034F000F3D1F8BDEDB223F8157003E005F07F05B8
:1035000043F82570094B1A7842F001021A70237EA5
:10351000012B03D9A368F618054B1E600120F8BDE6
:103520000020F8BD948FFF1FE4400020E4420020FB
:10353000DC4000202DE9F74F156806468A461746FD
:103540001DB101354FF0000905E04B1ED3F1000914
:10355000056859EB0309F3682C4603F1010B4FF0A2
:103560000008F36898451CD25C4501D90224254621
:103570003046214601AAFFF73DFF90B1019A631C36
:103580000AB11D4602E05B1B534503D008F1010858
:103590000134E6E7304621466FF07042FFF786FFC0
:1035A00058B900201CE004F1FF383046414622465D
:1035B000FFF77CFF0028F4D04446AC42F3D83968CA
:1035C00021B93D60B9F1000F07D108E030462A4625
:1035D000FFF76CFF0028F4D1E3E7013535600120E7
:1035E000BDE8FE8FF7B502230F4F036005460C467A
:1035F0004FF6F8762846214601AAFFF7FBFE80B178
:10360000284621460022FFF751FF50B195F820309F
:10361000019C102B14BF3B4633469C42EAD3012049
:1036200000E00020FEBD00BFF8FFFF0FF8B53B4BE8
:10363000044619601546CAB1042A01D90020F8BD14
:1036400000200146FFF796FE0028F7D0344B03EB2D
:10365000051505F5D475AA795206EFD1D5F81220D3
:10366000632AEBD9D5F80E50002DE7D0284600216B
:10367000FFF780FE0028E1D0294BB3F80B20B2F50C
:10368000007FDBD11A7C002AD8D0D9890029D5D077
:103690005B7B002BD2D02276002223712274012082
:1036A00003E0511C072A2174C8D8227C00FA02F1D9
:1036B0008B42F6D11A4BD98A01B9596ADE89A160C9
:1036C000AE19E661B3F811001F7C6084400107FB6E
:1036D000016100F2FF10616201EB50216161B3F8FA
:1036E00013300BB90E4B1B6A691ACB1823FA02F27E
:1036F00040F6F4739A42E26001D80C2309E04FF6D9
:10370000F4739A4201D8102303E0054BDB6A63622D
:10371000202384F820300120F8BD00BFE0400020C5
:10372000E4400020094B1B7813B9094B1B782BB1DF
:10373000084A1378202B03D9012303710020704716
:103740000548C15401331370012070474A430020DB
:103750000D4300204B430020EC4200207047FFFF48
:10376000024B1878024B1B78C01A7047494300205F
:1037700048430020064A074913780978994204D93A
:103780000549C85C0133137070474FF0FF30704734
:1037900048430020494300200E430020054B064AC1
:1037A0001B7812789A4202D9044AD05C70474FF0D5
:1037B000FF30704748430020494300200E4300205B
:1037C00038B50E4B1B78144613B90D4B1B788BB1D3
:1037D0000C4B1D78C5F121039C4202D901220271D4
:1037E0001C4609482246401905F0D2FA054B2D190E
:1037F0001D7000E01C46204638BD00BF4A43002033
:103800000D4300204B430020EC42002010B5104B2C
:103810001B7813F020040BD1122000F045FB0D4B58
:103820001B68A3B10C4A14700C4A1078984710BD5D
:103830000B4A13780133DBB2012B137002D8094B0A
:103840001B7823B91220BDE8104000F02DBB10BD3D
:1038500003600640E842002048430020494300201E
:10386000344300200D430020002202710273034AFA
:103870004FF47A7181600260704700BF78A2000047
:1038800010B5374A137803F01001C9B221B903F01B
:103890004002D2B242B92EE01021117003F0400272
:1038A000D2B2002AF3D110BD13F004032D4A18D070
:1038B000002313702C4A13702C4B1B68144603B161
:1038C000984722782A4B1AB927491A7001200870A4
:1038D000284AD02111701A78274B1A700122274BE1
:1038E00021E001211170264A1370224BC0221A7068
:1038F00002331B7830E01F4A1F4C117811F0100181
:1039000017D013F0010310D11C4917480A7800782A
:10391000904205D9164B9B5C013223700A7000E07F
:103920002370144BD0221A7016E0C0231370237832
:1039300012E0144B122019700322134900F08AFA86
:103940000F4A207813781F2B06D80649097819B139
:103950000E49C85401331370014B02221A7010BD76
:1039600003600640E54200204B4300203043002026
:10397000EC42002002600640046006404C430020F8
:1039800049430020344300200D3800000E4300203E
:103990000148FFF769BF00BF38430020F0B5304849
:1039A000304903681B06FCD40B6813F08002F8D181
:1039B00072B62D4B1978002950D02C4908684F68F1
:1039C0008E68CD680C69381814318019096840195F
:1039D00000194018C0F34E00254940F4004008602B
:1039E000C86A0F6B4E6B8D6BCC6B381840318019E9
:1039F0000968401900194018C0F34E001D4940F4F1
:103A00000040086001F10811143151F8140C51F80C
:103A1000107C51F80C6C51F8085C51F8044C0968A2
:103A200038188019401900194018C0F34E00124987
:103A300040F400400860C86A0F6B4E6B8D6BCC6B16
:103A40003818403180190968401900194018C0F32E
:103A50004E000A4940F4004008601A7062B6F0BD9A
:103A600024B0034024B00B404E43002038B0034044
:103A70002CB0034030B003402CB00B4030B00B40B2
:103A8000224B60221A70E1225A70214B214A197888
:103A9000214B082901D1012102E00A2907D139214E
:103AA000116013221A601D4B19605A600BE00C293B
:103AB0001A4901D1352000E03D20106012221A6021
:103AC000174B08601A60174B17491B78174A03B148
:103AD00001230B601360164B164A1978164B012907
:103AE00001D880210CE0042901D8842108E00829AC
:103AF00001D8852104E0102901D8862100E0872122
:103B0000116019600D4B01221A7070470040074088
:103B1000988FFF1F08B003400CB0034008B00B4063
:103B20000CB00B405143002020B0034020B00B40AC
:103B3000998FFF1F24B0034024B00B404E43002058
:103B40000D282DE9F0410FD9172801D80E380AE0C9
:103B5000A0F11A03052B01D8093804E0A0F12203D3
:103B6000062B4DD81838C0B2274B1C5C274B1B784E
:103B70000BB1FFF713FF72B6200614D4244D254E67
:103B800001272C60377062B672B62B68190603D510
:103B9000214B18681F4B23E03378002BF1D062B61D
:103BA00001F084FCF0E704F040071C4D1C4EFFB20E
:103BB00004F03F044FF001081A4B1A6817B122F0C5
:103BC000100201E042F010021A602C6086F80080BA
:103BD00062B672B62B681A060BD5134B1868104BD9
:103BE00000221A7062B6114B1B7840FA03F0BDE850
:103BF000F0813378002BDFD062B601F057FCE8E7A4
:103C00000020BDE8F08100BF90A200004E430020DC
:103C100000B003405043002010B0034000B00B4000
:103C20004F4300200CB00B4010B00B404D43002020
:103C3000024A1378DB07FCD5704700BF0100024041
:103C400030B5194B85B06C4603F1100518685968FA
:103C5000224603C20833AB421446F7D1134B1B78FC
:103C600003F00203DBB2BBB1114B80221A70332286
:103C70001A710322DA7072B60E4C6B4643F00103E0
:103C80002046984762B6237813F0700304D023705F
:103C900008E0013B03D105E0044944F621630A78BA
:103CA000D207F6D505B030BDA8A200000100024041
:103CB0000700024000000240B0F5006F10B5044656
:103CC00009D2064B1B78D90701D4FFF7B9FF04F1DD
:103CD000A054207810BD002010BD00BF010002409C
:103CE000B0F5006F38B504460D460FD2084B1B786F
:103CF000D90701D4FFF7A4FF04F1A0542378AB4205
:103D000004D02570BDE83840FFF792BF38BD00BF32
:103D100001000240024B1A6801321A60704700BF6E
:103D2000DC43002038B50B4C25462368580301D5E9
:103D300000F090FB2B68590501D501F0A7FD2B6819
:103D40001A0501D501F0E0FF2368DB04EDD502F090
:103D5000B3F9EAE73480044008B5FFF7E3FFFFFF5B
:103D6000014B10221A807047002005407047FFFF6A
:103D7000024A136818181060184670479C8FFF1F7E
:103D8000FEE7FFFFEFF313839BB9EFF3108098B9C1
:103D9000EFF3058323B10F2B04D9084A985C01E0A7
:103DA0004FF48070EFF311833BB1984228BF18465F
:103DB00070474FF0FF30704718467047F0E300E05F
:103DC000002300E00133C25C002AFBD11846704793
:103DD00010B50023B0FBF2F402FB1400092801D84F
:103DE000303000E03730C85420460CB10133F1E7E1
:103DF000CA185470224605E0885CCC5C8C54C854C8
:103E00000132013B9A42F7DB084610BD031E10B594
:103E10000C4603DBBDE81040FFF7DABF2D2001F8A8
:103E2000010B5842FFF7D4FF204610BD084B4FF45A
:103E300000021A604FF080721A604FF000721A6030
:103E40004FF080621A604FF000621A60704700BF46
:103E500008E100E0212830B521D8042A1FD8DFE886
:103E600002F00709050B03000B2306E00A2304E018
:103E7000082302E00C2300E00923094A02EBC002F8
:103E8000526872B61468074D24F47024146044F02C
:103E9000807444EA034345F82010136062B630BDD5
:103EA000B8A2000054430020094B03EBC0035B6839
:103EB00072B61A6822F0877222F4803242F0807261
:103EC0001A60044B002243F8202062B6704700BFFE
:103ED000B8A2000054430020114B10B51C68E00448
:103EE0001C6004D50F4BDA680AB1DB689847A1045F
:103EF00004D50C4B1A690AB11B699847A20604D570
:103F0000084B1A6E0AB11B6E9847E30606D5054B9F
:103F1000D3F8842012B1D3F88430984710BD00BF85
:103F2000A0900440544300201F4B10B51C68E003D0
:103F30001C6004D51D4B1A680AB11B689847A10381
:103F400004D51A4B5A680AB15B689847E20704D552
:103F5000164B1A6C0AB11B6C9847A30704D5134B78
:103F60005A6C0AB15B6C9847200704D50F4B9A6CCA
:103F70000AB19B6C9847610704D50C4BDA6C0AB107
:103F8000DB6C9847220304D5084B5A6E0AB15B6E6E
:103F90009847630306D5054BD3F8802012B1D3F8B8
:103FA0008030984710BD00BFA0A0044054430020BB
:103FB0002C4B10B51C6820071C6004D52A4B5A6A8C
:103FC0000AB15B6A9847E10604D5274B9A6A0AB1A1
:103FD0009B6A9847620604D5234BDA6A0AB1DB6A0A
:103FE0009847230604D5204B1A6B0AB11B6B9847E0
:103FF000A00604D51C4B5A6B0AB15B6B9847E107CE
:1040000004D5194BDA6B0AB1DB6B9847A20704D5CC
:10401000154B9A6D0AB19B6D9847630704D5124BF7
:10402000DA6D0AB1DB6D9847A00504D50E4BDA6E48
:104030000AB1DB6E9847E10504D50B4B1A6F0AB144
:104040001B6F9847620504D5074B5A6F0AB15B6F27
:104050009847230504D5044B9A6F0AB19B6F984784
:1040600010BD00BFA0B00440544300201E4B10B54B
:104070001C68E0071C6004D51C4B9A680AB19B6859
:104080009847210604D5194B5A690AB15B699847CC
:10409000E20604D5154B9A690AB19B6998476307F4
:1040A00004D5124BDA690AB1DB699847200704D5B9
:1040B0000E4B1A6A0AB11B6A9847A10704D50B4B2D
:1040C0009A6B0AB19B6B9847A20604D5074B1A6DF1
:1040D0000AB11B6D9847630604D5044B5A6D0AB1AB
:1040E0005B6D984710BD00BFA0C004405443002042
:1040F000094B10B51C68A2071C6004D5074B9A6ECB
:104100000AB19B6E9847E30704D5044BDA6F0AB1F6
:10411000DB6F984710BD00BFA0D00440544300207F
:10412000044B054900221A600A60044A10601022FC
:104130001A60704714D0034004D0034000D00340FD
:10414000212810B518D80D4A52F8303093F8804223
:104150003CB1012211B183F8802010BD83F8002109
:1041600010BD02EBC00043681A6811B142F00302AF
:1041700001E022F002021A6010BD00BFB8A20000E8
:10418000212805D8034B53F8303093F800027047CC
:1041900000207047B8A20000212816D80B4A02EB75
:1041A000C00301295B6852F8302004D182F88012E4
:1041B0004FF4A27208E0002082F8800211B94FF497
:1041C000807201E040F203121A607047B8A200004A
:1041D00072B60B4B0B491A680B4B1B68096862B629
:1041E000490102D5322A88BF0133C2F5BB32FF3202
:1041F0006021B2FBF1F24FF47A7000FB03207047AC
:1042000018E000E004ED00E0DC43002070B5044657
:10421000FFF7DEFF05466CB140F2E736FFF7D8FF47
:10422000401BB04203D9013C04D005F57A7501F07A
:104230003DF9F3E770BDFFFF10B5FFF7F7FD164B33
:10424000164A174C00204BF6FF711860596028235E
:1042500013609360136193611362936213639363BA
:10426000092222600F4C20606160A360236144F842
:10427000042C0D4C20600D4801600D490B608B60D3
:104280000C4B1A60FFF7FCFB0420FFF7BFFFBDE8F3
:10429000104000F0FBBB00BF048003400C800340D3
:1042A000008003400490034004800B4008800B40D2
:1042B0000C800B4000800B40F0B50C4B0C4C1A7876
:1042C00042F0020504EBC50682F001027060094865
:1042D0001A700678002E0CBF8827C82747EA0141CC
:1042E00086F0010644F835100670F0BD4844002001
:1042F0000080FF1FC0440020431E032B10B510D8C0
:1043000072B6094A52F8230048B1416842F82310B6
:10431000064A018832F81340611A22F8131062B677
:1043200010BD002010BD00BF38440020F046002022
:10433000013803280BD872B6064B53F82030002002
:1043400001E05B680130002BFBD162B670470020B2
:10435000704700BF8C44002070B572B6184E194CDF
:1043600001239A1912F8012C02F00802D2B2E2B12C
:104370009900144A54F831502DB902EB4313083018
:104380005860114B09E041F0010154F8315065B912
:1043900002EBC103083058600C4B42F831300C4B33
:1043A0001A78013A1A7062B670BD0133052BD8D164
:1043B00062B6074B00221A70BDE8704000F0D2BB15
:1043C000F0A300000080FF1F88004000C8004000EC
:1043D000B6440020431E032B30B532D84001194AA1
:1043E00040F01000101872B6174CE25C032A09D88E
:1043F000DFE802F0160218050830022213E0083048
:10440000042210E01148124A50F8234014B940F831
:10441000231002E052F82300416042F823100FE01D
:10442000032200E00522E25410F0080F01F1080316
:104430000A8843600CBF8823C82343EA0243036011
:1044400062B630BD0080FF1FF44300208C44002082
:104450009C4400202DE9F74FA54EA64C357805F079
:104460000403DBB2ABB1A44B1B7883B1A34A13782E
:1044700023B1013BDBB2137003B900BEA04A13782D
:104480002BB1013BDBB213700BB900F07FFC0423AE
:10449000337005F00802D2B2002A00F08082994BF6
:1044A0001B781D094FEA930940F0FE8104EBC90314
:1044B000586854F83930C3F38303013B0C2B00F2E6
:1044C000F081DFE813F0A901A901EE01EE01EE0190
:1044D000EE01EE01EE01C501EE01EE01EE010D006F
:1044E0004368894902684B60884B894844F83930F1
:1044F000884D0A60002303600120287092B240F2C8
:104500008165AA422361A36117D8B2F5D06F80F00C
:104510002C81B2F5817F00F0DC8006D8802A00F083
:10452000C280822A40F03D81C1E040F202339A42CB
:1045300000F00C81B2F5A06F16E042F22105AA420C
:1045400000F0678108D8B2F5086F00F0A680B2F5D8
:10455000106F40F026810AE042F22120824200F0F2
:104560001C8142F221339A4240F01B811DE18A787E
:10457000614B604D1A702B6A180603D5686A0838BB
:1045800000F0F0FA644A08359542F4D1DFF8B091B2
:10459000DFF8B0B10025A846CA4655F8090005E085
:1045A0004368009300F0DEFA009B18460028F7D11C
:1045B0005A4B4AF8050045F80B00E85807E04268F6
:1045C0000093019200F0CEFA019A009B1046002859
:1045D000F5D15851524BE850524B23F81800524B2A
:1045E00018F80320023A032A08D8DFE802F0020490
:1045F0000204002200E0012203F8082008F101086B
:104600000435B8F1040FC8D1484BDFF83C910022C3
:104610001A7001259846464B05EB0902EB1812F873
:10462000012C9B001A7002F00802D2B23AB300F0DB
:104630007BFAAB0038B104EB4512083050603D4ABC
:1046400044F8332006E044F8330098F80030013392
:1046500088F8003000F068FAAB0043F0010338B18D
:1046600004EBC30208305060284A44F8332006E0C7
:1046700044F8330098F80030013388F80030AA007D
:1046800042F00201013542F003020023052D44F8F7
:10469000313044F83230BED188E0174B264D1B78BC
:1046A0002B70034685E0244D2B706B7080E08A8868
:1046B000042A00D975E0204D2B706B701F4B9200BF
:1046C000D3181B7803F00203DBB2002B70D02870E4
:1046D0006EE08A8802F07F03042B62DC4B8803B112
:1046E0005FE09100154A8A18117821F0020156E026
:1046F000802007400080FF1FBF4400204944002065
:10470000C144002090200740AC440020C800400075
:10471000E0430020C04400208080FF1F8C44002024
:104720009C440020F0460020F4430020B6440020C2
:1047300030C8011088004000B7440020C020074066
:1047400038440020E4430020F0A300008A8802F0EF
:104750007F03042B25DC4B8803B122E09100A14AA2
:104760008A18117841F0020119E04A889E4B898825
:1047700053F8085CA3F10C009DB133F80CCC9445C0
:1047800009D133F80ACC8C4505D1120A032A0CBF93
:104790002B7803890DE00C33EAE78978934A11708E
:1047A00004E0904B0F221A7033E000231D4600E016
:1047B00002238F4AB2F806904B4538BF9946B9F1AB
:1047C000400F34BFC8464FF0400828464146FFF727
:1047D00073FDB9EB0809454403D1B8F1400F07D088
:1047E00017E0B9F1400F34BFC8464FF0400800E071
:1047F000C84628464146FFF75FFDB9EB0809454426
:1048000002D1B8F1400F04D17A4B7B4A1D60A2F867
:1048100000900122794B43E0754B1A8842F2210344
:104820009A4211D1764A0023C15C99540133072B77
:10483000FAD1734B1B68862B02D1724B0F221A7070
:1048400000200146FFF738FD6F4B44F8393028E06F
:10485000684BD3F80080B8F1000F18D0DFF89891BA
:10486000B9F800A0BAF1400F34BF55464025404684
:104870002946FFF721FDC5EB0A039BB2A9F80030DA
:104880000BB9402D01D108EB05035A4A1360584B70
:104890001A88B2F5A06F04D100225A709A785B4B47
:1048A0001A700122554B6DE004EBC90803F00803B0
:1048B000D8F80420013DD9B2A2F10800EDB20029D8
:1048C00037D000F04FF95248524B50F82510F1B153
:1048D0004A6840F8252001F10802C8F804205A5D12
:1048E000032A0BD8DFE802F002040608032204E0E2
:1048F000022202E0052200E004225A5518F0080FB7
:104900000A880CBF8823C82343EA024342E05A5D69
:10491000032A07D8DFE802F040400204002206E044
:10492000012204E018F0080F0CBF022203225A559E
:1049300032E054F839301B0C22F8083C23B322F83B
:10494000061C42F8041C344A344952F8257017B941
:1049500042F8250002E051F825205060304A41F825
:10496000250032F815105B1822F8153000F0DCF83D
:1049700018B10830C8F8040006E02A4B44F83900A2
:104980001A7801321A7007E01F4B274A18F0080FF7
:1049900008BF134644F83930082333705EE5E90751
:1049A00052D516492048214C02230B70204B1A7017
:1049B000204B1860986020481A61D8609A615C604A
:1049C000084B0D2018701D48FF23037000F8083CA9
:1049D00002741B4A13701B4B9F221A7001230B7029
:1049E0004BE000BFC020074000A40000D0440020DE
:1049F000AC440020E0430020B44400209420074051
:104A0000F846002049440020C80040009820074094
:104A10008C440020F443002038440020E44300206C
:104A2000F0460020B644002088004000F8430020F3
:104A3000484400200080FF1F4C440020882007408D
:104A40008C200740842007402B0605D50C4B0D22F7
:104A50001A70802203F8402C05F00203DBB22BB160
:104A6000084B1A781A70022203F8082C05F010057A
:104A7000EDB215B1044B10221A70BDE8FE8F00BFD5
:104A8000C0200740882007408020074008B501F07B
:104A900069FB00231E491A465A50C8180833882B50
:104AA0004260F9D11B4B1A6842F480221A601A4BFB
:104AB00080221A701978184A0906FBD4144B17493A
:104AC000C3F307200870C3F307401B0E08750B766D
:104AD000FF2301F81C3C01F8143C01F88C3C1378CE
:104AE00043F0400313700021012302F8783C02F8E0
:104AF0000C1C02F8883C0A4B70226FF4507C1A7030
:104B000063444FF400721A60064B10221A7008BDFD
:104B10000080FF1F348004400C2107409C20074088
:104B200049E400E00821074072B60C4A1168B1FA66
:104B300081F30B2B02D962B6002070474FF0004082
:104B400020FA03F021EA0001116062B6044948220C
:104B50005343C8180022CA5042607047A08FFF1FFD
:104B6000008CFF1F0C4B4822C31AB3FBF2F30B2B34
:104B700011D80A4A127822B1094A12780AB1FFF70D
:104B8000EBBB72B6074A4FF0004121FA03F31168FC
:104B90001943116062B67047008CFF1FB6440020B5
:104BA000BF440020A08FFF1F38B5114C23684BB1C4
:104BB0000F4D28684288811801320C7A01888A4298
:104BC00012D30CE00B4B1B7813B94FF0FF340CE001
:104BD0000320FFF791FB20600028E9D1F5E7FFF7FC
:104BE000C1FF00232B6000E04280204638BD00BF9B
:104BF000CC440020BF44002010B50C4C23681BB1EE
:104C00000A4B1B686BB902E0094B1B7813B94FF0D4
:104C1000FF3010BD0320FFF76FFB20600028EFD1AD
:104C2000F5E75A889B18187A10BD00BFCC440020C5
:104C3000BF440020044B9888044B1B681BB11A88A2
:104C40005B88D31AC0187047F0460020CC4400207F
:104C50002DE9F8432D4B2E4DDFF8C08001220C4684
:104C60001A7006464BE02B682BBBDFF8A0904AF287
:104C7000F92798F8003013B9244A137014E004207F
:104C8000FFF756FB072808D8012389F80030FFF703
:104C90004BFF286078B989F80000013F1D4B01D017
:104CA0001A782AB101221A704FF0FF30BDE8F8835C
:104CB00000F0FCFBDDE72968164A488800231370E2
:104CC000C0F14002944238BF224600F10807801824
:104CD000CF194880A41A02E0F05CF85401339342E3
:104CE000FAD1F6184B883F2B06D940230B800420BD
:104CF000FFF770FB00232B60074B05221A70002C76
:104D0000B1D1024B20461C70BDE8F883C24400209C
:104D1000C4440020C8440020C1440020BF440020F7
:104D200007B502AB012103F8010D1846FFF790FF0C
:104D30000EBDFFFFF8B5114B1B78EBB1104E114BB8
:104D40003468114D01271F704CB1638800272F7004
:104D5000042023802146FFF73DFB376009E0FFF781
:104D6000E3FE014620B104202C70FFF733FB00E086
:104D70002F70044B00221A70F8BD00BFBF44002002
:104D8000C4440020C2440020C144002038B50D4B6B
:104D90001D78ADB90C4C216831B14B8804200B80D3
:104DA000FFF718FB256038BDFFF7BEFE014620B1B6
:104DB0000420BDE83840FFF70DBB044B01221A70F8
:104DC00038BD00BFC2440020C4440020C1440020BC
:104DD000F0B5C02928BFC02172B6124B1860124B23
:104DE00000221A605A609A60DA601A615A610126DC
:104DF0000AE0540902F01F0753F8245006FA07F797
:104E00003D4343F8245001328A42F2D100234FF44B
:104E1000817203E002FB0304637001338B42F9D11A
:104E200062B6F0BDDC440020E444002010B572B648
:104E30001E4B1868A0B9586850B9986850B9D8681E
:104E400050B9186950B95869143348B962B610BDE1
:104E5000043305E0083303E00C3301E01033FFE7CF
:104E6000B0FA80F14FF0004222FA01F220EA02008B
:104E700018600F4802780132D2B2027062B60B4855
:104E80001B1A9B105B01591A4FF481734B4309495C
:104E900003F5F9531E3309680124CC54C818064B96
:104EA0001978914238BF1A7010BD00BFE444002049
:104EB000E1440020DC440020D8440020417872B650
:104EC0000378012B02D9013B037011E04A11094B11
:104ED000C9434FF0004001F01F0120FA01F153F8DF
:104EE0002200084343F82200034B1A78013A1A7053
:104EF00062B67047E4440020E144002030B5C36846
:104F00000EE0187A90420AD158685C7A006950F82D
:104F1000245025B940F82410087801300870DB6867
:104F2000002BEED130BD437A99424FF0000305D2F9
:104F3000026952F8210042F8213070471846704744
:104F400038B5437A994201D3002418E0036953F835
:104F50002140002243F82120002CF5D02378012B9A
:104F60000DD9FFF763FF054628B10230A11C4FF4AD
:104F7000807203F00DFF2378013B23702C462046FE
:104F800038BD10B54168427A4B7A9A420ED872B653
:104F90000268D36813B9D06004E02346DC68002CB3
:104FA000FBD1D860012313720B7262B610BDFFFFF4
:104FB000074B1A784AB9074AFF211170064A4FF089
:104FC000804101201160187070470020704700BFB9
:104FD000E04400205EE400E008E100E0F8B5164B94
:104FE000164D1A6842F080721A60154B1A6842F02A
:104FF00001021A60134B2E681C680FE0237A63B11C
:1050000021682F680B68204698472A68E388D21BDE
:1050100012099A42A28088BFE2806469002CEDD117
:10502000064B094A1B689B1B1B091380074A118802
:105030008B4288BF1380F8BDFCED00E0041000E057
:10504000001000E0D4440020FC440020E244002092
:1050500030B572B609B9026822B9264A0023118810
:10506000144611E003790F2BF7D82249098841FA39
:1050700003F1C907F1D503F1007303F59063B2EBB7
:10508000431FEAD162B630BD41FA03F212F00102C9
:1050900027D1012505FA03F52943218062B6164977
:1050A00003710C6844F002040C6051F8044C44F0A5
:1050B000020441F8044C114982240C608B768B77F2
:1050C0000B76CB7703F1007303F590635B0103600C
:1050D0001A605A609A60DA601A615A619A61DA61FC
:1050E00030BD0133102BCFD162B6002202600371B4
:1050F00030BD00BF004500204080044000800040DB
:1051000003790F2B10D8094A137072B6084B027935
:10511000012101FA02F2198821EA02021A8062B61C
:105120001023037100230360704700BF1A80004002
:105130000045002008B5FBF757FEFCF759F800F0D2
:10514000B5F9FAE7F8B506460C468F18002506E0D3
:10515000336814F8011B1B68304698472D18BC4271
:10516000F6D12846F8BDFFFF07B5054B1B88ADF803
:105170000430036801A95B68022298470EBD00BF96
:10518000C8A30000F0B505468BB022B90368C9B2C8
:105190001B6898472CE0012A08BF0A2221B9302257
:1051A0008DF82520212413E02124B1FBF2F002FB2D
:1051B0001011C9B2092901D8303100E037310AAFE6
:1051C0003E1906F8241C014610B1013CE4B2ECE79C
:1051D00033B1013C0AAAE4B213192D2203F8242C9E
:1051E0002B6801AF5B6828463919C4F12202984741
:1051F0000BB0F0BD002902DA49422D2300E0002364
:105200000A22FFF7BFBF08461146FFF721BD084637
:10521000FFF786BDFFF78EBDFFF7EEBCFFF7C4BCFE
:10522000FFF708BD7047FFFF044B00221A711A7385
:10523000034A4FF47A7199601A6070470445002060
:10524000D8A3000010B5029C401AE41A4443521A35
:1052500094FBF2F0C01810BD10B50446006803F0CE
:1052600091FA204610BD38B504460D46006801315C
:1052700003F018FF10B184E82100012038BD436815
:105280008B4210B5044600D306E0FFF7ECFF20B1D7
:10529000A3680BB922681370012010BDF8B504464D
:1052A0000F46154622B9036803B11A7000230BE0BC
:1052B0001146FFF7E4FF064640B9206810B103F03D
:1052C00061FA266000236360A36004E0A5602068A3
:1052D000394604F059FA2046F8BD38B50023044693
:1052E00003604360836003730D4639B10846FEF7DF
:1052F00067FD294602462046FFF7D0FF204638BD0D
:1053000081420B4603D009689A68FFF7C7BF704710
:10531000002310B504460360436083600373FFF706
:10532000EFFF204610BD38B505460C4641B1084692
:10533000FEF746FD214602462846FFF7AFFF00E094
:10534000A960284638BD10B5002386B00446036026
:10535000436083600373084601A9FEF757FD2046AA
:1053600001A9FFF7E0FF204606B010BD70B5044666
:105370000E4685685AB155192946FFF780FF30B1AE
:105380002068A3683146C01804F0FEF9A5602046E5
:1053900070BD0B4609689A68FFF7E8BF38B5054647
:1053A0000C4639B10846FEF70BFD21460246284659
:1053B000FFF7DCFF284638BD13B5002304468DF8FF
:1053C0000410012201A98DF80530FFF7CFFF204618
:1053D0001CBD10B50446FFF7EFFF204610BD8268E4
:1053E00008B50B461AB901B103E0012008BD11B997
:1053F0000368187802E0006804F0D8F8D0F10100E2
:1054000038BF002008BD10B58B688468E41AA2423A
:105410000CD8006868B1096851B180181A4604F0C8
:1054200011FAD0F1010038BF002010BD002010BDDE
:10543000084610BD82688B689A4202D30022FFF7AB
:10544000E2BF0020704708B582688B689A420CD38F
:10545000006868B1096851B1D31AC01804F0A6F801
:10546000D0F1010038BF002008BD002008BD08466B
:1054700008BD38B50C469AB191B181688B4202D310
:105480000023237038BDCD1A013A0168954228BF28
:105490001546C91820462A4604F02AFA0023635507
:1054A00038BD006808B103F021B9704708B50E4B4C
:1054B0001A78C2B901221A70FFF7BCFB08B1FFF7D6
:1054C000B1FE00F08BF908B100F0E6FE00F0C4FB7D
:1054D00008B100F053FF00F0A9FD08B100F0C0FFD3
:1054E000014B00221A7008BD14450020194B1A68A0
:1054F00042F480621A60184A00231370174A13702E
:10550000174A1370174A1370174A1370174B40F25B
:1055100013321A604FF451725A60154BC0F3443283
:105520001A70C0F347125A700221042200F01F00C3
:1055300098729A70D9745A7588221A743C22DA705B
:105540000C4B40226FF44A711A705B184FF40052F2
:105550001A607047348004409745002016450020AB
:10556000A0450020984500201545002040A004409B
:1055700000A006402DE400E0134A937800F00301F8
:1055800003F0EC030B43410748BF43F01003937053
:1055900000F00F03042B0C4903D18B7943F0400337
:1055A0008B715379C20603F0EF03074A48BF43F0FB
:1055B000100353719379800603F0EF0348BF43F063
:1055C00010039371704700BF00A006400E4B1B688C
:1055D000580510B503D410BDFFF768FF00E00B4C71
:1055E0002378002BF8D10A4A4FF400511160094A80
:1055F0000949D37040F203120A604A60074A1370E7
:10560000074A137010BD00BF3480044015450020C8
:1056100084E100E000A0064040A00440974500203F
:105620001645002038B5094B04461D78002DFCD1E5
:1056300020460121FEF7B0FD20462946FEF780FDF9
:10564000034B53F83420034B1A6038BD1545002036
:10565000B8A200009C4500201D4B1B685A052DE98F
:10566000F041074631D51B4B1B680BB101221A7064
:10567000194B1A4D1C781A4EDFF8688001343F2C04
:1056800088BF002414E0FEF77DFB40280CDC337952
:105690001B060DD52B7801333F2B88BF002318F84C
:1056A0000320F2712B7003E0FF2801DDFFF7FEFEFF
:1056B0002B78A342E7D00B4B1F550B4B01221A70DE
:1056C000054B1C70064BBC22DA70BDE8F08100BFB0
:1056D000348004409C450020A045002098450020CF
:1056E00000A0064017450020154500202DE9F84F81
:1056F000254B1B6806465805894642D5234B1B6837
:105700000BB101221A70224DB346AA4632E0214B5A
:105710001C782F7801343F2C88BF0024A74209D081
:105720001BF8012B1C4B1A551C4B01221A70194BEC
:105730001C701FE01A4BBC22DA709846FEF722FB61
:1057400040280FDC98F8043019060FD52B78124A40
:1057500001333F2B88BF0023D25C88F807208AF8EA
:10576000003003E0FF2801DDFFF7A0FE2B78BB42ED
:10577000E4D0D5E706EB09039B45C8D3084BBC2210
:10578000DA70BDE8F88F00BF348004409C450020EB
:1057900098450020A0450020174500201545002011
:1057A00000A0064010B5044C01E0FFF77FFE23780F
:1057B000002BFAD110BD00BF15450020054B064A4D
:1057C0001B781078834201D33F3000E00138C01AC3
:1057D000704700BFA045002098450020044B187872
:1057E000044B1B78984238BF4030C01A704700BF46
:1057F0009745002016450020084B094A1978137870
:10580000994207D001333F2B88BF00230549C85C6C
:10581000137070474FF0FF30704700BF974500206E
:105820001645002057450020074B1A78074B1B7878
:105830009A4206D001333F2B88BF0023044AD05C34
:1058400070474FF0FF307047974500201645002005
:1058500057450020094B1B685B050ED5084BDA78CD
:1058600002F0CB02DA7040225A74DA7842F0340245
:10587000DA70044B1A78044B1A7070473480044075
:1058800000A00640164500209745002070B52D4B1E
:105890001A7912F0300F1DD072B6997D21B9DA79DC
:1058A00040225A7462B615E062B6274A2748127839
:1058B000274D00781C46531C3F2B88BF0023E679F8
:1058C00083421CBFEE541A46013911F0FF01F2D198
:1058D0001D4B1A701B4AD37819465BB2002B1BDA9A
:1058E0001379180618D51B4B1B4C1D781B4B1B78C6
:1058F000AB4209D001333F2B88BF00231079E05C15
:10590000D071107D0728F3D9144A13700D4B1A7902
:10591000120601D57C22DA7001F04003DBB27BB1C4
:10592000084B1A7902F04002D2B2194642B10C4B30
:1059300000221A700B4B1B6803B11A703C23CB700A
:1059400070BD00BF00A0064097450020164500200E
:1059500057450020A045002017450020984500200D
:10596000154500209C450020184B1A6842F400623F
:105970001A60174A00231370164A1370164A1370E0
:10598000164A1370164A1370164B40F213321A60FF
:105990004FF451725A60144BC0F344321A70C0F382
:1059A00047125A7000F01F000422022198729A7068
:1059B000D9745A7588221A743C22DA700B4B402233
:1059C0001A700B4B4FF400421A6070473480044049
:1059D0000B460020A2450020144600200C46002063
:1059E000A14500200CB0044000B006402FE400E0C8
:1059F00004E100E0134A937800F0030103F0EC03A4
:105A00000B43410748BF43F01003937000F00F03AE
:105A1000042B0C4903D18B7943F040038B715379EC
:105A2000C20603F0EF03074A48BF43F01003537167
:105A30009379810603F0EF0348BF43F0100393719D
:105A4000704700BF00B006400E4B1B68180510B52C
:105A500003D410BDFFF72AFD00E00B4C2378002B88
:105A6000F8D10A4A4FF400411160094A0949D3703C
:105A700040F203120A604A60074A1370074A137023
:105A800010BD00BF34800440A145002084E100E047
:105A900000B006400CB004400B460020A245002098
:105AA00038B5094B04461D78002DFCD12046012154
:105AB000FEF772FB20462946FEF742FB034B53F8E4
:105AC0003420034B1A6038BDA1450020B8A2000065
:105AD000104600201D4B1B681A052DE9F0410746B2
