:1000000000800020BD01000005480000C947000035
:10001000C9470000C9470000C9470000C9470000A0
:10002000C9470000C9470000C94700000548000053
:1000300005480000C947000005480000B947000016
:10004000054800000548000005480000054800007C
:10005000054800000548000005480000054800006C
:10006000054800000548000005480000054800005C
:10007000054800000548000005480000054800004C
:10008000054800000548000005480000054800003C
:10009000054800000548000005480000054800002C
:1000A000194100000548000005480000054800000F
:1000B000054800000548000005480000054800000C
:1000C00005480000054800000548000005480000FC
:1000D00005480000054800000548000005480000EC
:1000E00005480000054800000548000005480000DC
:1000F000054800002D67000005480000296D00003C
:10010000054800004972000005480000054800004D
:1001100005480000054800000548000005480000AB
:10012000054800000548000005480000054800009B
:10013000054800000548000005480000054800008B
:10014000054800000548000005480000054800007B
:10015000054800000548000005480000054800006B
:1001600005480000B94F00000548000005480000A0
:10017000054800000548000005480000054800004B
:10018000054800000548000005480000054800003B
:10019000054800000548000005480000054800002B
:1001A000054800000548000005480000054800001B
:1001B0000548000005480000895C0000574B4CF2E0
:1001C000205210B51A804DF628121A8000BF00BFC9
:1001D00004F01CFB524B4FF010621A60514A9A60B7
:1001E000514ADA60A3F53043203B1A6812F480725A
:1001F00004D14E490A604FF4A8521A604C4B1A7849
:10020000110703D51A7842F008021A70494B4A4C7C
:100210004A482A221A704A4A00239918A14203D256
:10022000195899500433F8E7464B474900228B424E
:1002300002D243F8042BFAE74448454900235A58B0
:100240001A500433B3F5DE7FF9D1424B424A802184
:1002500003F8011B9342FBD1404B3C4A1A60404BD0
:100260000A221A70A3F5805324225A70A0221A7011
:100270009A799207FCD59A79D406FCD4394A9379B5
:1002800003F00C03082B374BF9D105221A714322D6
:100290005A719A799006FCD5324A9179314B4906C8
:1002A000FBD5314A4FF08171116005215160202248
:1002B0001A709A7902F00C020C2AFAD12B4B2C4AB4
:1002C0001A602C4B2C4A1A6000225A60072243F80D
:1002D000042C2A4AC3F80C2D62B604F02FFD134BF0
:1002E0001B68DA0705D5264804F08AFC254B264A08
:1002F0001A60264B1B785B0609D5224C224A2368DC
:10030000934204D11E4804F07BFC0023236009F0D3
:100310003BFD04F081FA05F015FFFEE70E200540D5
:1003200030800440823F04000100002B14D00340C1
:1003300002D0074000E00740D098FF1FB4EF000054
:10034000608FFF1FD098FF1F08090020008AFF1F41
:100350000000000000E400E05FE400E008ED00E0E1
:1003600000500640004006404480044004800440A1
:10037000C010050014E000E03F190100000020203B
:1003800001EA17571CE00340A5C3945A00F0074048
:10039000FFFFFFFFFFFFFFFFFFFFFFFFFFFFFFFF6D
:1003A000FFFFFFFFFFFFFFFFFFFFFFFFFFFFFFFF5D
:1003B000FFFFFFFFFFFFFFFFFFFFFFFFFFFFFFFF4D
:1003C000FFFFFFFFFFFFFFFFFFFFFFFFFFFFFFFF3D
:1003D000FFFFFFFFFFFFFFFFFFFFFFFFFFFFFFFF2D
:1003E000FFFFFFFFFFFFFFFFFFFFFFFFFFFFFFFF1D
:1003F000FFFFFFFFFFFFFFFFFFFFFFFFFFFFFFFF0D
:10040000FFFFFFFFFFFFFFFFFFFFFFFFFEFFFFFFFD
:1004100010B5054C237833B9044B13B10448AFF33E
:1004200000800123237010BDD098FF1F0000000042
:10043000ACEF000008B5064B1BB106480649AFF308
:1004400000800648036813B1054B03B1984708BD07
:1004500000000000ACEF0000D498FF1FD098FF1FF1
:10046000000000000122014B1A707047DCA3FF1F3F
:1004700008B505F0E9FD08BD10B50446034A40F88B
:100480001C2B01F071FC204610BD00BF20E70000CE
:1004900038B5064D05F5BB442C34143D204605F017
:1004A00021FD143CAC42F9D138BD00BF34A4FF1F7C
:1004B000014A024B1A6070470400FA050CED00E097
:1004C0000F4B03604172026100230372C36039B1B4
:1004D0001946026942F823100133427A9A42F8DC45
:1004E000084B1A680AB9186004E053690BB11A4640
:1004F000FBE75061002343618380C380704700BFE6
:1005000028E50000BC06002038B50446114B036006
:100510000023437203610372C3600F4B1A680AB968
:10052000186004E053690BB11A46FBE754610025DB
:100530006561A580E5802046084B40F81C3B01F032
:1005400005FCC4F84854C4F84C54204601F01AFA8B
:10055000204638BD28E50000BC06002020E700004A
:100560002DE9F04FA3B0064601915F4FDFF894B13B
:1005700006A83146012201F037FE06A801F048FC2A
:10058000002800F0A38006A801F0F4FB014602A8B1
:1005900005F0F4FC02A8394605F0B4FD00283CD073
:1005A0000EA8524905F0EAFC02A80EA905F09EFD2E
:1005B00004460EA805F096FC7CBB584605F0BAFD33
:1005C00004464B4B1B689842C4BF494B1860DFF888
:1005D0003881484D55F8203003EB830340F2DC5955
:1005E00009FB00F909EB830AC24406A801F0C2FB2B
:1005F0000146504605F0ECFC55F824A006A801F091
:10060000E1FB0AEB8A0A09EB8A09C844C8F8100022
:1006100055F82430013345F8243006A801F0ACFB2E
:10062000002857D012A8344905F0A8FC02A812A946
:1006300005F05CFD00284FD116A8304905F09EFC5E
:1006400002A816A905F052FDD0F1010438BF00241C
:1006500016A805F047FC00E0002412A805F042FCB3
:1006600054B306A801F086FB0146584605F0B0FCDD
:100670009DF81C308DF86C30089B1C939DF824303D
:100680008DF874301E4B1A9322AB53F8630D5968E2
:100690009A68CDF87500CDF87910CDF87D201B7BD8
:1006A0008DF881300D9B21931AA8019B591CFFF7EF
:1006B00057FF1AA801F058FB06A801F09DFB02A8FD
:1006C00005F010FC06A801F04FFB51E706A801F069
:1006D0004BFB06E0002300E00123002BBCD10024EB
:1006E000BEE723B0BDE8F08FB89EFF1F30E50000E5
:1006F000D89EFF1F80A3FF1F34E500003CE50000EB
:1007000030E70000649EFF1F34A4FF1F70B505464C
:100710000E460D4C20460D492A460AF099FB20460C
:100720000AF0C8FD0A4B1B88235206EB860640F2EE
:10073000DC5303FB05F505EB86062046054B99596E
:100740000AF0ACFB204670BD9C9EFF1F44E50000F4
:1007500048E5000034A4FF1F10B504460620C4F38A
:10076000C00104F05DFA0520C4F3800104F058FADA
:100770000420C4F3400104F053FA032004F0010103
:1007800004F04EFA10BD00BF38B572B62F4B1B7F78
:1007900003F0FF0213B100212C4B197762B6002A37
:1007A00052D02B4B1A682B4B1A6072B6274BB3F9F9
:1007B0002000B3F91E20801A47F6FF72DA834FF447
:1007C00000421A8462B608F0C5FD234908F0CAFE4B
:1007D0004FF0814108F012FE0446002108F0C0FFEE
:1007E00038B120464FF07C5108F000FD08F0CCFFF6
:1007F00006E020464FF07C5108F0F6FC08F0C4FFFC
:1008000008F0C6F902460B4600204FF0804106F082
:1008100095FF04460D460022002308F0A5FC40B1D8
:100820002046294600220D4B08F066F808F0B0FC7F
:1008300007E0204629460022084B08F05BF808F044
:10084000A7FC0138FFF788FF38BD00BF5C99FF1F88
:10085000C405002030A4FF1F00FF7F470000E03FD9
:1008600008B505F067FC012814BF0020012008BD71
:1008700030B5A1B004460D46544905F001FC58B10D
:100880006846294605F098FB6846FFF7E9FF504B9C
:100890001870684605F026FB20464E4905F0F0FB2F
:1008A00020B1284605F046FC4B4B186020464B49CA
:1008B00005F0E6FB58B104A8294605F07DFB04A825
:1008C000FFF7CEFF464B187004A805F00BFB20463F
:1008D000444905F0D5FB20B1284605F02BFC424BDE
:1008E00018602046414905F0CBFB58B108A82946BD
:1008F00005F062FB08A8FFF7B3FF3D4B187008A88E
:1009000005F0F0FA20463B4905F0BAFB58B10CA8B7
:10091000294605F051FB0CA8FFF7A2FF364B1870D3
:100920000CA805F0DFFA2046344905F0A9FB58B1C0
:1009300010A8294605F040FB10A8FFF791FF304BA7
:10094000187010A805F0CEFA20462E4905F098FB45
:1009500058B114A8294605F02FFB14A8FFF780FF13
:10096000294B187014A805F0BDFA2046274905F058
:1009700087FB20B1284605F0DDFB254B186020469B
:10098000244905F07DFB58B118A8294605F014FB51
:1009900018A8FFF765FF204B187018A805F0A2FAF9
:1009A00020461E4905F06CFB70B11CA8294605F0D5
:1009B00003FB1CA8FFF754FF194B18701CA805F087
:1009C00091FA0122174B1A7021B030BD0CE60000DD
:1009D0007A9EFF1F14E60000808FFF1F1CE60000B8
:1009E000848FFF1F28E60000748FFF1F34E600008D
:1009F0008C8FFF1F48E60000788FFF1F58E600002D
:100A0000789EFF1F6CE60000FC9DFF1F80E6000043
:100A1000908FFF1F90E60000988FFF1F98E6000060
:100A2000658FFF1FC0A3FF1F30B5A1B0684600212E
:100A300005F0A4FA04A8002105F0A0FA08A8494985
:100A4000494A012301F03AFB484C9DF824302371B8
:100A50000A9BA3609DF82C30237320AB53F8535DA1
:100A600058689968C4F80D50C4F81100C4F81510FE
:100A70001B7B63760F9BE36108A801F075F92046A4
:100A800001F0C6F900285BD0254650E0284601F069
:100A9000F5F8C4B23D2C14D010A8694605F08CFAC4
:100AA00010A8214605F0CAFA0146684605F07AFA10
:100AB00010A805F017FA284601F0E0F8C4B23D2C62
:100AC000EAD1284601F0DAF8C4B20A2C2FD014A8D3
:100AD00004A905F071FA14A8214605F0AFFA014601
:100AE00004A805F05FFA14A805F0FCF9284601F007
:100AF000C5F8C4B20A2CEAD118A8694605F05CFA18
:100B00001CA804A905F058FA18A81CA9FFF7B0FE04
:100B10001CA805F0E7F918A805F0E4F9144C68469C
:100B2000214605F055FA04A8214605F051FA284659
:100B300001F04EF90028A9D10C4801F05DF909E057
:100B40000C4C23685B6820460B491A2298472046C4
:100B500005F064F904A805F0C5F9684605F0C2F986
:100B600021B030BDF8010020A0E600003099FF1F41
:100B7000A0E50000EC060020B0E6000030B589B02A
:100B8000634D644C2846214601F022FB6846294605
:100B90002246132301F092FA5F4C9DF80430237132
:100BA000029BA3609DF80C30237308AB53F8135DD0
:100BB00058689968C4F80D50C4F81100C4F81510AD
:100BC0001B7B6376079BE361684601F0CDF82368E1
:100BD0005B6820465149052298472046504B1978BA
:100BE00005F068F9204605F019F923685B6820468E
:100BF0004C490822984720464B4B19680A2200238B
:100C000005F01CF9204605F009F923685B682046C9
:100C100046490A2298472046454B197805F04AF97B
:100C2000204605F0FBF823685B68204641490A220C
:100C300098472046404B196805F03CF9204605F0DE
:100C4000EDF823685B6820463C491122984720460E
:100C50003B4B197805F02EF9204605F0DFF82368A4
:100C60005B6820463749102298472046364B197852
:100C700005F020F9204605F0D1F823685B6820468E
:100C80003249122298472046314B197805F012F963
:100C9000204605F0C3F823685B6820462D491122E1
:100CA000984720462C4B197805F004F9204605F0AA
:100CB000B5F823685B68204628490F2298472046EC
:100CC000274B196805F0F6F8204605F0A7F82368C9
:100CD0005B6820462349082298472046224B197812
:100CE00005F0E8F8204605F099F823685B6820468F
:100CF0001E490522984720461D4B197805F0DAF861
:100D0000204605F08BF8204601F076F809B030BD9A
:100D1000F8010020A0E600003099FF1F90E50000D8
:100D20007A9EFF1F98E50000808FFF1FA4E500005A
:100D3000848FFF1FB0E50000748FFF1FBCE500002B
:100D40008C8FFF1FD0E50000788FFF1FE4E50000C7
:100D5000789EFF1FF8E50000FC9DFF1FCCE6000019
:100D6000908FFF1FDCE60000988FFF1FE8E6000071
:100D7000658FFF1F2DE9F04192B00220002103F0A2
:100D800081FF0820002103F07DFF0920002103F0EE
:100D900079FF0B20012103F075FF0620012103F0EC
:100DA00071FF0520012103F06DFF0420012103F0F4
:100DB00069FF0320012103F065FF6E4B1868FFF700
:100DC000CBFC6D48052104F03FFE6C4B1A7842F0D5
:100DD00005021A706A480A2101F0D0F8F0B900241F
:100DE000674D684F684E13E00F20FFF7B5FC642095
:100DF00003F08EFF0020FFF7AFFC642003F088FFB4
:100E00000134062C04DD4FF4FA7003F081FF3E60DC
:100E100028460A2101F0B2F80028E5D0584D02A872
:100E200029465A4A012301F049F9594B9DF80C20F3
:100E30001A71049A9A609DF814201A7312AA52F833
:100E4000336D50689168C3F80D60C3F81100C3F8A2
:100E50001510127B5A76099ADA6102A800F084FF15
:100E600028464C4901F0A8F940B1FFF7DDFD4A4B97
:100E70001B782BB90022494B1A7001E0FFF77EFE68
:100E8000434B1A798DF82C209A680C921A7B8DF8B6
:100E90003420434A0A921A4652F80D4F506891681E
:100EA000CDF83540CDF83900CDF83D10127B8DF8E6
:100EB0004120DB6911930AA80021FFF751FB0AA822
:100EC00000F052FF354B1B789BB1364E341F364D28
:100ED0003C36DFF80C81142754F8041F002904DD88
:100EE00028463A46434609F005FB05F2DC55B44274
:100EF000F2D1002003F034FC2C4B1B68984205DC37
:100F00001C4B186001222A4B1A7003E00020014696
:100F100003F03AFC274B284A9361284A9361284BF7
:100F20004FF480329A61DA6109202649032203F0E6
:100F300007FE254803685B6824490A229847244B2A
:100F40001B6823B9234B12AAD31A019302E001AA0A
:100F5000D31A01931C4C2046019904F0ABFF2046A4
:100F600004F05CFF1C4B1A681C4B1A6012B0BDE801
:100F7000F08100BF5099FF1F0082FF1FE80600208C
:100F8000F80100200CED00E00400FA0548E500003F
:100F9000EC98FF1FA0E60000C0A3FF1F658FFF1F96
:100FA00030E7000080A3FF1F34A4FF1FD89EFF1F5F
:100FB000648FFF1FB10400009C99FF1F209FFF1F3B
:100FC000E49EFF1F65040000EC060020F0E6000030
:100FD000A48FFF1F4C090020C40500201C99FF1F8F
:100FE000710400002DE9F04F87B0282600252C461B
:100FF000A9462F464FF0170B4FF0140A4FF0150873
:10100000584603F0C9FA0744504603F0C5FA814434
:10101000404603F0C1FA0444162003F0BDFA05442B
:10102000013EEDD1A34B83FB0718FF17C7EB281830
:1010300083FB09274FEAE979C9EB271783FB04C231
:10104000E41783FB0513ED179B490E68C4EB2214CC
:10105000B442D8BF0024C5EB2315B542D8BF002544
:10106000964B1B680493964BD3F800B0954B1B68C6
:101070000593954B1B68E31A83EAE372A2EBE372D4
:101080000292924B1B68EB1A83EAE37CACEBE37CA5
:10109000CDF80CC008EB070040F2FF394845A8BF67
:1010A0004846DFF884A2DAF80020894B53F8223052
:1010B000009320EAE07000214FF480620B4604F0B8
:1010C00003FF844B1968844B1B68DAF8002003EB9C
:1010D000830E40F2DC5C0CFB02F202EB8E02DFF8C6
:1010E00054E27244D2F810E07C4AA2FB0EC2C2EB7A
:1010F0000E0E02EB5E0E4FEA5E2E01FB0EFE621933
:101100004A4528BF4A46B2FBF1F202FB0EF998426B
:101110001AD00499C1EB0803002BB8BF5B425B45B2
:1011200040F3AE806E4B18606E4B1A786E4B1A709F
:10113000624BC3F80080A3E0694B18606B4B1A78D0
:10114000694B1A705F4B1F60674B1B7813B101220C
:10115000674B1A70029A964208DA664BC3F8009001
:10116000654B1A78654B1A70574B1C60039B9E4267
:1011700008DA604BC3F80090614B1A785F4B1A7025
:10118000524B1D605F4802F0DFFB38B15D4802F052
:10119000BDFB003018BF01205B4B18705A4B1B7809
:1011A00013B95A4A117875E0584A1278002A70D15A
:1011B000574B1A68574B1A600122544B1A70002182
:1011C000554B1B784BB96DE04A4BC3F80090002299
:1011D000474B1A700122494B1A7000224F4B1A706C
:1011E000002964D04A4B19684A4B1B68C91A41F25E
:1011F000883291420AD94A4C23685B6820464949A3
:101200000D229847204604F009FE34E0404A126857
:10121000D31A40F21452934205D93F4B1A7882F008
:1012200001021A7027E03C4B1B7823B33E4A136837
:10123000013313603D4A1268934202DD00223A4BAB
:101240001A60394B1968224B53F82130244A12682E
:10125000934202DC013B224A13600122224B1A70A6
:101260002B4B18682B4A10601A68314B1A6000200B
:10127000C9B203F089FA264B1A68264B1A6016E0A9
:1012800005997B1A002BB8BF5B429B45FFF654AF14
:101290005AE700211D4A1370204B1B7813F0FF0FF3
:1012A0008ED19AE7124B1B78002B8DD192E707B0B5
:1012B000BDE8F08F67666666888FFF1F2099FF1F65
:1012C000688FFF1FF40100201099FF1F2899FF1F4E
:1012D00080A3FF1F908FFF1FB09EFF1F05104000CF
:1012E0001C9FFF1F8C8FFF1F648FFF1F788FFF1FB6
:1012F0001499FF1F5499FF1F789EFF1F8099FF1FAD
:10130000FC9DFF1FC89EFF1F799EFF1FB49EFF1FFD
:10131000C40500208499FF1F5899FF1FDCA3FF1FFD
:10132000EC060020FCE600005099FF1FD89EFF1F2E
:101330002C99FF1F34A4FF1F70B5914B1B6893F8C5
:10134000443013F0FF0F04D18E4B1B78002B40F07C
:1013500098818D4B1A688D4B1B68D31A8C4A126882
:101360009A4202D38B4B1B78A3B98B4B186890F829
:10137000443013F0FF0F0DD000F058FB4FF08044C5
:10138000864B1C60844B1868854B196800F002FB83
:10139000844B1C60844B1B783BB9844B1B7823B96E
:1013A000834B1B78002B00F0A580824C824B186881
:1013B0002168FFF7ABF97A4B186022687F4B1A60FF
:1013C0007B4B1B785BB9794B1B7843B96D4B1B7812
:1013D0002BB16B4B186800F0BFFB794B1860784B52
:1013E0001A6822F00F021A60654B1A68754B9A4210
:1013F0000CD1754A624B1A60724A674B1A60734A85
:10140000734B1A60734A744B1A600BE06D4A5C4B65
:101410001A606D4A604B1A606E4A6D4B1A606B4AD7
:101420006D4B1A604FF080425C4B1A60604B1B782A
:101430003BB1534B18685A4B1968002200F022FB4D
:1014400007E04F4B1868564B19685D4B1A6800F05F
:1014500019FB4FF08042534B1A604E4B1B7843B33D
:101460004B4E3368C3EBC303C3EB8313591D5B4D72
:10147000A5FB0121C9084FF0FF34554B1868B4FB98
:10148000F1F1002202F00EFB3368C3EBC303C3EBA0
:1014900083130533A5FB0325E9084F4B1868B4FBFC
:1014A000F1F1012202F0FEFA374B1A68374B1A604D
:1014B00010E04B4C464B18682146002202F0F2FA2D
:1014C000454B18682146012202F0ECFA2E4B1A68AF
:1014D0002E4B1A60384B1868FFF73EF90023324A4A
:1014E0001370324A1370324A1370274B1A683D4BFF
:1014F0001A6009E03C4B1B7833B13C4B1B781BB99D
:101500002D4B1868FFF728F91F4B1A68384B1B68DA
:10151000D31A042B05D9FFF765FD1B4B1A68344B12
:101520001A60194B1A68334B1B68D31AFA2B03D96C
:10153000154B1A682F4B1A602B4B1B7823B10B20CD
:10154000012103F06DFB0BE00F4B1968254B1B6865
:10155000C91A0B2009298CBF0021012103F060FB6F
:10156000254B1B78002B4FD0074B1A68234B1B6869
:10157000D31A272B44D80F20FFF7EEF870BD00BF19
:10158000948FFF1F988FFF1FC4050020609EFF1FD0
:10159000808FFF1F7A9EFF1F708FFF1F88E100E082
:1015A0004C9EFF1F08E100E0648FFF1F8099FF1F22
:1015B000FD9DFF1F1C9FFF1F5099FF1FB09EFF1F27
:1015C0005499FF1F9C99FF1F209FFF1FE0A3FF1F3F
:1015D0007C8FFF1F08A4FF1F6C8FFF1FCDCCCCCCCE
:1015E0005D74D105DC9EFF1F5899FF1F799EFF1F78
:1015F000E09EFF1FC4A3FF1F8899FF1F1899FF1FBC
:101600000022224B1A7070BD214B1B7803B3214B73
:101610001A6840F213539A420FDC1F4B1A681F4B93
:101620001B68D21A40F213539A4206D90122174B73
:101630001A70194B1A681A4B1A60174B1A68174B15
:101640001B68D21A134B1A600020FFF785F870BD93
:10165000114B1A68134B1B68D31A532B15D90E4B19
:101660001A68114B1B68D31A104A12689A420CD29E
:101670000F4B1B784BB10F4B1B7833B9FFF784F836
:1016800070BD01220C4B1A7063E670BD8899FF1F74
:10169000799EFF1F749EFF1FC40500208499FF1FC1
:1016A0001899FF1F30A4FF1F2C99FF1F748FFF1F75
:1016B000848FFF1F5899FF1FFD9DFF1F2DE9F84FD5
:1016C00003F014F8834C204600F040FBDFF85892FA
:1016D000204681494A4608F03DFB804C2046FEF7F3
:1016E00013FF7F4D204629464A4608F033FBDFF8BA
:1016F00088B25846FEF708FF584629464A4608F081
:1017000029FBDFF878824046012108F12402FEF728
:10171000D7FE744EC8F800604FF0FF35C8F8185077
:10172000714F3846012107F12402FEF7C9FE3E60E1
:10173000BD616E4D2846042105F12802FEF7C0FE6A
:101740006B4B2B604FF48033AB61EB612B626B62B0
:10175000684E3046012106F11802FEF7B1FE664BD5
:10176000336047F6FF73F3834FF400433384DFF8AD
:1017700010A2504601210AF11802FEF7A1FE5F4BAC
:10178000CAF80030504602F09DFA5D480460C0F887
:101790000480002404724472C46004F047FA59487B
:1017A000C0F800B0476004724472C46004F03EFAAE
:1017B0005548C0F80080456004724472C46004F06B
:1017C00035FA524807604560047201234372C460D1
:1017D00004F02CFA4E480560C0F804A0047244726C
:1017E000C46004F023FA4B480560466004724472FA
:1017F000C46004F01BFA484C2046484904F0BEFB84
:10180000204647494A4608F0A5FA464D05F2DC57FE
:1018100005F5C74808F11C0800260BE020463146B4
:1018200004F0ACFB1434AC42F8D13D4607F2DC576F
:10183000474503D02C4605F2DC55EFE73A4C002033
:101840003A49224608F086FA394D2846394904F0CB
:1018500095FB28463249224608F07CFA364D284648
:1018600000F074FA28461C49224608F073FA3348FF
:101870000821142202F038F831480221142202F023
:1018800033F8304C2268304B1A6022682F4B1A60B4
:1018900022682F4B1A6022682E4B1A6022682E4B4A
:1018A0001A6022682D4B1A6022682D4B1A6022683C
:1018B0002C4B1A6022682C4B1A602C480A2101F02C
:1018C000EFFF22682A4B1A6022682A4B1A60BDE893
:1018D000F88F00BF3099FF1F691D00009C99FF1F02
:1018E0007904000088E9000008A4FF1FE49EFF1FA0
:1018F00098E900005C99FF1F78E90000A8E9000062
:101900008C99FF1F509EFF1F7C9EFF1F8C9EFF1F08
:10191000009EFF1F109EFF1FB89EFF1F0CE70000D8
:10192000E55E000034A4FF1F608FFF1F91040000DC
:10193000649EFF1F10E70000EC98FF1FC89EFF1F6A
:101940003C9EFF1FC40500202499FF1FC4A3FF1F56
:10195000DC9EFF1F8499FF1F1899FF1FE09EFF1F49
:101960002C99FF1F30A4FF1F609EFF1FC8A3FF1FFD
:101970000C99FF1F1C99FF1F209FFF1FE0A3FF1F53
:10198000209EFF1F002380F844300364C36380F867
:1019900050347047F0B589B004460E4600F58A65AC
:1019A000284609F01BFB002839D02846314609F0AB
:1019B00023FC72B604F11C07384600F01DFA684695
:1019C00019493246012300F079FB9DF8043084F870
:1019D0002030029B63629DF80C3084F8283008ABFD
:1019E00053F8135D58689968C4F82950C4F82D005D
:1019F000C4F831101B7B84F83530079BA36368461D
:101A000000F0B2F962B6384600F002FA054638B185
:101A1000384600F0D7F9E0630023236400E0012595
:101A2000284609B0F0BD00BFF801002072B690F85A
:101A3000443013F0FF0F1CBF002380F8443062B61F
:101A4000704700BF10B5044672B61C3000F0D4F9E0
:101A500094F8443013F0FF0F0FD0002384F8443083
:101A600062B6074B1B8823B1013B9BB2044A13802B
:101A700023B95E2002F07EFA10BD62B610BD00BF31
:101A8000AC040020F0B589B004460F46154600F5B9
:101A90008A66304609F0A2FA68B9E36BB5FBF3F148
:101AA00004F11C0003FB115100F078F925640126B4
:101AB00084F8446049E02046FFF7C4FF30463946C9
:101AC00009F09AFB5E2002F03BFA214B1A880132A2
:101AD0001A8072B668461F493A46012300F0EEFAB2
:101AE0009DF8043084F82030029B63629DF80C302E
:101AF00084F8283008AB53F8136D58689968C4F817
:101B00002960C4F82D00C4F831101B7B84F83530EF
:101B1000079BA363684600F027F962B604F11C072F
:101B2000384600F075F9064678B1384600F04AF9B3
:101B30000346E063B5FBF0F1384603FB115100F0BA
:101B40002DF92564012384F84430304609B0F0BDF6
:101B5000AC040020F8010020006C70472DE9F04132
:101B600082B0074690F8443013F0FF0F60D003F0C6
:101B70009BFF804600285BD007F11C04204600F044
:101B800027F900284ED0D7F84834A3B9204607F1EA
:101B900045014FF4806200F0F9F8C7F848040023CB
:101BA000C7F84C34D7F84834002B04DABB69002B53
:101BB0003ED098473CE0D7F848340193019BB3F5F9
:101BC000807FD4BF019C4FF48074D7F84C14394403
:101BD00008F104004531224602F036FBD7F84834BC
:101BE0001B1BC7F84834D7F84C342344C7F84C348F
:101BF0003B6C23443B6404EBD47465107F2D0BD8FD
:101C00006E00C6F5807608EB450500231C46EA18F1
:101C100094800233B342FAD138464146002203F0A1
:101C2000BFFF02E0002387F84430404603F098FFEE
:101C300002B0BDE8F08100BF10B582B002AB03F87E
:101C4000011D0268546819460122A04702B010BD68
:101C500010B50446C3691BB901230371002010BDF0
:101C600000201871E06992B201F0D2FAE3691B79A1
:101C700013B101232371002010BD00BF00B583B054
:101C8000C06960B10DF10701012200F0FBFF0128DE
:101C90000CBF9DF807004FF6FF7000B201E04FF057
:101CA000FF3003B05DF804FB30B583B00446C06973
:101CB00078B10DF10701012200F0E4FF01280AD1FB
:101CC0009DF80750E069C168013901F0C1F8284664
:101CD00003E0002001E04FF0FF3003B030BD00BF53
:101CE00008B5C06908B101F0EBF808BD2DE9F04175
:101CF00004460E469046002303714FF47A728260C8
:101D00000373114B0360242008F066F8E061B8B15A
:101D10003546074606F1200E3E4628686968AA68DF
:101D2000EB680FC6103537467545F5D12868306029
:101D300004F10D0041460C2209F046FB00236376B6
:101D40002046BDE8F08100BF30E7000000220271AC
:101D50004FF47A718160027302490160C26142737B
:101D6000704700BF30E70000014B0360704700BFC1
:101D700030E700000D307047C3692BB19879012816
:101D800094BF0020012070470020704708B5C0694B
:101D900010B100F077FF08BD002008BD08B5C0698C
:101DA00028B101F055F8003018BF012008BD00200F
:101DB00008BD00BFC3690BB1D86870474FF0FF3052
:101DC000704700BFC3690BB1986970470020704726
:101DD00038B50446C36963B1FFF7F4FF05462046F2
:101DE000FFF7E8FF281A47F6FF73984228BF184606
:101DF00038BD002038BD00BF10B50446C06930B101
:101E000001F08AF8E06907F0EFFF0023E36110BDFD
:101E1000C36923B19879003018BF012070470020B2
:101E2000704700BF10B58AB004460A4600238DF8FB
:101E30000830094901918DF80A3001A82146012393
:101E400001F01CF9041C18BF012414B101A801F011
:101E500063F820460AB010BD50E7000008B52AB16B
:101E600001F0BAF9003018BF012008BD012008BDFB
:101E7000F0B40C68035D2F2B1CD101341AE000254F
:101E800063B11EE00135013407F8013F0C2D05D088
:101E900016F8013F2F2B01D0002BF3D1002353550F
:101EA000035D2F2B08BF01340C60005D003018BFAC
:101EB00001200BE00619035D2F2B08BF0025EDD094
:101EC000DDE70134137017460125E1E7F0BC7047E8
:101ED0002DE9F04F99B082460F469146984600236F
:101EE0008DF81C30244A06928DF81E308DF8403053
:101EF0000F928DF8423001930C4606AE4FF0010B65
:101F000003E00FAC234634461E46504601A902AA00
:101F1000FFF7AEFF054680F00102204602A9D2B2CB
:101F20004346C84730B9BC421CD0204600F0F4FFFD
:101F300000201EE07DB13046214602AA5B4601F03A
:101F40009DF80546BC4211D0204600F0E5FF002D6B
:101F5000D8D100200DE0BC4206D0204600F0DCFFC6
:101F6000012006E0002004E0012002E00028C8D1A2
:101F7000002019B0BDE8F08F50E7000038B50446E6
:101F80000A46012100F024FBB0B104F110052846F7
:101F90002146012201F0EAFB28B928462146002209
:101FA00001F0E4FB50B104F13800294600F040FE96
:101FB000003018BF012038BD002038BD002038BDDA
:101FC0002DE9F04F99B081469346019300238DF897
:101FD0001C30394A06928DF81E308DF840300F9231
:101FE0008DF8423006A8103100F022FE5C460FAE9C
:101FF00006AD4FF02F084FF0000A2CE023782F2B6E
:1020000001D1013427E03F1BFFB20C2F28BF0C2762
:1020100002A821463A4609F0D7F918AB3B4403F829
:1020200058AC304600F078FF3046294602AA01231A
:1020300001F024F840B9002389F804301E4AC9F899
:10204000002089F8063032E03C44284600F064FF66
:102050002B4635461E462046414608F045FF0746BA
:102060000028CBD1CBEB0404019B1C602B7989F8B1
:102070000430114BC9F800306B7989F80530AB7921
:1020800089F80630AB68C9F80830EB68C9F80C303D
:102090002B69C9F810302B7D89F81430AB69C9F869
:1020A0001830EB69C9F81C302B6AC9F82030484653
:1020B00019B0BDE8F08F00BF50E70000F0B5A7B041
:1020C000044615461F4602A801ABFFF779FF0199A8
:1020D0006E18695C19BB9DF80C308DF85430344B88
:1020E00014939DF80D308DF855309DF80E308DF815
:1020F0005630049B1693059B1793069B18939DF8E7
:102100001C308DF86430089B1A93099B1B930A9B23
:102110001C93204614A9274AFFF7E8FD45E000215B
:102120008DF83010224B0B938DF832109DF80E3045
:102130001BB92046FFF70AFE37E00BA802A932467A
:102140003B4600F09BFF18B92046FFF7FFFD2CE04F
:1021500002A800F0E1FE17F0060F03D00BA81199BA
:1021600000F076FE9DF830308DF87830104B1D93DE
:102170009DF831308DF879309DF832308DF87A3015
:102180000D9B1F930E9B20930F9B21939DF8403036
:102190008DF88830119B2393129B2493139B2593D6
:1021A00020461DA93246FFF7A1FD204627B0F0BD0D
:1021B00050E7000048E5000008B500F13803084684
:1021C0001946024A0023FFF783FE08BD251E0000C2
:1021D00008B500F1380308461946024A0023FFF704
:1021E00077FE08BD5D1E0000F0B59FB006460D46A7
:1021F000174649E09DF810401CB93046FFF7A6FD90
:102200004BE0E52C40D02E2C3ED09DF81B1011F059
:10221000080F39D100238DF83430214A0C928DF803
:10222000363004A8694600F0A3FC0CA8E9696A46A8
:102230003B4600F023FF18B39DF834308DF858303A
:10224000174B15939DF835308DF859309DF8363081
:102250008DF85A300E9B17930F9B1893109B199370
:102260009DF844308DF86830129B1B93139B1C9390
:10227000149B1D93304615A96A46FFF737FD0CE005
:102280003046FFF763FD08E0E86904A900F098FD17
:102290000028AFDC3046FFF759FD30461FB0F0BDD7
:1022A00050E70000084B00225A719A719A721A7313
:1022B0000221196183F8302083F83C200349996397
:1022C00083F83E20704700BFF801002050E700006F
:1022D000084B1A6842F480621A604FF00042DA62DA
:1022E000FF225A631A46D36A002BFCDA014B986B23
:1022F000C0B2704700C0024010B50446164A174BE2
:102300001A6010F0010F02D0FFF7E2FF013C052C2C
:1023100004D9032100231148114A02E06108F9D1D0
:1023200004E04263023C01338B42FADB4CB10B4ABE
:102330000B48D36A13F0F00FFBD05063936B023C51
:10234000F7D1002907DD054AD36A13F0F00FFBD05F
:10235000936B0139F8D110BD00041F8000C002400A
:10236000FFFF0090064B1A6842F480621A604FF03B
:102370000042DA6258631A46D36A002BFCDA7047CF
:1023800000C0024008B505281ED8DFE800F00308A9
:102390000D1115194FF038420E4B1A6017E04FF02F
:1023A00038420C4B1A6012E00B4A0A4B1A600EE0DE
:1023B0000A4A084B1A600AE0094A064B1A6006E00E
:1023C000084A044B1A6002E0074A024B1A6001F007
:1023D0006DFD08BD58020020000002B80000023860
:1023E00001100138010002380540013808B50079B4
:1023F000012102F015FC114B1B78F3B100220F4BA9
:102400001A700F4B1B78C3B113F0010F03D00D4BA3
:102410001A680D4B1A600A4B1B7813F0020F03D099
:10242000084B5A68094B1A60054B1B7813F0040FD0
:1024300003D0044B9A68064B1A6008BD5C0200206A
:10244000C8040020BC04002000E100E004E100E03A
:1024500008E100E010B5244B1B78002B3ED101228F
:10246000214B1A70214B1A68214B1B78002B28D066
:1024700072B61F4B1B7813F0010F07D01D4B1C6861
:102480001D49096821401D4C21601960184B1B78BB
:1024900013F0020F07D01A4B1C68174949682140F6
:1024A000164C61601960124B1B7813F0040F07D0B3
:1024B000144B1C68104989682140104CA1601960B8
:1024C00062B6114BDB68934208D00F4B0F4919607D
:1024D000DA6042F080421A610D4A1A6000790021E8
:1024E00002F09EFB10BD00BF5C02002058020020DD
:1024F000C804002080E100E0B0040020BC040020FB
:1025000084E100E088E100E000C0024001401F00DB
:1025100000001F8038B5044683797BB1008940F202
:102520000123984205D840F20225281AFFF7E4FE5D
:1025300025812046FFF75AFF0023A37138BD00BF55
:1025400070B50E46084B1C681D46A4B2FFF7C0FECE
:10255000FF2805D02B689BB21B1BB342F6DB01E0C2
:10256000012070BD002070BDC4050020F8B50546EF
:102570000F461646FFF7CEFF2846FFF76BFF2846AB
:102580004FF49671FFF7DCFF47F04000FFF7EAFEDB
:10259000182426FA04F0C0B2FFF7E4FE083C14F158
:1025A000080FF6D127B1082F0CBF8720FF2000E0CD
:1025B0009520FFF7D7FE0024FFF78AFEE87210F09F
:1025C000800F03D00134B4F5807FF5D1F8BD00BF92
:1025D0002DE9F04F83B00446019100230373837209
:1025E000837143710271824B1F68BFB21046012193
:1025F00002F016FB2079012102F044FB2079012131
:1026000002F00EFB7B4B1A6842F480521A600620DF
:10261000FFF7B8FE784B1A68784B1B78002B28D050
:1026200072B6764B1B7813F0010F07D0744B186805
:102630007449096801407448016019606F4B1B7848
:1026400013F0020F07D0714B18686E4949680140BA
:102650006D4841601960694B1B7813F0040F07D077
:102660006B4B186867498968014067488160196049
:1026700062B6684BDB68934200F0AB80654B6649FD
:102680001960DA6042F080421A61644A1A60A0E080
:102690002846FFF767FE013E16F0FF06F8D1574BBC
:1026A0001B78C3B113F0010F03D0574B1A685C4B72
:1026B0001A60524B1B7813F0020F03D0524B5A682A
:1026C000584B1A604D4B1B7813F0040F03D04E4B40
:1026D0009A68554B1A602046FFF7BCFE4FF0000881
:1026E000DFF80C9109E0D9F80030DB1B9BB2B3F5A1
:1026F000FA6F02D90123637167E0204641464246E2
:10270000FFF734FF0546E0720128ECD1204608218E
:102710004FF4D572FFF72AFF10F0040F02D0012307
:10272000237310E04FF00408FFF7D2FDE07208F1C8
:10273000FF3313F0FF08F7D1AA2802D002236371F8
:1027400043E002232373237B022B14BF4FF0000AC4
:102750004FF0804A4FF037094FF00008DFF890B093
:1027600009E0DBF80030DB1B9BB2B3F5FA6F02D94E
:102770000823637129E0204649464246FFF7F6FEEA
:10278000204629215246FFF7F1FEE0720028E8D1E9
:10279000237B022B11D120463A210022FFF7E6FECF
:1027A00010B10623637110E0FFF792FD00F0C00046
:1027B000C02811D1032323730EE02046FFF716FE35
:1027C0000198FFF7DFFD2E460DE02046FFF70EFED5
:1027D00009E00A26FF255BE7FFF77AFDFFF778FDA2
:1027E000FFF776FDE9E7304603B0BDE8F08F00BFA4
:1027F000C40500203C80044058020020C80400208A
:1028000080E100E0B0040020BC04002084E100E08E
:1028100088E100E000C0024001401F0000001F806E
:1028200000E100E004E100E008E100E070B50446EA
:102830000E4B1D681E46ADB208E033689BB25B1BB1
:10284000B3F5967F02DD0F23637108E0FFF740FDCB
:10285000E072FF28F1D0FE2806D00D2363712046D8
:10286000FFF7C4FD002070BD012070BDC40500202D
:10287000F8B505460C4617461E46002B00F0898029
:102880001344B3F5007F7FDC83792BB103688B425F
:1028900002D10389934216D92C602B7B032B18BFDE
:1028A0006402284611212246FFF760FE10B103237F
:1028B0006B7169E02846FFF7B9FF002864D0002358
:1028C0002B810123AB713846FFF716FD3046334AA2
:1028D000334B1A6016F0010F07D0069A541CFFF70D
:1028E000F7FC069B1870701E0694052804D9032770
:1028F00000232B492B4A02E04708F9D103E04A6341
:1029000001339F42FBDCA0EB4700069A1044824251
:1029100019D214462249DFF88CC0CA6A12F0F00FAF
:10292000FBD0C1F834C08B6BC3F3072222706370F5
:102930000234A042F1D8069AD343034423F00103A2
:1029400002331A44069200EB4700069B98420DD9C9
:102950001C461349CA6A12F0F00FFBD08B6BC3F30D
:102960000722227063700234A042F3D82B893344CB
:102970009BB22B81AA7A12B1B3F5007F0BD3284604
:10298000FFF7C8FD0120F8BD2846FFF72FFD002006
:10299000F8BD0120F8BD0120F8BD00BF00041F8074
:1029A00000C00240FFFF009000B583B000920022FB
:1029B0004FF40073FFF75CFF03B05DF804FB00BF4A
:1029C000F8B50646214B186840F4806018604FF057
:1029D0000040D8625963114602F500770446DA6A6E
:1029E000002A0FDBFBE7DA6A002A14DBFBE7D36A75
:1029F000002B1CDBFBE7112373713046FFF7F6FC5D
:102A00000020F8BD08460A781D6845F480651D6001
:102A1000DC625A63E7E742781D6845F480651D6013
:102A2000DC625A630231B942D9D1084ADFE7FF209C
:102A3000FFF798FCFF20FFF795FCFFF749FCF072C9
:102A400000F01F000528D6D10120F8BD00C00240CB
:102A500038B5044615460B4611B9122343712BE0D5
:102A6000027B032A18BF4B0218211A46FFF77EFD8E
:102A700010B1042363711FE02046FE212A46FFF7B0
:102A80009FFFC8B120464FF41671FFF759FD10B9EA
:102A90001523637110E020460D210022FFF766FD2B
:102AA00010B9FFF715FC10B11423637104E0204640
:102AB000FFF79CFC012038BD2046FFF797FC002063
:102AC00038BD00BF014A024B1A607047000002384F
:102AD0005802002010B50446006A012104F10802E2
:102AE00000F0BAFD034650B1E3693BB9A368E36166
:102AF000637963F07F036371012300E001231846CB
:102B000010BD00BF70B50646FFF7E4FF0346E0B115
:102B1000336AB268023A197C02FA01F55A6915441F
:102B20001C794CB1013D281900F0CCFC034660B182
:102B3000013C14F0FF04F6D1336A1B7C4FF40072A1
:102B40009A40B3691344B3610123184670BD00BFB6
:102B500010B50446006900F091FC20B1207D034BC4
:102B600003EB401010BD002010BD00BF6C02002020
:102B700070B400231A462E26C45C202C09D0DCB287
:102B8000082C02D1541C8E54E2B2541CC55C8D54E6
:102B9000E2B201330B2BEFD100238B5470BC704792
:102BA0002DE9F00100232022CA5401330B2BFBD165
:102BB0000138002507264FF008084FF00A0C1B4F7C
:102BC00021E02E2C01D03A4606E00A2E24D04546BC
:102BD000664618E0A34221D012F8013F002BF9D13C
:102BE000AE421DD3A4F12103DBB25D2B1AD86B1CBE
:102BF000DBB20D44A4F16102D2B2192A9CBF203C81
:102C0000E4B22C701D4610F8014F002CD9D1087881
:102C1000203818BF012006E0002004E0002002E078
:102C2000002000E00020BDE8F001704757E70000F9
:102C300038B504460D4683790BBB91F82020102A45
:102C400007D1022383710023C3614B8C5B01836135
:102C50000CE0202A14D103238371496AC1612846FC
:102C600004F1180200F084FC034648B125620123F8
:102C700063710022A260E2602261227500E00023FD
:102C8000184638BD2DE9F04F85B0044688460392BA
:102C90008379002B69D0437913F0010F68D08269E2
:102CA000C368D11A0398884201D98BB20393039B5E
:102CB000002B57D01E46DFF8FCA0DFF8FC90DFF8B1
:102CC000FCB0E368C3F30807A279022A04D1226AA0
:102CD000516A01EB53211BE0206A0579013D05EAA9
:102CE0005325EDB25FB955B913B9E369A36006E0A6
:102CF000224652F8081F00F005FC00283BD0226A4B
:102D0000A368023B117C03FA01F152691144294482
:102D1000C7F500739E42C6BF1D46ADB23546637906
:102D200013F0400F02D1B5F5007F39D1D9F800304A
:102D300099422AD134E0A8440DE0574478198742DB
:102D400009D03B46424613F8011B02F8011B83429F
:102D5000F9D1C71BB844E3682B44E360761BB6B2D5
:102D6000002EAED1039B98B20DE04FF6FF700AE043
:102D70004FF6FF7007E04FF6FF7004E04FF6FF706C
:102D800001E04FF6FF7000B211E0CDF80080DBF8F3
:102D900000003A462B46FFF76BFD0028CBD1EDE74C
:102DA0000846002100F06AFB0028C6D1E9E705B01B
:102DB000BDE8F08F6C0200209C8FFF1F680200208E
:102DC00070B505460C468379012B1CD9C36813F0F6
:102DD0001F0F1AD1202609E0237883B1E52B05D0F7
:102DE0002E2B03D0E37A13F0080F10D0284621468B
:102DF0003246FFF747FFC0B243B2202BECD040F37E
:102E0000C011C8B204E0FF2002E0FF2000E0202053
:102E100040B270BD30B583B004468379012B0FD921
:102E2000C5680DF107010122FFF72CFF012809D128
:102E3000E3681F33E36005F4F070044B184402E0CC
:102E4000002000E0002003B030BD00BF6C02002075
:102E5000F8B504460F4683797BB382698A422BD347
:102E6000022B02D1E160012327E021B90023836016
:102E7000C360012321E0C368026A157C09355A1E2C
:102E8000EA40013921FA05F5AA4200D813B9E369ED
:102E9000A3600AE0AD1A08E0206AA168324600F09B
:102EA00031FB013D034610B907E004F10806002D8F
:102EB000F2D1E760012300E000231846F8BD00BF0F
:102EC00038B50446807918B394F90530002B1BDA25
:102ED00020460121FFF73CFE0546C0B1A379012B36
:102EE0009CBFA369C361A38B4383E38B8382094B9C
:102EF0001B682BB1183005F1160198472B8B6B829C
:102F0000637903F07F03637100F08CFA38BD002011
:102F100038BD00BF6002002010B50446FFF7D0FFA7
:102F2000034610B10023A3710123184610BD00BF52
:102F3000F0B583B004460D468379012B4ED142791A
:102F400002F0020202F0FF01002A49D08269AA427F
:102F500048D3002A47D0C6682946FFF779FF0346C1
:102F6000002840D04DB9206AE16900F0D9FB034642
:102F7000002838D00023E3611DE0206AA16801AA7F
:102F800000F0C0FAA8B1206A019990F820704FF6BD
:102F9000F872164B102F08BF134699420BD200F05F
:102FA000BFFB30B1206AA1686FF0704200F00CFBEB
:102FB00008B9002317E0A561637963F07F036371AB
:102FC0002046FFF77DFF034668B12046B54234BF77
:102FD00029463146FFF73CFF034604E0002302E0A8
:102FE0000B4600E00023184603B0F0BDF8FFFF0FCA
:102FF00038B5044615461F4B03EB4113DA7A12F03D
:10300000110F02D015F0420F2CD121751A4A126807
:103010002261998A0904E1615A8B1143E161D87AEE
:1030200010F0180004D1DB69A3610123A3710AE049
:10303000102819D1206A04F1180200F099FA034609
:10304000A8B10423A37105F00F0363710023A360EB
:10305000E36015F0400F09D020461946FFF768FFDE
:10306000034604E0002302E0002300E001231846A9
:1030700038BD00BF6C0200209C8FFF1F2DE9F04F70
:1030800085B005460C469A468679002E7FD11046BB
:1030900001A9FFF785FD00287BD0236A2B6200275A
:1030A000A760E760DFF8FC904FF0010825E0C1F36E
:1030B000431B2046FFF7AEFE014600286AD0037886
:1030C0000BB1E52B09D12FB985F814B0D9F8003030
:1030D0002B6147460B7883B913E001A80B2207F058
:1030E00027F950B90AF03003302B53D028465946FF
:1030F0005246FFF77DFF06464CE0E168A36999421E
:10310000D5D30AF01203122B44D137B1284601213E
:10311000FFF71EFD044660B93CE0A379022B39D0CD
:103120002046FFF7EFFC0646002833D000232B751E
:103130001A4C20460021202207F08EF901AB03CB68
:10314000206061601A889B782281A372144B1B68EF
:103150002BB104F1100004F10E01984707E0212380
:103160002374282363740023A3730823E373238A3F
:1031700063822383E389E38200F054F9064648B171
:103180002846297D5246FFF733FF064602E0002617
:1031900000E00646304605B0BDE8F08F6C02002026
:1031A000600200209C8FFF1F10B504460021FFF72E
:1031B000BFFE034668B120460121FFF7C9FC38B1C4
:1031C000E52202700023A37100F02CF9034600E011
:1031D0000023184610BD00BF10B58AB004460A4649
:1031E00000238DF80830094901918DF80A3001A8B3
:1031F00021460223FFF742FF034618B101A8FFF75B
:10320000D3FF034618460AB010BD00BF50E70000C8
:103210002DE9F04F85B00446884601928379012B51
:1032200040F0BE80437913F0020F00F0B98013F034
:10323000040F08D08169C3688B4204D0FFF708FEF1
:10324000002800F0AD80019A002A00F08C8016461C
:10325000DFF8B0A1DFF8B0B1206AE76890F8049019
:1032600009F1FF3909EA5729C7F3080719F0FF09DF
:1032700029D1002F40F0AA80A16851B9E36933B980
:103280002046FFF727FC002840F08E8088E0A360EE
:103290008AE003AA00F036F9002800F0A880039B1A
:1032A000226A92F820004FF6F871524A102808BF9F
:1032B0000A46934205D32046FFF70CFC002873D141
:1032C0006EE0A36070E0C7F50075ADB2AE4238BFE6
:1032D0003546A368023B027C9340426913449944FB
:1032E000B5F5007F12D1DBF800304B4504BF4FF03D
:1032F000FF33CBF80030404B186849464246FFF791
:10330000A7FB00284CD008F5007824E07FB9E268DC
:10331000A3699A420BD300F085F8002840D0CBF87F
:103320000090364A137843F00103137005E04846D5
:10333000012100F0A3F8002832D0574478198742C1
:1033400009D03B46424612F8011B03F8011B834299
:10335000F9D1C71BB844761BB6B2E3681D44E560DB
:10336000002E7FF479AFE368A269934205D9A36187
:10337000637963F07F03637108E0214B1B682BB115
:10338000019B1BB1637963F07F036371637913F071
:10339000080F03D02046FFF793FD08B1019826E0FF
:1033A00001232371002022E0B6F5007F34BF3546AB
:1033B0004FF40075236AA268023A197C02FA01F9F7
:1033C0005B699944B5F5007FA1D18CE7C7F500751D
:1033D000ADB2AE4238BF3546A368023B027C03FA69
:1033E00002F943699944B5F5007FA0D17BE705B0A8
:1033F000BDE8F08FF8FFFF0F680200206C0400208A
:10340000600200206C0200209C8FFF1F00B583B07B
:1034100002AB03F8011D19460122FFF7F9FE03B0C4
:103420005DF804FB08B5104B1B78D3B10F4B18683F
:103430000F4B19680F4AFFF70BFB034690B10E4B79
:10344000196849B1094B18680A4AFFF701FB03469E
:1034500040B10022084B1A600022034B1A7001236E
:1034600000E00123184608BD6C040020680200201B
:103470009C8FFF1F6C0200206402002038B50446B8
:103480000D460C4B1B6883420DD0FFF7CBFF034664
:1034900070B1094B18682146084AFFF785FA0346C0
:1034A00030B1044B1C60064B1A7815431D70012384
:1034B000184638BD9C8FFF1F680200206C02002058
:1034C0006C04002010B50446FFF7ACFF034680B142
:1034D00009494B1E01F2FF11002203F8012F8B4214
:1034E000FBD1064B1C60064B1A7842F001021A70A1
:1034F0000123184610BD00BF6C0200209C8FFF1FE7
:103500006C04002070B504460D461646C3680133AE
:103510008B4225D3C36990F82020102A0CBF080ADB
:10352000C8091844104B1B68984204D00021FFF7CB
:10353000A5FF0346A8B194F82030102B06D1EDB2B8
:103540000A4B33F81530336001230AE005F07F059C
:10355000064B53F8253023F070433360012300E01D
:103560000023184670BD00BF9C8FFF1F6C02002017
:103570002DE9F04383B0044602AE46F8041D91469F
:1035800000254FF400780F4F204601993246FFF78F
:10359000B9FF034688B1237C08FA03F31D4494F86D
:1035A00020104FF6F873102914BF39461946019BB5
:1035B0008B42E9D3C9F800500123184603B0BDE897
:1035C000F08300BFF8FFFF0FF8B504460D4617461D
:1035D000012931D9C368013399422FD8C36990F8C2
:1035E0002020102A0CBF0E0ACE091E44164B1B6861
:1035F0009E4205D030460021FFF740FF034600B34E
:1036000094F82030102B04D1EDB2104B23F8157034
:1036100004E005F07F050D4B43F825700C4B1A783C
:1036200042F001021A70237E012B09D9A3681E44BF
:10363000084B1E60012304E0002302E0002300E0A9
:1036400001231846F8BD00BF9C8FFF1F6C020020AD
:103650006C040020640200202DE9F04F85B006467E
:103660008A46009217681FB101370023019305E0D5
:103670000768012914BF002301230193F36803F1B4
:103680000108DBB13C4600254FF00209CB46A045BE
:103690003CBF4C465F463046214603AAFFF732FF47
:1036A00060B1039B0BB1671C03E0631CDB1B53453C
:1036B00006D001350134F368AB42E8D800232AE094
:1036C000304621466FF07042FFF77EFF034648B94F
:1036D00021E0651E304629462246FFF775FF034666
:1036E00018B918E0BC42F4D803E0BD4201D92C4619
:1036F000EFE7009B196829B130463A46FFF764FFAF
:10370000034640B1009B1F60019B1BB1013737602E
:10371000012300E00123184605B0BDE8F08F00BF8B
:10372000F0B583B005460C460223036000260E4F19
:103730002846214601AAFFF7E5FE80B1284621462A
:103740003246FFF741FF50B1019C95F820104FF62B
:10375000F873102918BF3B469C42E9D301E00020D2
:1037600000E0012003B0F0BDF8FFFF0FF8B50546FB
:10377000494B19601446DAB1042A7FD8002001466B
:10378000FFF77CFE0346002800F08380434B03EBE9
:10379000041494F8AE3104F5D47413F07F036FD1A0
:1037A000D4F81210632974D9D4F80E400CB970E023
:1037B000002420460021FFF761FE0346002868D060
:1037C000364BB3F80B30B3F5007F5BD1334B1B7C2A
:1037D000002B5ED0314AD289002A55D02F4A517B26
:1037E000002953D02B76297100232B74012003E08C
:1037F0005A1C2A74072B4BD82B7C1E4600FA03F266
:103800009142F5D1254BD98A01B9596AA960234B58
:10381000DA892244EA61B3F8110087B268841B7C1C
:1038200003FB01236B627A0102F2FF1203EB6223B6
:103830006B611A4AB2F813200AB9184A126AE31ADD
:10384000134423FA06F6EE6040F6F4739E4204D861
:103850000C2385F8203001231BE04FF6F4739E42C1
:1038600004D8102385F82030012312E00B4BDB6ACB
:103870006B62202385F8203001230AE0002308E052
:10388000002306E0002304E0002302E00B4600E0F2
:1038900000231846F8BD00BF680200206C0200201B
:1038A00038B504460D1E02DC0023036019E0B5F1B3
:1038B000FE5F0DD8A8000DE0226842F82310013306
:1038C000AB42F9D1012323730023A360236108E0F5
:1038D0004FF0FF3002F03EFC206065600023194687
:1038E000EAE7204638BD00BF38B504460D464260C1
:1038F00000238360044B1B680360084601F0B4F9A1
:1039000020736573204638BDC4050020007B7047D6
:1039100010B50446407B01F0A7F9237B83420CD00D
:10392000084B1A682368D21A63689A4207D3054B7A
:103930001B6823602073012010BD002010BD0020F3
:1039400010BD00BFC405002010B50446FFF7E0FF1E
:10395000034620B10023A3600123A37311E0A268F2
:103960006AB1094908682168411A8A4207D8064B9A
:103970001B6823600023A3600123A37301E00022DE
:10398000A273184610BD00BFC4050020F8B5064656
:10399000002102F01BF90746B8B1031D00F582753E
:1039A000B6F91E40B6F9201033F9022B9442A8BF95
:1039B00014469142B8BF11469D42F5D8F483318434
:1039C00001233377384602F0CBF8F8BD2DE9F04FEC
:1039D00083B0019084693CB9002102F0F7F8002817
:1039E0005AD002F0BDF857E0B4F1FF3F0FD1019873
:1039F000002102F0EBF8044600284DD00198214642
:103A0000002202F0CDF8204602F0AAF844E0019826
:103A1000002102F0E7F8804600283DD0019BD3F852
:103A20001CC093F8209000231D4F9B464FF0FF3A97
:103A30004E46200EC4F30F2108EB0302B2F90450E6
:103A4000C1F5803E37F91090013037F9100001FBC5
:103A500000F109FB0E11091401FB05F1C913918056
:103A600026B1E243944506D2644407E0A44504D25B
:103A7000CCEB040402E0544600E05C460233B3F5AC
:103A8000807FD6D1019B9C6118464146002202F0FE
:103A900087F8404602F064F803B0BDE8F08F00BF3D
:103AA00068E7000072B6836913B90123836105E0FA
:103AB000B3F1FF3F04BF6FF001038361C16180F880
:103AC000202062B6704700BF10B5044602F078F9B6
:103AD000204610BD08B503480349044A06F03AF9E8
:103AE00008BD00BF70040020C93A0000608FFF1FAE
:103AF00008B503480349044A06F02CF908BD00BF85
:103B000078040020C93A0000608FFF1F2DE9F843B8
:103B10008146804600263746F7B94846314602F0CE
:103B200061F80746002853D0D8F81810B1F5803F47
:103B30004ED0031D00F582741A6831FB02F031FB90
:103B400012F200F30F0002F30F02C0EA024243F840
:103B5000042B9C42F0D83BE04846314602F036F850
:103B60008446A8B33B1D051DD8F8184007F5827E92
:103B7000B4F5803F16D107F10C040C3054F8082C32
:103B800050F8081C92FA11F244F8082C5A6850F8C0
:103B9000041C92FA11F25A600833083408309E452A
:103BA000ECD812E055F8042B34FB02F034FB12F28F
:103BB00000F30F0002F30F02C0EA0242196892FA02
:103BC00011F143F8041B9E45ECD8604601F0C8FF94
:103BD000013608F10408042E9ED13FB1484639460B
:103BE000002201F0DDFF384601F0BAFFBDE8F8839E
:103BF00008B5002101F0EAFF0246A0B172B60A4BF7
:103C0000186810B91A6062B608BD084B1B681BB96A
:103C1000064B1A6062B608BD03490B60034B1A607D
:103C200062B601F09DFF08BD9004002080040020D2
:103C300038B51C4B1A68126819791B4B19701B4B4D
:103C40009A4206D2A3F5807404F5807304F50074DB
:103C500002E0174B03F58074164A106898B1021DF4
:103C600047F6FF7532F9021B2944091123F8021B9C
:103C70009C42F7D801F074FF0F4B1A680D490A6097
:103C800000221A6005E040F2FF7223F8022B9C42EA
:103C9000FBD80A4B1B781BB14FF08042084B1A60CF
:103CA00038BD00BF840400201F8000401488FF1F1F
:103CB0001487FF1F90040020800400208C04002043
:103CC00008E200E070B54F48012102F01BF84E4BAE
:103CD0001A6842F480521A60802203F5032303F627
:103CE000F5731A700024494E01253480284601F0EE
:103CF0000FF80834A4B223B2B3F5006FF5D1444BEA
:103D00001B6813F4800F16D0424B1A6848F6A27352
:103D10001A409A420FD1404B1A6840F22F339A4210
:103D200009D13E4B1B68012B05D13D4B1A6840F26F
:103D300001139A4217D0364B1A6842F480021A6077
:103D40000122A3F59033303B1A6040F22F32083B3A
:103D50001A60043B48F6A3721A60324A1A6040F2B5
:103D6000011210331A60274C23681A6800222E496A
:103D700019602368022119715A7101209871D87154
:103D800019725A729A72DA721A736FF001015973CA
:103D90004FF0FF319973D97319691C4919611A756C
:103DA0005A75D98A4FF48071D9821A765A769A76E2
:103DB000DA76D88BD983998B06219983237903F1FD
:103DC000804303F504331A70B0221A7001F046FFE5
:103DD000164B18702279164B1A70227902F11001D5
:103DE0001448154B43F8210053119B0003F1604325
:103DF00003F5614302F01F02012101FA02F21A6089
:103E000070BD00BF840400202C80044000C00C4022
:103E10003C80044000600340046003400C600340A9
:103E200010600340A28F01001487FF1F8C04002044
:103E30001B800040313C0000008AFF1F08B503488A
:103E40000349044A05F086FF08BD00BF8404002032
:103E5000C93A0000608FFF1F08B503480349044AB0
:103E600005F078FF08BD00BF94040020C93A0000A7
:103E7000608FFF1F08B503480349044A05F06AFF35
:103E800008BD00BF9C040020C93A0000608FFF1FDE
:103E900008B503480349044A05F05CFF08BD00BFAC
:103EA000A4040020C93A0000608FFF1F184B1A6855
:103EB00042F480521A60174B174A1A60174ADA60A8
:103EC00002F180421A61164A1A60164B1B7813F0F1
:103ED000010F07BF4FF41072134B4FF40072134BD6
:103EE0001A60104B1B7813F0020F4FF400720CBFD6
:103EF0000F4B104B1A600B4B1B7813F0040F07BFCE
:103F00004FF410720C4B4FF400720C4B1A60704758
:103F10003C80044000C0024001401F0001100038F6
:103F200000001F80E806002018B0044008C00440CC
:103F30001CB004400CC0044014B0044004C0044051
:103F400030B45E2810D84309084A012101FA03F56C
:103F500014782C431470064A00F01F00814052F878
:103F600023400C4342F8234030BC7047C804002073
:103F7000B00400205E2815D8430900F01F0001227C
:103F800002FA00F0084A52F8231021EA000042F831
:103F9000230038B9054A012101FA03F3117821EA17
:103FA00003031370704700BFB0040020C804002052
:103FB0000B4B1B7813B90B4B1B7873B10A4B1B7857
:103FC000202B03D90123037100207047581C064A97
:103FD0001070064AD154012070470020704700BF7E
:103FE00032050020F404002033050020D004002016
:103FF000704700BF024B1878024B1B78C01A7047FD
:104000003105002030050020074B1B78074A127845
:104010009A4205D9591C044A1170054AD05C704770
:104020004FF0FF30704700BF300500203105002001
:10403000F8040020054B1B78054A12789A4286BF87
:10404000044AD05C4FF0FF30704700BF30050020BD
:1040500031050020F804002008B5104BDB7813F080
:10406000200F0CD1122000F0B3FD0D4B1B689BB14B
:1040700000210C4A11700C4A1078984708BD0B4A71
:1040800013780133DBB21370012B02D8084B1B7875
:1040900013B9122000F09CFD08BD00BF006006406F
:1040A000CC04002030050020310500201C05002034
:1040B000F404002038B514460D4B1B7813B90D4B92
:1040C0001B7893B10C4B1D78C5F12103A34202D29A
:1040D000012202711C4609482844224600F0B4F827
:1040E0002544054B1D70204638BD002038BD00BF5B
:1040F00032050020F404002033050020D004002005
:10410000002202714FF47A7181600273014A0260E9
:10411000704700BFB8E9000008B53D4BDB78DBB263
:1041200013F0100F06D01021394AD17013F0400F50
:1041300003D108BD13F0400F2CD013F0040F1BD097
:104140000023344A1370344A1370344B1B681BB17C
:104150009847314B1B782BB901222F4B1A70002244
:104160002F4B1A702A4BD0229A702D4A12781A714E
:1041700001222C4B1A7009E00122264B1A700022F2
:10418000294B1A70224BC0229A701B790222204BB5
:10419000DA7008BD1E4A927812F0100F1CD013F08E
:1041A000010F14D11F4B1B781B4A12789A4207D972
:1041B000591C1C4A11701A4AD25C154B1A7102E044
:1041C0000022134B1A71D022114B9A701BE0104B36
:1041D000C0229A701B7916E00022144B1A7012202C
:1041E0001349032200F0ACFC094B1B79DAB20E4BE9
:1041F0001B781F2B07D80749097821B1581C0A4999
:1042000008700C49CA540222014BDA7008BD00BF85
:1042100000600640C9040020330500201805002076
:10422000D004002034050020310500201C050020AA
:1042300059400000F804002008B50248FFF760FF6D
:1042400008BD00BF20050020844641EA000313F0AA
:1042500003036DD1403A41D351F8043B40F8043B8D
:1042600051F8043B40F8043B51F8043B40F8043B50
:1042700051F8043B40F8043B51F8043B40F8043B40
:1042800051F8043B40F8043B51F8043B40F8043B30
:1042900051F8043B40F8043B51F8043B40F8043B20
:1042A00051F8043B40F8043B51F8043B40F8043B10
:1042B00051F8043B40F8043B51F8043B40F8043B00
:1042C00051F8043B40F8043B51F8043B40F8043BF0
:1042D00051F8043B40F8043B403ABDD2303211D390
:1042E00051F8043B40F8043B51F8043B40F8043BD0
:1042F00051F8043B40F8043B51F8043B40F8043BC0
:10430000103AEDD20C3205D351F8043B40F8043B8F
:10431000043AF9D2043208D0D2071CBF11F8013B8D
:1043200000F8013B01D30B8803806046704700BF53
:10433000082A13D38B078DD010F003038AD0C3F162
:104340000403D21ADB071CBF11F8013B00F8013B44
:1043500080D331F8023B20F8023B7BE7043AD9D303
:10436000013A11F8013B00F8013BF9D20B780370D8
:104370004B7843708B7883706046704730B4394A0D
:104380003949136813F0800FFBD10B6813F0800FCD
:10439000F7D172B6354B1B78002B5FD0344B1C68BD
:1043A00004331D68043318680433196804331A6829
:1043B00004331B682C44204401440A441A44C2F3C9
:1043C0004E0242F400422B4B1A602C331C6804331B
:1043D0001D68043318680433196804331A680433F9
:1043E0001B682C44204401440A441A44C2F34E0280
:1043F00042F40042204B1A6003F108131C68043396
:104400001D68043318680433196804331A680433C8
:104410001B682C44204401440A441A44C2F34E024F
:1044200042F40042154B1A602C331C6804331D689B
:10443000043318680433196804331A6804331B689A
:104440002C44204401440A441A44C2F34E0242F46C
:1044500000420B4B1A600022044B1A7062B630BC4B
:10446000704700BF24B0034024B00B403605002045
:1044700038B003402CB0034030B003402CB00B40A8
:1044800030B00B4060223A4B1A70E12201331A70AF
:10449000384B1B78082B10D1012203F1804303F520
:1044A0006C331A60132334490B6001F5FF2101F2CC
:1044B000FC710A60314A13601FE00A2B0DD11922EA
:1044C0002F4B1A6013232C490B6001F5FF2101F2D9
:1044D000FC710A60294A13600FE00C2B0CBF1522F7
:1044E0003D22274B1A60122323490B6001F5FF215F
:1044F00001F2FC710A60214A1360224B1B7833B130
:104500000123214A136002F50022136005E0002315
:104510001D4A136002F5002213601C4B1B78012B0F
:1045200006D880231A4A136002F5002213601AE0AD
:10453000042B06D88423164A136002F50022136068
:1045400011E0082B06D88523114A136002F50022DA
:10455000136008E0102B94BF862387230C4A136056
:1045600002F50022136001220A4B1A70704700BF47
:1045700000400740A08FFF1F0CB003400CB00B4061
:1045800008B003403905002020B00340A18FFF1F71
:1045900024B00340360500202DE9F8430D2813D937
:1045A000172802D80E38C0B20EE0A0F11A03DBB211
:1045B000052B02D80938C0B206E0A0F12203DBB215
:1045C000062B73D81838C0B23A4B1E5C3A4B1B7896
:1045D0000BB1FFF7D3FE16F0800F29D172B6374C1E
:1045E000374D4FF0010726602F7062B672B6236810
:1045F00013F0800F04D12B7813F0FF0F0FD1F2E7E7
:10460000304B186800222E4B1A7062B62E4B1B7866
:104610001841BDE8F8832B7813F0FF0FE3D062B6A2
:1046200001F0C8FD72B6236813F0800FF3D0E7E7FE
:1046300072B606F040095FFA89F9244F244C06F05F
:104640003F06244D4FF00108B9F1000F04D03B683C
:1046500023F010033B6003E03B6843F010033B6032
:10466000266085F8008062B672B6236813F0800F6A
:1046700004D12B7813F0FF0F0FD1E5E7164B186824
:104680000022144B1A7062B60F4B1B781841BDE81C
:10469000F8832B7813F0FF0FD6D062B601F08AFDB5
:1046A00072B6236813F0800FF3D0E7E70020BDE86F
:1046B000F88300BFD0E900003605002000B00340B9
:1046C0003805002010B00340350500200CB00B4029
:1046D00000B00B403705002010B00B40024A1378A1
:1046E00013F0010FFBD070470100024010B584B0F9
:1046F000174B6C46186859689A68DB680FC4154BED
:104700001B7813F0020F19D08022134B1A7033223A
:1047100004331A700322013B1A7072B66B4643F0E1
:1047200001030E4C2046984762B6237813F07003BD
:1047300004D0237009E0013B03D106E044F6216375
:1047400004490A7812F0010FF5D004B010BD00BF83
:10475000E8E90000010002400700024000000240BA
:1047600010B50446B0F5006F0AD2064B1B7813F063
:10477000010F01D1FFF7BAFF04F1A054207810BD5A
:10478000002010BD0100024038B504460D46B0F5CA
:10479000006F0ED2074B1B7813F0010F01D1FFF70A
:1047A000A5FF04F1A0542378AB4202D02570FFF797
:1047B00095FF38BD01000240024B1A6801321A60B1
:1047C000704700BFC405002008B50D4C236813F4E2
:1047D000802F01D000F0F0FB236813F4806F01D02C
:1047E00001F0A4FF236813F4006F01D002F09CFADB
:1047F000236813F4805FE9D002F026FDE6E700BFEE
:104800003480044008B5FFF7DFFF00BF1022014BE2
:104810001A80704700200540704700BF024A1368A5
:104820001844106018467047A48FFF1FFEE700BFB2
:10483000EFF31383ABB9EFF31083ABB9EFF3058359
:1048400023B10F2B05D9094A985C03E04FF480701F
:1048500000E00020EFF311833BB1834238BF1846DC
:1048600070474FF0FF30704700207047F0E300E0E2
:1048700010B5154B1C681C6014F4805F05D0134BF9
:10488000DB6813B1114BDB68984714F4005F05D067
:104890000E4B1B6913B10D4B1B69984714F0200F89
:1048A00005D00A4B1B6E13B1084B1B6E984714F0D2
:1048B000100F07D0054BD3F884301BB1034BD3F84E
:1048C0008430984710BD00BFA09004403C050020F4
:1048D00010B5274B1C681C6014F4803F05D0254B95
:1048E0001B6813B1234B1B68984714F4003F05D095
:1048F000204B5B6813B11F4B5B68984714F0010FA6
:1049000005D01C4B1B6C13B11A4B1B6C984714F051
:10491000020F05D0174B5B6C13B1164B5B6C9847BD
:1049200014F0080F05D0134B9B6C13B1114B9B6C0B
:10493000984714F0040F05D00E4BDB6C13B10D4BF0
:10494000DB6C984714F4002F05D00A4B5B6E13B153
:10495000084B5B6E984714F4802F07D0054BD3F8B3
:1049600080301BB1034BD3F88030984710BD00BF97
:10497000A0A004403C05002010B5384B1C681C600A
:1049800014F0080F05D0364B5B6A13B1344B5B6AE9
:10499000984714F0100F05D0314B9B6A13B1304B80
:1049A0009B6A984714F0400F05D02D4BDB6A13B17A
:1049B0002B4BDB6A984714F0800F05D0284B1B6BFC
:1049C00013B1274B1B6B984714F0200F05D0244BD5
:1049D0005B6B13B1224B5B6B984714F0010F05D052
:1049E0001F4BDB6B13B11E4BDB6B984714F0020FB0
:1049F00005D01B4B9B6D13B1194B9B6D984714F061
:104A0000040F05D0164BDB6D13B1154BDB6D9847CA
:104A100014F4007F05D0124BDB6E13B1104BDB6E2C
:104A2000984714F4807F05D00D4B1B6F13B10C4BCE
:104A30001B6F984714F4806F05D0094B5B6F13B15F
:104A4000074B5B6F984714F4006F05D0044B9B6FC6
:104A500013B1034B9B6F984710BD00BFA0B004403B
:104A60003C05002010B5264B1C681C6014F0010F9B
:104A700005D0244B9B6813B1224B9B68984714F0D8
:104A8000800F05D01F4B5B6913B11E4B5B699847C4
:104A900014F0100F05D01B4B9B6913B1194B9B6988
:104AA000984714F0040F05D0164BDB6913B1154B72
:104AB000DB69984714F0080F05D0124B1B6A13B13D
:104AC000104B1B6A984714F0020F05D00D4B9B6BDF
:104AD00013B10C4B9B6B984714F0200F05D0094B7A
:104AE0001B6D13B1074B1B6D984714F0400F05D099
:104AF000044B5B6D13B1034B5B6D984710BD00BF5A
:104B0000A0C004403C05002010B50B4B1C681C6085
:104B100014F0020F05D0094B9B6E13B1074B9B6E2F
:104B2000984714F0010F05D0044BDB6F13B1034B12
:104B3000DB6F984710BD00BFA0D004403C050020AB
:104B400030B4212831D8042A2FD8DFE802F0070931
:104B5000050B03000B2406E00A2404E0082402E00D
:104B60000C2400E00924124B03EBC0035A68114BDC
:104B7000114DC3F89C51114DC3F8A051104DC3F80D
:104B8000A451104DC3F8A8510F4DC3F8AC5172B6E3
:104B9000136823F4702313600C4D45F8201043F084
:104BA000807343EA0444146062B630BC704700BFAF
:104BB000F8E90000008AFF1F71480000D14800009A
:104BC00079490000654A0000094B00003C050020BF
:104BD000094B03EBC0035A6872B6136823F087735E
:104BE00023F4803343F0807313600022034B43F8B7
:104BF000202062B6704700BFF8E900003C050020A5
:104C0000044B00221A6004490A60044A1060102212
:104C10001A60704714D0034004D0034000D0034012
:104C200021281ED80F4B53F8303093F8802212F011
:104C3000FF0F08D019B1012283F8802070470122AC
:104C400083F800217047074B03EBC000436821B194
:104C50001A6842F003021A6070471A6822F00202D2
:104C60001A607047F8E90000212806D8044B53F871
:104C7000303093F80002C0B270470020704700BF88
:104C8000F8E9000021281CD80E4B03EBC0035B6839
:104C9000012908D10B4A52F8302082F880124FF4D3
:104CA000A2721A607047074A52F83020002082F83A
:104CB000800219B94FF480721A60704740F20312F3
:104CC0001A607047F8E9000072B60D4B1B680D4A78
:104CD00012680D49096862B611F0806F02D0322B5C
:104CE00088BF0132C3F58C3303F23F130749A1FBA0
:104CF00003031B094FF47A7000FB0230704700BFBA
:104D000018E000E0C405002004ED00E0398EE3382F
:104D100038B50546FFF7D8FF044625B938BD013D33
:104D20000AD004F57A74FFF7CFFF001BB0F57A7F45
:104D3000F5D201F03FFAF6E738BD00BF10B5254BBC
:104D40004FF400021A604FF080721A604FF0007248
:104D50001A604FF080621A604FF000621A60002003
:104D60001D4B186048F6FF710433196028231B4A55
:104D7000136008321360083213600832136008327F
:104D8000136008321360083213600832136009227E
:104D9000134C226004F580540434206004342160F4
:104DA0000434236008342360143C226004F5FE249C
:104DB000043420600B4801600B490B6008310B6024
:104DC0000A4B1A60FFF75EFBFA20FFF7A1FF00F025
:104DD00073FC10BD08E100E0048003400C80034038
:104DE0000080034008800B400C800B4000800B408B
:104DF00030B40E4B1B7843F002020D4C04EBC2049E
:104E000060600C48007800280CBF8824C82444EA5D
:104E10000141074D45F8321080F00100054A10703D
:104E200083F00103014A137030BC70473006002044
:104E30000080FF1FA906002010B4431E032B11D8C9
:104E400072B60A4A52F8230050B14268074941F845
:104E50002320074A32F813400188611A22F8131000
:104E600062B600E000205DF8044B70472006002089
:104E7000F0080020013803280DD872B6074B53F80C
:104E800020302BB1002001305B68002BFBD100E00B
:104E9000002062B670470020704700BF74060020F3
:104EA00038B572B601231B491B4C5A1812F8012C55
:104EB00012F0080F24D09A0054F832506DB9164BF6
:104EC00003EBC20108304860144943F83210144B18
:104ED0001A78013A1A7062B638BD42F0010254F8ED
:104EE00032506DB90C4B03EBC201083048600D49DC
:104EF00043F832100A4B1A78013A1A7062B638BD7C
:104F00000133052BD1D162B60022054B1A7000F097
:104F100037FC38BD30EB00000080FF1F88004000E8
:104F20009E060020C800400010B4431E032B37D853
:104F3000400140F010001C4A104472B61B4AD25C7B
:104F4000032A09D8DFE802F019021B050830022203
:104F500016E00830042213E0154A52F823201AB94B
:104F6000134A42F8231003E0124A52F823205160FA
:104F7000104A42F8231062B612E0032200E0052234
:104F80000A4CE25401F10803436000F00803002BCF
:104F90000CBF8823C8230A8843EA0243036062B631
:104FA0005DF8044B704700BF0080FF1FDC05002048
:104FB00074060020840600202DE9F84FA34CDFF88A
:104FC000E092DFF8E0A2DFF8E0B22578EDB215F06C
:104FD000040F1DD09E4B1B7813F0FF0F16D09D4B76
:104FE0001B7803F0FF022BB1531EDBB2994A1370FA
:104FF00003B900BE984B1B7803F0FF0233B1531E78
:10500000DBB2954A13700BB900F0FAFC042323704D
:1050100015F0080F00F0E48299F80030DBB21D09AA
:1050200040F021828D4D9E0805EBC6035A6855F865
:105030003630C3F38303013B0C2B00F21082DFE810
:1050400013F0CB01CB010E020E020E020E020E0275
:105050000E02E8010E020E020E020D0080491368D6
:105060000B6052684A607F4A45F8362000227E492C
:105070000A607A490A618A6101217C4A11709BB2F7
:1050800040F28162934218D8B3F5D06F2ED2B3F5B7
:10509000817F00F01E8106D8802B00F0C980822B12
:1050A00000F0CC8066E140F20232934200F02681AB
:1050B000B3F5A06F00F062815CE142F221029342FD
:1050C00000F0868107D8B3F5086F00F0AB80B3F528
:1050D000106F11D04EE142F22122934200F0418143
:1050E00042F22132934200F0498143E1604B5D6816
:1050F000002D40F0188130E1594B9A78544B1A70CA
:10510000564D05F180062B6A13F0800F03D0686AB4
:10511000083800F035FB0835B542F4D1DFF88C8152
:1051200000263746534AB05828B1456800F028FB9E
:105130000DB12846F9E700234E4973504E4AB3504B
:105140004E4BF05828B1456800F01AFB0DB12846C7
:10515000F9E7002349497350494AB35028F8023F00
:10516000484BFB5C023B032B0AD8DFE803F0020646
:1051700002060022434BDA5502E00122414BDA5588
:1051800001370436102ECDD100223F4B1A70012575
:105190003E4EDFF81C81314F05EB080313F8013C4C
:1051A00006F8043B13F0080F2DD000F0C9FA48B1FF
:1051B000A90007EB451200F108035360344A47F891
:1051C000312007E0AB00002247F833202E4B1A783D
:1051D00001321A7000F0B4FA58B1AB0043F0010389
:1051E00007EBC30100F108024A601E4A47F833206A
:1051F00009E0AB0043F00103002247F83320224BC3
:105200001A7801321A70AA0042F00201002347F80E
:10521000313042F0030247F8323001351D4B9E42D7
:10522000BAD11EE20A4B1B781B4D2B700127AAE056
:10523000194D00232B706B700227A4E0084B9B884C
:10524000042B37D90F22154B1A70C1E0802007407C
:10525000A806002031060020AA0600200080FF1FBB
:1052600094060020C8004000C8050020A9060020C0
:1052700034EB000020060020CC050020740600203E
:1052800084060020DC0500209E060020C420074084
:1052900088004000D4200740A0060020C02007401E
:1052A000902007409420074098200740EE080020F7
:1052B00030EB0000A04A0021117051709F4A12F893
:1052C000233013F0020F5CD09B4D01232B7002277B
:1052D00059E09B4B9B8803F07F03042B02DC984A28
:1052E00052881AB10F22954B1A7071E0934A12F846
:1052F000231021F0020102F82310B2E1904B9B88A9
:1053000003F07F03042B02DC8D4A52881AB10F226E
:105310008A4B1A705CE0894A12F8231041F00201AE
:1053200002F823109DE1864B5E889F88854BA3F190
:105330000C02114633F80C0CB04209D133F80A0CB8
:10534000B84205D1360A032E0CBF2F7817891AE010
:105350000D690C330C32002DEBD10F22774B1A70F4
:1053600036E0794B1A68794B1A60754B9A78784B0E
:105370001A7076E10F22714B1A7029E000273D4622
:1053800001E002276C4D6E4BDB889F4228BF1F4611
:10539000402F34BF3E46402628463146FFF728FDC1
:1053A0003544BF1B03D13F2E00F2608110E0402F37
:1053B00034BF3E46402628463146FFF719FD3544A6
:1053C000BF1B01D13F2E03D9624B1D60624B1F8072
:1053D00001238AF8003042E0594B198842F2210338
:1053E000994212D15D4BD81D12F8011B03F8011F21
:1053F0008342F9D15A4B1B68862B02D10F22594B9D
:105400001A7000200146FFF7F3FC574B45F8363081
:1054100025E0504B1E68BEB14F4FB7F80080B8F181
:10542000400F34BF4546402530462946FFF7E0FC93
:10543000C5EB08039BB23B800BB9402D01D135442D
:1054400000E00025434B1D603D4B1B88B3F5A06F6A
:1054500005D13B4B00225A709B788BF8003001231A
:105460008AF80030B9E0414E9F0806EBC708D8F82B
:105470000420A2F10800013DEDB213F0080F47D05F
:1054800000F07EF93A4B53F825304BB35A6838494F
:1054900041F8252003F10802C8F80420354A525D7E
:1054A000032A12D8DFE802F002060A0E0321314A6D
:1054B00051550AE002212F4A515506E005212D4A97
:1054C000515502E004212B4A515518F0080F0CBF2A
:1054D0008822C8221B8842EA034346F837307CE022
:1054E000244B5B5D032B0BD8DFE803F077770206D4
:1054F0000022204B5A5570E001221E4B5A556CE099
:1055000018F0080F0CBF022203221A4B5A5564E010
:1055100056F837301B0C22F8083C002B55D00023DE
:1055200022F8063C42F8043C134B53F825302BBBC1
:10553000114B43F8250025E0A0060020C0200740BD
:105540009406002040EB0000C40500200009002064
:10555000B8060020C80500209C060020F70800209F
:10556000F808002031060020C80040000080FF1F1E
:1055700074060020DC050020200600203F4B53F875
:10558000253058603D4B43F825003D4B33F815104E
:1055900032F8082C0A4423F8152000F0D1F860B145
:1055A00000F10803C8F8043018F0080F354B364AEC
:1055B00008BF134646F837300FE0002346F837306F
:1055C000324B1A7801321A7007E018F0080F2D4B91
:1055D0002D4A08BF134646F8373008232370F4E4F9
:1055E00015F0010F22D02A4902230B700022294B0B
:1055F0001A70294B24481860284C5C609860284831
:10560000D8601A619A610D20264B1870FF23264836
:1056100003700838037018300270244A13709F22F8
:10562000234B1A7001230B70BDE8F88F15F0800F23
:1056300005D00D221B4B1A708022403B1A7015F0CA
:10564000020F06D0184B1A78D2B21A700222083B09
:105650001A7015F0100F0ED01022164B1A70BDE8FC
:10566000F88F00200146FFF7C3FBB1E62846002172
:10567000FFF7BEFBACE6BDE8F88F00BFCC0500200D
:10568000F0080020C8004000880040009E0600206E
:1056900094200740300600200080FF1FE005002016
:1056A00034060020C0200740882007408C20074097
:1056B000842007408020074008B501F039FE002310
:1056C0001B491A465A50C81842600833882BF9D132
:1056D000184B1A6842F480221A60154BC3F3072155
:1056E000154A1170C3F30741143211701B0E0432B6
:1056F0001370FF23343A137008321370783A137022
:1057000001238432137000216C3211707C3A1370C3
:1057100070220A4B1A704FF40072A3F241331A60E0
:10572000102203F1C04303F5C8231A7008BD00BF5F
:105730000080FF1F348004409C20074049E400E0C3
:1057400072B60D4B1A68B2FA82F30B2B02D962B60D
:10575000002070474FF00041D94022EA010206497B
:105760000A6062B6054903EBC303DB00C8180022D8
:10577000CA504260704700BFA88FFF1F008CFF1FF8
:1057800008B50F4BC31A0F4AA2FB03131B090B2BBF
:1057900014D80D4A12783AB10C4A127812F0FF0F61
:1057A00002D0FFF77DFB08BD72B6094A4FF00041F9
:1057B00021FA03F311681943116062B608BD00BFF6
:1057C000008CFF1F398EE3389E060020A8060020BB
:1057D000A88FFF1F10B5134B1B6853B9124B1B78D2
:1057E00013F0FF0F18D00320FFF726FB0D4B1860B6
:1057F000A8B10C4B186843885A1C03441C7A0388D0
:105800009A4206D3FFF7BCFF0022064B1A602046DF
:1058100010BD4280204610BD4FF0FF3010BD4FF04C
:10582000FF3010BDB4060020A806002008B50D4BBF
:105830001B6883B90C4B1B7813F0FF0F08D00320B3
:10584000FFF7FAFA074B186028B94FF0FF3008BD90
:105850004FF0FF3008BD034B1B685A881344187A79
:1058600008BD00BFB4060020A8060020044B98889D
:10587000044B1B681BB11A885B88D31A1844704705
:10588000F0080020B40600202DE9F047044601226C
:10589000374B1A700E46002964D0DFF8E080DFF83D
:1058A000E0909A46334FD8F8003083BB99F8003027
:1058B00013F0FF0F06D100222D4B1A704FF0FF306E
:1058C000BDE8F08748F601450420FFF7D3FA072822
:1058D0000AD801238AF80030FFF732FFC8F8000029
:1058E000A8B900238AF80030013D01D03B7833B1DC
:1058F0000122204B1A704FF0FF30BDE8F08700F016
:1059000059FC99F8003013F0FF0FDDD1D3E70023E5
:105910003B70D8F800104A88C2F14005AE4238BF4B
:10592000354602F108030B442A444A80761B3DB1F8
:10593000254414F8012B03F8012BAC42F9D100E007
:1059400025464B883F2B07D940230B800420FFF7C7
:10595000EBFA0023C8F800300522074B1A700EB18D
:105960002C46A0E70020024B1870BDE8F08700BF6E
:10597000AB060020B0060020AA060020AC060020DE
:10598000A806002000B583B002AB03F8010D18464D
:105990000121FFF779FF03B05DF804FB10B5144B4C
:1059A0001B7813F0FF0F21D00122124B1A70124BFB
:1059B000196851B10024114B1C704B880B800420D6
:1059C000FFF7B2FA0C4B1C600DE0FFF7B9FE014681
:1059D00030B10022094B1A700420FFF7A5FA02E04B
:1059E0000122064B1A700022024B1A7010BD00BF34
:1059F000A8060020AB060020AC060020AA06002066
:105A000008B50E4B1B7813F0FF0F16D10C4B19681D
:105A100041B14B880B800420FFF786FA0022084B27
:105A20001A6008BDFFF78CFE014618B10420FFF78D
:105A30007BFA08BD0122034B1A7008BDAB0600209B
:105A4000AC060020AA060020F0B4C02928BFC0215F
:105A500072B6134B1860134B00221A605A609A609A
:105A6000DA601A615A61C1B113460E4C01275A0916
:105A700003F01F0607FA06F654F82250354344F89F
:105A8000225001338B42F2D10022134684186370F6
:105A9000013302F582728B42F8D162B6F0BC7047D6
:105AA000C4060020CC06002010B472B6234B1B683D
:105AB0008BB9224B5B6883B9204B9B687BB91F4B2A
:105AC000DB6873B91D4B1B696BB91C4B5B6963B910
:105AD00062B600202EE0194A08E0194A06E0194A89
